:020000040001F9
:10B00000E8390020D5B00100EFB00100F1B0010037
:10B010000000000000000000000000000000000030
:10B02000000000000000000000000000F3B001007C
:10B030000000000000000000F5B00100F7B00100C2
:10B04000C9C80100F9B0010035D30100F9B0010011
:10B05000F9B001000000000079C0010089B20100D0
:10B06000F9B00100F9B00100F9B00100F9B0010038
:10B07000F9B001004DCF0100F9B00100F9B00100B5
:10B08000F9B00100ADCF0100F9B00100F9B0010045
:10B090006DD20100F9B0010075D20100F9B00100D4
:10B0A000F9B00100F9B0010000000000000000004C
:10B0B0000000000000000000000000000000000090
:10B0C0000348854600F0A2F800480047ADF60100AD
:10B0D000E83900200321094802680A430260084851
:10B0E00002680A4302600748804707480047FEE7B6
:10B0F000FEE7FEE7FEE7FEE7FEE70000240500406E
:10B100005405004095D20100C1B0010030B50B4696
:10B11000014600202022012409E00D46D5409D4231
:10B1200005D31D469540491B2546954040191546B7
:10B13000521E002DF1DC30BD70B5002425460028DC
:10B1400001DA01244042002901DA01254942FFF7D2
:10B15000DDFFAC4200D04042002C00D0494270BD1F
:10B1600003460B439B0703D009E008C9121F08C020
:10B17000042AFAD203E00B780370401C491C521ECB
:10B18000F9D27047D2B201E00270401C491EFBD2D6
:10B1900070470022F6E710B513460A4604461946E2
:10B1A000FFF7F0FF204610BD30B505462A460B4696
:10B1B00010781C78521C5B1C002801D0A042F7D0EC
:10B1C000002C03D0002802D06D1CEFE7284630BDCC
:10B1D000421C0178401C0029FBD1801A704730B511
:10B1E00004460020034600E05B1C934203D2E05C6F
:10B1F000CD5C401BF8D030BD03460A780270401C7D
:10B20000491C002AF9D1184670470000064C012558
:10B21000064E05E0E36807CC2B430C3C98471034FE
:10B22000B442F7D3FFF750FFB4180200D41802005D
:10B2300070B58C180578401C6B075B0F01D1037843
:10B24000401C2A1106D10278401C03E006780E70DB
:10B25000401C491C5B1EF9D12B0705D40023521E4C
:10B260000DD40B70491CFAE70378401CCB1A921CD2
:10B2700003E01D780D70491C5B1C521EF9D5A142DC
:10B28000D8D3002070BD0000FEB5134C0026E06846
:10B290000125124F002810D002F0C8FC00280BD066
:10B2A0000120B86068460670E0680190217C68461D
:10B2B0000181A57421688847FEBD09480660012008
:10B2C000B8600848066069460D7080688880A5747B
:10B2D00068462168EFE70000642500200073004005
:10B2E0000071004000750040FFB581B0044603982E
:10B2F0001D4606070F46360F204600F095FD1948FB
:10B30000002D046002D0456001F0A8F90A980028D9
:10B3100001D01449886000250FE03946204600F02E
:10B3200083FD1048046000F063FF204602F004FA39
:10B330000C48103410358760103703988542ECD3E1
:10B34000002E0CD03946204600F06EFD1020811BE7
:10B35000A019FFF71EFF0348046000F049FF05B085
:10B36000F0BD000054210020F8B52B4C0746E27FC9
:10B370002AA100F047FE254600262035002805D0EA
:10B380002848042201781143017032E02249E27F0B
:10B390005D39384600F036FE1F4CE03C0028607DE9
:10B3A00033D0022805D0032803D00F2801D010285D
:10B3B0000AD114221CA1384600F024FE00280BD02C
:10B3C0001AA1002001F068FE607D062806D00B2837
:10B3D00004D0152802D00CE01BA10EE0412212A1DE
:10B3E000384600F00FFE002806D01FA1002001F013
:10B3F00053FE6E700420F8BD22A1002001F04CFE27
:10B400003946002001F048FE01E00F2801D002205B
:10B41000F8BD0020F8BD0000A02E00204C69657228
:10B4200064610000BA2000204F4B000061742B6360
:10B4300066756E3F2F61742B63676174743F206F74
:10B440006B20210D0A00000061742B6366756E3F4E
:10B450002F61742B63676174743F206572726F7221
:10B4600020210D0A0000000061742B6367736E3D9C
:10B47000312F61742B6E63636964206F6B20210D23
:10B480000A00000061742B6367736E3D312F617495
:10B490002B6E63636964206572726F7220210D0ADE
:10B4A0000000000010B51049097C00290CD00128CB
:10B4B00008D108460D4C00F0BDFD217A01228240E2
:10B4C00011432172032010BD0848017A002906D0DB
:10B4D0000021017206A1002001F0DEFD01E006213D
:10B4E0000170002010BD0000C02D0020802C002025
:10B4F0004576656E74206973204572726F72200DF7
:10B500000A000000F0B500249BB0064668462546B8
:10B5100004702F46642101A8FFF73BFE002E2ED1B8
:10B5200068460571102242711648012382786846E8
:10B530008271C571057245728572134D01A907228A
:10B540002819FF30213086788E54521C641CE4B2D6
:10B55000D2B2142CF4D38B54521CD0B20B54401CD6
:10B56000C0B20B54401CC0B20B542A190020FF3249
:10B570004132D2780A54801CC0B20628FAD3384629
:10B580001BB0F0BDC02D0020802C0020F8B5044673
:10B590004578407A012832D0207A042830D0032818
:10B5A0002ED01848867DF0212046FFF7F2FD0120BD
:10B5B0006072657000202072134FA6702D01EE1985
:10B5C000307BE070B0887D21C90048436060204630
:10B5D0000A3000907959FFF70FFE7859FFF7F8FD10
:10B5E00025466035A87320466F30B168FFF704FE2A
:10B5F000A97B009804F07CF9A078401CA070F8BDED
:10B600000026D0E7C02D0020800F0200F8B5364C90
:10B61000A17803290ED2354A354E515C337F354A25
:10B6200001270025042B06D0032B53D007202070C0
:10B6300037757175F8BD152902D0162934D122E06D
:10B640002DA1FFF7B1FD07462DA1002001F024FD3B
:10B65000002F29D0B57000203918497930390A29CE
:10B6600003D2401CC0B22028F6D3381841792846AE
:10B670000A22504330380818C2B2B27023A1002009
:10B6800001F00AFD10E01848617AC37A0120984061
:10B69000032902D1317C81433174217A81431448DA
:10B6A0002172157080380583A078401CC0B2A0704C
:10B6B00003280CD30020FFF7F5FE002803D0052057
:10B6C0002070A570F8BD062020702573F9E70520CD
:10B6D0002070F8BD162904D1052020701078401C78
:10B6E0001070A5702573F8BD802C0020500F02004B
:10B6F000C02D0020942000202B4353513A0000001D
:10B70000636D64206373710D0A0000006373712020
:10B710003D2025752E0D0A00F8B5154CA1780E298F
:10B720000FD214480026425C1348037F0546803D33
:10B73000042B07D00127032B12D007212170077596
:10B740004275F8BD491CC8B2A0700E2805D306206A
:10B750002070A67002202877F8BD03202070F8BD65
:10B7600006A1002001F098FC2770A670AE76F8BD07
:10B77000802C002030110200C02D0020436F6E6E1F
:10B780006563742052657365740D0A00F8B5144C36
:10B79000A17805290FD213480025425C1248037F87
:10B7A0000646803E042B07D00127032B0FD007212C
:10B7B000217042750775F8BD491CC8B2A0700528F4
:10B7C00002D30420207007E002202070F8BD07A1FA
:10B7D000002001F061FC2770A570B576F8BD00006F
:10B7E000802C0020530F0200C02D0020496E697488
:10B7F0002052657365740D0A00000000F8B5464DCF
:10B80000A9780A290DD2454A0026525C44490B7F8B
:10B81000042B07D00124032B73D0072028704A750E
:10B820000C75F8BD062A02D00B2A5CD12AE03DA196
:10B83000FFF7BAFC07463DA1002001F02DFC002FC8
:10B8400051D0002438194079014630390A2905D3EE
:10B8500031391A2902D341381A2804D2641CE4B2BF
:10B86000102CEFD303E0102C01D2381946712C486C
:10B87000791D2E3822460746FFF772FC3B462246CA
:10B880002DA129E032A1FFF78FFC074632A100204D
:10B8900001F002FC002F26D00024381980790146DF
:10B8A00030390A2905D331391A2902D341381A28E7
:10B8B00004D2641CE4B2202CEFD303E0202C01D28C
:10B8C000381986711648B91D1E3822460746FFF7FB
:10B8D00047FC3B46224623A1002001F0DDFB00216E
:10B8E000062004F091FFA878401CC0B2A8700A2876
:10B8F00004D303202870AE70F8BD02E00420287045
:10B90000FAE71EA1002001F0C7FB05482C70AE70BD
:10B9100080388676F0E70000802C00203E1102007F
:10B92000C02D00204347534E3A000000636D642051
:10B930006367736E0D0A00006C656E203D202575EF
:10B940002C20696D65693A25732E200D0A000000D0
:10B950004E434349443A0000636D64206E6363695B
:10B96000640D0A006C656E203D2025752C206E63E9
:10B970006369643A25732E200D0A00004D657373C8
:10B980002052657365740D0A00000000F8B5154E6D
:10B9900000243460144D2846E0306C77827FC277F3
:10B9A00007468477014620373C701048463900909E
:10B9B000FFF7D6FB042030600098FFF7D5FC28770E
:10B9C00002280DD0787800280AD0012807D102215A
:10B9D000052004F019FF06A1002001F05DFB2C7783
:10B9E000F8BD000000250040C02D00208D2C002057
:10B9F0005354415254204445434F44450D0A0000DE
:10BA0000F8B5B24DB2482C462A78A188007800904B
:10BA10002646A078FF340127C0364134130002F0D7
:10BA20001AF8082764A1C0C6EBFE05FD207F002898
:10BA30007ED0022801D0012805D1A07DE17D884279
:10BA400001D30320207768788100A248415800295B
:10BA500002D09E480D308847207F042801D003285B
:10BA600001D1072068709C490020886560771FE13C
:10BA700000295DD100280DD001281AD0022827D036
:10BA800096A1002001F008FB0020B076687002212A
:10BA900029700CE196480821C1608901C16095A117
:10BAA000002001F0F9FAA878401CA8704B20000192
:10BAB000A0E08F490820886096A1002001F0ECFAF0
:10BAC000A878401CA8706420A88097480770EFE011
:10BAD000012087494002886094A1002001F0DCFA2F
:10BAE000A878401CA870964884E0002920D100283E
:10BAF00025D001282ED00020B0766F702870A87055
:10BB0000B075217C3943217428723077A072E072BD
:10BB1000A0811E21E1818B494A78521CD2B24A7021
:10BB2000032AA4D34870009808226949104300E012
:10BB30009CE0087084A1002001F0AEFAB8E001207A
:10BB40006B494002C860AF70C820A88076490020C9
:10BB50000870ADE001206649400288600220A870AC
:10BB6000322047E0002902D0009949077ED50028FD
:10BB700015D07AA1002001F08FFA0020A880544847
:10BB8000FB22017811400170287868700720287026
:10BB900027755049A878491F085C60758BE075A12E
:10BBA00021E06A700721297027757849F4E7002998
:10BBB00002D00099490763D5002813D074A1002052
:10BBC00001F06AFA0020A8804148FB220178114068
:10BBD000017028786870072028706C492775A8784C
:10BBE0000E31D9E770A1002001F056FAA878401C68
:10BBF000A8707348A8805BE00120FFF753FC6872CF
:10BC0000002855D0297A002952D0A978002900D1DE
:10BC10002F73304A083A515C162901E052E030E0B7
:10BC20001AD1032818D1207C00F004FA27490022F9
:10BC3000E87271310092002802D001280AD105E093
:10BC40000020FFF75FFC5FA1009000E062A10020F0
:10BC500001F022FA00987075A07A032802D3A87820
:10BC600000280BD028786870072000E008E02870D2
:10BC700027751848A9780838405C8EE76F702F70D8
:10BC8000F8BD0020FFF70EFC002802D0A87A384348
:10BC9000A872A87A00280BD000F0CCF9411D2970B9
:10BCA000A97A8740B943A972062068700020A8705D
:10BCB000207D0128E4D10020207507485430FFF78B
:10BCC00065FCF8BD02202870F0E70000802C002001
:10BCD000BA200020580F0200802D00206E65787475
:10BCE00020737461746520696E697420210D0A00E7
:10BCF00000050050636C656172206E6220706F7782
:10BD000065726F6E20616E642072657365742021A8
:10BD10000D0A0000736574206E6220706F77657283
:10BD20006F6E20210D0A0000EE2000207365742044
:10BD30006E6220726573657420210D0A0000000098
:10BD4000581B000094200020436C6F7365205374CF
:10BD50006174652050726F630D0A0000696E69742A
:10BD6000206E622068617320737461727420210DEB
:10BD70000A000000696E69742077616974206E6240
:10BD800020737461727420210D0A000030110200CA
:10BD90006D657373206E62206861732073746172C5
:10BDA0007420210D0A0000006D65737320776169AE
:10BDB00074206E6220737461727420210D0A000079
:10BDC000204E0000696E6974206D65737320757074
:10BDD0006C6F61640D0A00006C6F67206D65737392
:10BDE0002075706C6F61640D0A000000F0B50C4A9C
:10BDF000002112680B4B94468400621800209500C5
:10BE00008A0062442F18165CDF5D7E401654401C89
:10BE1000C0B20428F6D3491CC9B20429EDD3F0BD41
:10BE2000542100203431002000228B5C8354521CAA
:10BE3000D2B2102AF9D37047F8B5064600242F4F26
:10BE400058E02F490D5C002D06D0012D12D0022D97
:10BE50001ED0032D48D141E02A4801782A4801F03C
:10BE6000A9FB012803D10121042004F0CDFC2548C1
:10BE7000047039E02548C17A25480C31006800F08B
:10BE8000AFF801462148007C81422DD1022121E0FA
:10BE9000204800901D481F4BC27AC0680146FFF73A
:10BEA00023FA1D4804701948C368C17A581820380D
:10BEB000C07F814205D9002803D0144A081AD072E5
:10BEC00001E01248C47211480322C07A194602F0F8
:10BED00071FB0321042004F097FC05E00B48C27AB3
:10BEE000417AC06800F01AFD2946304602F0CAFFC8
:10BEF000012802D0B85D0028A3D1F8BD4921002057
:10BF000055120200EC2000203430002020300020A8
:10BF10009C200020DC2000209920002010B50E4934
:10BF20000A78002A0FD0012A10D0022A0AD14A78B2
:10BF3000002A03D000228B1C1A804A700422C821D8
:10BF400000F0E4FB10BD02F029FE10BD01224A7092
:10BF500000227D21C900F3E7EE20002070B5104CCF
:10BF60000546207800280ED001280FD0022809D1DC
:10BF700003F020FAE1210022C900284600F024FC49
:10BF80000220607070BD04F07BFD70BD03F0D2F83C
:10BF90007D2100220901284600F016FC0120F0E76F
:10BFA000FC200020F8B505460B4F0C4E10E03C5C21
:10BFB000230001F050FD02020507FFF7E7FC01E056
:10BFC000FFF71EFD2146284602F05CFF012802D043
:10BFD000705D0028EBD1F8BD551202004921002008
:10BFE00010B50022064C03E003785340E25C401C8D
:10BFF0000B46491E89B2002BF6D1104610BD000039
:10C000004811020070B500240B4605781E78B54231
:10C0100005D15D785B1C002D02D1012070BD0B465F
:10C020004578401C002D03D0641CA4B29442ECD38C
:10C03000002070BD0146002001231A4682400A42BA
:10C0400004D1401CC0B20828F7D3FF20704700007D
:10C0500070B50446064E074D05E0315C204602F0FF
:10C0600011FF012802D0285D0028F6D170BD000024
:10C070005512020049210020F0B50024FF268BB0A4
:10C080000136012527460694304603F0CDFF0028EF
:10C0900007D054484068284203D0304603F0BCFF24
:10C0A0002C43361D6D007F1CB6B2042FECD3FF2548
:10C0B0007D35284603F0B8FF002809D0284603F054
:10C0C000ABFF6807044306AA0121002003F090FF9C
:10C0D000454D200714D00127002627420CD04348A5
:10C0E000B200111808690969C004C00E8903AA5872
:10C0F000890F002A00D090477F00761C042EECD3D5
:10C10000002C6DDA00200890401E63E028194030B2
:10C110000778B906890E009100214156491C49D083
:10C1200009A9009803F0B0FC002843D0B809019099
:10C13000009802F09FFE80002F580198002F02D037
:10C14000032802D00DE0032834D1009808ABC208C0
:10C1500041079446985C490F01228A401043624689
:10C16000985400980521090780004018072109020A
:10C170004018006806A98003800F0290009803F021
:10C1800083FC0028029802D0022802D012E0032883
:10C1900010D10198032808D1029802281ED002214C
:10C1A000009803F0F0FE761CF6B2002F02D0019941
:10C1B0000098B847641C042CA8D3002E10D06A46FF
:10C1C0000121002003F014FF06990098884207D04F
:10C1D0000690089800263446099097E70321DFE788
:10C1E0000BB0F0BD00630040EC240020006500406F
:10C1F00010B50A20FFF7FAFD092400F0F9F900F064
:10C2000015FA2046FFF7F2FD00F00CF8641E240634
:10C21000240EF2D100F0ECF900F008FA0020FFF74C
:10C22000E5FD10BDF0B585B0002003908400EF4817
:10C230000068065D20184178029181780191C078EC
:10C240000090304604F02CFE04F02AFE04F028FE94
:10C2500004F026FE009804F023FE019804F020FE6E
:10C26000029804F01DFE04F01BFE029804F018FE74
:10C2700004F016FE04F014FE04F012FE009804F020
:10C280000FFE04F00DFE04F00BFE04F009FE009812
:10C2900004F006FE04F004FE019804F001FE04F030
:10C2A000FFFD04F0FDFD04F0FBFD304604F0F8FD59
:10C2B0000546304604F0F4FD04F0F2FD45403046FA
:10C2C00004F0EEFD04F0ECFD04F0EAFD45400298B8
:10C2D00004F0E6FD029907464F40084604F0E0FDF1
:10C2E00004F0DEFD04F0DCFD47407D40019804F0E1
:10C2F000D7FD04F0D5FD019907464F40084604F0EC
:10C30000CFFD04F0CDFD04F0CBFD47407D4000980B
:10C3100004F0C6FD04F0C4FD04F0C2FD014600981F
:10C320004140B2484D4000680555304604F0B8FD24
:10C33000009804F0B5FD019804F0B2FD04F0B0FDE2
:10C34000029804F0ADFD04F0ABFD04F0A9FD04F08B
:10C35000A7FD304604F0A4FD04F0A2FD04F0A0FD0A
:10C3600004F09EFD304604F09BFD04F099FD00981A
:10C3700004F096FD04F094FD04F092FD04F090FDAD
:10C38000019804F08DFD04F08BFD04F089FD04F0AC
:10C3900087FD304604F084FD04F082FD04F080FD4A
:10C3A00005467540029804F07BFD0746029804F0AC
:10C3B00077FD04F075FD4740029804F071FD04F02C
:10C3C0006FFD04F06DFD47407D40019804F068FD6D
:10C3D000019907464F40084604F062FD04F060FDF5
:10C3E00004F05EFD47407D40009804F059FD04F0E4
:10C3F00057FD07460098474004F052FD04F050FDF9
:10C4000004F04EFD474079487D4000682018457093
:10C41000304604F045FD009804F042FD04F040FD74
:10C42000019804F03DFD04F03BFD04F039FD04F0FB
:10C4300037FD029804F034FD304604F031FD04F07D
:10C440002FFD04F02DFD04F02BFD009804F028FDD5
:10C4500004F026FD04F024FD04F022FD029804F00F
:10C460001FFD04F01DFD04F01BFD04F019FD0298F2
:10C4700004F016FD04F014FD304604F011FD04F044
:10C480000FFD05467540304604F00AFD04F008FD36
:10C4900004F006FD4540029804F002FD04F000FDA2
:10C4A00004F0FEFC029948404540019804F0F8FC75
:10C4B0000746019804F0F4FC04F0F2FC47400198B0
:10C4C00004F0EEFC04F0ECFC04F0EAFC47407D4094
:10C4D000009804F0E5FC07460098474004F0E0FCB3
:10C4E00004F0DEFC04F0DCFC474040487D4000687E
:10C4F00020188570304604F0D3FC04F0D1FC00987D
:10C5000004F0CEFC04F0CCFC04F0CAFC04F0C8FC3F
:10C51000019804F0C5FC029804F0C2FC304604F017
:10C52000BFFC04F0BDFC04F0BBFC04F0B9FC0198B6
:10C5300004F0B6FC04F0B4FC04F0B2FC04F0B0FC6F
:10C54000019804F0ADFC04F0ABFC029804F0A8FCE8
:10C5500004F0A6FC04F0A4FC04F0A2FC304604F0B5
:10C560009FFC05467540304604F09AFC04F098FCA8
:10C5700004F096FC4540029804F092FC04F090FC14
:10C58000029906464E40084604F08AFC04F088FCF6
:10C5900004F086FC46407540019804F081FC04F0EC
:10C5A0007FFC04F07DFC019948404540009804F070
:10C5B00077FC0646009804F073FC04F071FC4640DA
:10C5C000009804F06DFC04F06BFC04F069FC46403C
:10C5D0000648754000682018C5700398401C0390F9
:10C5E000042800DA22E605B0F0BD00005421002046
:10C5F0000D480068417B427A427342794272427828
:10C60000427141708178827A827081728179827BF5
:10C6100082718173C178C279C270C27AC271C27BE1
:10C62000C272C173704700005421002030B509491F
:10C63000094A0C68002000218B001B191D5C491C55
:10C64000555DC9B21D540429F6D3401CC0B204285C
:10C65000F1D330BD5421002055140200F8B527490C
:10C66000274B4A6800208100545C5C548C18C91820
:10C6700065784D70A5788D70E478401CCC700428E6
:10C68000F1D337E0002182006D46141F66189E5DCD
:10C690006E54491C0429F9D3810715D12F46BE7861
:10C6A0002978FF78174C6D78BC46655DA65D6F46AE
:10C6B0007E706746E65D6F46BE70615CF970124C35
:10C6C0008108615C4D403D70D4182546203D6E4682
:10C6D000297C3678714099546E46697C7278514055
:10C6E0006170AA7CB1784A40A270EA7CF1784A4035
:10C6F000E270401C2C28C5D3F8BD00005421002056
:10C7000034310020551302005515020070B515464E
:10C7100052060C4C160E2288101880B220808842D7
:10C720000ED302F043FA00202080002D08D0A1781B
:10C73000491CC9B2A170B14202D3A070A11E0870F9
:10C7400070BD0000F020002070B50446064E074D75
:10C7500005E0315C204602F095FB012802D0285DFF
:10C760000028F6D170BD00005512020049210020BA
:10C7700070B50446064E074D05E0315C204602F0D8
:10C7800081FB012802D0285D0028F6D170BD000091
:10C790005512020049210020F8B50546084F094E00
:10C7A0000AE03C5C002C01D103F07EF821462846CB
:10C7B00002F068FB012802D0705D0028F1D1F8BDBD
:10C7C000551202004921002010B5074C228810188C
:10C7D00080B22080884205D304F052F90020A11EC7
:10C7E0000870208010BD0000FE20002010B5002041
:10C7F00010499122920004460C54401C80B2904291
:10C80000FAD30D4900200C54401C80B21028FAD3F2
:10C8100008480AA1ED30FEF7EFFC06480BA1DD3019
:10C82000FEF7EAFC0C480B49C1811E210182403809
:10C83000847610BD802C0020C42E00203138302E8C
:10C840003130312E3134372E3131350063746E6220
:10C85000000000004C240000802D00208307FF22F0
:10C86000DB0E9A408907090E994000280BDA000771
:10C87000000F0838830808489B001818C3699343C1
:10C880000B43C3617047830804489B001B1818685A
:10C89000904308431860704700ED00E000E400E0BA
:10C8A00070B50446064E074D05E0315C204602F0A7
:10C8B000E9FA012802D0285D0028F6D170BD0000F9
:10C8C0005512020049210020F8B5FF20013003F085
:10C8D000E3F8002401250E4E0E4F002807D00E4825
:10C8E00004600120B0607D70002002F0E1FAFF20BA
:10C8F000053003F0D1F8002808D00748001D046077
:10C900000220B060BD70012002F0D2FAF8BD000034
:10C9100000030040D824002000010040F7B5054680
:10C9200088B00020049068460790EE48164640887C
:10C93000C11FFA3905D0ECA1002000F0ADFB0721A2
:10C940000DE0002E0FD0F0484079A5280DD00998B1
:10C95000A0280AD0EDA1002000F09EFB0421099838
:10C9600000F09EFE93E1F0A1F5E7F6A10020099A00
:10C9700000F092FB0998F74C0027A92871D010DC31
:10C98000A5284DD006DC012816D0022817D0A028F3
:10C9900022D11AE0A62867D0A72865D0A8281BD1E5
:10C9A00064E002A9AA380691030001F054F807C612
:10C9B000F0EEED5BECEB15000823E7A201E00F239E
:10C9C000E7A2002100F076FE5FE1E9A1002000F07F
:10C9D00063FB2878012801D0042153E1CA4D68790E
:10C9E000A528F1D0277001261021E64803F02EFA81
:10C9F000601C1022E349FEF7B3FBE34811240670E4
:10CA00000021062003F000FF2246E0A1002000F0F4
:10CA100043FB2146099800F041FAA520687134E1F2
:10CA2000102E01D004212EE10822DD49284600F015
:10CA3000AEFD0028C8DD0822A918D948FEF790FBF2
:10CA40000021062003F0E0FE284600F047FE69467C
:10CA50000875102806D2CC488770284600F05EFE84
:10CA600003E13EE001210DE107210CE1CDA1002011
:10CA700000F012FB092EAFD10822C949284600F068
:10CA800086FD0028A0DD08222946C548FEF768FB80
:10CA90000021062003F0B8FE9B48277000796070E3
:10CAA00068460775C34801260088012801D86846F2
:10CAB00006756846007DA0700321099800F0EEF924
:10CAC0002B7A1021BC4ABD48A12B02D0A22B03D047
:10CAD000DBE00223137000E0167002780A43027054
:10CAE000D3E0B7A1002000F0D7FA0C2EC3D1082262
:10CAF000AB49284600F04BFD00287DDD0822294681
:10CB0000A748FEF72DFB0021062003F07DFE287AC2
:10CB1000697A00020843A97A00020843E97A000210
:10CB20000843AC49884200D256E749424018AA4916
:10CB30000860A048A949018097E0079800F0EAFC46
:10CB4000012807D006202070601C0D21FEF721FB74
:10CB50000E2183E12770601C08220699FEF700FB76
:10CB60009C48019908180190000E60720198000C11
:10CB7000A0720198000AE07201982073684640781C
:10CB80006073E5E73AE185E071E055E0FFE7012EEB
:10CB9000CAD12878AB28C7D100F0B2FC002807D052
:10CBA00000F0AEFC05A900F047FD002802D02AE005
:10CBB000052167E0684607704770007D410602D591
:10CBC00001216A465170810605D56A4651780222D4
:10CBD00011436A465170C10605D56A465178042250
:10CBE00011436A465170000705D569464878082107
:10CBF00008436946487000E047E002236A46002186
:10CC0000099800F057FD604CA078102812D26946B0
:10CC100000F02AFD002803D0A078401CA070F3E7A4
:10CC200008236A460021099800F044FDA078401CC2
:10CC3000A0702AE0062125E0082229460698FEF782
:10CC40008FFA287A697A00020843A97A0002084319
:10CC5000E97A000208435F49494240180190079869
:10CC600000F0F0FB012800D0FCE600210AE0812E54
:10CC70008ED1287AAA288BD108226946284600F04E
:10CC800086FC02E0099800F00BFD3F4847700498CD
:10CC90000BB0F0BD092E00D29EE60822404928467E
:10CCA00000F075FC0028F0DD082229463C48FEF71C
:10CCB00057FA0021062003F0A7FD287A01280ED09C
:10CCC0002946093110280BD01128E5D110224448FB
:10CCD000FEF746FA0021062003F096FDC5E781E045
:10CCE00089E000002030002050524F544F434F4CF9
:10CCF0005F4150505F4552525F56455253494F4E27
:10CD00005F31210D0A000000B220002050524F5424
:10CD10004F434F4C5F4150505F4552525F5041521C
:10CD2000414D5F33210D0A0050524F544F434F4C39
:10CD30005F4150505F4552525F504152414D5F320A
:10CD4000210D0A00636F6D6D616E64203D202564C6
:10CD50000D0A0000E02E00204856312E302E330000
:10CD60005356312E312E302D3138303830360000C8
:10CD7000636D6420676574206165736B6579210D4F
:10CD80000A000000CC2000209820002073656E640B
:10CD90004C656E677468203D202564210D0A0000F3
:10CDA000BB200020636D6420737769746368210D74
:10CDB0000A000000A6200020FC200020BA2000204D
:10CDC000636D642061646A7573742074696D652194
:10CDD0000D0A000000D36C38C820002060EA000073
:10CDE0005D2D0020687A012802D0022800D0F3E5EA
:10CDF000264908706EE72022254869E7092EF6D3F8
:10CE000008222449284600F0C2FB002800DC3CE749
:10CE1000082229461F48FEF7A3F90021062003F047
:10CE2000F3FC287A12281DD01328E0D11A48807903
:10CE3000800729D516492770601C20223531FEF75E
:10CE40008FF9601C00F0C2F82121FEF75FF96846F7
:10CE50000175491C6754007D801CC1B2099800F01F
:10CE60001DF812E70C488079C0070BD008492770DD
:10CE7000601C10222531FEF773F9601C00F0A6F843
:10CE80001121E2E70921FDE60A21FBE60521002048
:10CE90006D2D0020BB200020B220002070B5224C58
:10CEA000F0222270A52301226370A270E270227129
:10CEB00062710026A671E67126721C4A6072927A2F
:10CEC0000B25A272AA2801D0A22801D100290DD1D8
:10CED000E1720C310D462046FFF782F86055691C5F
:10CEE00016206054AD1C0D2060556D1C2A4610A103
:10CEF000002000F0D1F8E8B20422214601F05AFBEC
:10CF00002946204601F072FD0D480178002909D01C
:10CF1000067010220B490C48FEF722F9002106206A
:10CF200003F072FC70BD0000D42E002020300020E1
:10CF3000706F7374696F6E203D202564210D0A00A7
:10CF400098200020CC200020DC2000201CB50024EC
:10CF50006846047001F068F903F05AFD002818D102
:10CF60000E480168002914D00D498968C907C90F06
:10CF70000FD004600B4880686946087101A90A480F
:10CF800003F086F9084803F06DF9002801D002F09B
:10CF9000B5FF6846007801F065F91CBD00D100407E
:10CFA00000D3004000D50040040F020010B5064930
:10CFB0000020086048608860C86003494039086004
:10CFC000486003F011FE10BD4011014001460020F1
:10CFD000054A04E0401C80B2491C904203D20B7801
:10CFE000203B5F2BF6D97047FFFF000010B50348C8
:10CFF0000078002801D100F0AFFB10BD082C002004
:10D00000F8B506460C48144600780D46002801D1B4
:10D0100000F0A2FB002368460093037001F004F9BE
:10D0200022462946304600F009F804466846007852
:10D0300001F018F92046F8BD082C002070B50E4606
:10D0400018214843134914464518E86A1835002842
:10D0500004D001280FD0022805D113E0284600F0A3
:10D06000B1FBA04201D2002411E0224631462846FD
:10D0700000F0D3FC0BE0284600F0A4FBA042F4D261
:10D080000446F2E73146284600F097FC0446204665
:10D0900070BD0000082C00200FB408B504A9009151
:10D0A0006A46039900F004F801B008BC04B01847C0
:10D0B000F7B598B007A8029040200025049503908A
:10D0C00018980C46059506902178641C002977D0A5
:10D0D000252907D002A800F051FC05980028F3DAB2
:10D0E0001BB0F0BD0122002102271346082620783C
:10D0F00023281BD02B2816D02D2802D0302806D16B
:10D1000001E0194300E03943641C002AEFD10022FA
:10D1100020780346303B0A2B0AD20A235A431218BE
:10D12000303A641CF4E704200143EDE73143EBE7B8
:10D130000023C7B22E2F0AD1641C20780746303F47
:10D140000A2F04D20A277B431B18303BF4E76C28D4
:10D150000DD068280BD0702852D00BDC25285AD06F
:10D1600058282ED063280CD0642858D110E020789D
:10D17000641CECE7732832D0752817D078284ED17C
:10D180001FE01A981A9A0068011D1160017843E0A7
:10D190001A981A9F0068061D3E600068019100926F
:10D1A00001460A2202A800F018FB38E01A981A9FDC
:10D1B0000068061D3E600068009201910A2209E0A5
:10D1C0002FE01A981A9F0068061D3E6000680092C2
:10D1D00001911022014602A800F064FB1FE01A989A
:10D1E0001A9A0068011D116006683178761C0029C2
:10D1F00015D002A800F0C2FB05980028F5DA0EE071
:10D200001A981A9A00680823011D116001681022FB
:10D2100000960195DFE7252102A800F0AFFB641C12
:10D220005BE70598002800DC5AE70498002804D042
:10D23000024607A91898FFF7E3FE049905984018DD
:10D2400005904DE770B50446064E074D05E0315C8C
:10D25000204601F017FE012802D0285D0028F6D1F3
:10D2600070BD0000551202004921002010B503F0E6
:10D270002DFC10BD10B506484068002805D0804739
:10D28000002801D000F01CFF10BD02F053F810BDC3
:10D290008020002010B502F0A5F8002805D01F4915
:10D2A0001D484860C8131E4988611E48018CC9B2D8
:10D2B00001290BD1828C120708D1028D1206120FA0
:10D2C000042A03D1828D1206120F0AD0012921D11E
:10D2D000818C09071ED1018D0906090F0A2904D086
:10D2E00007E0114A01219160F5E7828D1206120FC5
:10D2F00005D00D290ED1808D0006000F0AD10B48F4
:10D300000168012904D00A49016001680129FCD1A2
:10D31000C021416110BD0000DFFF07C000050040D3
:10D32000006C0040C00F00F00006004000EC06401A
:10D3300075930000F8B52E4C01214902204603F0F8
:10D3400025F800252B4F0126002818D0FF21253174
:10D35000204603F016F8002811D0FF202530255074
:10D3600081202549800088603878002800D16660D7
:10D3700020480822001D01781143017028E0042193
:10D38000204603F003F8002822D0FF21093120466F
:10D3900002F0F7FF00281BD0FF2009302550174866
:10D3A0004677174882691549E031887F0B46463B2E
:10D3B000C254887F401CC0B28877642800D38D7720
:10D3C0000E481421803001833878002800D166602F
:10D3D000FF214531204602F0D4FF002806D0FF206F
:10D3E000453025503878002800D02660F8BD000070
:10D3F00000200040F420002000230040C02D002029
:10D400000025004030B504460078F02816D1607839
:10D41000A52813D1E57A28460F300C3588420DD85F
:10D4200060194178162909D180780D2806D129463E
:10D430002046FEF7D5FD615D884201D0002030BD59
:10D44000012030BD70B5DAB004460AAE05222B4982
:10D450006846FDF785FE684600780025AA280DD0AD
:10D46000AA216846017045808580052269462348C7
:10D47000FDF776FE0021062003F0C6F968464188D4
:10D480008088814202D100205AB070BD002C23D088
:10D49000304603F05BF8684680880521C90248439E
:10D4A000811920222046FDF75BFE0822A11804A85E
:10D4B000FDF795FE00281ED00398616888421AD1B6
:10D4C00068468088401C81B268468180642900D308
:10D4D00085800522014607E0401C80B269468880AD
:10D4E000642800D38D8005220448FDF739FE002111
:10D4F000062003F089F90120C6E70000A0200020E3
:10D5000003480078002801D00148401C7047000003
:10D51000A820002030B5D3B0054602AC052217493B
:10D520006846FDF71DFE68460078AA280DD0AA209F
:10D530006946087000204880888005220F48FDF762
:10D540000FFE0021062003F05FF9684641888088BD
:10D55000814202D1002053B030BD002D02D02046C0
:10D5600002F0F4FF684680880521C902484301198A
:10D5700020222846FDF7F4FD0120ECE7A020002042
:10D580000121102801D3012070470846704710B5CB
:10D590000CE004780B789C4201D9012010BD9C421C
:10D5A00002D20020C04310BD401C491C521EF0D2C4
:10D5B000002010BD30B51C4B002159600278811C41
:10D5C000140242782243194CA24227D10C78184AFF
:10D5D000240254804D78254355808C781471CC7882
:10D5E00054710C7994714C79D4718C791472CC7912
:10D5F00054720C7A09319472AA2C01D0552C0DD199
:10D600000C78D472491CD16061180C7814744A7873
:10D61000897812021143074A914201D0002030BD9F
:10D620005860012030BD000098200020A5F00000C7
:10D63000203000200D16000070B592B00D46012478
:10D6400000F04CF8064610280BD269463046FFF72A
:10D6500097FFFF28F9D0002D02D068460078287087
:10D660000024204612B070BD70B592B00D4606463B
:10D67000012469463046FFF783FFFF28F9D068464A
:10D68000007883210840822807D1002D04D0082289
:10D69000284601A9FFF77BFF0024204612B070BD89
:10D6A00010B5034A11730121FFF7F8FB10BD00000C
:10D6B000D42E002070B5054607481C46134601735A
:10D6C000224619460D30FDF74BFD641CE1B2284699
:10D6D000FFF7E4FB70BD0000D42E0020F0B591B040
:10D6E0000024064683256F4669462046FFF748FF1B
:10D6F000FF28F9D0684600782840822806D1082201
:10D700003146381DFFF743FF002803D0641CE4B204
:10D71000102CE9D3204611B0F0BD000010B5054A29
:10D7200001211170014603480822401CFDF718FD35
:10D7300010BD0000A820002010B5064A0021926804
:10D74000435C545C63404354491CC9B21029F7D36D
:10D7500010BD00005421002010B5124C02202061A1
:10D76000606111A0A0611348E061012040022062C5
:10D770000020A06260620CA1A1642146E062103921
:10D78000E16410212165A0656065E0650AA1E01DE6
:10D79000FDF732FD09A12046FDF72EFD2020A071E6
:10D7A00010BD0000082C00205465726D696E616C1C
:10D7B00000000000F8290020525454005345474708
:10D7C000455200000269C1688A4203D88068401A45
:10D7D000801800E0501A401E7047FFB583B00E4617
:10D7E00070420D9F0C9C0090002900DB084601252B
:10D7F00002E0FDF7A1FC6D1C05998842F9DA069854
:10D80000A84200D90546002C04D0002E01DB780781
:10D8100000D5641EB80702D50698002810D0F80776
:10D820000ED1002C0CD0A5420AD22021641E0398F0
:10D8300000F0A4F80398C0680028F2DA07B0F0BD41
:10D840000398C0680028F9DB002E02DA2D21009E23
:10D8500002E0780707D52B21039800F08FF8039892
:10D86000C0680028EADBB807800F022810D10698AC
:10D8700000280DD1002C0BD0A54209D23021641E06
:10D88000039800F07BF80398C0680028F2DAD5E727
:10D89000019700943146069B059A039800F002F820
:10D8A000CCE70000FFB581B001261F4634460A9D33
:10D8B000029802E0FDF72AFC641C03998842F9D221
:10D8C000A74200D93C460B98C00718D1002D16D0AE
:10D8D0000B98800701D5002F02D0202000900CE08B
:10D8E0003020FBE76D1E0099019800F047F8019881
:10D8F000C06800283DDB002D01D0AC42F2D3019876
:10D90000C068002835DB012F01D97F1E06E03146B3
:10D910000298FDF7FBFB0399884202D30398464324
:10D92000F1E7154F31460298FDF7F0FB0146029AE8
:10D930007143511A0291395C019800F01FF8019867
:10D94000C068002805DB30460399FDF7DFFB0600C1
:10D95000E8D10B98C0070CD0002D0AD0AC4208D2F9
:10D9600020216D1E019800F009F80198C068002878
:10D97000F2DA05B0F0BD0000400F020010B5044619
:10D9800080686368421C934205D323681954A260DF
:10D99000E068401CE060A2686068824209D12168AA
:10D9A0002069FFF72DFBA168884203D00020C04307
:10D9B000E06010BD0020A06010BDF7B5064682B043
:10D9C00000200090F46817463069A04201D9051B79
:10D9D00002E0B168201A0D1AB0686D1E001BA84243
:10D9E00000D80546BD4200D33D4670682A4600195E
:10D9F0000399FDF7B5FB00987F1B40190090039831
:10DA0000641940190390B068A04200D10024F4606A
:10DA1000002FD9D1009805B0F0BDF7B5C6681746FC
:10DA200004468068851B6068BD4206D9801901994B
:10DA3000FDF796FBF019E060FEBD2A4680190199BA
:10DA4000FDF78EFB01987E1B411932466068FDF799
:10DA500087FBE660FEBD30B47446641E2578641C06
:10DA6000AB4200D21D46635D5B00E31830BC184733
:10DA700002E008C8121F08C1002AFAD17047704797
:10DA8000002001E001C1121F002AFBD170470000F5
:10DA9000202804DA012181400348014201D00120FD
:10DAA0007047002070470000FC06FFBC10B5124C08
:10DAB000207803281FD1A0680028E06802D0A16860
:10DAC00040184008A060A0680C49884201D90C4861
:10DAD00003E0A068FF22A5325043FDF717FBFF21AA
:10DAE000F531884200D908460349091D0880042001
:10DAF00020700020A07010BD082100204D03000000
:10DB0000546A050070B5017800292FD101890025DC
:10DB1000022916D946680024725F104609E06300A6
:10DB2000F35E834200D21846934200D91A465D192B
:10DB3000641CA142F3D8AA1A101A891EFDF7E6FA4E
:10DB400002E041680020085E0949C860CA6809A16E
:10DB50000020FFF7A1FA0D49202208781043087031
:10DB60008006C20F0AA10020FFF796FA70BD0000E0
:10DB700008210020746573745F6164635F76616C73
:10DB80007565203D202025640D0A0000BA20002084
:10DB90006170705F6D6576656E742E622E73746F42
:10DBA000705F6164635F7374203D202025640D0AFB
:10DBB0000000000010B50E4801210278002A08D0AC
:10DBC000012A09D0022A0DD0032A0ED000210170AB
:10DBD00010BD817007A101E081700AA10020FFF74C
:10DBE0005BFA10BD81700AA1F8E781700BA1F5E71F
:10DBF00008210020525420524546455220414443BA
:10DC00000D0A00004E5443204144430D0A00000019
:10DC1000534F4C4152204144430D0A004241545459
:10DC2000455259204144430D0A00000070B5144983
:10DC30000020124B0860134908608C681248427C2F
:10DC4000C5685600521CAC53D2B24274047CA24246
:10DC500012D2846800226468002C0AD001228460F9
:10DC60002068486001200860002A00D01860002069
:10DC700070BD44688460F3E7012070BD007000400F
:10DC8000007100400075004064250020F8B52F4C5D
:10DC9000032760782E4E012815D02E4D022839D04A
:10DCA000032836D12CA10020FFF7F6F92878810649
:10DCB0002FD5DF210840287001250420F06020784E
:10DCC00003283AD135E027A10020FFF7E5F92848DD
:10DCD0002849006800906846077001F051FF00284D
:10DCE00001D000F0EDF92078032805D10420B060C0
:10DCF0001648103001F034FF14480421183001F0A8
:10DD0000EBFE002801D000F0DBF901F059FF022002
:10DD10006070F8BD18A10020FFF7BEF928788006D2
:10DD200005D401F04DFF0A2002F0BEFEF8BD677079
:10DD3000F8BD0648103001F001FF134900200860CB
:10DD400001F044FF6570FFF7B1FEF8BD0821002027
:10DD500000050050BA2000204144432053544F5046
:10DD60000D0A00004144432053544152540D0A000F
:10DD70005412020005DB01004144432053414D5041
:10DD80004C494E470D0A000004070050F7B584B017
:10DD9000064600251788158020300290407B1446E7
:10DDA000002806D03A462146059800F023FD0500DC
:10DDB00009D1B078002823D0059886462088001D18
:10DDC000B84202D90C2007B0F0BD684679DF0028C0
:10DDD000F9D1218803207246505420881921401C13
:10DDE00080B22080115420887146401C80B220806F
:10DDF00041186846008802F078FF2188401820808A
:10DE0000F078002817D0218803230A46F356C91C4E
:10DE10000598B942D6D80221815421880122491C93
:10DE200089B2218042542188491C89B221804354FF
:10DE30002088401C20807068002817D0218800238B
:10DE4000C3560A46C91C0598B942BBD80221815461
:10DE500021880A22491C89B2218042542188491C08
:10DE600089B2218043542088401C208030890028BA
:10DE70000AD0009430460197062202210830059B03
:10DE800002F080FF05009ED1308A00280AD000945D
:10DE900030460197072203211030059B02F072FFE4
:10DEA000050090D1308B00280AD0009430460197AD
:10DEB000152214211830059B02F064FF050082D161
:10DEC000306A002806D03B462246059901F068F8E2
:10DED0000500D8D1706A002806D03B462246059935
:10DEE00001F0AEFC0500CED10298007B002807D0DF
:10DEF0003B4622463046059902F0E8FB0500C2D1B8
:10DF00003078002807D03B4622463046059901F07C
:10DF100061FD0500B7D1284655E70000174A0021EA
:10DF2000535C002B01D0012203E0491C0629F7D3E2
:10DF300000221349012806D002280BD0032810D054
:10DF4000042818D112E04878002803D0002A01D014
:10DF5000012070478878002803D0002A01D00220D1
:10DF60007047C878002801D003207047087900283E
:10DF700001D0042070470020704700001D200020C1
:10DF8000F0220020F0B5B3B03C2101A8FDF701F963
:10DF9000022768460771012585710621C1713C2160
:10DFA00010A8FDF7F6F810A8058226481590202144
:10DFB0001FA8FDF7EEF818A8C577192080010026E4
:10DFC0002390142124962AA8FDF7E3F82AAC2FA861
:10DFD00071DF00202FAA31A905231B1A9B185B783B
:10DFE0000B54401C0628F7DBF6202070CB20607015
:10DFF0009A20A0703B20E07025716571A571082002
:10E00000E07126726672A520A0722046E772062291
:10E010000C30FDF7A5F8592120A881832AA8299062
:10E02000122120A8018427A800961990064B1FAA48
:10E0300010A901A800F060F9002801D000F040F814
:10E0400033B0F0BDEC1F00209D03020010B509495C
:10E050000020087048708870C0318875084680308C
:10E06000017C0122114301741146052002F0CCFB12
:10E0700010BD0000802C002009A1012002F09CF8B6
:10E0800001F0EEFF01F0F2FF0028FBD100BEBFF36C
:10E090004F8F0A490848C860BFF34F8F00BFFDE7A4
:10E0A0004150505F4552524F523A4552524F523AA8
:10E0B000466174616C0D0A000400FA0500ED00E091
:10E0C0000EB50021029000916A4601910148FFF7C8
:10E0D000D3FF0EBD01400000094B5B68002B07D049
:10E0E000002A07D0002805D00068037C002B03D04D
:10E0F0000820704707207047417442610020704734
:10E100005C200020FFB507469007002581B01E4621
:10E110001446002825D1002C23D002F021FA3046E5
:10E12000114EF060304610300570457002998170D4
:10E1300044607560357001240C48757024050460D6
:10E1400003211420FEF78AFB09480460094CA760EC
:10E1500003211120FEF782FB6068B060002005B04B
:10E16000F0BD0720FBE700004C20002080E200E02B
:10E1700000E100E000150140FEB51F4B5B68002B7D
:10E1800030D000282ED0052901D20720FEBD4369DA
:10E19000002B27D0437C012B26D000270291044678
:10E1A0000025694616460D70684600F03DF801A846
:10E1B00002F0D2FD002819D0012101700F494460FE
:10E1C00049688160029907614661C16068460A49F1
:10E1D000007948706846007800F044F802F0B8FC16
:10E1E0002846FEBD0820FEBD0F46D7E76846042539
:10E1F000007800F037F8F3E75C20002000150140BC
:10E2000010B50849496800290AD0002808D041699A
:10E21000002905D000210174022102F0C1FC10BDCB
:10E22000082010BD5C20002030B5EFF3108172B6DD
:10E23000094A54680123002C04D00370002900D13E
:10E2400062B630BD5360054B1D68054C2540156016
:10E250001C6000220270F1E77020002080E100E0E5
:10E26000FC06FFBC08494A68002A0CD000280AD1E5
:10E27000EFF3108072B60A68044B1A6000224A60FD
:10E28000002800D162B670477020002000E100E055
:10E29000F0B50C4693B01F216A461180072600276F
:10E2A0009180002809D0C17849070DD502A9FFF750
:10E2B0006DFD002809D102AD01E000251780002C7A
:10E2C0000ED0E078002802D0304613B0F0BD01AA8D
:10E2D0000AA92046FFF75AFD0028F6D10AAA02E053
:10E2E00068460022878068468088C3B268460088F6
:10E2F000C1B2284672DFE8E7FFB581B01E460A9F2B
:10E300001346040047D0002B45D0504D0120287003
:10E310000020E870202219464D48FCF721FF00201C
:10E320006F61C0432E612881284607211830FCF711
:10E3300030FF47483C212030FCF72BFF4448217830
:10E3400020300170A1788170E178C17061784170EE
:10E350003F4A656923695563114613632031E368B9
:10E36000A268CB608A603A49E369A269CB638A6399
:10E37000616A00291AD001463C31024648324162A6
:10E380008A60636A1B880B80616A436A8988998006
:10E390000021436A07E00E2005B0F0BD656AAD6854
:10E3A0006D5C5554491C9D888D42F7D8A16A00299F
:10E3B0001CD0274A943211460C398A608162A36AC4
:10E3C0009B888B80A16A836A098819800021836AEF
:10E3D00004E0A56AAD686D5C5554491C9D888D426A
:10E3E000F7D82C210A5D1A4940310A73216A0029A5
:10E3F00009D016490A310162226A52884A80216A8C
:10E40000026A098811806168002900D04160104AC1
:10E410000E490020B3322031C3001B1A85009B181F
:10E420000C68401C63510828F6DB094A0020EB32D7
:10E43000030185009B188C68401C63510828F7DB9A
:10E44000034802992030FFF723FFA5E704200020AE
:10E45000F022002010B50188134C102915D0112985
:10E4600019D01B2910D1007A00280DD1E0780521A0
:10E47000401CFCF74BFE084600F018F8002803D0BB
:10E480006169002900D0884710BD817D0129FBD139
:10E490008088208110BD0021617180882189884297
:10E4A000F8D10120E8E7000004200020F1B53F4C3E
:10E4B00088B0207800280AD00898E07006A800F0FC
:10E4C00043FE06980125002804D065706AE0082004
:10E4D00009B0F0BD3548002707211830FCF759FE78
:10E4E000334E7078002802D0E078012807D0B07849
:10E4F00000280CD0E078012801D0022807D121693A
:10E50000002903D025710820884700E0277108986A
:10E51000FFF704FDE0702169002909D0032801D02C
:10E52000042805D13078002802D06079002811D065
:10E53000A77118216846FCF72CFE68460770077221
:10E54000E1781A480B001830FFF785FA052E080FFE
:10E55000191D2000A57107208847EAE7A5700190E2
:10E56000684605704782078213E00221A17001907E
:10E5700068460570B18941823189018209E06846A7
:10E5800002F0ECF802E0684602F014F9E0780028A6
:10E5900003D0684673DF00289AD12169002901D091
:10E5A000A0788847002093E7A770F6E704200020B2
:10E5B000F022002070B50D4604461300FFF74BFA19
:10E5C000050415263748140002462AA10020FEF74C
:10E5D00063FD002606E0AB5D32462DA10020FEF76C
:10E5E0005BFD761CA642F6DB70BD02462CA1002026
:10E5F000FEF752FD002606E0AB5D324624A1002066
:10E60000FEF74AFD761CA642F6DB70BD02462CA141
:10E610000020FEF741FD002606E0AB5D32461CA15E
:10E620000020FEF739FD761CA642F6DB70BD0246DF
:10E630002BA10020FEF730FD002606E0AB5D324640
:10E6400013A10020FEF728FD761CA642F6DB70BD64
:10E65000024629A10020FEF71FFD002606E0AB5D63
:10E6600032460BA10020FEF717FD761CA642F6DB12
:10E6700070BD00006F726967696E616C20646174BF
:10E6800061206C656E677468203D2025640D0A006A
:10E690005B25645D203D203078253032580D0A001E
:10E6A0006461746120656E63727970742064617452
:10E6B00061206C656E677468203D2025640D0A003A
:10E6C00063726320636865636B2064617461206CAE
:10E6D000656E677468203D2025640D0A0000000007
:10E6E0006165732064617461206C656E6774682075
:10E6F0003D2025640D0A000073656E64206461741A
:10E7000061206C656E677468203D2025640D0A00E9
:10E7100070B5054601461C220E48FCF721FD0E4C43
:10E72000002626702968002906D00822201DFCF743
:10E7300017FD201D7ADF02E00748001D7BDF00285F
:10E7400007D1401E60806670044A00210448FFF72C
:10E75000C3FC70BDBC24002034200020F50C020056
:10E76000E80E0200F8B5214C0146028800261E483A
:10E77000E589102A13D01E4F112A1FD0122A2BD040
:10E78000502A1AD1881DC988A94216D14189022967
:10E7900013D10C3000F0FEF800280CD112E08A886A
:10E7A00004464280104808220C301831FCF7D8FC8F
:10E7B0006670002D01D100F03BFCF8BD0021C9437B
:10E7C000418046703868FFF71BFD0028F5D0A1692D
:10E7D0000029F2D08847F8BD034808220C300831E0
:10E7E000FCF7BEFCE7E7000034200020BC2400203A
:10E7F000E80E02007CB5054608880C4609309042B8
:10E8000001D90C207CBD684671DF0028FAD121882F
:10E810000820685420881B21401C80B22080295485
:10E82000208800A9401C80B22080401906220131B6
:10E83000FCF796FC20886946801D80B2208009780C
:10E84000002900D0012129542088401C208000206C
:10E850007CBD000010B50446FFF784FF2146054843
:10E8600000F040F8204601F0A9FD2046FFF7F2FD38
:10E8700010BD00006822002030B5184B0D46040082
:10E880000FCB85B003936B4607C324D0002D22D055
:10E890000020C043A0822868A0610020A075214606
:10E8A000684663DF002814D10121684681740C4951
:10E8B0000182A21C04A90120A0DF002809D1294659
:10E8C000204601F06FFE002803D12946204602F0C1
:10E8D000CBF905B030BD0E20FBE70000EC0E0200C6
:10E8E0001019000010B500281BD0002919D00A8883
:10E8F000102A17D0112A17D0502A12D104468A1D87
:10E90000C888238A1231984202D15389022B0FD032
:10E91000A388984205D1A369002B02D052892046D2
:10E92000984710BD898801E00021C943818210BD4C
:10E93000084600F02FF8002800D00120A07510BD77
:10E9400007B584B000280DD0828A114B9A420BD0B3
:10E95000827D002A08D06A46128B142A06D9072025
:10E9600007B000BD0E20FBE70820F9E70022009267
:10E9700001920292039282896B461A80039106A942
:10E98000029101219970808A6946A6DFE8E70000BC
:10E99000FFFF00004178027808021043C007C00F53
:10E9A0007047000070B50F4C154620784219802A38
:10E9B00007D80D4A10182A46FCF7D2FB20784019D8
:10E9C0002070C1B265700848FEF71CFD012808D10F
:10E9D000002205492078FFF7EDFD0021042001F019
:10E9E00013FF70BDEC2000203430002070B50C46C1
:10E9F000054607E0142229460648FFF7A1FF143C0C
:10EA0000A4B21435142CF5D8224629460148FFF744
:10EA100097FF70BD6822002005490B5C05494A68D4
:10EA200001209840034693438B601040C8607047B4
:10EA3000B40E02000005005010B50349085C012126
:10EA400001F0CAFA10BD0000B40E020010B503496F
:10EA5000085C002101F0C0FA10BD0000B40E0200F5
:10EA60000549095C05484068C840C007C00F00D090
:10EA70000120012148407047B40E020000050050FB
:10EA800010B500242046FFF7D7FF641C042CF9D3EF
:10EA900010BD10B500242046FFF7D8FF641C042CDD
:10EAA000F9D310BD0246002010B5C043054B00212C
:10EAB0005C5C944201D1084610BD491C0429F7D37F
:10EAC00010BD0000B80E0200F3B581B00D460198EC
:10EAD000FFF7E8FF0446042813D21D481D4F1E4EC1
:10EAE000002D27D0012D0DD0022D0AD16000201855
:10EAF000C0194578002D04D0F168002901D02846BE
:10EB00008847FEBD610061187D5CCF1979780029C6
:10EB10000BD071680A2251430F4A8068921CFFF79C
:10EB20002BFB002801D10198B0700B48B978103048
:10EB30000155DFE78068FFF763FB07486100611854
:10EB40001030C919005D8D78A842D3D0FEBD0000F9
:10EB5000BC0E0200C4220020F01F002010B50649A0
:10EB60000320087001F062FE0448BF2201781140C2
:10EB7000017001F057FF10BD04210020BA200020D1
:10EB800010B5054A0146127A0020D20702D0084685
:10EB900000F018F810BD0000F01F0020FF2002490F
:10EBA0000130C860704700000005005004494A6801
:10EBB000FF200130034693438B601040C8607047CC
:10EBC00000050050F8B55D4C054660780026002829
:10EBD00003D000206070FFF753FF0120584F2B0037
:10EBE000FEF739FF18970D0D2E3D4A5F64686F6878
:10EBF0006FA97777777777979A9DA0A9A995002035
:10EC0000FFF72EFF00280AD00020FFF715FF022D86
:10EC100002D1E120C0000BE07D20400108E000208F
:10EC2000FFF714FF022D01D1C82001E0FF20913031
:10EC300025706421FCF76AFA6168414300222BE0E9
:10EC40000020FFF70DFF002805D00020FFF7F4FE9D
:10EC500019204001ECE70020FFF7F8FEE4E7002070
:10EC6000FFF7FEFE002803D00020FFF7E5FED3E704
:10EC70000020FFF7EBFED9E70020FFF7F1FE0028A8
:10EC800003D00020FFF7D8FE02E00020FFF7DEFEF1
:10EC900025706068410000223868FFF76DFA06466B
:10ECA00035E00020FFF7B8FE257007E000203FE0C8
:10ECB00025702CE060700120FFF7AEFE0022616835
:10ECC000EAE760700120FFF7A7FE60688100411845
:10ECD000E1E77868FFF794FA06461120401B01D05F
:10ECE000002E03D00220FFF7A7FE10E001280BD969
:10ECF000C82148436421FCF709FA616800224143B6
:10ED00007868FFF739FA06460220FFF79FFE304683
:10ED1000F8BDFFF7B5FECBE7FFF7B2FEC6E7FFF79A
:10ED2000AFFE04E0FFF7ACFE0020FFF78FFE0120EE
:10ED3000FFF78CFEBCE7FFF7ACFEB9E7F01F002041
:10ED4000BC0E020010B506490220087001F06EFDED
:10ED50000448BF2201781140017001F063FE10BD2C
:10ED600004210020BA20002010B5FDF73FFD00204F
:10ED7000044A01461154401CC0B20828FAD3024884
:10ED8000017010BD4921002048210020F8B50D4632
:10ED9000461C00206946087001246846FFF744FAC3
:10EDA000134A10682860116850689368081A1D1A81
:10EDB000701C6D1CA84212D9002D0ED00D480E4CAF
:10EDC0000088246880051940800DA4028900204332
:10EDD0008918C8601068401C1060002401E0881980
:10EDE000106068460078FFF73DFA2046F8BD000045
:10EDF000E02500201C0F02007C200020034803C8EF
:10EE0000814201D10120704700207047E025002099
:10EE10000022D243830004490428CA5002D30818B0
:10EE20002030027770470000EC240020F0B5002568
:10EE3000ED43002A02D00023042601E00423082623
:10EE40000B4C04E09F00E7597F1C04D05B1CB342CD
:10EE5000F8D32846F0BD26185DB2203635709E00E6
:10EE6000A151002AF5D1E11820310877F1E700001F
:10EE7000EC240020024909182020085670470000A1
:10EE8000EC24002030B5084C0122235C15468D404F
:10EE9000AB43235401D0002030BD824003480178A9
:10EEA00091430170012030BD4921002048210020FC
:10EEB00070B5084C050009D010342168002907D02E
:10EEC00008682060496828468847F6E70834F4E770
:10EED00070BD0000D824002010B500F041F900F00A
:10EEE0008DF9FFF741FF01F099FD00F001F9FFF7FF
:10EEF000ADF8012010BD0000F8B523484168002995
:10EF00003ED00E6821494C6887688078E11B0D026D
:10EF10002D0AED1C002814D101201D4A0004506068
:10EF20001B4A403A50601B49400008601A4908607B
:10EF30001A49012008602F2000F0B6FD1249012077
:10EF40008870B54200D23546E81900020F4B000A1E
:10EF5000403318600D4A5168001B091B0902090A59
:10EF60000002000AC91C814209D9506818602F208C
:10EF700000F09AFD01200749400480390860F8BD7F
:10EF800001F0EEFAF8BD00004C2000200015014011
:10EF90004013014080E200E000E100E00010014089
:10EFA000F8B50646108814468446801D0D469842E2
:10EFB00001D90C20F8BD32880720062AFAD3192778
:10EFC000FF01184BBA4201D99A42F3D17188062940
:10EFD000F0D3B94201D99942ECD19A4203D0994277
:10EFE00001D08A42E6D805216046295420881221A2
:10EFF000401C80B2208029542088401C80B2208090
:10F000004119308801F071FE2188401880B22080BB
:10F010004119708801F069FE218840182080002085
:10F02000F8BD0000FFFF000010B5FFF749F810BD64
:10F03000F8B5164800F0C8F9144D00260C3D144CE4
:10F04000002807D0616900291CD001206A46107091
:10F05000684616E02878002805D06169002911D09B
:10F06000684606700DE0687800280DD0A168094850
:10F0700000220068FFF780F8002803D0A16900296A
:10F0800000D088472E70F8BD6168F0E7402000206E
:10F09000BC240020E80E020070B500F09FF8FFF7D6
:10F0A00051FE0E4C20784106FDD5BF25284020702A
:10F0B00001F0E6FC0AA10020FDF7EEFF962001F02A
:10F0C000F3FCFFF74BFD20784106FDD5284020706A
:10F0D00001F0DEFC1E2001F0E7FC70BDBA2000202C
:10F0E0006C6F636B206F70656E210D0A000000006D
:10F0F0007047000010B50E4900230A784C78A242F0
:10F1000012D0521CD2B20A70022A00D10B700A78B7
:10F11000074B920018339A58026088681018000252
:10F12000000A8860012010BD0360002010BD0000AF
:10F130004C20002010B5034910208860052000F005
:10F140003BFF10BD00050050002804D00349496E64
:10F1500001600020704703207047000078250020E0
:10F1600010B500F0CFFD082000F003FFFF201A4982
:10F17000013088600021012000F0F2FE022000F042
:10F18000F8FE022000F010FF0021042000F0E8FE4D
:10F19000042000F0EEFE042000F006FF052000F041
:10F1A000E8FE052000F000FF0021062000F0D8FE58
:10F1B000072000F0DEFE072000F0F6FE032000F03E
:10F1C000D8FE032000F0F0FE092000F0D2FE092056
:10F1D00000F0EAFE10BD00000005005010B5054A21
:10F1E00001210548FEF778FF002801D0FEF768FFEF
:10F1F00010BD000095F501004C12020010B500F0A2
:10F2000081F801F027FC00F0A9FBFFF745FF10BDD6
:10F2100010B501200007D0B040696C462146801E21
:10F2200001F087F968460078AA283FD168464078FF
:10F23000AA283BD17F21A01C01F020FE002835D058
:10F240001DA10020FDF728FF0822A11C2148FBF783
:10F2500087FF214610220A311F48FBF781FF214614
:10F2600010221A311D48FBF77BFF1C482146202243
:10F270002A311030FBF774FF1848214620224A310A
:10F280002538FBF76DFF1548214610226A313538C5
:10F29000FBF766FF214605227A311148FBF760FF34
:10F2A000104818A9C97F017050B010BD0EA10020F0
:10F2B000FDF7F2FEF8E700006D656E63707920736C
:10F2C0006F6C696420666C6173682064617461218D
:10F2D0000D0A0000BB200020DC200020922D002021
:10F2E000A020002005210020696E697420736F6CD6
:10F2F000696420666C6173682064617461210D0A21
:10F300000000000010B5054A01210548FEF7E4FEA3
:10F31000002801D0FEF7D4FE10BD0000DDF501008D
:10F32000481202000248002141708170C17070478C
:10F33000F4200020F8B51E4C2078002836D0E06874
:10F34000002600280CD00025607800282ED16846C1
:10F3500052DF052806D0002806D0FEF7B1FE0BE0EC
:10F360000125F1E7012607E0009800F083FC216900
:10F37000002901D000988847002D13D1607800281B
:10F3800014D1608869460880A06861DF052804D030
:10F39000002804D0FEF794FE04E0012502E0E168B5
:10F3A000A0688847002ECFD0002DE5D0F8BD000022
:10F3B0008020002010B5042000F0FEFD014920202F
:10F3C000886010BD000500504188054802889142C0
:10F3D00004D34088814201D8012070470020704743
:10F3E000382000201048018CC9B2012917D1818C26
:10F3F000090714D1018D09060A0F03D1828D120667
:10F40000120F0ED0090F012903D1828D1206120F9F
:10F4100007D0032903D1808D0006000F01D0002002
:10F420007047012070470000C00F00F0F0B5284C75
:10F430002146103948688B68227886469C46CF78EA
:10F44000667836E0182353436168521CC918A378C4
:10F45000D2B2934200D100220B78022B02D0032BB0
:10F4600027D123E003464D68194603E0A94204D0A2
:10F470000B46C96900291CD0F8E7002919D08B4236
:10F4800008D1C069002805D1124F0125BD600025B3
:10F49000AC4601270D68C969D961002909D00B68FC
:10F4A0005B190B6005E00174C06900E000210028D1
:10F4B000F9D19642C6D10649624610398A60486041
:10F4C000CF70704501D00120F0BD0020F0BD0000DC
:10F4D0005C20002000100140F8B52C4E04467068F6
:10F4E0000025009041E0002C02D02046E46920E095
:10F4F000264818231030017842684B43491CC9B292
:10F50000D21801708378994200D105701178506843
:10F5100001292CD1017C002929D191684160D16851
:10F5200081601169C16051698161F178002900D061
:10F5300045604368B268164F991A0902090AB94230
:10F5400002D28268891806E0D11A09028268090A83
:10F550008A4202D9511A016000E00560456001212C
:10F5600085600174C56101F0FBFA002CBBD107482E
:10F570001030017840788142BAD171680098814298
:10F5800001D00120F8BD0020F8BD00004C20002073
:10F59000FFFF7F0030B50E4804780E488188491C73
:10F5A0008AB2012C09D00C4940250B782B43022C40
:10F5B0000AD0032C03D0042C00D1828030BD82807D
:10F5C000C82AFBD90B7030BD8280B42AFAD830BD6E
:10F5D00004210020FE200020BA20002070B52E4C0F
:10F5E0002078401C20706078401C60700A20FCF776
:10F5F00095FC0A20FCF7B2FC207864284BD3204607
:10F600004168491C4160207864382070234D0026F1
:10F610002878234CC106002915DAA178491CA1706D
:10F62000A17802290FD3A670EF21084028701D4849
:10F6300001781D48012902D0022902D003E00221ED
:10F6400000E0012101702878C10701D1810713D59D
:10F65000E188491CE180E188B4290DD3E680C00728
:10F6600003D00021062001F0CFF82878800703D5C9
:10F670000121062001F0C8F8287801070BD521895F
:10F68000491C21812189E1221201914203D3268163
:10F69000F7210840287070BDC4200020BA20002047
:10F6A00014300020FD200020FC200020002388B022
:10F6B000504A07211846FEF725FD002801D0FEF725
:10F6C000FFFCFDF793FC4CA10020FDF7E5FC4E4844
:10F6D000484900680590002348225C3905A801F0DC
:10F6E0005BF9002801D0FEF7EBFC6A4601210020FF
:10F6F00001F03AF9002801D0FEF7E2FC684601F07B
:10F70000E1F8002801D0FEF7DBFC404801F0D0F81A
:10F71000002801D0FEF7D4FC1120694608720722A8
:10F720003BA102A87CDF002801D0FEF7C9FC002421
:10F73000009410216846019401803C214180FF2102
:10F7400084809131C1807ADF002801D0FEF7B8FCB7
:10F750003148284900900120A831087025486946A1
:10F76000A830FFF789F8002801D0FEF7A9FCFEF7C2
:10F7700009FC1C216846FBF70CFD0520C003019025
:10F780000F20000402900094032168460173C48195
:10F79000047422480590224806906846FEF7B8FF98
:10F7A000002801D0FEF78CFC002000F025FB00288B
:10F7B00001D0FEF785FC0320FEF778FE002801D07B
:10F7C000FEF77EFC17A10020FDF766FCFFF784FB27
:10F7D000184C194D194E03E0285C81007158884778
:10F7E00020780028F8D148DF0028F9D0FEF768FC1F
:10F7F000F6E70000C02100204D61696E205374615E
:10F800007274210D0A000000B00E020055E80100DC
:10F81000414E47554D454E00A5E901008D040200BB
:10F8200029F00100416476205374617274210D0A3D
:10F83000000000004821002055120200282100206D
:10F8400070B5144682880E4605462088111D411861
:10F85000921C994201D8FE2A01D90C2070BD521C7D
:10F8600032542088FF21401C80B2208031542088EF
:10F87000401C80B220808119288801F036FA218846
:10F88000401880B22080AA88002A09D0A9680029DF
:10F8900008D08019FBF764FC2088A98840182080D4
:10F8A000002070BD072070BD10B50C4C00202070EA
:10F8B0000120607002E06078012801D1FEF77AF93A
:10F8C000A078002808D006A10020FDF7E5FBFEF790
:10F8D000DDF9A0780028EED110BD0000082100203D
:10F8E0006164632073616D706C650D0A0000000037
:10F8F000F3B581B00E0029D015490878002825D02D
:10F90000FF20144C1D30002222500127A76015460D
:10F9100019E00F4A1078002817D0FF211D31002070
:10F9200060500198435D0C48C36103E008480078CB
:10F93000002806D0FF211D31204600F022FD0028BE
:10F94000F4D06D1CEDB2B542E3D3E760FEBD00001C
:10F95000F42000200020004000250040F8B5174F9B
:10F960003878002828D1FFF7DDFC174E1448154DD4
:10F9700070620024F466072006217161F060FF20A8
:10F980001D302C50114980208860FF2009302C50F8
:10F99000FF2045302C500E4848600321022000F023
:10F9A0006FF9FF2025302C50FF2009302C5001200A
:10F9B0003870042131602860F8BD0000F420002078
:10F9C0000050270000200040002500400023004098
:10F9D00004000200F8B50F460178144605460129D7
:10F9E00002D16878002806D02088821C9A422DD83F
:10F9F000012902D006E00720F8BD69784118891C6A
:10FA0000994223D8181A801E86B26846068021883B
:10FA1000B81C081869467DDF0028EDD12878022837
:10FA200005D169460988B14201D809210AE00821B7
:10FA3000012805D16878B04202D86A46108001E0FA
:10FA40006846068068460088FE2801D90C20F8BD6B
:10FA50002288401CB8542088401C80B22080395431
:10FA600020886946401C208009884018208000209A
:10FA7000F8BD0000034940180068002800D00120AC
:10FA80007047000000700040C20843075B0F012070
:10FA9000895C984008407047012189074018006838
:10FAA000002800D00120704700280FD00849094ADB
:10FAB000096800BF00BF00BF00BF00BF00BF00BF9C
:10FAC00000BF914200D000BF0138F2D17047000062
:10FAD000602100200024F40070B5144CA27C022A9E
:10FAE00016D00222A2746268A2602174002161749F
:10FAF000E0600F48126842600E4A861511600125C9
:10FB000005602068002805D00B49012048600BE003
:10FB1000112070BD3046FFF7ADFF0028FAD0FEF788
:10FB200085F80028F6D0A574002070BD642500205B
:10FB3000007500400071004000730040074B002238
:10FB4000596801E00A4649688142FBD14868002AA9
:10FB500001D0506070475860704700006425002055
:10FB60000021064A41605168002902D15060704767
:10FB700011464A68002AFBD148607047642500207E
:10FB800070B50C4D0C46A97C002901D0082070BD31
:10FB9000094A00211160002C06D0002800D1074836
:10FBA0000178072000F06CF801202C60A874002078
:10FBB00070BD00006425002000710040180F020095
:10FBC00001490120086070470070004010B5002016
:10FBD00005490122054C802348602360044B9A604C
:10FBE000044B1A60887410BD6425002080E100E099
:10FBF000007300400470004070B50E4C0025207862
:10FC0000002801D0852513E00021A16061602161F9
:10FC1000E160094800680126304002D1032100F06C
:10FC20002FF800F0F5FE002801D104488661267007
:10FC3000284670BDD824002000E100E00005004007
:10FC400038B50020694608706846FEF7EDFA084CA2
:10FC50002078002801D1FFF7CFFFE068401CE0606A
:10FC60000120A07068460078FEF7FCFA38BD00005D
:10FC7000D824002010B5002801D1FFF719F910BDD4
:10FC80008207D30EFF229A408907090E10B59940CA
:10FC900000280BDA03071B0F083B9C080C4BA40041
:10FCA000E318DC6994430C43DC6107E08408094BEA
:10FCB000A400E418236893430B432360C106C90ED4
:10FCC00001208840044908600449086010BD000014
:10FCD00000ED00E000E400E080E200E000E100E090
:10FCE0004109074A890089180968C206D20E012015
:10FCF0009040014201D00120704700207047000071
:10FD000000E100E070B5144D2879002801D00820EA
:10FD100070BD114900204039421E0B182033401C91
:10FD2000C0B21A702028F8D300242046FFF770F8DC
:10FD3000641CE4B2082CF8D303210620FFF7A0FFCF
:10FD4000FF207D3000F068F901200449C0074860B9
:10FD500001202871002070BD2C2500200063004088
:10FD6000FEB5044620480D46001900262030815774
:10FD7000491C01D0082633E0A97800291DD00122B2
:10FD800000212046FFF752F8411C14D08300174889
:10FD90002A78181869780369154F3B400361036995
:10FDA000E706FF0C9207920BC907C90A3B430A43B7
:10FDB0001343036104E0042612E00121C9430170EA
:10FDC0006A780120A0400B49012A0BD0C8600021AD
:10FDD00000910B46012201912046114600F098F84F
:10FDE0003046FEBD8860F2E7EC240020006500404C
:10FDF000FFE0ECFF0005005038B5124C21780029D7
:10FE000001D0852038BD002800D10F480D49027867
:10FE10004A70407888700020694608706846FEF78E
:10FE200003FA00F0F5FD002803D100F03DF800F0E2
:10FE300055F868460078FEF715FA0120207000207A
:10FE400038BD000048200020000F0200F3B5144E1A
:10FE500081B00F46002568460570FEF7E5F900F011
:10FE6000D7FD00280BD068460078FEF7FBF939462D
:10FE700001983ADF0446B0420DD105240DE03A4620
:10FE80000848019900F05CFA044600F027F868463B
:10FE90000078FEF7E7F9022CDDD02046FEBD000019
:10FEA00007200000040F020010B50948417800291E
:10FEB00004D008494A6801231A434A6006490A687F
:10FEC000520852000A6081780D20FFF7D9FE10BD5C
:10FED0004820002000D5004000D20040054A002004
:10FEE00003491060044A0120506008607047000018
:10FEF00000D0004000D1004000D300400249012062
:10FF0000886002490860704700D3004004D0004078
:10FF100070B552000A439900049D0A432902059EC8
:10FF20000A43310405240A432407800007210019ED
:10FF300009024018026070BD70B552000A43990072
:10FF4000049D0A432902059E0A43310405240A43FD
:10FF5000240780000721001909024018026070BDC3
:10FF60001CB500220B46009211460192FFF7E4FFF8
:10FF70001CBD1CB5002100910B46012201911146C8
:10FF8000FFF7DAFF1CBD0522120780008218072048
:10FF900000021018026803231B049A4302600268DF
:10FFA00009040A4302607047012181400148C16091
:10FFB0007047000000050050012181400148C160E8
:10FFC0007047000000050050012181400148C160D8
:10FFD00070470000000500500122824003480029BC
:10FFE00001D082607047C260704700000005005079
:10FFF00038B5084B05241B68009324026B46411852
:020000040002F8
:1000000005E085005D592D192D69401C20C28142F3
:10001000F7D838BDFC0E02000249401800210160EB
:100020007047000000600040034940180068012844
:1000300000D00020704700000060004070B5074D00
:1000400004462878002802D06878844204D0FCF75F
:10005000CDFF012028706C70002070BD782000203A
:1000600010B50120FFF7EAFF10BD0000F0B595B014
:10007000FEF7C4FE002802D0002015B0F0BD4B48AA
:100080004468866821463140890009180C94CD687F
:100090000BE02904A80D890D4018041920463040B2
:1000A000810042480C940818C568641CA807F0D069
:1000B00000200890A807800F3D4B022807D0AA0A0D
:1000C000A805000F84460EA99646002059E0204658
:1000D000304081003548641C0818C0680494864686
:1000E0002804800D84463440301B8000AF0D001D75
:1000F000874222D92D490C31002807D02B4AA40071
:10010000A21814460C34C2B2381A03E00C4600217F
:10011000FAB20846C0B20390019202910094A80678
:100120005C69400F634672460899A047B84213D1F4
:10013000FF1C0498B9080C1830E01C48A2001018E5
:1001400000210C300090029101970391A8065C6990
:10015000400F63467246E8E7164980050D40000CE3
:1001600005430C983040810010480818C56017E01E
:1001700027463740BA000D4F401CD719FF68641C52
:1001800080C167466045F3D3A80600971D69400FFC
:100190000EAB72460899A847002801D00348446076
:1001A000FEF72CFE0121484067E70000E025002013
:1001B000E02900203F00FFFFF8B5104D0E4607462E
:1001C00000206946AC68FEF7E1FD002815D00C4818
:1001D0003C21808888437907890E08430F218901D3
:1001E00088438105890DB0020143009802462240F0
:1001F00092005219401CD1600090F8BDE02500200B
:100200001C0F0200F7B5154C82B00E4607460120C0
:100210006946A568FEF7BAFD00281CD010483C21AD
:10022000008988437907890E08430F218901884393
:10023000402108438105890DB00201430098024620
:100240002A4092001219D160401C00902840800082
:1002500000190499C16005B0F0BD0000E025002040
:100260001C0F0200016880684A68824201D2521C59
:1002700000E000220868824201D10120704700207E
:1002800070478068884201D9481C70470020704739
:10029000FEB504460E460020694601900870684687
:1002A000FDF7C2FF2046FFF7DDFF07000AD0207CE4
:1002B000002807D00420019068460078FDF7D2FF9F
:1002C0000198FEBD2068416820460D46FFF7D9FF22
:1002D0002168002F486006D0206801682046FFF79B
:1002E000D0FF21680860E268012A15D0022A17D0E1
:1002F000042A1AD0082A1DD01046616868430818DD
:100300003146FAF72DFF204600F000F921688A688F
:100310008242D1D28860CFE7616830784855F2E7F1
:10032000616830886A008852EDE761683068AA0029
:100330008850E8E7626803CEEB00D21803C2E2E718
:10034000F8B5002415460E460746002A10D00020B6
:10035000694608706846FDF767FF384600F0D6F832
:10036000A84207D32A463146384600F09FF802E0FB
:100370000020F8BD052468460078FDF773FF20468D
:10038000F8BD4058002800D0012070470322120217
:1003900080184068084000D00120704710B5002840
:1003A00009D0032806D10220FEF7EAFB002801D07D
:1003B000FDF786FE10BD00F06DFA10BD70B5044665
:1003C000314D00886E8888B03A2838D00DDC02287C
:1003D00039D0102813D011281AD0132822D1002385
:1003E0001A46852130467FDF26E051282FD052283B
:1003F0001DD0552816D1A088132176DF1CE00720D8
:10040000FEF7BEFB002801D0FDF75AFEA08808E0E9
:100410000020FEF7B5FB002801D0FDF751FE0020BB
:10042000C043688008B070BDFDF74AFEFAE70023BC
:100430001A4619463046A9DF0028F5D1F2E7A08810
:10044000132176DFF8E7A088002167DFF4E71022A8
:10045000A11D04A8FAF784FE6846017C0029E1D0BA
:10046000007E042803D0062801D00528DAD102290D
:1004700008D0012069460870FF2083308880A0885A
:10048000A8DFD9E70220F5E7E81F002010B50078C3
:10049000002807D104483B21408876DF002801D09E
:1004A000FDF70EFE10BD0000E81F0020F7B5016843
:1004B000044603C91646884201D80D1A02E0A16815
:1004C0000D1A6D1CE268616850434118AE420CD8A9
:1004D00072430198FAF744FE2168A26808688019FF
:1004E000904200D900200860FEBD17466F433A468F
:1004F0000198FAF735FEE2680198751B6A43616856
:10050000C019FAF72DFE20680560FEBD016806C916
:100510008A4201D3501A70478068401A401C8018E4
:100520007047012252075110886B496B414388186C
:10053000704710B50122120712694243002084005F
:1005400008CA401C0B515028F9D310BD014610B504
:10055000012000074069C01EFFF7EBFF10BD00003F
:1005600070B501240B49600408600B494010886095
:10057000094940398860094D6C602F20FFF794FAD3
:10058000AC60074D00242F20AC60FFF78DFAAC70F3
:1005900070BD000080E100E0401301400010014008
:1005A0004C200020F0B500240546601C01078FB0E8
:1005B000090F08A8103108940170601C0107090F89
:1005C00008A8103141708178F9273940891C817061
:1005D0001C2101A8FAF7DDFD6846017910200143CE
:1005E00068460171029408A80494059401260794B2
:1005F000069086710B21C9436846818431461031CB
:10060000009401703146103141708178F7203940F3
:10061000891C0140EF20014031436846817014215C
:100620000AA8FAF7B6FD09A80A9068460B90068654
:100630001421448681862B4668880C330AAA01A9B6
:10064000A2DF0FB0F0BD000010B50446FDF720FAA0
:1006500000280CD0A007C00E002C0ADA2107090FD1
:1006600008398908144A89008918C96906E01348BD
:1006700010BDA108124A890089180968C1400806FE
:10068000800F042811D200280FD002280DD00D4968
:100690004B68E206D20E01209040002B08D0620980
:1006A00092008B5803438B5004E00448401C10BD5B
:1006B00005490860002010BD00ED00E001200000A9
:1006C00000E400E07020002000E100E0FFB50746F4
:1006D000806A81B0144600283DD00025384620307D
:1006E000009033E00C20B96A68430E18B088801C73
:1006F000FE2802D90C2005B0F0BD22880299401CCA
:10070000885420881622401C80B2208002990A5406
:100710002088401C80B2208002994118308800F067
:10072000E4FA2188401880B22080B288002A0AD0DA
:10073000B16800290FD0029BC018FAF711FD20887C
:10074000B188401820806D1C0098EDB2007BA84253
:10075000C8D80020CFE70720CDE7000070B50446D9
:100760001248134D018A2182818A61820078002813
:1007700018D06879002815D100F074FB002811D03A
:1007800028462030E06002200849207204202031F1
:10079000C870064800212030FDF77AFD002804D1FA
:1007A000052000E00320A870002070BDF02200208A
:1007B0000420002070B5044611480426018B2182D4
:1007C000818B618200780F4D002816D0687900284F
:1007D00013D100F047FB00280FD028462030E060FE
:1007E00002202072064800212030C670FDF750FD1F
:1007F000002804D10620A87000E0AE70002070BD73
:10080000F02200200420002001231A4682408B4061
:1008100010B504490C7814430C7003490A5C1A4360
:100820000A5410BD482100204921002008B517486E
:1008300000680090164800780300FDF70CF90506E3
:10084000171404070600FEF775FC08BD0420FFF727
:10085000BBFB69460420FFF783FA002801D0FDF7AF
:100860002FFC05200EE0FEF7A5FD08BD0520FFF7D3
:10087000ABFB69460520FFF773FA002801D0FDF7AE
:100880001FFC0420FFF7A0FB08BD0000501202006F
:100890000421002010B50020FEF772F9002801D0D5
:1008A000FDF70EFC3CDF002801D0FDF709FC10BD70
:1008B000002803D00249C860002070470E2070470E
:1008C000802000201CB50F4901910091694660DF2E
:1008D0000446009A019882420AD00B490220FFF791
:1008E00091FCFFF71EFE0099421A08A1022004E0C5
:1008F000002C04D0224612A10120FFF783FC2046E1
:100900001CBD0000E81F0020601602005344483A56
:100910005741524E494E473A52414D2073697A65CC
:100920002073686F756C642062652061646A7573FA
:1009300074656420746F2030782578200D0A0000DB
:100940005344483A4552524F523A73645F626C6561
:100950005F656E61626C653A206572726F722030FD
:100960007825780D0A00000070B50E46054614463D
:1009700014211046FAF70DFC01200021208021618E
:10098000217326726572002D00D0A072002070BD08
:1009900010B5FDF771FB10BDFFB581B0002901D086
:1009A000880702D0072005B0F0BD164D0124A960CC
:1009B0006A8000206B60FFF793F9060001D01248AF
:1009C00004600D20FFF78CF9070003D001200E49C9
:1009D000400308600D49019810DF00280AD00A4939
:1009E0008039002F02D0012252030A60002EDAD093
:1009F0000C60D8E72C70FFF723F91620FFF724FED0
:100A0000D1E700008020002080E100E09109020091
:100A100001480078704700008020002010B5FEF7E4
:100A2000F7FB10BD10B5094C6068FDF7E9FB002825
:100A300001D0FDF745FB002205496068FDF79CFBEE
:100A4000002801D0FDF73CFB10BD00004812020059
:100A5000CD0C000010B5094C2068FDF7D1FB002833
:100A600001D0FDF72DFBFF21002249312068FDF761
:100A700083FB002801D0FDF723FB10BD48120200C4
:100A800010B50420FFF798FA0520FFF795FA10BD7E
:100A900010B504484068FDF7B3FB002801D0FDF70E
:100AA0000FFB10BD4812020070B50646064C002030
:100AB00060706078B04205D248DF6078A842F8D014
:100AC0006578F6E770BD0000C4200020FEB51F4C1D
