:020000040001F9
:10B00000E8380020D5B00100EFB00100F1B0010038
:10B010000000000000000000000000000000000030
:10B02000000000000000000000000000F3B001007C
:10B030000000000000000000F5B00100F7B00100C2
:10B0400041C20100F9B001007DC80100F9B0010062
:10B05000F9B001000000000079BA0100F9B0010068
:10B06000F9B00100F9B00100F9B00100F9B0010038
:10B07000F9B0010091C40100F9B00100F9B001007C
:10B08000F9B00100F1C40100F9B00100F9B001000C
:10B0900091C70100F9B0010099C70100F9B00100A2
:10B0A000F9B00100F9B0010000000000000000004C
:10B0B0000000000000000000000000000000000090
:10B0C0000348854600F080F80048004709E3010086
:10B0D000E83800200321094802680A430260084852
:10B0E00002680A4302600748804707480047FEE7B6
:10B0F000FEE7FEE7FEE7FEE7FEE70000240500406E
:10B1000054050040DDC70100C1B0010030B50B4659
:10B11000014600202022012409E00D46D5409D4231
:10B1200005D31D469540491B2546954040191546B7
:10B13000521E002DF1DC30BD70B5002425460028DC
:10B1400001DA01244042002901DA01254942FFF7D2
:10B15000DDFFAC4200D04042002C00D0494270BD1F
:10B1600003460B439B0703D009E008C9121F08C020
:10B17000042AFAD203E00B780370401C491C521ECB
:10B18000F9D27047D2B201E00270401C491EFBD2D6
:10B1900070470022F6E710B513460A4604461946E2
:10B1A000FFF7F0FF204610BD421C0178401C00292B
:10B1B000FBD1801A704703460A780270401C491C74
:10B1C000002AF9D118467047064C0125064E05E0C5
:10B1D000E36807CC2B430C3C98471034B442F7D3B8
:10B1E000FFF772FF700002009000020070B50D467C
:10B1F00001461446104600F041FB034830C000F001
:10B2000037FF00F0F5FC70BDFC200020F8B51F4DA5
:10B210000746EA7B1EA100F0EBFB0026002805D0C4
:10B220001D48042201781143017025E01749EA7B8B
:10B230006D39384600F0DCFB144CE03C00286079A6
:10B240001DD0022805D0032803D00F2801D01028D4
:10B2500006D1142211A1384600F0CAFB002810D0F4
:10B260006079062801D00B2806D141220BA138466F
:10B2700000F0BEFB002804D06E740420F8BD0F2837
:10B2800001D00220F8BD0020F8BD0000E42D002010
:10B290004C69657264610000AA2000204F4B0000D9
:10B2A00010B50C46002806D000F0BAFB2178012228
:10B2B00082401143217010BD10B5174A1749137809
:10B2C000002B06D0012802D11846FFF7E9FF012024
:10B2D00010BD5378002B09D09278002A1AD001288B
:10B2E00002D11046FFF7DCFF022010BDD278002A01
:10B2F00006D0012802D11046FFF7D2FF032010BD6F
:10B3000006480838017A002902D00021017201E0C4
:10B3100006210170002010BD042D0020EC2B002020
:10B3200010B50E4C6078E11CFFF7BAFF21460020F3
:10B3300060398875E27801231A43E2702070A070AA
:10B340000A466070C03A1072887608774031887675
:10B35000C87688831E20C88310BD0000042D0020FD
:10B36000F8B504464578407A012832D0207A04287E
:10B3700030D003282ED018488679F0212046FFF7D8
:10B3800008FF01206072657000202072134FA670C4
:10B390002D01EE19307BE070B0887D21C900484353
:10B3A000606020460A3000907959FFF704FF785911
:10B3B000FFF7FAFE25466035A87320466F30B16866
:10B3C000FFF7F9FEA97B009803F09EF8A078401CD7
:10B3D000A070F8BD0026D0E7042D002044F701003E
:10B3E0007047000070B5134882780D2A0FD21249B9
:10B3F000124B8D5C1E7B01460024C031042E07D009
:10B400000122032E12D0072101701A715D7170BDE7
:10B41000521CD2B282700D2A05D3062202708470AB
:10B420000220087770BD0321017070BD0270847026
:10B430008C7670BDE42B0020F4F80100042D002070
:10B4400070B512488478052C0FD2114903460D5D62
:10B45000104900220E7BC033042E07D00124032E96
:10B460000FD0072202704D710C7170BD641CE1B2E7
:10B470008170052902D30421017003E002210170CB
:10B4800070BD047082709A7670BD0000E42B0020BD
:10B4900017F70100042D002030B5124881780A29E1
:10B4A0000DD2114A0023545C104A157B042D07D09D
:10B4B0000121032D10D0072303705471117130BD89
:10B4C000491CC9B281700A2903D30321017083701A
:10B4D00030BD0421017030BD0170837003486038B5
:10B4E000837630BDE42B002001F90100042D0020FB
:10B4F000F8B504463048314D41882F46091941803E
:10B50000A86A01212037A04204D3001BA862A042F0
:10B5100000D2397329488030028DA2420AD3121B0F
:10B5200092B20285A24205D2803001740021062029
:10B5300001F042F9224800268188A14202D3091B6A
:10B54000818000E08680C188091989B2C1800A29FA
:10B5500005D30A39C1800121062001F02DF91648D2
:10B560007D224188D200914224D34680E87E002883
:10B570000DD0A88B401C80B2A883E98B884206D3EB
:10B58000AE830E49EE7678782231FFF789FE0B48BC
:10B590004038017F02290DD1817D01290AD1018B1B
:10B5A000491C89B20183F02904D30683F878042169
:10B5B0000843F870F8BD000094200020E42C00201F
:10B5C000E42B0020F8B5124F00253D60114E1248C3
:10B5D0003446E0347573A27BE273A573257421466B
:10B5E00056390090FFF7BCFD042038600098FFF743
:10B5F0000DFE3073022809D0607C002806D0012897
:10B6000003D10221062001F0D7F83573F8BD000000
:10B6100000250040042D0020F12B0020F0B57F4CC8
:10B6200085B02546E81D2278F93003904038029015
:10B630007B48A9880078FB23019018400090A878E7
:10B64000FF35012600272135130001F06AFB08268B
:10B650004C7A8E94AAC90532287B002870D0022823
:10B6600001D0012805D1A879E979884201D30320C6
:10B670002873607881006B484158002902D06748E0
:10B680000D308847287B042801D0032801D10720EA
:10B690006070039887626F73B8E0002950D10A2167
:10B6A000002809D001280FD0022816D002988776EA
:10B6B000677002202070A8E05B4A0820D0608001FB
:10B6C000D060A670A180A1E0574A082090600220B7
:10B6D000A0705648A180067098E0012052494002AF
:10B6E0008860032029E0002978D1002816D001289D
:10B6F0001ED00298877666702770A770FFF710FE3D
:10B700004B480178491CC9B2017003297ED30770E8
:10B710004348082201781143017077E00120424933
:10B720004002C860A670C820A080404807706DE045
:10B7300001203D49400288600220A07032202EE0A6
:10B740004CE0002902D00199490747D5002824D0B0
:10B75000A7803349009B0B7062700721217031492B
:10B760002E71491F085C687153E0627007212170D7
:10B770002E713049F6E7002902D0019949072DD5ED
:10B7800000280AD0A7802649009B0B706270072111
:10B79000217028492E710D31E4E72748A670A0805A
:10B7A00034E00120FFF788FD607200282ED0207A57
:10B7B00000282BD0A078002800D126730399897E19
:10B7C000032901D3002807D0217861700721217057
:10B7D00014492E710839C5E76670267005B0F0BDB2
:10B7E0000020FFF769FD002802D0A07A3043A07244
:10B7F000A07A00280AD000F013F9411D2170A17A27
:10B800008640B143A17206206070A7702879012894
:10B81000E4D12F710948FFF7A3FDDFE7E42B0020F7
:10B82000AA2000201CF7010000050050C0200020C5
:10B8300094200020F4F80100204E0000082D002084
:10B84000F0B50C4A002112680B4B94468400621834
:10B85000002095008A0062442F18165CDF5D7E4050
:10B860001654401CC0B20428F6D3491CC9B204299E
:10B87000EDD3F0BDFC2000203830002000228B5C8E
:10B880008354521CD2B2102AF9D37047F8B505463A
:10B890000027274E48E027490C5C002C06D0012CDD
:10B8A00012D0022C21D0032C38D131E0224801786B
:10B8B000224801F06BF8012803D10121052000F096
:10B8C0007BFF1D48077029E01D48C17A1D480C31D7
:10B8D000006800F07BF801461948007C81421DD1C8
:10B8E0000221052000F068FF18E015481649C068DD
:10B8F0000246FFF77BFC12481021C1721348032255
:10B9000007700F48C168102001F034FE0321E8E7FA
:10B910000B48C27A417AC06800F0BCFC2146284638
:10B9200002F00EFA012802D0705D0028B3D1F8BDF4
:10B93000F120002010FA0100BE200020382F002046
:10B94000242F00209C200020AE20002099200020E1
:10B9500010B50E490A78002A0FD0012A10D0022A09
:10B960000AD14A78002A03D000228B1C1A804A7020
:10B970000422C82100F0D4FB10BD02F0B5F810BDC0
:10B9800001224A7000227D21C900F3E7C020002077
:10B99000F8B505460B4F0C4E10E03C5C230001F05F
:10B9A000C0F902020507FFF70DFE01E0FFF736FEC2
:10B9B0002146284602F0C4F9012802D0705D002813
:10B9C000EBD1F8BD10FA0100F120002010B50022E3
:10B9D000064C03E003785340E25C401C0B46491ED2
:10B9E00089B2002BF6D1104610BD00000BF9010002
:10B9F00070B500240B4605781E78B54205D15D78F8
:10BA00005B1C002D02D1012070BD0B464578401C07
:10BA1000002D03D0641CA4B29442ECD3002070BD6E
:10BA20000146002001231A4682400A4204D1401CEC
:10BA3000C0B20828F7D3FF207047000070B5044655
:10BA4000064E074D05E0315C204602F079F90128E9
:10BA500002D0285D0028F6D170BD000010FA010068
:10BA6000F120002010B5034910208860052002F065
:10BA700087FF10BD00050050F0B50024FF268BB0F5
:10BA80000136012527460694304602F0A9FF00281A
:10BA900007D054484068284203D0304602F098FF4F
:10BAA0002C43361D6D007F1CB6B2042FECD3FF254E
:10BAB0007D35284602F094FF002809D0284602F080
:10BAC00087FF6807044306AA0121002002F06CFFEB
:10BAD000454D200714D00127002627420CD04348AB
:10BAE000B200111808690969C004C00E8903AA5878
:10BAF000890F002A00D090477F00761C042EECD3DB
:10BB0000002C6DDA00200890401E63E028194030B8
:10BB10000778B906890E009100214156491C49D089
:10BB200009A9009802F0B1FD002843D0B80901909E
:10BB3000009802F0FDF880002F580198002F02D0E5
:10BB4000032802D00DE0032834D1009808ABC208C6
:10BB500041079446985C490F01228A40104362468F
:10BB60009854009805210907800040180721090210
:10BB70004018006806A98003800F0290009802F028
:10BB800084FD0028029802D0022802D012E0032887
:10BB900010D10198032808D1029802281ED0022152
:10BBA000009802F0D4FE761CF6B2002F02D0019964
:10BBB0000098B847641C042CA8D3002E10D06A4605
:10BBC0000121002002F0F0FE06990098884207D07B
:10BBD0000690089800263446099097E70321DFE78E
:10BBE0000BB0F0BD006300406424002000650040FD
:10BBF00010B50A20FFF724FE092400F0F9F900F03F
:10BC000015FA2046FFF71CFE00F00CF8641E24060F
:10BC1000240EF2D100F0ECF900F008FA0020FFF752
:10BC20000FFE10BDF0B585B0002003908400EF48F2
:10BC30000068065D20184178029181780191C078F2
:10BC40000090304603F010FD03F00EFD03F00CFDF4
:10BC500003F00AFD009803F007FD019803F004FDCE
:10BC6000029803F001FD03F0FFFC029803F0FCFCD6
:10BC700003F0FAFC03F0F8FC03F0F6FC009803F084
:10BC8000F3FC03F0F1FC03F0EFFC03F0EDFC009893
:10BC900003F0EAFC03F0E8FC019803F0E5FC03F094
:10BCA000E3FC03F0E1FC03F0DFFC304603F0DCFCD6
:10BCB0000546304603F0D8FC03F0D6FC454030463C
:10BCC00003F0D2FC03F0D0FC03F0CEFC4540029818
:10BCD00003F0CAFC029907464F40084603F0C4FC33
:10BCE00003F0C2FC03F0C0FC47407D40019803F024
:10BCF000BBFC03F0B9FC019907464F40084603F02E
:10BD0000B3FC03F0B1FC03F0AFFC47407D4000986A
:10BD100003F0AAFC03F0A8FC03F0A6FC014600987F
:10BD20004140B2484D4000680555304603F09CFC48
:10BD3000009803F099FC019803F096FC03F094FC42
:10BD4000029803F091FC03F08FFC03F08DFC03F0EC
:10BD50008BFC304603F088FC03F086FC03F084FC87
:10BD600003F082FC304603F07FFC03F07DFC00987A
:10BD700003F07AFC03F078FC03F076FC03F074FC2B
:10BD8000019803F071FC03F06FFC03F06DFC03F00D
:10BD90006BFC304603F068FC03F066FC03F064FCC7
:10BDA00005467540029803F05FFC0746029803F0D1
:10BDB0005BFC03F059FC4740029803F055FC03F08C
:10BDC00053FC03F051FC47407D40019803F04CFCCC
:10BDD000019907464F40084603F046FC03F044FC37
:10BDE00003F042FC47407D40009803F03DFC03F027
:10BDF0003BFC07460098474003F036FC03F034FC58
:10BE000003F032FC474079487D40006820184570B7
:10BE1000304603F029FC009803F026FC03F024FCD4
:10BE2000019803F021FC03F01FFC03F01DFC03F05C
:10BE30001BFC029803F018FC304603F015FC03F0DD
:10BE400013FC03F011FC03F00FFC009803F00CFC52
:10BE500003F00AFC03F008FC03F006FC029803F070
:10BE600003FC03F001FC03F0FFFB03F0FDFB029871
:10BE700003F0FAFB03F0F8FB304603F0F5FB03F0A8
:10BE8000F3FB05467540304603F0EEFB03F0ECFB98
:10BE900003F0EAFB4540029803F0E6FB03F0E4FB05
:10BEA00003F0E2FB029948404540019803F0DCFBB7
:10BEB0000746019803F0D8FB03F0D6FB47400198F2
:10BEC00003F0D2FB03F0D0FB03F0CEFB47407D40F4
:10BED000009803F0C9FB07460098474003F0C4FBF5
:10BEE00003F0C2FB03F0C0FB474040487D400068C0
:10BEF00020188570304603F0B7FB03F0B5FB0098BF
:10BF000003F0B2FB03F0B0FB03F0AEFB03F0ACFBBD
:10BF1000019803F0A9FB029803F0A6FB304603F05A
:10BF2000A3FB03F0A1FB03F09FFB03F09DFB019833
:10BF300003F09AFB03F098FB03F096FB03F094FBED
:10BF4000019803F091FB03F08FFB029803F08CFB48
:10BF500003F08AFB03F088FB03F086FB304603F016
:10BF600083FB05467540304603F07EFB03F07CFB07
:10BF700003F07AFB4540029803F076FB03F074FB74
:10BF8000029906464E40084603F06EFB03F06CFB38
:10BF900003F06AFB46407540019803F065FB03F02F
:10BFA00063FB03F061FB019948404540009803F0B2
:10BFB0005BFB0646009803F057FB03F055FB464039
:10BFC000009803F051FB03F04FFB03F04DFB46409C
:10BFD0000648754000682018C5700398401C0390FF
:10BFE000042800DA22E605B0F0BD0000FC200020A5
:10BFF0000D480068417B427A42734279427242782E
:10C00000427141708178827A827081728179827BFB
:10C0100082718173C178C279C270C27AC271C27BE7
:10C02000C272C17370470000FC20002030B509497E
:10C03000094A0C68002000218B001B191D5C491C5B
:10C04000555DC9B21D540429F6D3401CC0B2042862
:10C05000F1D330BDFC20002010FC010010B50420FD
:10C0600002F08EFC01492020886010BD00050050C0
:10C07000F8B52749274B4A6800208100545C5C547E
:10C080008C18C91865784D70A5788D70E478401CBF
:10C09000CC700428F1D337E0002182006D46141FD4
:10C0A00066189E5D6E54491C0429F9D3810715D189
:10C0B0002F46BE782978FF78174C6D78BC46655DB1
:10C0C000A65D6F467E706746E65D6F46BE70615C3A
:10C0D000F970124C8108615C4D403D70D4182546C2
:10C0E000203D6E46297C3678714099546E46697CB5
:10C0F000727851406170AA7CB1784A40A270EA7CA3
:10C10000F1784A40E270401C2C28C5D3F8BD0000ED
:10C11000FC2000203830002010FB010010FD010041
:10C1200070B5154652060C4C160E2288101880B2B7
:10C13000208088420ED301F0DFFC00202080002DFB
:10C1400008D0A178491CC9B2A170B14202D3A07035
:10C15000A11E087070BD0000C220002070B504460A
:10C16000064E074D05E0315C204601F0E9FD01284F
:10C1700002D0285D0028F6D170BD000010FA010041
:10C18000F120002070B50446064E074D05E0315CF5
:10C19000204601F0D5FD012802D0285D0028F6D107
:10C1A00070BD000010FA0100F120002070B50446B7
:10C1B000064E074D05E0315C204601F0C1FD012827
:10C1C00002D0285D0028F6D170BD000010FA0100F1
:10C1D000F12000208307FF22DB0E9A408907090E19
:10C1E000994000280BDA0007000F08388308084838
:10C1F0009B001818C36993430B43C36170478308BE
:10C2000004489B001B181868904308431860704747
:10C2100000ED00E000E400E070B50446064E074D76
:10C2200005E0315C204601F08BFD012802D0285D3D
:10C230000028F6D170BD000010FA0100F1200020A6
:10C24000F8B5FF20013002F028FA002401250E4E37
:10C250000E4F002807D00E4804600120B0607D70AA
:10C26000002001F083FDFF20053002F016FA0028BF
:10C2700008D00748001D04600220B060BD70012096
:10C2800001F074FDF8BD00000003004050240020C0
:10C2900000010040F8B50446002000903D480D46DE
:10C2A00040881646C11FF93905D03BA1002000F097
:10C2B00085F907210CE0002E05D03E4F7879A5289E
:10C2C0000BD0A02D09D03CA1002000F077F904216B
:10C2D000284600F09DFB0098F8BD2A463DA10020AD
:10C2E00000F06CF9A02D04D0A82D16D0A92D36D1C0
:10C2F00039E03CA1002000F061F92078102803D03B
:10C300007879A5282BD043E02BA1002000F056F926
:10C310003CE0284600F07CFB21E037A1002000F043
:10C320004DF9092E32D13848002101733979417312
:10C33000364A002112880C30012A00D80121817070
:10C340000321284600F072F8207AA12802D0A22802
:10C3500003D004E0FFF786FB01E0FFF77FFE2C49E6
:10C3600000204870F8BD2BA1002000F027F9042E12
:10C370000CD12078617800020843A17800020843BC
:10C38000E178000208432849884201D20421C0E72D
:10C390000021BEE7242F002050524F544F434F4CF2
:10C3A0005F4150505F4552525F56455253494F4E80
:10C3B000210D0A00A220002050524F544F434F4CF1
:10C3C0005F4150505F4552525F504152414D210DE7
:10C3D0000A000000636F6D6D616E64203D2025646E
:10C3E0000D0A0000636D6420676574206165736BDE
:10C3F0006579210D0A000000636D6420737769740C
:10C400006368210D0A000000F82D0020A020002004
:10C4100098200020636D642061646A7573742074D1
:10C42000696D65210D0A000000D36C3870B5164C9B
:10C43000F0222270A522627001230022A370E27014
:10C4400023716371A271E2712272104A6072927A52
:10C450000B25A272AA2801D0A22801D100290DD152
:10C46000E1720C310D462046FFF7B0FA60551620F8
:10C470006D1C60550D206D1C60556D1C29462046B5
:10C4800001F078FA70BD0000F82D0020242F002064
:10C490001CB500246846047000F0A6FE02F0E8FE19
:10C4A000002818D10E480168002914D00D49896868
:10C4B000C907C90F0FD004600B488068694608712E
:10C4C00001A90A4802F0C0FB084802F0A7FB0028B7
:10C4D00001D002F00BFA6846007800F0A3FE1CBD04
:10C4E00000D1004000D3004000D50040CCF6010050
:10C4F00010B506490020086048608860C86003499C
:10C5000040390860486002F065FF10BD40110140ED
:10C5100010B503480078002801D100F083FA10BD5F
:10C520006C2B0020F8B506460C48144600780D46E2
:10C53000002801D100F076FA0023684600930370CA
:10C5400000F052FE22462946304600F009F8044623
:10C550006846007800F066FE2046F8BD6C2B00208F
:10C5600070B50E4618214843134914464518E86A29
:10C570001835002804D001280FD0022805D113E077
:10C58000284600F085FAA04201D2002411E022469C
:10C590003146284600F0A7FB0BE0284600F078FA69
:10C5A000A042F4D20446F2E73146284600F06BFB85
:10C5B0000446204670BD00006C2B00200FB408B567
:10C5C00004A900916A46039900F004F801B008BC80
:10C5D00004B01847F7B598B007A80290402000258E
:10C5E0000495039018980C46059506902178641CD4
:10C5F000002977D0252907D002A800F025FB05984F
:10C600000028F3DA1BB0F0BD0122002102271346F7
:10C610000826207823281BD02B2816D02D2802D0BE
:10C62000302806D101E0194300E03943641C002A98
:10C63000EFD1002220780346303B0A2B0AD20A238E
:10C640005A431218303A641CF4E704200143EDE722
:10C650003143EBE70023C7B22E2F0AD1641C2078A8
:10C660000746303F0A2F04D20A277B431B18303B72
:10C67000F4E76C280DD068280BD0702852D00BDC62
:10C6800025285AD058282ED063280CD0642858D199
:10C6900010E02078641CECE7732832D0752817D09E
:10C6A00078284ED11FE01A981A9A0068011D11606F
:10C6B000017843E01A981A9F0068061D3E600068E2
:10C6C0000191009201460A2202A800F0ECF938E03C
:10C6D0001A981A9F0068061D3E600068009201913A
:10C6E0000A2209E02FE01A981A9F0068061D3E6092
:10C6F0000068009201911022014602A800F038FA69
:10C700001FE01A981A9A0068011D116006683178B6
:10C71000761C002915D002A800F096FA059800288A
:10C72000F5DA0EE01A981A9A00680823011D1160C4
:10C730000168102200960195DFE7252102A800F08C
:10C7400083FA641C5BE70598002800DC5AE704982C
:10C75000002804D0024607A91898FFF7E3FE0499C1
:10C760000598401805904DE770B50446064E074DF4
:10C7700005E0315C204601F0E3FA012802D0285D93
:10C780000028F6D170BD000010FA0100F120002051
:10C7900010B502F091FD10BD10B5064840680028A4
:10C7A00005D08047002801D000F06AFC10BD01F0E0
:10C7B00043FC10BD8020002001231A4682408B409C
:10C7C00010B504490C7814430C7003490A5C1A43F1
:10C7D0000A5410BDF0200020F120002010B501F017
:10C7E00079FC002805D01F491D484860C8131E4920
:10C7F00088611E48018CC9B201290BD1828C1207B5
:10C8000008D1028D1206120F042A03D1828D12065E
:10C81000120F0AD0012921D1818C09071ED1018D67
:10C820000906090F0A2904D007E0114A0121916085
:10C83000F5E7828D1206120F05D00D290ED1808DDD
:10C840000006000F0AD10B480168012904D00A49EB
:10C85000016001680129FCD1C021416110BD0000C7
:10C86000DFFF07C000050040006C0040C00F00F073
:10C870000006004000EC064075930000F8B52E4C11
:10C8800001214902204602F03CFA00252B4F0126E7
:10C89000002818D0FF212531204602F02DFA00286B
:10C8A00011D0FF2025302550812025498000886047
:10C8B0003878002800D1666020480822001D0178E1
:10C8C0001143017028E00421204602F01AFA0028E2
:10C8D00022D0FF210931204602F00EFA00281BD099
:10C8E000FF200930255017484673174882691549BB
:10C8F000E031887B0B46563BC254887B401CC0B25B
:10C900008873642800D38D730E481421603001852C
:10C910003878002800D16660FF214531204602F0BA
:10C92000EBF9002806D0FF20453025503878002844
:10C9300000D02660F8BD000000200040C820002084
:10C9400000230040042D00200025004030B504469F
:10C950000078F02816D16078A52813D1E57A28460A
:10C960000F300C3588420DD860194178162909D14D
:10C9700080780D2806D129462046FFF727F8615D0B
:10C98000884201D0002030BD012030BD30B51C4BA5
:10C99000002159600278811C140242782243194C0C
:10C9A000A24227D10C78184A240254804D7825439E
:10C9B00055808C781471CC7854710C7994714C79C1
:10C9C000D4718C791472CC7954720C7A09319472C6
:10C9D000AA2C01D0552C0DD10C78D472491CD160F1
:10C9E00061180C7814744A78897812021143074A46
:10C9F000914201D0002030BD5860012030BD0000C0
:10CA000098200020A5F00000242F00200D16000023
:10CA100010B5034A11730121FFF708FD10BD000096
:10CA2000F82D002010B5124C02202061606111A089
:10CA3000A0611348E0610120400220620020A06252
:10CA400060620CA1A1642146E0621039E16410210A
:10CA50002165A0656065E0650AA1E01DFEF7ABFBFE
:10CA600009A12046FEF7A7FB2020A07110BD000001
:10CA70006C2B00205465726D696E616C00000000C3
:10CA80005C2900205254540053454747455200004A
:10CA90000269C1688A4203D88068401A801800E0A1
:10CAA000501A401E7047FFB583B00E4670420D9F6E
:10CAB0000C9C0090002900DB0846012502E0FEF7EF
:10CAC0003BFB6D1C05998842F9DA0698A84200D90B
:10CAD0000546002C04D0002E01DB780700D5641E2B
:10CAE000B80702D50698002810D0F8070ED1002C00
:10CAF0000CD0A5420AD22021641E039800F0A4F8AD
:10CB00000398C0680028F2DA07B0F0BD0398C06847
:10CB10000028F9DB002E02DA2D21009E02E07807C2
:10CB200007D52B21039800F08FF80398C0680028E0
:10CB3000EADBB807800F022810D1069800280DD133
:10CB4000002C0BD0A54209D23021641E039800F0BE
:10CB50007BF80398C0680028F2DAD5E701970094C3
:10CB60003146069B059A039800F002F8CCE70000D6
:10CB7000FFB581B001261F4634460A9D029802E0A7
:10CB8000FEF7C4FA641C03998842F9D2A74200D97F
:10CB90003C460B98C00718D1002D16D00B98800783
:10CBA00001D5002F02D0202000900CE03020FBE7C0
:10CBB0006D1E0099019800F047F80198C0680028A0
:10CBC0003DDB002D01D0AC42F2D30198C0680028B3
:10CBD00035DB012F01D97F1E06E031460298FEF7B2
:10CBE00095FA0399884202D303984643F1E7154F1B
:10CBF00031460298FEF78AFA0146029A7143511AA9
:10CC00000291395C019800F01FF80198C068002873
:10CC100005DB30460399FEF779FA0600E8D10B9858
:10CC2000C0070CD0002D0AD0AC4208D220216D1EC6
:10CC3000019800F009F80198C0680028F2DA05B000
:10CC4000F0BD000004F7010010B504468068636879
:10CC5000421C934205D323681954A260E068401C2B
:10CC6000E060A2686068824209D121682069FFF70C
:10CC700059FCA168884203D00020C043E06010BD89
:10CC80000020A06010BDF7B5064682B000200090DD
:10CC9000F46817463069A04201D9051B02E0B1686B
:10CCA000201A0D1AB0686D1E001BA84200D8054658
:10CCB000BD4200D33D4670682A4600190399FEF72D
:10CCC0004FFA00987F1B401900900398641940198F
:10CCD0000390B068A04200D10024F460002FD9D1A5
:10CCE000009805B0F0BDF7B5C668174604468068E1
:10CCF000851B6068BD4206D980190199FEF730FA9C
:10CD0000F019E060FEBD2A4680190199FEF728FA65
:10CD100001987E1B411932466068FEF721FAE660F1
:10CD2000FEBD30B47446641E2578641CAB4200D24C
:10CD30001D46635D5B00E31830BC184702E008C87D
:10CD4000121F08C1002AFAD170477047002001E085
:10CD500001C1121F002AFBD170470000202804DA0D
:10CD6000012181400348014201D001207047002089
:10CD700070470000FC06FFBCF7B584B006460025EE
:10CD80001788158020300290407B1446002806D07A
:10CD90003A462146059800F0F1FC050009D1B0782B
:10CDA000002823D0059886462088001DB84202D965
:10CDB0000C2007B0F0BD684679DF0028F9D1218842
:10CDC00003207246505420881921401C80B22080D4
:10CDD000115420887146401C80B22080411868465A
:10CDE000008802F078FB218840182080F078002825
:10CDF00017D0218803230A46F356C91C0598B94267
:10CE0000D6D80221815421880122491C89B221806F
:10CE100042542188491C89B2218043542088401CF7
:10CE200020807068002817D021880023C3560A4646
:10CE3000C91C0598B942BBD80221815421880A2215
:10CE4000491C89B2218042542188491C89B2218021
:10CE500043542088401C2080308900280AD0009448
:10CE600030460197062202210830059B02F080FB24
:10CE700005009ED1308A00280AD0009430460197E0
:10CE8000072203211030059B02F072FB050090D1B0
:10CE9000308B00280AD000943046019715221421C7
:10CEA0001830059B02F064FB050082D1306A00282F
:10CEB00006D03B462246059900F0C0FF0500D8D1B8
:10CEC000706A002806D03B462246059901F0E8FA30
:10CED0000500CED10298007B002807D03B462246B1
:10CEE0003046059902F068F80500C2D13078002874
:10CEF00007D03B4622463046059901F077FB0500F6
:10CF0000B7D1284655E70000174A0021535C002B93
:10CF100001D0012203E0491C0629F7D3002213495E
:10CF2000012806D002280BD0032810D0042818D1DD
:10CF300012E04878002803D0002A01D00120704771
:10CF40008878002803D0002A01D002207047C878D2
:10CF5000002801D0032070470879002801D0042060
:10CF600070470020704700001D200020682200202C
:10CF7000F0B5B3B03C2101A8FEF70BF902276846D3
:10CF80000771002585710621C1713C2110A8FEF7AB
:10CF900000F9012610A806822548159020211FA817
:10CFA000FEF7F7F818A8C6771920800123901421FE
:10CFB00024952AA8FEF7EDF82AAC2FA871DF0020EF
:10CFC0002FAA31A905231B1A9B185B780B54401C10
:10CFD0000628F7DBF6202070CB2060709A20A07026
:10CFE0003B20E07026716671A6710820E071257201
:10CFF0006572A520A0722046E77206220C30FEF76B
:10D00000AFF8592120A881832AA82990122120A8AD
:10D01000018427A800951990064B1FAA10A901A802
:10D0200000F04AF9002801D000F02AF833B0F0BD32
:10D03000EC1F002013ED010009A1012001F098FD73
:10D0400001F0EAFC01F0EEFC0028FBD100BEBFF3CA
:10D050004F8F0A490848C860BFF34F8F00BFFDE7F4
:10D060004150505F4552524F523A4552524F523AF8
:10D07000466174616C0D0A000400FA0500ED00E0E1
:10D080000EB50021029000916A4601910148FFF718
:10D09000D3FF0EBD01400000094B5B68002B07D099
:10D0A000002A07D0002805D00068037C002B03D09D
:10D0B0000820704707207047417442610020704784
:10D0C0005C200020FFB507469007002581B01E4672
:10D0D0001446002825D1002C23D001F0B7FE30469D
:10D0E000114EF06030461030057045700299817025
:10D0F00044607560357001240C4875702405046027
:10D1000003211420FFF766F809480460094CA76062
:10D1100003211120FFF75EF86068B060002005B0C1
:10D12000F0BD0720FBE700004C20002080E200E07B
:10D1300000E100E000150140FEB51F4B5B68002BCD
:10D1400030D000282ED0052901D20720FEBD43692A
:10D15000002B27D0437C012B26D0002702910446C8
:10D160000025694616460D70684600F03DF801A896
:10D1700002F0E8F9002819D0012101700F4944603C
:10D1800049688160029907614661C16068460A4941
:10D19000007948706846007800F044F802F0CEF854
:10D1A0002846FEBD0820FEBD0F46D7E76846042589
:10D1B000007800F037F8F3E75C200020001501400C
:10D1C00010B50849496800290AD0002808D04169EB
:10D1D000002905D000210174022102F0D7F810BD0A
:10D1E000082010BD5C20002030B5EFF3108172B62E
:10D1F000094A54680123002C04D00370002900D18F
:10D2000062B630BD5360054B1D68054C2540156066
:10D210001C6000220270F1E77020002080E100E035
:10D22000FC06FFBC08494A68002A0CD000280AD135
:10D23000EFF3108072B60A68044B1A6000224A604D
:10D24000002800D162B670477020002000E100E0A5
:10D25000F0B50C4693B01F216A46118007260027BF
:10D260009180002809D0C17849070DD502A9FFF7A0
:10D2700083FD002809D102AD01E000251780002CB4
:10D280000ED0E078002802D0304613B0F0BD01AADD
:10D290000AA92046FFF770FD0028F6D10AAA02E08D
:10D2A00068460022878068468088C3B26846008846
:10D2B000C1B2284672DFE8E7FFB581B01E460A9F7B
:10D2C0001346040047D0002B45D0504D0120287054
:10D2D0000020E870202219464D48FDF741FF00204C
:10D2E0006F61C0432E612881284607211830FDF761
:10D2F00050FF47483C212030FDF74BFF4448217840
:10D3000020300170A1788170E178C170617841703E
:10D310003F4A656923695563114613632031E36809
:10D32000A268CB608A603A49E369A269CB638A63E9
:10D33000616A00291AD001463C31024648324162F6
:10D340008A60636A1B880B80616A436A8988998056
:10D350000021436A07E00E2005B0F0BD656AAD68A4
:10D360006D5C5554491C9D888D42F7D8A16A0029EF
:10D370001CD0274A943211460C398A608162A36A14
:10D380009B888B80A16A836A098819800021836A3F
:10D3900004E0A56AAD686D5C5554491C9D888D42BA
:10D3A000F7D82C210A5D1A4940310A73216A0029F5
:10D3B00009D016490A310162226A52884A80216ADC
:10D3C000026A098811806168002900D04160104A12
:10D3D0000E490020B3322031C3001B1A85009B1870
:10D3E0000C68401C63510828F6DB094A0020EB3228
:10D3F000030185009B188C68401C63510828F7DBEB
:10D40000034802992030FFF723FFA5E704200020FE
:10D410006822002010B50188134C102915D011295D
:10D4200019D01B2910D1007A00280DD1E0780521F0
:10D43000401CFDF76BFE084600F018F8002803D0EA
:10D440006169002900D0884710BD817D0129FBD189
:10D450008088208110BD00216171808821898842E7
:10D46000F8D10120E8E7000004200020F1B53F4C8E
:10D4700088B0207800280AD00898E07006A800F04C
:10D4800079FD06980125002804D065706AE008201F
:10D4900009B0F0BD3548002707211830FDF779FEA7
:10D4A000334E7078002802D0E078012807D0B07899
:10D4B00000280CD0E078012801D0022807D121698A
:10D4C000002903D025710820884700E027710898BB
:10D4D000FFF71AFDE0702169002909D0032801D067
:10D4E000042805D13078002802D06079002811D0B6
:10D4F000A77118216846FDF74CFE68460770077251
:10D50000E1781A480B001830FFF70BFC052E080FC6
:10D51000191D2000A57107208847EAE7A570019032
:10D52000684605704782078213E00221A1700190CE
:10D5300068460570B18941823189018209E06846F7
:10D5400001F082FD02E0684601F0AAFDE0780028C3
:10D5500003D0684673DF00289AD12169002901D0E1
:10D56000A0788847002093E7A770F6E70420002002
:10D570006822002070B50E460446002A0CD0012A0D
:10D580001BD0022A2AD0032A16D1024621A100204C
:10D59000FFF714F8002539E0024624A10020FFF728
:10D5A0000DF8002506E0735D2A4627A10020FFF74D
:10D5B00005F86D1CA542F6DB70BD024626A10020D1
:10D5C000FEF7FCFF002506E0735D2A461EA1002041
:10D5D000FEF7F4FF6D1CA542F6DB70BD024626A1E6
:10D5E0000020FEF7EBFF002506E0735D2A4616A13A
:10D5F0000020FEF7E3FF6D1CA542F6DB70BD735DF6
:10D600002A4611A10020FEF7D9FF6D1CA542F6DBCA
:10D6100070BD00006165732064617461206C656E8B
:10D62000677468203D2025640D0A00006F726967E9
:10D63000696E616C2064617461206C656E677468EA
:10D64000203D2025640D0A005B25645D203D2030CF
:10D6500078253032580D0A006461746120656E636C
:10D66000727970742064617461206C656E6774688F
:10D67000203D2025640D0A006372632063686563A2
:10D680006B2064617461206C656E677468203D2056
:10D6900025640D0A0000000070B5054601461C22F5
:10D6A0000E48FDF75DFD0E4C002626702968002906
:10D6B00006D00822201DFDF753FD201D7ADF02E071
:10D6C0000748001D7BDF002807D1401E6080667080
:10D6D000044A00210448FFF7DFFC70BD3424002019
:10D6E00034200020E1F40100B0F60100F8B5214C2F
:10D6F0000146028800261E48E589102A13D01E4FD5
:10D70000112A1FD0122A2BD0502A1AD1881DC9885D
:10D71000A94216D14189022913D10C3000F0FEF83C
:10D7200000280CD112E08A88044642801048082262
:10D730000C301831FDF714FD6670002D01D100F09A
:10D74000C5FBF8BD0021C943418046703868FFF72A
:10D7500037FD0028F5D0A1690029F2D08847F8BD2F
:10D76000034808220C300831FDF7FAFCE7E7000017
:10D770003420002034240020B0F601007CB505469A
:10D7800008880C460930904201D90C207CBD6846BF
:10D7900071DF0028FAD121880820685420881B21D5
:10D7A000401C80B220802954208800A9401C80B2EF
:10D7B0002080401906220131FDF7D2FC20886946FD
:10D7C000801D80B220800978002900D001212954D1
:10D7D0002088401C208000207CBD000010B504463D
:10D7E000FFF784FF2146054800F040F8204601F08D
:10D7F000A1FA2046FFF70EFE10BD0000E021002038
:10D8000030B5184B0D4604000FCB85B003936B4623
:10D8100007C324D0002D22D00020C043A082286856
:10D82000A0610020A0752146684663DF002814D15E
:10D830000121684681740C490182A21C04A90120BF
:10D84000A0DF002809D12946204601F021FB00284D
:10D8500003D12946204601F0FDFD05B030BD0E2064
:10D86000FBE70000B4F601001019000010B5002815
:10D870001BD0002919D00A88102A17D0112A17D0D6
:10D88000502A12D104468A1DC888238A1231984230
:10D8900002D15389022B0FD0A388984205D1A369E6
:10D8A000002B02D052892046984710BD898801E09C
:10D8B0000021C943818210BD084600F02FF80028DE
:10D8C00000D00120A07510BD07B584B000280DD090
:10D8D000828A114B9A420BD0827D002A08D06A4678
:10D8E000128B142A06D9072007B000BD0E20FBE7D3
:10D8F0000820F9E7002200920192029203928289A5
:10D900006B461A80039106A9029101219970808AC1
:10D910006946A6DFE8E70000FFFF000041780278D3
:10D9200008021043C007C00F7047000070B50F4CCD
:10D93000154620784219802A07D80D4A10182A4621
:10D94000FDF70EFC207840192070C1B265700848C0
:10D95000FEF7FCFF012808D1002205492078FFF7D7
:10D9600009FE00210520FEF727FF70BDBE20002024
:10D97000382F00200A4610B501460248FFF7A4FFE1
:10D9800010BD0000E021002005490B5C05494A68F4
:10D9900001209840034693438B601040C860704755
:10D9A0007CF601000005005010B50349085C012118
:10D9B00000F0EEFF10BD00007CF6010010B5034939
:10D9C000085C002100F0E4FF10BD00007CF60100BF
:10D9D0000549095C05484068C840C007C00F00D031
:10D9E00001200121484070477CF6010000050050ED
:10D9F00010B500242046FFF7D7FF641C042CF9D390
:10DA000010BD10B500242046FFF7D8FF641C042C7D
:10DA1000F9D310BD0246002010B5C043054B0021CC
:10DA20005C5C944201D1084610BD491C0429F7D31F
:10DA300010BD000080F60100F3B581B00D460198DD
:10DA4000FFF7E8FF0446042813D21D481D4F1E4E61
:10DA5000002D27D0012D0DD0022D0AD160002018F5
:10DA6000C0194578002D04D0F168002901D028465E
:10DA70008847FEBD610061187D5CCF197978002967
:10DA80000BD071680A2251430F4A8068921CFFF73D
:10DA900053FB002801D10198B0700B48B9781030C1
:10DAA0000155DFE78068FFF78BFB074861006118CD
:10DAB0001030C919005D8D78A842D3D0FEBD00009A
:10DAC00084F601003C220020F01F002010B5054A1A
:10DAD0000146127A0020D20702D0084600F018F85A
:10DAE00010BD0000F01F0020FF2002490130C86077
:10DAF000704700000005005004494A68FF200130CB
:10DB0000034693438B601040C86070470005005087
:10DB1000F8B55D4C054660780026002803D000204B
:10DB20006070FFF765FF0120584F2B00FFF7F9F8F1
:10DB300018970D0D2E3D4A5F64686F686FA977775F
:10DB4000777777979A9DA0A9A9950020FFF740FFC6
:10DB500000280AD00020FFF727FF022D02D1E12084
:10DB6000C0000BE07D20400108E00020FFF726FF09
:10DB7000022D01D1C82001E0FF20913025706421E1
:10DB8000FDF7C4FA6168414300222BE00020FFF753
:10DB90001FFF002805D00020FFF706FF19204001D5
:10DBA000ECE70020FFF70AFFE4E70020FFF710FF93
:10DBB000002803D00020FFF7F7FED3E70020FFF78F
:10DBC000FDFED9E70020FFF703FF002803D0002067
:10DBD000FFF7EAFE02E00020FFF7F0FE2570606824
:10DBE000410000223868FFF7A7FA064635E000201A
:10DBF000FFF7CAFE257007E000203FE025702CE00B
:10DC000060700120FFF7C0FE00226168EAE76070E3
:10DC10000120FFF7B9FE606881004118E1E77868EC
:10DC2000FFF7CEFA06461120401B01D0002E03D08C
:10DC30000220FFF7B9FE10E001280BD9C8214843A4
:10DC40006421FDF763FA6168002241437868FFF7B9
:10DC500073FA06460220FFF7B1FE3046F8BDFFF723
:10DC6000C7FECBE7FFF7C4FEC6E7FFF7C1FE04E03F
:10DC7000FFF7BEFE0020FFF7A1FE0120FFF79EFE8A
:10DC8000BCE7FFF7BEFEB9E7F01F002084F60100F5
:10DC9000F8B50D46461C0020694608700124684608
:10DCA000FFF7A2FA134A1068286011685068936859
:10DCB000081A1D1A701C6D1CA84212D9002D0ED016
:10DCC0000D480E4C0088246880051940800DA40280
:10DCD000890020438918C8601068401C1060002427
:10DCE00001E08819106068460078FFF79BFA20462B
:10DCF000F8BD000044250020E0F601007C20002053
:10DD0000034803C8814201D10120704700207047B9
:10DD1000442500200022D243830004490428CA502D
:10DD200002D30818203002777047000064240020D6
:10DD3000024909182020085670470000642400207A
:10DD400030B5084C0122235C15468D40AB4323546B
:10DD500001D0002030BD824003480178914301701A
:10DD6000012030BDF1200020F020002070B5084CCB
:10DD7000050009D010342168002907D00868206008
:10DD8000496828468847F6E70834F4E770BD000084
:10DD900050240020F8B52348416800293ED00E6881
:10DDA00021494C6887688078E11B0D022D0AED1C23
:10DDB000002814D101201D4A000450601B4A403A3B
:10DDC00050601B49400008601A4908601A49012048
:10DDD00008602F2000F06AFC124901208870B542CB
:10DDE00000D23546E81900020F4B000A4033186094
:10DDF0000D4A5168001B091B0902090A0002000AAA
:10DE0000C91C814209D9506818602F2000F04EFCCF
:10DE100001200749400480390860F8BD01F016F878
:10DE2000F8BD00004C2000200015014040130140C7
:10DE300080E200E000E100E000100140F8B5064695
:10DE4000108814468446801D0D46984201D90C2046
:10DE5000F8BD32880720062AFAD31927FF01184B8C
:10DE6000BA4201D99A42F3D171880629F0D3B94256
:10DE700001D99942ECD19A4203D0994201D08A4209
:10DE8000E6D805216046295420881221401C80B222
:10DE9000208029542088401C80B22080411930887D
:10DEA00001F019FB2188401880B220804119708848
:10DEB00001F011FB2188401820800020F8BD0000EF
:10DEC000FFFF000010B5FFF7DBF810BDF8B51648EE
:10DED00000F0F2F8144D00260C3D144C002807D039
:10DEE000616900291CD001206A461070684616E05E
:10DEF0002878002805D06169002911D0684606708D
:10DF00000DE0687800280DD0A1680948002200685B
:10DF1000FFF712F9002803D0A169002900D0884733
:10DF20002E70F8BD6168F0E7402000203424002006
:10DF3000B0F6010010B50E4900230A784C78A242D1
:10DF400012D0521CD2B20A70022A00D10B700A7889
:10DF5000074B920018339A58026088681018000224
:10DF6000000A8860012010BD0360002010BD000081
:10DF70004C200020002804D00349496E0160002095
:10DF80007047032070470000DC24002010B5054ACC
:10DF900001210548FFF780F8002801D0FFF770F84D
:10DFA00010BD000085E201000CFA010002480021CA
:10DFB00041708170C1707047C820002010B500F01A
:10DFC00013FC082000F0B9FCFF201A4901308860DA
:10DFD0000021012000F0A8FC022000F0AEFC02208D
:10DFE00000F0C6FC0021042000F09EFC042000F09C
:10DFF000A4FC042000F0BCFC052000F09EFC0520E1
:10E0000000F0B6FC0021062000F08EFC072000F096
:10E0100094FC072000F0ACFC032000F08EFC0320F1
:10E0200000F0A6FC092000F088FC092000F0A0FC0C
:10E0300010BD000000050050F8B51E4C20780028E7
:10E0400036D0E068002600280CD000256078002833
:10E050002ED1684652DF052806D0002806D0FFF7EB
:10E060000FF80BE00125F1E7012607E0009800F02A
:10E0700073FB2169002901D000988847002D13D136
:10E080006078002814D1608869460880A06861DF44
:10E09000052804D0002804D0FEF7F2FF04E0012593
:10E0A00002E0E168A0688847002ECFD0002DE5D0BF
:10E0B000F8BD000080200020418805480288914278
:10E0C00004D34088814201D8012070470020704766
:10E0D000382000201048018CC9B2012917D1818C49
:10E0E000090714D1018D09060A0F03D1828D12068A
:10E0F000120F0ED0090F012903D1828D1206120FC3
:10E1000007D0032903D1808D0006000F01D0002025
:10E110007047012070470000C00F00F0F0B5284C98
:10E120002146103948688B68227886469C46CF780D
:10E13000667836E0182353436168521CC918A378E7
:10E14000D2B2934200D100220B78022B02D0032BD3
:10E1500027D123E003464D68194603E0A94204D0C5
:10E160000B46C96900291CD0F8E7002919D08B4259
:10E1700008D1C069002805D1124F0125BD600025D6
:10E18000AC4601270D68C969D961002909D00B681F
:10E190005B190B6005E00174C06900E000210028F4
:10E1A000F9D19642C6D10649624610398A60486064
:10E1B000CF70704501D00120F0BD0020F0BD0000FF
:10E1C0005C20002000100140F8B52C4E0446706819
:10E1D0000025009041E0002C02D02046E46920E0B8
:10E1E000264818231030017842684B43491CC9B2B5
:10E1F000D21801708378994200D105701178506867
:10E2000001292CD1017C002929D191684160D16874
:10E2100081601169C16051698161F178002900D084
:10E2200045604368B268164F991A0902090AB94253
:10E2300002D28268891806E0D11A09028268090AA6
:10E240008A4202D9511A016000E00560456001214F
:10E2500085600174C56101F079F8002CBBD10748D5
:10E260001030017840788142BAD1716800988142BB
:10E2700001D00120F8BD0020F8BD00004C20002096
:10E28000FFFF7F0070B51D4D1D4C2888401C288065
:10E290002078000702D40A20FDF72AF90A20FDF7AA
:10E2A00057FB2888642828D300262E802078154D17
:10E2B000C10701D1810713D5E988491CE980E988A4
:10E2C000B4290DD3EE80C00703D000210420FEF74F
:10E2D00073FA2078800703D501210420FEF76CFA39
:10E2E0002078010709D52989491C2981298978299C
:10E2F00003D32E81F7210840207070BDAC20002090
:10E30000AA200020182F0020002388B0514A0521A0
:10E310001846FEF7D7FE002801D0FEF7B1FEFEF743
:10E32000F7F84DA10020FEF749F94F484949006828
:10E330000590002348225C3905A800F05DFF002805
:10E3400001D0FEF79DFE6A460121002000F03CFF4F
:10E35000002801D0FEF794FE684600F0E3FE002896
:10E3600001D0FEF78DFE414800F0D2FE002801D01A
:10E37000FEF786FEFFF722FE00F080FF11206946BF
:10E38000087207223AA102A87CDF002801D0FEF71C
:10E3900077FE0024009410216846019401803C21FE
:10E3A0004180FF2184809131C1807ADF002801D033
:10E3B000FEF766FE3048274900900120783108704A
:10E3C000244869467830FFF71BFA002801D0FEF791
:10E3D00057FEFEF7CDFD1C216846FCF7DAFE05204E
:10E3E000C00301900F2000040290009403216846AE
:10E3F0000173C48104742148059021480690684641
:10E40000FFF74AF9002801D0FEF73AFE002000F09D
:10E4100019FA002801D0FEF733FE0320FFF726F893
:10E42000002801D0FEF72CFE16A10020FEF7C6F84A
:10E43000184C194D194E03E0285C8100715888472B
:10E4400020780028F8D148DF0028F9D0FEF718FE20
:10E45000F6E70000682100204D61696E2053746169
:10E460007274210D0A00000078F60100DDD701006A
:10E47000414E47554D454E002DD9010005EE010096
:10E48000C5DE0100416476205374617274210D0A67
:10E4900000000000F020002010FA0100D020002031
:10E4A00070B5144682880E4605462088111D411815
:10E4B000921C994201D8FE2A01D90C2070BD521C31
:10E4C00032542088FF21401C80B2208031542088A3
:10E4D000401C80B220808119288800F0FCFF218830
:10E4E000401880B22080AA88002A09D0A968002993
:10E4F00008D08019FCF734FE2088A98840182080B5
:10E50000002070BD072070BDF3B581B00E0029D08A
:10E5100015490878002825D0FF20144C1D30002212
:10E5200022500127A760154619E00F4A10780028ED
:10E5300017D0FF211D31002060500198435D0C4829
:10E54000C36103E008480078002806D0FF211D3190
:10E55000204600F0D1FB0028F4D06D1CEDB2B5428E
:10E56000E3D3E760FEBD0000C8200020002000408B
:10E5700000250040F8B5174F3878002828D1FFF75C
:10E5800015FD174E1448154D70620024F4660720DF
:10E5900006217161F060FF201D302C501149802050
:10E5A0008860FF2009302C50FF2045302C500E4849
:10E5B00048600321022000F0D5F8FF2025302C50C0
:10E5C000FF2009302C500120387004213160286070
:10E5D000F8BD0000C82000200050270000200040A7
:10E5E000002500400023004004000200F8B50F465B
:10E5F000017814460546012902D16878002806D022
:10E600002088821C9A422DD8012902D006E00720DA
:10E61000F8BD69784118891C994223D8181A801EC0
:10E6200086B2684606802188B81C081869467DDFD6
:10E630000028EDD12878022805D169460988B14221
:10E6400001D809210AE00821012805D16878B042E3
:10E6500002D86A46108001E0684606806846008855
:10E66000FE2801D90C20F8BD2288401CB85420880F
:10E67000401C80B22080395420886946401C20808C
:10E680000988401820800020F8BDC20843075B0FAE
:10E690000120895C98400840704701218907401893
:10E6A0000068002800D001207047000000280FD02B
:10E6B0000849094A096800BF00BF00BF00BF00BF8A
:10E6C00000BF00BF00BF914200D000BF0138F2D1AF
:10E6D00070470000082100200024F40070B50E4CA3
:10E6E00000252078002801D0852513E00021A160B5
:10E6F00061602161E160094800680126304002D173
:10E70000032100F02FF800F0B3FD002801D10448E8
:10E7100086612670284670BD5024002000E100E08C
:10E720000005004038B50020694608706846FEF7CD
:10E730005BFD084C2078002801D1FFF7CFFFE0688F
:10E74000401CE0600120A07068460078FEF76AFD7A
:10E7500038BD00005024002010B5002801D1FFF77B
:10E7600005FB10BD8207D30EFF229A408907090ED0
:10E7700010B5994000280BDA03071B0F083B9C08D3
:10E780000C4BA400E318DC6994430C43DC6107E004
:10E790008408094BA400E418236893430B432360C7
:10E7A000C106C90E01208840044908600449086078
:10E7B00010BD000000ED00E000E400E080E200E0B9
:10E7C00000E100E04109074A890089180968C2068A
:10E7D000D20E01209040014201D00120704700205C
:10E7E0007047000000E100E070B5144D2879002862
:10E7F00001D0082070BD114900204039421E0B187D
:10E800002033401CC0B21A702028F8D300242046C0
:10E81000FFF780FA641CE4B2082CF8D30321062029
:10E82000FFF7A0FFFF207D3000F0D2F8012004495F
:10E83000C007486001202871002070BDA42400207A
:10E840000063004038B5124C2178002901D08520A2
:10E8500038BD002800D10F480D4902784A70407831
:10E8600088700020694608706846FEF7BDFC00F01D
:10E87000FFFC002803D100F00FF800F027F86846ED
:10E880000078FEF7CFFC01202070002038BD00008A
:10E8900048200020C8F6010010B509484178002939
:10E8A00004D008494A6801231A434A6006490A68A5
:10E8B000520852000A6081780D20FFF753FF10BD07
:10E8C0004820002000D5004000D20040054A00202A
:10E8D00003491060044A012050600860704700003E
:10E8E00000D0004000D1004000D300400249012088
:10E8F000886002490860704700D3004004D000409F
:10E9000070B552000A439900049D0A432902059EEE
:10E910000A43310405240A43240780000721001913
:10E9200009024018026070BD1CB500220B4600921F
:10E9300011460192FFF7E4FF1CBD1CB500210091B8
:10E940000B46012201911146FFF7DAFF1CBD05229B
:10E9500012078000821807200002101802680323A3
:10E960001B049A430260026809040A43026070476C
:10E97000012181400148C16070470000000500503E
:10E98000012181400148C16070470000000500502E
:10E99000012282400348002901D082607047C26092
:10E9A000704700000005005038B5084B05241B686F
:10E9B000009324026B46411805E085005D592D192E
:10E9C0002D69401C20C28142F7D838BDC4F6010031
:10E9D00002494018002101607047000000600040BB
:10E9E000034940180068012800D00020704700004B
:10E9F0000060004070B5074D04462878002802D01A
:10EA00006878844204D0FDF783FD012028706C7083
:10EA1000002070BD7820002010B50120FFF7EAFF2C
:10EA200010BD0000F0B595B0FFF76AF9002802D0DC
:10EA3000002015B0F0BD4B4844688668214631403F
:10EA4000890009180C94CD680BE02904A80D890DE4
:10EA50004018041920463040810042480C940818A0
:10EA6000C568641CA807F0D000200890A807800F94
:10EA70003D4B022807D0AA0AA805000F84460EA91C
:10EA80009646002059E02046304081003548641CFD
:10EA90000818C068049486462804800D84463440D3
:10EAA000301B8000AF0D001D874222D92D490C314B
:10EAB000002807D02B4AA400A21814460C34C2B276
:10EAC000381A03E00C460021FAB20846C0B203909F
:10EAD000019202910094A8065C69400F6346724659
:10EAE0000899A047B84213D1FF1C0498B9080C1824
:10EAF00030E01C48A200101800210C300090029158
:10EB000001970391A8065C69400F63467246E8E7E7
:10EB1000164980050D40000C05430C9830408100DB
:10EB200010480818C56017E027463740BA000D4F57
:10EB3000401CD719FF68641C80C167466045F3D349
:10EB4000A80600971D69400F0EAB72460899A847AA
:10EB5000002801D003484460FFF7D2F80121484063
:10EB600067E7000044250020442900203F00FFFF04
:10EB7000F8B5104D0E46074600206946AC68FFF711
:10EB800087F8002815D00C483C21808888437907F5
:10EB9000890E08430F21890188438105890DB00240
:10EBA000014300980246224092005219401CD16055
:10EBB0000090F8BD44250020E0F60100F7B5154CA3
:10EBC00082B00E46074601206946A568FFF760F847
:10EBD00000281CD010483C21008988437907890E01
:10EBE00008430F2189018843402108438105890D8D
:10EBF000B0020143009802462A4092001219D160E7
:10EC0000401C00902840800000190499C16005B0A4
:10EC1000F0BD000044250020E0F601000168806896
:10EC20004A68824201D2521C00E0002208688242F7
:10EC300001D101207047002070478068884201D9C7
:10EC4000481C704700207047FEB504460E46002061
:10EC50006946019008706846FEF7C6FA2046FFF73D
:10EC6000DDFF07000AD0207C002807D00420019097
:10EC700068460078FEF7D6FA0198FEBD2068416824
:10EC800020460D46FFF7D9FF2168002F486006D0C7
:10EC9000206801682046FFF7D0FF21680860E2681D
:10ECA000012A15D0022A17D0042A1AD0082A1DD00A
:10ECB00010466168684308183146FCF751FA20464F
:10ECC00000F0B0F821688A688242D1D28860CFE72C
:10ECD000616830784855F2E7616830886A00885288
:10ECE000EDE761683068AA008850E8E7626803CE03
:10ECF000EB00D21803C2E2E74058002800D0012000
:10ED000070470322120280184068084000D001209A
:10ED1000704710B5002809D0032806D10220FEF75D
:10ED2000D5FE002801D0FEF7ABF910BD00F0E2F9E6
:10ED300010BD000070B50446314D00886E8888B063
:10ED40003A2838D00DDC022839D0102813D01128E9
:10ED50001AD0132822D100231A46852130467FDF9E
:10ED600026E051282FD052281DD0552816D1A08832
:10ED7000132176DF1CE00720FEF7A8FE002801D053
:10ED8000FEF77EF9A08808E00020FEF79FFE00282D
:10ED900001D0FEF775F90020C043688008B070BD4F
:10EDA000FEF76EF9FAE700231A4619463046A9DF46
:10EDB0000028F5D1F2E7A088132176DFF8E7A088D4
:10EDC000002167DFF4E71022A11D04A8FCF7C8F9B1
:10EDD0006846017C0029E1D0007E042803D0062883
:10EDE00001D00528DAD1022908D00120694608702F
:10EDF000FF2083308880A088A8DFD9E70220F5E7CC
:10EE0000E81F002010B50078002807D104483B21F6
:10EE1000408876DF002801D0FEF732F910BD0000EF
:10EE2000E81F0020016806C98A4201D3501A7047C2
:10EE30008068401A401C8018704701225207511008
:10EE4000886B496B414388187047000070B50124F6
:10EE50000B49600408600B4940108860094940393B
:10EE60008860094D6C602F20FFF720FCAC60074DD7
:10EE700000242F20AC60FFF719FCAC7070BD0000BF
:10EE800080E100E040130140001001404C200020D0
:10EE9000F0B500240546601C01078FB0090F08A8D3
:10EEA000103108940170601C0107090F08A8103187
:10EEB00041708178F9273940891C81701C2101A893
:10EEC000FCF767F968460179102001436846017133
:10EED000029408A80494059401260794069086716C
:10EEE0000B21C9436846818431461031009401707A
:10EEF0003146103141708178F7203940891C01403A
:10EF0000EF20014031436846817014210AA8FCF7C4
:10EF100040F909A80A9068460B9006861421448699
:10EF200081862B4668880C330AAA01A9A2DF0FB09C
:10EF3000F0BD000010B50446FDF710FF00280CD00E
:10EF4000A007C00E002C0ADA2107090F083989082A
:10EF5000144A89008918C96906E0134810BDA10840
:10EF6000124A890089180968C1400806800F0428E0
:10EF700011D200280FD002280DD00D494B68E206AF
:10EF8000D20E01209040002B08D0620992008B58CD
:10EF900003438B5004E00448401C10BD0549086041
:10EFA000002010BD00ED00E00120000000E400E0C2
:10EFB0007020002000E100E0FFB50746806A81B0C4
:10EFC000144600283DD0002538462030009033E01C
:10EFD0000C20B96A68430E18B088801CFE2802D93C
:10EFE0000C2005B0F0BD22880299401C885420886E
:10EFF0001622401C80B2208002990A542088401CAE
:10F0000080B2208002994118308800F064FA21888B
:10F01000401880B22080B288002A0AD0B168002946
:10F020000FD0029BC018FCF79BF82088B1884018CD
:10F0300020806D1C0098EDB2007BA842C8D800204B
:10F04000CFE70720CDE7000070B504461248134D06
:10F05000018A2182818A61820078002818D068792B
:10F06000002815D100F0F4FA002811D028462030ED
:10F07000E06002200849207204202031C870064850
:10F0800000212030FEF7E4F8002804D1052000E03C
:10F090000320A870002070BD6822002004200020FA
:10F0A00070B5044611480426018B2182818B618250
:10F0B00000780F4D002816D06879002813D100F091
:10F0C000C7FA00280FD028462030E06002202072C6
:10F0D000064800212030C670FEF7BAF8002804D197
:10F0E0000620A87000E0AE70002070BD68220020ED
:10F0F0000420002010B50020FEF7E8FC002801D015
:10F10000FDF7BEFF3CDF002801D0FDF7B9FF10BDC1
:10F11000002803D00249C860002070470E207047C5
:10F12000802000201CB50F4901910091694660DFE5
:10F130000446009A019882420AD00B490220FFF748
:10F140003DFDFFF77AFE0099421A08A1022004E073
:10F15000002C04D0224612A10120FFF72FFD2046EB
:10F160001CBD0000E81F00201CFE01005344483A6B
:10F170005741524E494E473A52414D2073697A6584
:10F180002073686F756C642062652061646A7573B2
:10F1900074656420746F2030782578200D0A000093
:10F1A0005344483A4552524F523A73645F626C6519
:10F1B0005F656E61626C653A206572726F722030B5
:10F1C0007825780D0A00000070B50E4605461446F5
:10F1D00014211046FBF7DDFF012000212080216172
:10F1E000217326726572002D00D0A072002070BDC0
:10F1F00010B5FDF721FF10BDFFB581B0002901D08A
:10F20000880702D0072005B0F0BD164D0124A96083
:10F210006A8000206B60FFF7D5FA060001D0124823
:10F2200004600D20FFF7CEFA070003D001200E493D
:10F23000400308600D49019810DF00280AD00A49F0
:10F240008039002F02D0012252030A60002EDAD04A
:10F250000C60D8E72C70FFF765FA1620FFF76AFEFE
:10F26000D1E700008020002080E100E0F1F1010002
:10F2700001480078704700008020002010B5FEF79C
:10F2800085FE00F003F8FFF775F910BD10B5094CC5
:10F290002068FDF795FF002801D0FDF7F1FEFF2162
:10F2A000002249312068FDF747FF002801D0FDF713
:10F2B000E7FE10BD0CFA0100FEB51F4C0025A76843
:10F2C000606802906846FEF735FE0190FEF726FF63
:10F2D00006460198002822D000230098616817E0B4
:10F2E0000E680A46864202D9301A086012E0801B76
:10F2F000F31800261660D668D169B446002E07D0F0
:10F30000FE183602360A566066469660D561154686
:10F310000029E5D128466160FEF756FF06E0284641
:10F32000FEF752FF002801D1002E02D00298FEF70E
:10F3300031FD0020E070FEBD4C200020012002497C
:10F34000000508607047000000E200E010B50E4BB9
:10F350005968002906D002680C68A24204D8A21A93
:10F360000A60C161586010BD0B4604E00B46C969D4
:10F37000121B002904D00C689442F7D3A41A0C6025
:10F380000260C161D86110BD4C2000207CB50D46E3
:10F390000646002469460C706846FDF725FF01A863
:10F3A00000F0D0F800280DD0057046606846084986
:10F3B0000079487068460078FDF734FFFFF7BEFF1C
:10F3C00020467CBD684604240078FDF72BFFF7E754
:10F3D0005C200020F8B51D4D6C68002C34D01C4812
:10F3E00000274068A968401A0602360A2068B04221
:10F3F00018D8361AC7192246107CE46900280FD0A5
:10F4000000201074EB68002B07D091695069984771
:10F41000002805D0FDF734FE02E051699069884765
:10F42000002CE3D129786878814206D1401CC0B213
:10F430006870022801D10020687004490006800D20
:10F4400018310F50FFF77AFFF8BD00004C20002064
:10F450000015014070B58EB005461C216846FBF7CB
:10F4600098FE694608780C21084369460870002414
:10F470000194039404940594012608A906948E70BF
:10F480000D20C04369460884601C0007000F10303F
:10F4900007940877304610304877887FF921084074
:10F4A000F721801C0840EF210840304369468877E7
:10F4B000142109A8FBF76DFE08A8099007A80A9077
:10F4C00069468E851420CC85088668882B1D09AA7C
:10F4D000A2DF0EB070BD0870000A487002207047AD
:10F4E00038B51549154A488890420FD04A78144CCF
:10F4F000521CD2B24A70237B934208D3091D75DF98
:10F50000002803D0A169002900D0884738BD002514
:10F510004D70217C002907D03B2176DF002803D0E5
:10F52000A169002900D0884761690029EED06846AA
:10F530000570884738BD000034200020FFFF000020
:10F540003424002010B509494B788C785A1CD2B26B
:10F55000944200D100220C78944201D1002010BDC9
:10F560000270486818214B43C01810BD5C20002071
:10F57000FFB583B016460C9D0D9C1F4602220095D8
:10F580000194039800F00CF8002807D13B461022A4
:10F59000314600950194039800F002F807B0F0BDE1
:10F5A000FFB583B0074600200C9C8646268805469A
:10F5B0003AE07868A900421811886846818051882D
:10F5C000C1800022694601A865DF002839D168465C
:10F5D00001780598814226D17046002801D000228A
:10F5E00000E002222088891842180D998A4227D803
:10F5F000714600290AD1401C80B22080069A0499E5
:10F6000011542088401C20800120864621880698BD
:10F610000A18694601A865DF002812D169462088CA
:10F620000978401820806D1C3888A842C1DC7046DB
:10F6300000280AD02088801B401E80B2FF2802D9F3
:10F640000C2007B0F0BD069988550020F9E70000AE
:10F6500004480179002902D1007B002800D0012054
:10F6600070470000242000204100C0091B225043A5
:10F670004140C8B270470000010000071516171876
:10F6800011121314FC2100201C220020482200200B
:10F690001100030039DA01001200030039DA010019
:10F6A0001300030039DA01001400030039DA010005
:10F6B000142400209ECADC240EE5A9E093F3A3B530
:10F6C0000000406E0000005000030000D024002025
:10F6D000AC24002020000000010000000000000019
:10F6E00029000000010000000100000001000000EE
:10F6F0000100000001000000010000000100000006
:10F700000200000030313233343536373839414267
:10F71000434445461516170000020405000000008A
:10F720000000000041B40100E5B3010099B40100FC
:10F73000E1B3010000000000000000000000000034
:10F74000000000008CFE0100030000005C000200CD
:10F7500003000000FCFE0100030000005C0002004A
:10F760000300000048FF0100030000001C0002002D
:10F770000300000048FF0100030000003800020001
:10F780000300000028FF0100030000005C000200ED
:10F79000030000006CFF01000300000050000200A5
:10F7A00003000000F0FE0100030000006000020002
:10F7B00003000000CCFF0100030000005C00020019
:10F7C00003000000A8FF0100030000005C0002002D
:10F7D0000300000084FF0100030000005C00020041
:10F7E00003000000E4FE0100030000005C000200D2
:10F7F0000300000078FF0100030000004800020041
:10F800000300000060FE0100030000005C00020035
:10F810000300000018FF0100030000005C0002006C
:10F820000300000098FE0100030000005C000200DD
:10F830000300000060FF010005000000400002001E
:10F840001400000060FF0100050000002400020019
:10F8500014000000C0FE0100030000005C00020074
:10F8600003000000A8FE0100030000005C0002008D
:10F870000300000008FF0100030000005C0002001C
:10F8800003000000E8FF0100050000005C0002002A
:10F8900014000000DCFF010003000000680002000B
:10F8A000030000007CFE0100030000005C00020079
:10F8B0000300000010000200030000005C000200D2
:10F8C00003000000F8FF0100030000005C000200DC
:10F8D0000300000004000200030000005C000200BE
:10F8E0000300000054FF0100030000002C00020090
:10F8F000030000000C0D0F000211121301030D0F85
:10F90000140000020607080A01030B005EBCE26156
:10F910003FDD83C29C7E20A3FD1F419DC3217FFC50
:10F92000A2401E5F01E3BD3E6082DC23079FC1420F
:10F930001CFEA0E1BF5D0380DE3C62BEE0025CDF36
:10F9400081633D7C22C09E1D43A1FF4618FAA42777
:10F95000799BC584DA3866E5BB5907DB856739BA18
:10F96000E406581947A5FB7826C49A653BD9870455
:10F970005AB8E6A7F91B45C6987A24F8A6441A99FE
:10F98000C7257B3A6486D85B05E7B98CD2306EED2B
:10F99000B3510F4E10F2AC2F7193CD114FADF370E8
:10F9A0002ECC92D38D6F31B2EC0E50AFF1134DCE01
:10F9B00090722C6D33D18F0C52B0EE326C8ED053CE
:10F9C0000DEFB1F0AE4C1291CF2D73CA947628ABE7
:10F9D000F517490856B4EA6937D58B5709EBB536A0
:10F9E000688AD495CB2977F4AA4816E9B7550B88CD
:10F9F000D6346A2B7597C94A14F6A8742AC8961586
:10FA00004BA9F7B6E80A54D7896B3500F82E0020C9
:10FA100000000100020001000300010002000100DB
:10FA200004000100020001000300010002000100C7
:10FA300005000100020001000300010002000100B6
:10FA400004000100020001000300010002000100A7
:10FA50000600010002000100030001000200010095
:10FA60000400010002000100030001000200010087
:10FA70000500010002000100030001000200010076
:10FA80000400010002000100030001000200010067
:10FA90000700010002000100030001000200010054
:10FAA0000400010002000100030001000200010047
:10FAB0000500010002000100030001000200010036
:10FAC0000400010002000100030001000200010027
:10FAD0000600010002000100030001000200010015
:10FAE0000400010002000100030001000200010007
:10FAF00005000100020001000300010002000100F6
:10FB000004000100020001000300010002000100E6
:10FB1000637C777BF26B6FC53001672BFED7AB76CA
:10FB2000CA82C97DFA5947F0ADD4A2AF9CA472C075
:10FB3000B7FD9326363FF7CC34A5E5F171D83115E2
:10FB400004C723C31896059A071280E2EB27B27503
:10FB500009832C1A1B6E5AA0523BD6B329E32F847B
:10FB600053D100ED20FCB15B6ACBBE394A4C58CF73
:10FB7000D0EFAAFB434D338545F9027F503C9FA847
:10FB800051A3408F929D38F5BCB6DA2110FFF3D215
:10FB9000CD0C13EC5F974417C4A77E3D645D1973C9
:10FBA00060814FDC222A908846EEB814DE5E0BDBC3
:10FBB000E0323A0A4906245CC2D3AC629195E479FA
:10FBC000E7C8376D8DD54EA96C56F4EA657AAE0854
:10FBD000BA78252E1CA6B4C6E8DD741F4BBD8B8AEF
:10FBE000703EB5664803F60E613557B986C11D9E55
:10FBF000E1F8981169D98E949B1E87E9CE5528DFCC
:10FC00008CA1890DBFE6426841992D0FB054BB16F7
:10FC100052096AD53036A538BF40A39E81F3D7FB81
:10FC20007CE339829B2FFF87348E4344C4DEE9CBCB
:10FC3000547B9432A6C2233DEE4C950B42FAC34E40
:10FC4000082EA16628D924B2765BA2496D8BD125F6
:10FC500072F8F66486689816D4A45CCC5D65B6929A
:10FC60006C704850FDEDB9DA5E154657A78D9D843E
:10FC700090D8AB008CBCD30AF7E45805B8B345065E
:10FC8000D02C1E8FCA3F0F02C1AFBD0301138A6B78
:10FC90003A9111414F67DCEA97F2CFCEF0B4E673A8
:10FCA00096AC7422E7AD3585E2F937E81C75DF6E56
:10FCB00047F11A711D29C5896FB7620EAA18BE1BBC
:10FCC000FC563E4BC6D279209ADBC0FE78CD5AF462
:10FCD0001FDDA8338807C731B11210592780EC5FA8
:10FCE00060517FA919B54A0D2DE57A9F93C99CEF04
:10FCF000A0E03B4DAE2AF5B0C8EBBB3C8353996105
:10FD0000172B047EBA77D626E169146355210C7D42
:10FD10008D01020408102040801B366CD8AB4D9A30
:10FD20002F5EBC63C697356AD4B37DFAEFC59139AF
:10FD300072E4D3BD61C29F254A943366CC831D3AD9
:10FD400074E8CB8D01020408102040801B366CD86B
:10FD5000AB4D9A2F5EBC63C697356AD4B37DFAEF7C
:10FD6000C5913972E4D3BD61C29F254A943366CCF4
:10FD7000831D3A74E8CB8D01020408102040801BDB
:10FD8000366CD8AB4D9A2F5EBC63C697356AD4B338
:10FD90007DFAEFC5913972E4D3BD61C29F254A94C3
:10FDA0003366CC831D3A74E8CB8D01020408102021
:10FDB00040801B366CD8AB4D9A2F5EBC63C697351E
:10FDC0006AD4B37DFAEFC5913972E4D3BD61C29FA5
:10FDD000254A943366CC831D3A74E8CB8D01020426
:10FDE00008102040801B366CD8AB4D9A2F5EBC6348
:10FDF000C697356AD4B37DFAEFC5913972E4D3BDA5
:10FE000061C29F254A943366CC831D3A74E8CB00C7
:10FE10004F766572666C6F770D0A00005344483A5E
:10FE20005741524E494E473A73645F626C655F6555
:10FE30006E61626C653A2052414D20737461727438
:10FE40002073686F756C642062652061646A7573E5
:10FE500074656420746F20307825780D0A000000E6
:10FE600041542B434744434F4E543D312C2249507B
:10FE7000222C2263746E6574220D0A0041542B4EAD
:10FE80004D47533D33372C30300D0A0041542B433E
:10FE900046554E3D300D0A0041542B4347415454C2
:10FEA0003D300D0A0000000041542B434544525898
:10FEB000533D302C352C303130310D0A000000001C
:10FEC00041542B4350534D533D312C2C2C30313069
:10FED00030303031312C30313030303031310D0A6A
:10FEE0000000000041542B434D45453D310D0A00B3
:10FEF00041542B4347534E3D310D0A0041542B438F
:10FF000046554E3D310D0A0041542B4E50534D5233
:10FF10003D310D0A0000000041542B434741545429
:10FF20003D310D0A0000000041542B4E4344503D2A
:10FF30003138302E3130312E3134372E3131352CAD
:10FF4000353638330D0A000041542B4346554E3F99
:10FF50000D0A000041542B4E50534D523F0D0A00E4
:10FF600041542B43474154543F0D0A0041542B4EFA
:10FF700052420D0A0000000041542B4E43434944B5
:10FF80000D0A000041542B4E434F4E4649473D4316
:10FF9000454C4C5F524553454C454354494F4E2CBC
:10FFA00046414C53450D0A0041542B4E434F4E469B
:10FFB00049473D43454C4C5F524553454C4543549E
:10FFC000494F4E2C545255450D0A000041542B4EBA
:10FFD000435345415246434E0D0A000041542B43C2
:10FFE00053510D0A0000000041542B434750414437
:10FFF00044520D0A0000000041542B4E4D47520D53
:020000040002F8
:100000000A00000041542B4E514D47520D0A00008A
:1000100041542B4E514D47530D0A00004346554E57
:100020003A30000043474154543A30004E50534D4B
:10003000523A312C310000004346554E3A3100000F
:1000400043474154543A3100434349443A00000085
:100050005245424F4F54494E470000004F4B00005D
:100060004347534E000000002B4353510000000053
:1000700090000200E81F0020240100003CCD010098
:10008000B40102000C210020DC1700004CCD01005F
:100090000000FFFF10190100000000000000000038
:1000A0000000000000000000000000000000000050
:1000B0000000000000000000000000000000000040
:1000C000000000000000000000000000D423002019
:1000D00000000000F42300200000000000000000E9
:1000E0000000000000000000000000000000000010
:1000F0000000000000000000000000000000000000
:1001000000000000000000000000000000000000EF
:1001100000000000000000000000000000000000DF
:100120000000000010FE01000000000000000000C0
:1001300000000000000000000000000000000000BF
:1001400000000000000000000000000000000000AF
:10015000000000000000987623E8A923A1BB3D9E83
:100160007D037812458800000000000000000000B8
:10017000000000000000000069C701003DBA010056
:10018000ADC101005DC1010085C101008DB8010054
:1001900091B9010019C20100000000000000000038
:1001A000000000000000000000000000000000004F
:0401B0000024F40033
:040000050001B0C185
:00000001FF
