:020000040001F9
:10B0000040390020D5B00100EFB00100F1B00100DF
:10B010000000000000000000000000000000000030
:10B02000000000000000000000000000F3B001007C
:10B030000000000000000000F5B00100F7B00100C2
:10B04000FDC70100F9B0010095D00100F9B0010081
:10B05000F9B001000000000011C00100F9B00100CA
:10B06000F9B00100F9B00100F9B00100F9B0010038
:10B07000F9B0010099CC0100F9B00100F9B001006C
:10B08000F9B00100F9CC0100F9B00100F9B00100FC
:10B0900099CF0100F9B00100A1CF0100F9B0010082
:10B0A000F9B00100F9B0010000000000000000004C
:10B0B0000000000000000000000000000000000090
:10B0C0000348854600F094F800480047B9EC0100B9
:10B0D000403900200321094802680A4302600848F9
:10B0E00002680A4302600748804707480047FEE7B6
:10B0F000FEE7FEE7FEE7FEE7FEE70000240500406E
:10B1000054050040F5CF0100C1B0010030B50B4639
:10B11000014600202022012409E00D46D5409D4231
:10B1200005D31D469540491B2546954040191546B7
:10B13000521E002DF1DC30BD70B5002425460028DC
:10B1400001DA01244042002901DA01254942FFF7D2
:10B15000DDFFAC4200D04042002C00D0494270BD1F
:10B1600003460B439B0703D009E008C9121F08C020
:10B17000042AFAD203E00B780370401C491C521ECB
:10B18000F9D27047D2B201E00270401C491EFBD2D6
:10B1900070470022F6E710B513460A4604461946E2
:10B1A000FFF7F0FF204610BD30B505462A460B4696
:10B1B00010781C78521C5B1C002801D0A042F7D0EC
:10B1C000002C03D0002802D06D1CEFE7284630BDCC
:10B1D000421C0178401C0029FBD1801A70470346AD
:10B1E0000A780270401C491C002AF9D118467047A1
:10B1F000064C0125064E05E0E36807CC2B430C3CCA
:10B2000098471034B442F7D3FFF75EFF440C0200B6
:10B21000640C020070B58C180578401C6B075B0F3E
:10B2200001D10378401C2A1106D10278401C03E0AA
:10B2300006780E70401C491C5B1EF9D12B0705D403
:10B240000023521E0DD40B70491CFAE70378401CF2
:10B25000CB1A921C03E01D780D70491C5B1C521E1A
:10B26000F9D5A142D8D3002070BD0000FFB581B050
:10B27000044603981D4606070F46360F204600F089
:10B2800095FD1948002D046002D0456001F0BCF91D
:10B290000A98002801D01449886000250FE039463B
:10B2A000204600F083FD1048046000F06DFF20464A
:10B2B00002F03CF80C4810341035876010370398C2
:10B2C0008542ECD3002E0CD03946204600F06EFDAE
:10B2D0001020811BA019FFF75CFF0348046000F0F9
:10B2E00053FF05B0F0BD000024210020F8B52B4C21
:10B2F0000746E27F2AA100F047FE254600262035BA
:10B30000002805D02848042201781143017032E05A
:10B310002249E27F5D39384600F036FE1F4CE03CA2
:10B320000028607D33D0022805D0032803D00F28E1
:10B3300001D010280AD114221CA1384600F024FEA6
:10B3400000280BD01AA1002001F03CFD607D0628EA
:10B3500006D00B2804D0152802D00CE01BA10EE06B
:10B36000412212A1384600F00FFE002806D01FA18E
:10B37000002001F027FD6E700420F8BD22A10020FE
:10B3800001F020FD3946002001F01CFD01E00F28EE
:10B3900001D00220F8BD0020F8BD00002C2E0020B6
:10B3A0004C69657264610000B42000204F4B0000BE
:10B3B00061742B6366756E3F2F61742B63676174D4
:10B3C000743F206F6B20210D0A00000061742B6315
:10B3D00066756E3F2F61742B63676174743F2065DF
:10B3E00072726F7220210D0A0000000061742B63DD
:10B3F00067736E3D312F61742B6E63636964206FD8
:10B400006B20210D0A00000061742B6367736E3D91
:10B41000312F61742B6E63636964206572726F7281
:10B4200020210D0A0000000010B51049097C0029F8
:10B430000CD0012808D108460D4C00F0BDFD217A42
:10B440000122824011432172032010BD0848017A75
:10B45000002906D00021017206A1002001F0B2FCF3
:10B4600001E006210170002010BD00004C2D0020DD
:10B470000C2C00204576656E74206973204572722D
:10B480006F72200D0A000000F0B500259BB0064643
:10B4900068462C4605702746642101A8FFF779FE0F
:10B4A000002E2ED169460C7110224A7116490126D0
:10B4B0008A7869468A71CC710C724C728C72134A0C
:10B4C00001A807215319FF3321339B784354491CAA
:10B4D0006D1CEDB2C9B2142DF4D34654491CC9B247
:10B4E0004454491CC9B24654491CC9B24654521965
:10B4F0000021FF324132D2784254891CC9B2062958
:10B50000FAD338461BB0F0BD4C2D00200C2C002087
:10B51000F8B504464578407A012832D0207A0428CC
:10B5200030D003282ED01848867DF0212046FFF722
:10B5300030FE01206072657000202072134FA670EB
:10B540002D01EE19307BE070B0887D21C9004843A1
:10B55000606020460A3000907959FFF740FE785924
:10B56000FFF736FE25466035A87320466F30B16878
:10B57000FFF735FEA97B009803F0AEFCA078401CD5
:10B58000A070F8BD0026D0E74C2D00201803020063
:10B59000F8B5364CA17803290ED2354A354E515CA8
:10B5A000337F354A01270025042B06D0032B53D0C7
:10B5B0000720207037757175F8BD152902D016293E
:10B5C00034D122E02DA1FFF7EFFD07462DA1002089
:10B5D00001F0F8FB002F29D0B57000203918497907
:10B5E00030390A2903D2401CC0B22028F6D33818BB
:10B5F000417928460A22504330380818C2B2B27046
:10B6000023A1002001F0DEFB10E01848617AC37A24
:10B6100001209840032902D1317C81433174217A81
:10B62000814314482172157080380583A078401C2E
:10B63000C0B2A07003280CD30020FFF7F5FE00284D
:10B6400003D005202070A570F8BD0620207025735A
:10B65000F9E705202070F8BD162904D105202070D7
:10B660001078401C1070A5702573F8BD0C2C0020BC
:10B67000E80202004C2D0020942000202B4353515F
:10B680003A000000636D64206373710D0A000000CE
:10B69000637371203D2025752E0D0A00F8B5154CF9
:10B6A000A1780E290FD214480026425C1348037F6C
:10B6B0000546803D042B07D00127032B12D007211C
:10B6C000217007754275F8BD491CC8B2A0700E28DC
:10B6D00005D306202070A67002202877F8BD03202D
:10B6E0002070F8BD06A1002001F06CFB2770A67049
:10B6F000AE76F8BD0C2C0020C80402004C2D0020B2
:10B70000436F6E6E6563742052657365740D0A0035
:10B71000F8B5144CA17805290FD213480025425CD6
:10B720001248037F0646803E042B07D00127032BD7
:10B730000FD00721217042750775F8BD491CC8B2AA
:10B74000A070052802D30420207007E0022020709A
:10B75000F8BD07A1002001F035FB2770A570B57674
:10B76000F8BD00000C2C0020EB0202004C2D002044
:10B77000496E69742052657365740D0A00000000FB
:10B78000F8B5464DA9780A290DD2454A0026525CE3
:10B7900044490B7F042B07D00124032B73D00720CF
:10B7A00028704A750C75F8BD062A02D00B2A5CD1A8
:10B7B0002AE03DA1FFF7F8FC07463DA1002001F07B
:10B7C00001FB002F51D0002438194079014630394F
:10B7D0000A2905D331391A2902D341381A2804D24B
:10B7E000641CE4B2102CEFD303E0102C01D2381902
:10B7F00046712C48791D2E3822460746FFF7B0FCCB
:10B800003B4622462DA129E032A1FFF7CDFC074699
:10B8100032A1002001F0D6FA002F26D000243819DA
:10B820008079014630390A2905D331391A2902D3E2
:10B8300041381A2804D2641CE4B2202CEFD303E070
:10B84000202C01D2381986711648B91D1E3822469F
:10B850000746FFF785FC3B46224623A1002001F066
:10B86000B1FA0021062001F0ABFBA878401CC0B261
:10B87000A8700A2804D303202870AE70F8BD02E037
:10B8800004202870FAE71EA1002001F09BFA054869
:10B890002C70AE7080388676F0E700000C2C00200B
:10B8A000D60402004C2D00204347534E3A000000BE
:10B8B000636D64206367736E0D0A00006C656E2013
:10B8C0003D2025752C20696D65693A25732E200D64
:10B8D0000A0000004E434349443A0000636D64206F
:10B8E0006E636369640D0A006C656E203D202575EA
:10B8F0002C206E636369643A25732E200D0A0000C4
:10B900004D6573732052657365740D0A0000000065
:10B91000F8B5154E00243460144D2846E0306C779D
:10B92000827FC27707468477014620373C701048F3
:10B9300046390090FFF714FC042030600098FFF7B0
:10B94000D5FC287702280DD0787800280AD0012865
:10B9500007D10221052001F033FB06A1002001F0F0
:10B9600031FA2C77F8BD0000002500404C2D002056
:10B97000192C00205354415254204445434F444510
:10B980000D0A0000F8B5B24DB2482C462A78A188BD
:10B99000007800902646A078FF340127C036413455
:10B9A000130001F052FE082764A1C0C6EBFE05FD9E
:10B9B000207F00287ED0022801D0012805D1A07D5B
:10B9C000E17D884201D30320207768788100A24876
:10B9D0004158002902D09E480D308847207F042816
:10B9E00001D0032801D1072068709C490020886598
:10B9F00060771FE100295DD100280DD001281AD001
:10BA0000022827D096A1002001F0DCF90020B076B2
:10BA10006870022129700CE196480821C1608901F3
:10BA2000C16095A1002001F0CDF9A878401CA87054
:10BA30004B200001A0E08F490820886096A10020DB
:10BA400001F0C0F9A878401CA8706420A88097482D
:10BA50000770EFE0012087494002886094A1002030
:10BA600001F0B0F9A878401CA870964884E000293D
:10BA700020D1002825D001282ED00020B0766F706C
:10BA80002870A870B075217C3943217428723077F2
:10BA9000A072E072A0811E21E1818B494A78521C7C
:10BAA000D2B24A70032AA4D3487000980822694988
:10BAB000104300E09CE0087084A1002001F082F9AE
:10BAC000B8E001206B494002C860AF70C820A88070
:10BAD000764900200870ADE0012066494002886088
:10BAE0000220A870322047E0002902D000994907BF
:10BAF0007ED5002815D07AA1002001F063F900203E
:10BB0000A8805448FB2201781140017028786870A1
:10BB10000720287027755049A878491F085C607570
:10BB20008BE075A121E06A7007212970277578499B
:10BB3000F4E7002902D00099490763D5002813D003
:10BB400074A1002001F03EF90020A8804148FB22AA
:10BB500001781140017028786870072028706C49BE
:10BB60002775A8780E31D9E770A1002001F02AF9D5
:10BB7000A878401CA8707348A8805BE00120FFF7FC
:10BB800053FC6872002855D0297A002952D0A97830
:10BB9000002900D12F73304A083A515C162901E080
:10BBA00052E030E01AD1032818D1207C00F004FACA
:10BBB00027490022E87271310092002802D0012842
:10BBC0000AD105E00020FFF75FFC5FA1009000E0D4
:10BBD00062A1002001F0F6F800987075A07A0328A1
:10BBE00002D3A87800280BD028786870072000E0DE
:10BBF00008E0287027751848A9780838405C8EE757
:10BC00006F702F70F8BD0020FFF70EFC002802D0E7
:10BC1000A87A3843A872A87A00280BD000F0CCF993
:10BC2000411D2970A97A8740B943A972062068701E
:10BC30000020A870207D0128E4D10020207507484D
:10BC40005430FFF765FCF8BD02202870F0E70000D3
:10BC50000C2C0020B4200020F00202000C2D00204B
:10BC60006E65787420737461746520696E697420E0
:10BC7000210D0A0000050050636C656172206E6240
:10BC800020706F7765726F6E20616E6420726573CD
:10BC9000657420210D0A0000736574206E622070A7
:10BCA0006F7765726F6E20210D0A0000E220002080
:10BCB000736574206E6220726573657420210D0AAD
:10BCC00000000000581B000094200020436C6F739C
:10BCD000652053746174652050726F630D0A000013
:10BCE000696E6974206E622068617320737461727A
:10BCF0007420210D0A000000696E69742077616963
:10BD000074206E6220737461727420210D0A000029
:10BD1000C80402006D657373206E62206861732031
:10BD2000737461727420210D0A0000006D657373D5
:10BD30002077616974206E622073746172742021AF
:10BD40000D0A0000204E0000696E6974206D657355
:10BD5000732075706C6F61640D0A00006C6F672052
:10BD60006D6573732075706C6F61640D0A0000005F
:10BD7000F0B50C4A002112680B4B944684006218FF
:10BD8000002095008A0062442F18165CDF5D7E401B
:10BD90001654401CC0B20428F6D3491CC9B2042969
:10BDA000EDD3F0BD242100209030002000228B5CD8
:10BDB0008354521CD2B2102AF9D37047F8B5064604
:10BDC00000242F4F58E02F490D5C002D06D0012D87
:10BDD00012D0022D1ED0032D48D141E02A4801780F
:10BDE0002A4801F00BFA012803D10121042001F0B7
:10BDF000E7F82548047039E02548C17A25480C3118
:10BE0000006800F0AFF801462148007C81422DD146
:10BE1000022121E0204800901D481F4BC27AC068D3
:10BE20000146FFF723FA1D4804701948C368C17A18
:10BE300058182038C07F814205D9002803D0144A01
:10BE4000081AD07201E01248C47211480322C07A65
:10BE5000194602F023F80321042001F0B1F805E0AF
:10BE60000B48C27A417AC06800F0F2FC294630469D
:10BE700002F022FC012802D0B85D0028A3D1F8BD51
:10BE800019210020E4050200E0200020902F00206E
:10BE90007C2F00209C200020D02000209920002012
:10BEA00010B50E490A78002A0FD0012A10D0022AB4
:10BEB0000AD14A78002A03D000228B1C1A804A70CB
:10BEC0000422C82100F0F8FB10BD02F0C9FA10BD31
:10BED00001224A7000227D21C900F3E7E220002000
:10BEE00070B5104C0546207800280ED001280FD0E0
:10BEF000022809D100F07EFBE1210022C90028467A
:10BF000000F034FC0220607070BD01F06BF870BD71
:10BF100000F074F87D2100220901284600F026FC7B
:10BF20000120F0E7F0200020F8B505460B4F0C4E3D
:10BF300010E03C5C230001F088FB02020507FFF7DC
:10BF4000E7FC01E0FFF71EFD2146284602F0B4FBA6
:10BF5000012802D0705D0028EBD1F8BDE405020095
:10BF60001921002010B50022064C03E0037853404D
:10BF7000E25C401C0B46491E89B2002BF6D11046EC
:10BF800010BD0000E004020070B500240B460578E7
:10BF90001E78B54205D15D785B1C002D02D10120D1
:10BFA00070BD0B464578401C002D03D0641CA4B224
:10BFB0009442ECD3002070BD0146002001231A46B4
:10BFC00082400A4204D1401CC0B20828F7D3FF20A7
:10BFD0007047000070B50446064E074D05E0315C21
:10BFE000204602F069FB012802D0285D0028F6D126
:10BFF00070BD0000E40502001921002010B50349BE
:10C0000010208860052003F0D1F910BD0005005014
:10C01000F0B50024FF268BB0013601252746069493
:10C02000304603F0F3F9002807D05448406828420E
:10C0300003D0304603F0E2F92C43361D6D007F1C1F
:10C04000B6B2042FECD3FF257D35284603F0DEF988
:10C05000002809D0284603F0D1F96807044306AA4E
:10C060000121002003F0B6F9454D200714D0012727
:10C07000002627420CD04348B2001118086909690C
:10C08000C004C00E8903AA58890F002A00D0904727
:10C090007F00761C042EECD3002C6DDA0020089073
:10C0A000401E63E0281940300778B906890E0091D8
:10C0B00000214156491C49D009A9009802F0CDFF42
:10C0C000002843D0B8090190009802F0EDFA8000F2
:10C0D0002F580198002F02D0032802D00DE003282A
:10C0E00034D1009808ABC20841079446985C490FC8
:10C0F00001228A401043624698540098052109079E
:10C1000080004018072109024018006806A9800332
:10C11000800F0290009802F0A0FF0028029802D041
:10C12000022802D012E0032810D10198032808D178
:10C13000029802281ED00221009803F01EF9761CF6
:10C14000F6B2002F02D001990098B847641C042C65
:10C15000A8D3002E10D06A460121002003F03AF93E
:10C1600006990098884207D0069008980026344621
:10C17000099097E70321DFE70BB0F0BD00630040B3
:10C180008C2400200065004010B50A20FFF7F0FD68
:10C19000092400F0F9F900F015FA2046FFF7E8FD50
:10C1A00000F00CF8641E2406240EF2D100F0ECF925
:10C1B00000F008FA0020FFF7DBFD10BDF0B585B0F8
:10C1C000002003908400EF480068065D2018417845
:10C1D000029181780191C0780090304604F02EF8E9
:10C1E00004F02CF804F02AF804F028F8009804F081
:10C1F00025F8019804F022F8029804F01FF804F0E2
:10C200001DF8029804F01AF804F018F804F016F873
:10C2100004F014F8009804F011F804F00FF804F09A
:10C220000DF804F00BF8009804F008F804F006F894
:10C23000019804F003F804F001F803F0FFFF03F0A5
:10C24000FDFF304603F0FAFF0546304603F0F6FFE7
:10C2500003F0F4FF4540304603F0F0FF03F0EEFF3B
:10C2600003F0ECFF4540029803F0E8FF029907460F
:10C270004F40084603F0E2FF03F0E0FF03F0DEFF6B
:10C2800047407D40019803F0D9FF03F0D7FF0199A3
:10C2900007464F40084603F0D1FF03F0CFFF03F0FD
:10C2A000CDFF47407D40009803F0C8FF03F0C6FF74
:10C2B00003F0C4FF014600984140B2484D40006879
:10C2C0000555304603F0BAFF009803F0B7FF019818
:10C2D00003F0B4FF03F0B2FF029803F0AFFF03F0E6
:10C2E000ADFF03F0ABFF03F0A9FF304603F0A6FF5C
:10C2F00003F0A4FF03F0A2FF03F0A0FF304603F019
:10C300009DFF03F09BFF009803F098FF03F096FF5A
:10C3100003F094FF03F092FF019803F08FFF03F006
:10C320008DFF03F08BFF03F089FF304603F086FF9B
:10C3300003F084FF03F082FF05467540029803F086
:10C340007DFF0746029803F079FF03F077FF47402F
:10C35000029803F073FF03F071FF03F06FFF474093
:10C360007D40019803F06AFF019907464F40084657
:10C3700003F064FF03F062FF03F060FF47407D407D
:10C38000009803F05BFF03F059FF07460098474011
:10C3900003F054FF03F052FF03F050FF4740794889
:10C3A0007D40006820184570304603F047FF009834
:10C3B00003F044FF03F042FF019803F03FFF03F056
:10C3C0003DFF03F03BFF03F039FF029803F036FF17
:10C3D000304603F033FF03F031FF03F02FFF03F08B
:10C3E0002DFF009803F02AFF03F028FF03F026FF3B
:10C3F00003F024FF029803F021FF03F01FFF03F076
:10C400001DFF03F01BFF029803F018FF03F016FF57
:10C41000304603F013FF03F011FF05467540304628
:10C4200003F00CFF03F00AFF03F008FF45400298F9
:10C4300003F004FF03F002FF03F000FF02994840FD
:10C440004540019803F0FAFE0746019803F0F6FE16
:10C4500003F0F4FE4740019803F0F0FE03F0EEFE17
:10C4600003F0ECFE47407D40009803F0E7FE0746EE
:10C470000098474003F0E2FE03F0E0FE03F0DEFE2A
:10C48000474040487D40006820188570304603F0E2
:10C49000D5FE03F0D3FE009803F0D0FE03F0CEFEED
:10C4A00003F0CCFE03F0CAFE019803F0C7FE029829
:10C4B00003F0C4FE304603F0C1FE03F0BFFE03F0FC
:10C4C000BDFE03F0BBFE019803F0B8FE03F0B6FE1C
:10C4D00003F0B4FE03F0B2FE019803F0AFFE03F0E8
:10C4E000ADFE029803F0AAFE03F0A8FE03F0A6FE3C
:10C4F00003F0A4FE304603F0A1FE05467540304629
:10C5000003F09CFE03F09AFE03F098FE454002986B
:10C5100003F094FE03F092FE029906464E40084650
:10C5200003F08CFE03F08AFE03F088FE464075405F
:10C53000019803F083FE03F081FE03F07FFE019972
:10C5400048404540009803F079FE0646009803F005
:10C5500075FE03F073FE4640009803F06FFE03F093
:10C560006DFE03F06BFE46400648754000682018DB
:10C57000C5700398401C0390042800DA22E605B039
:10C58000F0BD0000242100200D480068417B427A64
:10C590004273427942724278427141708178827A64
:10C5A000827081728179827B82718173C178C27954
:10C5B000C270C27AC271C27BC272C173704700007E
:10C5C0002421002030B50949094A0C6800200021C7
:10C5D0008B001B191D5C491C555DC9B21D540429F3
:10C5E000F6D3401CC0B20428F1D330BD2421002072
:10C5F000E407020010B5042002F0D8FE0149202013
:10C60000886010BD00050050F8B52749274B4A68DF
:10C6100000208100545C5C548C18C91865784D70FA
:10C62000A5788D70E478401CCC700428F1D337E0F5
:10C63000002182006D46141F66189E5D6E54491CD1
:10C640000429F9D3810715D12F46BE782978FF78C0
:10C65000174C6D78BC46655DA65D6F467E7067467B
:10C66000E65D6F46BE70615CF970124C8108615CDA
:10C670004D403D70D4182546203D6E46297C3678C5
:10C68000714099546E46697C727851406170AA7C01
:10C69000B1784A40A270EA7CF1784A40E270401CCE
:10C6A0002C28C5D3F8BD00002421002090300020A4
:10C6B000E4060200E408020070B5154652060C4C70
:10C6C000160E2288101880B2208088420ED301F006
:10C6D000CFFE00202080002D08D0A178491CC9B2CF
:10C6E000A170B14202D3A070A11E087070BD0000FD
:10C6F000E420002070B50446064E074D05E0315C8D
:10C70000204601F0D9FF012802D0285D0028F6D18B
:10C7100070BD0000E40502001921002070B5044638
:10C72000064E074D05E0315C204601F0C5FF0128AB
:10C7300002D0285D0028F6D170BD0000E40502009B
:10C740001921002070B50446064E074D05E0315C06
:10C75000204601F0B1FF012802D0285D0028F6D163
:10C7600070BD0000E40502001921002010B5074C3F
:10C770002288101880B22080884205D300F032FC55
:10C780000020A11E0870208010BD0000F2200020B3
:10C790008307FF22DB0E9A408907090E9940002883
:10C7A0000BDA0007000F0838830808489B001818A8
:10C7B000C36993430B43C3617047830804489B00DC
:10C7C0001B181868904308431860704700ED00E09C
:10C7D00000E400E070B50446064E074D05E0315C0C
:10C7E000204601F069FF012802D0285D0028F6D11B
:10C7F00070BD0000E405020019210020F8B5FF20FB
:10C80000013002F032FC002401250E4E0E4F0028AC
:10C8100007D00E4804600120B0607D70002001F058
:10C8200061FFFF20053002F020FC002808D00748F7
:10C83000001D04600220B060BD70012001F052FFB5
:10C84000F8BD0000000300407824002000010040F3
:10C85000F7B588B0064601A80230069068460490F5
:10C86000A548002440881746C11FF93905D0A3A167
:10C87000002000F0A7FA07210DE0002F11D0A748F3
:10C880004079A5280FD00998A0280CD0A4A1002099
:10C8900000F098FA0421099800F00AFD20460BB038
:10C8A000F0BDA6A1F3E7ACA10020099A00F08AFA36
:10C8B0000998AD4C0025A72845D008DC012810D0E8
:10C8C000022811D0A02813D0A62808D13BE0A82820
:10C8D0003BD0A92878D0AA286FD0AB286ED00421ED
:10C8E0000FE00823A1A201E00F23A2A20021FDE096
:10C8F000A4A1002000F066FA3078012804D00421B9
:10C90000CDE000F0D5FCF3E0844E7079A528FAD094
:10C9100025701021A04802F0A7FC601C10229E493F
:10C92000FEF71EFC11240021062000F049FB2246E0
:10C930009AA1002000F046FA2146099800F058F923
:10C94000A5207071D4E00721DBE799A1002000F059
:10C9500039FA092FD3D108229949304600F03AFC20
:10C960000028D0DD082231469548FEF7F9FB00216A
:10C97000062000F025FB6949257009796170694638
:10C980000D7590492046098801270224012901D804
:10C9900069460F756946097D81700321099800F089
:10C9A00027F9317A1022884B8848A12902D0A22980
:10C9B00005D09DE01C7003E006E035E05DE01F70EF
:10C9C00001781143017093E081A1002000F0FAF991
:10C9D000042F94D13078717800020843B1780002B6
:10C9E0000843F178000208437E49884287D34942D0
:10C9F0004118069802F04CFF684680897D210901A4
:10CA0000411A68460170817A491C4170417A491C7B
:10CA10008170017AC170C179017181794171694870
:10CA20007149018000213AE0049800F0C5FB01281B
:10CA30000AD006202070601C0D21FEF7AAFB0E21F3
:10CA4000099800F0D5F853E025700499601C08227D
:10CA50000831FEF785FB6348019908180190000E24
:10CA600060720198000CA0720198000AE0720198AF
:10CA70002073684640786073E1E7012FA9D13078D0
:10CA8000AB28A6D100F08EFB002807D000F08AFB6F
:10CA900005A900F0F5FB002803D029E0052109983D
:10CAA0002FE7684605704570007D410602D50121DB
:10CAB0006A465170810605D56A46517802221143B3
:10CAC0006A465170C10605D56A4651780422114361
:10CAD0006A465170000705D5694648780821084321
:10CAE0006946487002236A460021099800F0EAFB73
:10CAF0003E4928464D70D2E67C2F002050524F54BC
:10CB00004F434F4C5F4150505F4552525F56455224
:10CB100053494F4E5F31210D0A000000AC20002028
:10CB200050524F544F434F4C5F4150505F4552520B
:10CB30005F504152414D5F33210D0A0050524F5416
:10CB40004F434F4C5F4150505F4552525F504152EE
:10CB5000414D5F32210D0A00636F6D6D616E64207F
:10CB60003D2025640D0A00005C2E00204856312E21
:10CB7000302E33005356312E312E302D313830388F
:10CB800030360000636D6420676574206165736BE7
:10CB90006579210D0A000000C020002073656E64D5
:10CBA0004C656E677468203D202564210D0A0000E5
:10CBB000636D6420737769746368210D0A00000057
:10CBC000B8200020A0200020F0200020B420002069
:10CBD000636D642061646A7573742074696D652186
:10CBE0000D0A000000D36C3860EA00009820002095
:10CBF00070B5204CF0222270A5230122637000261C
:10CC0000A270E67022716271A671E67126721A4AEC
:10CC10006072927A0B25A272AA2801D0A22801D1B3
:10CC200000290DD1E1720C310D462046FFF79AF92B
:10CC30006055691C162060540D20A91C6054ED1C21
:10CC40002A460EA1002000F0BDF8E8B204222146D9
:10CC500001F024F92946204601F03CFB0B480178FD
:10CC6000002905D00670102209490A48FEF778FA13
:10CC700070BD0000502E00207C2F0020706F737458
:10CC8000696F6E203D202564210D0A009820002048
:10CC9000C0200020D02000201CB50024684604706D
:10CCA00000F036FF03F0CEF8002818D10E480168D6
:10CCB000002914D00D498968C907C90F0FD0046035
:10CCC0000B4880686946087101A90A4802F0D2FC45
:10CCD000084802F0B9FC002801D002F01DFB6846AC
:10CCE000007800F033FF1CBD00D1004000D30040AD
:10CCF00000D50040A002020010B5064900200860DF
:10CD000048608860C860034940390860486003F0A3
:10CD10004BF910BD4011014010B5034800780028C0
:10CD200001D100F013FB10BD942B0020F8B506468E
:10CD30000C48144600780D46002801D100F006FB8F
:10CD4000002368460093037000F0E2FE2246294665
:10CD5000304600F009F804466846007800F0F6FE18
:10CD60002046F8BD942B002070B50E46182148438C
:10CD7000134914464518E86A1835002804D00128DC
:10CD80000FD0022805D113E0284600F015FBA04281
:10CD900001D2002411E022463146284600F037FC3B
:10CDA0000BE0284600F008FBA042F4D20446F2E76C
:10CDB0003146284600F0FBFB0446204670BD0000CB
:10CDC000942B00200FB408B504A900916A4603997A
:10CDD00000F004F801B008BC04B01847F7B598B0EB
:10CDE00007A80290402000250495039018980C464F
:10CDF000059506902178641C002977D0252907D055
:10CE000002A800F0B5FB05980028F3DA1BB0F0BDCE
:10CE100001220021022713460826207823281BD050
:10CE20002B2816D02D2802D0302806D101E0194336
:10CE300000E03943641C002AEFD100222078034629
:10CE4000303B0A2B0AD20A235A431218303A641C88
:10CE5000F4E704200143EDE73143EBE70023C7B2D9
:10CE60002E2F0AD1641C20780746303F0A2F04D2A7
:10CE70000A277B431B18303BF4E76C280DD0682849
:10CE80000BD0702852D00BDC25285AD058282ED031
:10CE900063280CD0642858D110E02078641CECE79B
:10CEA000732832D0752817D078284ED11FE01A98F1
:10CEB0001A9A0068011D1160017843E01A981A9FC0
:10CEC0000068061D3E6000680191009201460A223A
:10CED00002A800F07CFA38E01A981A9F0068061D34
:10CEE0003E600068009201910A2209E02FE01A9842
:10CEF0001A9F0068061D3E60006800920191102292
:10CF0000014602A800F0C8FA1FE01A981A9A0068B1
:10CF1000011D116006683178761C002915D002A821
:10CF200000F026FB05980028F5DA0EE01A981A9A08
:10CF300000680823011D1160016810220096019508
:10CF4000DFE7252102A800F013FB641C5BE70598CE
:10CF5000002800DC5AE70498002804D0024607A9FC
:10CF60001898FFF7E3FE04990598401805904DE7DF
:10CF700070B50446064E074D05E0315C204601F0D1
:10CF80009BFB012802D0285D0028F6D170BD00006F
:10CF9000E40502001921002010B502F077FF10BD52
:10CFA00010B506484068002805D08047002801D009
:10CFB00000F0FAFC10BD01F0FBFC10BD8020002049
:10CFC00001231A4682408B4010B504490C78144363
:10CFD0000C7003490A5C1A430A5410BD1821002042
:10CFE0001921002010B5042002F0E0F9052002F01C
:10CFF000DDF910BD10B501F029FD002805D01F494D
:10D000001D484860C8131E4988611E48018CC9B27A
:10D0100001290BD1828C120708D1028D1206120F42
:10D02000042A03D1828D1206120F0AD0012921D1C0
:10D03000818C09071ED1018D0906090F0A2904D028
:10D0400007E0114A01219160F5E7828D1206120F67
:10D0500005D00D290ED1808D0006000F0AD10B4896
:10D060000168012904D00A49016001680129FCD145
:10D07000C021416110BD0000DFFF07C00005004076
:10D08000006C0040C00F00F00006004000EC0640BD
:10D0900075930000F8B52E4C01214902204602F09C
:10D0A00067FB00252B4F0126002818D0FF212531D2
:10D0B000204602F058FB002811D0FF2025302550D3
:10D0C00081202549800088603878002800D166607A
:10D0D00020480822001D01781143017028E0042136
:10D0E000204602F045FB002822D0FF2109312046CE
:10D0F00002F039FB00281BD0FF20093025501748CB
:10D100004677174882691549E031887F0B46463BD0
:10D11000C254887F401CC0B28877642800D38D77C2
:10D120000E481421803001833878002800D16660D1
:10D13000FF214531204602F016FB002806D0FF20D3
:10D14000453025503878002800D02660F8BD000012
:10D1500000200040E8200020002300404C2D00204B
:10D160000025004030B504460078F02816D16078DC
:10D17000A52813D1E57A28460F300C3588420DD802
:10D1800060194178162909D180780D2806D12946E1
:10D190002046FEF7E7FE615D884201D0002030BDE9
:10D1A000012030BD03480078002801D00148401C10
:10D1B00070470000A22000200CB568460078AA281D
:10D1C00005D0AA216846017000214180818001209C
:10D1D0000CBD704710B50CE004780B789C4201D967
:10D1E000012010BD9C4202D20020C04310BD401C53
:10D1F000491C521EF0D2002010BD000030B51C4B5F
:10D20000002159600278811C140242782243194C93
:10D21000A24227D10C78184A240254804D78254325
:10D2200055808C781471CC7854710C7994714C7948
:10D23000D4718C791472CC7954720C7A093194724D
:10D24000AA2C01D0552C0DD10C78D472491CD16078
:10D2500061180C7814744A78897812021143074ACD
:10D26000914201D0002030BD5860012030BD000047
:10D2700098200020A5F000007C2F00200D16000053
:10D2800070B592B00D46012400F030F80646102823
:10D290000BD269463046FFF79CFFFF28F9D0002DDE
:10D2A00002D06846007828700024204612B070BD75
:10D2B00010B5034A11730121FFF79AFC10BD00005D
:10D2C000502E002070B5054607481C4613460173D2
:10D2D000224619460D30FDF743FF641CE1B2284693
:10D2E000FFF786FC70BD0000502E0020F0B591B015
:10D2F0000024064683256F4669462046FFF769FFEE
:10D30000FF28F9D0684600782840822806D10822F4
:10D310003146381DFFF75EFF002803D0641CE4B2DD
:10D32000102CE9D3204611B0F0BD000010B5064A1C
:10D3300000219268435C545C63404354491CC9B269
:10D340001029F7D310BD00002421002010B5124C85
:10D3500002202061606111A0A0611348E0610120FA
:10D36000400220620020A06260620CA1A1642146FC
:10D37000E0621039E16410212165A0656065E06517
:10D380000AA1E01DFDF72BFF09A12046FDF727FFAD
:10D390002020A07110BD0000942B00205465726DF8
:10D3A000696E616C00000000842900205254540012
:10D3B00053454747455200000269C1688A4203D875
:10D3C0008068401A801800E0501A401E7047FFB570
:10D3D00083B00E4670420D9F0C9C0090002900DB2C
:10D3E0000846012502E0FDF7A7FE6D1C059988425D
:10D3F000F9DA0698A84200D90546002C04D0002E80
:10D4000001DB780700D5641EB80702D5069800280E
:10D4100010D0F8070ED1002C0CD0A5420AD2202142
:10D42000641E039800F0A4F80398C0680028F2DA9C
:10D4300007B0F0BD0398C0680028F9DB002E02DABF
:10D440002D21009E02E0780707D52B21039800F0DC
:10D450008FF80398C0680028EADBB807800F02281D
:10D4600010D1069800280DD1002C0BD0A54209D26E
:10D470003021641E039800F07BF80398C0680028F0
:10D48000F2DAD5E7019700943146069B059A039896
:10D4900000F002F8CCE70000FFB581B001261F467E
:10D4A00034460A9D029802E0FDF730FE641C0399A1
:10D4B0008842F9D2A74200D93C460B98C00718D140
:10D4C000002D16D00B98800701D5002F02D0202008
:10D4D00000900CE03020FBE76D1E0099019800F0F1
:10D4E00047F80198C06800283DDB002D01D0AC4210
:10D4F000F2D30198C068002835DB012F01D97F1EC7
:10D5000006E031460298FDF701FE0399884202D3F6
:10D5100003984643F1E7154F31460298FDF7F6FDB3
:10D520000146029A7143511A0291395C019800F048
:10D530001FF80198C068002805DB30460399FDF705
:10D54000E5FD0600E8D10B98C0070CD0002D0AD0ED
:10D55000AC4208D220216D1E019800F009F8019814
:10D56000C0680028F2DA05B0F0BD0000D802020061
:10D5700010B5044680686368421C934205D3236853
:10D580001954A260E068401CE060A26860688242B2
:10D5900009D121682069FFF7C9FBA168884203D03F
:10D5A0000020C043E06010BD0020A06010BDF7B5B2
:10D5B000064682B000200090F46817463069A04209
:10D5C00001D9051B02E0B168201A0D1AB0686D1E62
:10D5D000001BA84200D80546BD4200D33D467068F6
:10D5E0002A4600190399FDF7BBFD00987F1B4019DF
:10D5F00000900398641940190390B068A04200D1CC
:10D600000024F460002FD9D1009805B0F0BDF7B523
:10D61000C668174604468068851B6068BD4206D907
:10D6200080190199FDF79CFDF019E060FEBD2A46C6
:10D6300080190199FDF794FD01987E1B411932462E
:10D640006068FDF78DFDE660FEBD30B47446641E73
:10D650002578641CAB4200D21D46635D5B00E31875
:10D6600030BC184702E008C8121F08C1002AFAD1CE
:10D6700070477047002001E001C1121F002AFBD152
:10D6800070470000202804DA01218140034801424C
:10D6900001D001207047002070470000FC06FFBC4D
:10D6A000F7B584B006460025178815802030029013
:10D6B000407B1446002806D03A462146059800F0E3
:10D6C0000DFD050009D1B078002823D005988646C5
:10D6D0002088001DB84202D90C2007B0F0BD684672
:10D6E00079DF0028F9D12188032072465054208820
:10D6F0001921401C80B22080115420887146401CA2
:10D7000080B2208041186846008802F0CEFC218853
:10D7100040182080F078002817D0218803230A467B
:10D72000F356C91C0598B942D6D8022181542188E4
:10D730000122491C89B2218042542188491C89B2A6
:10D74000218043542088401C20807068002817D016
:10D7500021880023C3560A46C91C0598B942BBD884
:10D760000221815421880A22491C89B22180425415
:10D770002188491C89B2218043542088401C208084
:10D78000308900280AD000943046019706220221F1
:10D790000830059B02F0D6FC05009ED1308A002897
:10D7A0000AD0009430460197072203211030059BD0
:10D7B00002F0C8FC050090D1308B00280AD00094FC
:10D7C00030460197152214211830059B02F0BAFC4F
:10D7D000050082D1306A002806D03B4622460599D2
:10D7E00000F0E8FF0500D8D1706A002806D03B465B
:10D7F0002246059901F02CFB0500CED10298007B52
:10D80000002807D03B4622463046059902F0BEF973
:10D810000500C2D13078002807D03B46224630466A
:10D82000059901F0CBFB0500B7D1284655E700006C
:10D83000174A0021535C002B01D0012203E0491C50
:10D840000629F7D300221349012806D002280BD05D
:10D85000032810D0042818D112E04878002803D0FB
:10D86000002A01D0012070478878002803D0002AC0
:10D8700001D002207047C878002801D003207047EB
:10D880000879002801D0042070470020704700006C
:10D890001D20002090220020F0B5B3B03C2101A84B
:10D8A000FDF777FC02276846077100258571062180
:10D8B000C1713C2110A8FDF76CFC012610A806825E
:10D8C0002548159020211FA8FDF763FC18A8C677EE
:10D8D000192080012390142124952AA8FDF759FCD2
:10D8E0002AAC2FA871DF00202FAA31A905231B1A0B
:10D8F0009B185B780B54401C0628F7DBF620207041
:10D90000CB2060709A20A0703B20E0702671667179
:10D91000A6710820E07125726572A520A0722046CC
:10D92000E77206220C30FDF71BFC592120A88183E9
:10D930002AA82990122120A8018427A800951990CF
:10D94000064B1FAA10A901A800F04AF9002801D02F
:10D9500000F02AF833B0F0BDEC1F002081F7010081
:10D9600009A1012001F01AFE01F06CFD01F070FD2B
:10D970000028FBD100BEBFF34F8F0A490848C8609A
:10D98000BFF34F8F00BFFDE74150505F4552524FEC
:10D99000523A4552524F523A466174616C0D0A0038
:10D9A0000400FA0500ED00E00EB5002102900091A0
:10D9B0006A4601910148FFF7D3FF0EBD0140000008
:10D9C000094B5B68002B07D0002A07D0002805D040
:10D9D0000068037C002B03D00820704707207047A5
:10D9E00041744261002070475C200020FFB507466B
:10D9F0009007002581B01E461446002825D1002C32
:10DA000023D002F00DF83046114EF0603046103051
:10DA1000057045700299817044607560357001240D
:10DA20000C4875702405046003211420FEF7B0FE35
:10DA300009480460094CA76003211120FEF7A8FEE5
:10DA40006068B060002005B0F0BD0720FBE7000073
:10DA50004C20002080E200E000E100E000150140E1
:10DA6000FEB51F4B5B68002B30D000282ED0052957
:10DA700001D20720FEBD4369002B27D0437C012B38
:10DA800026D00027029104460025694616460D70EF
:10DA9000684600F03DF801A802F03EFB002819D0CE
:10DAA000012101700F494460496881600299076152
:10DAB0004661C16068460A49007948706846007846
:10DAC00000F044F802F024FA2846FEBD0820FEBD0E
:10DAD0000F46D7E768460425007800F037F8F3E7EB
:10DAE0005C2000200015014010B508494968002954
:10DAF0000AD0002808D04169002905D0002101740E
:10DB0000022102F02DFA10BD082010BD5C2000207B
:10DB100030B5EFF3108172B6094A54680123002C26
:10DB200004D00370002900D162B630BD5360054BAC
:10DB30001D68054C254015601C6000220270F1E74D
:10DB40007020002080E100E0FC06FFBC08494A6824
:10DB5000002A0CD000280AD1EFF3108072B60A68B0
:10DB6000044B1A6000224A60002800D162B6704758
:10DB70007020002000E100E0F0B50C4693B01F21BA
:10DB80006A461180072600279180002809D0C178B5
:10DB900049070DD502A9FFF783FD002809D102AD81
:10DBA00001E000251780002C0ED0E078002802D07C
:10DBB000304613B0F0BD01AA0AA92046FFF770FD58
:10DBC0000028F6D10AAA02E068460022878068464B
:10DBD0008088C3B268460088C1B2284672DFE8E791
:10DBE000FFB581B01E460A9F1346040047D0002BA4
:10DBF00045D0504D012028700020E87020221946A1
:10DC00004D48FDF7ADFA00206F61C0432E612881B9
:10DC1000284607211830FDF7BCFA47483C21203040
:10DC2000FDF7B7FA4448217820300170A17881705F
:10DC3000E178C170617841703F4A65692369556335
:10DC4000114613632031E368A268CB608A603A49C9
:10DC5000E369A269CB638A63616A00291AD001462D
:10DC60003C310246483241628A60636A1B880B80FD
:10DC7000616A436A898899800021436A07E00E201F
:10DC800005B0F0BD656AAD686D5C5554491C9D8852
:10DC90008D42F7D8A16A00291CD0274A9432114638
:10DCA0000C398A608162A36A9B888B80A16A836A2F
:10DCB000098819800021836A04E0A56AAD686D5C5B
:10DCC0005554491C9D888D42F7D82C210A5D1A496C
:10DCD00040310A73216A002909D016490A310162CC
:10DCE000226A52884A80216A026A09881180616822
:10DCF000002900D04160104A0E490020B332203183
:10DD0000C3001B1A85009B180C68401C635108282F
:10DD1000F6DB094A0020EB32030185009B188C6872
:10DD2000401C63510828F7DB034802992030FFF7B5
:10DD300023FFA5E7042000209022002010B50188D1
:10DD4000134C102915D0112919D01B2910D1007A94
:10DD500000280DD1E0780521401CFDF7D7F90846D1
:10DD600000F018F8002803D06169002900D0884726
:10DD700010BD817D0129FBD18088208110BD00214B
:10DD80006171808821898842F8D10120E8E700008C
:10DD900004200020F1B53F4C88B0207800280AD03C
:10DDA0000898E07006A800F0A1FD0698012500285B
:10DDB00004D065706AE0082009B0F0BD354800273E
:10DDC00007211830FDF7E5F9334E7078002802D0AE
:10DDD000E078012807D0B07800280CD0E07801283E
:10DDE00001D0022807D12169002903D0257108201C
:10DDF000884700E027710898FFF71AFDE070216955
:10DE0000002909D0032801D0042805D13078002842
:10DE100002D06079002811D0A77118216846FDF75B
:10DE2000B8F9684607700772E1781A480B00183095
:10DE3000FFF70BFC052E080F191D2000A571072008
:10DE40008847EAE7A5700190684605704782078217
:10DE500013E00221A170019068460570B1894182EA
:10DE60003189018209E0684601F0D8FE02E0684687
:10DE700001F000FFE078002803D0684673DF002837
:10DE80009AD12169002901D0A0788847002093E722
:10DE9000A770F6E7042000209022002070B50D4600
:10DEA00004461300FFF7D1FB05041526374814007C
:10DEB00002462AA10020FEF785FF002606E0AB5DA2
:10DEC00032462DA10020FEF77DFF761CA642F6DB30
:10DED00070BD02462CA10020FEF774FF002606E06C
:10DEE000AB5D324624A10020FEF76CFF761CA642F3
:10DEF000F6DB70BD02462CA10020FEF763FF002672
:10DF000006E0AB5D32461CA10020FEF75BFF761CED
:10DF1000A642F6DB70BD02462BA10020FEF752FFA1
:10DF2000002606E0AB5D324613A10020FEF74AFF53
:10DF3000761CA642F6DB70BD024629A10020FEF742
:10DF400041FF002606E0AB5D32460BA10020FEF744
:10DF500039FF761CA642F6DB70BD00006F72696760
:10DF6000696E616C2064617461206C656E677468B1
:10DF7000203D2025640D0A005B25645D203D203096
:10DF800078253032580D0A006461746120656E6333
:10DF9000727970742064617461206C656E67746856
:10DFA000203D2025640D0A00637263206368656369
:10DFB0006B2064617461206C656E677468203D201D
:10DFC00025640D0A000000006165732064617461BE
:10DFD000206C656E677468203D2025640D0A000082
:10DFE00073656E642064617461206C656E6774682B
:10DFF000203D2025640D0A0070B5054601461C220F
:10E000000E48FDF7ADF80E4C002626702968002951
:10E0100006D00822201DFDF7A3F8201D7ADF02E0BC
:10E020000748001D7BDF002807D1401E6080667016
:10E03000044A00210448FFF7C3FC70BD5C240020A3
:10E0400034200020B500020084020200F8B5214C03
:10E050000146028800261E48E589102A13D01E4F6B
:10E06000112A1FD0122A2BD0502A1AD1881DC988F4
:10E07000A94216D14189022913D10C3000F0FEF8D3
:10E0800000280CD112E08A880446428010480822F9
:10E090000C301831FDF764F86670002D01D100F0E6
:10E0A000D1FBF8BD0021C943418046703868FFF7B5
:10E0B0001BFD0028F5D0A1690029F2D08847F8BDE2
:10E0C000034808220C300831FDF74AF8E7E7000062
:10E0D000342000205C240020840202007CB5054628
:10E0E00008880C460930904201D90C207CBD684656
:10E0F00071DF0028FAD121880820685420881B216C
:10E10000401C80B220802954208800A9401C80B285
:10E110002080401906220131FDF722F82088694647
:10E12000801D80B220800978002900D00121295467
:10E130002088401C208000207CBD000010B50446D3
:10E14000FFF784FF2146054800F040F8204601F023
:10E1500027FB2046FFF7F2FD10BD0000082200203B
:10E1600030B5184B0D4604000FCB85B003936B46BA
:10E1700007C324D0002D22D00020C043A0822868ED
:10E18000A0610020A0752146684663DF002814D1F5
:10E190000121684681740C490182A21C04A9012056
:10E1A000A0DF002809D12946204601F05BFC0028A9
:10E1B00003D12946204601F037FF05B030BD0E20BF
:10E1C000FBE70000880202001019000010B50028CB
:10E1D0001BD0002919D00A88102A17D0112A17D06D
:10E1E000502A12D104468A1DC888238A12319842C7
:10E1F00002D15389022B0FD0A388984205D1A3697D
:10E20000002B02D052892046984710BD898801E032
:10E210000021C943818210BD084600F02FF8002874
:10E2200000D00120A07510BD07B584B000280DD026
:10E23000828A114B9A420BD0827D002A08D06A460E
:10E24000128B142A06D9072007B000BD0E20FBE769
:10E250000820F9E70022009201920292039282893B
:10E260006B461A80039106A9029101219970808A58
:10E270006946A6DFE8E70000FFFF0000417802786A
:10E2800008021043C007C00F7047000070B50F4C64
:10E29000154620784219802A07D80D4A10182A46B8
:10E2A000FCF75EFF207840192070C1B26570084805
:10E2B000FEF758FF012808D1002205492078FFF712
:10E2C000EDFD00210420FEF77BFE70BDE020002064
:10E2D000902F002070B50C46054607E01422294611
:10E2E0000648FFF7A1FF143CA4B21435142CF5D84E
:10E2F000224629460148FFF797FF70BD08220020FB
:10E3000005490B5C05494A68012098400346934340
:10E310008B601040C860704750020200000500503A
:10E3200010B50349085C012101F048F810BD000058
:10E330005002020010B50349085C002101F03EF8CC
:10E3400010BD0000500202000549095C0548406804
:10E35000C840C007C00F00D00120012148407047CD
:10E36000500202000005005010B500242046FFF7BF
:10E37000D7FF641C042CF9D310BD10B5002420462F
:10E38000FFF7D8FF641C042CF9D310BD024600200F
:10E3900010B5C043054B00215C5C944201D1084696
:10E3A00010BD491C0429F7D310BD0000540202001F
:10E3B000F3B581B00D460198FFF7E8FF0446042845
:10E3C00013D21D481D4F1E4E002D27D0012D0DD0FC
:10E3D000022D0AD160002018C0194578002D04D004
:10E3E000F168002901D028468847FEBD6100611808
:10E3F0007D5CCF19797800290BD071680A225143CE
:10E400000F4A8068921CFFF72BFB002801D101986E
:10E41000B0700B48B97810300155DFE78068FFF71E
:10E4200063FB0748610061181030C919005D8D78E1
:10E43000A842D3D0FEBD0000580202006422002092
:10E44000F01F002010B5054A0146127A0020D207BD
:10E4500002D0084600F018F810BD0000F01F0020A0
:10E46000FF2002490130C8607047000000050050DD
:10E4700004494A68FF200130034693438B601040F3
:10E48000C860704700050050F8B55D4C05466078DF
:10E490000026002803D000206070FFF765FF0120F0
:10E4A000584F2B00FFF7D1F818970D0D2E3D4A5FFE
:10E4B00064686F686FA97777777777979A9DA0A937
:10E4C000A9950020FFF740FF00280AD00020FFF7A1
:10E4D00027FF022D02D1E120C0000BE07D2040018A
:10E4E00008E00020FFF726FF022D01D1C82001E03F
:10E4F000FF20913025706421FCF708FE61684143DC
:10E5000000222BE00020FFF71FFF002805D000208D
:10E51000FFF706FF19204001ECE70020FFF70AFF94
:10E52000E4E70020FFF710FF002803D00020FFF7EA
:10E53000F7FED3E70020FFF7FDFED9E70020FFF745
:10E5400003FF002803D00020FFF7EAFE02E00020CE
:10E55000FFF7F0FE25706068410000223868FFF781
:10E560007FFA064635E00020FFF7CAFE257007E077
:10E5700000203FE025702CE060700120FFF7C0FE16
:10E5800000226168EAE760700120FFF7B9FE606869
:10E5900081004118E1E77868FFF7A6FA06461120E6
:10E5A000401B01D0002E03D00220FFF7B9FE10E07F
:10E5B00001280BD9C82148436421FCF7A7FD6168F5
:10E5C000002241437868FFF74BFA06460220FFF726
:10E5D000B1FE3046F8BDFFF7C7FECBE7FFF7C4FE3C
:10E5E000C6E7FFF7C1FE04E0FFF7BEFE0020FFF71D
:10E5F000A1FE0120FFF79EFEBCE7FFF7BEFEB9E7D4
:10E60000F01F002058020200F8B50D46461C0020FD
:10E610006946087001246846FFF77AFA134A1068C1
:10E620002860116850689368081A1D1A701C6D1CC8
:10E63000A84212D9002D0ED00D480E4C0088246837
:10E6400080051940800DA402890020438918C86004
:10E650001068401C1060002401E0881910606846B2
:10E660000078FFF773FA2046F8BD00006C25002003
:10E67000B40202007C200020034803C8814201D17B
:10E6800001207047002070476C2500200022D243F3
:10E69000830004490428CA5002D3081820300277A6
:10E6A000704700008C2400200249091820200856D9
:10E6B000704700008C24002030B5084C0122235CF8
:10E6C00015468D40AB43235401D0002030BD82401D
:10E6D0000348017891430170012030BD19210020C9
:10E6E0001821002070B5084C050009D010342168AD
:10E6F000002907D008682060496828468847F6E75F
:10E700000834F4E770BD000078240020F8B52348F1
:10E71000416800293ED00E6821494C68876880789E
:10E72000E11B0D022D0AED1C002814D101201D4A09
:10E73000000450601B4A403A50601B49400008608A
:10E740001A4908601A49012008602F2000F096FC41
:10E75000124901208870B54200D23546E8190002FE
:10E760000F4B000A403318600D4A5168001B091B0B
:10E770000902090A0002000AC91C814209D950682D
:10E7800018602F2000F07AFC0120074940048039EE
:10E790000860F8BD01F044F9F8BD00004C200020ED
:10E7A000001501404013014080E200E000E100E07C
:10E7B00000100140F8B50646108814468446801DB6
:10E7C0000D46984201D90C20F8BD32880720062A50
:10E7D000FAD31927FF01184BBA4201D99A42F3D153
:10E7E00071880629F0D3B94201D99942ECD19A42F5
:10E7F00003D0994201D08A42E6D8052160462954C7
:10E8000020881221401C80B2208029542088401C7E
:10E8100080B220804119308801F047FC21884018DF
:10E8200080B220804119708801F03FFC2188401897
:10E8300020800020F8BD0000FFFF000010B5FFF7AA
:10E84000B3F810BDF8B5164800F0F2F8144D0026E4
:10E850000C3D144C002807D0616900291CD0012010
:10E860006A461070684616E02878002805D061696D
:10E87000002911D0684606700DE0687800280DD098
:10E88000A168094800220068FFF7EAF8002803D0D1
:10E89000A169002900D088472E70F8BD6168F0E7B3
:10E8A000402000205C2400208402020010B50E49A4
:10E8B00000230A784C78A24212D0521CD2B20A70BD
:10E8C000022A00D10B700A78074B920018339A582D
:10E8D0000260886810180002000A8860012010BDDC
:10E8E0000360002010BD00004C200020002804D050
:10E8F0000349496E01600020704703207047000003
:10E900000425002010B5054A01210548FFF758F8F5
:10E91000002801D0FFF748F810BD0000FDEB010012
:10E92000E00502000248002141708170C17070470B
:10E93000E820002010B500F03FFC082000F013FD97
:10E94000FF201A49013088600021012000F002FDFB
:10E95000022000F008FD022000F020FD002104202C
:10E9600000F0F8FC042000F0FEFC042000F016FD8E
:10E97000052000F0F8FC052000F010FD0021062025
:10E9800000F0E8FC072000F0EEFC072000F006FD98
:10E99000032000F0E8FC032000F000FD092000F057
:10E9A000E2FC092000F0FAFC10BD00000005005058
:10E9B000F8B51E4C2078002836D0E06800260028E4
:10E9C0000CD00025607800282ED1684652DF05283B
:10E9D00006D0002806D0FEF7E7FF0BE00125F1E79F
:10E9E000012607E0009800F09FFB2169002901D073
:10E9F00000988847002D13D16078002814D16088D2
:10EA000069460880A06861DF052804D0002804D08A
:10EA1000FEF7CAFF04E0012502E0E168A06888472C
:10EA2000002ECFD0002DE5D0F8BD000080200020C2
:10EA3000418805480288914204D34088814201D828
:10EA40000120704700207047382000201048018CBA
:10EA5000C9B2012917D1818C090714D1018D09068A
:10EA60000A0F03D1828D1206120F0ED0090F012951
:10EA700003D1828D1206120F07D0032903D1808D96
:10EA80000006000F01D000207047012070470000F1
:10EA9000C00F00F0F0B5284C2146103948688B684B
:10EAA000227886469C46CF78667836E01823534312
:10EAB0006168521CC918A378D2B2934200D10022D7
:10EAC0000B78022B02D0032B27D123E003464D689D
:10EAD000194603E0A94204D00B46C96900291CD09D
:10EAE000F8E7002919D08B4208D1C069002805D168
:10EAF000124F0125BD600025AC4601270D68C9698C
:10EB0000D961002909D00B685B190B6005E001741D
:10EB1000C06900E000210028F9D19642C6D106491B
:10EB2000624610398A604860CF70704501D001207C
:10EB3000F0BD0020F0BD00005C200020001001406E
:10EB4000F8B52C4E044670680025009041E0002C7A
:10EB500002D02046E46920E02648182310300178CE
:10EB600042684B43491CC9B2D2180170837899425C
:10EB700000D105701178506801292CD1017C002941
:10EB800029D191684160D16881601169C160516982
:10EB90008161F178002900D045604368B268164F62
:10EBA000991A0902090AB94202D28268891806E054
:10EBB000D11A09028268090A8A4202D9511A0160EF
:10EBC00000E005604560012185600174C56101F0C8
:10EBD000A7F9002CBBD1074810300178407881425A
:10EBE000BAD171680098814201D00120F8BD00209F
:10EBF000F8BD00004C200020FFFF7F0070B5294CBD
:10EC00002088401C20800A20FDF74AF90A20FDF7E1
:10EC100067F92088642844D30026234D268028786D
:10EC2000224CC10615D5A178491CA170A1780229F2
:10EC30000FD3A670EF21084028701D4801781D48A9
:10EC4000012902D0022902D003E0022100E00121C3
:10EC500001702878C10701D1810713D5E188491CCB
:10EC6000E180E188B4290DD3E680C00703D00021FC
:10EC70000620FEF7A5F92878800703D50121062094
:10EC8000FEF79EF9287801070BD52189491C2181BF
:10EC90002189E1221201914203D32681F721084004
:10ECA000287070BDB6200020B4200020702F0020F6
:10ECB000F1200020F0200020002388B0514A0521D7
:10ECC0001846FEF793FE002801D0FEF76DFEFEF712
:10ECD00023F84DA10020FEF775F84F484949006818
:10ECE0000590002348225C3905A801F06FF8002840
:10ECF00001D0FEF759FE6A460121002001F04EF8CE
:10ED0000002801D0FEF750FE684600F0F5FF00280D
:10ED100001D0FEF749FE414800F0E4FF002801D091
:10ED2000FEF742FEFFF706FE01F092F81120694659
:10ED3000087207223AA102A87CDF002801D0FEF762
:10ED400033FE0024009410216846019401803C2188
:10ED50004180FF2184809131C1807ADF002801D079
:10ED6000FEF722FE304827490090012078310870D4
:10ED7000244869467830FFF7F3F9002801D0FEF700
:10ED800013FEFEF789FD1C216846FCF702FA0520F8
:10ED9000C00301900F2000040290009403216846F4
:10EDA0000173C48104742148059021480690684687
:10EDB000FFF722F9002801D0FEF7F6FD002000F051
:10EDC00029FA002801D0FEF7EFFD0320FEF7E2FF4D
:10EDD000002801D0FEF7E8FD16A10020FDF7F2FFA4
:10EDE000184C194D194E03E0285C81007158884772
:10EDF00020780028F8D148DF0028F9D0FEF7D4FDAC
:10EE0000F6E70000902100204D61696E2053746187
:10EE10007274210D0A0000004C0202003DE1010065
:10EE2000414E47554D454E008DE2010071F80100FD
:10EE30003DE80100416476205374617274210D0A2B
:10EE40000000000018210020E4050200F820002046
:10EE500070B5144682880E4605462088111D41185B
:10EE6000921C994201D8FE2A01D90C2070BD521C77
:10EE700032542088FF21401C80B2208031542088E9
:10EE8000401C80B220808119288801F00EF9218869
:10EE9000401880B22080AA88002A09D0A9680029D9
:10EEA00008D08019FCF75CF92088A98840182080D8
:10EEB000002070BD072070BD02461F20012907D029
:10EEC000062901D9491EC9B2C90700D01E207047C2
:10EED0001C32D0B270470000F3B581B00E0029D0CB
:10EEE00015490878002825D0FF20144C1D30002239
:10EEF00022500127A760154619E00F4A1078002814
:10EF000017D0FF211D31002060500198435D0C484F
:10EF1000C36103E008480078002806D0FF211D31B6
:10EF2000204600F020FC0028F4D06D1CEDB2B54264
:10EF3000E3D3E760FEBD0000E82000200020004091
:10EF400000250040F8B5174F3878002828D1FFF782
:10EF5000E9FC174E1448154D70620024F466072032
:10EF600006217161F060FF201D302C501149802076
:10EF70008860FF2009302C50FF2045302C500E486F
:10EF800048600321022000F0D5F8FF2025302C50E6
:10EF9000FF2009302C500120387004213160286096
:10EFA000F8BD0000E82000200050270000200040AD
:10EFB000002500400023004004000200F8B50F4681
:10EFC000017814460546012902D16878002806D048
:10EFD0002088821C9A422DD8012902D006E0072001
:10EFE000F8BD69784118891C994223D8181A801EE7
:10EFF00086B2684606802188B81C081869467DDFFD
:10F000000028EDD12878022805D169460988B14247
:10F0100001D809210AE00821012805D16878B04209
:10F0200002D86A46108001E068460680684600887B
:10F03000FE2801D90C20F8BD2288401CB854208835
:10F04000401C80B22080395420886946401C2080B2
:10F050000988401820800020F8BDC20843075B0FD4
:10F060000120895C984008407047012189074018B9
:10F070000068002800D001207047000000280FD051
:10F080000849094A096800BF00BF00BF00BF00BFB0
:10F0900000BF00BF00BF914200D000BF0138F2D1D5
:10F0A00070470000302100200024F40070B50E4CA1
:10F0B00000252078002801D0852513E00021A160DB
:10F0C00061602161E160094800680126304002D199
:10F0D000032100F02FF800F0B5FE002801D104480C
:10F0E00086612670284670BD7824002000E100E08B
:10F0F0000005004038B50020694608706846FEF7F4
:10F1000007FD084C2078002801D1FFF7CFFFE06809
:10F11000401CE0600120A07068460078FEF716FDF4
:10F1200038BD00007824002010B5002801D1FFF779
:10F13000D9FA10BD8207D30EFF229A408907090E23
:10F1400010B5994000280BDA03071B0F083B9C08F9
:10F150000C4BA400E318DC6994430C43DC6107E02A
:10F160008408094BA400E418236893430B432360ED
:10F17000C106C90E0120884004490860044908609E
:10F1800010BD000000ED00E000E400E080E200E0DF
:10F1900000E100E04109074A890089180968C206B0
:10F1A000D20E01209040014201D001207047002082
:10F1B0007047000000E100E070B5144D2879002888
:10F1C00001D0082070BD114900204039421E0B18A3
:10F1D0002033401CC0B21A702028F8D300242046E7
:10F1E000FFF754FA641CE4B2082CF8D3032106207C
:10F1F000FFF7A0FFFF207D3000F000F90120044957
:10F20000C007486001202871002070BDCC24002078
:10F210000063004038B5124C2178002901D08520C8
:10F2200038BD002800D10F480D4902784A70407857
:10F2300088700020694608706846FEF769FC00F097
:10F2400001FE002803D100F03DF800F055F86846B3
:10F250000078FEF77BFC01202070002038BD000004
:10F26000482000209C020200F3B5144E81B00F46E6
:10F27000002568460570FEF74BFC00F0E3FD002812
:10F280000BD068460078FEF761FC394601983ADFFA
:10F290000446B0420DD105240DE03A4608480199D4
:10F2A00000F040FA044600F027F868460078FEF7C0
:10F2B0004DFC022CDDD02046FEBD000007200000E2
:10F2C000A002020010B509484178002904D008497D
:10F2D0004A6801231A434A6006490A6852085200E4
:10F2E0000A6081780D20FFF725FF10BD482000201F
:10F2F00000D5004000D20040054A002003491060BC
:10F30000044A0120506008607047000000D00040AF
:10F3100000D1004000D3004002490120886002492A
:10F320000860704700D3004004D0004070B5520020
:10F330000A439900049D0A432902059E0A433104A9
:10F3400005240A43240780000721001909024018F8
:10F35000026070BD1CB500220B460092114601925E
:10F36000FFF7E4FF1CBD1CB5002100910B460122F4
:10F3700001911146FFF7DAFF1CBD0522120780003C
:10F380008218072000021018026803231B049A4306
:10F390000260026809040A4302607047012181404B
:10F3A0000148C16070470000000500500121814004
:10F3B0000148C160704700000005005001228240F2
:10F3C0000348002901D082607047C2607047000086
:10F3D0000005005038B5084B05241B680093240233
:10F3E0006B46411805E085005D592D192D69401CBB
:10F3F00020C28142F7D838BD980202000249401865
:10F40000002101607047000000600040034940187F
:10F410000068012800D00020704700000060004014
:10F4200070B5074D04462878002802D068788442D9
:10F4300004D0FDF771FC012028706C70002070BDB5
:10F440007820002010B50120FFF7EAFF10BD000072
:10F45000F0B595B0FFF710F9002802D0002015B0E4
:10F46000F0BD4B4844688668214631408900091840
:10F470000C94CD680BE02904A80D890D40180419DF
:10F4800020463040810042480C940818C568641C2E
:10F49000A807F0D000200890A807800F3D4B022855
:10F4A00007D0AA0AA805000F84460EA99646002098
:10F4B00059E02046304081003548641C0818C06877
:10F4C000049486462804800D84463440301B800016
:10F4D000AF0D001D874222D92D490C31002807D0DD
:10F4E0002B4AA400A21814460C34C2B2381A03E006
:10F4F0000C460021FAB20846C0B203900192029174
:10F500000094A8065C69400F634672460899A047BC
:10F51000B84213D1FF1C0498B9080C1830E01C48FD
:10F52000A200101800210C30009002910197039165
:10F53000A8065C69400F63467246E8E716498005F5
:10F540000D40000C05430C9830408100104808180D
:10F55000C56017E027463740BA000D4F401CD71949
:10F56000FF68641C80C167466045F3D3A806009716
:10F570001D69400F0EAB72460899A847002801D0BC
:10F5800003484460FFF778F80121484067E700002E
:10F590006C2500206C2900203F00FFFFF8B5104DBE
:10F5A0000E46074600206946AC68FFF72DF8002894
:10F5B00015D00C483C21808888437907890E084380
:10F5C0000F21890188438105890DB002014300980C
:10F5D0000246224092005219401CD1600090F8BDB2
:10F5E0006C250020B4020200F7B5154C82B00E461F
:10F5F000074601206946A568FFF706F800281CD0D9
:10F6000010483C21008988437907890E08430F215F
:10F6100089018843402108438105890DB0020143D7
:10F62000009802462A4092001219D160401C0090B6
:10F630002840800000190499C16005B0F0BD0000A9
:10F640006C250020B4020200016880684A6882428A
:10F6500001D2521C00E000220868824201D1012040
:10F660007047002070478068884201D9481C704765
:10F6700000207047FEB504460E4600206946019002
:10F6800008706846FEF744FA2046FFF7DDFF0700E2
:10F690000AD0207C002807D004200190684600781A
:10F6A000FEF754FA0198FEBD2068416820460D46D9
:10F6B000FFF7D9FF2168002F486006D02068016855
:10F6C0002046FFF7D0FF21680860E268012A15D0C4
:10F6D000022A17D0042A1AD0082A1DD010466168C1
:10F6E000684308183146FBF73BFD204600F084F9DB
:10F6F00021688A688242D1D28860CFE76168307819
:10F700004855F2E7616830886A008852EDE7616821
:10F710003068AA008850E8E7626803CEEB00D21890
:10F7200003C2E2E7F8B5002415460E460746002A54
:10F7300010D00020694608706846FEF7E9F938469F
:10F7400000F05AF9A84207D32A463146384600F05D
:10F7500023F902E00020F8BD052468460078FEF792
:10F76000F5F92046F8BD4058002800D00120704728
:10F770000322120280184068084000D00120704720
:10F7800010B5002809D0032806D10220FEF75AFE42
:10F79000002801D0FEF708F910BD00F095FA10BD61
:10F7A00070B50446314D00886E8888B03A2838D04C
:10F7B0000DDC022839D0102813D011281AD01328B4
:10F7C00022D100231A46852130467FDF26E05128CA
:10F7D0002FD052281DD0552816D1A088132176DFAE
:10F7E0001CE00720FEF72EFE002801D0FEF7DCF813
:10F7F000A08808E00020FEF725FE002801D0FEF7D3
:10F80000D3F80020C043688008B070BDFEF7CCF884
:10F81000FAE700231A4619463046A9DF0028F5D139
:10F82000F2E7A088132176DFF8E7A088002167DFE0
:10F83000F4E71022A11D04A8FBF792FC6846017CA6
:10F840000029E1D0007E042803D0062801D0052835
:10F85000DAD1022908D0012069460870FF208330E0
:10F860008880A088A8DFD9E70220F5E7E81F0020FC
:10F8700010B50078002807D104483B21408876DF86
:10F88000002801D0FEF790F810BD0000E81F00200E
:10F89000F8B50A4604463F491046FBF737FC0D46CB
:10F8A00006463C212846FBF731FC2170E121090185
:10F8B0002846FBF72BFC054608463C21FBF726FCB7
:10F8C0006070A5707D200001B5B2E0800FE0002FD0
:10F8D00026D064213046FBF719FC002901D0B0077F
:10F8E0001ED0FF206E30281A761C85B2E680E08894
:10F8F000FF2106469131FBF709FC0F0013D064216C
:10F900003046FBF703FC002901D0B0070BD0FF20E5
:10F910006E30A842DBD90020FF27207191371DE00F
:10F92000FF206F30DFE7FF206F30F2E7E0883946D5
:10F930000646FBF7EBFB002927D064213046FBF796
:10F94000E5FB002901D0B0071FD000202179FFF787
:10F95000B3FA281A85B22079401C2071E088394614
:10F960000646FBF7D3FB002911D064213046FBF794
:10F97000CDFB002901D0B00709D000202179FFF785
:10F980009BFAA842D2D9E570F8BD0120DEE701203C
:10F99000F4E7000080510100F7B50168044603C98F
:10F9A0001646884201D80D1A02E0A1680D1A6D1C96
:10F9B000E268616850434118AE420CD87243019826
:10F9C000FBF7CEFB2168A26808688019904200D935
:10F9D00000200860FEBD17466F433A460198FBF7CA
:10F9E000BFFBE2680198751B6A436168C019FBF7A9
:10F9F000B7FB20680560FEBD016806C98A4201D3D5
:10FA0000501A70478068401A401C801870470122C5
:10FA100052075110886B496B4143881870470000AA
:10FA200070B501240B49600408600B4940108860E0
:10FA3000094940398860094D6C602F20FFF71EFB93
:10FA4000AC60074D00242F20AC60FFF717FBAC70B3
:10FA500070BD000080E100E0401301400010014053
:10FA60004C200020F0B500240546601C01078FB033
:10FA7000090F08A8103108940170601C0107090FD4
:10FA800008A8103141708178F9273940891C8170AC
:10FA90001C2101A8FBF77DFB68460179102001437A
:10FAA00068460171029408A80494059401260794FD
:10FAB000069086710B21C943684681843146103116
:10FAC000009401703146103141708178F72039403F
:10FAD000891C0140EF2001403143684681701421A8
:10FAE0000AA8FBF756FB09A80A9068460B90068601
:10FAF0001421448681862B4668880C330AAA01A902
:10FB0000A2DF0FB0F0BD000010B50446FDF7BAFD4E
:10FB100000280CD0A007C00E002C0ADA2107090F1C
:10FB200008398908144A89008918C96906E0134808
:10FB300010BDA108124A890089180968C140080649
:10FB4000800F042811D200280FD002280DD00D49B3
:10FB50004B68E206D20E01209040002B08D06209CB
:10FB600092008B5803438B5004E00448401C10BDA6
:10FB700005490860002010BD00ED00E001200000F4
:10FB800000E400E07020002000E100E0FFB507463F
:10FB9000806A81B0144600283DD0002538462030C8
:10FBA000009033E00C20B96A68430E18B088801CBE
:10FBB000FE2802D90C2005B0F0BD22880299401C15
:10FBC000885420881622401C80B2208002990A5452
:10FBD0002088401C80B2208002994118308800F0B3
:10FBE00064FA2188401880B22080B288002A0AD0A6
:10FBF000B16800290FD0029BC018FBF7B1FA20882A
:10FC0000B188401820806D1C0098EDB2007BA8429E
:10FC1000C8D80020CFE70720CDE7000070B5044624
:10FC20001248134D018A2182818A6182007800285E
:10FC300018D06879002815D100F0F4FA002811D006
:10FC400028462030E060022008492072042020313C
:10FC5000C870064800212030FDF78EFF002804D12F
:10FC6000052000E00320A870002070BD9022002035
:10FC70000420002070B5044611480426018B21821F
:10FC8000818B618200780F4D002816D0687900289A
:10FC900013D100F0C7FA00280FD028462030E060CA
:10FCA00002202072064800212030C670FDF764FF54
:10FCB000002804D10620A87000E0AE70002070BDBE
:10FCC000902200200420002010B50020FEF7BAFB8F
:10FCD000002801D0FDF768FE3CDF002801D0FDF7C9
:10FCE00063FE10BD002803D00249C86000207047A1
:10FCF0000E207047802000201CB50F490191009113
:10FD0000694660DF0446009A019882420AD00B4996
:10FD10000220FFF769FCFFF77AFE0099421A08A15A
:10FD2000022004E0002C04D0224612A10120FFF79B
:10FD30005BFC20461CBD0000E81F0020F00902000B
:10FD40005344483A5741524E494E473A52414D204A
:10FD500073697A652073686F756C642062652061D1
:10FD6000646A757374656420746F20307825782018
:10FD70000D0A00005344483A4552524F523A7364B8
:10FD80005F626C655F656E61626C653A2065727278
:10FD90006F7220307825780D0A00000070B50E468D
:10FDA0000546144614211046FBF7F3F90120002103
:10FDB00020802161217326726572002D00D0A0720F
:10FDC000002070BD10B5FDF7CBFD10BDFFB581B0B3
:10FDD000002901D0880702D0072005B0F0BD164DDC
:10FDE0000124A9606A8000206B60FFF7D3F9060048
:10FDF00001D0124804600D20FFF7CCF9070003D0B2
:10FE000001200E49400308600D49019810DF0028C9
:10FE10000AD00A498039002F02D0012252030A6019
:10FE2000002EDAD00C60D8E72C70FFF763F91620AB
:10FE3000FFF76AFED1E700008020002080E100E0AB
:10FE4000C5FD0100014800787047000080200020B7
:10FE500010B5FEF757FD00F003F8FFF773F810BD7B
:10FE600010B5094C2068FDF73FFE002801D0FDF7D2
:10FE70009BFDFF21002249312068FDF7F1FD00289C
:10FE800001D0FDF791FD10BDE0050200FEB51F4C4D
:10FE90000025A768606802906846FEF707FD01909C
:10FEA000FEF7F8FD06460198002822D000230098AE
:10FEB000616817E00E680A46864202D9301A086067
:10FEC00012E0801BF31800261660D668D169B4468C
:10FED000002E07D0FE183602360A56606646966037
:10FEE000D56115460029E5D128466160FEF728FE58
:10FEF00006E02846FEF724FE002801D1002E02D09D
:10FF00000298FEF703FC0020E070FEBD4C200020AC
:10FF100001200249000508607047000000E200E08F
:10FF200010B50E4B5968002906D002680C68A24231
:10FF300004D8A21A0A60C161586010BD0B4604E0E3
:10FF40000B46C969121B002904D00C689442F7D3F0
:10FF5000A41A0C600260C161D86110BD4C20002061
:10FF60007CB50D460646002469460C706846FDF7D0
:10FF7000CFFD01A800F0D0F800280DD00570466034
:10FF8000684608490079487068460078FDF7DEFD4C
:10FF9000FFF7BEFF20467CBD684604240078FDF7CD
:10FFA000D5FDF7E75C200020F8B51D4D6C68002CEE
:10FFB00034D01C4800274068A968401A0602360A57
:10FFC0002068B04218D8361AC7192246107CE46956
:10FFD00000280FD000201074EB68002B07D0916927
:10FFE00050699847002805D0FDF7DEFC02E0516912
:10FFF00090698847002CE3D129786878814206D13E
:020000040002F8
:10000000401CC0B26870022801D100206870044909
:100010000006800D18310F50FFF77AFFF8BD000081
:100020004C2000200015014070B58EB005461C2103
:100030006846FBF7AEF8694608780C210843694624
:10004000087000240194039404940594012608A9DF
:1000500006948E700D20C04369460884601C00071A
:10006000000F103007940877304610304877887FAB
:10007000F9210840F721801C0840EF210840304357
:1000800069468877142109A8FBF783F808A8099026
:1000900007A80A9069468E851420CC850886688852
:1000A0002B1D09AAA2DF0EB070BD0870000A4870AF
:1000B0000220704738B51549154A488890420FD03C
:1000C0004A78144C521CD2B24A70237B934208D314
:1000D000091D75DF002803D0A169002900D08847D9
:1000E00038BD00254D70217C002907D03B2176DFEB
:1000F000002803D0A169002900D088476169002940
:10010000EED068460570884738BD000034200020D6
:10011000FFFF00005C24002010B509494B788C7863
:100120005A1CD2B2944200D100220C78944201D1E0
:10013000002010BD0270486818214B43C01810BD44
:100140005C200020FFB583B016460C9D0D9C1F4619
:10015000022200950194039800F00CF8002807D1C2
:100160003B461022314600950194039800F002F8B6
:1001700007B0F0BDFFB583B0074600200C9C864653
:10018000268805463AE07868A90042181188684632
:1001900081805188C1800022694601A865DF00285E
:1001A00039D1684601780598814226D170460028E9
:1001B00001D0002200E002222088891842180D99FF
:1001C0008A4227D8714600290AD1401C80B220807B
:1001D000069A049911542088401C208001208646EC
:1001E000218806980A18694601A865DF002812D1FF
:1001F000694620880978401820806D1C3888A842FC
:10020000C1DC704600280AD02088801B401E80B2C6
:10021000FF2802D90C2007B0F0BD069988550020B0
:10022000F9E7000004480179002902D1007B002889
:1002300000D0012070470000242000204100C009A8
:100240001B2250434140C8B2704700000100000724
:10025000151617181112131424220020442200200E
:100260007022002011000300B1E30100120003001E
:10027000B1E3010013000300B1E301001400030027
:10028000B1E301003C2400209ECADC240EE5A9E075
:1002900093F3A3B50000406E00000050000300007F
:1002A000F8240020D42400202000000001000000D9
:1002B0000000000029000000010000000100000013
:1002C000010000000100000001000000010000002A
:1002D000010000000200000030313233343536377F
:1002E00038394142434445461516170000020405BB
:1002F000000000000000000011B701009DB60100E1
:1003000081B7010091B5010000000000000000006D
:100310000000000000000000600A0200030000006E
:10032000300C020003000000D00A020003000000AD
:10033000300C0200030000001C0B02000300000050
:10034000F00B0200030000001C0B02000300000081
:100350000C0C020003000000FC0A02000300000075
:10036000300C020003000000400B020003000000FC
:10037000240C020003000000C40A02000300000075
:10038000340C020003000000A00B02000300000078
:10039000300C0200030000007C0B02000300000090
:1003A000300C020003000000580B020003000000A4
:1003B000300C020003000000B80A02000300000035
:1003C000300C0200030000004C0B02000300000090
:1003D0001C0C020003000000340A020003000000AD
:1003E000300C020003000000EC0A020003000000D1
:1003F000300C0200030000006C0A02000300000041
:10040000300C020003000000340B02000500000065
:10041000140C020014000000340B02000500000060
:10042000F80B020014000000940A02000300000010
:10043000300C0200030000007C0A020003000000F0
:10044000300C020003000000DC0A02000300000080
:10045000300C020003000000BC0B0200050000008D
:10046000300C020014000000B00B0200030000007A
:100470003C0C020003000000500A020003000000D0
:10048000300C020003000000E40B02000300000037
:10049000300C020003000000CC0B0200030000003F
:1004A000300C020003000000D80B02000300000023
:1004B000300C020003000000280B020003000000C3
:1004C000000C0200030000000C150D0F00021112B9
:1004D0001301030D0F140000020607080A01030BA5
:1004E000005EBCE2613FDD83C29C7E20A3FD1F4114
:1004F0009DC3217FFCA2401E5F01E3BD3E6082DC04
:1005000023079FC1421CFEA0E1BF5D0380DE3C6269
:10051000BEE0025CDF81633D7C22C09E1D43A1FFE3
:100520004618FAA427799BC584DA3866E5BB5907D3
:10053000DB856739BAE406581947A5FB7826C49AC3
:10054000653BD987045AB8E6A7F91B45C6987A24B3
:10055000F8A6441A99C7257B3A6486D85B05E7B9A3
:100560008CD2306EEDB3510F4E10F2AC2F7193CD93
:10057000114FADF3702ECC92D38D6F31B2EC0E5083
:10058000AFF1134DCE90722C6D33D18F0C52B0EE73
:10059000326C8ED0530DEFB1F0AE4C1291CF2D7363
:1005A000CA947628ABF517490856B4EA6937D58B53
:1005B0005709EBB536688AD495CB2977F4AA481643
:1005C000E9B7550B88D6346A2B7597C94A14F6A833
:1005D000742AC896154BA9F7B6E80A54D7896B3523
:1005E000502F002000000100020001000300010064
:1005F00002000100040001000200010003000100EC
:1006000002000100050001000200010003000100DA
:1006100002000100040001000200010003000100CB
:1006200002000100060001000200010003000100B9
:1006300002000100040001000200010003000100AB
:10064000020001000500010002000100030001009A
:10065000020001000400010002000100030001008B
:100660000200010007000100020001000300010078
:10067000020001000400010002000100030001006B
:10068000020001000500010002000100030001005A
:10069000020001000400010002000100030001004B
:1006A0000200010006000100020001000300010039
:1006B000020001000400010002000100030001002B
:1006C000020001000500010002000100030001001A
:1006D000020001000400010002000100030001000B
:1006E00002000100637C777BF26B6FC53001672BE2
:1006F000FED7AB76CA82C97DFA5947F0ADD4A2AF16
:100700009CA472C0B7FD9326363FF7CC34A5E5F123
:1007100071D8311504C723C31896059A071280E2D1
:10072000EB27B27509832C1A1B6E5AA0523BD6B325
:1007300029E32F8453D100ED20FCB15B6ACBBE3995
:100740004A4C58CFD0EFAAFB434D338545F9027F81
:10075000503C9FA851A3408F929D38F5BCB6DA213A
:1007600010FFF3D2CD0C13EC5F974417C4A77E3D66
:10077000645D197360814FDC222A908846EEB814BC
:10078000DE5E0BDBE0323A0A4906245CC2D3AC627F
:100790009195E479E7C8376D8DD54EA96C56F4EA8A
:1007A000657AAE08BA78252E1CA6B4C6E8DD741F9B
:1007B0004BBD8B8A703EB5664803F60E613557B95E
:1007C00086C11D9EE1F8981169D98E949B1E87E918
:1007D000CE5528DF8CA1890DBFE6426841992D0FC7
:1007E000B054BB1652096AD53036A538BF40A39E17
:1007F00081F3D7FB7CE339829B2FFF87348E434400
:10080000C4DEE9CB547B9432A6C2233DEE4C950B5B
:1008100042FAC34E082EA16628D924B2765BA249BB
:100820006D8BD12572F8F66486689816D4A45CCCDA
:100830005D65B6926C704850FDEDB9DA5E154657AD
:10084000A78D9D8490D8AB008CBCD30AF7E45805E3
:10085000B8B34506D02C1E8FCA3F0F02C1AFBD03EF
:1008600001138A6B3A9111414F67DCEA97F2CFCEC0
:10087000F0B4E67396AC7422E7AD3585E2F937E85B
:100880001C75DF6E47F11A711D29C5896FB7620E9D
:10089000AA18BE1BFC563E4BC6D279209ADBC0FE7E
:1008A00078CD5AF41FDDA8338807C731B11210592B
:1008B0002780EC5F60517FA919B54A0D2DE57A9F1D
:1008C00093C99CEFA0E03B4DAE2AF5B0C8EBBB3C12
:1008D00083539961172B047EBA77D626E169146396
:1008E00055210C7D8D01020408102040801B366CC0
:1008F000D8AB4D9A2F5EBC63C697356AD4B37DFAE8
:10090000EFC5913972E4D3BD61C29F254A94336625
:10091000CC831D3A74E8CB8D01020408102040807E
:100920001B366CD8AB4D9A2F5EBC63C697356AD424
:10093000B37DFAEFC5913972E4D3BD61C29F254AF8
:10094000943366CC831D3A74E8CB8D010204081001
:100950002040801B366CD8AB4D9A2F5EBC63C69787
:10096000356AD4B37DFAEFC5913972E4D3BD61C263
:100970009F254A943366CC831D3A74E8CB8D0102DF
:100980000408102040801B366CD8AB4D9A2F5EBCFB
:1009900063C697356AD4B37DFAEFC5913972E4D353
:1009A000BD61C29F254A943366CC831D3A74E8CB5F
:1009B0008D01020408102040801B366CD8AB4D9A84
:1009C0002F5EBC63C697356AD4B37DFAEFC5913903
:1009D00072E4D3BD61C29F254A943366CC831D3A2D
:1009E00074E8CB004F766572666C6F770D0A000075
:1009F0005344483A5741524E494E473A73645F62F6
:100A00006C655F656E61626C653A2052414D207382
:100A1000746172742073686F756C64206265206104
:100A2000646A757374656420746F20307825780D5E
:100A30000A00000041542B434744434F4E543D317C
:100A40002C224950222C2263746E6574220D0A00F8
:100A500041542B4E4D47533D33372C30300D0A0057
:100A600041542B4346554E3D300D0A0041542B4313
:100A7000474154543D300D0A0000000041542B43BF
:100A800045445258533D302C352C303130310D0A0D
:100A90000000000041542B4350534D533D312C2C4A
:100AA0002C30313030303031312C3031303030304A
:100AB00031310D0A0000000041542B434D45453DA6
:100AC000310D0A0041542B4347534E3D310D0A006E
