:020000040001F9
:10B0000010370020D5B00100EFB00100F1B0010011
:10B010000000000000000000000000000000000030
:10B02000000000000000000000000000F3B001007C
:10B030000000000000000000F5B00100F7B00100C2
:10B040008DBC0100F9B00100CDC00100F9B00100D4
:10B05000F9B0010000000000F5B90100F9B00100ED
:10B06000F9B00100F9B00100F9B00100F9B0010038
:10B07000F9B00100E1BC0100F9B00100F9B0010034
:10B08000F9B0010041BD0100F9B00100F9B00100C3
:10B09000E1BF0100F9B00100E9BF0100F9B0010012
:10B0A000F9B00100F9B0010000000000000000004C
:10B0B0000000000000000000000000000000000090
:10B0C0000348854600F080F800480047DDD80100BD
:10B0D000103700200321094802680A43026008482B
:10B0E00002680A4302600748804707480047FEE7B6
:10B0F000FEE7FEE7FEE7FEE7FEE70000240500406E
:10B10000540500402DC00100C1B0010030B50B4610
:10B11000014600202022012409E00D46D5409D4231
:10B1200005D31D469540491B2546954040191546B7
:10B13000521E002DF1DC30BD70B5002425460028DC
:10B1400001DA01244042002901DA01254942FFF7D2
:10B15000DDFFAC4200D04042002C00D0494270BD1F
:10B1600003460B439B0703D009E008C9121F08C020
:10B17000042AFAD203E00B780370401C491C521ECB
:10B18000F9D27047D2B201E00270401C491EFBD2D6
:10B1900070470022F6E710B513460A4604461946E2
:10B1A000FFF7F0FF204610BD421C0178401C00292B
:10B1B000FBD1801A704703460A780270401C491C74
:10B1C000002AF9D118467047064C0125064E05E0C5
:10B1D000E36807CC2B430C3C98471034B442F7D3B8
:10B1E000FFF772FF84F30100A4F30100F8B5214DCD
:10B1F0000746EA7B20A100F0C3FB002600280AD006
:10B200001F4804220178114301706E741DA10020B3
:10B2100000F0FCFD26E01749EA7B6D39384600F066
:10B22000AFFB144CE03C002860791DD0022805D00B
:10B23000032803D00F2801D0102806D1142216A10C
:10B24000384600F09DFB002810D06079062801D018
:10B250000B2806D1412210A1384600F091FB0028AE
:10B2600004D06E740420F8BD0F2801D00220F8BD70
:10B270000020F8BDB82D00204C69657264610000A3
:10B280009820002067707273206D6F64656C207267
:10B29000656164790D0A00004F4B000010B50C4643
:10B2A000002806D000F084FB21780122824011435F
:10B2B000217010BD10B5194A19491378002B06D01A
:10B2C000012802D11846FFF7E9FF012010BD53788D
:10B2D000002B09D09278002A1ED0012802D11046F6
:10B2E000FFF7DCFF022010BDD278002A06D001282B
:10B2F00002D11046FFF7D2FF032010BD08480838DE
:10B30000017A002906D00021017206A1002000F078
:10B310007DFD01E006210170002010BDD82C002029
:10B32000C02B00204576656E7420697320457272CB
:10B330006F72200D0A00000010B50E4C6078E11C01
:10B34000FFF7ACFF2146002060398875E2780123C1
:10B350001A43E2702070A0700A466070C03A107202
:10B360008876087740318876C87688831E20C8831F
:10B3700010BD0000D82C0020F8B504464578407A6E
:10B38000012832D0207A042830D003282ED0184843
:10B390008679F0212046FFF7FCFE0120607265707F
:10B3A00000202072134FA6702D01EE19307BE07043
:10B3B000B0887D21C9004843606020460A30009073
:10B3C0007959FFF7F8FE7859FFF7EEFE254660350C
:10B3D000A87320466F30B168FFF7EDFEA97B009897
:10B3E00002F0A2FBA078401CA070F8BD0026D0E7B8
:10B3F000D82C002058ED01007047000070B51348AC
:10B4000082780D2A0FD21249124B8D5C1E7B0146A9
:10B410000024C031042E07D00122032E12D00721B0
:10B4200001701A715D7170BD521CD2B282700D2A0A
:10B4300005D30622027084700220087770BD0321B4
:10B44000017070BD027084708C7670BDB82B0020C6
:10B4500008EF0100D82C002070B512488478052C24
:10B460000FD2114903460D5D104900220E7BC033F7
:10B47000042E07D00124032E0FD0072202704D7135
:10B480000C7170BD641CE1B28170052902D30421E6
:10B49000017003E00221017070BD047082709A7621
:10B4A00070BD0000B82B00202BED0100D82C00202F
:10B4B00030B5124881780A290DD2114A0023545C14
:10B4C000104A157B042D07D00121032D10D007232E
:10B4D00003705471117130BD491CC9B281700A29C1
:10B4E00003D303210170837030BD0421017030BD8E
:10B4F0000170837003486038837630BDB82B00201C
:10B5000015EF0100D82C0020F8B504463048314D25
:10B5100041882F4609194180A86A01212037A0429D
:10B5200004D3001BA862A04200D23973294880309E
:10B53000028DA2420AD3121B92B20285A24205D208
:10B54000803001740021062000F05EFD22480026B4
:10B550008188A14202D3091B818000E08680C188D6
:10B56000091989B2C1800A2905D30A39C18001218C
:10B57000062000F049FD16487D224188D200914204
:10B5800024D34680E87E00280DD0A88B401C80B2D2
:10B59000A883E98B884206D3AE830E49EE7678788D
:10B5A0002231FFF77BFE0B484038017F02290DD185
:10B5B000817D01290AD1018B491C89B20183F029BF
:10B5C00004D30683F87804210843F870F8BD00001E
:10B5D00094200020B82C0020B82B0020F8B5144F80
:10B5E00000253D60134E14483446E0347573A27B49
:10B5F000E273A5732574214656390090FFF7B0FD1C
:10B60000042038600098FFF7F1FD307302280DD058
:10B61000607C00280AD0012807D10221062000F012
:10B62000F3FC06A1002000F0F1FB3573F8BD00002B
:10B6300000250040D82C0020C52B00205354415237
:10B6400054204445434F44450D0A0000F0B57F4C5B
:10B6500085B02546E81D2278F930039040380290E5
:10B660007B48A9880078FB23019018400090A878B7
:10B67000FF35012600272135130000F050FF082672
:10B680004C7A8E94AAC90532287B002870D00228F3
:10B6900001D0012805D1A879E979884201D3032096
:10B6A0002873607881006B484158002902D06748B0
:10B6B0000D308847287B042801D0032801D10720BA
:10B6C0006070039887626F73B8E0002950D10A2137
:10B6D000002809D001280FD0022816D002988776BA
:10B6E000677002202070A8E05B4A0820D0608001CB
:10B6F000D060A670A180A1E0574A08209060022087
:10B70000A0705648A180067098E00120524940027E
:10B710008860032029E0002978D1002816D001286C
:10B720001ED00298877666702770A770FFF704FE18
:10B730004B480178491CC9B2017003297ED30770B8
:10B740004348082201781143017077E00120424903
:10B750004002C860A670C820A080404807706DE015
:10B7600001203D49400288600220A07032202EE076
:10B770004CE0002902D00199490747D5002824D080
:10B78000A7803349009B0B706270072121703149FB
:10B790002E71491F085C687153E0627007212170A7
:10B7A0002E713049F6E7002902D0019949072DD5BD
:10B7B00000280AD0A7802649009B0B7062700721E1
:10B7C000217028492E710D31E4E72748A670A0802A
:10B7D00034E00120FFF76EFD607200282ED0207A41
:10B7E00000282BD0A078002800D126730399897EE9
:10B7F000032901D3002807D0217861700721217027
:10B8000014492E710839C5E76670267005B0F0BD81
:10B810000020FFF74FFD002802D0A07A3043A0722D
:10B82000A07A00280AD000F0C3F8411D2170A17A47
:10B830008640B143A17206206070A7702879012864
:10B84000E4D12F710948FFF797FDDFE7B82B0020FF
:10B850009820002030ED010000050050A0200020BD
:10B860009420002008EF0100204E0000DC2C002076
:10B87000F8B50546154F164E24E03C5C002C02D06E
:10B88000012C19D108E0FF210131124800F086FC9B
:10B89000012811D101210CE00F48C17A0F480C3169
:10B8A000006800F05BF801460B48007C814203D140
:10B8B0000221052000F0A8FB2146284601F02AFDC0
:10B8C000012802D0705D0028D7D1F8BD24F0010016
:10B8D000D12000200C2E0020F82D00209C200020DC
:10B8E00010B50E490A78002A0FD0012A10D0022A7A
:10B8F0000AD14A78002A03D000228B1C1A804A7091
:10B900000422C82100F032F910BD01F0D7FB10BDB0
:10B9100001224A7000227D21C900F3E7A020002007
:10B92000F8B505460B4F0C4E10E03C5C230000F0D0
:10B93000F6FD02020507FFF751FE01E0FFF786FE64
:10B940002146284601F0E6FC012802D0705D00285F
:10B95000EBD1F8BD24F00100D120002010B5002269
:10B96000064C03E003785340E25C401C0B46491E42
:10B9700089B2002BF6D1104610BD000024EF010063
:10B9800070B500240B4605781E78B54205D15D7868
:10B990005B1C002D02D1012070BD0B464578401C78
:10B9A000002D03D0641CA4B29442ECD3002070BDDF
:10B9B0000146002001231A4682400A4204D1401C5D
:10B9C000C0B20828F7D3FF207047000070B50446C6
:10B9D000064E074D05E0315C204601F09BFC012836
:10B9E00002D0285D0028F6D170BD000024F00100CF
:10B9F000D1200020F0B50024FF268BB001360125B0
:10BA000027460694304602F0F3FA002807D054483F
:10BA10004068284203D0304602F0E2FA2C43361D3B
:10BA20006D007F1CB6B2042FECD3FF257D35284670
:10BA300002F0DEFA002809D0284602F0D1FA6807A1
:10BA4000044306AA0121002002F0B6FA454D200762
:10BA500014D00127002627420CD04348B200111809
:10BA600008690969C004C00E8903AA58890F002A11
:10BA700000D090477F00761C042EECD3002C6DDAAA
:10BA800000200890401E63E0281940300778B9066E
:10BA9000890E009100214156491C49D009A90098FE
:10BAA00002F003F9002843D0B8090190009801F092
:10BAB00029FC80002F580198002F02D0032802D0C3
:10BAC0000DE0032834D1009808ABC2084107944622
:10BAD000985C490F01228A401043624698540098AE
:10BAE0000521090780004018072109024018006855
:10BAF00006A98003800F0290009802F0D6F8002873
:10BB0000029802D0022802D012E0032810D1019836
:10BB1000032808D1029802281ED00221009802F0C2
:10BB200026FA761CF6B2002F02D001990098B84789
:10BB3000641C042CA8D3002E10D06A4601210020DA
:10BB400002F03AFA06990098884207D006900898C1
:10BB500000263446099097E70321DFE70BB0F0BDDC
:10BB600000630040382400200065004070B5154691
:10BB700052060C4C160E2288101880B22080884283
:10BB80000ED301F0A3FA00202080002D08D0A17868
:10BB9000491CC9B2A170B14202D3A070A11E0870A5
:10BBA00070BD0000A220002070B50446064E074D6F
:10BBB00005E0315C204601F0ADFB012802D0285D94
:10BBC0000028F6D170BD000024F00100D120002033
:10BBD00070B50446064E074D05E0315C204601F085
:10BBE00099FB012802D0285D0028F6D170BD000025
:10BBF00024F00100D120002070B50446064E074D08
:10BC000005E0315C204601F085FB012802D0285D6B
:10BC10000028F6D170BD000024F00100D1200020E2
:10BC20008307FF22DB0E9A408907090E99400028FE
:10BC30000BDA0007000F0838830808489B00181823
:10BC4000C36993430B43C3617047830804489B0057
:10BC50001B181868904308431860704700ED00E017
:10BC600000E400E070B50446064E074D05E0315C87
:10BC7000204601F04FFB012802D0285D0028F6D1B4
:10BC800070BD000024F00100D1200020F8B5FF2095
:10BC9000013002F012F8002401250E4E0E4F00284C
:10BCA00007D00E4804600120B0607D70002001F0D4
:10BCB00047FBFF20053002F000F8002808D00748B5
:10BCC000001D04600220B060BD70012001F038FB4F
:10BCD000F8BD0000000300402424002000010040C3
:10BCE0001CB500246846047000F018FE02F0C6FD82
:10BCF000002818D10E480168002914D00D49896820
:10BD0000C907C90F0FD004600B48806869460871E5
:10BD100001A90A4802F0A0FA084802F087FA0028B0
:10BD200001D002F0F3F86846007800F015FE1CBD63
:10BD300000D1004000D3004000D50040E0EC0100FD
:10BD400010B506490020086048608860C860034953
:10BD500040390860486002F04FFE10BD40110140BC
:10BD600010B503480078002801D100F059FA10BD41
:10BD7000402B0020F8B506460C48144600780D46C6
:10BD8000002801D100F04CFA0023684600930370AC
:10BD900000F0C4FD22462946304600F009F804466A
:10BDA0006846007800F0D8FD2046F8BD402B002002
:10BDB00070B50E4618214843134914464518E86AE1
:10BDC0001835002804D001280FD0022805D113E02F
:10BDD000284600F05BFAA04201D2002411E022467E
:10BDE0003146284600F07DFB0BE0284600F04EFA75
:10BDF000A042F4D20446F2E73146284600F041FB67
:10BE00000446204670BD0000402B00200FB408B54A
:10BE100004A900916A46039900F004F801B008BC37
:10BE200004B01847F7B598B007A802904020002545
:10BE30000495039018980C46059506902178641C8B
:10BE4000002977D0252907D002A800F0FBFA059831
:10BE50000028F3DA1BB0F0BD0122002102271346AF
:10BE60000826207823281BD02B2816D02D2802D076
:10BE7000302806D101E0194300E03943641C002A50
:10BE8000EFD1002220780346303B0A2B0AD20A2346
:10BE90005A431218303A641CF4E704200143EDE7DA
:10BEA0003143EBE70023C7B22E2F0AD1641C207860
:10BEB0000746303F0A2F04D20A277B431B18303B2A
:10BEC000F4E76C280DD068280BD0702852D00BDC1A
:10BED00025285AD058282ED063280CD0642858D151
:10BEE00010E02078641CECE7732832D0752817D056
:10BEF00078284ED11FE01A981A9A0068011D116027
:10BF0000017843E01A981A9F0068061D3E60006899
:10BF10000191009201460A2202A800F0C2F938E01D
:10BF20001A981A9F0068061D3E60006800920191F1
:10BF30000A2209E02FE01A981A9F0068061D3E6049
:10BF40000068009201911022014602A800F00EFA4A
:10BF50001FE01A981A9A0068011D1160066831786E
:10BF6000761C002915D002A800F06CFA059800286C
:10BF7000F5DA0EE01A981A9A00680823011D11607C
:10BF80000168102200960195DFE7252102A800F044
:10BF900059FA641C5BE70598002800DC5AE704980E
:10BFA000002804D0024607A91898FFF7E3FE049979
:10BFB0000598401805904DE770B50446064E074DAC
:10BFC00005E0315C204601F0A5F9012802D0285D8A
:10BFD0000028F6D170BD000024F00100D12000201F
:10BFE00010B502F07BFC10BD10B506484068002873
:10BFF00005D08047002801D000F0DCFB10BD01F027
:10C0000005FB10BD8020002001231A4682408B4092
:10C0100010B504490C7814430C7003490A5C1A43A8
:10C020000A5410BDD0200020D120002010B501F00E
:10C030003BFB002805D01F491D484860C8131E4916
:10C0400088611E48018CC9B201290BD1828C12076C
:10C0500008D1028D1206120F042A03D1828D120616
:10C06000120F0AD0012921D1818C09071ED1018D1F
:10C070000906090F0A2904D007E0114A012191603D
:10C08000F5E7828D1206120F05D00D290ED1808D95
:10C090000006000F0AD10B480168012904D00A49A3
:10C0A000016001680129FCD1C021416110BD00007F
:10C0B000DFFF07C000050040006C0040C00F00F02B
:10C0C0000006004000EC064075930000F8B52E4CC9
:10C0D00001214902204602F01CF900252B4F0126C0
:10C0E000002818D0FF212531204602F00DF9002844
:10C0F00011D0FF20253025508120254980008860FF
:10C100003878002800D1666020480822001D017898
:10C110001143017028E00421204602F0FAF80028BB
:10C1200022D0FF210931204602F0EEF800281BD072
:10C13000FF20093025501748467317488269154972
:10C14000E031887B0B46563BC254887B401CC0B212
:10C150008873642800D38D730E48142160300185E4
:10C160003878002800D16660FF214531204602F072
:10C17000CBF8002806D0FF2045302550387800281D
:10C1800000D02660F8BD000000200040A82000205C
:10C1900000230040D82C00200025004030B51C4B67
:10C1A000002119600278811C140242782243194C44
:10C1B000A24227D10C78184A240254804D78254396
:10C1C00055808C781471CC7854710C7994714C79B9
:10C1D000D4718C791472CC7954720C7A09319472BE
:10C1E000AA2C01D0552C0DD10C78D472491CD160E9
:10C1F00061180C7814744A78897812021143074A3E
:10C20000914201D0002030BD1860012030BD0000F7
:10C210009C200020A5F00000F82D00200D16000045
:10C2200010B5124C02202061606111A0A06113487A
:10C23000E0610120400220620020A06260620CA147
:10C24000A1642146E0621039E16410212165A065F6
:10C250006065E0650AA1E01DFEF7ADFF09A120467B
:10C26000FEF7A9FF2020A07110BD0000402B002088
:10C270005465726D696E616C000000003029002009
:10C280005254540053454747455200000269C16863
:10C290008A4203D88068401A801800E0501A401E75
:10C2A0007047FFB583B00E4670420D9F0C9C009006
:10C2B000002900DB0846012502E0FEF73DFF6D1C6A
:10C2C00005998842F9DA0698A84200D90546002C5B
:10C2D00004D0002E01DB780700D5641EB80702D514
:10C2E0000698002810D0F8070ED1002C0CD0A542DB
:10C2F0000AD22021641E039800F0A4F80398C068B5
:10C300000028F2DA07B0F0BD0398C0680028F9DB16
:10C31000002E02DA2D21009E02E0780707D52B219E
:10C32000039800F08FF80398C0680028EADBB8078C
:10C33000800F022810D1069800280DD1002C0BD0B8
:10C34000A54209D23021641E039800F07BF80398BF
:10C35000C0680028F2DAD5E7019700943146069BC1
:10C36000059A039800F002F8CCE70000FFB581B011
:10C3700001261F4634460A9D029802E0FEF7C6FEDB
:10C38000641C03998842F9D2A74200D93C460B9815
:10C39000C00718D1002D16D00B98800701D5002FAB
:10C3A00002D0202000900CE03020FBE76D1E0099A9
:10C3B000019800F047F80198C06800283DDB002D87
:10C3C00001D0AC42F2D30198C068002835DB012FC0
:10C3D00001D97F1E06E031460298FEF797FE0399C9
:10C3E000884202D303984643F1E7154F314602983D
:10C3F000FEF78CFE0146029A7143511A0291395C94
:10C40000019800F01FF80198C068002805DB30464D
:10C410000399FEF77BFE0600E8D10B98C0070CD00D
:10C42000002D0AD0AC4208D220216D1E019800F0E8
:10C4300009F80198C0680028F2DA05B0F0BD0000E4
:10C4400018ED010010B5044680686368421C9342F1
:10C4500005D323681954A260E068401CE060A2681C
:10C460006068824209D121682069FFF783FCA168D6
:10C47000884203D00020C043E06010BD0020A060CF
:10C4800010BDF7B5064682B000200090F46817464C
:10C490003069A04201D9051B02E0B168201A0D1ACB
:10C4A000B0686D1E001BA84200D80546BD4200D3EF
:10C4B0003D4670682A4600190399FEF751FE009820
:10C4C0007F1B401900900398641940190390B068CD
:10C4D000A04200D10024F460002FD9D1009805B00B
:10C4E000F0BDF7B5C668174604468068851B6068CE
:10C4F000BD4206D980190199FEF732FEF019E060BD
:10C50000FEBD2A4680190199FEF72AFE01987E1B7E
:10C51000411932466068FEF723FEE660FEBD30B486
:10C520007446641E2578641CAB4200D21D46635DD0
:10C530005B00E31830BC184702E008C8121F08C1AE
:10C54000002AFAD170477047002001E001C1121F94
:10C55000002AFBD170470000202804DA0121814025
:10C560000348014201D001207047002070470000BD
:10C57000FC06FFBCF7B584B0064600251788158079
:10C5800020300290407B1446002806D03A462146CF
:10C59000059800F027FC050009D1B078002823D0C9
:10C5A000059886462088001DB84202D90C2007B0A5
:10C5B000F0BD684679DF0028F9D121880320724652
:10C5C000505420881921401C80B2208011542088AA
:10C5D0007146401C80B2208041186846008802F0F5
:10C5E0008BFA218840182080F078002817D0218805
:10C5F00003230A46F356C91C0598B942D6D802212E
:10C60000815421880122491C89B221804254218809
:10C61000491C89B2218043542088401C20807068C6
:10C62000002817D021880023C3560A46C91C059844
:10C63000B942BBD80221815421880A22491C89B2FF
:10C64000218042542188491C89B22180435420888A
:10C65000401C2080308900280AD000943046019781
:10C66000062202210830059B02F094FA05009ED1B3
:10C67000308A00280AD0009430460197072203210F
:10C680001030059B02F086FA050090D1308B00280F
:10C690000AD0009430460197152214211830059BCA
:10C6A00002F078FA050082D1306A002806D03B46B5
:10C6B0002246059900F0ACFE0500D8D1706A00282A
:10C6C00006D03B462246059901F0FAF90500CED185
:10C6D0000298007B002807D03B4622463046059949
:10C6E00001F070FF0500C2D13078002807D03B462A
:10C6F00022463046059901F089FA0500B7D128464F
:10C7000055E70000174A0021535C002B01D001229D
:10C7100003E0491C0629F7D300221349012806D05B
:10C7200002280BD0032810D0042818D112E0487832
:10C73000002803D0002A01D0012070478878002803
:10C7400003D0002A01D002207047C878002801D009
:10C75000032070470879002801D00420704700208A
:10C76000704700001D2000203C22002009A101206C
:10C7700001F006FD01F058FC01F05CFC0028FBD143
:10C7800000BEBFF34F8F0A490848C860BFF34F8F00
:10C7900000BFFDE74150505F4552524F523A45525B
:10C7A000524F523A466174616C0D0A000400FA055A
:10C7B00000ED00E00EB50021029000916A46019163
:10C7C0000148FFF7D3FF0EBD01400000094B5B6835
:10C7D000002B07D0002A07D0002805D00068037C72
:10C7E000002B03D008207047072070474174426136
:10C7F000002070475C200020FFB507469007002509
:10C8000081B01E461446002825D1002C23D001F00B
:10C8100025FE3046114EF0603046103005704570F0
:10C820000299817044607560357001240C48757000
:10C830002405046003211420FFF7F2F9094804607D
:10C84000094CA76003211120FFF7EAF96068B06086
:10C85000002005B0F0BD0720FBE700004C200020C1
:10C8600080E200E000E100E000150140FEB51F4B52
:10C870005B68002B30D000282ED0052901D207207C
:10C88000FEBD4369002B27D0437C012B26D0002717
:10C89000029104460025694616460D70684600F070
:10C8A0003DF801A802F060F9002819D001210170BB
:10C8B0000F49446049688160029907614661C1601F
:10C8C00068460A49007948706846007800F044F8E4
:10C8D00002F046F82846FEBD0820FEBD0F46D7E709
:10C8E00068460425007800F037F8F3E75C20002064
:10C8F0000015014010B50849496800290AD00028F0
:10C9000008D04169002905D000210174022102F0FC
:10C910004FF810BD082010BD5C20002030B5EFF3AB
:10C92000108172B6094A54680123002C04D00370A8
:10C93000002900D162B630BD5360054B1D68054C1F
:10C94000254015601C6000220270F1E77020002075
:10C9500080E100E0FC06FFBC08494A68002A0CD0D0
:10C9600000280AD1EFF3108072B60A68044B1A60EF
:10C9700000224A60002800D162B670477020002073
:10C9800000E100E0F0B50C4693B01F216A4611802B
:10C99000072600279180002809D0C17849070DD5C6
:10C9A00002A9FFF7E7FD002809D102AD01E000254B
:10C9B0001780002C0ED0E078002802D0304613B04B
:10C9C000F0BD01AA0AA92046FFF7D4FD0028F6D140
:10C9D0000AAA02E068460022878068468088C3B2BF
:10C9E00068460088C1B2284672DFE8E7FFB581B02B
:10C9F0001E460A9F1346040047D0002B45D0504DD9
:10CA0000012028700020E870202219464D48FEF7CA
:10CA1000A7FB00206F61C0432E61288128460721B3
:10CA20001830FEF7B6FB47483C212030FEF7B1FB3B
:10CA30004448217820300170A1788170E178C1707C
:10CA4000617841703F4A65692369556311461363F4
:10CA50002031E368A268CB608A603A49E369A26941
:10CA6000CB638A63616A00291AD001463C310246D1
:10CA7000483241628A60636A1B880B80616A436A3C
:10CA8000898899800021436A07E00E2005B0F0BD37
:10CA9000656AAD686D5C5554491C9D888D42F7D818
:10CAA000A16A00291CD0274A943211460C398A60A9
:10CAB0008162A36A9B888B80A16A836A0988198036
:10CAC0000021836A04E0A56AAD686D5C5554491C79
:10CAD0009D888D42F7D82C210A5D1A4940310A738E
:10CAE000216A002909D016490A310162226A528856
:10CAF0004A80216A026A098811806168002900D091
:10CB00004160104A0E490020B3322031C3001B1A85
:10CB100085009B180C68401C63510828F6DB094A05
:10CB20000020EB32030185009B188C68401C635188
:10CB30000828F7DB034802992030FFF723FFA5E719
:10CB4000042000203C22002010B50188134C10293D
:10CB500015D0112919D01B2910D1007A00280DD128
:10CB6000E0780521401CFEF7D1FA084600F018F8DD
:10CB7000002803D06169002900D0884710BD817D5D
:10CB80000129FBD18088208110BD0021617180883E
:10CB900021898842F8D10120E8E700000420002024
:10CBA000F1B53F4C88B0207800280AD00898E07092
:10CBB00006A800F0C9FC06980125002804D065707D
:10CBC0006AE0082009B0F0BD354800270721183079
:10CBD000FEF7DFFA334E7078002802D0E0780128A3
:10CBE00007D0B07800280CD0E078012801D00228C6
:10CBF00007D12169002903D025710820884700E06A
:10CC000027710898FFF77EFDE0702169002909D09F
:10CC1000032801D0042805D13078002802D060799B
:10CC2000002811D0A77118216846FEF7B2FA6846AD
:10CC300007700772E1781A480B001830FFF76FFC95
:10CC4000052E080F191D2000A57107208847EAE767
:10CC5000A5700190684605704782078213E00221A3
:10CC6000A170019068460570B189418231890182C5
:10CC700009E0684601F0EEFC02E0684601F016FDAE
:10CC8000E078002803D0684673DF00289AD1216934
:10CC9000002901D0A0788847002093E7A770F6E725
:10CCA000042000203C22002070B50E4605460246B6
:10CCB00007A10020FFF7AAF8002406E0335D224612
:10CCC00008A10020FFF7A2F8641CAC42F6DB70BD9F
:10CCD00064617461206C656E677468203D20256412
:10CCE0000D0A0000646174615F656E63727970742F
:10CCF0005B25645D203D203078253032580D0A00D8
:10CD000070B5054601461C220E48FEF729FA0E4C66
:10CD1000002626702968002906D00822201DFEF76B
:10CD20001FFA201D7ADF02E00748001D7BDF002884
:10CD300007D1401E60806670044A00210448FFF756
:10CD400045FD70BD082400203420002005EB0100C3
:10CD5000C4EC0100F8B5214C0146028800261E48AB
:10CD6000E589102A13D01E4F112A1FD0122A2BD06A
:10CD7000502A1AD1881DC988A94216D14189022991
:10CD800013D10C3000F0D2F800280CD112E08A88C0
:10CD900004464280104808220C301831FEF7E0F9B2
:10CDA0006670002D01D100F07BFBF8BD0021C94366
:10CDB000418046703868FFF79DFD0028F5D0A169D5
:10CDC0000029F2D08847F8BD034808220C3008310A
:10CDD000FEF7C6F9E7E70000342000200824002011
:10CDE000C4EC01007CB5054608880C460930904229
:10CDF00001D90C207CBD684671DF0028FAD121885A
:10CE00000820685420881B21401C80B220802954AF
:10CE1000208800A9401C80B22080401906220131E0
:10CE2000FEF79EF920886946801D80B2208009782F
:10CE3000002900D0012129542088401C2080002096
:10CE40007CBD000010B50446FFF784FF214605486D
:10CE500000F03EF8204601F075FA2046FFF774FE18
:10CE600010BD0000B421002030B5184B0D46040061
:10CE70000FCB85B003936B4607C324D0002D22D07F
:10CE80000020C043A0822868A0610020A075214630
:10CE9000684663DF002814D1217868468174012137
:10CEA0000182A21C04A90120A0DF002809D1294683
:10CEB000204601F0F5FA002803D12946204601F06A
:10CEC000DBFD05B030BD0E20FBE70000C8EC010023
:10CED00010B500281BD0002919D00A88102A17D0B5
:10CEE000112A17D0502A12D104468A1DC888238AD5
:10CEF0001231984202D15389022B0FD0A388984255
:10CF000005D1A369002B02D052892046984710BD55
:10CF1000898801E00021C943818210BD084600F0E4
:10CF200005F8002800D00120A07510BD41780278D6
:10CF300008021043C007C00F7047000010B5144628
:10CF40000548FEF70DF900210520FFF75DF80249BD
:10CF50002046FFF7A9FE10BD0C2E002005490B5CF2
:10CF600005494A6801209840034693438B6010406E
:10CF7000C860704790EC01000005005010B50349EF
:10CF8000085C012101F00CF810BD000090EC0100DC
:10CF900010B50349085C002101F002F810BD000043
:10CFA00090EC01000549095C05484068C840C0078D
:10CFB000C00F00D0012001214840704790EC0100D3
:10CFC0000005005010B500242046FFF7D7FF641C71
:10CFD000042CF9D310BD10B500242046FFF7D8FF6C
:10CFE000641C042CF9D310BD0246002010B5C043C8
:10CFF000054B00215C5C944201D1084610BD491CE0
:10D000000429F7D310BD000094EC0100F3B581B002
:10D010000D460198FFF7E8FF0446042813D21D4887
:10D020001D4F1E4E002D27D0012D0DD0022D0AD1EF
:10D0300060002018C0194578002D04D0F16800293F
:10D0400001D028468847FEBD610061187D5CCF197C
:10D05000797800290BD071680A2251430F4A806801
:10D06000921CFFF703FC002801D10198B0700B4817
:10D07000B97810300155DFE78068FFF73BFC0748BF
:10D08000610061181030C919005D8D78A842D3D0B5
:10D09000FEBD000098EC010010220020F01F0020CF
:10D0A00010B5054A0146127A0020D20702D0084680
:10D0B00000F018F810BD0000F01F0020FF2002490A
:10D0C0000130C860704700000005005004494A68FC
:10D0D000FF200130034693438B601040C8607047C7
:10D0E00000050050F8B55D4C054660780026002824
:10D0F00003D000206070FFF765FF0120584F2B0020
:10D10000FFF70DFA18970D0D2E3D4A5F64686F68A2
:10D110006FA97777777777979A9DA0A9A99500202F
:10D12000FFF740FF00280AD00020FFF727FF022D5D
:10D1300002D1E120C0000BE07D20400108E000208A
:10D14000FFF726FF022D01D1C82001E0FF2091301A
:10D1500025706421FDF7DAFF6168414300222BE06E
:10D160000020FFF71FFF002805D00020FFF706FF73
:10D1700019204001ECE70020FFF70AFFE4E7002058
:10D18000FFF710FF002803D00020FFF7F7FED3E7DA
:10D190000020FFF7FDFED9E70020FFF703FF00287E
:10D1A00003D00020FFF7EAFE02E00020FFF7F0FEC8
:10D1B00025706068410000223868FFF757FB06467B
:10D1C00035E00020FFF7CAFE257007E000203FE0B1
:10D1D00025702CE060700120FFF7C0FE002261681E
:10D1E000EAE760700120FFF7B9FE6068810041182E
:10D1F000E1E77868FFF77EFB06461120401B01D06F
:10D20000002E03D00220FFF7B9FE10E001280BD951
:10D21000C82148436421FDF779FF6168002241433A
:10D220007868FFF723FB06460220FFF7B1FE304681
:10D23000F8BDFFF7C7FECBE7FFF7C4FEC6E7FFF771
:10D24000C1FE04E0FFF7BEFE0020FFF7A1FE0120B3
:10D25000FFF79EFEBCE7FFF7BEFEB9E7F01F002018
:10D2600098EC0100F8B50D46461C00206946087090
:10D2700001246846FFF752FB134A106828601168C2
:10D2800050689368081A1D1A701C6D1CA84212D9A8
:10D29000002D0ED00D480E4C0088246880051940E2
:10D2A000800DA402890020438918C8601068401CC2
:10D2B0001060002401E08819106068460078FFF7CC
:10D2C0004BFB2046F8BD000018250020F4EC0100BF
:10D2D0007C200020034803C8814201D1012070470F
:10D2E00000207047182500200022D2438300044903
:10D2F0000428CA5002D30818203002777047000073
:10D3000038240020024909182020085670470000E0
:10D310003824002030B5084C0122235C15468D408E
:10D32000AB43235401D0002030BD82400348017834
:10D3300091430170012030BDD1200020D020002079
:10D3400070B5084C050009D010342168002907D0B9
:10D3500008682060496828468847F6E70834F4E7FB
:10D3600070BD000024240020F8B52348416800293E
:10D370003ED00E6821494C6887688078E11B0D0219
:10D380002D0AED1C002814D101201D4A0004506014
:10D390001B4A403A50601B49400008601A49086027
:10D3A0001A49012008602F2000F090FC124901204A
:10D3B0008870B54200D23546E81900020F4B000ACA
:10D3C000403318600D4A5168001B091B0902090A05
:10D3D0000002000AC91C814209D9506818602F2038
:10D3E00000F074FC01200749400480390860F8BD52
:10D3F00001F034F8F8BD00004C2000200015014079
:10D400004013014080E200E000E100E00010014034
:10D41000F8B50646108814468446801D0D4698428D
:10D4200001D90C20F8BD32880720062AFAD3192723
:10D43000FF01184BBA4201D99A42F3D171880629EB
:10D44000F0D3B94201D99942ECD19A4203D0994222
:10D4500001D08A42E6D8052160462954208812214D
:10D46000401C80B2208029542088401C80B220803B
:10D470004119308801F040FB2188401880B220809B
:10D480004119708801F038FB218840182080002065
:10D49000F8BD0000FFFF000010B5FFF78BF910BDCD
:10D4A000F8B5164800F0F2F8144D00260C3D144C67
:10D4B000002807D0616900291CD001206A4610703D
:10D4C000684616E02878002805D06169002911D047
:10D4D000684606700DE0687800280DD0A1680948FC
:10D4E00000220068FFF7C2F9002803D0A1690029D3
:10D4F00000D088472E70F8BD6168F0E7402000201A
:10D5000008240020C4EC010010B50E4900230A785D
:10D510004C78A24212D0521CD2B20A70022A00D118
:10D520000B700A78074B920018339A58026088688B
:10D5300010180002000A8860012010BD036000205E
:10D5400010BD00004C200020002804D00349496E83
:10D55000016000207047032070470000B0240020C5
:10D5600010B5054A01210548FFF730F9002801D020
:10D57000FFF720F910BD000059D8010020EF01008D
:10D580000248002141708170C1707047A8200020BE
:10D5900010B500F039FC082000F0DFFCFF201A492C
:10D5A000013088600021012000F0CEFC022000F054
:10D5B000D4FC022000F0ECFC0021042000F0C4FCAC
:10D5C000042000F0CAFC042000F0E2FC052000F07A
:10D5D000C4FC052000F0DCFC0021062000F0B4FCB7
:10D5E000072000F0BAFC072000F0D2FC032000F076
:10D5F000B4FC032000F0CCFC092000F0AEFC0920B4
:10D6000000F0C6FC10BD000000050050F8B51E4C2F
:10D610002078002836D0E068002600280CD00025AD
:10D62000607800282ED1684652DF052806D00028F1
:10D6300006D0FFF7BFF80BE00125F1E7012607E070
:10D64000009800F099FB2169002901D000988847D3
:10D65000002D13D16078002814D1608869460880B5
:10D66000A06861DF052804D0002804D0FFF7A2F8E5
:10D6700004E0012502E0E168A0688847002ECFD0D1
:10D68000002DE5D0F8BD000080200020418805482D
:10D690000288914204D34088814201D8012070471A
:10D6A00000207047382000201048018CC9B20129A1
:10D6B00017D1818C090714D1018D09060A0F03D1F6
:10D6C000828D1206120F0ED0090F012903D1828D0F
:10D6D0001206120F07D0032903D1808D0006000F18
:10D6E00001D000207047012070470000C00F00F0FB
:10D6F000F0B5284C2146103948688B682278864658
:10D700009C46CF78667836E0182353436168521CF4
:10D71000C918A378D2B2934200D100220B78022B11
:10D7200002D0032B27D123E003464D68194603E0BE
:10D73000A94204D00B46C96900291CD0F8E700298A
:10D7400019D08B4208D1C069002805D1124F01259C
:10D75000BD600025AC4601270D68C969D961002963
:10D7600009D00B685B190B6005E00174C06900E02B
:10D7700000210028F9D19642C6D1064962461039E7
:10D780008A604860CF70704501D00120F0BD002054
:10D79000F0BD00005C20002000100140F8B52C4EC8
:10D7A000044670680025009041E0002C02D020461D
:10D7B000E46920E0264818231030017842684B4382
:10D7C000491CC9B2D21801708378994200D1057002
:10D7D0001178506801292CD1017C002929D1916848
:10D7E0004160D16881601169C16051698161F178DE
:10D7F000002900D045604368B268164F991A0902A3
:10D80000090AB94202D28268891806E0D11A0902CF
:10D810008268090A8A4202D9511A016000E0056053
:10D820004560012185600174C56101F0A1F8002CFB
:10D83000BBD107481030017840788142BAD1716875
:10D840000098814201D00120F8BD0020F8BD000001
:10D850004C200020FFFF7F0070B51D4D1D4C288817
:10D86000401C28802078000702D40A20FDF74CFED7
:10D870000A20FEF735F82888642828D300262E8051
:10D880002078154DC10701D1810713D5E988491CBE
:10D89000E980E988B4290DD3EE80C00703D00021C8
:10D8A0000420FEF7B1FB2078800703D50121042076
:10D8B000FEF7AAFB2078010709D52989491C29818F
:10D8C0002989782903D32E81F7210840207070BD63
:10D8D0009A20002098200020EC2D00200023A8B0E2
:10D8E000624A05211846FEF787FF002801D0FEF79F
:10D8F00061FFFEF735FA5EA10020FEF787FA604867
:10D900005A4900680590002348225C3905A800F0B8
:10D9100079FF002801D0FEF74DFF6A460121002063
:10D9200000F058FF002801D0FEF744FF684600F0E1
:10D93000FFFE002801D0FEF73DFF524800F0EEFE4A
:10D94000002801D0FEF736FFFFF722FE00F09CFF13
:10D9500011206946087207224BA102A87CDF00282B
:10D9600001D0FEF727FF002400941021684601949F
:10D9700001803C214180FF2184809131C1807ADF88
:10D98000002801D0FEF716FF41480090374869464D
:10D990007830FFF769FA002801D0FEF70BFF3C2131
:10D9A00001A8FDF7F6FB022168460171847105218B
:10D9B000C1713C2110A8FDF7ECFB012510A80582E0
:10D9C0003448159020211FA8FDF7E3FB18A8C57760
:10D9D000192080012390B42024902F4B1FAA10A956
:10D9E000009401A8FFF702F8002801D0FEF7E2FE3C
:10D9F0001C216846FDF7CDFB0520C00301900F20D8
:10DA0000000402900094032168460173C4810474E9
:10DA100022480590224806906846FFF771F90028D1
:10DA200001D0FEF7C7FE002000F01CFA002801D04C
:10DA3000FEF7C0FE0320FFF7B3F8002801D0FEF781
:10DA4000B9FE18A10020FEF7E1F91A4C1A4D1B4E41
:10DA500003E0285C81007158884720780028F8D1BD
:10DA600048DF0028F9D0FEF7A5FEF6E73C210020AC
:10DA70004D61696E205374617274210D0A000000BB
:10DA80008CEC010045CE0100414E47554D454E00FE
:10DA90003DCF0100EC1F002023E3010015E401004D
:10DAA00099D40100416476205374617274210D0A87
:10DAB00000000000D020002024F00100B020002051
:10DAC00070B5144682880E4605462088111D4118FF
:10DAD000921C994201D8FE2A01D90C2070BD521C1B
:10DAE00032542088FF21401C80B22080315420888D
:10DAF000401C80B220808119288800F0FDFF218819
:10DB0000401880B22080AA88002A09D0A96800297C
:10DB100008D08019FDF724FB2088A98840182080B0
:10DB2000002070BD072070BDF3B581B00E0029D074
:10DB300015490878002825D0FF20144C1D300022FC
:10DB400022500127A760154619E00F4A10780028D7
:10DB500017D0FF211D31002060500198435D0C4813
:10DB6000C36103E008480078002806D0FF211D317A
:10DB7000204600F0C9FB0028F4D06D1CEDB2B54280
:10DB8000E3D3E760FEBD0000A82000200020004095
:10DB900000250040F8B5174F3878002828D1FFF746
:10DBA000EFFC174E1448154D70620024F4660720F0
:10DBB00006217161F060FF201D302C50114980203A
:10DBC0008860FF2009302C50FF2045302C500E4833
:10DBD00048600321022000F0D5F8FF2025302C50AA
:10DBE000FF2009302C50012038700421316028605A
:10DBF000F8BD0000A82000200050270000200040B1
:10DC0000002500400023004004000200F8B50F4644
:10DC1000017814460546012902D16878002806D00B
:10DC20002088821C9A422DD8012902D006E00720C4
:10DC3000F8BD69784118891C994223D8181A801EAA
:10DC400086B2684606802188B81C081869467DDFC0
:10DC50000028EDD12878022805D169460988B1420B
:10DC600001D809210AE00821012805D16878B042CD
:10DC700002D86A46108001E068460680684600883F
:10DC8000FE2801D90C20F8BD2288401CB8542088F9
:10DC9000401C80B22080395420886946401C208076
:10DCA0000988401820800020F8BDC20843075B0F98
:10DCB0000120895C9840084070470121890740187D
:10DCC0000068002800D001207047000000280FD015
:10DCD0000849094A096800BF00BF00BF00BF00BF74
:10DCE00000BF00BF00BF914200D000BF0138F2D199
:10DCF00070470000DC2000200024F40070B50E4CBA
:10DD000000252078002801D0852513E00021A1609E
:10DD100061602161E160094800680126304002D15C
:10DD2000032100F02FF800F0A9FD002801D10448DC
:10DD300086612670284670BD2424002000E100E0A2
:10DD40000005004038B50020694608706846FEF7B7
:10DD5000E5FD084C2078002801D1FFF7CFFFE068EF
:10DD6000401CE0600120A07068460078FEF7F4FDDA
:10DD700038BD00002424002010B5002801D1FFF791
:10DD8000DFFA10BD8207D30EFF229A408907090EE1
:10DD900010B5994000280BDA03071B0F083B9C08BD
:10DDA0000C4BA400E318DC6994430C43DC6107E0EE
:10DDB0008408094BA400E418236893430B432360B1
:10DDC000C106C90E01208840044908600449086062
:10DDD00010BD000000ED00E000E400E080E200E0A3
:10DDE00000E100E04109074A890089180968C20674
:10DDF000D20E01209040014201D001207047002046
:10DE00007047000000E100E070B5144D287900284B
:10DE100001D0082070BD114900204039421E0B1866
:10DE20002033401CC0B21A702028F8D300242046AA
:10DE3000FFF75AFA641CE4B2082CF8D30321062039
:10DE4000FFF7A0FFFF207D3000F0CAF80120044951
:10DE5000C007486001202871002070BD7824002090
:10DE60000063004038B5124C2178002901D085208C
:10DE700038BD002800D10F480D4902784A7040781B
:10DE800088700020694608706846FEF747FD00F07C
:10DE9000F5FC002803D100F00FF800F027F86846E1
:10DEA0000078FEF759FD01202070002038BD0000E9
:10DEB00048200020DCEC010010B509484178002919
:10DEC00004D008494A6801231A434A6006490A688F
:10DED000520852000A6081780D20FFF753FF10BDF1
:10DEE0004820002000D5004000D20040054A002014
:10DEF00003491060044A0120506008607047000028
:10DF000000D0004000D1004000D300400249012071
:10DF1000886002490860704700D3004004D0004088
:10DF200070B552000A439900049D0A432902059ED8
:10DF30000A43310405240A432407800007210019FD
:10DF400009024018026070BD1CB500220B46009209
:10DF500011460192FFF7E4FF1CBD1CB500210091A2
:10DF60000B46012201911146FFF7DAFF1CBD052285
:10DF7000120780008218072000021018026803238D
:10DF80001B049A430260026809040A430260704756
:10DF9000012181400148C160704700000005005028
:10DFA000012282400348002901D082607047C2608C
:10DFB000704700000005005038B5084B05241B6869
:10DFC000009324026B46411805E085005D592D1928
:10DFD0002D69401C20C28142F7D838BDD8EC010021
:10DFE00002494018002101607047000000600040B5
:10DFF000034940180068012800D000207047000045
:10E000000060004070B5074D04462878002802D013
:10E010006878844204D0FDF7A3FE012028706C705C
:10E02000002070BD7820002010B50120FFF7EAFF26
:10E0300010BD0000F0B595B0FFF74CF9002802D0F4
:10E04000002015B0F0BD4B48446886682146314039
:10E05000890009180C94CD680BE02904A80D890DDE
:10E060004018041920463040810042480C9408189A
:10E07000C568641CA807F0D000200890A807800F8E
:10E080003D4B022807D0AA0AA805000F84460EA916
:10E090009646002059E02046304081003548641CF7
:10E0A0000818C068049486462804800D84463440CD
:10E0B000301B8000AF0D001D874222D92D490C3145
:10E0C000002807D02B4AA400A21814460C34C2B270
:10E0D000381A03E00C460021FAB20846C0B2039099
:10E0E000019202910094A8065C69400F6346724653
:10E0F0000899A047B84213D1FF1C0498B9080C181E
:10E1000030E01C48A200101800210C300090029151
:10E1100001970391A8065C69400F63467246E8E7E1
:10E12000164980050D40000C05430C9830408100D5
:10E1300010480818C56017E027463740BA000D4F51
:10E14000401CD719FF68641C80C167466045F3D343
:10E15000A80600971D69400F0EAB72460899A847A4
:10E16000002801D003484460FFF7B4F8012148407B
:10E1700067E7000018250020182900203F00FFFF56
:10E18000F8B5104D0E46074600206946AC68FFF70B
:10E1900069F8002815D00C483C218088884379070D
:10E1A000890E08430F21890188438105890DB0023A
:10E1B000014300980246224092005219401CD1604F
:10E1C0000090F8BD18250020F4EC0100F7B5154CBF
:10E1D00082B00E46074601206946A568FFF742F85F
:10E1E00000281CD010483C21008988437907890EFB
:10E1F00008430F2189018843402108438105890D87
:10E20000B0020143009802462A4092001219D160E0
:10E21000401C00902840800000190499C16005B09E
:10E22000F0BD000018250020F4EC010001688068B2
:10E230004A68824201D2521C00E0002208688242F1
:10E2400001D101207047002070478068884201D9C1
:10E25000481C704700207047FEB504460E4600205B
:10E260006946019008706846FEF758FB2046FFF7A4
:10E27000DDFF07000AD0207C002807D00420019091
:10E2800068460078FEF768FB0198FEBD206841688B
:10E2900020460D46FFF7D9FF2168002F486006D0C1
:10E2A000206801682046FFF7D0FF21680860E26817
:10E2B000012A15D0022A17D0042A1AD0082A1DD004
:10E2C00010466168684308183146FCF749FF20464C
:10E2D00000F0B0F821688A688242D1D28860CFE726
:10E2E000616830784855F2E7616830886A00885282
:10E2F000EDE761683068AA008850E8E7626803CEFD
:10E30000EB00D21803C2E2E74058002800D00120F9
:10E3100070470322120280184068084000D0012094
:10E32000704710B5002809D0032806D10220FEF757
:10E33000B7FE002801D0FEF73DFA10BD00F0E0F96D
:10E3400010BD000070B50446314D00886E8888B05D
:10E350003A2838D00DDC022839D0102813D01128E3
:10E360001AD0132822D100231A46852130467FDF98
:10E3700026E051282FD052281DD0552816D1A0882C
:10E38000132176DF1CE00720FEF78AFE002801D06B
:10E39000FEF710FAA08808E00020FEF781FE0028B2
:10E3A00001D0FEF707FA0020C043688008B070BDB6
:10E3B000FEF700FAFAE700231A4619463046A9DFAD
:10E3C0000028F5D1F2E7A088132176DFF8E7A088CE
:10E3D000002167DFF4E71022A11D04A8FCF7C0FEAE
:10E3E0006846017C0029E1D0007E042803D006287D
:10E3F00001D00528DAD1022908D001206946087029
:10E40000FF2083308880A088A8DFD9E70220F5E7C5
:10E41000E81F002010B50078002807D104483B21F0
:10E42000408876DF002801D0FEF7C4F910BD000057
:10E43000E81F0020016806C98A4201D3501A7047BC
:10E440008068401A401C8018704701225207511002
:10E45000886B496B414388187047000070B50124F0
:10E460000B49600408600B49401088600949403935
:10E470008860094D6C602F20FFF728FCAC60074DC9
:10E4800000242F20AC60FFF721FCAC7070BD0000B1
:10E4900080E100E040130140001001404C200020CA
:10E4A00070B500240546601C90B00007000F08A955
:10E4B000103008940870601C0007000F103048707E
:10E4C0008878F9263040801C88701C2101A8FCF750
:10E4D00060FE694608791021084369460871029474
:10E4E00008A80494059407940690287808A98871D0
:10E4F0000320694688841120009408704870887849
:10E50000F7213040801C0840EF21084001263043AD
:10E510006946887014210AA8FCF73BFE09A80A90F6
:10E5200068460B9069460E8614204C8688862B46DA
:10E5300068880C330AAA01A9A2DF10B070BD0000E0
:10E5400010B50446FEF708F800280CD0A007C00E4E
:10E55000002C0ADA2107090F08398908144A8900B2
:10E560008918C96906E0134810BDA108124A89003C
:10E5700089180968C1400806800F042811D20028B4
:10E580000FD002280DD00D494B68E206D20E0120B3
:10E590009040002B08D0620992008B5803438B50A7
:10E5A00004E00448401C10BD05490860002010BD6F
:10E5B00000ED00E00120000000E400E070200020F9
:10E5C00000E100E0FFB50746806A81B014460028EC
:10E5D0003DD0002538462030009033E00C20B96A49
:10E5E00068430E18B088801CFE2802D90C2005B0A4
:10E5F000F0BD22880299401C885420881622401CB5
:10E6000080B2208002990A542088401C80B2208069
:10E6100002994118308800F06FFA2188401880B2C2
:10E620002080B288002A0AD0B16800290FD0029B4E
:10E63000C018FCF795FD2088B188401820806D1C1B
:10E640000098EDB2007BA842C8D80020CFE7072091
:10E65000CDE7000070B504461248134D018A2182AF
:10E66000818A61820078002818D06879002815D145
:10E6700000F000FB002811D028462030E060022086
:10E680000849207204202031C8700648002120303B
:10E69000FEF778F9002804D1052000E00320A870D7
:10E6A000002070BD3C2200200420002070B50446EC
:10E6B00011480426018B2182818B618200780F4DE5
:10E6C000002816D06879002813D100F0D3FA00286A
:10E6D0000FD028462030E06002202072064800213A
:10E6E0002030C670FEF74EF9002804D10620A8702D
:10E6F00000E0AE70002070BD3C220020042000200D
:10E7000010B50020FEF7CCFC002801D0FEF752F82F
:10E710003CDF002801D0FEF74DF810BD002803D0E3
:10E720000249C860002070470E20704780200020FA
:10E730001CB50F4901910091694660DF0446009ABB
:10E74000019882420AD00B490220FFF73FFDFFF7F4
:10E750007CFE0099421A08A1022004E0002C04D09B
:10E76000224612A10120FFF731FD20461CBD00000A
:10E77000E81F002030F101005344483A5741524EFF
:10E78000494E473A52414D2073697A652073686F4C
:10E79000756C642062652061646A757374656420B9
:10E7A000746F2030782578200D0A00005344483AD1
:10E7B0004552524F523A73645F626C655F656E6199
:10E7C000626C653A206572726F7220307825780D20
:10E7D0000A00000070B50E46054614461421104686
:10E7E000FCF7D7FC012000212080216121732672D3
:10E7F0006572002D00D0A072002070BD10B5FDF72D
:10E80000B5FF10BDFFB581B0002901D0880702D047
:10E81000072005B0F0BD164D0124A9606A800020D4
:10E820006B60FFF7DFFA060001D0124804600D208C
:10E83000FFF7D8FA070003D001200E494003086013
:10E840000D49019810DF00280AD00A498039002FAD
:10E8500002D0012252030A60002EDAD00C60D8E701
:10E860002C70FFF76FFA1620FFF76AFED1E7000061
:10E870008020002080E100E0FDE7010001480078F1
:10E88000704700008020002010B5FEF769FE00F000
:10E890000FF803A10020FDF7B9FAFFF77BF910BDCF
:10E8A00055415254205374617274210D0A000000C6
:10E8B00010B5094C2068FEF71DF8002801D0FDF7BF
:10E8C00079FFFF21002249312068FDF7CFFF0028A2
:10E8D00001D0FDF76FFF10BD20EF0100FEB51F4C0A
:10E8E0000025A768606802906846FEF70DFE01905B
:10E8F000FEF7FEFE06460198002822D0002300986D
:10E90000616817E00E680A46864202D9301A08602C
:10E9100012E0801BF31800261660D668D169B44651
:10E92000002E07D0FE183602360A566066469660FC
:10E93000D56115460029E5D128466160FEF72EFF16
:10E9400006E02846FEF72AFF002801D1002E02D05B
:10E950000298FEF709FD0020E070FEBD4C2000206B
:10E9600001200249000508607047000000E200E055
:10E9700010B50E4B5968002906D002680C68A242F7
:10E9800004D8A21A0A60C161586010BD0B4604E0A9
:10E990000B46C969121B002904D00C689442F7D3B6
:10E9A000A41A0C600260C161D86110BD4C20002027
:10E9B0007CB50D460646002469460C706846FDF796
:10E9C000ADFF01A800F0D0F800280DD0057046601A
:10E9D000684608490079487068460078FDF7BCFF32
:10E9E000FFF7BEFF20467CBD684604240078FDF793
:10E9F000B3FFF7E75C200020F8B51D4D6C68002CD4
:10EA000034D01C4800274068A968401A0602360A1C
:10EA10002068B04218D8361AC7192246107CE4691B
:10EA200000280FD000201074EB68002B07D09169EC
:10EA300050699847002805D0FDF7BCFE02E05169F7
:10EA400090698847002CE3D129786878814206D103
:10EA5000401CC0B26870022801D1002068700449CF
:10EA60000006800D18310F50FFF77AFFF8BD000047
:10EA70004C2000200015014070B58EB005461C21C9
:10EA80006846FCF786FB694608780C21084369460E
:10EA90000870002401940394049405940694287843
:10EAA00008A98870022069460884601C0007000FCE
:10EAB00010300794087711204877887FF9210840A3
:10EAC000F721801C0840EF210840012630436946A9
:10EAD0008877142109A8FCF75CFB08A8099007A80F
:10EAE0000A9069468E851420CC85088668882B1D7F
:10EAF00009AAA2DF0EB070BD0870000A487002209B
:10EB00007047000038B51549154A488890420FD023
:10EB10004A78144C521CD2B24A70237B934208D3D9
:10EB2000091D75DF002803D0A169002900D088479E
:10EB300038BD00254D70217C002907D03B2176DFB0
:10EB4000002803D0A169002900D088476169002905
:10EB5000EED068460570884738BD0000342000209C
:10EB6000FFFF00000824002010B509494B788C787D
:10EB70005A1CD2B2944200D100220C78944201D1A6
:10EB8000002010BD0270486818214B43C01810BD0A
:10EB90005C200020FFB583B016460C9D0D9C1F46DF
:10EBA000022200950194039800F00CF8002807D188
:10EBB0003B461022314600950194039800F002F87C
:10EBC00007B0F0BDFFB583B0074600200C9C864619
:10EBD000268805463AE07868A900421811886846F8
:10EBE00081805188C1800022694601A865DF002824
:10EBF00039D1684601780598814226D170460028AF
:10EC000001D0002200E002222088891842180D99C4
:10EC10008A4227D8714600290AD1401C80B2208040
:10EC2000069A049911542088401C208001208646B1
:10EC3000218806980A18694601A865DF002812D1C4
:10EC4000694620880978401820806D1C3888A842C1
:10EC5000C1DC704600280AD02088801B401E80B28C
:10EC6000FF2802D90C2007B0F0BD06998855002076
:10EC7000F9E7000004480179002902D1007B00284F
:10EC800000D0012070470000242000200100000770
:10EC90001516171811121314D0210020F02100208E
:10ECA0001C220020110003000DD0010012000300FF
:10ECB0000DD00100130003000DD00100140003006B
:10ECC0000DD00100E82300209ECADC240EE5A9E057
:10ECD00093F3A3B50000406E000000500003000055
:10ECE000A424002080240020200000000100000057
:10ECF00000000000290000000100000001000000E9
:10ED000001000000010000000100000001000000FF
:10ED10000100000002000000303132333435363754
:10ED20003839414243444546151617000002040590
:10ED3000000000000000000059B40100FDB3010014
:10ED4000B1B40100F9B301000000000000000000B0
:10ED50000000000000000000A0F10100030000001E
:10ED600070F301000300000010F201000300000036
:10ED700070F30100030000005CF2010003000000DA
:10ED800030F30100030000005CF20100030000000A
:10ED90004CF30100030000003CF2010003000000FE
:10EDA00070F301000300000080F201000300000086
:10EDB00064F301000300000004F2010003000000FE
:10EDC00074F3010003000000E0F201000300000002
:10EDD00070F3010003000000BCF20100030000001A
:10EDE00070F301000300000098F20100030000002E
:10EDF00070F3010003000000F8F1010003000000BF
:10EE000070F30100030000008CF201000300000019
:10EE10005CF301000300000074F101000300000036
:10EE200070F30100030000002CF201000300000059
:10EE300070F3010003000000ACF1010003000000CA
:10EE400070F301000300000074F2010005000000EF
:10EE500054F301001400000074F2010005000000EA
:10EE600038F3010014000000D4F101000300000099
:10EE700070F3010003000000BCF10100030000007A
:10EE800070F30100030000001CF201000300000009
:10EE900070F3010003000000FCF201000500000017
:10EEA00070F3010014000000F0F201000300000004
:10EEB0007CF301000300000090F10100030000005A
:10EEC00070F301000300000024F3010003000000C0
:10EED00070F30100030000000CF3010003000000C8
:10EEE00070F301000300000018F3010003000000AC
:10EEF00070F301000300000068F20100030000004D
:10EF000040F30100030000000C0D0F00021112136A
:10EF100001030D0F140000020607080A01030B008D
:10EF2000CC2D0020005EBCE2613FDD83C29C7E20D0
:10EF3000A3FD1F419DC3217FFCA2401E5F01E3BDD5
:10EF40003E6082DC23079FC1421CFEA0E1BF5D033F
:10EF500080DE3C62BEE0025CDF81633D7C22C09EBD
:10EF60001D43A1FF4618FAA427799BC584DA3866A9
:10EF7000E5BB5907DB856739BAE406581947A5FB95
:10EF80007826C49A653BD987045AB8E6A7F91B4589
:10EF9000C6987A24F8A6441A99C7257B3A6486D87D
:10EFA0005B05E7B98CD2306EEDB3510F4E10F2AC69
:10EFB0002F7193CD114FADF3702ECC92D38D6F3155
:10EFC000B2EC0E50AFF1134DCE90722C6D33D18F49
:10EFD0000C52B0EE326C8ED0530DEFB1F0AE4C123D
:10EFE00091CF2D73CA947628ABF517490856B4EA29
:10EFF0006937D58B5709EBB536688AD495CB297715
:10F00000F4AA4816E9B7550B88D6346A2B7597C908
:10F010004A14F6A8742AC896154BA9F7B6E80A54FC
:10F02000D7896B35000001000200010003000100D8
:10F0300002000100040001000200010003000100C1
:10F0400002000100050001000200010003000100B0
:10F0500002000100040001000200010003000100A1
:10F06000020001000600010002000100030001008F
:10F070000200010004000100020001000300010081
:10F080000200010005000100020001000300010070
:10F090000200010004000100020001000300010061
:10F0A000020001000700010002000100030001004E
:10F0B0000200010004000100020001000300010041
:10F0C0000200010005000100020001000300010030
:10F0D0000200010004000100020001000300010021
:10F0E000020001000600010002000100030001000F
:10F0F0000200010004000100020001000300010001
:10F1000002000100050001000200010003000100EF
:10F1100002000100040001000200010003000100E0
:10F12000020001004F766572666C6F770D0A000071
:10F130005344483A5741524E494E473A73645F62CE
:10F140006C655F656E61626C653A2052414D20735B
:10F15000746172742073686F756C642062652061DD
:10F16000646A757374656420746F20307825780D37
:10F170000A00000041542B434744434F4E543D3155
:10F180002C224950222C2263746E6574220D0A00D1
:10F1900041542B4E4D47533D33372C30300D0A0030
:10F1A00041542B4346554E3D300D0A0041542B43EC
:10F1B000474154543D300D0A0000000041542B4398
:10F1C00045445258533D302C352C303130310D0AE6
:10F1D0000000000041542B4350534D533D312C2C23
:10F1E0002C30313030303031312C30313030303023
:10F1F00031310D0A0000000041542B434D45453D7F
:10F20000310D0A0041542B4347534E3D310D0A0046
:10F2100041542B4346554E3D310D0A0041542B4E6F
:10F2200050534D523D310D0A0000000041542B4314
:10F23000474154543D310D0A0000000041542B4E0B
:10F240004344503D3138302E3130312E3134372E59
:10F250003131352C353638330D0A000041542B43FB
:10F2600046554E3F0D0A000041542B4E50534D520F
:10F270003F0D0A0041542B43474154543F0D0A00AF
:10F2800041542B4E52420D0A0000000041542B4EB7
:10F29000434349440D0A000041542B4E434F4E4610
:10F2A00049473D43454C4C5F524553454C454354BB
:10F2B000494F4E2C46414C53450D0A0041542B4EAC
:10F2C000434F4E4649473D43454C4C5F524553459D
:10F2D0004C454354494F4E2C545255450D0A00009D
:10F2E00041542B4E435345415246434E0D0A0000B4
:10F2F00041542B4353510D0A0000000041542B434D
:10F300004750414444520D0A0000000041542B4E26
:10F310004D47520D0A00000041542B4E514D4752AB
:10F320000D0A000041542B4E514D47530D0A000069
:10F330004346554E3A30000043474154543A30005A
:10F340004E50534D523A312C310000004346554E39
:10F350003A31000043474154543A31004343494451
:10F360003A0000005245424F4F54494E47000000BA
:10F370004F4B00004347534E000000002B435351B6
:10F3800000000000A4F30100E81F0020F8000000C6
:10F3900038C501009CF40100E02000203016000078
:10F3A00048C501000000FFFF01000200000000004E
:10F3B000000000000000000000000000000000004D
:10F3C000000000000000000000000000000000003D
:10F3D000000000000000000000000000000000002D
:10F3E000A823002000000000C82300200000000027
:10F3F000000000000000000000000000000000000D
:10F4000000000000000000000000000000000000FC
:10F4100000000000000000000000000000000000EC
:10F4200000000000000000000000000000000000DC
:10F43000000000000000000024F1010000000000B6
:10F4400000000000000000000000000000000000BC
:10F4500000000000000000000000000000000000AC
:10F46000000000000000000000000000B9BF010023
:10F47000CDB90100F9BB0100A9BB0100D1BB01005E
:10F4800071B8010021B9010065BC01000000000055
:0CF4900000000000000000000024F40058
:040000050001B0C185
:00000001FF
