:020000040001F9
:10B0000048390020D5B00100EFB00100F1B00100D7
:10B010000000000000000000000000000000000030
:10B02000000000000000000000000000F3B001007C
:10B030000000000000000000F5B00100F7B00100C2
:10B0400065C70100F9B0010065CE0100F9B001004B
:10B05000F9B001000000000009BF0100F9B00100D3
:10B06000F9B00100F9B00100F9B00100F9B0010038
:10B07000F9B0010065CA0100F9B00100F9B00100A2
:10B08000F9B00100C5CA0100F9B00100F9B0010032
:10B0900065CD0100F9B001006DCD0100F9B00100EE
:10B0A000F9B00100F9B0010000000000000000004C
:10B0B0000000000000000000000000000000000090
:10B0C0000348854600F094F8004800476DE9010008
:10B0D000483900200321094802680A4302600848F1
:10B0E00002680A4302600748804707480047FEE7B6
:10B0F000FEE7FEE7FEE7FEE7FEE70000240500406E
:10B1000054050040C5CD0100C1B0010030B50B466B
:10B11000014600202022012409E00D46D5409D4231
:10B1200005D31D469540491B2546954040191546B7
:10B13000521E002DF1DC30BD70B5002425460028DC
:10B1400001DA01244042002901DA01254942FFF7D2
:10B15000DDFFAC4200D04042002C00D0494270BD1F
:10B1600003460B439B0703D009E008C9121F08C020
:10B17000042AFAD203E00B780370401C491C521ECB
:10B18000F9D27047D2B201E00270401C491EFBD2D6
:10B1900070470022F6E710B513460A4604461946E2
:10B1A000FFF7F0FF204610BD30B505462A460B4696
:10B1B00010781C78521C5B1C002801D0A042F7D0EC
:10B1C000002C03D0002802D06D1CEFE7284630BDCC
:10B1D000421C0178401C0029FBD1801A70470346AD
:10B1E0000A780270401C491C002AF9D118467047A1
:10B1F000064C0125064E05E0E36807CC2B430C3CCA
:10B2000098471034B442F7D3FFF75EFFD40702002B
:10B21000F407020070B58C180578401C6B075B0FB3
:10B2200001D10378401C2A1106D10278401C03E0AA
:10B2300006780E70401C491C5B1EF9D12B0705D403
:10B240000023521E0DD40B70491CFAE70378401CF2
:10B25000CB1A921C03E01D780D70491C5B1C521E1A
:10B26000F9D5A142D8D3002070BD0000FFB581B050
:10B27000044603981D4606070F46360F204600F089
:10B28000FBFC1948002D046002D0456001F038F93C
:10B290000A98002801D01449886000250FE039463B
:10B2A000204600F0E9FC1048046000F0E9FE20466A
:10B2B00001F0ACFE0C48103410358760103703984D
:10B2C0008542ECD3002E0CD03946204600F0D4FC49
:10B2D0001020811BA019FFF75CFF0348046000F0F9
:10B2E000CFFE05B0F0BD00001021002010B50949C7
:10B2F0000020087048708870C0318875084680301A
:10B30000817F0122114381771146052001F03EFD26
:10B3100010BD0000F82B0020F8B5294D0746EA7A49
:10B3200028A100F0A1FD0026002805D0274804220E
:10B3300001781143017030E02149EA7A71393846C9
:10B3400000F092FD1E4CE03C0028607831D00228CD
:10B3500005D0032803D00F2801D010280AD11422C9
:10B360001BA1384600F080FD002809D019A100205B
:10B3700001F00EFC6078062804D00B2802D00CE007
:10B380001BA10EE0412212A1384600F06DFD0028FD
:10B3900006D01FA1002001F0FBFB6E730420F8BD56
:10B3A00022A1002001F0F4FB3946002001F0F0FB5F
:10B3B00001E00F2801D00220F8BD0020F8BD0000F8
:10B3C000382E00204C69657264610000A8200020BE
:10B3D0004F4B000061742B6366756E3F2F61742BB9
:10B3E00063676174743F206F6B20210D0A000000B9
:10B3F00061742B6366756E3F2F61742B6367617494
:10B40000743F206572726F7220210D0A00000000E7
:10B4100061742B6367736E3D312F61742B6E6363B0
:10B420006964206F6B20210D0A00000061742B639A
:10B4300067736E3D312F61742B6E636369642065A1
:10B4400072726F7220210D0A0000000010B51049C1
:10B45000897F00290CD0012808D108460D4C00F046
:10B460001BFD217A0122824011432172032010BD6D
:10B470000848017A002906D00021017206A10020A7
:10B4800001F086FB01E006210170002010BD0000E4
:10B49000382D0020F82B00204576656E74206973E6
:10B4A000204572726F72200D0A000000F8B5044644
:10B4B0004578407A012832D0207A042830D00328F9
:10B4C0002ED018488678F0212046FFF762FE012032
:10B4D0006072657000202072134FA6702D01EE1966
:10B4E000307BE070B0887D21C90048436060204611
:10B4F0000A3000907959FFF772FE7859FFF768FE1D
:10B5000025466035A87320466F30B168FFF767FEA7
:10B51000A97B009803F02CFBA078401CA070F8BD1C
:10B520000026D0E7582D0020A8FE0100704700003B
:10B53000F8B5154CA1780E290FD214480026425CAC
:10B540001348037A0546A03D042B07D00127032B9F
:10B5500012D00721217007704270F8BD491CC8B293
:10B56000A0700E2805D306202070A6700220287730
:10B57000F8BD03202070F8BD06A1002001F008FBF3
:10B580002770A670AE76F8BDF82B00205800020098
:10B59000582D0020436F6E6E65637420526573658D
:10B5A000740D0A00F8B5144CA17805290FD2134880
:10B5B0000025425C1248037A0646A03E042B07D0C1
:10B5C0000127032B0FD00721217042700770F8BDAF
:10B5D000491CC8B2A070052802D30420207007E0DF
:10B5E00002202070F8BD07A1002001F0D1FA2770D9
:10B5F000A570B576F8BD0000F82B00207BFE010099
:10B60000582D0020496E69742052657365740D0AC7
:10B6100000000000F8B5464DA9780A290DD2454A28
:10B620000026525C44490B7A042B07D00124032BDB
:10B6300073D0072028704A700C70F8BD062A02D01B
:10B640000B2A5CD12AE03DA1FFF7AEFD07463DA1E4
:10B65000002001F09DFA002F51D0002438194079C4
:10B66000014630390A2905D331391A2902D3413824
:10B670001A2804D2641CE4B2102CEFD303E0102C7F
:10B6800001D2381946712C48791D4E38224607469A
:10B69000FFF766FD3B4622462DA129E032A1FFF7C8
:10B6A00083FD074632A1002001F072FA002F26D058
:10B6B000002438198079014630390A2905D33139F7
:10B6C0001A2902D341381A2804D2641CE4B2202C6F
:10B6D000EFD303E0202C01D2381986711648B91D2A
:10B6E0003E3822460746FFF73BFD3B46224623A154
:10B6F000002001F04DFA0021062001F047FBA87858
:10B70000401CC0B2A8700A2804D303202870AE7071
:10B71000F8BD02E004202870FAE71EA1002001F025
:10B7200037FA05482C70AE70A0388676F0E7000036
:10B73000F82B002066000200582D00204347534E8E
:10B740003A000000636D64206367736E0D0A0000A9
:10B750006C656E203D2025752C20696D65693A2544
:10B76000732E200D0A0000004E434349443A000066
:10B77000636D64206E636369640D0A006C656E20FE
:10B780003D2025752C206E636369643A25732E2055
:10B790000D0A00004D6573732052657365740D0AC0
:10B7A0000000000070B5254D04466888012100198D
:10B7B00068802348426EA24205D3121B4266A24211
:10B7C00001D2603001721E48C030828CA2420AD37E
:10B7D000121B92B28284A24205D2803001730021F2
:10B7E000052001F0D3FA174800268188A14202D330
:10B7F000091B818000E08680C188091989B2C18057
:10B800000A2905D30A39C1800121052001F0BEFAB9
:10B8100068887D21C90088420FD309486E8040386E
:10B82000017F022909D1817D012906D1018B491CA3
:10B8300089B20183F02900D3068370BD94200020D3
:10B84000F82C0020F82B0020F8B5144F00243C60A1
:10B85000134E14483546E0357472AA7AEA72AC7217
:10B860002C7329465A390090FFF77AFC042038607F
:10B870000098FFF751FD307202280DD0687B002838
:10B880000AD0012807D10221052001F07FFA06A184
:10B89000002001F07DF93472F8BD00000025004061
:10B8A000582D0020052C002053544152542044456B
:10B8B000434F44450D0A0000FEB5A24CA248254660
:10B8C0002278A988007801902B46A8782E46C033AC
:10B8D000FF36FF350093012741366135130001F033
:10B8E00024FD082765A4C3C9F1EF05EE287A0028D6
:10B8F0007ED0022801D0012805D1A878E9788842B5
:10B9000001D30320287260788100904841580029B3
:10B9100002D08C480D308847287A042801D00328AB
:10B9200001D1072060708A49002048666872FDE0F6
:10B9300000295DD100280ED001281BD0022828D074
:10B9400084A1002001F024F900990020887660701D
:10B9500002212170E9E084480821C1608901C160A9
:10B9600082A1002001F014F9A078401CA0704B20A7
:10B970000001A2E07C490820886084A1002001F039
:10B9800007F9A078401CA0706420A080844807704C
:10B99000CCE0012074494002886082A1002001F0BF
:10B9A000F7F8A078401CA070834886E000291FD1DA
:10B9B000002827D0012830D00099002088766770B1
:10B9C0002070A0708875B17F3943B17720720099DB
:10B9D00008773076707670831E21B18377490A78B4
:10B9E000521CD2B20A70032AA1D30870564900E053
:10B9F00084E0019808221043087071A1002001F032
:10BA0000C7F893E0012058494002C860A770C820D9
:10BA1000A08063490020087088E00120524940025C
:10BA200088600220A070322047E0002902D00199EE
:10BA3000490763D5002815D066A1002001F0A8F8B9
:10BA40000020A0804048FB2201781140017020783E
:10BA50006070072020702F703C49A078491F085C57
:10BA6000687066E061A121E06270072121702F708B
:10BA70006449F4E7002902D0019949073ED500281E
:10BA800013D061A1002001F083F80020A0802E488F
:10BA9000FB2201781140017020786070072020702F
:10BAA00058492F70A0780E31D9E75DA1002001F030
:10BAB0006FF8A078401CA0705F48A08036E03EE0A0
:10BAC0001DE0FFE70120FFF7C1FC607200282DD0C8
:10BAD000207A00282AD0A078002800D12773317E50
:10BAE000032901D3002807D0217861700721217034
:10BAF00016492F700839B2E767702770FEBD002025
:10BB0000FFF7A4FC002802D0A07A3843A072A07AE4
:10BB100000280BD000F0C0F9411D2170A17A8740A8
:10BB2000B943A172062060700020A0702878012817
:10BB3000E4D1002028702846FFF7B8FCFEBD0220A3
:10BB40002070F1E7F82B0020A820002080FE0100E3
:10BB5000F82C00206E657874207374617465206918
:10BB60006E697420210D0A0000050050636C656148
:10BB700072206E6220706F7765726F6E20616E64E6
:10BB800020726573657420210D0A000073657420AE
:10BB90006E6220706F7765726F6E20210D0A000053
:10BBA000CE200020736574206E6220726573657408
:10BBB00020210D0A00000000581B000094200020E6
:10BBC000436C6F73652053746174652050726F63AA
:10BBD0000D0A0000696E6974206E6220686173202E
:10BBE000737461727420210D0A000000696E69741B
:10BBF0002077616974206E622073746172742021F1
:10BC00000D0A0000580002006D657373206E6220FB
:10BC100068617320737461727420210D0A00000042
:10BC20006D6573732077616974206E62207374612F
:10BC3000727420210D0A0000204E0000F0B50C4A5D
:10BC4000002112680B4B9446840062180020950076
:10BC50008A0062442F18165CDF5D7E401654401C3B
:10BC6000C0B20428F6D3491CC9B20429EDD3F0BDF3
:10BC7000102100209830002000228B5C8354521C3D
:10BC8000D2B2102AF9D37047F8B5064600242F4FD8
:10BC900058E02F490D5C002D06D0012D12D0022D49
:10BCA0001ED0032D48D141E02A4801782A4801F0EE
:10BCB00061F9012803D10121042001F067F825482A
:10BCC000047039E02548C17A25480C31006800F03D
:10BCD000B9F801462148007C81422DD1022121E0A2
:10BCE000204800901D481F4BC27AC0680146FFF7EC
:10BCF000BDFA1D4804701948C368C17A5818203825
:10BD0000C07F814205D9002803D0144A081AD07296
:10BD100001E01248C47211480322C07A194601F0AA
:10BD20002DFF0321042001F031F805E00B48C27A11
:10BD3000417AC06800F040FD2946304602F02CFBF5
:10BD4000012802D0B85D0028A3D1F8BD052100204C
:10BD500074010200CC200020982F0020842F0020A6
:10BD60009C200020BC2000209920002010B50E4906
:10BD70000A78002A0FD0012A10D0022A0AD14A7864
:10BD8000002A03D000228B1C1A804A700422C8218A
:10BD900000F00EFC10BD02F0D3F910BD01224A7074
:10BDA00000227D21C900F3E7CE20002070B50446B3
:10BDB0000B48007800280DD07D25ED0001280CD01F
:10BDC000022806D100F092FB00222946204600F00E
:10BDD00049FC70BD00F0EDFF70BD00F08BF8F3E79B
:10BDE000DC20002010B500F04FFC0020044A014682
:10BDF0001154401CC0B20828FAD30248017010BD8B
:10BE00000521002004210020F8B505460B4F0C4EFB
:10BE100010E03C5C230001F088FA02020507FFF7FE
:10BE200013FD01E0FFF748FD2146284602F0B4FA71
:10BE3000012802D0705D0028EBD1F8BD740102002A
:10BE40000521002010B50022064C03E00378534082
:10BE5000E25C401C0B46491E89B2002BF6D110460D
:10BE600010BD00007000020070B500240B4605787C
:10BE70001E78B54205D15D785B1C002D02D10120F2
:10BE800070BD0B464578401C002D03D0641CA4B245
:10BE90009442ECD3002070BD0146002001231A46D5
:10BEA00082400A4204D1401CC0B20828F7D3FF20C8
:10BEB000704710B5FFF796FF00F07AFF00F018F812
:10BEC000FFF714FA012010BD70B50446064E074D69
:10BED00005E0315C204602F05FFA012802D0285DBF
:10BEE0000028F6D170BD0000740102000521002079
:10BEF0007047000010B5034910208860052003F04A
:10BF0000A1F810BD00050050F0B50024FF268BB04D
:10BF10000136012527460694304603F0C3F8002871
:10BF200007D054484068284203D0304603F0B2F8A6
:10BF30002C43361D6D007F1CB6B2042FECD3FF25B9
:10BF40007D35284603F0AEF8002809D0284603F0D6
:10BF5000A1F86807044306AA0121002003F086F82F
:10BF6000454D200714D00127002627420CD0434816
:10BF7000B200111808690969C004C00E8903AA58E3
:10BF8000890F002A00D090477F00761C042EECD346
:10BF9000002C6DDA00200890401E63E02819403024
:10BFA0000778B906890E009100214156491C49D0F5
:10BFB00009A9009802F09DFE002843D0B80901901D
:10BFC000009802F0E1F980002F580198002F02D06C
:10BFD000032802D00DE0032834D1009808ABC20832
:10BFE00041079446985C490F01228A4010436246FB
:10BFF000985400980521090780004018072109027C
:10C000004018006806A98003800F0290009802F093
:10C0100070FE0028029802D0022802D012E0032805
:10C0200010D10198032808D1029802281ED00221BD
:10C03000009802F0EEFF761CF6B2002F02D00199B4
:10C040000098B847641C042CA8D3002E10D06A4670
:10C050000121002003F00AF806990098884207D0D1
:10C060000690089800263446099097E70321DFE7F9
:10C070000BB0F0BD00630040782400200065004054
:10C0800010B50A20FFF7DAFD092400F0F9F900F0F5
:10C0900015FA2046FFF7D2FD00F00CF8641E2406C6
:10C0A000240EF2D100F0ECF900F008FA0020FFF7BE
:10C0B000C5FD10BDF0B585B0002003908400EF48A9
:10C0C0000068065D20184178029181780191C0785E
:10C0D0000090304603F07AFE03F078FE03F076FE1F
:10C0E00003F074FE009803F071FE019803F06EFEF9
:10C0F000029803F06BFE03F069FE029803F066FEFF
:10C1000003F064FE03F062FE03F060FE009803F0AB
:10C110005DFE03F05BFE03F059FE03F057FE00984E
:10C1200003F054FE03F052FE019803F04FFE03F0BB
:10C130004DFE03F04BFE03F049FE304603F046FE91
:10C140000546304603F042FE03F040FE45403046CF
:10C1500003F03CFE03F03AFE03F038FE454002983F
:10C1600003F034FE029907464F40084603F02EFEC6
:10C1700003F02CFE03F02AFE47407D40019803F0B7
:10C1800025FE03F023FE019907464F40084603F0C1
:10C190001DFE03F01BFE03F019FE47407D40009892
:10C1A00003F014FE03F012FE03F010FE01460098A7
:10C1B0004140B2484D4000680555304603F006FE48
:10C1C000009803F003FE019803F000FE03F0FEFD6B
:10C1D000029803F0FBFD03F0F9FD03F0F7FD03F017
:10C1E000F5FD304603F0F2FD03F0F0FD03F0EEFD47
:10C1F00003F0ECFD304603F0E9FD03F0E7FD0098A5
:10C2000003F0E4FD03F0E2FD03F0E0FD03F0DEFDEA
:10C21000019803F0DBFD03F0D9FD03F0D7FD03F037
:10C22000D5FD304603F0D2FD03F0D0FD03F0CEFD86
:10C2300005467540029803F0C9FD0746029803F0D1
:10C24000C5FD03F0C3FD4740029803F0BFFD03F0B6
:10C25000BDFD03F0BBFD47407D40019803F0B6FDF6
:10C26000019907464F40084603F0B0FD03F0AEFDCC
:10C2700003F0ACFD47407D40009803F0A7FD03F0BC
:10C28000A5FD07460098474003F0A0FD03F09EFD82
:10C2900003F09CFD474079487D40006820184570B8
:10C2A000304603F093FD009803F090FD03F08EFDFF
:10C2B000019803F08BFD03F089FD03F087FD03F087
:10C2C00085FD029803F082FD304603F07FFD03F008
:10C2D0007DFD03F07BFD03F079FD009803F076FD12
:10C2E00003F074FD03F072FD03F070FD029803F09B
:10C2F0006DFD03F06BFD03F069FD03F067FD02982F
:10C3000003F064FD03F062FD304603F05FFD03F0CF
:10C310005DFD05467540304603F058FD03F056FDBF
:10C3200003F054FD4540029803F050FD03F04EFD2C
:10C3300003F04CFD029948404540019803F046FD4A
:10C340000746019803F042FD03F040FD4740019885
:10C3500003F03CFD03F03AFD03F038FD47407D401B
:10C36000009803F033FD07460098474003F02EFD88
:10C3700003F02CFD03F02AFD474040487D40006853
:10C3800020188570304603F021FD03F01FFD009852
:10C3900003F01CFD03F01AFD03F018FD03F016FD79
:10C3A000019803F013FD029803F010FD304603F0EE
:10C3B0000DFD03F00BFD03F009FD03F007FD0198EF
:10C3C00003F004FD03F002FD03F000FD03F0FEFCAA
:10C3D000019803F0FBFC03F0F9FC029803F0F6FC73
:10C3E00003F0F4FC03F0F2FC03F0F0FC304603F041
:10C3F000EDFC05467540304603F0E8FC03F0E6FC32
:10C4000003F0E4FC4540029803F0E0FC03F0DEFC9E
:10C41000029906464E40084603F0D8FC03F0D6FCCD
:10C4200003F0D4FC46407540019803F0CFFC03F0C4
:10C43000CDFC03F0CBFC019948404540009803F047
:10C44000C5FC0646009803F0C1FC03F0BFFC464063
:10C45000009803F0BBFC03F0B9FC03F0B7FC4640C6
:10C460000648754000682018C5700398401C03906A
:10C47000042800DA22E605B0F0BD000010210020FB
:10C480000D480068417B427A427342794272427899
:10C49000427141708178827A827081728179827B67
:10C4A00082718173C178C279C270C27AC271C27B53
:10C4B000C272C173704700001021002030B50949D5
:10C4C000094A0C68002000218B001B191D5C491CC7
:10C4D000555DC9B21D540429F6D3401CC0B20428CE
:10C4E000F1D330BD102100207403020010B50420E8
:10C4F00002F0A8FD01492020886010BD0005005011
:10C50000F8B52749274B4A6800208100545C5C54E9
:10C510008C18C91865784D70A5788D70E478401C2A
:10C52000CC700428F1D337E0002182006D46141F3F
:10C5300066189E5D6E54491C0429F9D3810715D1F4
:10C540002F46BE782978FF78174C6D78BC46655D1C
:10C55000A65D6F467E706746E65D6F46BE70615CA5
:10C56000F970124C8108615C4D403D70D41825462D
:10C57000203D6E46297C3678714099546E46697C20
:10C58000727851406170AA7CB1784A40A270EA7C0E
:10C59000F1784A40E270401C2C28C5D3F8BD000059
:10C5A0001021002098300020740202007404020060
:10C5B00070B5154652060C4C160E2288101880B223
:10C5C000208088420ED301F0C3FD00202080002D82
:10C5D00008D0A178491CC9B2A170B14202D3A070A1
:10C5E000A11E087070BD0000D020002070B5044668
:10C5F000064E074D05E0315C204601F0CDFE0128D6
:10C6000002D0285D0028F6D170BD00007401020040
:10C610000521002070B50446064E074D05E0315C4B
:10C62000204601F0B9FE012802D0285D0028F6D18D
:10C6300070BD0000740102000521002070B50446A1
:10C64000064E074D05E0315C204601F0A5FE0128AD
:10C6500002D0285D0028F6D170BD000074010200F0
:10C660000521002010B5074C2288101880B22080C8
:10C67000884205D300F09DFB0020A11E0870208099
:10C6800010BD0000DE20002010B50020104925223A
:10C69000120104460C54401C80B29042FAD30D495A
:10C6A00000200C54401C80B21028FAD308480AA17C
:10C6B000ED30FEF794FD06480BA1DD30FEF78FFD4F
:10C6C0000C480B49C1811E2101824038847610BD7F
:10C6D000F82B0020482E00203138302E3130312EFA
:10C6E0003134372E3131350063746E620000000042
:10C6F0004C240000F82C00208307FF22DB0E9A4018
:10C700008907090E994000280BDA0007000F083846
:10C71000830808489B001818C36993430B43C361FF
:10C720007047830804489B001B181868904308430F
:10C730001860704700ED00E000E400E070B50446CA
:10C74000064E074D05E0315C204601F025FE01282C
:10C7500002D0285D0028F6D170BD000074010200EF
:10C7600005210020F8B5FF20013002F0CAFA0024AC
:10C7700001250E4E0E4F002807D00E480460012000
:10C78000B0607D70002001F01DFEFF20053002F03A
:10C79000B8FA002808D00748001D04600220B060E5
:10C7A000BD70012001F00EFEF8BD00000003004046
:10C7B0006424002000010040F7B506464B480024E1
:10C7C00040881746C11FF93905D049A1002000F063
:10C7D000DFF907210DE0002F10D04D484079A52842
:10C7E0000ED00198A0280BD04AA1002000F0D0F96B
:10C7F0000421019800F000FC2046FEBD4CA1F4E7A6
:10C8000052A10020019A00F0C3F90198534C002571
:10C81000A02804D0A82831D0A92862D14AE050A18C
:10C82000002000F0B5F93078012801D0042155E04E
:10C83000374E7079A52854D02570012710214D4816
:10C8400002F05EFB601C10224A49FEF789FC0021C1
:10C85000062000F09BFA48481124077000210620AA
:10C8600000F094FA224645A1002000F091F92146FB
:10C87000019800F0A3F8A520707132E044A10020D7
:10C8800000F086F9092FD1D1214825700079607018
:10C89000A57001270321019800F090F8317A4048F3
:10C8A000A12902D0A22902D01BE0077019E00221C1
:10C8B000017016E03BA1002000F06AF9042FB5D109
:10C8C0003078717800020843B17800020843F178AB
:10C8D0000002084338498842A8D30021019800F09B
:10C8E0008BFB254928464D70FEBD0000842F00209B
:10C8F00050524F544F434F4C5F4150505F4552523E
:10C900005F56455253494F4E5F31210D0A000000DA
:10C91000A020002050524F544F434F4C5F41505085
:10C920005F4552525F504152414D5F33210D0A0025
:10C9300050524F544F434F4C5F4150505F455252FD
:10C940005F504152414D5F32210D0A00636F6D6DA2
:10C95000616E64203D2025640D0A0000642E0020D5
:10C96000636D6420676574206165736B6579210D63
:10C970000A000000AC2000209820002073656E643F
:10C980004C656E677468203D202564210D0A000007
:10C99000636D6420737769746368210D0A00000079
:10C9A000DC200020636D642061646A7573742074F8
:10C9B000696D65210D0A000000D36C3870B5204CFC
:10C9C000F0222270A523012263700026A270E67077
:10C9D00022716271A671E67126721A4A6072927AA9
:10C9E0000B25A272AA2801D0A22801D100290DD1BD
:10C9F000E1720C310D462046FFF724FA6055691CA0
:10CA0000162060540D20A91C6054ED1C2A460EA16E
:10CA1000002000F0BDF8E8B20422214601F0AEF893
:10CA20002946204601F0C6FA0B480178002905D0B6
:10CA30000670102209490A48FEF792FB70BD0000FB
:10CA4000582E0020842F0020706F7374696F6E2041
:10CA50003D202564210D0A0098200020AC200020F4
:10CA6000BC2000201CB500246846047000F0C0FE05
:10CA700002F0B0FF002818D10E480168002914D038
:10CA80000D498968C907C90F0FD004600B48806839
:10CA90006946087101A90A4802F038FC084802F00A
:10CAA0001FFC002801D002F083FA6846007800F0ED
:10CAB000BDFE1CBD00D1004000D3004000D50040A9
:10CAC00030FE010010B5064900200860486088600B
:10CAD000C860034940390860486003F02DF810BD74
:10CAE0004011014010B503480078002801D100F042
:10CAF0009DFA10BD802B0020F8B506460C48144660
:10CB000000780D46002801D100F090FA0023684615
:10CB10000093037000F06CFE22462946304600F078
:10CB200009F804466846007800F080FE2046F8BD0B
:10CB3000802B002070B50E46182148431349144637
:10CB40004518E86A1835002804D001280FD00228BB
:10CB500005D113E0284600F09FFAA04201D200243C
:10CB600011E022463146284600F0C1FB0BE0284682
:10CB700000F092FAA042F4D20446F2E73146284689
:10CB800000F085FB0446204670BD0000802B00208D
:10CB90000FB408B504A900916A46039900F004F89F
:10CBA00001B008BC04B01847F7B598B007A80290C8
:10CBB000402000250495039018980C460595069092
:10CBC0002178641C002977D0252907D002A800F01D
:10CBD0003FFB05980028F3DA1BB0F0BD01220021CD
:10CBE000022713460826207823281BD02B2816D08E
:10CBF0002D2802D0302806D101E0194300E0394346
:10CC0000641C002AEFD1002220780346303B0A2B17
:10CC10000AD20A235A431218303A641CF4E704205B
:10CC20000143EDE73143EBE70023C7B22E2F0AD1D2
:10CC3000641C20780746303F0A2F04D20A277B4322
:10CC40001B18303BF4E76C280DD068280BD07028F7
:10CC500052D00BDC25285AD058282ED063280CD06F
:10CC6000642858D110E02078641CECE7732832D097
:10CC7000752817D078284ED11FE01A981A9A0068A4
:10CC8000011D1160017843E01A981A9F0068061D83
:10CC90003E6000680191009201460A2202A800F05D
:10CCA00006FA38E01A981A9F0068061D3E60006870
:10CCB000009201910A2209E02FE01A981A9F006859
:10CCC000061D3E600068009201911022014602A8F4
:10CCD00000F052FA1FE01A981A9A0068011D1160BC
:10CCE00006683178761C002915D002A800F0B0FA49
:10CCF00005980028F5DA0EE01A981A9A00680823B9
:10CD0000011D11600168102200960195DFE72521C1
:10CD100002A800F09DFA641C5BE70598002800DC7F
:10CD20005AE70498002804D0024607A91898FFF78C
:10CD3000E3FE04990598401805904DE770B5044648
:10CD4000064E074D05E0315C204601F025FB012829
:10CD500002D0285D0028F6D170BD000074010200E9
:10CD60000521002010B502F059FE10BD10B506488F
:10CD70004068002805D08047002801D000F084FCDE
:10CD800010BD01F085FC10BD8020002001231A4653
:10CD900082408B4010B504490C7814430C70034951
:10CDA0000A5C1A430A5410BD04210020052100200A
:10CDB000704710B5042002F045F9052002F042F951
:10CDC00010BD000010B501F0B1FC002805D01F49CE
:10CDD0001D484860C8131E4988611E48018CC9B2AD
:10CDE00001290BD1828C120708D1028D1206120F75
:10CDF000042A03D1828D1206120F0AD0012921D1F3
:10CE0000818C09071ED1018D0906090F0A2904D05A
:10CE100007E0114A01219160F5E7828D1206120F99
:10CE200005D00D290ED1808D0006000F0AD10B48C8
:10CE30000168012904D00A49016001680129FCD177
:10CE4000C021416110BD0000DFFF07C000050040A8
:10CE5000006C0040C00F00F00006004000EC0640EF
:10CE600075930000F8B52E4C01214902204602F0CE
:10CE7000CBFA00252B4F0126002818D0FF212531A1
:10CE8000204602F0BCFA002811D0FF2025302550A2
:10CE900081202549800088603878002800D16660AC
:10CEA00020480822001D01781143017028E0042168
:10CEB000204602F0A9FA002822D0FF21093120469D
:10CEC00002F09DFA00281BD0FF200930255017489A
:10CED0004672174882691549E031887A0B465A3BF9
:10CEE000C254887A401CC0B28872642800D38D7204
:10CEF0000E481421603081843878002800D16660A3
:10CF0000FF214531204602F07AFA002806D0FF20A2
:10CF1000453025503878002800D02660F8BD000044
:10CF200000200040D420002000230040582D002085
:10CF30000025004030B504460078F02816D160780E
:10CF4000A52813D1E57A28460F300C3588420DD834
:10CF500060194178162909D180780D2806D1294613
:10CF60002046FEF76FFF615D884201D0002030BD92
:10CF7000012030BD30B51C4B002159600278811C66
:10CF8000140242782243194CA24227D10C78184A45
:10CF9000240254804D78254355808C781471CC78C8
:10CFA00054710C7994714C79D4718C791472CC7958
:10CFB00054720C7A09319472AA2C01D0552C0DD1DF
:10CFC0000C78D472491CD16061180C7814744A78BA
:10CFD000897812021143074A914201D0002030BDE6
:10CFE0005860012030BD000098200020A5F000000E
:10CFF000842F00200D16000010B5034A1173012183
:10D00000FFF7DCFC10BD0000582E002010B5064ACA
:10D0100000219268435C545C63404354491CC9B28C
:10D020001029F7D310BD00001021002010B5124CBC
:10D0300002202061606111A0A0611348E06101201D
:10D04000400220620020A06260620CA1A16421461F
:10D05000E0621039E16410212165A0656065E0653A
:10D060000AA1E01DFEF7BBF809A12046FEF7B7F8BC
:10D070002020A07110BD0000802B00205465726D2F
:10D08000696E616C00000000702900205254540049
:10D0900053454747455200000269C1688A4203D898
:10D0A0008068401A801800E0501A401E7047FFB593
:10D0B00083B00E4670420D9F0C9C0090002900DB4F
:10D0C0000846012502E0FEF737F86D1C05998842F5
:10D0D000F9DA0698A84200D90546002C04D0002EA3
:10D0E00001DB780700D5641EB80702D50698002832
:10D0F00010D0F8070ED1002C0CD0A5420AD2202166
:10D10000641E039800F0A4F80398C0680028F2DABF
:10D1100007B0F0BD0398C0680028F9DB002E02DAE2
:10D120002D21009E02E0780707D52B21039800F0FF
:10D130008FF80398C0680028EADBB807800F022840
:10D1400010D1069800280DD1002C0BD0A54209D291
:10D150003021641E039800F07BF80398C068002813
:10D16000F2DAD5E7019700943146069B059A0398B9
:10D1700000F002F8CCE70000FFB581B001261F46A1
:10D1800034460A9D029802E0FDF7C0FF641C039933
:10D190008842F9D2A74200D93C460B98C00718D163
:10D1A000002D16D00B98800701D5002F02D020202B
:10D1B00000900CE03020FBE76D1E0099019800F014
:10D1C00047F80198C06800283DDB002D01D0AC4233
:10D1D000F2D30198C068002835DB012F01D97F1EEA
:10D1E00006E031460298FDF791FF0399884202D389
:10D1F00003984643F1E7154F31460298FDF786FF45
:10D200000146029A7143511A0291395C019800F06B
:10D210001FF80198C068002805DB30460399FDF728
:10D2200075FF0600E8D10B98C0070CD0002D0AD07E
:10D23000AC4208D220216D1E019800F009F8019837
:10D24000C0680028F2DA05B0F0BD000068FE0100F9
:10D2500010B5044680686368421C934205D3236876
:10D260001954A260E068401CE060A26860688242D5
:10D2700009D121682069FFF73FFCA168884203D0EB
:10D280000020C043E06010BD0020A06010BDF7B5D5
:10D29000064682B000200090F46817463069A0422C
:10D2A00001D9051B02E0B168201A0D1AB0686D1E85
:10D2B000001BA84200D80546BD4200D33D46706819
:10D2C0002A4600190399FDF74BFF00987F1B401970
:10D2D00000900398641940190390B068A04200D1EF
:10D2E0000024F460002FD9D1009805B0F0BDF7B547
:10D2F000C668174604468068851B6068BD4206D92B
:10D3000080190199FDF72CFFF019E060FEBD2A4657
:10D3100080190199FDF724FF01987E1B41193246BF
:10D320006068FDF71DFFE660FEBD30B47446641E04
:10D330002578641CAB4200D21D46635D5B00E31898
:10D3400030BC184702E008C8121F08C1002AFAD1F1
:10D3500070477047002001E001C1121F002AFBD175
:10D3600070470000202804DA01218140034801426F
:10D3700001D001207047002070470000FC06FFBC70
:10D38000F7B584B006460025178815802030029036
:10D39000407B1446002806D03A462146059800F006
:10D3A0000DFD050009D1B078002823D005988646E8
:10D3B0002088001DB84202D90C2007B0F0BD684695
:10D3C00079DF0028F9D12188032072465054208843
:10D3D0001921401C80B22080115420887146401CC5
:10D3E00080B2208041186846008802F026FC21881F
:10D3F00040182080F078002817D0218803230A469F
:10D40000F356C91C0598B942D6D802218154218807
:10D410000122491C89B2218042542188491C89B2C9
:10D42000218043542088401C20807068002817D039
:10D4300021880023C3560A46C91C0598B942BBD8A7
:10D440000221815421880A22491C89B22180425438
:10D450002188491C89B2218043542088401C2080A7
:10D46000308900280AD00094304601970622022114
:10D470000830059B02F02EFC05009ED1308A002862
:10D480000AD0009430460197072203211030059BF3
:10D4900002F020FC050090D1308B00280AD00094C7
:10D4A00030460197152214211830059B02F012FC1A
:10D4B000050082D1306A002806D03B4622460599F5
:10D4C00000F0E8FF0500D8D1706A002806D03B467E
:10D4D0002246059901F018FB0500CED10298007B89
:10D4E000002807D03B4622463046059902F016F93F
:10D4F0000500C2D13078002807D03B46224630468E
:10D50000059901F0A7FB0500B7D1284655E70000B3
:10D51000174A0021535C002B01D0012203E0491C73
:10D520000629F7D300221349012806D002280BD080
:10D53000032810D0042818D112E04878002803D01E
:10D54000002A01D0012070478878002803D0002AE3
:10D5500001D002207047C878002801D0032070470E
:10D560000879002801D0042070470020704700008F
:10D570001D2000207C220020F0B5B3B03C2101A882
:10D58000FDF707FE02276846077100258571062111
:10D59000C1713C2110A8FDF7FCFD012610A80682F0
:10D5A0002548159020211FA8FDF7F3FD18A8C67780
:10D5B000192080012390142124952AA8FDF7E9FD64
:10D5C0002AAC2FA871DF00202FAA31A905231B1A2E
:10D5D0009B185B780B54401C0628F7DBF620207064
:10D5E000CB2060709A20A0703B20E070267166719D
:10D5F000A6710820E07125726572A520A0722046F0
:10D60000E77206220C30FDF7ABFD592120A881837B
:10D610002AA82990122120A8018427A800951990F2
:10D62000064B1FAA10A901A800F04AF9002801D052
:10D6300000F02AF833B0F0BDEC1F002019F401000F
:10D6400009A1012001F0F6FD01F048FD01F04CFDBB
:10D650000028FBD100BEBFF34F8F0A490848C860BD
:10D66000BFF34F8F00BFFDE74150505F4552524F0F
:10D67000523A4552524F523A466174616C0D0A005B
:10D680000400FA0500ED00E00EB5002102900091C3
:10D690006A4601910148FFF7D3FF0EBD014000002B
:10D6A000094B5B68002B07D0002A07D0002805D063
:10D6B0000068037C002B03D00820704707207047C8
:10D6C00041744261002070475C200020FFB507468E
:10D6D0009007002581B01E461446002825D1002C55
:10D6E00023D001F065FF3046114EF0603046103017
:10D6F0000570457002998170446075603570012431
:10D700000C4875702405046003211420FEF7F4FF13
:10D7100009480460094CA76003211120FEF7ECFFC3
:10D720006068B060002005B0F0BD0720FBE7000096
:10D730004C20002080E200E000E100E00015014004
:10D74000FEB51F4B5B68002B30D000282ED005297A
:10D7500001D20720FEBD4369002B27D0437C012B5B
:10D7600026D00027029104460025694616460D7012
:10D77000684600F03DF801A802F096FA002819D09A
:10D78000012101700F494460496881600299076175
:10D790004661C16068460A49007948706846007869
:10D7A00000F044F802F07CF92846FEBD0820FEBDDA
:10D7B0000F46D7E768460425007800F037F8F3E70E
:10D7C0005C2000200015014010B508494968002977
:10D7D0000AD0002808D04169002905D00021017431
:10D7E000022102F085F910BD082010BD5C20002048
:10D7F00030B5EFF3108172B6094A54680123002C4A
:10D8000004D00370002900D162B630BD5360054BCF
:10D810001D68054C254015601C6000220270F1E770
:10D820007020002080E100E0FC06FFBC08494A6847
:10D83000002A0CD000280AD1EFF3108072B60A68D3
:10D84000044B1A6000224A60002800D162B670477B
:10D850007020002000E100E0F0B50C4693B01F21DD
:10D860006A461180072600279180002809D0C178D8
:10D8700049070DD502A9FFF783FD002809D102ADA4
:10D8800001E000251780002C0ED0E078002802D09F
:10D89000304613B0F0BD01AA0AA92046FFF770FD7B
:10D8A0000028F6D10AAA02E068460022878068466E
:10D8B0008088C3B268460088C1B2284672DFE8E7B4
:10D8C000FFB581B01E460A9F1346040047D0002BC7
:10D8D00045D0504D012028700020E87020221946C4
:10D8E0004D48FDF73DFC00206F61C0432E6128814B
:10D8F000284607211830FDF74CFC47483C212030D2
:10D90000FDF747FC4448217820300170A1788170F0
:10D91000E178C170617841703F4A65692369556358
:10D92000114613632031E368A268CB608A603A49EC
:10D93000E369A269CB638A63616A00291AD0014650
:10D940003C310246483241628A60636A1B880B8020
:10D95000616A436A898899800021436A07E00E2042
:10D9600005B0F0BD656AAD686D5C5554491C9D8875
:10D970008D42F7D8A16A00291CD0274A943211465B
:10D980000C398A608162A36A9B888B80A16A836A52
:10D99000098819800021836A04E0A56AAD686D5C7E
:10D9A0005554491C9D888D42F7D82C210A5D1A498F
:10D9B00040310A73216A002909D016490A310162EF
:10D9C000226A52884A80216A026A09881180616845
:10D9D000002900D04160104A0E490020B3322031A6
:10D9E000C3001B1A85009B180C68401C6351082853
:10D9F000F6DB094A0020EB32030185009B188C6896
:10DA0000401C63510828F7DB034802992030FFF7D8
:10DA100023FFA5E7042000207C22002010B5018808
:10DA2000134C102915D0112919D01B2910D1007AB7
:10DA300000280DD1E0780521401CFDF767FB084662
:10DA400000F018F8002803D06169002900D0884749
:10DA500010BD817D0129FBD18088208110BD00216E
:10DA60006171808821898842F8D10120E8E70000AF
:10DA700004200020F1B53F4C88B0207800280AD05F
:10DA80000898E07006A800F0A1FD0698012500287E
:10DA900004D065706AE0082009B0F0BD3548002761
:10DAA00007211830FDF775FB334E7078002802D03F
:10DAB000E078012807D0B07800280CD0E078012861
:10DAC00001D0022807D12169002903D0257108203F
:10DAD000884700E027710898FFF71AFDE070216978
:10DAE000002909D0032801D0042805D13078002866
:10DAF00002D06079002811D0A77118216846FDF77F
:10DB000048FB684607700772E1781A480B00183026
:10DB1000FFF70BFC052E080F191D2000A57107202B
:10DB20008847EAE7A570019068460570478207823A
:10DB300013E00221A170019068460570B18941820D
:10DB40003189018209E0684601F030FE02E0684652
:10DB500001F058FEE078002803D0684673DF002803
:10DB60009AD12169002901D0A0788847002093E745
:10DB7000A770F6E7042000207C22002070B50D4637
:10DB800004461300FFF7D1FB05041526374814009F
:10DB900002462AA10020FEF7FBFF002606E0AB5D4F
:10DBA00032462DA10020FEF7F3FF761CA642F6DBDD
:10DBB00070BD02462CA10020FEF7EAFF002606E019
:10DBC000AB5D324624A10020FEF7E2FF761CA642A0
:10DBD000F6DB70BD02462CA10020FEF7D9FF00261F
:10DBE00006E0AB5D32461CA10020FEF7D1FF761C9B
:10DBF000A642F6DB70BD02462BA10020FEF7C8FF4F
:10DC0000002606E0AB5D324613A10020FEF7C0FF00
:10DC1000761CA642F6DB70BD024629A10020FEF765
:10DC2000B7FF002606E0AB5D32460BA10020FEF7F1
:10DC3000AFFF761CA642F6DB70BD00006F7269670D
:10DC4000696E616C2064617461206C656E677468D4
:10DC5000203D2025640D0A005B25645D203D2030B9
:10DC600078253032580D0A006461746120656E6356
:10DC7000727970742064617461206C656E67746879
:10DC8000203D2025640D0A0063726320636865638C
:10DC90006B2064617461206C656E677468203D2040
:10DCA00025640D0A000000006165732064617461E1
:10DCB000206C656E677468203D2025640D0A0000A5
:10DCC00073656E642064617461206C656E6774684E
:10DCD000203D2025640D0A0070B5054601461C2232
:10DCE0000E48FDF73DFA0E4C0026267029680029E3
:10DCF00006D00822201DFDF733FA201D7ADF02E04E
:10DD00000748001D7BDF002807D1401E6080667039
:10DD1000044A00210448FFF7C3FC70BD48240020DA
:10DD20003420002045FC010014FE0100F8B5214C10
:10DD30000146028800261E48E589102A13D01E4F8E
:10DD4000112A1FD0122A2BD0502A1AD1881DC98817
:10DD5000A94216D14189022913D10C3000F0FEF8F6
:10DD600000280CD112E08A8804464280104808221C
:10DD70000C301831FDF7F4F96670002D01D100F078
:10DD8000D1FBF8BD0021C943418046703868FFF7D8
:10DD90001BFD0028F5D0A1690029F2D08847F8BD05
:10DDA000034808220C300831FDF7DAF9E7E70000F4
:10DDB000342000204824002014FE01007CB50546D4
:10DDC00008880C460930904201D90C207CBD684679
:10DDD00071DF0028FAD121880820685420881B218F
:10DDE000401C80B220802954208800A9401C80B2A9
:10DDF0002080401906220131FDF7B2F920886946DA
:10DE0000801D80B220800978002900D0012129548A
:10DE10002088401C208000207CBD000010B50446F6
:10DE2000FFF784FF2146054800F040F8204601F046
:10DE300003FB2046FFF7F2FD10BD0000F421002097
:10DE400030B5184B0D4604000FCB85B003936B46DD
:10DE500007C324D0002D22D00020C043A082286810
:10DE6000A0610020A0752146684663DF002814D118
:10DE70000121684681740C490182A21C04A9012079
:10DE8000A0DF002809D12946204601F0B3FB002875
:10DE900003D12946204601F08FFE05B030BD0E208B
:10DEA000FBE7000018FE01001019000010B5002863
:10DEB0001BD0002919D00A88102A17D0112A17D090
:10DEC000502A12D104468A1DC888238A12319842EA
:10DED00002D15389022B0FD0A388984205D1A369A0
:10DEE000002B02D052892046984710BD898801E056
:10DEF0000021C943818210BD084600F02FF8002898
:10DF000000D00120A07510BD07B584B000280DD049
:10DF1000828A114B9A420BD0827D002A08D06A4631
:10DF2000128B142A06D9072007B000BD0E20FBE78C
:10DF30000820F9E70022009201920292039282895E
:10DF40006B461A80039106A9029101219970808A7B
:10DF50006946A6DFE8E70000FFFF0000417802788D
:10DF600008021043C007C00F7047000070B50F4C87
:10DF7000154620784219802A07D80D4A10182A46DB
:10DF8000FDF7EEF8207840192070C1B2657008489E
:10DF9000FEF7D0FF012808D1002205492078FFF7BD
:10DFA000EDFD00210420FEF7F1FE70BDCC20002025
:10DFB000982F002070B50C46054607E0142229462C
:10DFC0000648FFF7A1FF143CA4B21435142CF5D871
:10DFD000224629460148FFF797FF70BDF421002033
:10DFE00005490B5C05494A68012098400346934364
:10DFF0008B601040C8607047E0FD010000050050D4
:10E0000010B50349085C012101F024F810BD00009F
:10E01000E0FD010010B50349085C002101F01AF889
:10E0200010BD0000E0FD01000549095C054840689D
:10E03000C840C007C00F00D00120012148407047F0
:10E04000E0FD01000005005010B500242046FFF758
:10E05000D7FF641C042CF9D310BD10B50024204652
:10E06000FFF7D8FF641C042CF9D310BD0246002032
:10E0700010B5C043054B00215C5C944201D10846B9
:10E0800010BD491C0429F7D310BD0000E4FD0100B8
:10E09000F3B581B00D460198FFF7E8FF0446042868
:10E0A00013D21D481D4F1E4E002D27D0012D0DD01F
:10E0B000022D0AD160002018C0194578002D04D027
:10E0C000F168002901D028468847FEBD610061182B
:10E0D0007D5CCF19797800290BD071680A225143F1
:10E0E0000F4A8068921CFFF72BFB002801D1019892
:10E0F000B0700B48B97810300155DFE78068FFF742
:10E1000063FB0748610061181030C919005D8D7804
:10E11000A842D3D0FEBD0000E8FD0100502200203F
:10E12000F01F002010B5054A0146127A0020D207E0
:10E1300002D0084600F018F810BD0000F01F0020C3
:10E14000FF2002490130C860704700000005005000
:10E1500004494A68FF200130034693438B60104016
:10E16000C860704700050050F8B55D4C0546607802
:10E170000026002803D000206070FFF765FF012013
:10E18000584F2B00FFF7D1F818970D0D2E3D4A5F21
:10E1900064686F686FA97777777777979A9DA0A95A
:10E1A000A9950020FFF740FF00280AD00020FFF7C4
:10E1B00027FF022D02D1E120C0000BE07D204001AD
:10E1C00008E00020FFF726FF022D01D1C82001E062
:10E1D000FF20913025706421FCF798FF616841436E
:10E1E00000222BE00020FFF71FFF002805D00020B1
:10E1F000FFF706FF19204001ECE70020FFF70AFFB8
:10E20000E4E70020FFF710FF002803D00020FFF70D
:10E21000F7FED3E70020FFF7FDFED9E70020FFF768
:10E2200003FF002803D00020FFF7EAFE02E00020F1
:10E23000FFF7F0FE25706068410000223868FFF7A4
:10E240007FFA064635E00020FFF7CAFE257007E09A
:10E2500000203FE025702CE060700120FFF7C0FE39
:10E2600000226168EAE760700120FFF7B9FE60688C
:10E2700081004118E1E77868FFF7A6FA0646112009
:10E28000401B01D0002E03D00220FFF7B9FE10E0A2
:10E2900001280BD9C82148436421FCF737FF616886
:10E2A000002241437868FFF74BFA06460220FFF749
:10E2B000B1FE3046F8BDFFF7C7FECBE7FFF7C4FE5F
:10E2C000C6E7FFF7C1FE04E0FFF7BEFE0020FFF740
:10E2D000A1FE0120FFF79EFEBCE7FFF7BEFEB9E7F7
:10E2E000F01F0020E8FD0100F8B50D46461C002097
:10E2F0006946087001246846FFF77AFA134A1068E5
:10E300002860116850689368081A1D1A701C6D1CEB
:10E31000A84212D9002D0ED00D480E4C008824685A
:10E3200080051940800DA402890020438918C86027
:10E330001068401C1060002401E0881910606846D5
:10E340000078FFF773FA2046F8BD0000582500203A
:10E3500044FE01007C200020034803C8814201D113
:10E360000120704700207047582500200022D2432A
:10E37000830004490428CA5002D3081820300277C9
:10E380007047000078240020024909182020085610
:10E39000704700007824002030B5084C0122235C2F
:10E3A00015468D40AB43235401D0002030BD824040
:10E3B0000348017891430170012030BD0521002000
:10E3C0000421002070B5084C050009D010342168E4
:10E3D000002907D008682060496828468847F6E782
:10E3E0000834F4E770BD000064240020F8B5234829
:10E3F000416800293ED00E6821494C6887688078C2
:10E40000E11B0D022D0AED1C002814D101201D4A2C
:10E41000000450601B4A403A50601B4940000860AD
:10E420001A4908601A49012008602F2000F072FC88
:10E43000124901208870B54200D23546E819000221
:10E440000F4B000A403318600D4A5168001B091B2E
:10E450000902090A0002000AC91C814209D9506850
:10E4600018602F2000F056FC012007494004803935
:10E470000860F8BD01F09CF8F8BD00004C200020B9
:10E48000001501404013014080E200E000E100E09F
:10E4900000100140F8B50646108814468446801DD9
:10E4A0000D46984201D90C20F8BD32880720062A73
:10E4B000FAD31927FF01184BBA4201D99A42F3D176
:10E4C00071880629F0D3B94201D99942ECD19A4218
:10E4D00003D0994201D08A42E6D8052160462954EA
:10E4E00020881221401C80B2208029542088401CA2
:10E4F00080B220804119308801F09FFB21884018AC
:10E5000080B220804119708801F097FB2188401863
:10E5100020800020F8BD0000FFFF000010B5FFF7CD
:10E52000B3F810BDF8B5164800F0F2F8144D002607
:10E530000C3D144C002807D0616900291CD0012033
:10E540006A461070684616E02878002805D0616990
:10E55000002911D0684606700DE0687800280DD0BB
:10E56000A168094800220068FFF7EAF8002803D0F4
:10E57000A169002900D088472E70F8BD6168F0E7D6
:10E58000402000204824002014FE010010B50E4950
:10E5900000230A784C78A24212D0521CD2B20A70E0
:10E5A000022A00D10B700A78074B920018339A5850
:10E5B0000260886810180002000A8860012010BDFF
:10E5C0000360002010BD00004C200020002804D073
:10E5D0000349496E01600020704703207047000026
:10E5E000F024002010B5054A01210548FFF758F82E
:10E5F000002801D0FFF748F810BD0000DDE8010059
:10E60000700102000248002141708170C1707047A2
:10E61000D420002010B500F01BFC082000F0EFFC17
:10E62000FF201A49013088600021012000F0DEFC43
:10E63000022000F0E4FC022000F0FCFC0021042099
:10E6400000F0D4FC042000F0DAFC042000F0F2FC1E
:10E65000052000F0D4FC052000F0ECFC0021062091
:10E6600000F0C4FC072000F0CAFC072000F0E2FC28
:10E67000032000F0C4FC032000F0DCFC092000F0C3
:10E68000BEFC092000F0D6FC10BD000000050050C3
:10E69000F8B51E4C2078002836D0E0680026002807
:10E6A0000CD00025607800282ED1684652DF05285E
:10E6B00006D0002806D0FEF7E7FF0BE00125F1E7C2
:10E6C000012607E0009800F07BFB2169002901D0BA
:10E6D00000988847002D13D16078002814D16088F5
:10E6E00069460880A06861DF052804D0002804D0AE
:10E6F000FEF7CAFF04E0012502E0E168A068884750
:10E70000002ECFD0002DE5D0F8BD000080200020E5
:10E71000418805480288914204D34088814201D84B
:10E720000120704700207047382000201048018CDD
:10E73000C9B2012917D1818C090714D1018D0906AD
:10E740000A0F03D1828D1206120F0ED0090F012974
:10E7500003D1828D1206120F07D0032903D1808DB9
:10E760000006000F01D00020704701207047000014
:10E77000C00F00F0F0B5284C2146103948688B686E
:10E78000227886469C46CF78667836E01823534335
:10E790006168521CC918A378D2B2934200D10022FA
:10E7A0000B78022B02D0032B27D123E003464D68C0
:10E7B000194603E0A94204D00B46C96900291CD0C0
:10E7C000F8E7002919D08B4208D1C069002805D18B
:10E7D000124F0125BD600025AC4601270D68C969AF
:10E7E000D961002909D00B685B190B6005E0017441
:10E7F000C06900E000210028F9D19642C6D106493F
:10E80000624610398A604860CF70704501D001209F
:10E81000F0BD0020F0BD00005C2000200010014091
:10E82000F8B52C4E044670680025009041E0002C9D
:10E8300002D02046E46920E02648182310300178F1
:10E8400042684B43491CC9B2D2180170837899427F
:10E8500000D105701178506801292CD1017C002964
:10E8600029D191684160D16881601169C1605169A5
:10E870008161F178002900D045604368B268164F85
:10E88000991A0902090AB94202D28268891806E077
:10E89000D11A09028268090A8A4202D9511A016012
:10E8A00000E005604560012185600174C56101F0EB
:10E8B000FFF8002CBBD10748103001784078814226
:10E8C000BAD171680098814201D00120F8BD0020C2
:10E8D000F8BD00004C200020FFFF7F0070B5204DE8
:10E8E000204C2888401C28802078000702D40A2069
:10E8F000FCF758FF0A20FDF739FA0A20FDF756FA0F
:10E90000288864282AD300262E802078164DC10737
:10E9100001D1810713D5E988491CE980E988B42928
:10E920000DD3EE80C00703D000210620FEF72EFA9B
:10E930002078800703D501210620FEF727FA2078EA
:10E9400001070BD52989491C29812989E122120156
:10E95000914203D32E81F7210840207070BD000042
:10E96000AA200020A8200020782F0020002388B0B3
:10E97000524A05211846FEF7A9FE002801D0FEF7ED
:10E9800083FEFEF7AFF84EA10020FEF701F95048D4
:10E990004A4900680590002348225C3905A800F028
:10E9A000DDFF002801D0FEF76FFE6A46012100203E
:10E9B00000F0BCFF002801D0FEF766FE684600F0BC
:10E9C00063FF002801D0FEF75FFE424800F052FFCF
:10E9D000002801D0FEF758FEFFF71CFE01F000F8FA
:10E9E00011206946087207223BA102A87CDF00289B
:10E9F00001D0FEF749FE00240094102168460194DE
:10EA000001803C214180FF2184809131C1807ADFE7
:10EA1000002801D0FEF738FE314828490090012037
:10EA200078310870254869467830FFF709FA0028E0
:10EA300001D0FEF729FEFEF79FFD1C216846FCF77A
:10EA4000A8FB0520C00301900F2000040290009451
:10EA5000032168460173C48104742248059022484A
:10EA600006906846FFF738F9002801D0FEF70CFE43
:10EA7000002000F01BFA002801D0FEF705FE03205D
:10EA8000FEF7F8FF002801D0FEF7FEFD17A10020D9
:10EA9000FEF77EF8FDF70DFA184C194D194E03E0FC
:10EAA000285C81007158884720780028F8D148DF19
:10EAB0000028F9D0FEF7E8FDF6E700007C210020F1
:10EAC0004D61696E205374617274210D0A0000005B
:10EAD000DCFD01001DDE0100414E47554D454E0055
:10EAE0006DDF010009F501001DE50100416476209C
:10EAF0005374617274210D0A00000000042100208B
:10EB000074010200E420002070B5144682880E468D
:10EB100005462088111D4118921C994201D8FE2AF1
:10EB200001D90C2070BD521C32542088FF21401C9A
:10EB300080B2208031542088401C80B2208081190E
:10EB4000288801F07AF82188401880B22080AA88AD
:10EB5000002A09D0A968002908D08019FCF700FB19
:10EB60002088A98840182080002070BD072070BD33
:10EB7000F3B581B00E0029D015490878002825D0BA
:10EB8000FF20144C1D30002222500127A76015469B
:10EB900019E00F4A1078002817D0FF211D310020FE
:10EBA00060500198435D0C48C36103E00848007859
:10EBB000002806D0FF211D31204600F020FC00284F
:10EBC000F4D06D1CEDB2B542E3D3E760FEBD0000AA
:10EBD000D42000200020004000250040F8B5174F49
:10EBE0003878002828D1FFF70DFD174E1448154D31
:10EBF00070620024F466072006217161F060FF2036
:10EC00001D302C50114980208860FF2009302C5085
:10EC1000FF2045302C500E4848600321022000F0B0
:10EC2000D5F8FF2025302C50FF2009302C50012032
:10EC30003870042131602860F8BD0000D420002025
:10EC40000050270000200040002500400023004025
:10EC500004000200F8B50F46017814460546012964
:10EC600002D16878002806D02088821C9A422DD8CC
:10EC7000012902D006E00720F8BD69784118891CF7
:10EC8000994223D8181A801E86B2684606802188C9
:10EC9000B81C081869467DDF0028EDD128780228C5
:10ECA00005D169460988B14201D809210AE0082145
:10ECB000012805D16878B04202D86A46108001E088
:10ECC0006846068068460088FE2801D90C20F8BDF9
:10ECD0002288401CB8542088401C80B220803954BF
:10ECE00020886946401C2080098840182080002028
:10ECF000F8BDC20843075B0F0120895C98400840BB
:10ED000070470121890740180068002800D00120C1
:10ED10007047000000280FD00849094A096800BF61
:10ED200000BF00BF00BF00BF00BF00BF00BF9142D7
:10ED300000D000BF0138F2D1704700001C21002034
:10ED40000024F40070B50E4C00252078002801D076
:10ED5000852513E00021A16061602161E16009481F
:10ED600000680126304002D1032100F02FF800F0A6
:10ED700031FE002801D1044886612670284670BD06
:10ED80006424002000E100E00005004038B50020C8
:10ED9000694608706846FEF72BFD084C207800286D
:10EDA00001D1FFF7CFFFE068401CE0600120A070B8
:10EDB00068460078FEF73AFD38BD00006424002064
:10EDC00010B5002801D1FFF7FDFA10BD8207D30E60
:10EDD000FF229A408907090E10B5994000280BDAE6
:10EDE00003071B0F083B9C080C4BA400E318DC69CD
:10EDF00094430C43DC6107E08408094BA400E41849
:10EE0000236893430B432360C106C90E0120884049
:10EE1000044908600449086010BD000000ED00E0EE
:10EE200000E400E080E200E000E100E04109074A80
:10EE3000890089180968C206D20E0120904001425B
:10EE400001D00120704700207047000000E100E081
:10EE500070B5144D2879002801D0082070BD1149E3
:10EE600000204039421E0B182033401CC0B21A70DB
:10EE70002028F8D300242046FFF778FA641CE4B277
:10EE8000082CF8D303210620FFF7A0FFFF207D30D8
:10EE900000F000F901200449C007486001202871F2
:10EEA000002070BDB82400200063004038B5124C2B
:10EEB0002178002901D0852038BD002800D10F48D5
:10EEC0000D4902784A7040788870002069460870C1
:10EED0006846FEF78DFC00F07DFD002803D100F0B0
:10EEE0003DF800F055F868460078FEF79FFC0120D9
:10EEF0002070002038BD0000482000202CFE0100BA
:10EF0000F3B5144E81B00F46002568460570FEF734
:10EF10006FFC00F05FFD00280BD068460078FEF71C
:10EF200085FC394601983ADF0446B0420DD10524EC
:10EF30000DE03A460848019900F040FA044600F016
:10EF400027F868460078FEF771FC022CDDD02046D9
:10EF5000FEBD00000720000030FE010010B509488A
:10EF60004178002904D008494A6801231A434A60BD
:10EF700006490A68520852000A6081780D20FFF79E
:10EF800025FF10BD4820002000D5004000D20040E1
:10EF9000054A002003491060044A012050600860BF
:10EFA0007047000000D0004000D1004000D3004076
:10EFB00002490120886002490860704700D3004080
:10EFC00004D0004070B552000A439900049D0A43E2
:10EFD0002902059E0A43310405240A4324078000C0
:10EFE0000721001909024018026070BD1CB50022FB
:10EFF0000B46009211460192FFF7E4FF1CBD1CB5C1
:10F00000002100910B46012201911146FFF7DAFF22
:10F010001CBD05221207800082180720000210186C
:10F02000026803231B049A430260026809040A432E
:10F0300002607047012181400148C16070470000B3
:10F0400000050050012181400148C1607047000067
:10F0500000050050012282400348002901D082604F
:10F060007047C260704700000005005038B5084B7B
:10F0700005241B68009324026B46411805E08500B7
:10F080005D592D192D69401C20C28142F7D838BD29
:10F0900028FE01000249401800210160704700006D
:10F0A00000600040034940180068012800D000209B
:10F0B000704700000060004070B5074D0446287896
:10F0C000002802D06878844204D0FDF70BFD0120AF
:10F0D00028706C70002070BD7820002010B50120D1
:10F0E000FFF7EAFF10BD0000F0B595B0FFF734F967
:10F0F000002802D0002015B0F0BD4B484468866857
:10F1000021463140890009180C94CD680BE0290490
:10F11000A80D890D4018041920463040810042484E
:10F120000C940818C568641CA807F0D0002008904B
:10F13000A807800F3D4B022807D0AA0AA805000F98
:10F1400084460EA99646002059E0204630408100B2
:10F150003548641C0818C068049486462804800D4D
:10F1600084463440301B8000AF0D001D874222D9F9
:10F170002D490C31002807D02B4AA400A2181446B0
:10F180000C34C2B2381A03E00C460021FAB2084629
:10F19000C0B20390019202910094A8065C69400FEE
:10F1A000634672460899A047B84213D1FF1C0498E1
:10F1B000B9080C1830E01C48A200101800210C30CF
:10F1C0000090029101970391A8065C69400F634685
:10F1D0007246E8E7164980050D40000C05430C987F
:10F1E0003040810010480818C56017E027463740B6
:10F1F000BA000D4F401CD719FF68641C80C16746D8
:10F200006045F3D3A80600971D69400F0EAB724608
:10F210000899A847002801D003484460FFF79CF8EC
:10F220000121484067E700005825002058290020A8
:10F230003F00FFFFF8B5104D0E4607460020694617
:10F24000AC68FFF751F8002815D00C483C218088A5
:10F2500088437907890E08430F2189018843810576
:10F26000890DB002014300980246224092005219D3
:10F27000401CD1600090F8BD5825002044FE0100DC
:10F28000F7B5154C82B00E46074601206946A568C1
:10F29000FFF72AF800281CD010483C210089884339
:10F2A0007907890E08430F218901884340210843CB
:10F2B0008105890DB0020143009802462A40920060
:10F2C0001219D160401C0090284080000019049958
:10F2D000C16005B0F0BD00005825002044FE0100CB
:10F2E000016880684A68824201D2521C00E0002214
:10F2F0000868824201D10120704700207047806871
:10F30000884201D9481C704700207047FEB504466A
:10F310000E4600206946019008706846FEF768FABC
:10F320002046FFF7DDFF07000AD0207C002807D029
:10F330000420019068460078FEF778FA0198FEBD37
:10F340002068416820460D46FFF7D9FF2168002F4D
:10F35000486006D0206801682046FFF7D0FF21688A
:10F360000860E268012A15D0022A17D0042A1AD0B0
:10F37000082A1DD010466168684308183146FBF71B
:10F38000EFFE204600F000F921688A688242D1D25F
:10F390008860CFE7616830784855F2E76168308867
:10F3A0006A008852EDE761683068AA008850E8E793
:10F3B000626803CEEB00D21803C2E2E7F8B500247E
:10F3C00015460E460746002A10D0002069460870F0
:10F3D0006846FEF70DFA384600F0D6F8A84207D383
:10F3E0002A463146384600F09FF802E00020F8BD7A
:10F3F000052468460078FEF719FA2046F8BD405803
:10F40000002800D0012070470322120280184068B3
:10F41000084000D00120704710B5002809D003280B
:10F4200006D10220FEF77EFE002801D0FEF72CF95F
:10F4300010BD00F011FA10BD70B50446314D0088C2
:10F440006E8888B03A2838D00DDC022839D01028D0
:10F4500013D011281AD0132822D100231A4685214F
:10F4600030467FDF26E051282FD052281DD0552866
:10F4700016D1A088132176DF1CE00720FEF752FE8C
:10F48000002801D0FEF700F9A08808E00020FEF770
:10F4900049FE002801D0FEF7F7F80020C04368803D
:10F4A00008B070BDFEF7F0F8FAE700231A461946D7
:10F4B0003046A9DF0028F5D1F2E7A088132176DFD6
:10F4C000F8E7A088002167DFF4E71022A11D04A857
:10F4D000FBF746FE6846017C0029E1D0007E042847
:10F4E00003D0062801D00528DAD1022908D001204E
:10F4F00069460870FF2083308880A088A8DFD9E79C
:10F500000220F5E7E81F002010B50078002807D199
:10F5100004483B21408876DF002801D0FEF7B4F88C
:10F5200010BD0000E81F0020F7B50168044603C9BC
:10F530001646884201D80D1A02E0A1680D1A6D1C0A
:10F54000E268616850434118AE420CD8724301989A
:10F55000FBF706FE2168A26808688019904200D96E
:10F5600000200860FEBD17466F433A460198FBF73E
:10F57000F7FDE2680198751B6A436168C019FBF7E3
:10F58000EFFD20680560FEBD016806C98A4201D30F
:10F59000501A70478068401A401C8018704701223A
:10F5A00052075110886B496B41438818704700001F
:10F5B00070B501240B49600408600B494010886055
:10F5C000094940398860094D6C602F20FFF7A2FB84
:10F5D000AC60074D00242F20AC60FFF79BFBAC70A4
:10F5E00070BD000080E100E04013014000100140C8
:10F5F0004C200020F0B500240546601C01078FB0A8
:10F60000090F08A8103108940170601C0107090F48
:10F6100008A8103141708178F9273940891C817020
:10F620001C2101A8FBF7B5FD6846017910200143B4
:10F6300068460171029408A8049405940126079471
:10F64000069086710B21C94368468184314610318A
:10F65000009401703146103141708178F7203940B3
:10F66000891C0140EF20014031436846817014211C
:10F670000AA8FBF78EFD09A80A9068460B9006863B
:10F680001421448681862B4668880C330AAA01A976
:10F69000A2DF0FB0F0BD000010B50446FDF762FE1A
:10F6A00000280CD0A007C00E002C0ADA2107090F91
:10F6B00008398908144A89008918C96906E013487D
:10F6C00010BDA108124A890089180968C1400806BE
:10F6D000800F042811D200280FD002280DD00D4928
:10F6E0004B68E206D20E01209040002B08D0620940
:10F6F00092008B5803438B5004E00448401C10BD1B
:10F7000005490860002010BD00ED00E00120000068
:10F7100000E400E07020002000E100E0FFB50746B3
:10F72000806A81B0144600283DD00025384620303C
:10F73000009033E00C20B96A68430E18B088801C32
:10F74000FE2802D90C2005B0F0BD22880299401C89
:10F75000885420881622401C80B2208002990A54C6
:10F760002088401C80B2208002994118308800F027
:10F7700064FA2188401880B22080B288002A0AD01A
:10F78000B16800290FD0029BC018FBF7E9FC208864
:10F79000B188401820806D1C0098EDB2007BA84213
:10F7A000C8D80020CFE70720CDE7000070B5044699
:10F7B0001248134D018A2182818A618200780028D3
:10F7C00018D06879002815D100F0F4FA002811D07B
:10F7D00028462030E06002200849207204202031B1
:10F7E000C870064800212030FEF736F8002804D102
:10F7F000052000E00320A870002070BD7C220020BE
:10F800000420002070B5044611480426018B218293
:10F81000818B618200780F4D002816D0687900280E
:10F8200013D100F0C7FA00280FD028462030E0603E
:10F8300002202072064800212030C670FEF70CF826
:10F84000002804D10620A87000E0AE70002070BD32
:10F850007C2200200420002010B50020FEF762FC6E
:10F86000002801D0FDF710FF3CDF002801D0FDF794
:10F870000BFF10BD002803D00249C860002070476C
:10F880000E207047802000201CB50F490191009187
:10F89000694660DF0446009A019882420AD00B490B
:10F8A0000220FFF7EDFCFFF77AFE0099421A08A14B
:10F8B000022004E0002C04D0224612A10120FFF710
:10F8C000DFFC20461CBD0000E81F00208005020070
:10F8D0005344483A5741524E494E473A52414D20BF
:10F8E00073697A652073686F756C64206265206146
:10F8F000646A757374656420746F2030782578208D
:10F900000D0A00005344483A4552524F523A73642C
:10F910005F626C655F656E61626C653A20657272EC
:10F920006F7220307825780D0A00000070B50E4601
:10F930000546144614211046FBF72BFC012000213C
:10F9400020802161217326726572002D00D0A07283
:10F95000002070BD10B5FDF773FE10BDFFB581B07E
:10F96000002901D0880702D0072005B0F0BD164D50
:10F970000124A9606A8000206B60FFF757FA060037
:10F9800001D0124804600D20FFF750FA070003D0A1
:10F9900001200E49400308600D49019810DF00283E
:10F9A0000AD00A498039002F02D0012252030A608E
:10F9B000002EDAD00C60D8E72C70FFF7E7F916209C
:10F9C000FFF76AFED1E700008020002080E100E020
:10F9D00055F90100014800787047000080200020A0
:10F9E00010B5FEF7FFFD00F003F8FFF7F7F810BDC4
:10F9F00010B5094C2068FDF7E7FE002801D0FDF79F
:10FA000043FEFF21002249312068FDF799FE0028BE
:10FA100001D0FDF739FE10BD70010200FEB51F4C8C
:10FA20000025A768606802906846FEF7AFFD019068
:10FA3000FEF7A0FE06460198002822D00023009879
:10FA4000616817E00E680A46864202D9301A0860DB
:10FA500012E0801BF31800261660D668D169B44600
:10FA6000002E07D0FE183602360A566066469660AB
:10FA7000D56115460029E5D128466160FEF7D0FE24
:10FA800006E02846FEF7CCFE002801D1002E02D069
:10FA90000298FEF7ABFC0020E070FEBD4C20002079
:10FAA00001200249000508607047000000E200E004
:10FAB00010B50E4B5968002906D002680C68A242A6
:10FAC00004D8A21A0A60C161586010BD0B4604E058
:10FAD0000B46C969121B002904D00C689442F7D365
:10FAE000A41A0C600260C161D86110BD4C200020D6
:10FAF0007CB50D460646002469460C706846FDF745
:10FB000077FE01A800F0D0F800280DD005704660FF
:10FB1000684608490079487068460078FDF786FE17
:10FB2000FFF7BEFF20467CBD684604240078FDF741
:10FB30007DFEF7E75C200020F8B51D4D6C68002CB9
:10FB400034D01C4800274068A968401A0602360ACB
:10FB50002068B04218D8361AC7192246107CE469CA
:10FB600000280FD000201074EB68002B07D091699B
:10FB700050699847002805D0FDF786FD02E05169DD
:10FB800090698847002CE3D129786878814206D1B2
:10FB9000401CC0B26870022801D10020687004497E
:10FBA0000006800D18310F50FFF77AFFF8BD0000F6
:10FBB0004C2000200015014070B58EB005461C2178
:10FBC0006846FBF7E6FA694608780C21084369465F
:10FBD000087000240194039404940594012608A954
:10FBE00006948E700D20C04369460884601C00078F
:10FBF000000F103007940877304610304877887F20
:10FC0000F9210840F721801C0840EF2108403043CB
:10FC100069468877142109A8FBF7BBFA08A8099060
:10FC200007A80A9069468E851420CC8508866888C6
:10FC30002B1D09AAA2DF0EB070BD0870000A487023
:10FC40000220704738B51549154A488890420FD0B0
:10FC50004A78144C521CD2B24A70237B934208D388
:10FC6000091D75DF002803D0A169002900D088474D
:10FC700038BD00254D70217C002907D03B2176DF5F
:10FC8000002803D0A169002900D0884761690029B4
:10FC9000EED068460570884738BD0000342000204B
:10FCA000FFFF00004824002010B509494B788C78EC
:10FCB0005A1CD2B2944200D100220C78944201D155
:10FCC000002010BD0270486818214B43C01810BDB9
:10FCD0005C200020FFB583B016460C9D0D9C1F468E
:10FCE000022200950194039800F00CF8002807D137
:10FCF0003B461022314600950194039800F002F82B
:10FD000007B0F0BDFFB583B0074600200C9C8646C7
:10FD1000268805463AE07868A900421811886846A6
:10FD200081805188C1800022694601A865DF0028D2
:10FD300039D1684601780598814226D1704600285D
:10FD400001D0002200E002222088891842180D9973
:10FD50008A4227D8714600290AD1401C80B22080EF
:10FD6000069A049911542088401C20800120864660
:10FD7000218806980A18694601A865DF002812D173
:10FD8000694620880978401820806D1C3888A84270
:10FD9000C1DC704600280AD02088801B401E80B23B
:10FDA000FF2802D90C2007B0F0BD06998855002025
:10FDB000F9E7000004480179002902D1007B0028FE
:10FDC00000D0012070470000242000204100C0091D
:10FDD0001B2250434140C8B2704700000100000799
:10FDE00015161718111213141022002030220020AB
:10FDF0005C2200201100030091E0010012000300CA
:10FE000091E001001300030091E0010014000300E1
:10FE100091E00100282400209ECADC240EE5A9E020
:10FE200093F3A3B50000406E0000005000030000F3
:10FE3000E4240020C0240020200000000100000075
:10FE40000000000029000000010000000100000087
:10FE5000010000000100000001000000010000009E
:10FE600001000000020000003031323334353637F3
:10FE7000383941424344454615161700000204052F
:10FE80000000000000000000A5B5010031B5010030
:10FE900015B601002DB501000000000000000000B3
:10FEA0000000000000000000F00502000300000058
:10FEB000C00702000300000060060200030000000B
:10FEC000C007020003000000AC06020003000000AF
:10FED0008007020003000000AC06020003000000DF
:10FEE0009C070200030000008C06020003000000D3
:10FEF000C007020003000000D0060200030000005B
:10FF0000B4070200030000005406020003000000D2
:10FF1000C4070200030000003007020003000000D5
:10FF2000C0070200030000000C07020003000000ED
:10FF3000C007020003000000E80602000300000002
:10FF4000C007020003000000480602000300000092
:10FF5000C007020003000000DC06020003000000EE
:10FF6000AC07020003000000C4050200030000000B
:10FF7000C0070200030000007C060200030000002E
:10FF8000C007020003000000FC050200030000009F
:10FF9000C007020003000000C406020005000000C4
:10FFA000A407020005000000C406020005000000CE
:10FFB000880702000500000024060200030000007C
:10FFC000C0070200030000000C060200030000004E
:10FFD000C0070200030000006C06020003000000DE
:10FFE000C0070200030000004C07020005000000EB
:10FFF000C0070200140000004007020003000000D8
:020000040002F8
:10000000CC07020003000000E0050200030000002E
:10001000C007020003000000740702000300000094
:10002000C0070200030000005C070200030000009C
:10003000C007020003000000680702000300000080
:10004000C007020003000000B80602000300000021
:1000500090070200030000000C150D0F00021112A2
:100060001301030D0F140000020607080A01030B19
:10007000005EBCE2613FDD83C29C7E20A3FD1F4188
:100080009DC3217FFCA2401E5F01E3BD3E6082DC78
:1000900023079FC1421CFEA0E1BF5D0380DE3C62DE
:1000A000BEE0025CDF81633D7C22C09E1D43A1FF58
:1000B0004618FAA427799BC584DA3866E5BB590748
:1000C000DB856739BAE406581947A5FB7826C49A38
:1000D000653BD987045AB8E6A7F91B45C6987A2428
:1000E000F8A6441A99C7257B3A6486D85B05E7B918
:1000F0008CD2306EEDB3510F4E10F2AC2F7193CD08
:10010000114FADF3702ECC92D38D6F31B2EC0E50F7
:10011000AFF1134DCE90722C6D33D18F0C52B0EEE7
:10012000326C8ED0530DEFB1F0AE4C1291CF2D73D7
:10013000CA947628ABF517490856B4EA6937D58BC7
:100140005709EBB536688AD495CB2977F4AA4816B7
:10015000E9B7550B88D6346A2B7597C94A14F6A8A7
:10016000742AC896154BA9F7B6E80A54D7896B3597
:10017000582F0020000001000200010003000100D0
:100180000200010004000100020001000300010060
:10019000020001000500010002000100030001004F
:1001A0000200010004000100020001000300010040
:1001B000020001000600010002000100030001002E
:1001C0000200010004000100020001000300010020
:1001D000020001000500010002000100030001000F
:1001E0000200010004000100020001000300010000
:1001F00002000100070001000200010003000100ED
:1002000002000100040001000200010003000100DF
:1002100002000100050001000200010003000100CE
:1002200002000100040001000200010003000100BF
:1002300002000100060001000200010003000100AD
:10024000020001000400010002000100030001009F
:10025000020001000500010002000100030001008E
:10026000020001000400010002000100030001007F
:1002700002000100637C777BF26B6FC53001672B56
:10028000FED7AB76CA82C97DFA5947F0ADD4A2AF8A
:100290009CA472C0B7FD9326363FF7CC34A5E5F198
:1002A00071D8311504C723C31896059A071280E246
:1002B000EB27B27509832C1A1B6E5AA0523BD6B39A
:1002C00029E32F8453D100ED20FCB15B6ACBBE390A
:1002D0004A4C58CFD0EFAAFB434D338545F9027FF6
:1002E000503C9FA851A3408F929D38F5BCB6DA21AF
:1002F00010FFF3D2CD0C13EC5F974417C4A77E3DDB
:10030000645D197360814FDC222A908846EEB81430
:10031000DE5E0BDBE0323A0A4906245CC2D3AC62F3
:100320009195E479E7C8376D8DD54EA96C56F4EAFE
:10033000657AAE08BA78252E1CA6B4C6E8DD741F0F
:100340004BBD8B8A703EB5664803F60E613557B9D2
:1003500086C11D9EE1F8981169D98E949B1E87E98C
:10036000CE5528DF8CA1890DBFE6426841992D0F3B
:10037000B054BB1652096AD53036A538BF40A39E8B
:1003800081F3D7FB7CE339829B2FFF87348E434474
:10039000C4DEE9CB547B9432A6C2233DEE4C950BD0
:1003A00042FAC34E082EA16628D924B2765BA24930
:1003B0006D8BD12572F8F66486689816D4A45CCC4F
:1003C0005D65B6926C704850FDEDB9DA5E15465722
:1003D000A78D9D8490D8AB008CBCD30AF7E4580558
:1003E000B8B34506D02C1E8FCA3F0F02C1AFBD0364
:1003F00001138A6B3A9111414F67DCEA97F2CFCE35
:10040000F0B4E67396AC7422E7AD3585E2F937E8CF
:100410001C75DF6E47F11A711D29C5896FB7620E11
:10042000AA18BE1BFC563E4BC6D279209ADBC0FEF2
:1004300078CD5AF41FDDA8338807C731B11210599F
:100440002780EC5F60517FA919B54A0D2DE57A9F91
:1004500093C99CEFA0E03B4DAE2AF5B0C8EBBB3C86
:1004600083539961172B047EBA77D626E16914630A
:1004700055210C7D8D01020408102040801B366C34
:10048000D8AB4D9A2F5EBC63C697356AD4B37DFA5C
:10049000EFC5913972E4D3BD61C29F254A9433669A
:1004A000CC831D3A74E8CB8D0102040810204080F3
:1004B0001B366CD8AB4D9A2F5EBC63C697356AD499
:1004C000B37DFAEFC5913972E4D3BD61C29F254A6D
:1004D000943366CC831D3A74E8CB8D010204081076
:1004E0002040801B366CD8AB4D9A2F5EBC63C697FC
:1004F000356AD4B37DFAEFC5913972E4D3BD61C2D8
:100500009F254A943366CC831D3A74E8CB8D010253
:100510000408102040801B366CD8AB4D9A2F5EBC6F
:1005200063C697356AD4B37DFAEFC5913972E4D3C7
:10053000BD61C29F254A943366CC831D3A74E8CBD3
:100540008D01020408102040801B366CD8AB4D9AF8
:100550002F5EBC63C697356AD4B37DFAEFC5913977
:1005600072E4D3BD61C29F254A943366CC831D3AA1
:1005700074E8CB004F766572666C6F770D0A0000E9
:100580005344483A5741524E494E473A73645F626A
:100590006C655F656E61626C653A2052414D2073F7
:1005A000746172742073686F756C64206265206179
:1005B000646A757374656420746F20307825780DD3
:1005C0000A00000041542B434744434F4E543D31F1
:1005D0002C224950222C2263746E6574220D0A006D
:1005E00041542B4E4D47533D33372C30300D0A00CC
:1005F00041542B4346554E3D300D0A0041542B4388
:10060000474154543D300D0A0000000041542B4333
:1006100045445258533D302C352C303130310D0A81
:100620000000000041542B4350534D533D312C2CBE
:100630002C30313030303031312C303130303030BE
:1006400031310D0A0000000041542B434D45453D1A
:10065000310D0A0041542B4347534E3D310D0A00E2
:1006600041542B4346554E3D310D0A0041542B4E0B
:1006700050534D523D310D0A0000000041542B43B0
:10068000474154543D310D0A0000000041542B4EA7
:100690004344503D3138302E3130312E3134372EF5
:1006A0003131352C353638330D0A000041542B4397
:1006B00046554E3F0D0A000041542B4E50534D52AB
:1006C0003F0D0A0041542B43474154543F0D0A004B
:1006D00041542B4E52420D0A0000000041542B4E53
:1006E000434349440D0A000041542B4E434F4E46AC
:1006F00049473D43454C4C5F524553454C45435457
:10070000494F4E2C46414C53450D0A0041542B4E47
:10071000434F4E4649473D43454C4C5F5245534538
:100720004C454354494F4E2C545255450D0A000038
:1007300041542B4E435345415246434E0D0A00004F
:1007400041542B4353510D0A0000000041542B43E8
:100750004750414444520D0A0000000041542B4EC2
:100760004D47520D0A00000041542B4E514D475247
:100770000D0A000041542B4E514D47530D0A000005
:100780004346554E3A30000043474154543A3000F6
:100790004E50534D523A312C310000004346554ED5
:1007A0003A31000043474154543A310043434944ED
:1007B0003A0000005245424F4F54494E4700000056
:1007C0004F4B00004347534E000000002B43535152
:1007D00000000000F4070200E81F002038010000BC
:1007E00014B2010044080200202100202818000053
:1007F00054D30100210635FFFF10190113E82342ED
:10080000204B0824080148042D740502E81198764D
:1008100023E8A923A1BB3D9E7D03781245881001E2
:1008200018143DCD0114C9BE01143DC60114EDC517
:10083000011489BC011A09101A1510041A3DC701C8
:040840001324F40089
:040000050001B0C185
:00000001FF
