:020000040001F9
:10B00000303A0020D5B00100EFB00100F1B00100EE
:10B010000000000000000000000000000000000030
:10B02000000000000000000000000000F3B001007C
:10B030000000000000000000F5B00100F7B00100C2
:10B04000D1C80100F9B00100ADD30100F9B0010091
:10B05000F9B001000000000081C0010089B20100C8
:10B06000F9B00100F9B00100F9B00100F9B0010038
:10B07000F9B00100C5CF0100F9B00100F9B001003D
:10B08000F9B0010025D00100F9B00100F9B00100CC
:10B09000E5D20100F9B00100EDD20100F9B00100E4
:10B0A000F9B00100F9B0010000000000000000004C
:10B0B0000000000000000000000000000000000090
:10B0C0000348854600F0A2F80048004731F9010026
:10B0D000303A00200321094802680A430260084808
:10B0E00002680A4302600748804707480047FEE7B6
:10B0F000FEE7FEE7FEE7FEE7FEE70000240500406E
:10B10000540500400DD30100C1B0010030B50B461D
:10B11000014600202022012409E00D46D5409D4231
:10B1200005D31D469540491B2546954040191546B7
:10B13000521E002DF1DC30BD70B5002425460028DC
:10B1400001DA01244042002901DA01254942FFF7D2
:10B15000DDFFAC4200D04042002C00D0494270BD1F
:10B1600003460B439B0703D009E008C9121F08C020
:10B17000042AFAD203E00B780370401C491C521ECB
:10B18000F9D27047D2B201E00270401C491EFBD2D6
:10B1900070470022F6E710B513460A4604461946E2
:10B1A000FFF7F0FF204610BD30B505462A460B4696
:10B1B00010781C78521C5B1C002801D0A042F7D0EC
:10B1C000002C03D0002802D06D1CEFE7284630BDCC
:10B1D000421C0178401C0029FBD1801A704730B511
:10B1E00004460020034600E05B1C934203D2E05C6F
:10B1F000CD5C401BF8D030BD03460A780270401C7D
:10B20000491C002AF9D1184670470000064C012558
:10B21000064E05E0E36807CC2B430C3C98471034FE
:10B22000B442F7D3FFF750FF681B0200881B0200EF
:10B2300070B58C180578401C6B075B0F01D1037843
:10B24000401C2A1106D10278401C03E006780E70DB
:10B25000401C491C5B1EF9D12B0705D40023521E4C
:10B260000DD40B70491CFAE70378401CCB1A921CD2
:10B2700003E01D780D70491C5B1C521EF9D5A142DC
:10B28000D8D3002070BD0000FEB5134C0026E06846
:10B290000125124F002810D002F00AFE00280BD022
:10B2A0000120B86068460670E0680190217C68461D
:10B2B0000181A57421688847FEBD09480660012008
:10B2C000B8600848066069460D7080688880A5747B
:10B2D00068462168EFE70000682500200073004001
:10B2E0000071004000750040FFB581B0044603982E
:10B2F0001D4606070F46360F204600F095FD1948FB
:10B30000002D046002D0456001F0ACF90A980028D5
:10B3100001D01449886000250FE03946204600F02E
:10B3200083FD1048046000F067FF204602F046FBF2
:10B330000C48103410358760103703988542ECD3E1
:10B34000002E0CD03946204600F06EFD1020811BE7
:10B35000A019FFF71EFF0348046000F04DFF05B081
:10B36000F0BD000058210020F8B52B4C0746E27FC5
:10B370002AA100F04BFE254600262035002805D0E6
:10B380002848042201781143017032E02249E27F0B
:10B390005D39384600F03AFE1F4CE03C0028607DE5
:10B3A00033D0022805D0032803D00F2801D010285D
:10B3B0000AD114221CA1384600F028FE00280BD028
:10B3C0001AA1002001F0A4FE607D062806D00B28FB
:10B3D00004D0152802D00CE01BA10EE0412212A1DE
:10B3E000384600F013FE002806D01FA1002001F00F
:10B3F0008FFE6E700420F8BD22A1002001F088FEAF
:10B400003946002001F084FE01E00F2801D002201F
:10B41000F8BD0020F8BD0000A42E00204C69657224
:10B4200064610000BC2000204F4B000061742B635E
:10B4300066756E3F2F61742B63676174743F206F74
:10B440006B20210D0A00000061742B6366756E3F4E
:10B450002F61742B63676174743F206572726F7221
:10B4600020210D0A0000000061742B6367736E3D9C
:10B47000312F61742B6E63636964206F6B20210D23
:10B480000A00000061742B6367736E3D312F617495
:10B490002B6E63636964206572726F7220210D0ADE
:10B4A0000000000010B51049097C00290CD00128CB
:10B4B00008D108460D4C00F0C1FD217A01228240DE
:10B4C00011432172032010BD0848017A002906D0DB
:10B4D0000021017206A1002001F01AFE01E0062100
:10B4E0000170002010BD0000C42D0020842C00201D
:10B4F0004576656E74206973204572726F72200DF7
:10B500000A000000F0B500249BB0064668462546B8
:10B5100004702F46642101A8FFF73BFE002E2ED1B8
:10B5200068460571102242711648012382786846E8
:10B530008271C571057245728572134D01A907228A
:10B540002819FF30213086788E54521C641CE4B2D6
:10B55000D2B2142CF4D38B54521CD0B20B54401CD6
:10B56000C0B20B54401CC0B20B542A190020FF3249
:10B570004132D2780A54801CC0B20628FAD3384629
:10B580001BB0F0BDC42D0020842C0020F8B504466B
:10B590004578407A012832D0207A042830D0032818
:10B5A0002ED01848867DF0212046FFF7F2FD0120BD
:10B5B0006072657000202072134FA6702D01EE1985
:10B5C000307BE070B0887D21C90048436060204630
:10B5D0000A3000907959FFF70FFE7859FFF7F8FD10
:10B5E00025466035A87320466F30B168FFF704FE2A
:10B5F000A97B009804F0BEFAA078401CA070F8BDAA
:10B600000026D0E7C42D002034120200F8B5364CD5
:10B61000A17803290ED2354A354E515C337F354A25
:10B6200001270025042B06D0032B53D007202070C0
:10B6300037757175F8BD152902D0162934D122E06D
:10B640002DA1FFF7B1FD07462DA1002001F060FDFF
:10B65000002F29D0B57000203918497930390A29CE
:10B6600003D2401CC0B22028F6D3381841792846AE
:10B670000A22504330380818C2B2B27023A1002009
:10B6800001F046FD10E01848617AC37A0120984025
:10B69000032902D1317C81433174217A81431448DA
:10B6A0002172157080380583A078401CC0B2A0704C
:10B6B00003280CD30020FFF7F5FE002803D0052057
:10B6C0002070A570F8BD062020702573F9E70520CD
:10B6D0002070F8BD162904D1052020701078401C78
:10B6E0001070A5702573F8BD842C00200412020090
:10B6F000C42D0020942000202B4353513A00000019
:10B70000636D64206373710D0A0000006373712020
:10B710003D2025752E0D0A00F8B5154CA1780E298F
:10B720000FD214480026425C1348037F0546803D33
:10B73000042B07D00127032B12D007212170077596
:10B740004275F8BD491CC8B2A0700E2805D306206A
:10B750002070A67002202877F8BD03202070F8BD65
:10B7600006A1002001F0D4FC2770A670AE76F8BDCB
:10B77000842C0020E4130200C42D0020436F6E6E61
:10B780006563742052657365740D0A00F8B5144C36
:10B79000A17805290FD213480025425C1248037F87
:10B7A0000646803E042B07D00127032B0FD007212C
:10B7B000217042750775F8BD491CC8B2A0700528F4
:10B7C00002D30420207007E002202070F8BD07A1FA
:10B7D000002001F09DFC2770A570B576F8BD000033
:10B7E000842C002007120200C42D0020496E6974C9
:10B7F0002052657365740D0A00000000F8B5464DCF
:10B80000A9780A290DD2454A0026525C44490B7F8B
:10B81000042B07D00124032B73D0072028704A750E
:10B820000C75F8BD062A02D00B2A5CD12AE03DA196
:10B83000FFF7BAFC07463DA1002001F069FC002F8C
:10B8400051D0002438194079014630390A2905D3EE
:10B8500031391A2902D341381A2804D2641CE4B2BF
:10B86000102CEFD303E0102C01D2381946712C486C
:10B87000791D2E3822460746FFF772FC3B462246CA
:10B880002DA129E032A1FFF78FFC074632A100204D
:10B8900001F03EFC002F26D00024381980790146A3
:10B8A00030390A2905D331391A2902D341381A28E7
:10B8B00004D2641CE4B2202CEFD303E0202C01D28C
:10B8C000381986711648B91D1E3822460746FFF7FB
:10B8D00047FC3B46224623A1002001F019FC002131
:10B8E000062005F0DBF8A878401CC0B2A8700A2832
:10B8F00004D303202870AE70F8BD02E00420287045
:10B90000FAE71EA1002001F003FC05482C70AE7080
:10B9100080388676F0E70000842C0020F2130200C5
:10B92000C42D00204347534E3A000000636D64204D
:10B930006367736E0D0A00006C656E203D202575EF
:10B940002C20696D65693A25732E200D0A000000D0
:10B950004E434349443A0000636D64206E6363695B
:10B96000640D0A006C656E203D2025752C206E63E9
:10B970006369643A25732E200D0A00004D657373C8
:10B980002052657365740D0A00000000F8B5154E6D
:10B9900000243460144D2846E0306C77827FC277F3
:10B9A00007468477014620373C701048463900909E
:10B9B000FFF7D6FB042030600098FFF7D5FC28770E
:10B9C00002280DD0787800280AD0012807D102215A
:10B9D000052005F063F806A1002001F099FB2C7703
:10B9E000F8BD000000250040C42D0020912C00204F
:10B9F0005354415254204445434F44450D0A0000DE
:10BA0000F8B5B24DB2482C462A78A188007800904B
:10BA10002646A078FF340127C0364134130002F0D7
:10BA20005CF9082764A1C0C6EBFE05FD207F002855
:10BA30007ED0022801D0012805D1A07DE17D884279
:10BA400001D30320207768788100A248415800295B
:10BA500002D09E480D308847207F042801D003285B
:10BA600001D1072068709C490020886560771FE13C
:10BA700000295DD100280DD001281AD0022827D036
:10BA800096A1002001F044FB0020B07668700221EE
:10BA900029700CE196480821C1608901C16095A117
:10BAA000002001F035FBA878401CA8704B20000155
:10BAB000A0E08F490820886096A1002001F028FBB3
:10BAC000A878401CA8706420A88097480770EFE011
:10BAD000012087494002886094A1002001F018FBF2
:10BAE000A878401CA870964884E0002920D100283E
:10BAF00025D001282ED00020B0766F702870A87055
:10BB0000B075217C3943217428723077A072E072BD
:10BB1000A0811E21E1818B494A78521CD2B24A7021
:10BB2000032AA4D34870009808226949104300E012
:10BB30009CE0087084A1002001F0EAFAB8E001203E
:10BB40006B494002C860AF70C820A88076490020C9
:10BB50000870ADE001206649400288600220A870AC
:10BB6000322047E0002902D0009949077ED50028FD
:10BB700015D07AA1002001F0CBFA0020A88054480B
:10BB8000FB22017811400170287868700720287026
:10BB900027755049A878491F085C60758BE075A12E
:10BBA00021E06A700721297027757849F4E7002998
:10BBB00002D00099490763D5002813D074A1002052
:10BBC00001F0A6FA0020A8804148FB22017811402C
:10BBD000017028786870072028706C492775A8784C
:10BBE0000E31D9E770A1002001F092FAA878401C2C
:10BBF000A8707348A8805BE00120FFF753FC6872CF
:10BC0000002855D0297A002952D0A978002900D1DE
:10BC10002F73304A083A515C162901E052E030E0B7
:10BC20001AD1032818D1207C00F008FA27490022F5
:10BC3000E87271310092002802D001280AD105E093
:10BC40000020FFF75FFC5FA1009000E062A10020F0
:10BC500001F05EFA00987075A07A032802D3A878E4
:10BC600000280BD028786870072000E008E02870D2
:10BC700027751848A9780838405C8EE76F702F70D8
:10BC8000F8BD0020FFF70EFC002802D0A87A384348
:10BC9000A872A87A00280BD000F0D0F9411D2970B5
:10BCA000A97A8740B943A972062068700020A8705D
:10BCB000207D0128E4D10020207507485430FFF78B
:10BCC00065FCF8BD02202870F0E70000842C0020FD
:10BCD000BC2000200C120200842D00206E657874B8
:10BCE00020737461746520696E697420210D0A00E7
:10BCF00000050050636C656172206E6220706F7782
:10BD000065726F6E20616E642072657365742021A8
:10BD10000D0A0000736574206E6220706F77657283
:10BD20006F6E20210D0A0000F22000207365742040
:10BD30006E6220726573657420210D0A0000000098
:10BD4000581B000094200020436C6F7365205374CF
:10BD50006174652050726F630D0A0000696E69742A
:10BD6000206E622068617320737461727420210DEB
:10BD70000A000000696E69742077616974206E6240
:10BD800020737461727420210D0A0000E413020014
:10BD90006D657373206E62206861732073746172C5
:10BDA0007420210D0A0000006D65737320776169AE
:10BDB00074206E6220737461727420210D0A000079
:10BDC000204E0000696E6974206D65737320757074
:10BDD0006C6F61640D0A00006C6F67206D65737392
:10BDE0002075706C6F61640D0A000000F0B50C4A9C
:10BDF000002112680B4B94468400621800209500C5
:10BE00008A0062442F18165CDF5D7E401654401C89
:10BE1000C0B20428F6D3491CC9B20429EDD3F0BD41
:10BE2000582100207C31002000228B5C8354521C5E
:10BE3000D2B2102AF9D37047F8B506460024314F24
:10BE400059E031490D5C002D06D0012D12D0022D94
:10BE50001DD0032D49D140E02C4801782C4801F039
:10BE6000E7FC012803D10121042004F017FE274834
:10BE700004703AE02748C17A27480C31006800F086
:10BE8000B3F82449097C88422FD1022121E02348BC
:10BE900000902048214BC27AC0680146FFF724FA7F
:10BEA0001F4804701B48C368C17A58182038C07FE7
:10BEB000814205D9002803D0164A081AD07201E041
:10BEC0001448C47213480322C07A194602F0B4FC25
:10BED0000321042004F0E2FD07E00E48C27A417A13
:10BEE000C06800F01FFDFF2809D02946304603F046
:10BEF0000BF9012802D0B85D0028A2D1F8BD0020BE
:10BF0000F8BD00004D21002009150200F02000209E
:10BF10007C300020683000209C200020E0200020A1
:10BF20009920002010B50E490A78002A0FD0012A66
:10BF300010D0022A0AD14A78002A03D000228B1C92
:10BF40001A804A700422C82100F0E4FB10BD02F000
:10BF500067FF10BD01224A7000227D21C900F3E76E
:10BF6000F220002070B5104C0546207800280ED035
:10BF700001280FD0022809D103F05EFBE121002245
:10BF8000C900284600F024FC0220607070BD04F057
:10BF9000C1FE70BD03F010FA7D2100220901284680
:10BFA00000F016FC0120F0E700210020F8B505465E
:10BFB0000B4F0C4E10E03C5C230001F08EFE0202A1
:10BFC0000507FFF7E3FC01E0FFF71AFD21462846CD
:10BFD00003F09AF8012802D0705D0028EBD1F8BD7B
:10BFE000091502004D21002010B50022064C03E087
:10BFF00003785340E25C401C0B46491E89B2002B7B
:10C00000F6D1104610BD0000FC13020070B50024EC
:10C010000B4605781E78B54205D15D785B1C002D76
:10C0200002D1012070BD0B464578401C002D03D085
:10C03000641CA4B29442ECD3002070BD01460020E1
:10C0400001231A4682400A4204D1401CC0B208288B
:10C05000F7D3FF207047000070B50446064E074D29
:10C0600005E0315C204603F04FF8012802D0285D3E
:10C070000028F6D170BD0000091502004D210020F6
:10C08000F0B50024FF268BB0013601252746069423
:10C09000304604F00BF9002807D054484068284285
:10C0A00003D0304604F0FAF82C43361D6D007F1C97
:10C0B000B6B2042FECD3FF257D35284604F0F6F800
:10C0C000002809D0284604F0E9F86807044306AAC6
:10C0D0000121002004F0CEF8454D200714D001279F
:10C0E000002627420CD04348B2001118086909699C
:10C0F000C004C00E8903AA58890F002A00D09047B7
:10C100007F00761C042EECD3002C6DDA0020089002
:10C11000401E63E0281940300778B906890E009167
:10C1200000214156491C49D009A9009803F0EEFDB1
:10C13000002843D0B8090190009802F0DDFF80008C
:10C140002F580198002F02D0032802D00DE00328B9
:10C1500034D1009808ABC20841079446985C490F57
:10C1600001228A401043624698540098052109072D
:10C1700080004018072109024018006806A98003C2
:10C18000800F0290009803F0C1FD0028029802D0B1
:10C19000022802D012E0032810D10198032808D108
:10C1A000029802281ED00221009804F02EF8761C76
:10C1B000F6B2002F02D001990098B847641C042CF5
:10C1C000A8D3002E10D06A460121002004F052F8B6
:10C1D00006990098884207D00690089800263446B1
:10C1E000099097E70321DFE70BB0F0BD0063004043
:10C1F000F02400200065004010B50A20FFF7F6FD8E
:10C20000092400F0F9F900F015FA2046FFF7EEFDD9
:10C2100000F00CF8641E2406240EF2D100F0ECF9B4
:10C2200000F008FA0020FFF7E1FD10BDF0B585B081
:10C23000002003908400EF480068065D20184178D4
:10C24000029181780191C0780090304604F083FF1C
:10C2500004F081FF04F07FFF04F07DFF009804F0FC
:10C260007AFF019804F077FF029804F074FF04F05D
:10C2700072FF029804F06FFF04F06DFF04F06BFF93
:10C2800004F069FF009804F066FF04F064FF04F016
:10C2900062FF04F060FF009804F05DFF04F05BFFB4
:10C2A000019804F058FF04F056FF04F054FF04F026
:10C2B00052FF304604F04FFF0546304604F04BFF76
:10C2C00004F049FF4540304604F045FF04F043FFC9
:10C2D00004F041FF4540029804F03DFF02990746F3
:10C2E0004F40084604F037FF04F035FF04F033FFF9
:10C2F00047407D40019804F02EFF04F02CFF019987
:10C3000007464F40084604F026FF04F024FF04F0DF
:10C3100022FF47407D40009804F01DFF04F01BFF02
:10C3200004F019FF014600984140B2484D400068B2
:10C330000555304604F00FFF009804F00CFF0198FB
:10C3400004F009FF04F007FF029804F004FF04F072
:10C3500002FF04F000FF04F0FEFE304604F0FBFE96
:10C3600004F0F9FE04F0F7FE04F0F5FE304604F0A8
:10C37000F2FE04F0F0FE009804F0EDFE04F0EBFE97
:10C3800004F0E9FE04F0E7FE019804F0E4FE04F096
:10C39000E2FE04F0E0FE04F0DEFE304604F0DBFED8
:10C3A00004F0D9FE04F0D7FE05467540029804F06B
:10C3B000D2FE0746029804F0CEFE04F0CCFE4740C1
:10C3C000029804F0C8FE04F0C6FE04F0C4FE474024
:10C3D0007D40019804F0BFFE019907464F40084692
:10C3E00004F0B9FE04F0B7FE04F0B5FE47407D400E
:10C3F000009804F0B0FE04F0AEFE074600984740F7
:10C4000004F0A9FE04F0A7FE04F0A5FE4740794819
:10C410007D40006820184570304604F09CFE00986E
:10C4200004F099FE04F097FE019804F094FE04F0E5
:10C4300092FE04F090FE04F08EFE029804F08BFE53
:10C44000304604F088FE04F086FE04F084FE04F01A
:10C4500082FE009804F07FFE04F07DFE04F07BFE77
:10C4600004F079FE029804F076FE04F074FE04F005
:10C4700072FE04F070FE029804F06DFE04F06BFE94
:10C48000304604F068FE04F066FE0546754030460E
:10C4900004F061FE04F05FFE04F05DFE454002988A
:10C4A00004F059FE04F057FE04F055FE029948408E
:10C4B0004540019804F04FFE0746019804F04BFEFA
:10C4C00004F049FE4740019804F045FE04F043FEA5
:10C4D00004F041FE47407D40009804F03CFE0746D2
:10C4E0000098474004F037FE04F035FE04F033FEB8
:10C4F000474040487D40006820188570304604F071
:10C500002AFE04F028FE009804F025FE04F023FE25
:10C5100004F021FE04F01FFE019804F01CFE0298B6
:10C5200004F019FE304604F016FE04F014FE04F088
:10C5300012FE04F010FE019804F00DFE04F00BFE54
:10C5400004F009FE04F007FE019804F004FE04F074
:10C5500002FE029804F0FFFD04F0FDFD04F0FBFD77
:10C5600004F0F9FD304604F0F6FD0546754030460E
:10C5700004F0F1FD04F0EFFD04F0EDFD45400298FC
:10C5800004F0E9FD04F0E7FD029906464E40084636
:10C5900004F0E1FD04F0DFFD04F0DDFD46407540F0
:10C5A000019804F0D8FD04F0D6FD04F0D4FD019903
:10C5B00048404540009804F0CEFD0646009804F03F
:10C5C000CAFD04F0C8FD4640009804F0C4FD04F024
:10C5D000C2FD04F0C0FD46400648754000682018C2
:10C5E000C5700398401C0390042800DA22E605B0C9
:10C5F000F0BD0000582100200D480068417B427AC0
:10C600004273427942724278427141708178827AF3
:10C61000827081728179827B82718173C178C279E3
:10C62000C270C27AC271C27BC272C173704700000D
:10C630005821002030B50949094A0C680020002122
:10C640008B001B191D5C491C555DC9B21D54042982
:10C65000F6D3401CC0B20428F1D330BD58210020CD
:10C6600009170200F8B52749274B4A6800208100C6
:10C67000545C5C548C18C91865784D70A5788D7021
:10C68000E478401CCC700428F1D337E0002182000C
:10C690006D46141F66189E5D6E54491C0429F9D31B
:10C6A000810715D12F46BE782978FF78174C6D7811
:10C6B000BC46655DA65D6F467E706746E65D6F466B
:10C6C000BE70615CF970124C8108615C4D403D7038
:10C6D000D4182546203D6E46297C36787140995401
:10C6E0006E46697C727851406170AA7CB1784A408C
:10C6F000A270EA7CF1784A40E270401C2C28C5D335
:10C70000F8BD0000582100207C31002009160200ED
:10C710000918020070B5154652060C4C160E2288F8
:10C72000101880B2208088420ED302F081FB0020D6
:10C730002080002D08D0A178491CC9B2A170B14257
:10C7400002D3A070A11E087070BD0000F42000206C
:10C7500070B50446064E074D05E0315C204602F0F8
:10C76000D3FC012802D0285D0028F6D170BD00005E
:10C77000091502004D21002070B50446064E074DF4
:10C7800005E0315C204602F0BFFC012802D0285DA4
:10C790000028F6D170BD0000091502004D210020CF
:10C7A000F8B50546084F094E0AE03C5C002C01D163
:10C7B00003F0BCF92146284602F0A6FC012802D06D
:10C7C000705D0028F1D1F8BD091502004D2100204F
:10C7D00010B5074C2288101880B22080884205D3FB
:10C7E00004F098FA0020A11E0870208010BD0000FF
:10C7F0000221002010B50020104991229200044629
:10C800000C54401C80B29042FAD30D4900200C54C5
:10C81000401C80B21028FAD308480AA1ED30FEF778
:10C82000EBFC06480BA1DD30FEF7E6FC0C480B499B
:10C83000C1811E2101824038847610BD842C0020E5
:10C84000C82E00203138302E3130312E3134372E81
:10C850003131350063746E62000000004C2400002A
:10C86000842D00208307FF22DB0E9A408907090EE2
:10C87000994000280BDA0007000F083883080848A1
:10C880009B001818C36993430B43C3617047830827
:10C8900004489B001B1818689043084318607047B1
:10C8A00000ED00E000E400E070B50446064E074DE0
:10C8B00005E0315C204602F027FC012802D0285D0B
:10C8C0000028F6D170BD0000091502004D2100209E
:10C8D000F8B5FF20013003F021FA002401250E4EA7
:10C8E0000E4F002807D00E4804600120B0607D7014
:10C8F000002002F01FFCFF20053003F00FFA002893
:10C9000008D00748001D04600220B060BD700120FF
:10C9100002F010FCF8BD000000030040DC24002001
:10C9200000010040F7B5D8B0054601A80890F248CC
:10C93000002740881646C11FFA3905D0EFA1002014
:10C9400000F0E6FB07210DE0002E0FD0F348407900
:10C95000A5280DD05998A0280AD0F1A1002000F0F8
:10C96000D7FB0421599800F0C5FFBEE0F3A1F5E71D
:10C97000F9A10020599A00F0CBFB5998FA4C0B21F1
:10C98000A82878D014DCA2284ED008DC01281AD0C0
:10C9900002281BD0A0281DD0A1286DD144E0A328D7
:10C9A0006BD0A5283FD0A62801D0A728F5D196E0C6
:10C9B00003A9A9380791030001F08FF908D5FEFDFE
:10C9C000FCFBFAF9F8A00823E8A201E00F23E9A292
:10C9D00000216CE0EBA1002000F09AFB28780128F0
:10C9E0004AD1CE4D6879A5287CD000202070012640
:10C9F0001021E94803F06CFB601C1022E649FEF7A9
:10CA0000AFFBE64911240E700021062004F046F821
:10CA10002246E3A1002000F07BFB2146599800F05C
:10CA200079FAA52068715DE0DC4C28466278083010
:10CA30000590002A04D0012A2CD01023024634E0AD
:10CA4000102E1BD0182E59D12846E1701030082224
:10CA5000D849054600F0D8FE002843DD08222946C3
:10CA6000D448FEF77DFB0021062004F017F80120D2
:10CA70006070FF2739E03BE040E024E00120E070F7
:10CA80000822CC49059800F0BFFE00282ADD0822C4
:10CA90000599E5E72A460021E07800F0EFFC070061
:10CAA00008D0FF2F21D0059A10230121599800F0BA
:10CAB0002BFF17E00020A070284600F071FF102324
:10CAC0000021059AF2E7012E18D12878A22815D165
:10CAD00000F04AFE002870D0FEE7599800E00721D8
:10CAE00000F008FFAD490020487038465BB0F0BD4B
:10CAF000B1A1002000F00CFB092E01D00421ECE7CD
:10CB00000822AC49284600F07FFE0028EADD082212
:10CB10002946A848FEF724FB0021062003F0BEFFAB
:10CB200000207E4920700979617069460870A64826
:10CB300001260088012800D80E700878A070032113
:10CB4000599800F0E7F92B7A1021A04AA048A12BB0
:10CB500006D0A22BC6D1167002780A430270C1E734
:10CB600002231370F8E79BA1002000F0D1FA0C2EED
:10CB7000C4D108228F49284600F046FE0028B1DDC6
:10CB8000082229468B48FEF7EBFA0021062003F025
:10CB900085FF287A697A00020843A97A00020843CF
:10CBA000E97A000208439049884207E061E130E1F8
:10CBB000A0E022E186E030E009E03FE09ED3494278
:10CBC00040188A49086080488949018013E1089823
:10CBD00000F0D4FD012807D006202070601C0D2134
:10CBE000FEF7D7FA0E2174E100202070601C0822A5
:10CBF0000799FEF7B5FA7C48029908180290000ED2
:10CC000060720298000CA0720298000AE07202980A
:10CC10002073684640796073E4E7012EA8D1287834
:10CC2000AB28A5D100F0A0FD002807D000F09CFDA6
:10CC3000694600F03FFE002802D029E005214CE7BC
:10CC400000206946087148710878410602D5012123
:10CC50006A465171810605D56A465179022211430F
:10CC60006A465171C10605D56A46517904221143BD
:10CC70006A465171000705D569464879082108437D
:10CC800069464871022301AA0021599800F03CFE30
:10CC9000424CA078102813D207AA01A900F00CFE7C
:10CCA000002803D0A078401CA070F2E7082301AA56
:10CCB0000021599800F028FEA078401CA07011E7D0
:10CCC00006210AE7082229460798FEF749FA287A3A
:10CCD000697A00020843A97A00020843E97A00024F
:10CCE00008434149494240180290089800F0E6FC88
:10CCF00001287FD00121F0E66830002050524F54C7
:10CD00004F434F4C5F4150505F4552525F56455222
:10CD100053494F4E5F31210D0A000000B42000201E
:10CD200050524F544F434F4C5F4150505F45525209
:10CD30005F504152414D5F33210D0A0050524F5414
:10CD40004F434F4C5F4150505F4552525F504152EC
:10CD5000414D5F32210D0A00636F6D6D616E64207D
:10CD60003D2025640D0A0000E42E00204856312E97
:10CD7000302E33005356312E312E302D313830388D
:10CD800030360000636D6420676574206165736BE5
:10CD90006579210D0A000000D02000209820002095
:10CDA00073656E644C656E677468203D2025642150
:10CDB0000D0A0000BD200020636D64207377697444
:10CDC0006368210D0A000000A62000200021002039
:10CDD000BC200020636D642061646A7573742074E4
:10CDE000696D65210D0A000000D36C38CC2000204D
:10CDF00060EA0000FFE700216FE6812E00D07DE6AB
:10CE0000287AAA28FBD1082201A9284600F0FCFCB8
:10CE100068E6092EF3D308223A49284600F0F4FCCC
:10CE20000028F5DD082229463648FEF799F9002149
:10CE3000062003F033FE287A01280ED02946093156
:10CE4000102812D01128DAD110222F48FEF788F9C5
:10CE50000021062003F022FECDE7687A012801D0E8
:10CE60000228CCD129490870F2E727482022103047
:10CE7000ECE7092EC3D308222249284600F0C4FC5F
:10CE80000028C5DD082229461E48FEF769F9002161
:10CE9000062003F003FE287A12281ED01328AED1F4
:10CEA0001B48807980072BD5174900252570601C09
:10CEB00020224531FEF754F9601C00F0C3F821210F
:10CEC000FEF724F968460170491C65540078801CFF
:10CED000C1B2599800F01EF804E60D488079C007E9
:10CEE0000CD0094900252570601C10223531FEF751
:10CEF00037F9601C00F0A6F81121E1E70921ECE503
:10CF00000A21EAE5BD200020612D00200921002032
:10CF1000B420002070B5224CF0222270A5230122FB
:10CF20006370A270E270227162710026A671E671D0
:10CF300026721C4A6072927A0B25A272AA2801D02E
:10CF4000A22801D100290DD1E1720C310D462046F5
:10CF5000FFF74AF86055691C16206054AD1C0D207F
:10CF600060556D1C2A4610A1002000F0D1F8E8B2EF
:10CF70000422214601F060FC2946204601F078FE9B
:10CF80000D480178002909D0067010220B490C4881
:10CF9000FEF7E6F80021062003F080FD70BD0000DA
:10CFA000D82E002068300020706F7374696F6E2077
:10CFB0003D202564210D0A0098200020D02000206B
:10CFC000E02000201CB500246846047001F06EFAD1
:10CFD00003F068FE002818D10E480168002914D01B
:10CFE0000D498968C907C90F0FD004600B488068D4
:10CFF0006946087101A90A4803F08CFA084803F051
:10D0000073FA002801D003F0BBF86846007801F0FD
:10D010006BFA1CBD00D1004000D3004000D5004099
:10D02000B811020010B50649002008604860886009
:10D03000C860034940390860486003F01FFF10BD15
:10D040004011014001460020054A04E0401C80B226
:10D05000491C904203D20B78203B5F2BF6D97047D6
:10D06000FFFF000010B503480078002801D100F050
:10D07000B5FC10BD0C2C0020F8B506460C48144633
:10D0800000780D46002801D100F0A8FC0023684676
:10D090000093037001F00AFA22462946304600F058
:10D0A00009F804466846007801F01EFA2046F8BDEB
:10D0B0000C2C002070B50E46182148431349144625
:10D0C0004518E86A1835002804D001280FD0022836
:10D0D00005D113E0284600F0B7FCA04201D200249D
:10D0E00011E022463146284600F0D9FD0BE02846E3
:10D0F00000F0AAFCA042F4D20446F2E731462846EA
:10D1000000F09DFD0446204670BD00000C2C002060
:10D110000FB408B504A900916A46039900F004F819
:10D1200001B008BC04B01847F7B598B007A8029042
:10D13000402000250495039018980C46059506900C
:10D140002178641C002977D0252907D002A800F097
:10D1500057FD05980028F3DA1BB0F0BD012200212D
:10D16000022713460826207823281BD02B2816D008
:10D170002D2802D0302806D101E0194300E03943C0
:10D18000641C002AEFD1002220780346303B0A2B92
:10D190000AD20A235A431218303A641CF4E70420D6
:10D1A0000143EDE73143EBE70023C7B22E2F0AD14D
:10D1B000641C20780746303F0A2F04D20A277B439D
:10D1C0001B18303BF4E76C280DD068280BD0702872
:10D1D00052D00BDC25285AD058282ED063280CD0EA
:10D1E000642858D110E02078641CECE7732832D012
:10D1F000752817D078284ED11FE01A981A9A00681F
:10D20000011D1160017843E01A981A9F0068061DFD
:10D210003E6000680191009201460A2202A800F0D7
:10D220001EFC38E01A981A9F0068061D3E600068D0
:10D23000009201910A2209E02FE01A981A9F0068D3
:10D24000061D3E600068009201911022014602A86E
:10D2500000F06AFC1FE01A981A9A0068011D11601C
:10D2600006683178761C002915D002A800F0C8FCA9
:10D2700005980028F5DA0EE01A981A9A0068082333
:10D28000011D11600168102200960195DFE725213C
:10D2900002A800F0B5FC641C5BE70598002800DCE0
:10D2A0005AE70498002804D0024607A91898FFF707
:10D2B000E3FE04990598401805904DE770B50446C3
:10D2C000064E074D05E0315C204601F01DFF0128A8
:10D2D00002D0285D0028F6D170BD000009150200BB
:10D2E0004D21002010B503F03BFD10BD10B50648E0
:10D2F0004068002805D08047002801D001F022F8BE
:10D3000010BD02F059F910BD8020002010B502F0C8
:10D31000ABF9002805D01F491D484860C8131E49B5
:10D3200088611E48018CC9B201290BD1828C120779
:10D3300008D1028D1206120F042A03D1828D120623
:10D34000120F0AD0012921D1818C09071ED1018D2C
:10D350000906090F0A2904D007E0114A012191604A
:10D36000F5E7828D1206120F05D00D290ED1808DA2
:10D370000006000F0AD10B480168012904D00A49B0
:10D38000016001680129FCD1C021416110BD00008C
:10D39000DFFF07C000050040006C0040C00F00F038
:10D3A0000006004000EC064075930000F8B52E4CD6
:10D3B00001214902204603F02BF900252B4F0126BD
:10D3C000002818D0FF212531204603F01CF9002841
:10D3D00011D0FF202530255081202549800088600C
:10D3E0003878002800D1666020480822001D0178A6
:10D3F0001143017028E00421204603F009F90028B8
:10D4000022D0FF210931204603F0FDF800281BD06F
:10D41000FF2009302550174846771748826915497B
:10D42000E031887F0B46463BC254887F401CC0B227
:10D430008877642800D38D770E48142180300183CB
:10D440003878002800D16660FF214531204603F07E
:10D45000DAF8002806D0FF2045302550387800281B
:10D4600000D02660F8BD000000200040F820002019
:10D4700000230040C42D002000250040F7B50746DA
:10D48000D4B0012503A8002614460090002F04D034
:10D49000012F1FD00B2F1DD0E2E003F0A2F9734F34
:10D4A000002472492046009A00F09EF9FF28F8D027
:10D4B000397883221140822907D10822381D5599D5
:10D4C00000F0A2F9002800D10025641CE4B2102C61
:10D4D000E7D3C3E003F085F965484178002904D01B
:10D4E00001290CD0022970D0BAE001214170074611
:10D4F0002046009900F033FAB870FF25B2E05C488E
:10D50000022141708078FF2510283CD258485749A5
:10D510008078009A00F068F9FF28F7D00B2F04D02C
:10D5200052480021C943C66129E05048217AC161AF
:10D53000627A09028918C161A27A09028918C16157
:10D54000E27A09028918C161227B0262637B1202BE
:10D55000D2180262A37B1202D2180262E37B12028B
:10D56000D218444B0262994203D95C420919C16145
:10D5700000E0C6619A4204D93E494942511801620D
:10D5800070E006626EE001200290002001903749B1
:10D59000009A019800F028F9FF28F8D03348017864
:10D5A0008A07920F022A11D109060FD5016A324863
:10D5B000006881420AD30298002807D00198401CD5
:10D5C000C0B201901028E2D34CE03FE0274882210E
:10D5D000017008222146001DFDF7C2FD0B2F04D06B
:10D5E00022480021C943C66129E02048217AC1614F
:10D5F000627A09028918C161A27A09028918C16197
:10D60000E27A09028918C161227B0262637B1202FD
:10D61000D2180262A37B1202D2180262E37B1202CA
:10D62000D218144B0262994203D95C420919C161B4
:10D6300000E0C6619A4204D90E494942511801627C
:10D6400000E006620A49019888700BE08078102893
:10D6500006D20649009A00F06BF90546FF2D01D06D
:10D6600003484670284657B0F0BD0000D82F002070
:10D67000A820002000D36C38CC20002030B5044610
:10D680000078F02816D16078A52813D1E57A2846CD
:10D690000F300C3588420DD860194178162909D110
:10D6A00080780D2806D129462046FEF79DFC615D55
:10D6B000884201D0002030BD012030BD70B5DAB005
:10D6C00004460AAD052227496846FDF749FD68462C
:10D6D00000780026AA280DD0AA216846017046804D
:10D6E0008680052269461F48FDF73AFD0021062085
:10D6F00003F0D4F968464188808881422FD0002CFD
:10D700002DD0284603F064F8684680880521C902B8
:10D710004843411904A820220546FDF721FD0822AF
:10D72000A1182846FDF75BFD002818D00398616812
:10D73000884214D168468088401C81B26846818046
:10D74000642900D38680014605220648FDF708FDBE
:10D750000021062003F0A2F901205AB070BD00207C
:10D76000FBE70000A020002003480078002801D03B
:10D770000148C01C70470000A820002030B5D3B07D
:10D78000054602AC052217496846FDF7E9FC6846E4
:10D790000078AA280DD0AA20694608700020488089
:10D7A000888005220F48FDF7DBFC0021062003F0EE
:10D7B00075F9684641888088814202D1002053B0C3
:10D7C00030BD002D02D0204603F002F86846808864
:10D7D0000521C9024843011920222846FDF7C0FC53
:10D7E0000120ECE7A020002010B50B46102801D343
:10D7F000012010BD552109024843811844221846D2
:10D80000FDF7AEFC002010BD10B50CE004780B78DD
:10D810009C4201D9012010BD9C4202D20020C0438D
:10D8200010BD401C491C521EF0D2002010BD00004B
:10D8300030B51C4B002159600278811C14024278DB
:10D840002243194CA24227D10C78184A2402548052
:10D850004D78254355808C781471CC7854710C79AF
:10D8600094714C79D4718C791472CC7954720C7A8D
:10D8700009319472AA2C01D0552C0DD10C78D47298
:10D88000491CD16061180C7814744A7889781202A6
:10D890001143074A914201D0002030BD5860012059
:10D8A00030BD000098200020A5F000006830002066
:10D8B0000D16000001207047F0B591B016460D46D8
:10D8C00007460124324669463846FFF78DFFFF2898
:10D8D000F8D06846007883210840822807D1002DBF
:10D8E00004D00822284601A9FFF78EFF0024204615
:10D8F00011B0F0BD10B5034A11730121FFF70AFB07
:10D9000010BD0000D82E002070B5054607481C4603
:10D9100013460173224619460D30FDF721FC641CA5
:10D92000E1B22846FFF7F6FA70BD0000D82E0020BD
:10D9300070B51446102801D3012070BD5522120283
:10D94000504300194422FDF70BFC0025012000077D
:10D9500040692146001F03F0DBFB284670BDF3B58C
:10D9600091B000240E4683256F4632466946204614
:10D97000FFF73AFFFF28F8D0684600782840822851
:10D9800006D10822381D1199FFF73EFF002803D069
:10D99000641CE4B2102CE8D3204613B0F0BD0000A4
:10D9A00010B5054A01211170014603480822C01C28
:10D9B000FDF7D6FB10BD0000A820002010B5064AD8
:10D9C00000219268435C545C63404354491CC9B2D3
:10D9D0001029F7D310BD00005821002010B5124CBB
:10D9E00002202061606111A0A0611348E061012064
:10D9F000400220620020A06260620CA1A164214666
:10DA0000E0621039E16410212165A0656065E06580
:10DA10000AA1E01DFDF7F0FB09A12046FDF7ECFB94
:10DA20002020A07110BD00000C2C00205465726DE8
:10DA3000696E616C00000000FC2900205254540003
:10DA400053454747455200000269C1688A4203D8DE
:10DA50008068401A801800E0501A401E7047FFB5D9
:10DA600083B00E4670420D9F0C9C0090002900DB95
:10DA70000846012502E0FDF75FFB6D1C0599884211
:10DA8000F9DA0698A84200D90546002C04D0002EE9
:10DA900001DB780700D5641EB80702D50698002878
:10DAA00010D0F8070ED1002C0CD0A5420AD22021AC
:10DAB000641E039800F0A4F80398C0680028F2DA06
:10DAC00007B0F0BD0398C0680028F9DB002E02DA29
:10DAD0002D21009E02E0780707D52B21039800F046
:10DAE0008FF80398C0680028EADBB807800F022887
:10DAF00010D1069800280DD1002C0BD0A54209D2D8
:10DB00003021641E039800F07BF80398C068002859
:10DB1000F2DAD5E7019700943146069B059A0398FF
:10DB200000F002F8CCE70000FFB581B001261F46E7
:10DB300034460A9D029802E0FDF7E8FA641C039956
:10DB40008842F9D2A74200D93C460B98C00718D1A9
:10DB5000002D16D00B98800701D5002F02D0202071
:10DB600000900CE03020FBE76D1E0099019800F05A
:10DB700047F80198C06800283DDB002D01D0AC4279
:10DB8000F2D30198C068002835DB012F01D97F1E30
:10DB900006E031460298FDF7B9FA0399884202D3AC
:10DBA00003984643F1E7154F31460298FDF7AEFA68
:10DBB0000146029A7143511A0291395C019800F0B2
:10DBC0001FF80198C068002805DB30460399FDF76F
:10DBD0009DFA0600E8D10B98C0070CD0002D0AD0A2
:10DBE000AC4208D220216D1E019800F009F801987E
:10DBF000C0680028F2DA05B0F0BD0000F4110200A0
:10DC000010B5044680686368421C934205D32368BC
:10DC10001954A260E068401CE060A268606882421B
:10DC200009D121682069FFF727FAA168884203D04B
:10DC30000020C043E06010BD0020A06010BDF7B51B
:10DC4000064682B000200090F46817463069A04272
:10DC500001D9051B02E0B168201A0D1AB0686D1ECB
:10DC6000001BA84200D80546BD4200D33D4670685F
:10DC70002A4600190399FDF773FA00987F1B401993
:10DC800000900398641940190390B068A04200D135
:10DC90000024F460002FD9D1009805B0F0BDF7B58D
:10DCA000C668174604468068851B6068BD4206D971
:10DCB00080190199FDF754FAF019E060FEBD2A467B
:10DCC00080190199FDF74CFA01987E1B41193246E3
:10DCD0006068FDF745FAE660FEBD30B47446641E28
:10DCE0002578641CAB4200D21D46635D5B00E318DF
:10DCF00030BC184702E008C8121F08C1002AFAD138
:10DD000070477047002001E001C1121F002AFBD1BB
:10DD100070470000202804DA0121814003480142B5
:10DD200001D001207047002070470000FC06FFBCB6
:10DD300010B5124C207803281FD1A0680028E06895
:10DD400002D0A16840184008A060A0680C49884231
:10DD500001D90C4803E0A068FF22A5325043FDF72B
:10DD6000D5F9FF21F531884200D908460349091D3C
:10DD70000880042020700020A07010BD0C2100201D
:10DD80004D030000546A050070B5017800292FD1B9
:10DD900001890025022916D946680024725F1046C1
:10DDA00009E06300F35E834200D21846934200D933
:10DDB0001A465D19641CA142F3D8AA1A101A891ECA
:10DDC000FDF7A4F902E041680020085E0949C86037
:10DDD000CA6809A10020FFF79BF90D4920220878A5
:10DDE000104308708006C20F0AA10020FFF790F9C7
:10DDF00070BD00000C210020746573745F61646362
:10DE00005F76616C7565203D202025640D0A000059
:10DE1000BC2000206170705F6D6576656E742E6247
:10DE20002E73746F705F6164635F7374203D202094
:10DE300025640D0A0000000010B50E48012102788B
:10DE4000002A08D0012A09D0022A0DD0032A0ED0B8
:10DE50000021017010BD817007A101E081700AA14D
:10DE60000020FFF755F910BD81700AA1F8E7817015
:10DE70000BA1F5E70C210020525420524546455293
:10DE8000204144430D0A00004E5443204144430DB9
:10DE90000A000000534F4C4152204144430D0A00F8
:10DEA00042415454455259204144430D0A00000058
:10DEB00070B514490020124B0860134908608C6843
:10DEC0001248427CC5685600521CAC53D2B2427410
:10DED000047CA24212D2846800226468002C0AD01A
:10DEE000012284602068486001200860002A00D078
:10DEF0001860002070BD44688460F3E7012070BDA5
:10DF0000007000400071004000750040682500204E
:10DF1000F8B52F4C032760782E4E012815D02E4DD2
:10DF2000022839D0032836D12CA10020FFF7F0F8C1
:10DF3000287881062FD5DF2108402870012504208C
:10DF4000F060207803283AD135E027A10020FFF7C0
:10DF5000DFF828482849006800906846077001F0FB
:10DF600051FF002801D000F0EDF92078032805D1F9
:10DF70000420B0601648103001F034FF144804212A
:10DF8000183001F0EBFE002801D000F0DBF901F0C1
:10DF900059FF02206070F8BD18A10020FFF7B8F803
:10DFA0002878800605D401F04DFF0A2002F0C6FE55
:10DFB000F8BD6770F8BD0648103001F001FF134945
:10DFC0000020086001F044FF6570FFF7B1FEF8BD66
:10DFD0000C21002000050050BC20002041444320BB
:10DFE00053544F500D0A00004144432053544152B2
:10DFF000540D0A000815020089DD01004144432048
:10E0000053414D504C494E470D0A00000407005043
:10E01000F7B584B006460025178815802030029099
:10E02000407B1446002806D03A462146059800F069
:10E0300023FD050009D1B078002823D00598864635
:10E040002088001DB84202D90C2007B0F0BD6846F8
:10E0500079DF0028F9D121880320724650542088A6
:10E060001921401C80B22080115420887146401C28
:10E0700080B2208041186846008802F080FF218825
:10E0800040182080F078002817D0218803230A4602
:10E09000F356C91C0598B942D6D80221815421886B
:10E0A0000122491C89B2218042542188491C89B22D
:10E0B000218043542088401C20807068002817D09D
:10E0C00021880023C3560A46C91C0598B942BBD80B
:10E0D0000221815421880A22491C89B2218042549C
:10E0E0002188491C89B2218043542088401C20800B
:10E0F000308900280AD00094304601970622022178
:10E100000830059B02F088FF05009ED1308A002868
:10E110000AD0009430460197072203211030059B56
:10E1200002F07AFF050090D1308B00280AD00094CD
:10E1300030460197152214211830059B02F06CFF20
:10E14000050082D1306A002806D03B462246059958
:10E1500001F068F80500D8D1706A002806D03B4667
:10E160002246059901F0AEFC0500CED10298007B55
:10E17000002807D03B4622463046059902F0F0FBC6
:10E180000500C2D13078002807D03B4622463046F1
:10E19000059901F061FD0500B7D1284655E700005B
:10E1A000174A0021535C002B01D0012203E0491CD7
:10E1B0000629F7D300221349012806D002280BD0E4
:10E1C000032810D0042818D112E04878002803D082
:10E1D000002A01D0012070478878002803D0002A47
:10E1E00001D002207047C878002801D00320704772
:10E1F0000879002801D004207047002070470000F3
:10E200001D200020F4220020F0B5B3B03C2101A86D
:10E21000FCF7BFFF022768460771012585710621BB
:10E22000C1713C2110A8FCF7B4FF10A80582264854
:10E23000159020211FA8FCF7ACFF18A8C57719205E
:10E24000800100262390142124962AA8FCF7A1FF20
:10E250002AAC2FA871DF00202FAA31A905231B1A91
:10E260009B185B780B54401C0628F7DBF6202070C7
:10E27000CB2060709A20A0703B20E0702571657102
:10E28000A5710820E07126726672A520A072204652
:10E29000E77206220C30FCF763FF592120A8818326
:10E2A0002AA82990122120A8018427A80096199055
:10E2B000064B1FAA10A901A800F060F9002801D0A0
:10E2C00000F040F833B0F0BDEC1F00202106020042
:10E2D00010B509490020087048708870C0318875F1
:10E2E00008468030017C012211430174114605204B
:10E2F00002F0D4FB10BD0000842C002009A10120F5
:10E3000002F09CF801F0EEFF01F0F2FF0028FBD1D3
:10E3100000BEBFF34F8F0A490848C860BFF34F8F54
:10E3200000BFFDE74150505F4552524F523A4552AF
:10E33000524F523A466174616C0D0A000400FA05AE
:10E3400000ED00E00EB50021029000916A460191B7
:10E350000148FFF7D3FF0EBD01400000094B5B6889
:10E36000002B07D0002A07D0002805D00068037CC6
:10E37000002B03D00820704707207047417442618A
:10E38000002070475C200020FFB50746900700255D
:10E3900081B01E461446002825D1002C23D002F05F
:10E3A00029FA3046114EF060304610300570457045
:10E3B0000299817044607560357001240C48757055
:10E3C0002405046003211420FEF74CFA0948046078
:10E3D000094CA76003211120FEF744FA6068B06081
:10E3E000002005B0F0BD0720FBE700004C20002016
:10E3F00080E200E000E100E000150140FEB51F4BA7
:10E400005B68002B30D000282ED0052901D20720D0
:10E41000FEBD4369002B27D0437C012B26D000276B
:10E42000029104460025694616460D70684600F0C4
:10E430003DF801A802F0DAFD002819D00121017091
:10E440000F49446049688160029907614661C16073
:10E4500068460A49007948706846007800F044F838
:10E4600002F0C0FC2846FEBD0820FEBD0F46D7E7DF
:10E4700068460425007800F037F8F3E75C200020B8
:10E480000015014010B50849496800290AD0002844
:10E4900008D04169002905D000210174022102F051
:10E4A000C9FC10BD082010BD5C20002030B5EFF382
:10E4B000108172B6094A54680123002C04D00370FD
:10E4C000002900D162B630BD5360054B1D68054C74
:10E4D000254015601C6000220270F1E770200020CA
:10E4E00080E100E0FC06FFBC08494A68002A0CD025
:10E4F00000280AD1EFF3108072B60A68044B1A6044
:10E5000000224A60002800D162B6704770200020C7
:10E5100000E100E0F0B50C4693B01F216A4611807F
:10E52000072600279180002809D0C17849070DD51A
:10E5300002A9FFF76DFD002809D102AD01E0002519
:10E540001780002C0ED0E078002802D0304613B09F
:10E55000F0BD01AA0AA92046FFF75AFD0028F6D10E
:10E560000AAA02E068460022878068468088C3B213
:10E5700068460088C1B2284672DFE8E7FFB581B07F
:10E580001E460A9F1346040047D0002B45D0504D2D
:10E59000012028700020E870202219464D48FCF721
:10E5A000DFFD00206F61C0432E61288128460721CE
:10E5B0001830FCF7EEFD47483C212030FCF7E9FD20
:10E5C0004448217820300170A1788170E178C170D1
:10E5D000617841703F4A6569236955631146136349
:10E5E0002031E368A268CB608A603A49E369A26996
:10E5F000CB638A63616A00291AD001463C31024626
:10E60000483241628A60636A1B880B80616A436A90
:10E61000898899800021436A07E00E2005B0F0BD8B
:10E62000656AAD686D5C5554491C9D888D42F7D86C
:10E63000A16A00291CD0274A943211460C398A60FD
:10E640008162A36A9B888B80A16A836A098819808A
:10E650000021836A04E0A56AAD686D5C5554491CCD
:10E660009D888D42F7D82C210A5D1A4940310A73E2
:10E67000216A002909D016490A310162226A5288AA
:10E680004A80216A026A098811806168002900D0E5
:10E690004160104A0E490020B3322031C3001B1ADA
:10E6A00085009B180C68401C63510828F6DB094A5A
:10E6B0000020EB32030185009B188C68401C6351DD
:10E6C0000828F7DB034802992030FFF723FFA5E76E
:10E6D00004200020F422002010B50188134C1029DA
:10E6E00015D0112919D01B2910D1007A00280DD17D
:10E6F000E0780521401CFCF709FD084600F018F8F9
:10E70000002803D06169002900D0884710BD817DB1
:10E710000129FBD18088208110BD00216171808892
:10E7200021898842F8D10120E8E700000420002078
:10E73000F1B53F4C88B0207800280AD00898E070E6
:10E7400006A800F043FE06980125002804D0657055
:10E750006AE0082009B0F0BD3548002707211830CD
:10E76000FCF717FD334E7078002802D0E0780128BE
:10E7700007D0B07800280CD0E078012801D002281A
:10E7800007D12169002903D025710820884700E0BE
:10E7900027710898FFF704FDE0702169002909D06E
:10E7A000032801D0042805D13078002802D06079F0
:10E7B000002811D0A77118216846FCF7EAFC6846CA
:10E7C00007700772E1781A480B001830FFF785FAD6
:10E7D000052E080F191D2000A57107208847EAE7BC
:10E7E000A5700190684605704782078213E00221F8
:10E7F000A170019068460570B1894182318901821A
:10E8000009E0684602F0F4F802E0684602F01CF9FC
:10E81000E078002803D0684673DF00289AD1216988
:10E82000002901D0A0788847002093E7A770F6E779
:10E8300004200020F422002070B50D460446130089
:10E84000FFF74BFA050415263748140002462AA1A3
:10E850000020FEF75DFC002606E0AB5D32462DA1F0
:10E860000020FEF755FC761CA642F6DB70BD024682
:10E870002CA10020FEF74CFC002606E0AB5D3246E2
:10E8800024A10020FEF744FC761CA642F6DB70BDF6
:10E8900002462CA10020FEF73BFC002606E0AB5D03
:10E8A00032461CA10020FEF733FC761CA642F6DBA4
:10E8B00070BD02462BA10020FEF72AFC002606E0D0
:10E8C000AB5D324613A10020FEF722FC761CA64267
:10E8D000F6DB70BD024629A10020FEF719FC0026D8
:10E8E00006E0AB5D32460BA10020FEF711FC761C62
:10E8F000A642F6DB70BD00006F726967696E616CDD
:10E900002064617461206C656E677468203D202509
:10E91000640D0A005B25645D203D2030782530328F
:10E92000580D0A006461746120656E6372797074B9
:10E930002064617461206C656E677468203D2025D9
:10E94000640D0A0063726320636865636B20646111
:10E950007461206C656E677468203D2025640D0A23
:10E96000000000006165732064617461206C656E55
:10E97000677468203D2025640D0A000073656E648D
:10E980002064617461206C656E677468203D202589
:10E99000640D0A0070B5054601461C220E48FCF7BE
:10E9A000DFFB0E4C002626702968002906D00822BD
:10E9B000201DFCF7D5FB201D7ADF02E00748001D73
:10E9C0007BDF002807D1401E60806670044A00216A
:10E9D0000448FFF7C3FC70BDC02400203420002091
:10E9E000890F02009C110200F8B5214C01460288F3
:10E9F00000261E48E589102A13D01E4F112A1FD069
:10EA0000122A2BD0502A1AD1881DC988A94216D1A2
:10EA10004189022913D10C3000F0FEF800280CD1F6
:10EA200012E08A8804464280104808220C301831CF
:10EA3000FCF796FB6670002D01D100F03BFCF8BDA1
:10EA40000021C943418046703868FFF71BFD00284C
:10EA5000F5D0A1690029F2D08847F8BD0348082203
:10EA60000C300831FCF77CFBE7E700003420002085
:10EA7000C02400209C1102007CB5054608880C4685
:10EA80000930904201D90C207CBD684671DF002816
:10EA9000FAD121880820685420881B21401C80B2AC
:10EAA00020802954208800A9401C80B22080401971
:10EAB00006220131FCF754FB20886946801D80B294
:10EAC00020800978002900D0012129542088401C89
:10EAD000208000207CBD000010B50446FFF784FFB5
:10EAE0002146054800F040F8204601F0A9FD2046E7
:10EAF000FFF7F2FD10BD00006C22002030B5184B6E
:10EB00000D4604000FCB85B003936B4607C324D09A
:10EB1000002D22D00020C043A0822868A0610020E0
:10EB2000A0752146684663DF002814D1012168469C
:10EB300081740C490182A21C04A90120A0DF0028D5
:10EB400009D12946204601F077FE002803D1294645
:10EB5000204602F0D3F905B030BD0E20FBE70000DF
:10EB6000A01102001019000010B500281BD00029C8
:10EB700019D00A88102A17D0112A17D0502A12D17A
:10EB800004468A1DC888238A1231984202D15389CB
:10EB9000022B0FD0A388984205D1A369002B02D085
:10EBA00052892046984710BD898801E00021C94359
:10EBB000818210BD084600F02FF8002800D0012007
:10EBC000A07510BD07B584B000280DD0828A114B06
:10EBD0009A420BD0827D002A08D06A46128B142AF2
:10EBE00006D9072007B000BD0E20FBE70820F9E793
:10EBF0000022009201920292039282896B461A804F
:10EC0000039106A9029101219970808A6946A6DFC5
:10EC1000E8E70000FFFF0000417802780802104397
:10EC2000C007C00F7047000070B50F4C1546207824
:10EC30004219802A07D80D4A10182A46FCF790FA84
:10EC4000207840192070C1B265700848FEF716FDA3
:10EC5000012808D1002205492078FFF7EDFD0021A9
:10EC6000042001F01BFF70BDF02000207C3000204C
:10EC700070B50C46054607E0142229460648FFF702
:10EC8000A1FF143CA4B21435142CF5D82246294611
:10EC90000148FFF797FF70BD6C22002005490B5C0F
:10ECA00005494A6801209840034693438B60104011
:10ECB000C8607047681102000005005010B5034994
:10ECC000085C012101F0CAFA10BD000068110200C1
:10ECD00010B50349085C002101F0C0FA10BD000026
:10ECE000681102000549095C05484068C840C00732
:10ECF000C00F00D001200121484070476811020078
:10ED00000005005010B500242046FFF7D7FF641C13
:10ED1000042CF9D310BD10B500242046FFF7D8FF0E
:10ED2000641C042CF9D310BD0246002010B5C0436A
:10ED3000054B00215C5C944201D1084610BD491C82
:10ED40000429F7D310BD00006C110200F3B581B0A7
:10ED50000D460198FFF7E8FF0446042813D21D482A
:10ED60001D4F1E4E002D27D0012D0DD0022D0AD192
:10ED700060002018C0194578002D04D0F1680029E2
:10ED800001D028468847FEBD610061187D5CCF191F
:10ED9000797800290BD071680A2251430F4A8068A4
:10EDA000921CFFF72BFB002801D10198B0700B4893
:10EDB000B97810300155DFE78068FFF763FB07483B
:10EDC000610061181030C919005D8D78A842D3D058
:10EDD000FEBD000070110200C8220020F01F0020BC
:10EDE00010B506490320087001F06AFE0448BF22EE
:10EDF00001781140017001F05FFF10BD0821002073
:10EE0000BC20002010B5054A0146127A0020D20726
:10EE100002D0084600F018F810BD0000F01F0020D6
:10EE2000FF2002490130C860704700000005005013
:10EE300004494A68FF200130034693438B60104029
:10EE4000C860704700050050F8B55D4C0546607815
:10EE50000026002803D000206070FFF753FF012038
:10EE6000584F2B00FEF739FF18970D0D2E3D4A5FC6
:10EE700064686F686FA97777777777979A9DA0A96D
:10EE8000A9950020FFF72EFF00280AD00020FFF7E9
:10EE900015FF022D02D1E120C0000BE07D204001D2
:10EEA00008E00020FFF714FF022D01D1C82001E087
:10EEB000FF20913025706421FCF728F961684143F7
:10EEC00000222BE00020FFF70DFF002805D00020D6
:10EED000FFF7F4FE19204001ECE70020FFF7F8FEF1
:10EEE000E4E70020FFF7FEFE002803D00020FFF734
:10EEF000E5FED3E70020FFF7EBFED9E70020FFF7A0
:10EF0000F1FE002803D00020FFF7D8FE02E0002029
:10EF1000FFF7DEFE25706068410000223868FFF7C9
:10EF20006DFA064635E00020FFF7B8FE257007E0D1
:10EF300000203FE025702CE060700120FFF7AEFE5E
:10EF400000226168EAE760700120FFF7A7FE6068B1
:10EF500081004118E1E77868FFF794FA064611202E
:10EF6000401B01D0002E03D00220FFF7A7FE10E0C7
:10EF700001280BD9C82148436421FCF7C7F8616810
:10EF8000002241437868FFF739FA06460220FFF76E
:10EF90009FFE3046F8BDFFF7B5FECBE7FFF7B2FEA8
:10EFA000C6E7FFF7AFFE04E0FFF7ACFE0020FFF777
:10EFB0008FFE0120FFF78CFEBCE7FFF7ACFEB9E740
:10EFC000F01F00207011020010B5064902200870E1
:10EFD00001F076FD0448BF2201781140017001F074
:10EFE0006BFE10BD08210020BC20002010B5FDF7ED
:10EFF00001FC0020044A01461154401CC0B20828FC
:10F00000FAD30248017010BD4D2100204C21002090
:10F01000F8B50D46461C0020694608700124684674
:10F02000FFF744FA134A1068286011685068936823
:10F03000081A1D1A701C6D1CA84212D9002D0ED082
:10F040000D480E4C0088246880051940800DA402EC
:10F05000890020438918C8601068401C1060002493
:10F0600001E08819106068460078FFF73DFA2046F5
:10F07000F8BD0000E4250020D01102007C20002013
:10F08000034803C8814201D1012070470020704726
:10F09000E42500200022D243830004490428CA50FA
:10F0A00002D308182030027770470000F0240020B7
:10F0B000F0B50025ED43002A02D00023042601E02C
:10F0C000042308260B4C04E09F00E7597F1C04D062
:10F0D0005B1CB342F8D32846F0BD26185DB220363B
:10F0E00035709E00A151002AF5D1E1182031087732
:10F0F000F1E70000F02400200249091820200856FA
:10F1000070470000F024002030B5084C0122235C39
:10F1100015468D40AB43235401D0002030BD8240C2
:10F120000348017891430170012030BD4D2100203A
:10F130004C21002070B5084C050009D0103421681E
:10F14000002907D008682060496828468847F6E704
:10F150000834F4E770BD0000DC24002010B500F096
:10F1600041F900F08DF9FFF741FF01F0A1FD00F03A
:10F1700001F9FFF7ADF8012010BD0000F8B52348F4
:10F18000416800293ED00E6821494C688768807824
:10F19000E11B0D022D0AED1C002814D101201D4A8F
:10F1A000000450601B4A403A50601B494000086010
:10F1B0001A4908601A49012008602F2000F0B6FDA6
:10F1C000124901208870B54200D23546E819000284
:10F1D0000F4B000A403318600D4A5168001B091B91
:10F1E0000902090A0002000AC91C814209D95068B3
:10F1F00018602F2000F09AFD012007494004803953
:10F200000860F8BD01F0F6FAF8BD00004C200020BF
:10F21000001501404013014080E200E000E100E001
:10F2200000100140F8B50646108814468446801D3B
:10F230000D46984201D90C20F8BD32880720062AD5
:10F24000FAD31927FF01184BBA4201D99A42F3D1D8
:10F2500071880629F0D3B94201D99942ECD19A427A
:10F2600003D0994201D08A42E6D80521604629544C
:10F2700020881221401C80B2208029542088401C04
:10F2800080B220804119308801F079FE2188401831
:10F2900080B220804119708801F071FE21884018E9
:10F2A00020800020F8BD0000FFFF000010B5FFF730
:10F2B00049F810BDF8B5164800F0C8F9144D0026FD
:10F2C0000C3D144C002807D0616900291CD0012096
:10F2D0006A461070684616E02878002805D06169F3
:10F2E000002911D0684606700DE0687800280DD01E
:10F2F000A168094800220068FFF780F8002803D0C1
:10F30000A169002900D088472E70F8BD6168F0E738
:10F3100040200020C02400209C11020070B500F0A5
:10F320009FF8FFF751FE0E4C20784106FDD5BF2512
:10F330002840207001F0EEFC0AA10020FDF7E8FE55
:10F34000962001F0FBFCFFF74BFD20784106FDD530
:10F350002840207001F0E6FC1E2001F0EFFC70BD9B
:10F36000BC2000206C6F636B206F70656E210D0AEE
:10F37000000000007047000010B50E4900230A7815
:10F380004C78A24212D0521CD2B20A70022A00D18A
:10F390000B700A78074B920018339A5802608868FD
:10F3A00010180002000A8860012010BD03600020D0
:10F3B00010BD00004C20002010B5034910208860CB
:10F3C000052000F03BFF10BD00050050002804D0D0
:10F3D0000349496E01600020704703207047000018
:10F3E0007C25002010B500F0CFFD082000F003FFC1
:10F3F000FF201A49013088600021012000F0F2FE50
:10F40000022000F0F8FE022000F010FF002104208E
:10F4100000F0E8FE042000F0EEFE042000F006FFFD
:10F42000052000F0E8FE052000F000FF0021062086
:10F4300000F0D8FE072000F0DEFE072000F0F6FE08
:10F44000032000F0D8FE032000F0F0FE092000F0B9
:10F45000D2FE092000F0EAFE10BD000000050050B9
:10F4600010B5054A01210548FEF778FF002801D0B4
:10F47000FEF768FF10BD000019F80100001502003A
:10F4800010B500F081F801F02FFC00F0A9FBFFF7A8
:10F4900045FF10BD10B501200007D0B040696C4693
:10F4A0002146801E01F087F968460078AA283FD1DE
:10F4B00068464078AA283BD17F21A01C01F039FE84
:10F4C000002835D01DA10020FDF722FE0822A11C36
:10F4D0002148FBF745FE214610220A311F48FBF761
:10F4E0003FFE214610221A311D48FBF739FE1C4809
:10F4F000214620222A311030FBF732FE18482146DF
:10F5000020224A312538FBF72BFE154821461022D0
:10F510006A313538FBF724FE214605227A3111483D
:10F52000FBF71EFE104818A9C97F017050B010BD2E
:10F530000EA10020FDF7ECFDF8E700006D656E639D
:10F54000707920736F6C696420666C6173682064E5
:10F55000617461210D0A0000BD200020E020002020
:10F56000962D0020A020002009210020696E6974DA
:10F5700020736F6C696420666C61736820646174C9
:10F5800061210D0A0000000010B5054A012105485F
:10F59000FEF7E4FE002801D0FEF7D4FE10BD000007
:10F5A00061F80100FC1402000248002141708170E2
:10F5B000C1707047F8200020F8B51E4C2078002854
:10F5C00036D0E068002600280CD00025607800289E
:10F5D0002ED1684652DF052806D0002806D0FEF757
:10F5E000B1FE0BE00125F1E7012607E0009800F0ED
:10F5F00083FC2169002901D000988847002D13D190
:10F600006078002814D1608869460880A06861DFAE
:10F61000052804D0002804D0FEF794FE04E001255C
:10F6200002E0E168A0688847002ECFD0002DE5D029
:10F63000F8BD00008020002010B5042000F0FEFD81
:10F6400001492020886010BD000500504188054810
:10F650000288914204D34088814201D8012070473A
:10F6600000207047382000201048018CC9B20129C1
:10F6700017D1818C090714D1018D09060A0F03D116
:10F68000828D1206120F0ED0090F012903D1828D2F
:10F690001206120F07D0032903D1808D0006000F38
:10F6A00001D000207047012070470000C00F00F01B
:10F6B000F0B5284C2146103948688B682278864678
:10F6C0009C46CF78667836E0182353436168521C15
:10F6D000C918A378D2B2934200D100220B78022B32
:10F6E00002D0032B27D123E003464D68194603E0DF
:10F6F000A94204D00B46C96900291CD0F8E70029AB
:10F7000019D08B4208D1C069002805D1124F0125BC
:10F71000BD600025AC4601270D68C969D961002983
:10F7200009D00B685B190B6005E00174C06900E04B
:10F7300000210028F9D19642C6D106496246103907
:10F740008A604860CF70704501D00120F0BD002074
:10F75000F0BD00005C20002000100140F8B52C4EE8
:10F76000044670680025009041E0002C02D020463D
:10F77000E46920E0264818231030017842684B43A2
:10F78000491CC9B2D21801708378994200D1057022
:10F790001178506801292CD1017C002929D1916868
:10F7A0004160D16881601169C16051698161F178FE
:10F7B000002900D045604368B268164F991A0902C3
:10F7C000090AB94202D28268891806E0D11A0902F0
:10F7D0008268090A8A4202D9511A016000E0056074
:10F7E0004560012185600174C56101F003FB002CB7
:10F7F000BBD107481030017840788142BAD1716896
:10F800000098814201D00120F8BD0020F8BD000021
:10F810004C200020FFFF7F0030B50E4804780E48D2
:10F820008188491C8AB2012C09D00C4940250B78EB
:10F830002B43022C0AD0032C03D0042C00D182804D
:10F8400030BD8280C82AFBD90B7030BD8280B42ABB
:10F85000FAD830BD0821002002210020BC20002061
:10F8600070B52E4C2078401C20706078401C607071
:10F870000A20FCF757FB0A20FCF774FB2078642869
:10F880004BD320464168491C416020786438207081
:10F89000234D00262878234CC106002915DAA178CB
:10F8A000491CA170A17802290FD3A670EF2108404E
:10F8B00028701D4801781D48012902D0022902D074
:10F8C00003E0022100E0012101702878C10701D185
:10F8D000810713D5E188491CE180E188B4290DD363
:10F8E000E680C00703D00021062001F0D7F8287871
:10F8F000800703D50121062001F0D0F82878010700
:10F900000BD52189491C21812189E12212019142D3
:10F9100003D32681F7210840287070BDC82000203D
:10F92000BC2000205C3000200121002000210020AC
:10F93000002388B0504A07211846FEF725FD00280D
:10F9400001D0FEF7FFFCFDF78DFB4CA10020FDF779
:10F95000DFFB4E48484900680590002348225C3987
:10F9600005A801F063F9002801D0FEF7EBFC6A4618
:10F970000121002001F042F9002801D0FEF7E2FC4D
:10F98000684601F0E9F8002801D0FEF7DBFC4048AA
:10F9900001F0D8F8002801D0FEF7D4FC1120694608
:10F9A000087207223BA102A87CDF002801D0FEF7E5
:10F9B000C9FC0024009410216846019401803C2178
:10F9C0004180FF2184809131C1807ADF002801D0FD
:10F9D000FEF7B8FC3148284900900120A831087092
:10F9E00025486946A830FFF789F8002801D0FEF7BE
:10F9F000A9FCFEF709FC1C216846FBF7CAFB0520A1
:10FA0000C00301900F200004029000940321684677
:10FA10000173C48104742248059022480690684608
:10FA2000FEF7B8FF002801D0FEF78CFC002000F0A4
:10FA300025FB002801D0FEF785FC0320FEF778FEA9
:10FA4000002801D0FEF77EFC17A10020FDF760FB27
:10FA5000FFF784FB184C194D194E03E0285C810018
:10FA60007158884720780028F8D148DF0028F9D05D
:10FA7000FEF768FCF6E70000C42100204D61696EC6
:10FA8000205374617274210D0A0000006411020099
:10FA9000D9EA0100414E47554D454E0029EC010081
:10FAA00011070200ADF201004164762053746172C7
:10FAB00074210D0A000000004C21002009150200ED
:10FAC0002C21002070B5144682880E4605462088F9
:10FAD000111D4118921C994201D8FE2A01D90C200F
:10FAE00070BD521C32542088FF21401C80B22080FF
:10FAF00031542088401C80B220808119288801F070
:10FB00003EFA2188401880B22080AA88002A09D0B5
:10FB1000A968002908D08019FBF722FB2088A98852
:10FB200040182080002070BD072070BD10B50C4C1F
:10FB3000002020700120607002E06078012801D16F
:10FB4000FEF77AF9A078002808D006A10020FDF77A
:10FB5000DFFAFEF7DDF9A0780028EED110BD000035
:10FB60000C2100206164632073616D706C650D0A67
:10FB700000000000F3B581B00E0029D015490878C7
:10FB8000002825D0FF20144C1D30002222500127D0
:10FB9000A760154619E00F4A1078002817D0FF21FA
:10FBA0001D31002060500198435D0C48C36103E0A3
:10FBB00008480078002806D0FF211D31204600F0BB
:10FBC00022FD0028F4D06D1CEDB2B542E3D3E7600E
:10FBD000FEBD0000F820002000200040002500406D
:10FBE000F8B5174F3878002828D1FFF7DDFC174EFD
:10FBF0001448154D70620024F466072006217161D7
:10FC0000F060FF201D302C50114980208860FF20BB
:10FC100009302C50FF2045302C500E4848600321FD
:10FC2000022000F06FF9FF2025302C50FF20093012
:10FC30002C5001203870042131602860F8BD00008C
:10FC4000F820002000502700002000400025004040
:10FC50000023004004000200F8B50F460178144666
:10FC60000546012902D16878002806D02088821C28
:10FC70009A422DD8012902D006E00720F8BD697804
:10FC80004118891C994223D8181A801E86B26846EA
:10FC900006802188B81C081869467DDF0028EDD150
:10FCA0002878022805D169460988B14201D809217E
:10FCB0000AE00821012805D16878B04202D86A46D6
:10FCC000108001E06846068068460088FE2801D959
:10FCD0000C20F8BD2288401CB8542088401C80B2FB
:10FCE0002080395420886946401C208009884018AB
:10FCF00020800020F8BD000003494018006800285B
:10FD000000D001207047000000700040C208430787
:10FD10005B0F0120895C98400840704701218907EA
:10FD200040180068002800D00120704700280FD03C
:10FD30000849094A096800BF00BF00BF00BF00BFF3
:10FD400000BF00BF00BF914200D000BF0138F2D118
:10FD500070470000642100200024F40070B5144CAA
:10FD6000A27C022A16D00222A2746268A2602174C8
:10FD700000216174E0600F48126842600E4A8615E7
:10FD80001160012505602068002805D00B4901207D
:10FD900048600BE0112070BD3046FFF7ADFF002832
:10FDA000FAD0FEF785F80028F6D0A574002070BDC3
:10FDB000682500200075004000710040007300407D
:10FDC000074B0022596801E00A4649688142FBD18D
:10FDD0004868002A01D050607047586070470000A2
:10FDE000682500200021064A41605168002902D19F
:10FDF0005060704711464A68002AFBD1486070473E
:10FE00006825002070B50C4D0C46A97C002901D056
:10FE1000082070BD094A00211160002C06D000287E
:10FE200000D107480178072000F06CF801202C6011
:10FE3000A874002070BD00006825002000710040FB
:10FE4000CC11020001490120086070470070004099
:10FE500010B5002005490122054C8023486023602D
:10FE6000044B9A60044B1A60887410BD682500200A
:10FE700080E100E0007300400470004070B50E4C5B
:10FE800000252078002801D0852513E00021A160FD
:10FE900061602161E160094800680126304002D1BB
:10FEA000032100F02FF800F0FDFE002801D10448E6
:10FEB00086612670284670BDDC24002000E100E049
:10FEC0000005004038B50020694608706846FEF716
:10FED000EDFA084C2078002801D1FFF7CFFFE06849
:10FEE000401CE0600120A07068460078FEF7FCFA34
:10FEF00038BD0000DC24002010B5002801D1FFF738
:10FF000019F910BD8207D30EFF229A408907090E06
:10FF100010B5994000280BDA03071B0F083B9C081B
:10FF20000C4BA400E318DC6994430C43DC6107E04C
:10FF30008408094BA400E418236893430B4323600F
:10FF4000C106C90E012088400449086004490860C0
:10FF500010BD000000ED00E000E400E080E200E001
:10FF600000E100E04109074A890089180968C206D2
:10FF7000D20E01209040014201D0012070470020A4
:10FF80007047000000E100E070B5144D28790028AA
:10FF900001D0082070BD114900204039421E0B18C5
:10FFA0002033401CC0B21A702028F8D30024204609
:10FFB000FFF770F8641CE4B2082CF8D30321062084
:10FFC000FFF7A0FFFF207D3000F068F90120044911
:10FFD000C007486001202871002070BD3025002036
:10FFE00000630040FEB5044620480D460019002677
:10FFF00020308157491C01D0082633E0A978002918
:020000040002F8
:100000001DD0012200212046FFF752F8411C14D0D8
:10001000830017482A78181869780369154F3B4000
:1000200003610369E706FF0C9207920BC907C90A2F
:100030003B430A431343036104E0042612E0012119
:10004000C94301706A780120A0400B49012A0BD0F6
:10005000C860002100910B46012201912046114603
:1000600000F098F83046FEBD8860F2E7F0240020EA
:1000700000650040FFE0ECFF0005005038B5124C71
:100080002178002901D0852038BD002800D10F48F3
:100090000D4902784A7040788870002069460870DF
:1000A0006846FEF703FA00F0FDFD002803D100F0DA
:1000B0003DF800F055F868460078FEF715FA012083
:1000C0002070002038BD000048200020B41102003C
:1000D000F3B5144E81B00F46002568460570FEF753
:1000E000E5F900F0DFFD00280BD068460078FEF748
:1000F000FBF9394601983ADF0446B0420DD1052498
:100100000DE03A460848019900F05CFA044600F018
:1001100027F868460078FEF7E7F9022CDDD0204684
:10012000FEBD000007200000B811020010B509480C
:100130004178002904D008494A6801231A434A60DB
:1001400006490A68520852000A6081780D20FFF7BC
:10015000D9FE10BD4820002000D5004000D200404C
:10016000054A002003491060044A012050600860DD
:100170007047000000D0004000D1004000D3004094
:1001800002490120886002490860704700D300409E
:1001900004D0004070B552000A439900049D0A4300
:1001A0002902059E0A43310405240A4324078000DE
:1001B0000721001909024018026070BD70B5520095
:1001C0000A439900049D0A432902059E0A4331040B
:1001D00005240A432407800007210019090240185A
:1001E000026070BD1CB500220B46009211460192C0
:1001F000FFF7E4FF1CBD1CB5002100910B46012256
:1002000001911146FFF7DAFF1CBD0522120780009D
:100210008218072000021018026803231B049A4367
:100220000260026809040A430260704701218140AC
:100230000148C16070470000000500500121814065
:100240000148C16070470000000500500121814055
:100250000148C16070470000000500500122824043
:100260000348002901D082607047C26070470000D7
:100270000005005038B5084B05241B680093240284
:100280006B46411805E085005D592D192D69401C0C
:1002900020C28142F7D838BDB0110200024940188F
:1002A00000210160704700000060004003494018D1
:1002B0000068012800D00020704700000060004066
:1002C00070B5074D04462878002802D0687884422B
:1002D00004D0FCF7C7FE012028706C70002070BDB0
:1002E0007820002010B50120FFF7EAFF10BD0000C4
:1002F000F0B595B0FEF7C4FE002802D0002015B07E
:10030000F0BD4B4844688668214631408900091891
:100310000C94CD680BE02904A80D890D4018041930
:1003200020463040810042480C940818C568641C7F
:10033000A807F0D000200890A807800F3D4B0228A6
:1003400007D0AA0AA805000F84460EA996460020E9
:1003500059E02046304081003548641C0818C068C8
:10036000049486462804800D84463440301B800067
:10037000AF0D001D874222D92D490C31002807D02E
:100380002B4AA400A21814460C34C2B2381A03E057
:100390000C460021FAB20846C0B2039001920291C5
:1003A0000094A8065C69400F634672460899A0470E
:1003B000B84213D1FF1C0498B9080C1830E01C484F
:1003C000A200101800210C300090029101970391B7
:1003D000A8065C69400F63467246E8E71649800547
:1003E0000D40000C05430C9830408100104808185F
:1003F000C56017E027463740BA000D4F401CD7199B
:10040000FF68641C80C167466045F3D3A806009767
:100410001D69400F0EAB72460899A847002801D00D
:1004200003484460FEF72CFE0121484067E70000C6
:10043000E4250020E42900203F00FFFFF8B5104D1F
:100440000E46074600206946AC68FEF7E1FD00282D
:1004500015D00C483C21808888437907890E0843D1
:100460000F21890188438105890DB002014300985D
:100470000246224092005219401CD1600090F8BD03
:10048000E4250020D0110200F7B5154C82B00E46CD
:10049000074601206946A568FEF7BAFD00281CD072
:1004A00010483C21008988437907890E08430F21B1
:1004B00089018843402108438105890DB002014329
:1004C000009802462A4092001219D160401C009008
:1004D0002840800000190499C16005B0F0BD0000FB
:1004E000E4250020D0110200016880684A68824239
:1004F00001D2521C00E000220868824201D1012092
:100500007047002070478068884201D9481C7047B6
:1005100000207047FEB504460E4600206946019053
:1005200008706846FDF7C2FF2046FFF7DDFF0700B1
:100530000AD0207C002807D004200190684600786B
:10054000FDF7D2FF0198FEBD2068416820460D46A8
:10055000FFF7D9FF2168002F486006D020680168A6
:100560002046FFF7D0FF21680860E268012A15D015
:10057000022A17D0042A1AD0082A1DD01046616812
:10058000684308183146FAF7EBFD204600F000F901
:1005900021688A688242D1D28860CFE7616830786A
:1005A0004855F2E7616830886A008852EDE7616873
:1005B0003068AA008850E8E7626803CEEB00D218E2
:1005C00003C2E2E7F8B5002415460E460746002AA6
:1005D00010D00020694608706846FDF767FF38466E
:1005E00000F0D6F8A84207D32A463146384600F034
:1005F0009FF802E00020F8BD052468460078FDF76A
:1006000073FF2046F8BD4058002800D001207047F5
:100610000322120280184068084000D00120704771
:1006200010B5002809D0032806D10220FEF7EAFB06
:10063000002801D0FDF786FE10BD00F075FA10BD50
:1006400070B50446314D00886E8888B03A2838D09D
:100650000DDC022839D0102813D011281AD0132805
:1006600022D100231A46852130467FDF26E051281B
:100670002FD052281DD0552816D1A088132176DFFF
:100680001CE00720FEF7BEFB002801D0FDF75AFE54
:10069000A08808E00020FEF7B5FB002801D0FDF798
:1006A00051FE0020C043688008B070BDFDF74AFECF
:1006B000FAE700231A4619463046A9DF0028F5D18B
:1006C000F2E7A088132176DFF8E7A088002167DF32
:1006D000F4E71022A11D04A8FAF742FD6846017C48
:1006E0000029E1D0007E042803D0062801D0052887
:1006F000DAD1022908D0012069460870FF20833032
:100700008880A088A8DFD9E70220F5E7E81F00204D
:1007100010B50078002807D104483B21408876DFD7
:10072000002801D0FDF70EFE10BD0000E81F0020DC
:10073000F7B50168044603C91646884201D80D1A68
:1007400002E0A1680D1A6D1CE2686168504341180F
:10075000AE420CD872430198FAF702FD2168A268F4
:1007600008688019904200D900200860FEBD174635
:100770006F433A460198FAF7F3FCE2680198751B5B
:100780006A436168C019FAF7EBFC20680560FEBD9A
:10079000016806C98A4201D3501A70478068401A1E
:1007A000401C80187047012252075110886B496B1A
:1007B00041438818704710B501221207126942435D
:1007C0000020840008CA401C0B515028F9D310BDEA
:1007D000014610B5012000074069C01EFFF7EBFF7E
:1007E00010BD014610B5012000074069001FFFF74A
:1007F000E2FF10BD70B501240B49600408600B498D
:1008000040108860094940398860094D6C602F208C
:10081000FFF78CFAAC60074D00242F20AC60FFF787
:1008200085FAAC7070BD000080E100E0401301402B
:10083000001001404C200020F0B500240546601C4B
:1008400001078FB0090F08A8103108940170601CCF
:100850000107090F08A8103141708178F927394044
:10086000891C81701C2101A8FAF793FC6846017964
:100870001020014368460171029408A8049405946D
:1008800001260794069086710B21C943684681842E
:100890003146103100940170314610314170817839
:1008A000F7203940891C0140EF2001403143684660
:1008B000817014210AA8FAF76CFC09A80A9068460E
:1008C0000B9006861421448681862B4668880C335B
:1008D0000AAA01A9A2DF0FB0F0BD000010B50446BE
:1008E000FDF718FA00280CD0A007C00E002C0ADA79
:1008F0002107090F08398908144A89008918C9692C
:1009000006E0134810BDA108124A89008918096839
:10091000C1400806800F042811D200280FD00228F9
:100920000DD00D494B68E206D20E01209040002BFD
:1009300008D0620992008B5803438B5004E00448AE
:10094000401C10BD05490860002010BD00ED00E00E
:100950000120000000E400E07020002000E100E041
:10096000FFB50746806A81B0144600283DD00025B7
:1009700038462030009033E00C20B96A68430E18E6
:10098000B088801CFE2802D90C2005B0F0BD22885A
:100990000299401C885420881622401C80B2208076
:1009A00002990A542088401C80B220800299411884
:1009B000308800F0E4FA2188401880B22080B288A4
:1009C000002A0AD0B16800290FD0029BC018FAF79C
:1009D000C7FB2088B188401820806D1C0098EDB2BC
:1009E000007BA842C8D80020CFE70720CDE7000051
:1009F00070B504461248134D018A2182818A6182B2
:100A00000078002818D06879002815D100F074FB10
:100A1000002811D028462030E060022008492072CA
:100A200004202031C870064800212030FDF772FDF7
:100A3000002804D1052000E00320A870002070BD2C
:100A4000F42200200420002070B50446114804263A
:100A5000018B2182818B618200780F4D002816D096
:100A60006879002813D100F047FB00280FD02846F2
:100A70002030E06002202072064800212030C6703D
:100A8000FDF748FD002804D10620A87000E0AE70F4
:100A9000002070BDF42200200420002001231A460B
:100AA00082408B4010B504490C7814430C70034904
:100AB0000A5C1A430A5410BD4C2100204D2100202D
:100AC00008B5174800680090164800780300FDF745
