:020000040001F9
:10B0000010380020D5B00100EFB00100F1B0010010
:10B010000000000000000000000000000000000030
:10B02000000000000000000000000000F3B001007C
:10B030000000000000000000F5B00100F7B00100C2
:10B04000DDC50100F9B0010001CB0100F9B001003C
:10B05000F9B001000000000081BD0100F9B001005D
:10B06000F9B00100F9B00100F9B00100F9B0010038
:10B07000F9B0010011C70100F9B00100F9B00100F9
:10B08000F9B0010071C70100F9B00100F9B0010089
:10B0900011CA0100F9B0010019CA0100F9B001009C
:10B0A000F9B00100F9B0010000000000000000004C
:10B0B0000000000000000000000000000000000090
:10B0C0000348854600F0CAF80048004755E30100F0
:10B0D000103800200321094802680A43026008482A
:10B0E00002680A4302600748804707480047FEE7B6
:10B0F000FEE7FEE7FEE7FEE7FEE70000240500406E
:10B100005405004061CA0100C1B0010030B50B46D2
:10B11000014600202022012409E00D46D5409D4231
:10B1200005D31D469540491B2546954040191546B7
:10B13000521E002DF1DC30BD70B5002425460028DC
:10B1400001DA01244042002901DA01254942FFF7D2
:10B15000DDFFAC4200D04042002C00D0494270BD1F
:10B1600000487047F400020003460B439B0703D0DE
:10B1700009E008C9121F08C0042AFAD203E00B78BC
:10B180000370401C491C521EF9D27047D2B201E034
:10B190000270401C491EFBD270470022F6E710B532
:10B1A00013460A4604461946FFF7F0FF204610BD35
:10B1B000421C0178401C0029FBD1801A70470346CD
:10B1C0000A780270401C491C002AF9D118467047C1
:10B1D00070B5064601F0DCFE046805460A2200212F
:10B1E000304600F003F82C6070BD0000F7B5009CFD
:10B1F0000F4600262578641C002D05D0FFF7B0FF10
:10B200000068405DC007F5D12B2D02D02D2D18D040
:10B21000641E39462046029A00F032F8002F04D00E
:10B220003968A14201D100993960710502240029D1
:10B230000BDA4042002803DD01F0AAFE0460A007FB
:10B24000FEBD012080020643E3E70028F8DA01F0A2
:10B250009FFE04600048FEBDFFFFFF7F064C0125F6
:10B26000064E05E0E36807CC2B430C3C98471034AE
:10B27000B442F7D3FFF728FF180402003804020095
:10B28000F7B582B0029C00272078641C1546019710
:10B29000302802D0002D15D015E020780127641C3D
:10B2A000782804D0582802D0002D09D00BE0002DBA
:10B2B00001D0102D07D1002710252078641C02E052
:10B2C000082500E00A250026009610E000990127D5
:10B2D00069430818020C294680B2714300908E1809
:10B2E0003804864201D3012001902078641C29464D
:10B2F00000F019F80028E9DA0398002805D0002F9B
:10B3000001D0641E00E0029C04600198002806D071
:10B3100001F03EFE02210160C81E05B0F0BD00999B
:10B3200030040843F9E73A2800D230382023024697
:10B330009A43412A01D310463738884201D300206E
:10B34000C043704770B58C180578401C6B075B0FC5
:10B3500001D10378401C2A1106D10278401C03E079
:10B3600006780E70401C491C5B1EF9D12B0705D4D2
:10B370000023521E0DD40B70491CFAE70378401CC1
:10B38000CB1A921C03E01D780D70491C5B1C521EE9
:10B39000F9D5A142D8D3002070BD000070B50D468C
:10B3A00001461446104600F03DFC034830C001F051
:10B3B00013F800F0DAFD70BD0021002010B5094936
:10B3C0000020087048708870C03188750846603069
:10B3D000C17801221143C1701146062001F02CFBF7
:10B3E00010BD0000EC2B0020F1B53D483B4D816BBA
:10B3F000EA7B009800F07EFC002802D001206874EF
:10B4000058E0EA7B37A1009800F074FC0026002881
:10B4100005D03648042201781143017049E02F4CD1
:10B42000E03C60792746603F0C2815D0EA7B30A1CC
:10B43000009800F05FFC00280BD038463E770321CF
:10B44000C038017002218170BE75E0780121084387
:10B45000E07060790B2810D0EA7B29A1009800F0F9
:10B4600049FC002809D029483E77032101708670E5
:10B47000BE75E07801210843E0701849EA7B6D3918
:10B48000009800F037FC0028607915D0012806D11B
:10B4900014221FA1009800F02DFC00281AD060791A
:10B4A000052806D114221AA1009800F023FC0028D8
:10B4B00010D06E740420F8BD0A2801D00C2806D1E3
:10B4C000042213A1009800F015FC002804D1607933
:10B4D000082801D00220F8BD0020F8BDEC2D002086
:10B4E000D0F901004C69657264610000A22000205F
:10B4F0004D4950535441543A20312C310000000042
:10B500004D495043414C4C3A20300000EC2B002078
:10B510004F4B000010B50C46002806D000F002FC8E
:10B520002178012282401143217010BD10B5194AC3
:10B5300019491378002B06D0012802D11846FFF7CD
:10B54000E9FF012010BD5378002B09D09278002A22
:10B550001ED0012802D11046FFF7DCFF022010BDEB
:10B56000D278002A06D0012802D11046FFF7D2FF78
:10B57000032010BD08480838017A002906D00021B0
:10B58000017206A1002001F059F901E006210170C5
:10B59000002010BD0C2D0020F42B00204576656E98
:10B5A00074206973204572726F72200D0A000000CA
:10B5B00010B50E4C6078E11CFFF7ACFF214600206F
:10B5C00060398875E27801231A43E2702070A07018
:10B5D0000A466070C03A10728876087740318876E3
:10B5E000C87688831E20C88310BD00000C2D002063
:10B5F000F8B504464578407A012832D0207A0428EC
:10B6000030D003282ED018488679F0212046FFF745
:10B61000C4FD01206072657000202072134FA67077
:10B620002D01EE19307BE070B0887D21C9004843C0
:10B63000606020460A3000907959FFF7C0FD7859C4
:10B64000FFF7B6FD25466035A87320466F30B16818
:10B65000FFF7B5FDA97B009802F0A4FFA078401C7D
:10B66000A070F8BD0026D0E70C2D0020D0F8010016
:10B6700070470000F0B517488178032913D2164AA5
:10B68000164B545C0246114692781D7B521CC03109
:10B690000327D2B2042D07D00126032D10D0072195
:10B6A00001701E715C71F0BD8270032A06D3042202
:10B6B00002700022827002200877F0BD0770F0BD92
:10B6C0000A2C04D00670002282708A76F0BD827047
:10B6D000F4E70000EC2B00209AF801000C2D00206C
:10B6E000F8B5154CA17804290FD214480027425C04
:10B6F00013480126037B0546603D042B06D0032B2F
:10B7000011D00721217042710671F8BD491CC8B2E1
:10B71000A070042804D304202070A770AE76F8BD72
:10B7200002202070F8BD07A1002001F087F82670E4
:10B73000A770AF76F8BD0000EC2B00209DF801004B
:10B740000C2D0020496E69742052657365740D0AD2
:10B750000000000070B51C4C0646A07805280DD2EC
:10B760001A491B4A085C117B0025042907D00126D1
:10B7700003291ED0072121705071167170BD062853
:10B780000AD13146012000F0B7FB8019C01E00F03D
:10B79000D2FB0F4920398871A078401CC0B2A0703C
:10B7A000052803D303202070A57070BD04202070ED
:10B7B00070BD08A1002001F041F805482670A57071
:10B7C0006038857670BD0000EC2B0020A1F80100E8
:10B7D0000C2D00204D6573732052657365740D0A3E
:10B7E00000000000F8B504463048314D41882F462E
:10B7F00009194180A86A01212037A04204D3001B07
:10B80000A862A04200D2397329488030028DA2423A
:10B810000AD3121B92B20285A24205D28030017473
:10B820000021062001F008F9224800268188A14263
:10B8300002D3091B818000E08680C188091989B282
:10B84000C1800A2905D30A39C1800121062001F0EF
:10B85000F3F816487D224188D200914224D34680D5
:10B86000E87E00280DD0A88B401C80B2A883E98B0D
:10B87000884206D3AE830E49EE7678782231FFF700
:10B8800049FE0B484038017F02290DD1817D0129F5
:10B890000AD1018B491C89B20183F02904D30683A4
:10B8A000F87804210843F870F8BD000094200020C7
:10B8B000EC2C0020EC2B0020F8B5124F00253D6049
:10B8C000114E12483446E0347573A27BE273A573BF
:10B8D0002574214656390090FFF746FC0420386055
:10B8E0000098FFF781FD3073022809D0607C0028A2
:10B8F00006D0012803D10221062001F09DF83573FE
:10B90000F8BD0000002500400C2D0020F92B002080
:10B91000F8B5904C002725462278E81DF9300090B4
:10B920002E46A988A878FF35C0362135130001F0CE
:10B9300022FB08264F7EA6AEB6F00532287B0028F3
:10B9400074D0022801D0012805D1A879E97988426C
:10B9500001D303202873607881007F484158002973
:10B9600002D07C480D308847287B042801D003286A
:10B9700001D107206070009887626F73E1E00029B1
:10B9800054D100280AD0012814D074A1002000F05E
:10B9900055FFB776677002202070D1E07449082007
:10B9A000886074A1002000F049FFA078401CA070BE
:10B9B0000A2062E001206E494002886072A10020E6
:10B9C00000F03CFFA078401CA070FF20F53054E050
:10B9D00000292BD100281AD001281FD0B7760120CA
:10B9E00060702770A770FFF7E3FD6C480178491C71
:10B9F000C9B201700329C1D30770694808220178D0
:10BA00001143017067A1002000F018FF99E00120A8
:10BA1000574A4102D160A070C8202EE0012054494D
:10BA2000400288600220A070642026E06FE00029B8
:10BA300003D05B490978490769D5002815D05EA174
:10BA4000002000F0FBFE5648A7800178FB22114041
:10BA500001702078607007202070012028713E4915
:10BA6000A0780B39085C68716EE058A1002000F0E6
:10BA7000E5FEA078401CA0705948A08061E062708B
:10BA8000072121700121297133490E39EAE76270DB
:10BA900007212170012129712F49C91FE2E70120E7
:10BAA000FFF744FD607200284BD0217A002948D06E
:10BAB000A178002901D101222273274A103A515C52
:10BAC0000F290FD1012804D0022804D0032809D15E
:10BAD00003E0287802E0A87800E0E87800F022F996
:10BAE000E07277750098807E032802D3A078002842
:10BAF0000AD0207860700720207001202871164835
:10BB0000A1781038405CAEE7012060702070F8BD6D
:10BB1000FFE70020FFF70AFD002803D0A07A0121EB
:10BB20000843A072A07A00280BD000F0FBF8411D5A
:10BB30002170A27A012181408A43A272062060709E
:10BB4000A77028790128E2D12F712648FFF750FD10
:10BB5000DDE70000EC2B0020A8F801006E6578748A
:10BB600020737461746520696E697420210D0A0068
:10BB700000050050736574206E6220706F776572E7
:10BB80006F6E20210D0A0000736574206E622072B2
:10BB90006573657420210D0A0000000094200020C8
:10BBA000A2200020436C6F7365205374617465207C
:10BBB00050726F630D0A00006E622068617320731B
:10BBC0007461727420210D0A0000000077616974AD
:10BBD000206E6220737461727420210D0A000000CF
:10BBE000204E0000102D0020F0B50C4A00211268F4
:10BBF0000B4B944684006218002095008A00624432
:10BC00002F18165CDF5D7E401654401CC0B204281D
:10BC1000F6D3491CC9B20429EDD3F0BD00210020A0
:10BC2000602F002000228B5C8354521CD2B2102A59
:10BC3000F9D37047F8B50546094F0A4E0CE03C5C55
:10BC4000002C03D11021084801F0A8FE2146284607
:10BC500002F09CF8012802D0705D0028EFD1F8BDF9
:10BC600074FC0100F5200020502F002070470000D8
:10BC700010B500F045FC0020044A01461154401C58
:10BC8000C0B20828FAD30248017010BDF520002088
:10BC9000F4200020F8B505460B4F0C4E10E03C5C3C
:10BCA000230001F068F902020507FFF705FE01E035
:10BCB000FFF72EFE2146284602F068F8012802D040
:10BCC000705D0028EBD1F8BD74FC0100F520002068
:10BCD00010B50022064C03E003785340E25C401CA0
:10BCE0000B46491E89B2002BF6D1104610BD00004C
:10BCF00074FB010070B500240B4605781E78B54230
:10BD000005D15D785B1C002D02D1012070BD0B4672
:10BD10004578401C002D03D0641CA4B29442ECD39F
:10BD2000002070BD0146002001231A4682400A42CD
:10BD300004D1401CC0B20828F7D3FF20704710B5CB
:10BD4000FFF796FF00F08AFE00F018F8FFF736FBC9
:10BD5000012010BD70B50446064E074D05E0315C6C
:10BD6000204602F013F8012802D0285D0028F6D101
:10BD700070BD000074FC0100F52000207047000039
:10BD8000F0B50024FF268BB0013601252746069426
:10BD9000304602F099FE002807D0544840682842F7
:10BDA00003D0304602F088FE2C43361D6D007F1C08
:10BDB000B6B2042FECD3FF257D35284602F084FE71
:10BDC000002809D0284602F077FE6807044306AA37
:10BDD0000121002002F05CFE454D200714D0012710
:10BDE000002627420CD04348B2001118086909699F
:10BDF000C004C00E8903AA58890F002A00D09047BA
:10BE00007F00761C042EECD3002C6DDA0020089005
:10BE1000401E63E0281940300778B906890E00916A
:10BE200000214156491C49D009A9009802F07BFC29
:10BE3000002843D0B8090190009801F09FFF8000CE
:10BE40002F580198002F02D0032802D00DE00328BC
:10BE500034D1009808ABC20841079446985C490F5A
:10BE600001228A4010436246985400980521090730
:10BE700080004018072109024018006806A98003C5
:10BE8000800F0290009802F04EFC0028029802D029
:10BE9000022802D012E0032810D10198032808D10B
:10BEA000029802281ED00221009802F0CCFD761CD8
:10BEB000F6B2002F02D001990098B847641C042CF8
:10BEC000A8D3002E10D06A460121002002F0E0FD28
:10BED00006990098884207D00690089800263446B4
:10BEE000099097E70321DFE70BB0F0BD0063004046
:10BEF0006C24002000650040F3B5002681B0344674
:10BF00002C270D4608460096FFF752F9C0B20DE007
:10BF1000641CE4B2844201D30020FEBD295DB94215
:10BF2000F6D1641CE4B2761CF6B2009401998E42FC
:10BF3000F4D30098FEBD70B586B0064600242C25CB
:10BF4000FFF736F9C2B20020694604E00B55641CC5
:10BF5000E4B2944202D2335DAB42F7D108550846B1
:10BF6000FFF736F9C0B206B070BD10B50A20FFF772
:10BF70003BFE092400F0FAF900F016FA2046FFF71C
:10BF800033FE00F00DF8641E2406240EF2D100F0FA
:10BF9000EDF900F009FA0020FFF726FE10BD0000C1
:10BFA000F0B585B0002003908400EF480068065D7E
:10BFB00020184178029181780191C0780090304634
:10BFC00003F014FC03F012FC03F010FC03F00EFC71
:10BFD000009803F00BFC019803F008FC029803F0B2
:10BFE00005FC03F003FC029803F000FC03F0FEFBE9
:10BFF00003F0FCFB03F0FAFB009803F0F7FB03F0FF
:10C00000F5FB03F0F3FB03F0F1FB009803F0EEFB0C
:10C0100003F0ECFB019803F0E9FB03F0E7FB03F00E
:10C02000E5FB03F0E3FB304603F0E0FB054630465A
:10C0300003F0DCFB03F0DAFB4540304603F0D6FBAF
:10C0400003F0D4FB03F0D2FB4540029803F0CEFB93
:10C05000029907464F40084603F0C8FB03F0C6FBB1
:10C0600003F0C4FB47407D40019803F0BFFB03F0A1
:10C07000BDFB019907464F40084603F0B7FB03F0AC
:10C08000B5FB03F0B3FB47407D40009803F0AEFBE7
:10C0900003F0ACFB03F0AAFB014600984140B24814
:10C0A0004D4000680555304603F0A0FB009803F0B2
:10C0B0009DFB019803F09AFB03F098FB029803F0B4
:10C0C00095FB03F093FB03F091FB03F08FFB3046ED
:10C0D00003F08CFB03F08AFB03F088FB03F086FB84
:10C0E000304603F083FB03F081FB009803F07EFBF6
:10C0F00003F07CFB03F07AFB03F078FB019803F07C
:10C1000075FB03F073FB03F071FB03F06FFB30462C
:10C1100003F06CFB03F06AFB03F068FB0546754017
:10C12000029803F063FB0746029803F05FFB03F0FD
:10C130005DFB4740029803F059FB03F057FB03F007
:10C1400055FB47407D40019803F050FB019907469D
:10C150004F40084603F04AFB03F048FB03F046FB60
:10C1600047407D40009803F041FB03F03FFB07464A
:10C170000098474003F03AFB03F038FB03F036FB2E
:10C18000474079487D40006820184570304603F0EC
:10C190002DFB009803F02AFB03F028FB019803F025
:10C1A00025FB03F023FB03F021FB03F01FFB0298A8
:10C1B00003F01CFB304603F019FB03F017FB03F000
:10C1C00015FB03F013FB009803F010FB03F00EFBCC
:10C1D00003F00CFB03F00AFB029803F007FB03F0EB
:10C1E00005FB03F003FB03F001FB029803F0FEFAEA
:10C1F00003F0FCFA304603F0F9FA03F0F7FA0546CB
:10C200007540304603F0F2FA03F0F0FA03F0EEFA6C
:10C210004540029803F0EAFA03F0E8FA03F0E6FA80
:10C22000029948404540019803F0E0FA074601981A
:10C2300003F0DCFA03F0DAFA4740019803F0D6FA8B
:10C2400003F0D4FA03F0D2FA47407D40009803F09F
:10C25000CDFA07460098474003F0C8FA03F0C6FA43
:10C2600003F0C4FA474040487D40006820188570BC
:10C27000304603F0BBFA03F0B9FA009803F0B6FABF
:10C2800003F0B4FA03F0B2FA03F0B0FA019803F045
:10C29000ADFA029803F0AAFA304603F0A7FA03F0C9
:10C2A000A5FA03F0A3FA03F0A1FA019803F09EFAAD
:10C2B00003F09CFA03F09AFA03F098FA019803F05D
:10C2C00095FA03F093FA029803F090FA03F08EFACD
:10C2D00003F08CFA03F08AFA304603F087FA054639
:10C2E0007540304603F082FA03F080FA03F07EFADC
:10C2F0004540029803F07AFA03F078FA029906466C
:10C300004E40084603F072FA03F070FA03F06EFA3A
:10C3100046407540019803F069FA03F067FA03F0AC
:10C3200065FA019948404540009803F05FFA0646D7
:10C33000009803F05BFA03F059FA4640009803F0C6
:10C3400055FA03F053FA03F051FA46400648754097
:10C3500000682018C5700398401C0390042800DA78
:10C3600022E605B0F0BD0000002100200D48006865
:10C37000417B427A42734279427242784271417003
:10C380008178827A827081728179827B82718173F5
:10C39000C178C279C270C27AC271C27BC272C173E3
:10C3A000704700000021002030B50949094A0C6897
:10C3B000002000218B001B191D5C491C555DC9B272
:10C3C0001D540429F6D3401CC0B20428F1D330BD5B
:10C3D0000021002074FE0100F8B52749274B4A6868
:10C3E00000208100545C5C548C18C91865784D702D
:10C3F000A5788D70E478401CCC700428F1D337E028
:10C40000002182006D46141F66189E5D6E54491C03
:10C410000429F9D3810715D12F46BE782978FF78F2
:10C42000174C6D78BC46655DA65D6F467E706746AD
:10C43000E65D6F46BE70615CF970124C8108615C0C
:10C440004D403D70D4182546203D6E46297C3678F7
:10C45000714099546E46697C727851406170AA7C33
:10C46000B1784A40A270EA7CF1784A40E270401C00
:10C470002C28C5D3F8BD000000210020602F00202B
:10C4800074FD010074FF010070B50446064E074DAF
:10C4900005E0315C204601F079FC012802D0285DDE
:10C4A0000028F6D170BD000074FC0100F5200020CA
:10C4B00070B50446064E074D05E0315C204601F09C
:10C4C00065FC012802D0285D0028F6D170BD00006F
:10C4D00074FC0100F520002070B50446064E074D9F
:10C4E00005E0315C204601F051FC012802D0285DB6
:10C4F0000028F6D170BD000074FC0100F52000207A
:10C5000010B5002011498522920004460C54401CAD
:10C5100080B29042FAD30E4900200C54401C80B2E5
:10C520001028FAD309480BA1E430FEF748FE07486B
:10C530000CA1DD30FEF743FE04480C49C030C18633
:10C540001E2101870121C176847610BDEC2B0020CD
:10C55000002E00203132302E37372E3137342E3135
:10C5600031360000636D696F740000004C240000D8
:10C570008307FF22DB0E9A408907090E99400028A5
:10C580000BDA0007000F0838830808489B001818CA
:10C59000C36993430B43C3617047830804489B00FE
:10C5A0001B181868904308431860704700ED00E0BE
:10C5B00000E400E070B50446064E074D05E0315C2E
:10C5C000204601F0E3FB012802D0285D0028F6D1C7
:10C5D00070BD000074FC0100F5200020F8B5FF20BC
:10C5E000013002F0A8F8002401250E4E0E4F00285D
:10C5F00007D00E4804600120B0607D70002001F07B
:10C60000DBFBFF20053002F096F8002808D0074831
:10C61000001D04600220B060BD70012001F0CCFB61
:10C62000F8BD000000030040582400200001004035
:10C63000F8B50C4601462B4800264088C31FFA3B3C
:10C6400001D0072108E0002A34D0274D6879A528B9
:10C6500006D0A02C2ED103E0204600F0FBFA3FE0EC
:10C66000A72C3DD014DCA22C3AD008DC012C14D02D
:10C67000022C15D0A02C1AD0A12C1BD130E0A32C59
:10C680002ED0A42C2CD0A52C2AD0A62C12D127E059
:10C690002046A83808280DD822E0082313A201E07C
:10C6A0000F2314A20021204600F0DAFA18E00978DE
:10C6B000012901D00421CFE7A52811D0114F002076
:10C6C00038730124102110480C3702F033F9781C1C
:10C6D00010220D49FEF748FD0C480470A520687132
:10C6E0003046F8BD3C2F00209A2000204856312EBD
:10C6F000302E33005356312E312E302D3138303814
:10C7000030360000102E0020A620002098200020A7
:10C710001CB500246846047000F030FE02F06AFE8A
:10C72000002818D10E480168002914D00D498968E5
:10C73000C907C90F0FD004600B48806869460871AB
:10C7400001A90A4802F0F4FA084802F0DBFA0028CE
:10C7500001D002F047F96846007800F02DFE1CBDBC
:10C7600000D1004000D3004000D5004050F8010047
:10C7700010B506490020086048608860C860034919
:10C7800040390860486002F0E7FE10BD40110140EA
:10C7900010B503480078002801D100F06DFA10BDF3
:10C7A000742B0020F8B506460C48144600780D4658
:10C7B000002801D100F060FA00236846009303705E
:10C7C00000F0DCFD22462946304600F009F8044618
:10C7D0006846007800F0F0FD2046F8BD742B00207C
:10C7E00070B50E4618214843134914464518E86AA7
:10C7F0001835002804D001280FD0022805D113E0F5
:10C80000284600F06FFAA04201D2002411E022462F
:10C810003146284600F091FB0BE0284600F062FA12
:10C82000A042F4D20446F2E73146284600F055FB18
:10C830000446204670BD0000742B00200FB408B5DC
:10C8400004A900916A46039900F004F801B008BCFD
:10C8500004B01847F7B598B007A80290402000250B
:10C860000495039018980C46059506902178641C51
:10C87000002977D0252907D002A800F00FFB0598E2
:10C880000028F3DA1BB0F0BD012200210227134675
:10C890000826207823281BD02B2816D02D2802D03C
:10C8A000302806D101E0194300E03943641C002A16
:10C8B000EFD1002220780346303B0A2B0AD20A230C
:10C8C0005A431218303A641CF4E704200143EDE7A0
:10C8D0003143EBE70023C7B22E2F0AD1641C207826
:10C8E0000746303F0A2F04D20A277B431B18303BF0
:10C8F000F4E76C280DD068280BD0702852D00BDCE0
:10C9000025285AD058282ED063280CD0642858D116
:10C9100010E02078641CECE7732832D0752817D01B
:10C9200078284ED11FE01A981A9A0068011D1160EC
:10C93000017843E01A981A9F0068061D3E6000685F
:10C940000191009201460A2202A800F0D6F938E0CF
:10C950001A981A9F0068061D3E60006800920191B7
:10C960000A2209E02FE01A981A9F0068061D3E600F
:10C970000068009201911022014602A800F022FAFC
:10C980001FE01A981A9A0068011D11600668317834
:10C99000761C002915D002A800F080FA059800281E
:10C9A000F5DA0EE01A981A9A00680823011D116042
:10C9B0000168102200960195DFE7252102A800F00A
:10C9C0006DFA641C5BE70598002800DC5AE70498C0
:10C9D000002804D0024607A91898FFF7E3FE04993F
:10C9E0000598401805904DE770B50446064E074D72
:10C9F00005E0315C204601F0C9F9012802D0285D2C
:10CA00000028F6D170BD000074FC0100F520002064
:10CA100010B502F013FD10BD10B50648406800289F
:10CA200005D08047002801D000F0F4FB10BD01F0D4
:10CA300029FB10BD8020002001231A4682408B4034
:10CA400010B504490C7814430C7003490A5C1A436E
:10CA50000A5410BDF4200020F5200020704700008B
:10CA600010B501F05DFB002805D01F491D48486046
:10CA7000C8131E4988611E48018CC9B201290BD117
:10CA8000828C120708D1028D1206120F042A03D1DC
:10CA9000828D1206120F0AD0012921D1818C09073B
:10CAA0001ED1018D0906090F0A2904D007E0114A99
:10CAB00001219160F5E7828D1206120F05D00D2934
:10CAC0000ED1808D0006000F0AD10B4801680129A4
:10CAD00004D00A49016001680129FCD1C0214161EB
:10CAE00010BD0000DFFF07C000050040006C0040E3
:10CAF000C00F00F00006004000EC064075930000F7
:10CB0000F8B52E4C01214902204602F08FF900258C
:10CB10002B4F0126002818D0FF212531204602F096
:10CB200080F9002811D0FF2025302550812025498B
:10CB3000800088603878002800D16660204808228C
:10CB4000001D01781143017028E00421204602F005
:10CB50006DF9002822D0FF210931204602F061F949
:10CB600000281BD0FF20093025501748467317486E
:10CB700082691549E031887B0B46563BC254887B5D
:10CB8000401CC0B28873642800D38D730E481421F2
:10CB9000603001853878002800D16660FF2145317A
:10CBA000204602F03EF9002806D0FF2045302550EF
:10CBB0003878002800D02660F8BD00000020004032
:10CBC000CC200020002300400C2D00200025004038
:10CBD00030B51C4B002119600278811C1402427888
:10CBE0002243194CA24227D10C78184A24025480BF
:10CBF0004D78254355808C781471CC7854710C791C
:10CC000094714C79D4718C791472CC7954720C7AF9
:10CC100009319472AA2C01D0552C0DD10C78D47204
:10CC2000491CD16061180C7814744A788978120212
:10CC30001143074A914201D0002030BD1860012005
:10CC400030BD0000B8200020A5F000003C2F0020DF
:10CC50000D1600000148017370470000102E0020DF
:10CC600010B50448144601731A4621460D30FEF7EC
:10CC70007BFA10BD102E002010B5124C022020614E
:10CC8000606111A0A0611348E061012040022062B0
:10CC90000020A06260620CA1A1642146E06210390C
:10CCA000E16410212165A0656065E0650AA1E01DD1
:10CCB000FEF785FA09A12046FEF781FA2020A0712F
:10CCC00010BD0000742B00205465726D696E616C9C
:10CCD0000000000064290020525454005345474787
:10CCE000455200000269C1688A4203D88068401A30
:10CCF000801800E0501A401E7047FFB583B00E4602
:10CD000070420D9F0C9C0090002900DB0846012515
:10CD100002E0FEF711FA6D1C05998842F9DA0698CF
:10CD2000A84200D90546002C04D0002E01DB78076C
:10CD300000D5641EB80702D50698002810D0F80761
:10CD40000ED1002C0CD0A5420AD22021641E0398DB
:10CD500000F0A4F80398C0680028F2DA07B0F0BD2C
:10CD60000398C0680028F9DB002E02DA2D21009E0E
:10CD700002E0780707D52B21039800F08FF803987D
:10CD8000C0680028EADBB807800F022810D1069897
:10CD900000280DD1002C0BD0A54209D23021641EF1
:10CDA000039800F07BF80398C0680028F2DAD5E712
:10CDB000019700943146069B059A039800F002F80B
:10CDC000CCE70000FFB581B001261F4634460A9D1E
:10CDD000029802E0FEF79AF9641C03998842F9D29E
:10CDE000A74200D93C460B98C00718D1002D16D099
:10CDF0000B98800701D5002F02D0202000900CE076
:10CE00003020FBE76D1E0099019800F047F801986B
:10CE1000C06800283DDB002D01D0AC42F2D3019860
:10CE2000C068002835DB012F01D97F1E06E031469E
:10CE30000298FEF76BF90399884202D303984643A0
:10CE4000F1E7154F31460298FEF760F90146029A64
:10CE50007143511A0291395C019800F01FF8019852
:10CE6000C068002805DB30460399FEF74FF906003D
:10CE7000E8D10B98C0070CD0002D0AD0AC4208D2E4
:10CE800020216D1E019800F009F80198C068002863
:10CE9000F2DA05B0F0BD000088F8010010B50446D4
:10CEA00080686368421C934205D323681954A260CA
:10CEB000E068401CE060A2686068824209D1216895
:10CEC0002069FFF76FFCA168884203D00020C043AF
:10CED000E06010BD0020A06010BDF7B5064682B02E
:10CEE00000200090F46817463069A04201D9051B64
:10CEF00002E0B168201A0D1AB0686D1E001BA8422E
:10CF000000D80546BD4200D33D4670682A46001948
:10CF10000399FEF729F900987F1B401900900398A8
:10CF2000641940190390B068A04200D10024F46055
:10CF3000002FD9D1009805B0F0BDF7B5C6681746E7
:10CF400004468068851B6068BD4206D98019019936
:10CF5000FEF70AF9F019E060FEBD2A468019019932
:10CF6000FEF702F901987E1B411932466068FEF710
:10CF7000FBF8E660FEBD30B47446641E2578641C80
:10CF8000AB4200D21D46635D5B00E31830BC18471E
:10CF9000004870471021002002E008C8121F08C195
:10CFA000002AFAD170477047002001E001C1121F2A
:10CFB000002AFBD170470000202804DA01218140BB
:10CFC0000348014201D00120704700207047000053
:10CFD000FC06FFBCF7B584B006460025178815800F
:10CFE00020300290407B1446002806D03A46214665
:10CFF000059800F027FC050009D1B078002823D05F
:10D00000059886462088001DB84202D90C2007B03A
:10D01000F0BD684679DF0028F9D1218803207246E7
:10D02000505420881921401C80B22080115420883F
:10D030007146401C80B2208041186846008802F08A
:10D040000BFB218840182080F078002817D0218819
:10D0500003230A46F356C91C0598B942D6D80221C3
:10D06000815421880122491C89B22180425421889F
:10D07000491C89B2218043542088401C208070685C
:10D08000002817D021880023C3560A46C91C0598DA
:10D09000B942BBD80221815421880A22491C89B295
:10D0A000218042542188491C89B221804354208820
:10D0B000401C2080308900280AD000943046019717
:10D0C000062202210830059B02F014FB05009ED1C8
:10D0D000308A00280AD000943046019707220321A5
:10D0E0001030059B02F006FB050090D1308B002824
:10D0F0000AD0009430460197152214211830059B60
:10D1000002F0F8FA050082D1306A002806D03B46CA
:10D110002246059900F0B8FE0500D8D1706A0028B3
:10D1200006D03B462246059901F008FA0500CED10B
:10D130000298007B002807D03B46224630460599DE
:10D1400001F0FCFF0500C2D13078002807D03B4633
:10D1500022463046059901F097FA0500B7D12846D6
:10D1600055E70000174A0021535C002B01D0012233
:10D1700003E0491C0629F7D300221349012806D0F1
:10D1800002280BD0032810D0042818D112E04878C8
:10D19000002803D0002A01D0012070478878002899
:10D1A00003D0002A01D002207047C878002801D09F
:10D1B000032070470879002801D004207047002020
:10D1C000704700001D2000207022002009A10120CE
:10D1D00001F042FD01F094FC01F098FC0028FBD125
:10D1E00000BEBFF34F8F0A490848C860BFF34F8F96
:10D1F00000BFFDE74150505F4552524F523A4552F1
:10D20000524F523A466174616C0D0A000400FA05EF
:10D2100000ED00E00EB50021029000916A460191F8
:10D220000148FFF7D3FF0EBD01400000094B5B68CA
:10D23000002B07D0002A07D0002805D00068037C07
:10D24000002B03D0082070470720704741744261CB
:10D25000002070475C200020FFB50746900700259E
:10D2600081B01E461446002825D1002C23D001F0A1
:10D27000B1FE3046114EF0603046103005704570FA
:10D280000299817044607560357001240C48757096
:10D290002405046003211420FFF76AF9094804609B
:10D2A000094CA76003211120FFF762F96068B060A4
:10D2B000002005B0F0BD0720FBE700004C20002057
:10D2C00080E200E000E100E000150140FEB51F4BE8
:10D2D0005B68002B30D000282ED0052901D2072012
:10D2E000FEBD4369002B27D0437C012B26D00027AD
:10D2F000029104460025694616460D70684600F006
:10D300003DF801A802F0E0F9002819D001210170D0
:10D310000F49446049688160029907614661C160B4
:10D3200068460A49007948706846007800F044F879
:10D3300002F0C6F82846FEBD0820FEBD0F46D7E71E
:10D3400068460425007800F037F8F3E75C200020F9
:10D350000015014010B50849496800290AD0002885
:10D3600008D04169002905D000210174022102F092
:10D37000CFF810BD082010BD5C20002030B5EFF3C1
:10D38000108172B6094A54680123002C04D003703E
:10D39000002900D162B630BD5360054B1D68054CB5
:10D3A000254015601C6000220270F1E7702000200B
:10D3B00080E100E0FC06FFBC08494A68002A0CD066
:10D3C00000280AD1EFF3108072B60A68044B1A6085
:10D3D00000224A60002800D162B670477020002009
:10D3E00000E100E0F0B50C4693B01F216A461180C1
:10D3F000072600279180002809D0C17849070DD55C
:10D4000002A9FFF7E7FD002809D102AD01E00025E0
:10D410001780002C0ED0E078002802D0304613B0E0
:10D42000F0BD01AA0AA92046FFF7D4FD0028F6D1D5
:10D430000AAA02E068460022878068468088C3B254
:10D4400068460088C1B2284672DFE8E7FFB581B0C0
:10D450001E460A9F1346040047D0002B45D0504D6E
:10D46000012028700020E870202219464D48FDF761
:10D470007BFE00206F61C0432E6128812846072172
:10D480001830FDF78AFE47483C212030FDF785FE25
:10D490004448217820300170A1788170E178C17012
:10D4A000617841703F4A656923695563114613638A
:10D4B0002031E368A268CB608A603A49E369A269D7
:10D4C000CB638A63616A00291AD001463C31024667
:10D4D000483241628A60636A1B880B80616A436AD2
:10D4E000898899800021436A07E00E2005B0F0BDCD
:10D4F000656AAD686D5C5554491C9D888D42F7D8AE
:10D50000A16A00291CD0274A943211460C398A603E
:10D510008162A36A9B888B80A16A836A09881980CB
:10D520000021836A04E0A56AAD686D5C5554491C0E
:10D530009D888D42F7D82C210A5D1A4940310A7323
:10D54000216A002909D016490A310162226A5288EB
:10D550004A80216A026A098811806168002900D026
:10D560004160104A0E490020B3322031C3001B1A1B
:10D5700085009B180C68401C63510828F6DB094A9B
:10D580000020EB32030185009B188C68401C63511E
:10D590000828F7DB034802992030FFF723FFA5E7AF
:10D5A000042000207022002010B50188134C10299F
:10D5B00015D0112919D01B2910D1007A00280DD1BE
:10D5C000E0780521401CFDF7A1FD084600F018F8A1
:10D5D000002803D06169002900D0884710BD817DF3
:10D5E0000129FBD18088208110BD002161718088D4
:10D5F00021898842F8D10120E8E7000004200020BA
:10D60000F1B53F4C88B0207800280AD00898E07027
:10D6100006A800F0D5FC06980125002804D0657006
:10D620006AE0082009B0F0BD35480027072118300E
:10D63000FDF7B3FD334E7078002802D0E078012862
:10D6400007D0B07800280CD0E078012801D002285B
:10D6500007D12169002903D025710820884700E0FF
:10D6600027710898FFF77EFDE0702169002909D035
:10D67000032801D0042805D13078002802D0607931
:10D68000002811D0A77118216846FDF786FD68466D
:10D6900007700772E1781A480B001830FFF76BFC2F
:10D6A000052E080F191D2000A57107208847EAE7FD
:10D6B000A5700190684605704782078213E0022139
:10D6C000A170019068460570B1894182318901825B
:10D6D00009E0684601F07AFD02E0684601F0A2FD2B
:10D6E000E078002803D0684673DF00289AD12169CA
:10D6F000002901D0A0788847002093E7A770F6E7BB
:10D70000042000207022002070B50E460546024617
:10D7100007A10020FFF792F8002406E0335D2246BF
:10D7200008A10020FFF78AF8641CAC42F6DB70BD4C
:10D7300064617461206C656E677468203D202564A7
:10D740000D0A0000646174615F656E6372797074C4
:10D750005B25645D203D203078253032580D0A006D
:10D7600070B5054601461C220E48FDF7FDFC0E4C27
:10D77000002626702968002906D00822201DFDF702
:10D78000F3FC201D7ADF02E00748001D7BDF002844
:10D7900007D1401E60806670044A00210448FFF7EC
:10D7A00045FD70BD3C2400203420002065F60100BA
:10D7B00034F80100F8B5214C0146028800261E48C5
:10D7C000E589102A13D01E4F112A1FD0122A2BD000
:10D7D000502A1AD1881DC988A94216D14189022927
:10D7E00013D10C3000F0D2F800280CD112E08A8856
:10D7F00004464280104808220C301831FDF7B4FC72
:10D800006670002D01D100F087FBF8BD0021C943EF
:10D81000418046703868FFF79DFD0028F5D0A1696A
:10D820000029F2D08847F8BD034808220C3008319F
:10D83000FDF79AFCE7E70000342000203C2400209C
:10D8400034F801007CB5054608880C460930904242
:10D8500001D90C207CBD684671DF0028FAD12188EF
:10D860000820685420881B21401C80B22080295445
:10D87000208800A9401C80B2208040190622013176
:10D88000FDF772FC20886946801D80B220800978EF
:10D89000002900D0012129542088401C208000202C
:10D8A0007CBD000010B50446FFF784FF2146054803
:10D8B00000F03EF8204601F0D1FA2046FFF774FE52
:10D8C00010BD0000E821002030B5184B0D460400C3
:10D8D0000FCB85B003936B4607C324D0002D22D015
:10D8E0000020C043A0822868A0610020A0752146C6
:10D8F000684663DF002814D12178684681740121CD
:10D900000182A21C04A90120A0DF002809D1294618
:10D91000204601F081FB002803D12946204601F072
:10D920005BFE05B030BD0E20FBE7000038F80100BB
:10D9300010B500281BD0002919D00A88102A17D04A
:10D94000112A17D0502A12D104468A1DC888238A6A
:10D950001231984202D15389022B0FD0A3889842EA
:10D9600005D1A369002B02D052892046984710BDEB
:10D97000898801E00021C943818210BD084600F07A
:10D9800005F8002800D00120A07510BD417802786C
:10D9900008021043C007C00F7047000010B5FFF722
:10D9A00017F90B4C0B48E17A00680C31FEF790F93F
:10D9B000217C88420AD1E06806490246091DFDF72C
:10D9C000EDFCE27A617AE068FEF732FE10BD0000FD
:10D9D0003C2F0020B820002010B514461022064825
:10D9E000FDF7C2FB00210520FFF726F8024920467B
:10D9F000FFF78AFE10BD0000502F002005490B5C88
:10DA000005494A6801209840034693438B601040C3
:10DA1000C860704700F801000005005010B50349C8
:10DA2000085C012101F028F810BD000000F8010099
:10DA300010B50349085C002101F01EF810BD00007C
:10DA400000F801000549095C05484068C840C00766
:10DA5000C00F00D0012001214840704700F80100AC
:10DA60000005005010B500242046FFF7D7FF641CC6
:10DA7000042CF9D310BD10B500242046FFF7D8FFC1
:10DA8000641C042CF9D310BD0246002010B5C0431D
:10DA9000054B00215C5C944201D1084610BD491C35
:10DAA0000429F7D310BD000004F80100F3B581B0DC
:10DAB0000D460198FFF7E8FF0446042813D21D48DD
:10DAC0001D4F1E4E002D27D0012D0DD0022D0AD145
:10DAD00060002018C0194578002D04D0F168002995
:10DAE00001D028468847FEBD610061187D5CCF19D2
:10DAF000797800290BD071680A2251430F4A806857
:10DB0000921CFFF7E3FB002801D10198B0700B488D
:10DB1000B97810300155DFE78068FFF71BFC074834
:10DB2000610061181030C919005D8D78A842D3D00A
:10DB3000FEBD000008F8010044220020F01F002074
:10DB400010B5054A0146127A0020D20702D00846D5
:10DB500000F004F810BD0000F01F0020F8B55D4C87
:10DB6000054660780026002803D000206070FFF78B
:10DB700079FF0120584F2B00FFF7FDF918970D0D85
:10DB80002E3D4A5F64686F686FA9777777777797DC
:10DB90009A9DA0A9A9950020FFF754FF00280AD05C
:10DBA0000020FFF73BFF022D02D1E120C0000BE077
:10DBB0007D20400108E00020FFF73AFF022D01D14F
:10DBC000C82001E0FF20913025706421FDF79EFA06
:10DBD0006168414300222BE00020FFF733FF00285B
:10DBE00005D00020FFF71AFF19204001ECE70020C4
:10DBF000FFF71EFFE4E70020FFF724FF002803D013
:10DC00000020FFF70BFFD3E70020FFF711FFD9E754
:10DC10000020FFF717FF002803D00020FFF7FEFECB
:10DC200002E00020FFF704FF257060684100002239
:10DC30003868FFF74BFB064635E00020FFF7DEFEB5
:10DC4000257007E000203FE025702CE06070012087
:10DC5000FFF7D4FE00226168EAE760700120FFF759
:10DC6000CDFE606881004118E1E77868FFF772FB3C
:10DC700006461120401B01D0002E03D00220FFF7E2
:10DC8000CDFE10E001280BD9C82148436421FDF7DF
:10DC90003DFA6168002241437868FFF717FB0646AA
:10DCA0000220FFF7C5FE3046F8BDFFF7DBFECBE7ED
:10DCB000FFF7D8FEC6E7FFF7D5FE04E0FFF7D2FE78
:10DCC0000020FFF7B5FE0120FFF7B2FEBCE7FFF72B
:10DCD000D2FEB9E7F01F002008F80100F8B50D46A4
:10DCE000461C00206946087001246846FFF746FB81
:10DCF000134A10682860116850689368081A1D1A42
:10DD0000701C6D1CA84212D9002D0ED00D480E4C6F
:10DD10000088246880051940800DA40289002043F2
:10DD20008918C8601068401C1060002401E0881940
:10DD3000106068460078FFF73FFB2046F8BD000002
:10DD40004C25002064F801007C200020034803C813
:10DD5000814201D101207047002070474C250020EE
:10DD60000022D243830004490428CA5002D3081871
:10DD700020300277704700006C2400200249091807
:10DD800020200856704700006C24002030B5084C55
:10DD90000122235C15468D40AB43235401D0002063
:10DDA00030BD82400348017891430170012030BDAD
:10DDB000F5200020F420002070B5084C050009D0A3
:10DDC00010342168002907D0086820604968284677
:10DDD0008847F6E70834F4E770BD000058240020B7
:10DDE000F8B52348416800293ED00E6821494C68A7
:10DDF00087688078E11B0D022D0AED1C002814D1E4
:10DE000001201D4A000450601B4A403A50601B49E3
:10DE1000400008601A4908601A49012008602F2054
:10DE200000F092FC124901208870B54200D23546BC
:10DE3000E81900020F4B000A403318600D4A516880
:10DE4000001B091B0902090A0002000AC91C8142C1
:10DE500009D9506818602F2000F076FC012007498E
:10DE6000400480390860F8BD01F0B4F8F8BD000046
:10DE70004C200020001501404013014080E200E0EA
:10DE800000E100E000100140F8B506461088144695
:10DE90008446801D0D46984201D90C20F8BD328879
:10DEA0000720062AFAD31927FF01184BBA4201D9D5
:10DEB0009A42F3D171880629F0D3B94201D9994227
:10DEC000ECD19A4203D0994201D08A42E6D805218A
:10DED0006046295420881221401C80B22080295499
:10DEE0002088401C80B220804119308801F0B4FBAA
:10DEF0002188401880B220804119708801F0ACFB65
:10DF00002188401820800020F8BD0000FFFF00009D
:10DF100010B5FFF77FF910BDF8B5164800F0F2F81C
:10DF2000144D00260C3D144C002807D061690029CF
:10DF30001CD001206A461070684616E02878002838
:10DF400005D06169002911D0684606700DE0687837
:10DF500000280DD0A168094800220068FFF7B6F933
:10DF6000002803D0A169002900D088472E70F8BD91
:10DF70006168F0E7402000203C24002034F80100D4
:10DF800010B50E4900230A784C78A24212D0521CD8
:10DF9000D2B20A70022A00D10B700A78074B9200A5
:10DFA00018339A580260886810180002000A8860C6
:10DFB000012010BD0360002010BD00004C20002097
:10DFC000002804D00349496E0160002070470320F7
:10DFD00070470000E424002010B5054A01210548DF
:10DFE000FFF724F9002801D0FFF714F910BD000055
:10DFF000D1E2010070FB01000248002141708170F4
:10E00000C1707047CC20002010B500F03BFC082008
:10E0100000F00FFDFF201A49013088600021012027
:10E0200000F0FEFC022000F004FD022000F01CFDC8
:10E030000021042000F0F4FC042000F0FAFC04208D
:10E0400000F012FD052000F0F4FC052000F00CFDAE
:10E050000021062000F0E4FC072000F0EAFC072085
:10E0600000F002FD032000F0E4FC032000F0FCFCC3
:10E07000092000F0DEFC092000F0F6FC10BD0000D5
:10E0800000050050F8B51E4C2078002836D0E06816
:10E09000002600280CD00025607800282ED1684684
:10E0A00052DF052806D0002806D0FFF7B3F80BE0B2
:10E0B0000125F1E7012607E0009800F09BFB2169AC
:10E0C000002901D000988847002D13D160780028DE
:10E0D00014D1608869460880A06861DF052804D0F3
:10E0E000002804D0FFF796F804E0012502E0E1687B
:10E0F000A0688847002ECFD0002DE5D0F8BD0000E5
:10E1000080200020418805480288914204D340883D
:10E11000814201D80120704700207047382000203C
:10E120001048018CC9B2012917D1818C090714D17B
:10E13000018D09060A0F03D1828D1206120F0ED02F
:10E14000090F012903D1828D1206120F07D003296E
:10E1500003D1808D0006000F01D000207047012000
:10E1600070470000C00F00F0F0B5284C2146103970
:10E1700048688B68227886469C46CF78667836E079
:10E18000182353436168521CC918A378D2B2934232
:10E1900000D100220B78022B02D0032B27D123E0E1
:10E1A00003464D68194603E0A94204D00B46C969ED
:10E1B00000291CD0F8E7002919D08B4208D1C0698A
:10E1C000002805D1124F0125BD600025AC4601276E
:10E1D0000D68C969D961002909D00B685B190B600A
:10E1E00005E00174C06900E000210028F9D19642E1
:10E1F000C6D10649624610398A604860CF707045C2
:10E2000001D00120F0BD0020F0BD00005C20002006
:10E2100000100140F8B52C4E0446706800250090AF
:10E2200041E0002C02D02046E46920E02648182373
:10E230001030017842684B43491CC9B2D2180170B2
:10E240008378994200D105701178506801292CD14A
:10E25000017C002929D191684160D16881601169F0
:10E26000C16051698161F178002900D0456043683F
:10E27000B268164F991A0902090AB94202D2826895
:10E28000891806E0D11A09028268090A8A4202D96D
:10E29000511A016000E0056045600121856001744C
:10E2A000C56101F015F9002CBBD107481030017889
:10E2B00040788142BAD171680098814201D0012032
:10E2C000F8BD0020F8BD00004C200020FFFF7F00BB
:10E2D00070B51D4D1D4C2888401C288020780007F3
:10E2E00002D40A20FDF77EFA0A20FDF7BFFC288839
:10E2F000642828D300262E802078154DC10701D12F
:10E30000810713D5E988491CE980E988B4290DD330
:10E31000EE80C00703D000210420FEF78DFB20789B
:10E32000800703D501210420FEF786FB2078010732
:10E3300009D52989491C29812989782903D32E8166
:10E34000F7210840207070BDA4200020A2200020EA
:10E35000302F00200023A8B0634A05211846FEF79D
:10E360007BFF002801D0FEF755FFFEF711FA5FA1F1
:10E370000020FEF763FA61485B49006805900023BE
:10E3800048225C3905A800F0F9FF002801D0FEF70B
:10E3900041FF6A460121002000F0D8FF002801D08B
:10E3A000FEF738FF684600F07FFF002801D0FEF737
:10E3B00031FF534800F06EFF002801D0FEF72AFF1E
:10E3C000FFF722FE01F01CF81120694608720722AF
:10E3D0004CA102A87CDF002801D0FEF71BFF00241F
:10E3E000009410216846019401803C214180FF2166
:10E3F00084809131C1807ADF002801D0FEF70AFFC6
:10E4000042480090384869467830FFF75DFA0028A6
:10E4100001D0FEF7FFFE3C2101A8FCF7BEFE022161
:10E420006846017184710521C1713C2110A8FCF777
:10E43000B4FE012510A805823548159020211FA89B
:10E44000FCF7ABFE18A8C577192080012390B420F3
:10E450002490304B1FAA10A9009401A8FEF7F6FFE4
:10E46000002801D0FEF7D6FE1C216846FCF795FE79
:10E470000520C00301900F200004029000940321A6
:10E4800068460173C48104742348059023480690AC
:10E490006846FFF765F9002801D0FEF7BBFE0020B3
:10E4A00000F01EFA002801D0FEF7B4FE0320FFF7AB
:10E4B000A7F8002801D0FEF7ADFE19A10020FEF755
:10E4C000BDF9FDF73CFC1A4C1A4D1B4E03E0285CCD
:10E4D00081007158884720780028F8D148DF00284B
:10E4E000F9D0FEF797FEF6E7702100204D61696EC6
:10E4F000205374617274210D0A000000FCF70100C2
:10E50000A5D80100414E47554D454E00D9D90100CF
:10E51000EC1F00203DEE01002DEF010011DF010096
:10E52000416476205374617274210D0A000000006A
:10E53000F420002074FC0100D420002070B51446A3
:10E5400082880E4605462088111D4118921C99426A
:10E5500001D8FE2A01D90C2070BD521C32542088EB
:10E56000FF21401C80B2208031542088401C80B2A2
:10E5700020808119288801F06FF82188401880B226
:10E580002080AA88002A09D0A968002908D080190B
:10E59000FCF7EAFD2088A98840182080002070BD83
:10E5A000072070BDF3B581B00E0029D01549087859
:10E5B000002825D0FF20144C1D30002222500127B6
:10E5C000A760154619E00F4A1078002817D0FF21E0
:10E5D0001D31002060500198435D0C48C36103E089
:10E5E00008480078002806D0FF211D31204600F0A1
:10E5F00018FC0028F4D06D1CEDB2B542E3D3E760FF
:10E60000FEBD0000CC20002000200040002500407E
:10E61000F8B5174F3878002828D1FFF7EDFC174ED2
:10E620001448154D70620024F466072006217161BC
:10E63000F060FF201D302C50114980208860FF20A1
:10E6400009302C50FF2045302C500E4848600321E3
:10E65000022000F0D5F8FF2025302C50FF20093093
:10E660002C5001203870042131602860F8BD000072
:10E67000CC20002000502700002000400025004052
:10E680000023004004000200F8B50F46017814464C
:10E690000546012902D16878002806D02088821C0E
:10E6A0009A422DD8012902D006E00720F8BD6978EA
:10E6B0004118891C994223D8181A801E86B26846D0
:10E6C00006802188B81C081869467DDF0028EDD136
:10E6D0002878022805D169460988B14201D8092164
:10E6E0000AE00821012805D16878B04202D86A46BC
:10E6F000108001E06846068068460088FE2801D93F
:10E700000C20F8BD2288401CB8542088401C80B2E0
:10E710002080395420886946401C20800988401890
:10E7200020800020F8BDC20843075B0F0120895CF0
:10E730009840084070470121890740180068002868
:10E7400000D001207047000000280FD00849094A76
:10E75000096800BF00BF00BF00BF00BF00BF00BF0F
:10E7600000BF914200D000BF0138F2D170470000D5
:10E770000C2100200024F40070B50E4C00252078F8
:10E78000002801D0852513E00021A160616021618E
:10E79000E160094800680126304002D1032100F001
:10E7A0002FF800F027FE002801D10448866126706A
:10E7B000284670BD5824002000E100E0000500401C
:10E7C00038B50020694608706846FEF7D7FD084C4A
:10E7D0002078002801D1FFF7CFFFE068401CE060FF
:10E7E0000120A07068460078FEF7E6FD38BD000005
:10E7F0005824002010B5002801D1FFF7DDFA10BD24
:10E800008207D30EFF229A408907090E10B599405E
:10E8100000280BDA03071B0F083B9C080C4BA400D5
:10E82000E318DC6994430C43DC6107E08408094B7E
:10E83000A400E418236893430B432360C106C90E68
:10E8400001208840044908600449086010BD0000A8
:10E8500000ED00E000E400E080E200E000E100E024
:10E860004109074A890089180968C206D20E0120A9
:10E870009040014201D00120704700207047000005
:10E8800000E100E070B5144D2879002801D008207F
:10E8900070BD114900204039421E0B182033401C26
:10E8A000C0B21A702028F8D300242046FFF758FA87
:10E8B000641CE4B2082CF8D303210620FFF7A0FF64
:10E8C000FF207D3000F0F8F801200449C0074860BF
:10E8D00001202871002070BDAC240020006300409E
:10E8E00038B5124C2178002901D0852038BD002888
:10E8F00000D10F480D4902784A7040788870002096
:10E90000694608706846FEF739FD00F073FD00287F
:10E9100003D100F03DF800F055F868460078FEF7A6
:10E920004BFD01202070002038BD00004820002051
:10E930004CF80100F3B5144E81B00F46002568462F
:10E940000570FEF71BFD00F055FD00280BD0684652
:10E950000078FEF731FD394601983ADF0446B042AF
:10E960000DD105240DE03A460848019900F038FA27
:10E97000044600F027F868460078FEF71DFD022CDB
:10E98000DDD02046FEBD00000720000050F8010049
:10E9900010B509484178002904D008494A68012384
:10E9A0001A434A6006490A68520852000A60817890
:10E9B0000D20FFF725FF10BD4820002000D50040A6
:10E9C00000D20040054A002003491060044A01209B
:10E9D000506008607047000000D0004000D1004047
:10E9E00000D3004002490120886002490860704756
:10E9F00000D3004004D0004070B552000A43990093
:10EA0000049D0A432902059E0A43310405240A4352
:10EA1000240780000721001909024018026070BD18
:10EA20001CB500220B46009211460192FFF7E4FF4D
:10EA30001CBD1CB5002100910B460122019111461D
:10EA4000FFF7DAFF1CBD052212078000821807209D
:10EA500000021018026803231B049A430260026834
:10EA600009040A4302607047012181400148C160E6
:10EA70007047000000050050012282400348002931
:10EA800001D082607047C2607047000000050050EE
:10EA900038B5084B05241B68009324026B464118C7
:10EAA00005E085005D592D192D69401C20C2814269
:10EAB000F7D838BD48F8010002494018002101602C
:10EAC00070470000006000400349401800680128BA
:10EAD00000D00020704700000060004070B5074D76
:10EAE00004462878002802D06878844204D0FDF7D4
:10EAF0004FFE012028706C70002070BD782000202F
:10EB000010B50120FFF7EAFF10BD0000F0B595B089
:10EB1000FFF71CF9002802D0002015B0F0BD4B48CB
:10EB20004468866821463140890009180C94CD68F4
:10EB30000BE02904A80D890D401804192046304027
:10EB4000810042480C940818C568641CA807F0D0DE
:10EB500000200890A807800F3D4B022807D0AA0A82
:10EB6000A805000F84460EA99646002059E02046CD
:10EB7000304081003548641C0818C06804948646FB
:10EB80002804800D84463440301B8000AF0D001DEA
:10EB9000874222D92D490C31002807D02B4AA400E6
:10EBA000A21814460C34C2B2381A03E00C460021F5
:10EBB000FAB20846C0B20390019202910094A806EE
:10EBC0005C69400F634672460899A047B84213D16A
:10EBD000FF1C0498B9080C1830E01C48A20010185B
:10EBE00000210C300090029101970391A8065C6906
:10EBF000400F63467246E8E7164980050D40000C59
:10EC000005430C983040810010480818C56017E093
:10EC100027463740BA000D4F401CD719FF68641CC7
:10EC200080C167466045F3D3A80600971D69400F71
:10EC30000EAB72460899A847002801D003484460EB
:10EC4000FFF784F80121484067E700004C250020C9
:10EC50004C2900203F00FFFFF8B5104D0E46074637
:10EC600000206946AC68FFF739F8002815D00C4839
:10EC70003C21808888437907890E08430F21890148
:10EC800088438105890DB002014300980246224065
:10EC900092005219401CD1600090F8BD4C25002014
:10ECA00064F80100F7B5154C82B00E460746012006
:10ECB0006946A568FFF712F800281CD010483C21CF
:10ECC000008988437907890E08430F218901884309
:10ECD000402108438105890DB00201430098024696
:10ECE0002A4092001219D160401C009028408000F8
:10ECF00000190499C16005B0F0BD00004C2500204A
:10ED000064F80100016880684A68824201D2521C9E
:10ED100000E000220868824201D1012070470020F3
:10ED200070478068884201D9481C704700207047AE
:10ED3000FEB504460E4600206946019008706846FC
:10ED4000FEF71CFB2046FFF7DDFF07000AD0207C02
:10ED5000002807D00420019068460078FEF72CFBBD
:10ED60000198FEBD2068416820460D46FFF7D9FF97
:10ED70002168002F486006D0206801682046FFF710
:10ED8000D0FF21680860E268012A15D0022A17D056
:10ED9000042A1AD0082A1DD0104661686843081852
:10EDA0003146FCF7E1F9204600F000F921688A6855
:10EDB0008242D1D28860CFE7616830784855F2E767
:10EDC000616830886A008852EDE761683068AA009F
:10EDD0008850E8E7626803CEEB00D21803C2E2E78E
:10EDE000F8B5002415460E460746002A10D000202C
:10EDF000694608706846FEF7C1FA384600F0D6F852
:10EE0000A84207D32A463146384600F09FF802E070
:10EE10000020F8BD052468460078FEF7CDFA2046AC
:10EE2000F8BD4058002800D001207047032212028C
:10EE300080184068084000D00120704710B50028B5
:10EE400009D0032806D10220FEF77AFE002801D05F
:10EE5000FEF7E0F910BD00F00FFA10BD70B50446E2
:10EE6000314D00886E8888B03A2838D00DDC0228F1
:10EE700039D0102813D011281AD0132822D10023FA
:10EE80001A46852130467FDF26E051282FD05228B0
:10EE90001DD0552816D1A088132176DF1CE007204D
:10EEA000FEF74EFE002801D0FEF7B4F9A08808E076
:10EEB0000020FEF745FE002801D0FEF7ABF9002048
:10EEC000C043688008B070BDFEF7A4F9FAE70023DC
:10EED0001A4619463046A9DF0028F5D1F2E7A08886
:10EEE000132176DFF8E7A088002167DFF4E710221E
:10EEF000A11D04A8FCF738F96846017C0029E1D07F
:10EF0000007E042803D0062801D00528DAD1022982
:10EF100008D0012069460870FF2083308880A088CF
:10EF2000A8DFD9E70220F5E7E81F002010B5007838
:10EF3000002807D104483B21408876DF002801D013
:10EF4000FEF768F910BD0000E81F0020F7B5016862
:10EF5000044603C91646884201D80D1A02E0A1688A
:10EF60000D1A6D1CE268616850434118AE420CD81E
:10EF700072430198FCF7F8F82168A26808688019C4
:10EF8000904200D900200860FEBD17466F433A4604
:10EF90000198FCF7E9F8E2680198751B6A4361681B
:10EFA000C019FCF7E1F820680560FEBD016806C9DC
:10EFB0008A4201D3501A70478068401A401C80185A
:10EFC0007047012252075110886B496B41438818E2
:10EFD0007047000070B501240B49600408600B49BC
:10EFE00040108860094940398860094D6C602F20C5
:10EFF000FFF7AAFBAC60074D00242F20AC60FFF7A1
:10F00000A3FBAC7070BD000080E100E04013014044
:10F01000001001404C20002070B500240546601C03
:10F0200090B00007000F08A9103008940870601C09
:10F030000007000F103048708878F9263040801C97
:10F0400088701C2101A8FCF7A8F8694608791021EE
:10F05000084369460871029408A80494059407942B
:10F060000690287808A988710320694688841120B1
:10F070000094087048708878F7213040801C084060
:10F08000EF210840012630436946887014210AA800
:10F09000FCF783F809A80A9068460B9069460E862B
:10F0A00014204C8688862B4668880C330AAA01A94E
:10F0B000A2DF10B070BD000010B50446FDF77CFF64
:10F0C00000280CD0A007C00E002C0ADA2107090F77
:10F0D00008398908144A89008918C96906E0134863
:10F0E00010BDA108124A890089180968C1400806A4
:10F0F000800F042811D200280FD002280DD00D490E
:10F100004B68E206D20E01209040002B08D0620925
:10F1100092008B5803438B5004E00448401C10BD00
:10F1200005490860002010BD00ED00E0012000004E
:10F1300000E400E07020002000E100E0FFB5074699
:10F14000806A81B0144600283DD000253846203022
:10F15000009033E00C20B96A68430E18B088801C18
:10F16000FE2802D90C2005B0F0BD22880299401C6F
:10F17000885420881622401C80B2208002990A54AC
:10F180002088401C80B2208002994118308800F00D
:10F1900063FA2188401880B22080B288002A0AD001
:10F1A000B16800290FD0029BC018FBF7DDFF208853
:10F1B000B188401820806D1C0098EDB2007BA842F9
:10F1C000C8D80020CFE70720CDE7000070B504467F
:10F1D0001248134D018A2182818A618200780028B9
:10F1E00018D06879002815D100F0F4FA002811D061
:10F1F00028462030E0600220084920720420203197
:10F20000C870064800212030FEF7ECF8002804D131
:10F21000052000E00320A870002070BD70220020AF
:10F220000420002070B5044611480426018B218279
:10F23000818B618200780F4D002816D068790028F4
:10F2400013D100F0C7FA00280FD028462030E06024
:10F2500002202072064800212030C670FEF7C2F856
:10F26000002804D10620A87000E0AE70002070BD18
:10F27000702200200420002010B50020FEF760FC62
:10F28000002801D0FDF7C6FF3CDF002801D0FDF7C4
:10F29000C1FF10BD002803D00249C860002070479C
:10F2A0000E207047802000201CB50F49019100916D
:10F2B000694660DF0446009A019882420AD00B49F1
:10F2C0000220FFF7EFFCFFF77CFE0099421A08A12D
:10F2D000022004E0002C04D0224612A10120FFF7F6
:10F2E000E1FC20461CBD0000E81F002004010200D4
:10F2F0005344483A5741524E494E473A52414D20A5
:10F3000073697A652073686F756C6420626520612B
:10F31000646A757374656420746F20307825782072
:10F320000D0A00005344483A4552524F523A736412
:10F330005F626C655F656E61626C653A20657272D2
:10F340006F7220307825780D0A00000070B50E46E7
:10F350000546144614211046FBF71FFF012000212B
:10F3600020802161217326726572002D00D0A07269
:10F37000002070BD10B5FDF729FF10BDFFB581B0AD
:10F38000002901D0880702D0072005B0F0BD164D36
:10F390000124A9606A8000206B60FFF761FA060013
:10F3A00001D0124804600D20FFF75AFA070003D07D
:10F3B00001200E49400308600D49019810DF002824
:10F3C0000AD00A498039002F02D0012252030A6074
:10F3D000002EDAD00C60D8E72C70FFF7F1F9162078
:10F3E000FFF76AFED1E700008020002080E100E006
:10F3F00075F301000148007870470000802000206C
:10F4000010B5FEF7E9FD00F003F8FFF701F910BDB4
:10F4100010B5094C2068FDF79DFF002801D0FDF7CD
:10F42000F9FEFF21002249312068FDF74FFF002837
:10F4300001D0FDF7EFFE10BD70FB0100FEB51F4CC3
:10F440000025A768606802906846FEF799FD019064
:10F45000FEF78AFE06460198002822D00023009875
:10F46000616817E00E680A46864202D9301A0860C1
:10F4700012E0801BF31800261660D668D169B446E6
:10F48000002E07D0FE183602360A56606646966091
:10F49000D56115460029E5D128466160FEF7BAFE20
:10F4A00006E02846FEF7B6FE002801D1002E02D065
:10F4B0000298FEF795FC0020E070FEBD4C20002075
:10F4C00001200249000508607047000000E200E0EA
:10F4D00010B50E4B5968002906D002680C68A2428C
:10F4E00004D8A21A0A60C161586010BD0B4604E03E
:10F4F0000B46C969121B002904D00C689442F7D34B
:10F50000A41A0C600260C161D86110BD4C200020BB
:10F510007CB50D460646002469460C706846FDF72A
:10F520002DFF01A800F0D0F800280DD0057046602E
:10F53000684608490079487068460078FDF73CFF46
:10F54000FFF7BEFF20467CBD684604240078FDF727
:10F5500033FFF7E75C200020F8B51D4D6C68002CE8
:10F5600034D01C4800274068A968401A0602360AB1
:10F570002068B04218D8361AC7192246107CE469B0
:10F5800000280FD000201074EB68002B07D0916981
:10F5900050699847002805D0FDF73CFE02E051690C
:10F5A00090698847002CE3D129786878814206D198
:10F5B000401CC0B26870022801D100206870044964
:10F5C0000006800D18310F50FFF77AFFF8BD0000DC
:10F5D0004C2000200015014070B58EB005461C215E
:10F5E0006846FBF7DAFD694608780C21084369464E
:10F5F00008700024019403940494059406942878D8
:10F6000008A98870022069460884601C0007000F62
:10F6100010300794087711204877887FF921084037
:10F62000F721801C0840EF2108400126304369463D
:10F630008877142109A8FBF7B0FD08A8099007A84E
:10F640000A9069468E851420CC85088668882B1D13
:10F6500009AAA2DF0EB070BD0870000A487002202F
:10F660007047000038B51549154A488890420FD0B8
:10F670004A78144C521CD2B24A70237B934208D36E
:10F68000091D75DF002803D0A169002900D0884733
:10F6900038BD00254D70217C002907D03B2176DF45
:10F6A000002803D0A169002900D08847616900299A
:10F6B000EED068460570884738BD00003420002031
:10F6C000FFFF00003C24002010B509494B788C78DE
:10F6D0005A1CD2B2944200D100220C78944201D13B
:10F6E000002010BD0270486818214B43C01810BD9F
:10F6F0005C200020FFB583B016460C9D0D9C1F4674
:10F70000022200950194039800F00CF8002807D11C
:10F710003B461022314600950194039800F002F810
:10F7200007B0F0BDFFB583B0074600200C9C8646AD
:10F73000268805463AE07868A9004218118868468C
:10F7400081805188C1800022694601A865DF0028B8
:10F7500039D1684601780598814226D17046002843
:10F7600001D0002200E002222088891842180D9959
:10F770008A4227D8714600290AD1401C80B22080D5
:10F78000069A049911542088401C20800120864646
:10F79000218806980A18694601A865DF002812D159
:10F7A000694620880978401820806D1C3888A84256
:10F7B000C1DC704600280AD02088801B401E80B221
:10F7C000FF2802D90C2007B0F0BD0699885500200B
:10F7D000F9E7000004480179002902D1007B0028E4
:10F7E00000D0012070470000242000204100C00903
:10F7F0001B2250434140C8B270470000010000077F
:10F8000015161718111213140422002024220020A8
:10F810005022002011000300ADDA010012000300A5
:10F82000ADDA010013000300ADDA0100140003009B
:10F83000ADDA01001C2400209ECADC240EE5A9E0FC
:10F8400093F3A3B50000406E0000005000030000D9
:10F85000D8240020B4240020200000000100000073
:10F86000000000002900000001000000010000006D
:10F870000100000001000000010000000100000084
:10F8800001000000020000003031323334353637D9
:10F8900038394142434445460E0F0A0B0C00000123
:10F8A0000204050610110000000000000000000026
:10F8B000E1B6010075B6010055B7010071B601004F
:10F8C0000000000000000000000000000000000038
:10F8D000B401020003000000F8030200030000006E
:10F8E000B4020200030000007C03020003000000D9
:10F8F0006802020003000000F80302000300000099
:10F90000CC02020003000000EC0302000300000030
:10F91000B401020003000000F8030200030000002D
:10F92000B4020200030000007C0302000300000098
:10F930001802020003000000FC03020003000000A4
:10F940003803020003000000F80302000300000077
:10F950001403020003000000F8030200030000008B
:10F960000C02020003000000F80302000300000084
:10F970002402020003000000F8030200030000005C
:10F98000B402020003000000B803020003000000FC
:10F99000E402020003000000E40302000300000090
:10F9A0006001020003000000F803020003000000F1
:10F9B0004002020003000000F80302000300000000
:10F9C000C00202001E000000C00302000F00000081
:10F9D000B401020003000000F8030200030000006D
:10F9E000B4020200030000007C03020003000000D8
:10F9F000F002020003000000F80302000300000010
:10FA0000D801020003000000F80302000300000018
:10FA1000C001020003000000F80302000300000020
:10FA20003002020003000000F8030200030000009F
:10FA30002402020003000000F8030200030000009B
:10FA4000B402020003000000B8030200030000003B
:10FA50004002020003000000F8030200030000005F
:10FA6000C00202001E000000C00302000F000000E0
:10FA7000600302001E000000F80302000F000000F7
:10FA80005403020003000000100402000300000001
:10FA9000A401020003000000F803020003000000BC
:10FAA0007003020003000000F803020003000000DE
:10FAB00088020200030000009C0302000F00000007
:10FAC0005002020003000000F803020003000000DF
:10FAD000480102001E000000CC03020003000000E9
:10FAE00094020200030000008403020003000000EF
:10FAF0007C01020014000000A803020003000000C3
:10FB0000A4020200030000009003020002000000B3
:10FB1000FC0102000A000000D803020002000000FD
:10FB2000DC03020006000000F803020001000000F0
:10FB30005403020003000000100402000300000050
:10FB4000D802020004000000C80302000200000006
:10FB50004803020004000000F80302000200000055
:10FB6000000000000000000004040200000000008B
:10FB7000102F0020005EBCE2613FDD83C29C7E202E
:10FB8000A3FD1F419DC3217FFCA2401E5F01E3BD79
:10FB90003E6082DC23079FC1421CFEA0E1BF5D03E3
:10FBA00080DE3C62BEE0025CDF81633D7C22C09E61
:10FBB0001D43A1FF4618FAA427799BC584DA38664D
:10FBC000E5BB5907DB856739BAE406581947A5FB39
:10FBD0007826C49A653BD987045AB8E6A7F91B452D
:10FBE000C6987A24F8A6441A99C7257B3A6486D821
:10FBF0005B05E7B98CD2306EEDB3510F4E10F2AC0D
:10FC00002F7193CD114FADF3702ECC92D38D6F31F8
:10FC1000B2EC0E50AFF1134DCE90722C6D33D18FEC
:10FC20000C52B0EE326C8ED0530DEFB1F0AE4C12E0
:10FC300091CF2D73CA947628ABF517490856B4EACC
:10FC40006937D58B5709EBB536688AD495CB2977B8
:10FC5000F4AA4816E9B7550B88D6346A2B7597C9AC
:10FC60004A14F6A8742AC896154BA9F7B6E80A54A0
:10FC7000D7896B350000010002000100030001007C
:10FC80000200010004000100020001000300010065
:10FC90000200010005000100020001000300010054
:10FCA0000200010004000100020001000300010045
:10FCB0000200010006000100020001000300010033
:10FCC0000200010004000100020001000300010025
:10FCD0000200010005000100020001000300010014
:10FCE0000200010004000100020001000300010005
:10FCF00002000100070001000200010003000100F2
:10FD000002000100040001000200010003000100E4
:10FD100002000100050001000200010003000100D3
:10FD200002000100040001000200010003000100C4
:10FD300002000100060001000200010003000100B2
:10FD400002000100040001000200010003000100A4
:10FD50000200010005000100020001000300010093
:10FD60000200010004000100020001000300010084
:10FD700002000100637C777BF26B6FC53001672B5B
:10FD8000FED7AB76CA82C97DFA5947F0ADD4A2AF8F
:10FD90009CA472C0B7FD9326363FF7CC34A5E5F19D
:10FDA00071D8311504C723C31896059A071280E24B
:10FDB000EB27B27509832C1A1B6E5AA0523BD6B39F
:10FDC00029E32F8453D100ED20FCB15B6ACBBE390F
:10FDD0004A4C58CFD0EFAAFB434D338545F9027FFB
:10FDE000503C9FA851A3408F929D38F5BCB6DA21B4
:10FDF00010FFF3D2CD0C13EC5F974417C4A77E3DE0
:10FE0000645D197360814FDC222A908846EEB81435
:10FE1000DE5E0BDBE0323A0A4906245CC2D3AC62F8
:10FE20009195E479E7C8376D8DD54EA96C56F4EA03
:10FE3000657AAE08BA78252E1CA6B4C6E8DD741F14
:10FE40004BBD8B8A703EB5664803F60E613557B9D7
:10FE500086C11D9EE1F8981169D98E949B1E87E991
:10FE6000CE5528DF8CA1890DBFE6426841992D0F40
:10FE7000B054BB1652096AD53036A538BF40A39E90
:10FE800081F3D7FB7CE339829B2FFF87348E434479
:10FE9000C4DEE9CB547B9432A6C2233DEE4C950BD5
:10FEA00042FAC34E082EA16628D924B2765BA24935
:10FEB0006D8BD12572F8F66486689816D4A45CCC54
:10FEC0005D65B6926C704850FDEDB9DA5E15465727
:10FED000A78D9D8490D8AB008CBCD30AF7E458055D
:10FEE000B8B34506D02C1E8FCA3F0F02C1AFBD0369
:10FEF00001138A6B3A9111414F67DCEA97F2CFCE3A
:10FF0000F0B4E67396AC7422E7AD3585E2F937E8D4
:10FF10001C75DF6E47F11A711D29C5896FB7620E16
:10FF2000AA18BE1BFC563E4BC6D279209ADBC0FEF7
:10FF300078CD5AF41FDDA8338807C731B1121059A4
:10FF40002780EC5F60517FA919B54A0D2DE57A9F96
:10FF500093C99CEFA0E03B4DAE2AF5B0C8EBBB3C8B
:10FF600083539961172B047EBA77D626E16914630F
:10FF700055210C7D8D01020408102040801B366C39
:10FF8000D8AB4D9A2F5EBC63C697356AD4B37DFA61
:10FF9000EFC5913972E4D3BD61C29F254A9433669F
:10FFA000CC831D3A74E8CB8D0102040810204080F8
:10FFB0001B366CD8AB4D9A2F5EBC63C697356AD49E
:10FFC000B37DFAEFC5913972E4D3BD61C29F254A72
:10FFD000943366CC831D3A74E8CB8D01020408107B
:10FFE0002040801B366CD8AB4D9A2F5EBC63C69701
:10FFF000356AD4B37DFAEFC5913972E4D3BD61C2DD
:020000040002F8
:100000009F254A943366CC831D3A74E8CB8D010258
:100010000408102040801B366CD8AB4D9A2F5EBC74
:1000200063C697356AD4B37DFAEFC5913972E4D3CC
:10003000BD61C29F254A943366CC831D3A74E8CBD8
:100040008D01020408102040801B366CD8AB4D9AFD
:100050002F5EBC63C697356AD4B37DFAEFC591397C
:1000600072E4D3BD61C29F254A943366CC831D3AA6
:1000700074E8CB0040404040404040404041414156
:10008000414140404040404040404040404040406E
:100090004040404005020202020202020202020245
:1000A0000202020220202020202020202020020204
:1000B0000202020202909090909090101010101086
:1000C000101010101010101010101010101010023E
:1000D00002020202028888888888880808080808BE
:1000E0000808080808080808080808080808080296
:1000F00002020240740002004F766572666C6F77F0
:100100000D0A00005344483A5741524E494E473A6F
:1001100073645F626C655F656E61626C653A205204
:10012000414D2073746172742073686F756C642024
:1001300062652061646A757374656420746F203031
:100140007825780D0A00000041542B4D4950434159
:100150004C4C3D312C22434D4E4554220D0A00009B
:1001600041542B434744434F4E543D312C22495078
:10017000222C2263746E6574220D0A0041542B4DAB
:1001800049504F50454E3D312C2C223132302E37C4
:10019000372E3137342E313136222C393239322C48
:1001A000300D0A0041542B4E4D47533D33372C3010
:1001B000300D0A0041542B4346554E3D300D0A0088
:1001C00041542B4345445258533D302C352C30314B
:1001D00030310D0A0000000041542B4350534D5361
:1001E0003D312C2C2C30313030303031312C30310D
:1001F0003030303031310D0A0000000041542B4DB9
:10020000495053454E443D310D0A000041542B43A3
:100210004D45453D310D0A0041542B4347534E3D5A
:10022000310D0A0041542B4346554E3D310D0A0015
:1002300041542B4E50534D523D310D0A00000000E9
:1002400041542B43474154543D310D0A00000000F6
:1002500041542B47545345543D22495052464D5426
:10026000222C320D0A00000041542B4E4344503DD5
:100270003138302E3130312E3134372E3131352C6A
:10028000353638330D0A000041542B434752454759
:100290003F0D0A0041542B4D495043414C4C3F0DFA
:1002A0000A00000041542B4D49504F50454E3F0D20
:1002B0000A00000041542B4346554E3F0D0A0000F2
:1002C00041542B43474154543F0D0A0041542B4E97
:1002D00052420D0A0000000041542B434349440D93
:1002E0000A00000041542B4E434349440D0A0000CC
:1002F00041542B4E434F4E4649473D43454C4C5F7E
:10030000524553454C454354494F4E2C46414C535E
:10031000450D0A0041542B4E434F4E4649473D433D
:10032000454C4C5F524553454C454354494F4E2C28
:10033000545255450D0A000041542B4E435345413C
:100340005246434E0D0A000041542B4347534E0D75
:100350000A00000041542B4353510D0A00000000D5
:1003600041542B434750414444520D0A00000000C1
:1003700041542B4E514D47530D0A00004346554EF4
:100380003A3000002B4D495043414C4C3A2031004B
:100390002B4D49504F50454E3A2031002B43475288
:1003A00045473A20302C31002B4D49504F50454E97
:1003B0003A20312C310000004346554E3A310000BE
:1003C00043474154543A3100383938002B4D495095
:1003D00043414C4C3A0000003E000000444154416F
:1003E000000000004E434349440000005245424F84
:1003F0004F54494E470000004F4B00004347534EB7
:10040000000000002B4D49505254435000000000A2
:100410002B4353510000000038040200E81F002065
:100420002C01000044B301008404020014210020C8
:10043000FC160000A8CF01002114FFFF01023502C5
:1004400013DC2342205AFC0801480A27F8900811BF
:100450001A987623E8A923A1BB3D9E7D0378124517
:1004600088162114E9C9011455BD0114D9C4011A13
:1004700089041AB1041435BC011A9504041AB5C5CF
:04048000015324F40C
:040000050001B0C185
:00000001FF
