:020000040001F9
:10B0000018380020D5B00100EFB00100F1B0010008
:10B010000000000000000000000000000000000030
:10B02000000000000000000000000000F3B001007C
:10B030000000000000000000F5B00100F7B00100C2
:10B0400001C30100F9B0010025C80100F9B00100F9
:10B05000F9B0010000000000DDBA0100F9B0010004
:10B06000F9B00100F9B00100F9B00100F9B0010038
:10B07000F9B0010035C40100F9B00100F9B00100D8
:10B08000F9B0010095C40100F9B00100F9B0010068
:10B0900035C70100F9B001003DC70100F9B001005A
:10B0A000F9B00100F9B0010000000000000000004C
:10B0B0000000000000000000000000000000000090
:10B0C0000348854600F080F80048004799E00100F9
:10B0D000183800200321094802680A430260084822
:10B0E00002680A4302600748804707480047FEE7B6
:10B0F000FEE7FEE7FEE7FEE7FEE70000240500406E
:10B100005405004085C70100C1B0010030B50B46B1
:10B11000014600202022012409E00D46D5409D4231
:10B1200005D31D469540491B2546954040191546B7
:10B13000521E002DF1DC30BD70B5002425460028DC
:10B1400001DA01244042002901DA01254942FFF7D2
:10B15000DDFFAC4200D04042002C00D0494270BD1F
:10B1600003460B439B0703D009E008C9121F08C020
:10B17000042AFAD203E00B780370401C491C521ECB
:10B18000F9D27047D2B201E00270401C491EFBD2D6
:10B1900070470022F6E710B513460A4604461946E2
:10B1A000FFF7F0FF204610BD421C0178401C00292B
:10B1B000FBD1801A704703460A780270401C491C74
:10B1C000002AF9D118467047064C0125064E05E0C5
:10B1D000E36807CC2B430C3C98471034B442F7D3B8
:10B1E000FFF772FF50FF010070FF010070B58C186F
:10B1F0000578401C6B075B0F01D10378401C2A11B6
:10B2000006D10278401C03E006780E70401C491CF1
:10B210005B1EF9D12B0705D40023521E0DD40B70F1
:10B22000491CFAE70378401CCB1A921C03E01D78F6
:10B230000D70491C5B1C521EF9D5A142D8D30020C9
:10B2400070BD000070B50D4601461446104600F072
:10B2500079FB034830C000F033FF00F0FBFC70BD09
:10B260000821002010B50649002008704870887039
:10B27000C03188750121062001F070FA10BD000070
:10B28000F02B0020F8B5214D0746EA7B20A100F005
:10B29000DFFB002600280AD01F4804220178114352
:10B2A00001706E741DA1002001F05AF926E01749C3
:10B2B000EA7B6D39384600F0CBFB144CE03C0028AB
:10B2C00060791DD0022805D0032803D00F2801D0B3
:10B2D000102806D1142216A1384600F0B9FB002828
:10B2E00010D06079062801D00B2806D1412210A188
:10B2F000384600F0ADFB002804D06E740420F8BD81
:10B300000F2801D00220F8BD0020F8BDF02D00204C
:10B310004C69657264610000A2200020677072733E
:10B32000206D6F64656C2072656164790D0A0000A0
:10B330004F4B000010B50C46002806D000F0A0FBD3
:10B340002178012282401143217010BD10B5194AA5
:10B3500019491378002B06D0012802D11846FFF7AF
:10B36000E9FF012010BD5378002B09D09278002A04
:10B370001ED0012802D11046FFF7DCFF022010BDCD
:10B38000D278002A06D0012802D11046FFF7D2FF5A
:10B39000032010BD08480838017A002906D0002192
:10B3A000017206A1002001F0DBF801E00621017026
:10B3B000002010BD102D0020F82B00204576656E72
:10B3C00074206973204572726F72200D0A000000AC
:10B3D00010B50E4C6078E11CFFF7ACFF2146002051
:10B3E00060398875E27801231A43E2702070A070FA
:10B3F0000A466070C03A10728876087740318876C5
:10B40000C87688831E20C88310BD0000102D002040
:10B41000F8B504464578407A012832D0207A0428CD
:10B4200030D003282ED018488679F0212046FFF727
:10B43000B0FE01206072657000202072134FA6706C
:10B440002D01EE19307BE070B0887D21C9004843A2
:10B45000606020460A3000907959FFF7ACFE7859B9
:10B46000FFF7A2FE25466035A87320466F30B1680D
:10B47000FFF7A1FEA97B009802F036FFA078401CE0
:10B48000A070F8BD0026D0E7102D002024F60100A2
:10B490007047000070B5134882780D2A0FD2124908
:10B4A000124B8D5C1E7B01460024C031042E07D058
:10B4B0000122032E12D0072101701A715D7170BD37
:10B4C000521CD2B282700D2A05D3062202708470FB
:10B4D0000220087770BD0321017070BD0270847076
:10B4E0008C7670BDF02B0020D4F70100102D0020C9
:10B4F00070B512488478052C0FD2114903460D5DB2
:10B50000104900220E7BC033042E07D00124032EE5
:10B510000FD0072202704D710C7170BD641CE1B236
:10B520008170052902D30421017003E0022101701A
:10B5300070BD047082709A7670BD0000F02B002000
:10B54000F7F50100102D002030B5124881780A2946
:10B550000DD2114A0023545C104A157B042D07D0EC
:10B560000121032D10D0072303705471117130BDD8
:10B57000491CC9B281700A2903D303210170837069
:10B5800030BD0421017030BD017083700348603804
:10B59000837630BDF02B0020E1F70100102D002054
:10B5A000F8B504463048314D41882F46091941808D
:10B5B000A86A01212037A04204D3001BA862A04240
:10B5C00000D2397329488030028DA2420AD3121B5F
:10B5D00092B20285A24205D2803001740021062079
:10B5E00001F0BCF8224800268188A14202D3091B41
:10B5F000818000E08680C188091989B2C1800A294A
:10B6000005D30A39C1800121062001F0A7F81648A8
:10B610007D224188D200914224D34680E87E0028D2
:10B620000DD0A88B401C80B2A883E98B884206D33A
:10B63000AE830E49EE7678782231FFF77BFE0B4819
:10B640004038017F02290DD1817D01290AD1018B6A
:10B65000491C89B20183F02904D30683F8780421B8
:10B660000843F870F8BD000094200020F02C002062
:10B67000F02B0020F8B5144F00253D60134E144800
:10B680003446E0347573A27BE273A57325742146BA
:10B6900056390090FFF764FD042038600098FFF7EA
:10B6A000F1FD307302280DD0607C00280AD00128FB
:10B6B00007D10221062001F051F806A1002000F078
:10B6C0004FFF3573F8BD000000250040102D00200D
:10B6D000FD2B00205354415254204445434F4445D0
:10B6E0000D0A0000F0B57F4C85B02546E81D227894
:10B6F000F9300390403802907B48A9880078FB23FA
:10B70000019018400090A878FF35012600272135C8
:10B71000130001F0C2FA08264C7A8E94AAC90532A9
:10B72000287B002870D0022801D0012805D1A879F3
:10B73000E979884201D303202873607881006B483F
:10B740004158002902D067480D308847287B0428DB
:10B7500001D0032801D107206070039887626F73BE
:10B76000B8E0002950D10A21002809D001280FD0C3
:10B77000022816D002988776677002202070A8E011
:10B780005B4A0820D0608001D060A670A180A1E053
:10B79000574A082090600220A0705648A180067089
:10B7A00098E00120524940028860032029E00029E6
:10B7B00078D1002816D001281ED0029887766670AE
:10B7C0002770A770FFF704FE4B480178491CC9B2E7
:10B7D000017003297ED30770434808220178114382
:10B7E000017077E0012042494002C860A670C8207D
:10B7F000A080404807706DE001203D49400288600C
:10B800000220A07032202EE04CE0002902D00199E5
:10B81000490747D5002824D0A7803349009B0B70E7
:10B8200062700721217031492E71491F085C6871CF
:10B8300053E06270072121702E713049F6E700292C
:10B8400002D0019949072DD500280AD0A7802649A2
:10B85000009B0B7062700721217028492E710D31F9
:10B86000E4E72748A670A08034E00120FFF76EFDD2
:10B87000607200282ED0207A00282BD0A0780028D3
:10B8800000D126730399897E032901D3002807D0AC
:10B89000217861700721217014492E710839C5E79C
:10B8A0006670267005B0F0BD0020FFF74FFD002840
:10B8B00002D0A07A3043A072A07A00280AD000F00B
:10B8C000DFF8411D2170A17A8640B143A1720620A4
:10B8D0006070A77028790128E4D12F710948FFF71B
:10B8E00097FDDFE7F02B0020A2200020FCF50100EF
:10B8F00000050050CC20002094200020D4F7010047
:10B90000204E0000142D0020F0B50C4A00211268D2
:10B910000B4B944684006218002095008A00624414
:10B920002F18165CDF5D7E401654401CC0B2042800
:10B93000F6D3491CC9B20429EDD3F0BD082100207B
:10B94000642F002000228B5C8354521CD2B2102A38
:10B95000F9D37047F8B50546094F0A4E0CE03C5C38
:10B96000002C03D11021084801F0A6FE21462846EC
:10B9700002F0AEF8012802D0705D0028EFD1F8BDCA
:10B98000F0F80100FD200020542F002010B50E49D2
:10B990000A78002A0FD0012A10D0022A0AD14A7848
:10B9A000002A03D000228B1C1A804A700422C8216E
:10B9B00000F0DEFB10BD01F05FFF10BD01224A70F8
:10B9C00000227D21C900F3E7CC20002010B500F053
:10B9D00029FC0020044A01461154401CC0B208282A
:10B9E000FAD30248017010BDFD200020FC20002089
:10B9F000F8B505460B4F0C4E10E03C5C230001F0FF
:10BA00004CF902020507FFF735FE01E0FFF76AFE79
:10BA10002146284602F05CF8012802D0705D00281B
:10BA2000EBD1F8BDF0F80100FD20002010B5002298
:10BA3000064C03E003785340E25C401C0B46491E71
:10BA400089B2002BF6D1104610BD0000F0F70100BE
:10BA500070B500240B4605781E78B54205D15D7897
:10BA60005B1C002D02D1012070BD0B464578401CA7
:10BA7000002D03D0641CA4B29442ECD3002070BD0E
:10BA80000146002001231A4682400A4204D1401C8C
:10BA9000C0B20828F7D3FF20704710B5FFF796FF14
:10BAA00000F06EFE00F018F8FFF7DCFB012010BD7F
:10BAB00070B50446064E074D05E0315C204602F0A5
:10BAC00007F8012802D0285D0028F6D170BD0000DB
:10BAD000F0F80100FD20002070470000F0B50024C0
:10BAE000FF268BB00136012527460694304602F02A
:10BAF0008DFE002807D054484068284203D03046C5
:10BB000002F07CFE2C43361D6D007F1CB6B2042F64
:10BB1000ECD3FF257D35284602F078FE002809D0B9
:10BB2000284602F06BFE6807044306AA01210020A4
:10BB300002F050FE454D200714D001270026274271
:10BB40000CD04348B200111808690969C004C00E3E
:10BB50008903AA58890F002A00D090477F00761CDD
:10BB6000042EECD3002C6DDA00200890401E63E018
:10BB7000281940300778B906890E009100214156F6
:10BB8000491C49D009A9009802F06FFC002843D055
:10BB9000B8090190009801F093FF80002F58019898
:10BBA000002F02D0032802D00DE0032834D10098E2
:10BBB00008ABC20841079446985C490F01228A40AD
:10BBC00010436246985400980521090780004018E8
:10BBD000072109024018006806A98003800F02901F
:10BBE000009802F042FC0028029802D0022802D0FD
:10BBF00012E0032810D10198032808D102980228E6
:10BC00001ED00221009802F0C0FD761CF6B2002F73
:10BC100002D001990098B847641C042CA8D3002EC8
:10BC200010D06A460121002002F0D4FD0699009848
:10BC3000884207D00690089800263446099097E776
:10BC40000321DFE70BB0F0BD00630040702400204B
:10BC50000065004010B50A20FFF756FE092400F0E9
:10BC6000F9F900F015FA2046FFF74EFE00F00CF847
:10BC7000641E2406240EF2D100F0ECF900F008FA5C
:10BC80000020FFF741FE10BDF0B585B00020039005
:10BC90008400EF480068065D2018417802918178A1
:10BCA0000191C0780090304603F04EFC03F04CFC4C
:10BCB00003F04AFC03F048FC009803F045FC0198AF
:10BCC00003F042FC029803F03FFC03F03DFC0298B5
:10BCD00003F03AFC03F038FC03F036FC03F034FCCC
:10BCE000009803F031FC03F02FFC03F02DFC03F06F
:10BCF0002BFC009803F028FC03F026FC019803F0CD
:10BD000023FC03F021FC03F01FFC03F01DFC304674
:10BD100003F01AFC0546304603F016FC03F014FC51
:10BD20004540304603F010FC03F00EFC03F00CFC21
:10BD30004540029803F008FC029907464F40084628
:10BD400003F002FC03F000FC03F0FEFB47407D40E3
:10BD5000019803F0F9FB03F0F7FB019907464F4008
:10BD6000084603F0F1FB03F0EFFB03F0EDFB474067
:10BD70007D40009803F0E8FB03F0E6FB03F0E4FBF2
:10BD8000014600984140B2484D4000680555304694
:10BD900003F0DAFB009803F0D7FB019803F0D4FB23
:10BDA00003F0D2FB029803F0CFFB03F0CDFB03F0CE
:10BDB000CBFB03F0C9FB304603F0C6FB03F0C4FB2A
:10BDC00003F0C2FB03F0C0FB304603F0BDFB03F001
:10BDD000BBFB009803F0B8FB03F0B6FB03F0B4FB29
:10BDE00003F0B2FB019803F0AFFB03F0ADFB03F0EF
:10BDF000ABFB03F0A9FB304603F0A6FB03F0A4FB6A
:10BE000003F0A2FB05467540029803F09DFB074630
:10BE1000029803F099FB03F097FB4740029803F068
:10BE200093FB03F091FB03F08FFB47407D400198AB
:10BE300003F08AFB019907464F40084603F084FB54
:10BE400003F082FB03F080FB47407D40009803F045
:10BE50007BFB03F079FB07460098474003F074FB37
:10BE600003F072FB03F070FB474079487D400068A7
:10BE700020184570304603F067FB009803F064FB20
:10BE800003F062FB019803F05FFB03F05DFB03F03E
:10BE90005BFB03F059FB029803F056FB304603F0BE
:10BEA00053FB03F051FB03F04FFB03F04DFB0098F5
:10BEB00003F04AFB03F048FB03F046FB03F044FBAE
:10BEC000029803F041FB03F03FFB03F03DFB03F05E
:10BED0003BFB029803F038FB03F036FB304603F0DF
:10BEE00033FB03F031FB05467540304603F02CFB75
:10BEF00003F02AFB03F028FB4540029803F024FBE3
:10BF000003F022FB03F020FB0299484045400198D2
:10BF100003F01AFB0746019803F016FB03F014FB2D
:10BF20004740019803F010FB03F00EFB03F00CFBFD
:10BF300047407D40009803F007FB074600984740C4
:10BF400003F002FB03F000FB03F0FEFA4740404819
:10BF50007D40006820188570304603F0F5FA03F044
:10BF6000F3FA009803F0F0FA03F0EEFA03F0ECFABB
:10BF700003F0EAFA019803F0E7FA029803F0E4FA12
:10BF8000304603F0E1FA03F0DFFA03F0DDFA03F0E4
:10BF9000DBFA019803F0D8FA03F0D6FA03F0D4FAEA
:10BFA00003F0D2FA019803F0CFFA03F0CDFA029829
:10BFB00003F0CAFA03F0C8FA03F0C6FA03F0C4FAB1
:10BFC000304603F0C1FA05467540304603F0BCFA2E
:10BFD00003F0BAFA03F0B8FA4540029803F0B4FA55
:10BFE00003F0B2FA029906464E40084603F0ACFA56
:10BFF00003F0AAFA03F0A8FA46407540019803F04E
:10C00000A3FA03F0A1FA03F09FFA019948404540D2
:10C01000009803F099FA0646009803F095FA03F0A9
:10C0200093FA4640009803F08FFA03F08DFA03F07C
:10C030008BFA46400648754000682018C570039882
:10C04000401C0390042800DA22E605B0F0BD000091
:10C05000082100200D480068417B427A42734279F2
:10C0600042724278427141708178827A8270817224
:10C070008179827B82718173C178C279C270C27A00
:10C08000C271C27BC272C1737047000008210020D8
:10C0900030B50949094A0C68002000218B001B19A2
:10C0A0001D5C491C555DC9B21D540429F6D3401CC2
:10C0B000C0B20428F1D330BD08210020F0FA0100FD
:10C0C000F8B52749274B4A6800208100545C5C542E
:10C0D0008C18C91865784D70A5788D70E478401C6F
:10C0E000CC700428F1D337E0002182006D46141F84
:10C0F00066189E5D6E54491C0429F9D3810715D139
:10C100002F46BE782978FF78174C6D78BC46655D60
:10C11000A65D6F467E706746E65D6F46BE70615CE9
:10C12000F970124C8108615C4D403D70D418254671
:10C13000203D6E46297C3678714099546E46697C64
:10C14000727851406170AA7CB1784A40A270EA7C52
:10C15000F1784A40E270401C2C28C5D3F8BD00009D
:10C1600008210020642F0020F0F90100F0FB0100FD
:10C1700070B5154652060C4C160E2288101880B267
:10C18000208088420ED301F07FFB00202080002D0C
:10C1900008D0A178491CC9B2A170B14202D3A070E5
:10C1A000A11E087070BD0000CE20002070B50446AE
:10C1B000064E074D05E0315C204601F089FC012860
:10C1C00002D0285D0028F6D170BD0000F0F8010013
:10C1D000FD20002070B50446064E074D05E0315C99
:10C1E000204601F075FC012802D0285D0028F6D118
:10C1F00070BD0000F0F80100FD20002070B504467D
:10C20000064E074D05E0315C204601F061FC012837
:10C2100002D0285D0028F6D170BD0000F0F80100C2
:10C22000FD20002010B5002011498522920004460F
:10C230000C54401C80B29042FAD30E4900200C549A
:10C24000401C80B21028FAD309480BA1E430FEF755
:10C25000B2FF07480CA1DD30FEF7ADFF04480C49E2
:10C26000C030C1861E2101870121C176847610BDB0
:10C27000F02B0020042E00203132302E37372E31A3
:10C2800037342E3131360000636D696F7400000061
:10C290004C2400008307FF22DB0E9A408907090E19
:10C2A000994000280BDA0007000F08388308084877
:10C2B0009B001818C36993430B43C36170478308FD
:10C2C00004489B001B181868904308431860704787
:10C2D00000ED00E000E400E070B50446064E074DB6
:10C2E00005E0315C204601F0F3FB012802D0285D17
:10C2F0000028F6D170BD0000F0F80100FD200020FC
:10C30000F8B5FF20013002F0B8F8002401250E4EE8
:10C310000E4F002807D00E4804600120B0607D70E9
:10C32000002001F0EBFBFF20053002F0A6F800280A
:10C3300008D00748001D04600220B060BD700120D5
:10C3400001F0DCFBF8BD0000000300405C2400208D
:10C3500000010040F8B50C4601462B4800264088F5
:10C36000C31FFA3B01D0072108E0002A34D0274D33
:10C370006879A52806D0A02C2ED103E0204600F035
:10C38000FBFA3FE0A72C3DD014DCA22C3AD008DC0D
:10C39000012C14D0022C15D0A02C1AD0A12C1BD10A
:10C3A00030E0A32C2ED0A42C2CD0A52C2AD0A62C47
:10C3B00012D127E02046A83808280DD822E008230B
:10C3C00013A201E00F2314A20021204600F0DAFAA4
:10C3D00018E00978012901D00421CFE7A52811D060
:10C3E000114F002038730124102110480C3702F03F
:10C3F00043F9781C10220D49FEF7B2FE0C48047078
:10C40000A52068713046F8BD402F00209A200020FA
:10C410004856312E302E33005356312E312E302DCA
:10C420003138303830360000142E0020A62000208D
:10C43000982000201CB500246846047000F02CFEF3
:10C4400002F07AFE002818D10E480168002914D0A5
:10C450000D498968C907C90F0FD004600B4880686F
:10C460006946087101A90A4802F004FB084802F075
:10C47000EBFA002801D002F057F96846007800F086
:10C4800029FE1CBD00D1004000D3004000D5004073
:10C49000ACF5010010B506490020086048608860CE
:10C4A000C860034940390860486002F003FF10BDCE
:10C4B0004011014010B503480078002801D100F078
:10C4C0006DFA10BD782B0020F8B506460C481446CE
:10C4D00000780D46002801D100F060FA002368467C
:10C4E0000093037000F0D8FD22462946304600F044
:10C4F00009F804466846007800F0ECFD2046F8BDD7
:10C50000782B002070B50E46182148431349144675
:10C510004518E86A1835002804D001280FD00228F1
:10C5200005D113E0284600F06FFAA04201D20024A2
:10C5300011E022463146284600F091FB0BE02846E8
:10C5400000F062FAA042F4D20446F2E731462846EF
:10C5500000F055FB0446204670BD0000782B0020FB
:10C560000FB408B504A900916A46039900F004F8D5
:10C5700001B008BC04B01847F7B598B007A80290FE
:10C58000402000250495039018980C4605950690C8
:10C590002178641C002977D0252907D002A800F053
:10C5A0000FFB05980028F3DA1BB0F0BD0122002133
:10C5B000022713460826207823281BD02B2816D0C4
:10C5C0002D2802D0302806D101E0194300E039437C
:10C5D000641C002AEFD1002220780346303B0A2B4E
:10C5E0000AD20A235A431218303A641CF4E7042092
:10C5F0000143EDE73143EBE70023C7B22E2F0AD109
:10C60000641C20780746303F0A2F04D20A277B4358
:10C610001B18303BF4E76C280DD068280BD070282D
:10C6200052D00BDC25285AD058282ED063280CD0A5
:10C63000642858D110E02078641CECE7732832D0CD
:10C64000752817D078284ED11FE01A981A9A0068DA
:10C65000011D1160017843E01A981A9F0068061DB9
:10C660003E6000680191009201460A2202A800F093
:10C67000D6F938E01A981A9F0068061D3E600068D7
:10C68000009201910A2209E02FE01A981A9F00688F
:10C69000061D3E600068009201911022014602A82A
:10C6A00000F022FA1FE01A981A9A0068011D116022
:10C6B00006683178761C002915D002A800F080FAAF
:10C6C00005980028F5DA0EE01A981A9A00680823EF
:10C6D000011D11600168102200960195DFE72521F8
:10C6E00002A800F06DFA641C5BE70598002800DCE6
:10C6F0005AE70498002804D0024607A91898FFF7C3
:10C70000E3FE04990598401805904DE770B504467E
:10C71000064E074D05E0315C204601F0D9F90128AD
:10C7200002D0285D0028F6D170BD0000F0F80100AD
:10C73000FD20002010B502F02FFD10BD10B50648F9
:10C740004068002805D08047002801D000F0F0FBA9
:10C7500010BD01F039FB10BD8020002001231A46D6
:10C7600082408B4010B504490C7814430C70034987
:10C770000A5C1A430A5410BDFC200020FD20002052
:10C780007047000010B501F06DFB002805D01F496F
:10C790001D484860C8131E4988611E48018CC9B2F3
:10C7A00001290BD1828C120708D1028D1206120FBB
:10C7B000042A03D1828D1206120F0AD0012921D139
:10C7C000818C09071ED1018D0906090F0A2904D0A1
:10C7D00007E0114A01219160F5E7828D1206120FE0
:10C7E00005D00D290ED1808D0006000F0AD10B480F
:10C7F0000168012904D00A49016001680129FCD1BE
:10C80000C021416110BD0000DFFF07C000050040EE
:10C81000006C0040C00F00F00006004000EC064035
:10C8200075930000F8B52E4C01214902204602F014
:10C830009FF900252B4F0126002818D0FF21253114
:10C84000204602F090F9002811D0FF202530255015
:10C8500081202549800088603878002800D16660F2
:10C8600020480822001D01781143017028E00421AE
:10C87000204602F07DF9002822D0FF210931204610
:10C8800002F071F900281BD0FF200930255017480D
:10C890004673174882691549E031887B0B46563B41
:10C8A000C254887B401CC0B28873642800D38D7347
:10C8B0000E481421603001853878002800D1666068
:10C8C000FF214531204602F04EF9002806D0FF2016
:10C8D000453025503878002800D02660F8BD00008B
:10C8E00000200040D420002000230040102D002014
:10C8F0000025004030B51C4B002119600278811CD6
:10C90000140242782243194CA24227D10C78184ACB
:10C91000240254804D78254355808C781471CC784E
:10C9200054710C7994714C79D4718C791472CC79DE
:10C9300054720C7A09319472AA2C01D0552C0DD165
:10C940000C78D472491CD16061180C7814744A7840
:10C95000897812021143074A914201D0002030BD6C
:10C960001860012030BD0000B8200020A5F00000B4
:10C97000402F00200D160000014801737047000091
:10C98000142E002010B50448144601731A4621469F
:10C990000D30FEF7E5FB10BD142E002010B5124C33
:10C9A00002202061606111A0A0611348E0610120B4
:10C9B000400220620020A06260620CA1A1642146B6
:10C9C000E0621039E16410212165A0656065E065D1
:10C9D0000AA1E01DFEF7EFFB09A12046FEF7EBFBE5
:10C9E0002020A07110BD0000782B00205465726DCE
:10C9F000696E616C000000006829002052545400E8
:10CA000053454747455200000269C1688A4203D82E
:10CA10008068401A801800E0501A401E7047FFB529
:10CA200083B00E4670420D9F0C9C0090002900DBE5
:10CA30000846012502E0FEF77FFB6D1C0599884240
:10CA4000F9DA0698A84200D90546002C04D0002E39
:10CA500001DB780700D5641EB80702D506980028C8
:10CA600010D0F8070ED1002C0CD0A5420AD22021FC
:10CA7000641E039800F0A4F80398C0680028F2DA56
:10CA800007B0F0BD0398C0680028F9DB002E02DA79
:10CA90002D21009E02E0780707D52B21039800F096
:10CAA0008FF80398C0680028EADBB807800F0228D7
:10CAB00010D1069800280DD1002C0BD0A54209D228
:10CAC0003021641E039800F07BF80398C0680028AA
:10CAD000F2DAD5E7019700943146069B059A039850
:10CAE00000F002F8CCE70000FFB581B001261F4638
:10CAF00034460A9D029802E0FEF708FB641C039985
:10CB00008842F9D2A74200D93C460B98C00718D1F9
:10CB1000002D16D00B98800701D5002F02D02020C1
:10CB200000900CE03020FBE76D1E0099019800F0AA
:10CB300047F80198C06800283DDB002D01D0AC42C9
:10CB4000F2D30198C068002835DB012F01D97F1E80
:10CB500006E031460298FEF7D9FA0399884202D3DB
:10CB600003984643F1E7154F31460298FEF7CEFA97
:10CB70000146029A7143511A0291395C019800F002
:10CB80001FF80198C068002805DB30460399FEF7BE
:10CB9000BDFA0600E8D10B98C0070CD0002D0AD0D2
:10CBA000AC4208D220216D1E019800F009F80198CE
:10CBB000C0680028F2DA05B0F0BD0000E4F501001D
:10CBC00010B5044680686368421C934205D323680D
:10CBD0001954A260E068401CE060A268606882426C
:10CBE00009D121682069FFF76FFCA168884203D052
:10CBF0000020C043E06010BD0020A06010BDF7B56C
:10CC0000064682B000200090F46817463069A042C2
:10CC100001D9051B02E0B168201A0D1AB0686D1E1B
:10CC2000001BA84200D80546BD4200D33D467068AF
:10CC30002A4600190399FEF793FA00987F1B4019C2
:10CC400000900398641940190390B068A04200D185
:10CC50000024F460002FD9D1009805B0F0BDF7B5DD
:10CC6000C668174604468068851B6068BD4206D9C1
:10CC700080190199FEF774FAF019E060FEBD2A46AA
:10CC800080190199FEF76CFA01987E1B4119324612
:10CC90006068FEF765FAE660FEBD30B47446641E57
:10CCA0002578641CAB4200D21D46635D5B00E3182F
:10CCB00030BC184702E008C8121F08C1002AFAD188
:10CCC00070477047002001E001C1121F002AFBD10C
:10CCD00070470000202804DA012181400348014206
:10CCE00001D001207047002070470000FC06FFBC07
:10CCF000F7B584B0064600251788158020300290CD
:10CD0000407B1446002806D03A462146059800F09C
:10CD100027FC050009D1B078002823D00598864665
:10CD20002088001DB84202D90C2007B0F0BD68462B
:10CD300079DF0028F9D121880320724650542088D9
:10CD40001921401C80B22080115420887146401C5B
:10CD500080B2208041186846008802F02BFB2188B1
:10CD600040182080F078002817D0218803230A4635
:10CD7000F356C91C0598B942D6D80221815421889E
:10CD80000122491C89B2218042542188491C89B260
:10CD9000218043542088401C20807068002817D0D0
:10CDA00021880023C3560A46C91C0598B942BBD83E
:10CDB0000221815421880A22491C89B221804254CF
:10CDC0002188491C89B2218043542088401C20803E
:10CDD000308900280AD000943046019706220221AB
:10CDE0000830059B02F034FB05009ED1308A0028F4
:10CDF0000AD0009430460197072203211030059B8A
:10CE000002F026FB050090D1308B00280AD0009458
:10CE100030460197152214211830059B02F018FBAB
:10CE2000050082D1306A002806D03B46224605998B
:10CE300000F0CCFE0500D8D1706A002806D03B4631
:10CE40002246059901F01CFA0500CED10298007B1C
:10CE5000002807D03B4622463046059902F010F8DC
:10CE60000500C2D13078002807D03B462246304624
:10CE7000059901F0ABFA0500B7D1284655E7000047
:10CE8000174A0021535C002B01D0012203E0491C0A
:10CE90000629F7D300221349012806D002280BD017
:10CEA000032810D0042818D112E04878002803D0B5
:10CEB000002A01D0012070478878002803D0002A7A
:10CEC00001D002207047C878002801D003207047A5
:10CED0000879002801D00420704700207047000026
:10CEE0001D2000207422002009A1012001F056FD20
:10CEF00001F0A8FC01F0ACFC0028FBD100BEBFF3A0
:10CF00004F8F0A490848C860BFF34F8F00BFFDE745
:10CF10004150505F4552524F523A4552524F523A49
:10CF2000466174616C0D0A000400FA0500ED00E032
:10CF30000EB50021029000916A4601910148FFF769
:10CF4000D3FF0EBD01400000094B5B68002B07D0EA
:10CF5000002A07D0002805D00068037C002B03D0EE
:10CF600008207047072070474174426100207047D5
:10CF70005C200020FFB507469007002581B01E46C3
:10CF80001446002825D1002C23D001F0C5FE3046E0
:10CF9000114EF06030461030057045700299817076
:10CFA00044607560357001240C4875702405046078
:10CFB00003211420FFF76EF909480460094CA760AB
:10CFC00003211120FFF766F96068B060002005B00A
:10CFD000F0BD0720FBE700004C20002080E200E0CD
:10CFE00000E100E000150140FEB51F4B5B68002B1F
:10CFF00030D000282ED0052901D20720FEBD43697C
:10D00000002B27D0437C012B26D000270291044619
:10D010000025694616460D70684600F03DF801A8E7
:10D0200002F000FA002819D0012101700F49446074
:10D0300049688160029907614661C16068460A4992
:10D04000007948706846007800F044F802F0E6F88D
:10D050002846FEBD0820FEBD0F46D7E768460425DA
:10D06000007800F037F8F3E75C200020001501405D
:10D0700010B50849496800290AD0002808D041693C
:10D08000002905D000210174022102F0EFF810BD43
:10D09000082010BD5C20002030B5EFF3108172B67F
:10D0A000094A54680123002C04D00370002900D1E0
:10D0B00062B630BD5360054B1D68054C25401560B8
:10D0C0001C6000220270F1E77020002080E100E087
:10D0D000FC06FFBC08494A68002A0CD000280AD187
:10D0E000EFF3108072B60A68044B1A6000224A609F
:10D0F000002800D162B670477020002000E100E0F7
:10D10000F0B50C4693B01F216A4611800726002710
:10D110009180002809D0C17849070DD502A9FFF7F1
:10D12000E7FD002809D102AD01E000251780002CA1
:10D130000ED0E078002802D0304613B0F0BD01AA2E
:10D140000AA92046FFF7D4FD0028F6D10AAA02E07A
:10D1500068460022878068468088C3B26846008897
:10D16000C1B2284672DFE8E7FFB581B01E460A9FCC
:10D170001346040047D0002B45D0504D01202870A5
:10D180000020E870202219464D48FDF7E9FF0020F5
:10D190006F61C0432E612881284607211830FDF7B2
:10D1A000F8FF47483C212030FDF7F3FF4448217841
:10D1B00020300170A1788170E178C1706178417090
:10D1C0003F4A656923695563114613632031E3685B
:10D1D000A268CB608A603A49E369A269CB638A633B
:10D1E000616A00291AD001463C3102464832416248
:10D1F0008A60636A1B880B80616A436A89889980A8
:10D200000021436A07E00E2005B0F0BD656AAD68F5
:10D210006D5C5554491C9D888D42F7D8A16A002940
:10D220001CD0274A943211460C398A608162A36A65
:10D230009B888B80A16A836A098819800021836A90
:10D2400004E0A56AAD686D5C5554491C9D888D420B
:10D25000F7D82C210A5D1A4940310A73216A002946
:10D2600009D016490A310162226A52884A80216A2D
:10D27000026A098811806168002900D04160104A63
:10D280000E490020B3322031C3001B1A85009B18C1
:10D290000C68401C63510828F6DB094A0020EB3279
:10D2A000030185009B188C68401C63510828F7DB3C
:10D2B000034802992030FFF723FFA5E70420002050
:10D2C0007422002010B50188134C102915D01129A3
:10D2D00019D01B2910D1007A00280DD1E078052142
:10D2E000401CFDF713FF084600F018F8002803D093
:10D2F0006169002900D0884710BD817D0129FBD1DB
:10D300008088208110BD0021617180882189884238
:10D31000F8D10120E8E7000004200020F1B53F4CDF
:10D3200088B0207800280AD00898E07006A800F09D
:10D33000E9FC06980125002804D065706AE0082001
:10D3400009B0F0BD3548002707211830FDF721FF4F
:10D35000334E7078002802D0E078012807D0B078EA
:10D3600000280CD0E078012801D0022807D12169DB
:10D37000002903D025710820884700E0277108980C
:10D38000FFF77EFDE0702169002909D0032801D054
:10D39000042805D13078002802D06079002811D007
:10D3A000A77118216846FDF7F4FE684607700772FA
:10D3B000E1781A480B001830FFF76FFC052E080FB4
:10D3C000191D2000A57107208847EAE7A570019084
:10D3D000684605704782078213E00221A170019020
:10D3E00068460570B18941823189018209E0684649
:10D3F00001F08EFD02E0684601F0B6FDE0780028FD
:10D4000003D0684673DF00289AD12169002901D032
:10D41000A0788847002093E7A770F6E70420002053
:10D420007422002070B50E460546024607A1002072
:10D43000FFF796F8002406E0335D224608A100209D
:10D44000FFF78EF8641CAC42F6DB70BD646174615A
:10D45000206C656E677468203D2025640D0A00000D
:10D46000646174615F656E63727970745B25645D7D
:10D47000203D203078253032580D0A0070B5054621
:10D4800001461C220E48FDF76BFE0E4C002626704E
:10D490002968002906D00822201DFDF761FE201D05
:10D4A0007ADF02E00748001D7BDF002807D1401E1D
:10D4B00060806670044A00210448FFF745FD70BD96
:10D4C0004024002034200020C1F3010090F5010029
:10D4D000F8B5214C0146028800261E48E589102A2D
:10D4E00013D01E4F112A1FD0122A2BD0502A1AD126
:10D4F000881DC988A94216D14189022913D10C304F
:10D5000000F0D2F800280CD112E08A88044642804C
:10D51000104808220C301831FDF722FE6670002DED
:10D5200001D100F09BFBF8BD0021C943418046704A
:10D530003868FFF79DFD0028F5D0A1690029F2D0D9
:10D540008847F8BD034808220C300831FDF708FE73
:10D55000E7E70000342000204024002090F501007F
:10D560007CB5054608880C460930904201D90C204C
:10D570007CBD684671DF0028FAD1218808206854F4
:10D5800020881B21401C80B220802954208800A9BB
:10D59000401C80B22080401906220131FDF7E0FDD9
:10D5A00020886946801D80B220800978002900D03B
:10D5B000012129542088401C208000207CBD0000CF
:10D5C00010B50446FFF784FF2146054800F03EF8F9
:10D5D000204601F0E5FA2046FFF774FE10BD00007A
:10D5E000EC21002030B5184B0D4604000FCB85B060
:10D5F00003936B4607C324D0002D22D00020C043E4
:10D60000A0822868A0610020A0752146684663DFDB
:10D61000002814D121786846817401210182A21C5E
:10D6200004A90120A0DF002809D12946204601F0E5
:10D6300095FB002803D12946204601F07BFE05B06A
:10D6400030BD0E20FBE7000094F5010010B5002866
:10D650001BD0002919D00A88102A17D0112A17D0F8
:10D66000502A12D104468A1DC888238A1231984252
:10D6700002D15389022B0FD0A388984205D1A36908
:10D68000002B02D052892046984710BD898801E0BE
:10D690000021C943818210BD084600F005F800282A
:10D6A00000D00120A07510BD417802780802104317
:10D6B000C007C00F7047000010B5FFF71BF90B4CF7
:10D6C0000B48E17A00680C31FEF7B0F9217C884202
:10D6D0000AD1E06806490246091DFDF7B3FDE27A6A
:10D6E000617AE068FEF736FE10BD0000402F002092
:10D6F000B820002010B5144610220648FDF730FD72
:10D7000000210520FFF72AF802492046FFF78AFE8C
:10D7100010BD0000542F002005490B5C05494A68E4
:10D7200001209840034693438B601040C8607047C7
:10D730005CF501000005005010B50349085C0121AB
:10D7400001F03CF810BD00005CF5010010B5034984
:10D75000085C002101F032F810BD00005CF501000A
:10D760000549095C05484068C840C007C00F00D0A3
:10D7700001200121484070475CF501000005005080
:10D7800010B500242046FFF7D7FF641C042CF9D302
:10D7900010BD10B500242046FFF7D8FF641C042CF0
:10D7A000F9D310BD0246002010B5C043054B00213F
:10D7B0005C5C944201D1084610BD491C0429F7D392
:10D7C00010BD000060F50100F3B581B00D46019871
:10D7D000FFF7E8FF0446042813D21D481D4F1E4ED4
:10D7E000002D27D0012D0DD0022D0AD16000201868
:10D7F000C0194578002D04D0F168002901D02846D1
:10D800008847FEBD610061187D5CCF1979780029D9
:10D810000BD071680A2251430F4A8068921CFFF7AF
:10D82000E3FB002801D10198B0700B48B9781030A3
:10D830000155DFE78068FFF71BFC074861006118AE
:10D840001030C919005D8D78A842D3D0FEBD00000C
:10D8500064F5010048220020F01F002010B5054AA1
:10D860000146127A0020D20702D0084600F018F8CC
:10D8700010BD0000F01F0020FF2002490130C860E9
:10D88000704700000005005004494A68FF2001303D
:10D89000034693438B601040C860704700050050FA
:10D8A000F8B55D4C054660780026002803D00020BE
:10D8B0006070FFF765FF0120584F2B00FFF7EDF96F
:10D8C00018970D0D2E3D4A5F64686F686FA97777D2
:10D8D000777777979A9DA0A9A9950020FFF740FF39
:10D8E00000280AD00020FFF727FF022D02D1E120F7
:10D8F000C0000BE07D20400108E00020FFF726FF7C
:10D90000022D01D1C82001E0FF2091302570642153
:10D91000FDF7FCFB6168414300222BE00020FFF78C
:10D920001FFF002805D00020FFF706FF1920400147
:10D93000ECE70020FFF70AFFE4E70020FFF710FF05
:10D94000002803D00020FFF7F7FED3E70020FFF701
:10D95000FDFED9E70020FFF703FF002803D00020D9
:10D96000FFF7EAFE02E00020FFF7F0FE2570606896
:10D97000410000223868FFF737FB064635E00020FB
:10D98000FFF7CAFE257007E000203FE025702CE07D
:10D9900060700120FFF7C0FE00226168EAE7607056
:10D9A0000120FFF7B9FE606881004118E1E778685F
:10D9B000FFF75EFB06461120401B01D0002E03D06E
:10D9C0000220FFF7B9FE10E001280BD9C821484317
:10D9D0006421FDF79BFB6168002241437868FFF7F3
:10D9E00003FB06460220FFF7B1FE3046F8BDFFF705
:10D9F000C7FECBE7FFF7C4FEC6E7FFF7C1FE04E0B2
:10DA0000FFF7BEFE0020FFF7A1FE0120FFF79EFEFC
:10DA1000BCE7FFF7BEFEB9E7F01F002064F5010088
:10DA2000F8B50D46461C002069460870012468467A
:10DA3000FFF732FB134A106828601168506893683A
:10DA4000081A1D1A701C6D1CA84212D9002D0ED088
:10DA50000D480E4C0088246880051940800DA402F2
:10DA6000890020438918C8601068401C1060002499
:10DA700001E08819106068460078FFF72BFB20460C
:10DA8000F8BD000050250020C0F501007C200020DA
:10DA9000034803C8814201D101207047002070472C
:10DAA000502500200022D243830004490428CA5094
:10DAB00002D308182030027770470000702400203D
:10DAC00002490918202008567047000070240020E1
:10DAD00030B5084C0122235C15468D40AB432354DE
:10DAE00001D0002030BD824003480178914301708D
:10DAF000012030BDFD200020FC20002070B5084C26
:10DB0000050009D010342168002907D0086820607A
:10DB1000496828468847F6E70834F4E770BD0000F6
:10DB20005C240020F8B52348416800293ED00E68E7
:10DB300021494C6887688078E11B0D022D0AED1C95
:10DB4000002814D101201D4A000450601B4A403AAD
:10DB500050601B49400008601A4908601A490120BA
:10DB600008602F2000F092FC124901208870B54215
:10DB700000D23546E81900020F4B000A4033186006
:10DB80000D4A5168001B091B0902090A0002000A1C
:10DB9000C91C814209D9506818602F2000F076FC1A
:10DBA00001200749400480390860F8BD01F0B4F84D
:10DBB000F8BD00004C20002000150140401301403A
:10DBC00080E200E000E100E000100140F8B5064608
:10DBD000108814468446801D0D46984201D90C20B9
:10DBE000F8BD32880720062AFAD31927FF01184BFF
:10DBF000BA4201D99A42F3D171880629F0D3B942C9
:10DC000001D99942ECD19A4203D0994201D08A427B
:10DC1000E6D805216046295420881221401C80B294
:10DC2000208029542088401C80B2208041193088EF
:10DC300001F0C0FB2188401880B220804119708813
:10DC400001F0B8FB2188401820800020F8BD0000BA
:10DC5000FFFF000010B5FFF76BF910BDF8B51648CF
:10DC600000F0F2F8144D00260C3D144C002807D0AB
:10DC7000616900291CD001206A461070684616E0D0
:10DC80002878002805D06169002911D068460670FF
:10DC90000DE0687800280DD0A168094800220068CE
:10DCA000FFF7A2F9002803D0A169002900D0884716
:10DCB0002E70F8BD6168F0E740200020402400206D
:10DCC00090F5010010B50E4900230A784C78A24265
:10DCD00012D0521CD2B20A70022A00D10B700A78FC
:10DCE000074B920018339A58026088681018000297
:10DCF000000A8860012010BD0360002010BD0000F4
:10DD00004C200020002804D00349496E0160002007
:10DD10007047032070470000E824002010B5054A32
:10DD200001210548FFF710F9002801D0FFF700F99D
:10DD300010BD000015E00100ECF7010002480021D1
:10DD400041708170C1707047D420002010B500F080
:10DD50003BFC082000F00FFDFF201A4901308860CD
:10DD60000021012000F0FEFC022000F004FD022052
:10DD700000F01CFD0021042000F0F4FC042000F061
:10DD8000FAFC042000F012FD052000F0F4FC052050
:10DD900000F00CFD0021062000F0E4FC072000F05C
:10DDA000EAFC072000F002FD032000F0E4FC032061
:10DDB00000F0FCFC092000F0DEFC092000F0F6FC7D
:10DDC00010BD000000050050F8B51E4C207800285A
:10DDD00036D0E068002600280CD0002560780028A6
:10DDE0002ED1684652DF052806D0002806D0FFF75E
:10DDF0009FF80BE00125F1E7012607E0009800F00D
:10DE00009BFB2169002901D000988847002D13D180
:10DE10006078002814D1608869460880A06861DFB6
:10DE2000052804D0002804D0FFF782F804E001257B
:10DE300002E0E168A0688847002ECFD0002DE5D031
:10DE4000F8BD0000802000204188054802889142EA
:10DE500004D34088814201D80120704700207047D8
:10DE6000382000201048018CC9B2012917D1818CBB
:10DE7000090714D1018D09060A0F03D1828D1206FC
:10DE8000120F0ED0090F012903D1828D1206120F35
:10DE900007D0032903D1808D0006000F01D0002098
:10DEA0007047012070470000C00F00F0F0B5284C0B
:10DEB0002146103948688B68227886469C46CF7880
:10DEC000667836E0182353436168521CC918A3785A
:10DED000D2B2934200D100220B78022B02D0032B46
:10DEE00027D123E003464D68194603E0A94204D038
:10DEF0000B46C96900291CD0F8E7002919D08B42CC
:10DF000008D1C069002805D1124F0125BD60002548
:10DF1000AC4601270D68C969D961002909D00B6891
:10DF20005B190B6005E00174C06900E00021002866
:10DF3000F9D19642C6D10649624610398A604860D6
:10DF4000CF70704501D00120F0BD0020F0BD000071
:10DF50005C20002000100140F8B52C4E044670688B
:10DF60000025009041E0002C02D02046E46920E02A
:10DF7000264818231030017842684B43491CC9B227
:10DF8000D21801708378994200D1057011785068D9
:10DF900001292CD1017C002929D191684160D168E7
:10DFA00081601169C16051698161F178002900D0F7
:10DFB00045604368B268164F991A0902090AB942C6
:10DFC00002D28268891806E0D11A09028268090A19
:10DFD0008A4202D9511A016000E0056045600121C2
:10DFE00085600174C56101F021F9002CBBD107489F
:10DFF0001030017840788142BAD17168009881422E
:10E0000001D00120F8BD0020F8BD00004C20002008
:10E01000FFFF7F0070B51D4D1D4C2888401C2880D7
:10E020002078000702D40A20FDF7BAFA0A20FDF78B
:10E03000ADFC2888642828D300262E802078154D32
:10E04000C10701D1810713D5E988491CE980E98816
:10E05000B4290DD3EE80C00703D000210420FEF7C1
:10E060007DFB2078800703D501210420FEF776FB95
:10E070002078010709D52989491C2981298978290E
:10E0800003D32E81F7210840207070BDA42000200A
:10E09000A2200020342F00200023A8B0634A0521CD
:10E0A0001846FEF767FF002801D0FEF741FFFEF794
:10E0B00001FA5FA10020FEF753FA61485B4900684E
:10E0C0000590002348225C3905A800F0F9FF0028DC
:10E0D00001D0FEF72DFF6A460121002000F0D8FF95
:10E0E000002801D0FEF724FF684600F07FFF0028DB
:10E0F00001D0FEF71DFF534800F06EFF002801D04D
:10E10000FEF716FFFFF722FE01F01CF8112069460A
:10E11000087207224CA102A87CDF002801D0FEF77C
:10E1200007FF0024009410216846019401803C21DF
:10E130004180FF2184809131C1807ADF002801D0A5
:10E14000FEF7F6FE42480090384869467830FFF7FF
:10E1500049FA002801D0FEF7EBFE3C2101A8FDF7AB
:10E1600018F802216846017184710521C1713C21B2
:10E1700010A8FDF70EF8012510A805823548159066
:10E1800020211FA8FDF705F818A8C57719208001E0
:10E190002390B4202490304B1FAA10A9009401A80A
:10E1A000FEF7E2FF002801D0FEF7C2FE1C21684600
:10E1B000FCF7EFFF0520C00301900F200004029040
:10E1C0000094032168460173C481047423480590B8
:10E1D000234806906846FFF751F9002801D0FEF762
:10E1E000A7FE002000F01EFA002801D0FEF7A0FED6
:10E1F0000320FFF793F8002801D0FEF799FE19A13C
:10E200000020FEF7ADF9FDF748FC1A4C1A4D1B4EE5
:10E2100003E0285C81007158884720780028F8D1F5
:10E2200048DF0028F9D0FEF783FEF6E774210020CE
:10E230004D61696E205374617274210D0A000000F3
:10E2400058F50100C1D50100414E47554D454E00DE
:10E25000F5D60100EC1F002081EB010071EC0100FC
:10E2600055DC0100416476205374617274210D0AFB
:10E2700000000000FC200020F0F80100DC2000205D
:10E2800070B5144682880E4605462088111D411837
:10E29000921C994201D8FE2A01D90C2070BD521C53
:10E2A00032542088FF21401C80B2208031542088C5
:10E2B000401C80B220808119288801F07BF82188D9
:10E2C000401880B22080AA88002A09D0A9680029B5
:10E2D00008D08019FCF744FF2088A98840182080C6
:10E2E000002070BD072070BDF3B581B00E0029D0AD
:10E2F00015490878002825D0FF20144C1D30002235
:10E3000022500127A760154619E00F4A107800280F
:10E3100017D0FF211D31002060500198435D0C484B
:10E32000C36103E008480078002806D0FF211D31B2
:10E33000204600F018FC0028F4D06D1CEDB2B54268
:10E34000E3D3E760FEBD0000D420002000200040A1
:10E3500000250040F8B5174F3878002828D1FFF77E
:10E36000EDFC174E1448154D70620024F46607202A
:10E3700006217161F060FF201D302C501149802072
:10E380008860FF2009302C50FF2045302C500E486B
:10E3900048600321022000F0D5F8FF2025302C50E2
:10E3A000FF2009302C500120387004213160286092
:10E3B000F8BD0000D42000200050270000200040BD
:10E3C000002500400023004004000200F8B50F467D
:10E3D000017814460546012902D16878002806D044
:10E3E0002088821C9A422DD8012902D006E00720FD
:10E3F000F8BD69784118891C994223D8181A801EE3
:10E4000086B2684606802188B81C081869467DDFF8
:10E410000028EDD12878022805D169460988B14243
:10E4200001D809210AE00821012805D16878B04205
:10E4300002D86A46108001E0684606806846008877
:10E44000FE2801D90C20F8BD2288401CB854208831
:10E45000401C80B22080395420886946401C2080AE
:10E460000988401820800020F8BDC20843075B0FD0
:10E470000120895C984008407047012189074018B5
:10E480000068002800D001207047000000280FD04D
:10E490000849094A096800BF00BF00BF00BF00BFAC
:10E4A00000BF00BF00BF914200D000BF0138F2D1D1
:10E4B00070470000142100200024F40070B50E4CB9
:10E4C00000252078002801D0852513E00021A160D7
:10E4D00061602161E160094800680126304002D195
:10E4E000032100F02FF800F027FE002801D1044896
:10E4F00086612670284670BD5C24002000E100E0A3
:10E500000005004038B50020694608706846FEF7EF
:10E51000C3FD084C2078002801D1FFF7CFFFE06849
:10E52000401CE0600120A07068460078FEF7D2FD34
:10E5300038BD00005C24002010B5002801D1FFF791
:10E54000DDFA10BD8207D30EFF229A408907090E1B
:10E5500010B5994000280BDA03071B0F083B9C08F5
:10E560000C4BA400E318DC6994430C43DC6107E026
:10E570008408094BA400E418236893430B432360E9
:10E58000C106C90E0120884004490860044908609A
:10E5900010BD000000ED00E000E400E080E200E0DB
:10E5A00000E100E04109074A890089180968C206AC
:10E5B000D20E01209040014201D00120704700207E
:10E5C0007047000000E100E070B5144D2879002884
:10E5D00001D0082070BD114900204039421E0B189F
:10E5E0002033401CC0B21A702028F8D300242046E3
:10E5F000FFF758FA641CE4B2082CF8D30321062074
:10E60000FFF7A0FFFF207D3000F0F8F8012004495B
:10E61000C007486001202871002070BDB024002090
:10E620000063004038B5124C2178002901D08520C4
:10E6300038BD002800D10F480D4902784A70407853
:10E6400088700020694608706846FEF725FD00F0D6
:10E6500073FD002803D100F03DF800F055F868463E
:10E660000078FEF737FD01202070002038BD000043
:10E6700048200020A8F50100F3B5144E81B00F46E4
:10E68000002568460570FEF707FD00F055FD0028DF
:10E690000BD068460078FEF71DFD394601983ADF39
:10E6A0000446B0420DD105240DE03A4608480199D0
:10E6B00000F038FA044600F027F868460078FEF7C4
:10E6C00009FD022CDDD02046FEBD00000720000021
:10E6D000ACF5010010B509484178002904D008497B
:10E6E0004A6801231A434A6006490A6852085200E0
:10E6F0000A6081780D20FFF725FF10BD482000201B
:10E7000000D5004000D20040054A002003491060B7
:10E71000044A0120506008607047000000D00040AB
:10E7200000D1004000D30040024901208860024926
:10E730000860704700D3004004D0004070B552001C
:10E740000A439900049D0A432902059E0A433104A5
:10E7500005240A43240780000721001909024018F4
:10E76000026070BD1CB500220B460092114601925A
:10E77000FFF7E4FF1CBD1CB5002100910B460122F0
:10E7800001911146FFF7DAFF1CBD05221207800038
:10E790008218072000021018026803231B049A4302
:10E7A0000260026809040A43026070470121814047
:10E7B0000148C160704700000005005001228240FE
:10E7C0000348002901D082607047C2607047000092
:10E7D0000005005038B5084B05241B68009324023F
:10E7E0006B46411805E085005D592D192D69401CC7
:10E7F00020C28142F7D838BDA4F501000249401873
:10E80000002101607047000000600040034940188B
:10E810000068012800D00020704700000060004020
:10E8200070B5074D04462878002802D068788442E5
:10E8300004D0FDF73FFE012028706C70002070BDF1
:10E840007820002010B50120FFF7EAFF10BD00007E
:10E85000F0B595B0FFF71CF9002802D0002015B0E4
:10E86000F0BD4B484468866821463140890009184C
:10E870000C94CD680BE02904A80D890D40180419EB
:10E8800020463040810042480C940818C568641C3A
:10E89000A807F0D000200890A807800F3D4B022861
:10E8A00007D0AA0AA805000F84460EA996460020A4
:10E8B00059E02046304081003548641C0818C06883
:10E8C000049486462804800D84463440301B800022
:10E8D000AF0D001D874222D92D490C31002807D0E9
:10E8E0002B4AA400A21814460C34C2B2381A03E012
:10E8F0000C460021FAB20846C0B203900192029180
:10E900000094A8065C69400F634672460899A047C8
:10E91000B84213D1FF1C0498B9080C1830E01C4809
:10E92000A200101800210C30009002910197039171
:10E93000A8065C69400F63467246E8E71649800501
:10E940000D40000C05430C98304081001048081819
:10E95000C56017E027463740BA000D4F401CD71955
:10E96000FF68641C80C167466045F3D3A806009722
:10E970001D69400F0EAB72460899A847002801D0C8
:10E9800003484460FFF784F80121484067E700002E
:10E9900050250020502900203F00FFFFF8B5104D02
:10E9A0000E46074600206946AC68FFF739F8002894
:10E9B00015D00C483C21808888437907890E08438C
:10E9C0000F21890188438105890DB0020143009818
:10E9D0000246224092005219401CD1600090F8BDBE
:10E9E00050250020C0F50100F7B5154C82B00E4649
:10E9F000074601206946A568FFF712F800281CD0D9
:10EA000010483C21008988437907890E08430F216B
:10EA100089018843402108438105890DB0020143E3
:10EA2000009802462A4092001219D160401C0090C2
:10EA30002840800000190499C16005B0F0BD0000B5
:10EA400050250020C0F50100016880684A688242B4
:10EA500001D2521C00E000220868824201D101204C
:10EA60007047002070478068884201D9481C704771
:10EA700000207047FEB504460E460020694601900E
:10EA800008706846FEF708FB2046FFF7DDFF070029
:10EA90000AD0207C002807D0042001906846007826
:10EAA000FEF718FB0198FEBD2068416820460D4620
:10EAB000FFF7D9FF2168002F486006D02068016861
:10EAC0002046FFF7D0FF21680860E268012A15D0D0
:10EAD000022A17D0042A1AD0082A1DD010466168CD
:10EAE000684308183146FCF73BFB204600F000F96C
:10EAF00021688A688242D1D28860CFE76168307825
:10EB00004855F2E7616830886A008852EDE761682D
:10EB10003068AA008850E8E7626803CEEB00D2189C
:10EB200003C2E2E7F8B5002415460E460746002A60
:10EB300010D00020694608706846FEF7ADFA3846E6
:10EB400000F0D6F8A84207D32A463146384600F0EE
:10EB50009FF802E00020F8BD052468460078FEF723
:10EB6000B9FA2046F8BD4058002800D0012070476F
:10EB70000322120280184068084000D0012070472C
:10EB800010B5002809D0032806D10220FEF766FE42
:10EB9000002801D0FEF7CCF910BD00F00FFA10BD2F
:10EBA00070B50446314D00886E8888B03A2838D058
:10EBB0000DDC022839D0102813D011281AD01328C0
:10EBC00022D100231A46852130467FDF26E05128D6
:10EBD0002FD052281DD0552816D1A088132176DFBA
:10EBE0001CE00720FEF73AFE002801D0FEF7A0F94E
:10EBF000A08808E00020FEF731FE002801D0FEF7D3
:10EC000097F90020C043688008B070BDFEF790F906
:10EC1000FAE700231A4619463046A9DF0028F5D145
:10EC2000F2E7A088132176DFF8E7A088002167DFEC
:10EC3000F4E71022A11D04A8FCF792FA6846017CB3
:10EC40000029E1D0007E042803D0062801D0052841
:10EC5000DAD1022908D0012069460870FF208330EC
:10EC60008880A088A8DFD9E70220F5E7E81F002008
:10EC700010B50078002807D104483B21408876DF92
:10EC8000002801D0FEF754F910BD0000E81F002055
:10EC9000F7B50168044603C91646884201D80D1A23
:10ECA00002E0A1680D1A6D1CE268616850434118CA
:10ECB000AE420CD872430198FCF752FA2168A26860
:10ECC00008688019904200D900200860FEBD1746F0
:10ECD0006F433A460198FCF743FAE2680198751BC6
:10ECE0006A436168C019FCF73BFA20680560FEBD05
:10ECF000016806C98A4201D3501A70478068401AD9
:10ED0000401C80187047012252075110886B496BD4
:10ED1000414388187047000070B501240B49600416
:10ED200008600B4940108860094940398860094DE6
:10ED30006C602F20FFF7AAFBAC60074D00242F204A
:10ED4000AC60FFF7A3FBAC7070BD000080E100E099
:10ED500040130140001001404C20002070B50024F9
:10ED60000546601C90B00007000F08A910300894F9
:10ED70000870601C0007000F103048708878F92672
:10ED80003040801C88701C2101A8FCF702FA6946FB
:10ED900008791021084369460871029408A8049470
:10EDA000059407940690287808A98871032069467D
:10EDB000888411200094087048708878F7213040CA
:10EDC000801C0840EF2108400126304369468870C6
:10EDD00014210AA8FCF7DDF909A80A9068460B90EF
:10EDE00069460E8614204C8688862B4668880C332C
:10EDF0000AAA01A9A2DF10B070BD000010B5044638
:10EE0000FDF768FF00280CD0A007C00E002C0ADA1E
:10EE10002107090F08398908144A89008918C96926
:10EE200006E0134810BDA108124A89008918096834
:10EE3000C1400806800F042811D200280FD00228F4
:10EE40000DD00D494B68E206D20E01209040002BF8
:10EE500008D0620992008B5803438B5004E00448A9
:10EE6000401C10BD05490860002010BD00ED00E009
:10EE70000120000000E400E07020002000E100E03C
:10EE8000FFB50746806A81B0144600283DD00025B2
:10EE900038462030009033E00C20B96A68430E18E1
:10EEA000B088801CFE2802D90C2005B0F0BD228855
:10EEB0000299401C885420881622401C80B2208071
:10EEC00002990A542088401C80B22080029941187F
:10EED000308800F06FFA2188401880B22080B28814
:10EEE000002A0AD0B16800290FD0029BC018FCF795
:10EEF00037F92088B188401820806D1C0098EDB249
:10EF0000007BA842C8D80020CFE70720CDE700004B
:10EF100070B504461248134D018A2182818A6182AC
:10EF20000078002818D06879002815D100F000FB7F
:10EF3000002811D028462030E060022008492072C5
:10EF400004202031C870064800212030FEF7D8F890
:10EF5000002804D1052000E00320A870002070BD27
:10EF6000742200200420002070B5044611480426B5
:10EF7000018B2182818B618200780F4D002816D091
:10EF80006879002813D100F0D3FA00280FD0284662
:10EF90002030E06002202072064800212030C67038
:10EFA000FEF7AEF8002804D10620A87000E0AE708D
:10EFB000002070BD742200200420002010B5002025
:10EFC000FEF74CFC002801D0FDF7B2FF3CDF002823
:10EFD00001D0FDF7ADFF10BD002803D00249C86085
:10EFE000002070470E207047802000201CB50F497C
:10EFF00001910091694660DF0446009A01988242BF
:10F000000AD00B490220FFF7EFFCFFF77CFE0099C6
:10F01000421A08A1022004E0002C04D0224612A1CA
:10F020000120FFF7E1FC20461CBD0000E81F002086
:10F03000FCFC01005344483A5741524E494E473A6E
:10F0400052414D2073697A652073686F756C642036
:10F0500062652061646A757374656420746F203022
:10F06000782578200D0A00005344483A4552524F03
:10F07000523A73645F626C655F656E61626C653A9B
:10F08000206572726F7220307825780D0A000000BA
:10F0900070B50E460546144614211046FCF779F863
:10F0A0000120002120802161217326726572002DCC
:10F0B00000D0A072002070BD10B5FDF715FF10BD87
:10F0C000FFB581B0002901D0880702D0072005B024
:10F0D000F0BD164D0124A9606A8000206B60FFF727
:10F0E00061FA060001D0124804600D20FFF75AFAB9
:10F0F000070003D001200E49400308600D49019824
:10F1000010DF00280AD00A498039002F02D00122DE
:10F1100052030A60002EDAD00C60D8E72C70FFF79B
:10F12000F1F91620FFF76AFED1E7000080200020E9
:10F1300080E100E0B9F0010001480078704700006C
:10F140008020002010B5FEF7E9FD00F00FF803A1C4
:10F150000020FDF705FAFFF7FDF810BD55415254A8
:10F16000205374617274210D0A00000010B5094C1F
:10F170002068FDF77DFF002801D0FDF7D9FEFF21B3
:10F18000002249312068FDF72FFF002801D0FDF74C
:10F19000CFFE10BDECF70100FEB51F4C0025A7689F
:10F1A000606802906846FEF78DFD0190FEF77EFED6
:10F1B00006460198002822D000230098616817E0D5
:10F1C0000E680A46864202D9301A086012E0801B97
:10F1D000F31800261660D668D169B446002E07D011
:10F1E000FE183602360A566066469660D5611546A8
:10F1F0000029E5D128466160FEF7AEFE06E028460C
:10F20000FEF7AAFE002801D1002E02D00298FEF7D8
:10F2100089FC0020E070FEBD4C2000200120024946
:10F22000000508607047000000E200E010B50E4BDA
:10F230005968002906D002680C68A24204D8A21AB4
:10F240000A60C161586010BD0B4604E00B46C969F5
:10F25000121B002904D00C689442F7D3A41A0C6046
:10F260000260C161D86110BD4C2000207CB50D4604
:10F270000646002469460C706846FDF70DFF01A89C
:10F2800000F0D0F800280DD00570466068460849A7
:10F290000079487068460078FDF71CFFFFF7BEFF55
:10F2A00020467CBD684604240078FDF713FFF7E78D
:10F2B0005C200020F8B51D4D6C68002C34D01C4833
:10F2C00000274068A968401A0602360A2068B04242
:10F2D00018D8361AC7192246107CE46900280FD0C6
:10F2E00000201074EB68002B07D091695069984793
:10F2F000002805D0FDF71CFE02E05169906988479F
:10F30000002CE3D129786878814206D1401CC0B234
:10F310006870022801D10020687004490006800D41
:10F3200018310F50FFF77AFFF8BD00004C20002085
:10F330000015014070B58EB005461C216846FBF7EC
:10F3400028FF694608780C210843694608700024A4
:10F3500001940394049405940694287808A988706D
:10F36000022069460884601C0007000F10300794D3
:10F37000087711204877887FF9210840F721801C01
:10F380000840EF2108400126304369468877142160
:10F3900009A8FBF7FEFE08A8099007A80A9069468D
:10F3A0008E851420CC85088668882B1D09AAA2DFCB
:10F3B0000EB070BD0870000A48700220704700004F
:10F3C00038B51549154A488890420FD04A78144CF0
:10F3D000521CD2B24A70237B934208D3091D75DFB9
:10F3E000002803D0A169002900D0884738BD002536
:10F3F0004D70217C002907D03B2176DF002803D007
:10F40000A169002900D0884761690029EED06846CB
:10F410000570884738BD000034200020FFFF000041
:10F420004024002010B509494B788C785A1CD2B280
:10F43000944200D100220C78944201D1002010BDEA
:10F440000270486818214B43C01810BD5C20002092
:10F45000FFB583B016460C9D0D9C1F4602220095F9
:10F460000194039800F00CF8002807D13B461022C5
:10F47000314600950194039800F002F807B0F0BD02
:10F48000FFB583B0074600200C9C864626880546BB
:10F490003AE07868A900421811886846818051884E
:10F4A000C1800022694601A865DF002839D168467D
:10F4B00001780598814226D17046002801D00022AB
:10F4C00000E002222088891842180D998A4227D824
:10F4D000714600290AD1401C80B22080069A049906
:10F4E00011542088401C20800120864621880698DF
:10F4F0000A18694601A865DF002812D169462088EC
:10F500000978401820806D1C3888A842C1DC7046FC
:10F5100000280AD02088801B401E80B2FF2802D914
:10F520000C2007B0F0BD069988550020F9E70000CF
:10F5300004480179002902D1007B002800D0012075
:10F5400070470000242000204100C0091B225043C6
:10F550004140C8B270470000010000071516171897
:10F560001112131408220020282200205422002007
:10F5700011000300C9D7010012000300C9D7010020
:10F5800013000300C9D7010014000300C9D701000C
:10F59000202400209ECADC240EE5A9E093F3A3B545
:10F5A0000000406E0000005000030000DC2400203A
:10F5B000B82400202000000001000000000000002E
:10F5C000290000000100000001000000010000000F
:10F5D0000100000001000000010000000100000027
:10F5E0000200000030313233343536373839414289
:10F5F00043444546151617000002040500000000AC
:10F6000000000000F1B4010095B4010049B501000B
:10F6100091B40100000000000000000000000000A4
:10F62000000000006CFD0100030000003CFF010031
:10F6300003000000DCFD0100030000003CFF0100AE
:10F640000300000028FE010003000000FCFE010092
:10F650000300000028FE01000300000018FF010065
:10F660000300000008FE0100030000003CFF010051
:10F67000030000004CFE01000300000030FF010009
:10F6800003000000D0FD01000300000040FF010066
:10F6900003000000ACFE0100030000003CFF01007D
:10F6A0000300000088FE0100030000003CFF010091
:10F6B0000300000064FE0100030000003CFF0100A5
:10F6C00003000000C4FD0100030000003CFF010036
:10F6D0000300000058FE01000300000028FF0100A5
:10F6E0000300000040FD0100030000003CFF01009A
:10F6F00003000000F8FD0100030000003CFF0100D2
:10F700000300000078FD0100030000003CFF010041
:10F710000300000040FE01000500000020FF010082
:10F720001400000040FE01000500000004FF01007D
:10F7300014000000A0FD0100030000003CFF0100D8
:10F740000300000088FD0100030000003CFF0100F1
:10F7500003000000E8FD0100030000003CFF010081
:10F7600003000000C8FE0100050000003CFF01008E
:10F7700014000000BCFE01000300000048FF01006F
:10F78000030000005CFD0100030000003CFF0100DD
:10F7900003000000F0FE0100030000003CFF010038
:10F7A00003000000D8FE0100030000003CFF010040
:10F7B00003000000E4FE0100030000003CFF010024
:10F7C0000300000034FE0100030000000CFF0100F4
:10F7D000030000000C0D0F000211121301030D0FA6
:10F7E000140000020607080A01030B00142F002072
:10F7F000005EBCE2613FDD83C29C7E20A3FD1F4111
:10F800009DC3217FFCA2401E5F01E3BD3E6082DC00
:10F8100023079FC1421CFEA0E1BF5D0380DE3C6266
:10F82000BEE0025CDF81633D7C22C09E1D43A1FFE0
:10F830004618FAA427799BC584DA3866E5BB5907D0
:10F84000DB856739BAE406581947A5FB7826C49AC0
:10F85000653BD987045AB8E6A7F91B45C6987A24B0
:10F86000F8A6441A99C7257B3A6486D85B05E7B9A0
:10F870008CD2306EEDB3510F4E10F2AC2F7193CD90
:10F88000114FADF3702ECC92D38D6F31B2EC0E5080
:10F89000AFF1134DCE90722C6D33D18F0C52B0EE70
:10F8A000326C8ED0530DEFB1F0AE4C1291CF2D7360
:10F8B000CA947628ABF517490856B4EA6937D58B50
:10F8C0005709EBB536688AD495CB2977F4AA481640
:10F8D000E9B7550B88D6346A2B7597C94A14F6A830
:10F8E000742AC896154BA9F7B6E80A54D7896B3520
:10F8F00000000100020001000300010002000100FD
:10F9000004000100020001000300010002000100E8
:10F9100005000100020001000300010002000100D7
:10F9200004000100020001000300010002000100C8
:10F9300006000100020001000300010002000100B6
:10F9400004000100020001000300010002000100A8
:10F950000500010002000100030001000200010097
:10F960000400010002000100030001000200010088
:10F970000700010002000100030001000200010075
:10F980000400010002000100030001000200010068
:10F990000500010002000100030001000200010057
:10F9A0000400010002000100030001000200010048
:10F9B0000600010002000100030001000200010036
:10F9C0000400010002000100030001000200010028
:10F9D0000500010002000100030001000200010017
:10F9E0000400010002000100030001000200010008
:10F9F000637C777BF26B6FC53001672BFED7AB76EC
:10FA0000CA82C97DFA5947F0ADD4A2AF9CA472C096
:10FA1000B7FD9326363FF7CC34A5E5F171D8311503
:10FA200004C723C31896059A071280E2EB27B27524
:10FA300009832C1A1B6E5AA0523BD6B329E32F849C
:10FA400053D100ED20FCB15B6ACBBE394A4C58CF94
:10FA5000D0EFAAFB434D338545F9027F503C9FA868
:10FA600051A3408F929D38F5BCB6DA2110FFF3D236
:10FA7000CD0C13EC5F974417C4A77E3D645D1973EA
:10FA800060814FDC222A908846EEB814DE5E0BDBE4
:10FA9000E0323A0A4906245CC2D3AC629195E4791B
:10FAA000E7C8376D8DD54EA96C56F4EA657AAE0875
:10FAB000BA78252E1CA6B4C6E8DD741F4BBD8B8A10
:10FAC000703EB5664803F60E613557B986C11D9E76
:10FAD000E1F8981169D98E949B1E87E9CE5528DFED
:10FAE0008CA1890DBFE6426841992D0FB054BB1619
:10FAF00052096AD53036A538BF40A39E81F3D7FBA3
:10FB00007CE339829B2FFF87348E4344C4DEE9CBEC
:10FB1000547B9432A6C2233DEE4C950B42FAC34E61
:10FB2000082EA16628D924B2765BA2496D8BD12517
:10FB300072F8F66486689816D4A45CCC5D65B692BB
:10FB40006C704850FDEDB9DA5E154657A78D9D845F
:10FB500090D8AB008CBCD30AF7E45805B8B345067F
:10FB6000D02C1E8FCA3F0F02C1AFBD0301138A6B99
:10FB70003A9111414F67DCEA97F2CFCEF0B4E673C9
:10FB800096AC7422E7AD3585E2F937E81C75DF6E77
:10FB900047F11A711D29C5896FB7620EAA18BE1BDD
:10FBA000FC563E4BC6D279209ADBC0FE78CD5AF483
:10FBB0001FDDA8338807C731B11210592780EC5FC9
:10FBC00060517FA919B54A0D2DE57A9F93C99CEF25
:10FBD000A0E03B4DAE2AF5B0C8EBBB3C8353996126
:10FBE000172B047EBA77D626E169146355210C7D64
:10FBF0008D01020408102040801B366CD8AB4D9A52
:10FC00002F5EBC63C697356AD4B37DFAEFC59139D0
:10FC100072E4D3BD61C29F254A943366CC831D3AFA
:10FC200074E8CB8D01020408102040801B366CD88C
:10FC3000AB4D9A2F5EBC63C697356AD4B37DFAEF9D
:10FC4000C5913972E4D3BD61C29F254A943366CC15
:10FC5000831D3A74E8CB8D01020408102040801BFC
:10FC6000366CD8AB4D9A2F5EBC63C697356AD4B359
:10FC70007DFAEFC5913972E4D3BD61C29F254A94E4
:10FC80003366CC831D3A74E8CB8D01020408102042
:10FC900040801B366CD8AB4D9A2F5EBC63C697353F
:10FCA0006AD4B37DFAEFC5913972E4D3BD61C29FC6
:10FCB000254A943366CC831D3A74E8CB8D01020447
:10FCC00008102040801B366CD8AB4D9A2F5EBC6369
:10FCD000C697356AD4B37DFAEFC5913972E4D3BDC6
:10FCE00061C29F254A943366CC831D3A74E8CB00E9
:10FCF0004F766572666C6F770D0A00005344483A80
:10FD00005741524E494E473A73645F626C655F6576
:10FD10006E61626C653A2052414D20737461727459
:10FD20002073686F756C642062652061646A757306
:10FD300074656420746F20307825780D0A00000007
:10FD400041542B434744434F4E543D312C2249509C
:10FD5000222C2263746E6574220D0A0041542B4ECE
:10FD60004D47533D33372C30300D0A0041542B435F
:10FD700046554E3D300D0A0041542B4347415454E3
:10FD80003D300D0A0000000041542B4345445258B9
:10FD9000533D302C352C303130310D0A000000003D
:10FDA00041542B4350534D533D312C2C2C3031308A
:10FDB00030303031312C30313030303031310D0A8B
:10FDC0000000000041542B434D45453D310D0A00D4
:10FDD00041542B4347534E3D310D0A0041542B43B0
:10FDE00046554E3D310D0A0041542B4E50534D5255
:10FDF0003D310D0A0000000041542B43474154544B
:10FE00003D310D0A0000000041542B4E4344503D4B
:10FE10003138302E3130312E3134372E3131352CCE
:10FE2000353638330D0A000041542B4346554E3FBA
:10FE30000D0A000041542B4E50534D523F0D0A0005
:10FE400041542B43474154543F0D0A0041542B4E1B
:10FE500052420D0A0000000041542B4E43434944D6
:10FE60000D0A000041542B4E434F4E4649473D4337
:10FE7000454C4C5F524553454C454354494F4E2CDD
:10FE800046414C53450D0A0041542B4E434F4E46BC
:10FE900049473D43454C4C5F524553454C454354BF
:10FEA000494F4E2C545255450D0A000041542B4EDB
:10FEB000435345415246434E0D0A000041542B43E3
:10FEC00053510D0A0000000041542B434750414458
:10FED00044520D0A0000000041542B4E4D47520D74
:10FEE0000A00000041542B4E514D47520D0A0000AC
:10FEF00041542B4E514D47530D0A00004346554E79
:10FF00003A30000043474154543A30004E50534D6C
:10FF1000523A312C310000004346554E3A31000030
:10FF200043474154543A3100434349443A000000A6
:10FF30005245424F4F54494E470000004F4B00007E
:10FF40004347534E000000002B4353510000000074
:10FF500070FF0100E81F002030010000ECB101003B
:10FF6000C0FF01001821002000170000C4CC0100D0
:10FF70002114FFFF0102350213E02352205A240806
:10FF800001470427F0FC0108111A987623E8A923F9
:10FF9000A1BB3D9E7D037812458816A1140DC701B3
:10FFA00014B1BA0114FDC1011AAD041AD5041455D7
:10FFB000B9011AF1040B19D9C27C1324F400000012
:040000050001B0C185
:00000001FF
