:020000040001F9
:10B00000403A0020D5B00100EFB00100F1B00100DE
:10B010000000000000000000000000000000000030
:10B02000000000000000000000000000F3B001007C
:10B030000000000000000000F5B00100F7B00100C2
:10B0400041CB0100F9B00100F1D80100F9B00100D5
:10B05000F9B00100000000005DC2010089B20100EA
:10B06000F9B00100F9B00100F9B00100F9B0010038
:10B07000F9B001009DD40100F9B00100F9B0010060
:10B08000F9B00100FDD40100F9B00100F9B00100F0
:10B09000BDD70100F9B00100C5D70100F9B001002A
:10B0A000F9B00100F9B0010000000000000000004C
:10B0B0000000000000000000000000000000000090
:10B0C0000348854600F0A2F80048004771010200DD
:10B0D000403A00200321094802680A4302600848F8
:10B0E00002680A4302600748804707480047FEE7B6
:10B0F000FEE7FEE7FEE7FEE7FEE70000240500406E
:10B100005405004051D80100C1B0010030B50B46D4
:10B11000014600202022012409E00D46D5409D4231
:10B1200005D31D469540491B2546954040191546B7
:10B13000521E002DF1DC30BD70B5002425460028DC
:10B1400001DA01244042002901DA01254942FFF7D2
:10B15000DDFFAC4200D04042002C00D0494270BD1F
:10B1600003460B439B0703D009E008C9121F08C020
:10B17000042AFAD203E00B780370401C491C521ECB
:10B18000F9D27047D2B201E00270401C491EFBD2D6
:10B1900070470022F6E710B513460A4604461946E2
:10B1A000FFF7F0FF204610BD30B505462A460B4696
:10B1B00010781C78521C5B1C002801D0A042F7D0EC
:10B1C000002C03D0002802D06D1CEFE7284630BDCC
:10B1D000421C0178401C0029FBD1801A704730B511
:10B1E00004460020034600E05B1C934203D2E05C6F
:10B1F000CD5C401BF8D030BD03460A780270401C7D
:10B20000491C002AF9D1184670470000064C012558
:10B21000064E05E0E36807CC2B430C3C98471034FE
:10B22000B442F7D3FFF750FFA0220200C022020071
:10B2300070B58C180578401C6B075B0F01D1037843
:10B24000401C2A1106D10278401C03E006780E70DB
:10B25000401C491C5B1EF9D12B0705D40023521E4C
:10B260000DD40B70491CFAE70378401CCB1A921CD2
:10B2700003E01D780D70491C5B1C521EF9D5A142DC
:10B28000D8D3002070BD0000FEB5134C0026E06846
:10B290000125124F002810D003F0D8FA00280BD057
:10B2A0000120B86068460670E0680190217C68461D
:10B2B0000181A57421688847FEBD09480660012008
:10B2C000B8600848066069460D7080688880A5747B
:10B2D00068462168EFE700007C25002000730040ED
:10B2E0000071004000750040FFB581B0044603982E
:10B2F0001D4606070F46360F204600F041FE19484E
:10B30000002D046002D0456001F09AFA0A980028E6
:10B3100001D01449886000250FE03946204600F02E
:10B320002FFE1048046001F055F8204603F014F891
:10B330000C48103410358760103703988542ECD3E1
:10B34000002E0CD03946204600F01AFE1020811B3A
:10B35000A019FFF71EFF0348046001F03BF805B099
:10B36000F0BD00006C210020FFB581B016071D461E
:10B3700017460446360F029900F002FE1948002DC8
:10B38000046002D0456001F05BFA0A98002801D001
:10B3900014498860002511E0029802F0DDFF204684
:10B3A000029900F0EDFD0F48046000F01BFF0D480E
:10B3B000846002981034103010350290BD42EBD3F7
:10B3C000002E0CD02046029900F0DAFD1020811BDF
:10B3D000A019FFF7DEFE0348046000F003FF05B08C
:10B3E000F0BD00006C210020FFB581B01546044679
:10B3F0000746884202D02046FFF7B2FE64192E09A4
:10B400000CE0012E18D02046103800902146102262
:10B410000846049BFFF768FF761EF6B2103C002E2C
:10B42000EFD178192038C07FA84207D2002805D074
:10B43000281AC0B205B0F0BD0A98E6E70020F9E787
:10B44000FFB50D46144611090A011032D6B2220783
:10B450001021120F85B0891A0E9F0091A84204D0C6
:10B46000014622462846FFF77BFE102101A8009ADC
:10B47000FFF788FEB44204D2321B281901A9FFF756
:10B480006FFEB44204D12819102201A9FFF768FE0B
:10B4900034090AE02946009710220846089BFFF766
:10B4A00063FF641E2F46E4B21035002CF2D1304603
:10B4B00009B0F0BD000900011030C0B270470000B3
:10B4C000F8B52B4C0746E27F2AA100F073FE254613
:10B4D00000262035002805D0284804220178114391
:10B4E000017032E02249E27F5D39384600F062FEA9
:10B4F0001F4CE03C0028607D33D0022805D0032893
:10B5000003D00F2801D010280AD114221CA13846DC
:10B5100000F050FE00280BD01AA1002002F064F8C1
:10B52000607D062806D00B2804D0152802D00CE038
:10B530001BA10EE0412212A1384600F03BFE00287C
:10B5400006D01FA1002002F04FF86E700420F8BD55
:10B5500022A1002002F048F83946002002F044F809
:10B5600001E00F2801D00220F8BD0020F8BD000046
:10B57000B82E00204C69657264610000D020002064
:10B580004F4B000061742B6366756E3F2F61742B07
:10B5900063676174743F206F6B20210D0A00000007
:10B5A00061742B6366756E3F2F61742B63676174E2
:10B5B000743F206572726F7220210D0A0000000036
:10B5C00061742B6367736E3D312F61742B6E6363FF
:10B5D0006964206F6B20210D0A00000061742B63E9
:10B5E00067736E3D312F61742B6E636369642065F0
:10B5F00072726F7220210D0A0000000010B5104910
:10B60000097C00290CD0012808D108460D4C00F017
:10B6100003FE217A0122824011432172032010BDD2
:10B620000848017A002906D00021017206A10020F5
:10B6300001F0DAFF01E006210170002010BD0000DA
:10B64000D82D0020982C00204576656E74206973F3
:10B65000204572726F72200D0A000000F0B50025BF
:10B660009BB0064668462C4605702746642101A813
:10B67000FFF78FFD002E2ED169460C7110224A7102
:10B68000164901268A7869468A71CC710C724C720F
:10B690008C72134A01A807215319FF3321339B7879
:10B6A0004354491C6D1CEDB2C9B2142DF4D3465459
:10B6B000491CC9B24454491CC9B24654491CC9B2B8
:10B6C000465452190021FF324132D2784254891C2B
:10B6D000C9B20629FAD338461BB0F0BDD82D0020D8
:10B6E000982C0020F8B504464578407A012832D0DD
:10B6F000207A042830D003282ED01848867DF021E7
:10B700002046FFF746FD0120607265700020207220
:10B71000134FA6702D01EE19307BE070B0887D21AB
:10B72000C9004843606020460A3000907959FFF70D
:10B7300063FD7859FFF74CFD25466035A873204618
:10B740006F30B168FFF758FDA97B009804F032FE16
:10B75000A078401CA070F8BD0026D0E7D82D0020AE
:10B7600070190200F8B5364CA17803290ED2354A7B
:10B77000354E515C337F354A01270025042B06D016
:10B78000032B53D00720207037757175F8BD15292C
:10B7900002D0162934D122E02DA1FFF705FD07467E
:10B7A0002DA1002001F020FF002F29D0B57000202E
:10B7B0003918497930390A2903D2401CC0B22028EF
:10B7C000F6D33818417928460A22504330380818F1
:10B7D000C2B2B27023A1002001F006FF10E01848A9
:10B7E000617AC37A01209840032902D1317C8143D8
:10B7F0003174217A81431448217215708038058391
:10B80000A078401CC0B2A07003280CD30020FFF722
:10B81000F5FE002803D005202070A570F8BD062095
:10B8200020702573F9E705202070F8BD162904D192
:10B83000052020701078401C1070A5702573F8BD8D
:10B84000982C002040190200D82D002090200020C4
:10B850002B4353513A000000636D64206373710DF4
:10B860000A000000637371203D2025752E0D0A002B
:10B87000F8B5154CA1780E290FD214480026425C69
:10B880001348037F0546803D042B07D00127032B77
:10B8900012D00721217007754275F8BD491CC8B246
:10B8A000A0700E2805D306202070A67002202877ED
:10B8B000F8BD03202070F8BD06A1002001F094FE21
:10B8C0002770A670AE76F8BD982C0020201B0200D1
:10B8D000D82D0020436F6E6E6563742052657365CA
:10B8E000740D0A00F8B5144CA17805290FD213483D
:10B8F0000025425C1248037F0646803E042B07D099
:10B900000127032B0FD00721217042750775F8BD61
:10B91000491CC8B2A070052802D30420207007E09B
:10B9200002202070F8BD07A1002001F05DFE277005
:10B93000A570B576F8BD0000982C002043190200D0
:10B94000D82D0020496E69742052657365740D0A04
:10B9500000000000F8B5464DA9780A290DD2454AE5
:10B960000026525C44490B7F042B07D00124032B93
:10B9700073D0072028704A750C75F8BD062A02D0CE
:10B980000B2A5CD12AE03DA1FFF70EFC07463DA142
:10B99000002001F029FE002F51D0002438194079F1
:10B9A000014630390A2905D331391A2902D34138E1
:10B9B0001A2804D2641CE4B2102CEFD303E0102C3C
:10B9C00001D2381946712C48791D2E382246074677
:10B9D000FFF7C6FB3B4622462DA129E032A1FFF727
:10B9E000E3FB074632A1002001F0FEFD002F26D028
:10B9F000002438198079014630390A2905D33139B4
:10BA00001A2902D341381A2804D2641CE4B2202C2B
:10BA1000EFD303E0202C01D2381986711648B91DE6
:10BA20001E3822460746FFF79BFB3B46224623A1D2
:10BA3000002001F0D9FD0021062005F0ABFBA8781D
:10BA4000401CC0B2A8700A2804D303202870AE702E
:10BA5000F8BD02E004202870FAE71EA1002001F0E2
:10BA6000C3FD05482C70AE7080388676F0E7000084
:10BA7000982C00202E1B0200D82D00204347534E47
:10BA80003A000000636D64206367736E0D0A000066
:10BA90006C656E203D2025752C20696D65693A2501
:10BAA000732E200D0A0000004E434349443A000023
:10BAB000636D64206E636369640D0A006C656E20BB
:10BAC0003D2025752C206E636369643A25732E2012
:10BAD0000D0A00004D6573732052657365740D0A7D
:10BAE00000000000F8B5154E00243460144D2846BF
:10BAF000E0306C77827FC277074684770146203733
:10BB00003C70104846390090FFF72AFB0420306053
:10BB10000098FFF7D5FC287702280DD07878002808
:10BB20000AD0012807D10221052005F033FB06A128
:10BB3000002001F059FD2C77F8BD000000250040E1
:10BB4000D82D0020A52C00205354415254204445A8
:10BB5000434F44450D0A0000F8B5B24DB2482C469B
:10BB60002A78A188007800902646A078FF34012723
:10BB7000C0364134130002F07EFD082764A1C0C620
:10BB8000EBFE05FD207F00287ED0022801D0012891
:10BB900005D1A07DE17D884201D30320207768781C
:10BBA0008100A2484158002902D09E480D308847A4
:10BBB000207F042801D0032801D1072068709C4908
:10BBC0000020886560771FE100295DD100280DD035
:10BBD00001281AD0022827D096A1002001F004FDE8
:10BBE0000020B0766870022129700CE19648082187
:10BBF000C1608901C16095A1002001F0F5FCA87821
:10BC0000401CA8704B200001A0E08F4908208860EC
:10BC100096A1002001F0E8FCA878401CA8706420E0
:10BC2000A88097480770EFE00120874940028860AC
:10BC300094A1002001F0D8FCA878401CA870964878
:10BC400084E0002920D1002825D001282ED0002012
:10BC5000B0766F702870A870B075217C394321745C
:10BC600028723077A072E072A0811E21E1818B4999
:10BC70004A78521CD2B24A70032AA4D34870009862
:10BC800008226949104300E09CE0087084A100206C
:10BC900001F0AAFCB8E001206B494002C860AF7017
:10BCA000C820A880764900200870ADE001206649D0
:10BCB000400288600220A870322047E0002902D0AC
:10BCC000009949077ED5002815D07AA1002001F0FF
:10BCD0008BFC0020A8805448FB22017811400170A1
:10BCE000287868700720287027755049A878491F60
:10BCF000085C60758BE075A121E06A7007212970EE
:10BD000027757849F4E7002902D00099490763D5DF
:10BD1000002813D074A1002001F066FC0020A88048
:10BD20004148FB2201781140017028786870072093
:10BD300028706C492775A8780E31D9E770A10020CA
:10BD400001F052FCA878401CA8707348A8805BE002
:10BD50000120FFF753FC6872002855D0297A00298A
:10BD600052D0A978002900D12F73304A083A515C8B
:10BD7000162901E052E030E01AD1032818D1207CC6
:10BD800000F04AFA27490022E87271310092002837
:10BD900002D001280AD105E00020FFF75FFC5FA177
:10BDA000009000E062A1002001F01EFC0098707578
:10BDB000A07A032802D3A87800280BD028786870CE
:10BDC000072000E008E0287027751848A97808388F
:10BDD000405C8EE76F702F70F8BD0020FFF70EFCFF
:10BDE000002802D0A87A3843A872A87A00280BD07D
:10BDF00000F012FA411D2970A97A8740B943A9724F
:10BE0000062068700020A870207D0128E4D1002061
:10BE1000207507485430FFF765FCF8BD02202870F4
:10BE2000F0E70000982C0020D020002048190200E4
:10BE3000982D00206E657874207374617465206994
:10BE40006E697420210D0A0000050050636C656165
:10BE500072206E6220706F7765726F6E20616E6403
:10BE600020726573657420210D0A000073657420CB
:10BE70006E6220706F7765726F6E20210D0A000070
:10BE800006210020736574206E62207265736574EC
:10BE900020210D0A00000000581B00009020002007
:10BEA000436C6F73652053746174652050726F63C7
:10BEB0000D0A0000696E6974206E6220686173204B
:10BEC000737461727420210D0A000000696E697438
:10BED0002077616974206E6220737461727420210E
:10BEE0000D0A0000201B02006D657373206E622036
:10BEF00068617320737461727420210D0A00000060
:10BF00006D6573732077616974206E62207374614C
:10BF1000727420210D0A0000204E0000696E6974C1
:10BF2000206D6573732075706C6F61640D0A00007D
:10BF30006C6F67206D6573732075706C6F61640D35
:10BF40000A000000F0B50C4A002112680B4B944621
:10BF500084006218002095008A0062442F18165C45
:10BF6000DF5D7E401654401CC0B20428F6D3491C45
:10BF7000C9B20429EDD3F0BD6C210020903100201E
:10BF800000228B5C8354521CD2B2102AF9D3704722
:10BF9000F8B5054600272A4E4BE02A490C5C002CD8
:10BFA00006D0012C12D0022C21D0032C3BD132E040
:10BFB00025480178254802F051F8012803D10121D4
:10BFC000042005F0E7F8204807702CE02048C17AEB
:10BFD00020480C31006800F0A5F801461C48007CA0
:10BFE000814220D10221042005F0D4F81BE01A4838
:10BFF00000901748184BC27AC0680146FFF7F4F961
:10C0000013490322C87215490F701149C96803F01A
:10C01000BFF80321E7E70E48C27A417AC06800F012
:10C02000B9FDFF2809D02146284603F0FBFC012872
:10C0300002D0705D0028B0D1F8BD0020F8BD00002E
:10C0400061210020411C02000421002090300020CA
:10C050007C30002098200020F42000209520002033
:10C0600010B50E490A78002A0FD0012A10D0022AF2
:10C070000AD14A78002A03D000228B1C1A804A7009
:10C080000422C82100F034FC10BD03F08DFB10BD6C
:10C0900001224A7000227D21C900F3E70621002019
:10C0A00070B5104C0546207800280ED001280FD01E
:10C0B000022809D103F0F2FEE1210022C90028463E
:10C0C00000F0BEFC0220607070BD05F053F970BD39
:10C0D00003F0D2FD7D2100220901284600F0B0FCCA
:10C0E0000120F0E714210020F8B505460B4F0C4E57
:10C0F00010E03C5C230002F0BEFA02020507FFF7E5
:10C10000F1FC01E0FFF728FD2146284603F08AFCF8
:10C11000012802D0705D0028EBD1F8BD411C02005F
:10C120006121002010B50022064C03E00378534043
:10C13000E25C401C0B46491E89B2002BF6D110462A
:10C1400010BD0000381B020010B5002818D0184A96
:10C150000124137A01280CD0022812D0032818D009
:10C16000042820D005280BD100291ED00820034325
:10C170000DE0002901D0234309E058084000107267
:10C1800010BDA52901D00420F1E7FB200EE01372B9
:10C1900010BD07480029807A01D0204301E0400803
:10C1A0004000907210BD517210BDF7200340EEE7C1
:10C1B000BE20002070B500240B4605781E78B542DD
:10C1C00005D15D785B1C002D02D1012070BD0B46AE
:10C1D0004578401C002D03D0641CA4B29442ECD3DB
:10C1E000002070BD10B50020FFF7ACFE012401F067
:10C1F00017FB01F0F7FA00F0DDFB2046FFF7A2FE87
:10C20000641CE4B20A2CF2D301F00AFB01F0EAFA52
:10C210000A20FFF797FE10BD0146002001231A46B1
:10C2200082400A4204D1401CC0B20828F7D3FF2044
:10C230007047000070B50446064E074D05E0315CBE
:10C24000204603F0EFFB012802D0285D0028F6D13C
:10C2500070BD0000411C020061210020F0B50024E7
:10C26000FF268BB00136012527460694304604F0A0
:10C2700099FB002807D054484068284203D0304634
:10C2800004F088FB2C43361D6D007F1CB6B2042FD2
:10C29000ECD3FF257D35284604F084FB002809D027
:10C2A000284604F077FB6807044306AA0121002012
:10C2B00004F05CFB454D200714D0012700262742DF
:10C2C0000CD04348B200111808690969C004C00EB7
:10C2D0008903AA58890F002A00D090477F00761C56
:10C2E000042EECD3002C6DDA00200890401E63E091
:10C2F000281940300778B906890E0091002141566F
:10C30000491C49D009A9009804F0E4F8002843D05A
:10C31000B8090190009803F07DFB80002F58019828
:10C32000002F02D0032802D00DE0032834D100985A
:10C3300008ABC20841079446985C490F01228A4025
:10C340001043624698540098052109078000401860
:10C35000072109024018006806A98003800F029097
:10C36000009804F0B7F80028029802D0022802D002
:10C3700012E0032810D10198032808D1029802285E
:10C380001ED00221009804F0C4FA761CF6B2002FE9
:10C3900002D001990098B847641C042CA8D3002E41
:10C3A00010D06A460121002004F0E0FA06990098B6
:10C3B000884207D00690089800263446099097E7EF
:10C3C0000321DFE70BB0F0BD00630040042500202F
:10C3D0000065004010B50A20FFF7B4FD092400F005
:10C3E000F9F900F015FA2046FFF7ACFD00F00CF863
:10C3F000641E2406240EF2D100F0ECF900F008FAD5
:10C400000020FFF79FFD10BDF0B585B00020039020
:10C410008400EF480068065D201841780291817819
:10C420000191C0780090304605F032FA05F030FAFC
:10C4300005F02EFA05F02CFA009805F029FA01987B
:10C4400005F026FA029805F023FA05F021FA029881
:10C4500005F01EFA05F01CFA05F01AFA05F018FAB4
:10C46000009805F015FA05F013FA05F011FA05F039
:10C470000FFA009805F00CFA05F00AFA019805F099
:10C4800007FA05F005FA05F003FA05F001FA30465F
:10C4900005F0FEF90546304605F0FAF905F0F8F921
:10C4A0004540304605F0F4F905F0F2F905F0F0F9F1
:10C4B0004540029805F0ECF9029907464F400846BE
:10C4C00005F0E6F905F0E4F905F0E2F947407D40B2
:10C4D000019805F0DDF905F0DBF9019907464F40B9
:10C4E000084605F0D5F905F0D3F905F0D1F9474034
:10C4F0007D40009805F0CCF905F0CAF905F0C8F9BF
:10C50000014600984140B2484D400068055530460C
:10C5100005F0BEF9009805F0BBF9019805F0B8F9EF
:10C5200005F0B6F9029805F0B3F905F0B1F905F098
:10C53000AFF905F0ADF9304605F0AAF905F0A8F914
:10C5400005F0A6F905F0A4F9304605F0A1F905F0CB
:10C550009FF9009805F09CF905F09AF905F098F913
:10C5600005F096F9019805F093F905F091F905F0B9
:10C570008FF905F08DF9304605F08AF905F088F954
:10C5800005F086F905467540029805F081F90746E1
:10C59000029805F07DF905F07BF94740029805F017
:10C5A00077F905F075F905F073F947407D4001987A
:10C5B00005F06EF9019907464F40084605F068F905
:10C5C00005F066F905F064F947407D40009805F0F4
:10C5D0005FF905F05DF907460098474005F058F906
:10C5E00005F056F905F054F9474079487D40006858
:10C5F00020184570304605F04BF9009805F048F9D1
:10C6000005F046F9019805F043F905F041F905F008
:10C610003FF905F03DF9029805F03AF9304605F08A
:10C6200037F905F035F905F033F905F031F90098DF
:10C6300005F02EF905F02CF905F02AF905F028F996
:10C64000029805F025F905F023F905F021F905F028
:10C650001FF9029805F01CF905F01AF9304605F0AB
:10C6600017F905F015F905467540304605F010F943
:10C6700005F00EF905F00CF94540029805F008F9AF
:10C6800005F006F905F004F9029948404540019883
:10C6900005F0FEF80746019805F0FAF805F0F8F8FD
:10C6A0004740019805F0F4F805F0F2F805F0F0F8CD
:10C6B00047407D40009805F0EBF80746009847405A
:10C6C00005F0E6F805F0E4F805F0E2F847404048E8
:10C6D0007D40006820188570304605F0D9F805F0D7
:10C6E000D7F8009805F0D4F805F0D2F805F0D0F8A6
:10C6F00005F0CEF8019805F0CBF8029805F0C8F8DF
:10C70000304605F0C5F805F0C3F805F0C1F805F0AE
:10C71000BFF8019805F0BCF805F0BAF805F0B8F8D4
:10C7200005F0B6F8019805F0B3F805F0B1F80298F5
:10C7300005F0AEF805F0ACF805F0AAF805F0A8F899
:10C74000304605F0A5F805467540304605F0A0F8DE
:10C7500005F09EF805F09CF84540029805F098F821
:10C7600005F096F8029906464E40084605F090F806
:10C7700005F08EF805F08CF846407540019805F0FC
:10C7800087F805F085F805F083F8019948404540A1
:10C79000009805F07DF80646009805F079F805F058
:10C7A00077F84640009805F073F805F071F805F049
:10C7B0006FF846400648754000682018C570039819
:10C7C000401C0390042800DA22E605B0F0BD00000A
:10C7D0006C2100200D480068417B427A4273427907
:10C7E00042724278427141708178827A827081729D
:10C7F0008179827B82718173C178C279C270C27A79
:10C80000C271C27BC272C173704700006C210020EC
:10C8100030B50949094A0C68002000218B001B191A
:10C820001D5C491C555DC9B21D540429F6D3401C3A
:10C83000C0B20428F1D330BD6C210020411E02009B
:10C84000F8B52749274B4A6800208100545C5C54A6
:10C850008C18C91865784D70A5788D70E478401CE7
:10C86000CC700428F1D337E0002182006D46141FFC
:10C8700066189E5D6E54491C0429F9D3810715D1B1
:10C880002F46BE782978FF78174C6D78BC46655DD9
:10C89000A65D6F467E706746E65D6F46BE70615C62
:10C8A000F970124C8108615C4D403D70D4182546EA
:10C8B000203D6E46297C3678714099546E46697CDD
:10C8C000727851406170AA7CB1784A40A270EA7CCB
:10C8D000F1784A40E270401C2C28C5D3F8BD000016
:10C8E0006C21002090310020411D0200411F0200F8
:10C8F00070B5154652060C4C160E2288101880B2E0
:10C90000208088420ED302F057FF00202080002DA7
:10C9100008D0A178491CC9B2A170B14202D3A0705D
:10C92000A11E087070BD00000821002070B50446EB
:10C93000064E074D05E0315C204603F073F80128F0
:10C9400002D0285D0028F6D170BD0000411C020015
:10C9500061210020F8B50546084F094E0AE03C5C0D
:10C96000002C01D104F00EFD2146284603F05AF8B0
:10C97000012802D0705D0028F1D1F8BD411C0200F1
:10C9800061210020F8B50546084F094E0AE03C5CDD
:10C99000002C01D103F0EAFC2146284603F042F8BE
:10C9A000012802D0705D0028F1D1F8BD411C0200C1
:10C9B00061210020F0B52148002305689A00AC5C95
:10C9C0005119944648788A78CF78264646407A406E
:10C9D000304650407200F6091B277E437240A6463F
:10C9E000424054406246AC544C788E78274674409E
:10C9F000B4466200E4091B2674436240424057403B
:10CA00004F70CA78664656407400F6091B277E436D
:10CA100074406646444066407446174667408E70D0
:10CA20007C00FE091B277E437440444062405B1C2F
:10CA3000DBB2CA70042BC1D3F0BD00006C21002012
:10CA400010B5074C2288101880B22080884205D388
:10CA500004F090FC0020A11E0870208010BD000092
:10CA60001621002010B500201049912292000446A2
:10CA70000C54401C80B29042FAD30D4900200C5453
:10CA8000401C80B21028FAD308480AA1ED30FEF706
:10CA9000B3FB06480BA1DD30FEF7AEFB0C480B499B
:10CAA000C1811E2101824038847610BD982C00205F
:10CAB000DC2E00203138302E3130312E3134372EFB
:10CAC0003131350063746E62000000004C240000B8
:10CAD000982D00208307FF22DB0E9A408907090E5C
:10CAE000994000280BDA0007000F0838830808482F
:10CAF0009B001818C36993430B43C36170478308B5
:10CB000004489B001B18186890430843186070473E
:10CB100000ED00E000E400E070B50446064E074D6D
:10CB200005E0315C204602F07DFF012802D0285D3F
:10CB30000028F6D170BD0000411C020061210020D8
:10CB4000F8B5FF20013003F0CDFC002401250E4E86
:10CB50000E4F002807D00E4804600120B0607D70A1
:10CB6000002002F075FFFF20053003F0BBFC002819
:10CB700008D00748001D04600220B060BD7001208D
:10CB800002F066FFF8BD000000030040F024002022
:10CB900000010040F7B5FFB087B005466846069033
:10CBA000EE48002740881646C11FF93905D0ECA190
:10CBB000002000F019FD07210DE0002E0FD0F048F5
:10CBC0004079A5280DD08798A0280AD0EDA1002093
:10CBD00000F00AFD0421879801F0C2FAACE3F0A14D
:10CBE000F5E7F6A10020879A00F0FEFC8798F84C44
:10CBF000A7287DD017DC294608310591A22853D0FB
:10CC000008DC01281BD002281CD0A02820D0A12895
:10CC100025D149E0A3286CD0A4286BD0A5286AD0E0
:10CC2000A6281CD107E102A9A8380591030001F04C
:10CC300022FD09FDFCFBFAF90E0EF8F71600082399
:10CC4000E4A201E00F23E5A2002101F093FA70E3D2
:10CC5000E6A1002000F0C8FC2878012801D00421BA
:10CC6000E5E0C74D6879A528F1D0002020700126A5
:10CC70001021E34803F0C4FD601C1022E049FEF7D8
:10CC80006FFAE048112406700021062004F082FAB1
:10CC90002246DDA1002000F0A7FC2146879800F085
:10CCA0008FFBA520687144E3DCA1002000F09CFC10
:10CCB000D44C6078002802D0012831D039E0102E01
:10CCC00022D0182ECBD10B20E0702846103008223D
:10CCD000D649054601F0AFF90028B8DD08222946FB
:10CCE000D248FEF73DFA0021062004F053FA03E093
:10CCF000A7E036E058E065E001226270FF27CCA192
:10CD0000002000F071FC17E30120E0700822C74901
:10CD1000059801F090F9002899DD08220599DFE7D0
:10CD20002A460021E07800F04BFE070009D0FF2FD3
:10CD3000E9D010230121059A879801F01BFAC3A1BD
:10CD40000BE00020A070284601F0F8FA1023002123
:10CD5000059A879801F00EFAC2A1002000F044FC69
:10CD6000E7E2C6A1002000F03FFC012EAAD12878FE
:10CD7000A228A7D101F0BCF8002811D0A14C05AD24
:10CD8000284604F0AAF8A07810280BD22A46694653
:10CD900001F0C8F900287DD0A078401CA070EEE713
:10CDA000052144E0062142E0B9A1002000F01CFC6E
:10CDB000082E87D101F09CF80028F1D0284601F018
:10CDC00073F86EE2B6A1002000F00EFC06AC102E47
:10CDD00004D0B8A1002000F007FC40E708229349E6
:10CDE000059801F028F90028BADD08228F48059936
:10CDF000FEF7B6F90021062004F0CCF9204604F035
:10CE00006CF82146284601F041FA6946087410285A
:10CE10007ED27C4900208870284601F08FFA3CE2DF
:10CE200055E240E216E2BBE188E17CE021E0879830
:10CE300001F096F97DE2A6A1002000F0D5FB0721C4
:10CE4000F5E7A8A1002000F0CFFB05AC012EC4D16E
:10CE500001F04EF80028A3D0204604F03EF801F07F
:10CE600047F8214601F012FA69460874102897D253
:10CE7000F5E6A2A1002000F0B7FB092EADD10822F3
:10CE80006A49284601F0D7F80028D3DD0822294650
:10CE9000664800E0D4E1FEF763F90021062004F0C3
:10CEA00079F9002036492070097961706946087463
:10CEB000964801260088012800D80E74002001F051
:10CEC00021F8012805D16946087C022108436946FA
:10CED00008746846007CA0700321879800F070FAFF
:10CEE000A5216846017504214175894807A9006894
:10CEF00006908848008801F0FDF905A801F04EF978
:10CF00002B7A1021844A8548A12B04D0A22B00E063
:10CF1000BCE103D00DE20223137000E0167002782A
:10CF20000A43027005E27EA1002000F05DFB042EA2
:10CF30009ED12878697800020843A9780002084346
:10CF4000E978000208437B49884291D3494240185E
:10CF50006F4908606D4878490180A2E17C3000206B
:10CF600050524F544F434F4C5F4150505F455252C7
:10CF70005F56455253494F4E5F31210D0A00000064
:10CF8000B220002050524F544F434F4C5F415050FD
:10CF90005F4552525F504152414D5F33210D0A00AF
:10CFA00050524F544F434F4C5F4150505F45525287
:10CFB0005F504152414D5F32210D0A00636F6D6D2C
:10CFC000616E64203D20253032780D0A000000009B
:10CFD000F82E00204856312E302E33005356312E75
:10CFE000312E302D3138303830360000636D6420FA
:10CFF000676574206165736B6579210D0A00000017
:10D00000E42000209420002073656E644C656E67F8
:10D010007468203D202564210D0A0000636D6420A2
:10D020006164642075736572210D0A00D1200020AF
:10D03000737461746550726F63657373436F6D6D64
:10D04000616E64203D2025640D0A000050524F544B
:10D050004F434F4C5F4150505F4552525F47454EE2
:10D060000D0A000050524F544F434F4C5F415050F7
:10D070005F4552525F4E4F4E450D0A00636D64206E
:10D08000726561642075736572210D0A00000000ED
:10D09000636D642064656C2075736572210D0A00F0
:10D0A000636D642075736572206C6F67696E210D06
:10D0B0000A00000050524F544F434F4C5F415050B4
:10D0C0005F4552525F504152414D0D0A0000000031
:10D0D000636D6420736574206B6579626F6172643F
:10D0E000210D0A00636D64206164642070657269BB
:10D0F00070686572616C210D0A000000636D642028
:10D10000737769746368210D0A000000A220002073
:10D11000E0200020A420002014210020D0200020A6
:10D12000636D642061646A7573742074696D652130
:10D130000D0A000000D36C3860EA00008BA10020CB
:10D1400000F052FA069800F0DDFE01280BD08BA10A
:10D15000002000F049FA06202070601C0D21FEF727
:10D1600018F80E21E2E08C49002000F03DFA002082
:10D170002070601C08220599FDF7F2FF874801998D
:10D1800008180190000E60720198000CA0720198BE
:10D19000000AE07201982073684640786073E0E707
:10D1A00072A1002000F020FA012E00D057E5287867
:10D1B000AB28FBD100F09CFE002800D1F0E500F088
:10D1C00097FE04A900F08CFF002826D1694608705C
:10D1D0004870087C410602D501216A4651708106DB
:10D1E00005D56A465178022211436A465170C1063C
:10D1F00005D56A465178042211436A4651700007EA
:10D2000005D56846417808200143684641700223ED
:10D210006A460021879800F0ADFF614C05AD2846B5
:10D2200003F05BFEA078102800D3BBE52A466946D0
:10D2300000F078FF002803D0A078401CA070EDE734
:10D2400008236A460021879800F094FFA078401CCC
:10D25000A0706EE053A1002000F0C6F90822294614
:10D260000598FDF77DFF287A697A00020843A97ABC
:10D2700000020843E97A000208434849494240183D
:10D280000190069800F002FD012806D042490020D6
:10D29000183900F0A9F90121C9E53F49002000F043
:10D2A000A3F90021C3E5092E00D2D8E408224149A0
:10D2B000284600F0C0FE00283BDD082229463D48F4
:10D2C000FDF74EFF0021062003F064FF31E0092E38
:10D2D000EBD308223749284600F0ADFE002828DDB0
:10D2E000082229463348FDF73BFF0021062003F0C2
:10D2F00051FF287A122823D01328D6D12E488079BE
:10D30000800730D500252570601C20222B49FDF7B1
:10D3100027FF601C00F002F92121FDF7F7FE6846A7
:10D320000174491C6554007C801CC1B2879800F0D0
:10D3300047F81B49002048707FB038460AB0F0BD5E
:10D340001D488079C0070CD01C4900252570601C41
:10D3500010221039FDF704FF601C00F0DFF81121E6
:10D36000DBE7092163E50A2161E50000636D6420C4
:10D3700072656164206C6F67210D0A0050524F5432
:10D380004F434F4C5F4150505F4552525F46494EAC
:10D3900049534845440D0A0064D0010000D36C385D
:10D3A00094200020636D642064656C206C6F67219D
:10D3B0000D0A0000D1200020B2200020BA2D00204C
:10D3C000F8B50E462C4CF0212170A5220121627087
:10D3D0000025A170E57021716171A571E57125725B
:10D3E00026496072897AA172AA2801D0A22814D194
:10D3F000002E12D0701EFEF75DF80746401CE0724A
:10D400001F4800902046761E0D30F2B21C4B01469C
:10D41000FEF716F838460D3002E03046E6720C3062
:10D42000064631462046FEF77DFEA055701C1621AB
:10D4300021540D21B01C2154F01C0646024611A1B6
:10D44000002000F0D1F8F0B20422214601F0A0FE45
:10D450003146204602F0E2F80E480178002909D052
:10D46000057010220C490648FDF77AFE00210620BF
:10D4700003F090FEF8BD0000EC2E00207C30002070
:10D48000F4200020706F7374696F6E203D20256456
:10D49000210D0A0094200020E42000201CB5002467
:10D4A0006846047001F0AEFC03F044FF002818D178
:10D4B0000E480168002914D00D498968C907C90FB1
:10D4C0000FD004600B4880686946087101A90A48BA
:10D4D00003F09CFB084803F083FB002801D003F015
:10D4E000E7F96846007801F0ABFC1CBD00D10040B4
:10D4F00000D3004000D50040F418020010B50649E2
:10D500000020086048608860C860034940390860AE
:10D51000486004F02BF810BD401101400146002086
:10D52000054A04E0401C80B2491C904203D20B78AB
:10D53000203B5F2BF6D97047FFFF000010B5034872
:10D540000078002801D100F017FF10BD202C00202A
:10D55000F8B506460C48144600780D46002801D15F
:10D5600000F00AFF002368460093037001F04AFCB4
:10D5700022462946304600F009F8044668460078FD
:10D5800001F05EFC2046F8BD202C002070B50E4650
:10D5900018214843134914464518E86A18350028ED
:10D5A00004D001280FD0022805D113E0284600F04E
:10D5B00019FFA04201D2002411E02246314628463C
:10D5C00001F03BF80BE0284600F00CFFA042F4D23B
:10D5D0000446F2E73146284600F0FFFF04462046A5
:10D5E00070BD0000202C00200FB408B504A90091E4
:10D5F0006A46039900F004F801B008BC04B018476B
:10D60000F7B598B007A80290402000250495039034
:10D6100018980C46059506902178641C002977D04F
:10D62000252907D002A800F0B9FF05980028F3DAF1
:10D630001BB0F0BD012200210227134608262078E6
:10D6400023281BD02B2816D02D2802D0302806D115
:10D6500001E0194300E03943641C002AEFD10022A5
:10D6600020780346303B0A2B0AD20A235A43121869
:10D67000303A641CF4E704200143EDE73143EBE763
:10D680000023C7B22E2F0AD1641C20780746303FF2
:10D690000A2F04D20A277B431B18303BF4E76C287F
:10D6A0000DD068280BD0702852D00BDC25285AD01A
:10D6B00058282ED063280CD0642858D110E0207848
:10D6C000641CECE7732832D0752817D078284ED127
:10D6D0001FE01A981A9A0068011D1160017843E052
:10D6E0001A981A9F0068061D3E600068019100921A
:10D6F00001460A2202A800F080FE38E01A981A9F1C
:10D700000068061D3E600068009201910A2209E04F
:10D710002FE01A981A9F0068061D3E60006800926C
:10D7200001911022014602A800F0CCFE1FE01A98D9
:10D730001A9A0068011D116006683178761C00296C
:10D7400015D002A800F02AFF05980028F5DA0EE0AF
:10D750001A981A9A00680823011D116001681022A6
:10D7600000960195DFE7252102A800F017FF641C51
:10D770005BE70598002800DC5AE70498002804D0ED
:10D78000024607A91898FFF7E3FE04990598401888
:10D7900005904DE770B50446064E074D05E0315C37
:10D7A000204602F03FF9012802D0285D0028F6D17A
:10D7B00070BD0000411C02006121002010B503F083
:10D7C00047FE10BD10B506484068002805D08047C8
:10D7D000002801D001F062FA10BD02F01FFB10BD5D
:10D7E0007C2000200D480068417842794270427ADE
:10D7F0004271427B427241738178827A8270817277
:10D800008179827B82718173C178C27BC270C27A56
:10D81000C273C279C272C171704700006C210020CE
:10D8200030B50949094A0C68002000218B001B19FA
:10D830001D5C491C555DC9B21D540429F6D3401C1A
:10D84000C0B20428F1D330BD6C210020411D02007C
:10D8500010B502F03BFB002805D01F491D48486069
:10D86000C8131E4988611E48018CC9B201290BD119
:10D87000828C120708D1028D1206120F042A03D1DE
:10D88000828D1206120F0AD0012921D1818C09073D
:10D890001ED1018D0906090F0A2904D007E0114A9B
:10D8A00001219160F5E7828D1206120F05D00D2936
:10D8B0000ED1808D0006000F0AD10B4801680129A6
:10D8C00004D00A49016001680129FCD1C0214161ED
:10D8D00010BD0000DFFF07C000050040006C0040E5
:10D8E000C00F00F00006004000EC064075930000F9
:10D8F000F8B52E4C01214902204603F005FA002517
:10D900002B4F0126002818D0FF212531204603F097
:10D91000F6F9002811D0FF20253025508120254917
:10D92000800088603878002800D16660204808228E
:10D93000001D01781143017028E00421204603F006
:10D94000E3F9002822D0FF210931204603F0D7F95E
:10D9500000281BD0FF20093025501748467717486C
:10D9600082691549E031887F0B46463BC254887F67
:10D97000401CC0B28877642800D38D770E481421EC
:10D98000803001833878002800D16660FF2145315E
:10D99000204603F0B4F9002806D0FF20453025507A
:10D9A0003878002800D02660F8BD00000020004034
:10D9B0000C21002000230040D82D0020002500402D
:10D9C000F7B5FFB0074685B0012503A80026144629
:10D9D0000090002F04D0012F1FD00B2F1DD002E18B
:10D9E00003F07BFA834F002482492046009A00F01E
:10D9F00013FBFF28F8D0397883221140822907D100
:10DA00000822381D859900F016FB002800D100255A
:10DA1000641CE4B2102CE7D3E3E003F05EFA76482E
:10DA20004278002A04D0012A10D0022A7ED0DAE0FF
:10DA3000054672A10020FFF7D7FD0120687020463F
:10DA4000009900F023FCA870FF25CEE06BA1002018
:10DA5000FFF7CAFD6848022141708078FF25102831
:10DA600040D26BA10020FFF7BFFD63486149807879
:10DA7000009A00F0D1FAFF28F7D00B2F04D05D48B0
:10DA80000021C943C66129E05A48217AC161627AFE
:10DA900009028918C161A27A09028918C161E27A72
:10DAA00009028918C161227B0262637B1202D218CB
:10DAB0000262A37B1202D2180262E37B1202D21826
:10DAC000564B0262994203D95C420919C16100E0D8
:10DAD000C6619A4204D9514949425118016284E011
:10DAE000066282E04EA10020FFF77EFD0120029039
:10DAF000002001903F49009A019800F08DFAFF281C
:10DB0000F8D03C4801788A07920F022A12D1090600
:10DB100010D5016A4548006881420BD3029800285D
:10DB200008D00198401CC0B2019000E042E01028EB
:10DB3000E0D35AE02F488221017008222146001DBF
:10DB4000FDF70EFB0B2F04D02A480021C943C66104
:10DB500029E02848217AC161627A09028918C161E5
:10DB6000A27A09028918C161E27A09028918C161A1
:10DB7000227B0262637B1202D2180262A37B120232
:10DB8000D2180262E37B1202D218244B026299423D
:10DB900003D95C420919C16100E0C6619A4204D907
:10DBA0001E4949425118016200E00662124901987B
:10DBB00088701AE0044611A10020FFF715FDA27835
:10DBC0001BA10020FFF710FDA07810280BD20949F7
:10DBD000009A00F045FB0546024619A10020FFF718
:10DBE00003FDFF2D01D0044846707FB0284608B0E1
:10DBF000F0BD0000EC2F0020A620002073466C61D1
:10DC0000675374617465203D2025640D0A0000008F
:10DC100068617320757365720D0A000000D36C385B
:10DC20006E657720757365720D0A0000E020002094
:10DC300073557365724964203D2025640D0A000008
:10DC4000726574203D2025640D0A000030B504463D
:10DC50000078F02816D16078A52813D1E57A2846F7
:10DC60000F300C3588420DD860194178162909D13A
:10DC700080780D2806D129462046FEF753FA615DCB
:10DC8000884201D0002030BD012030BDF0B5FFB08A
:10DC900092B0074611A80F905A4806786846067059
:10DCA00058483246817843780802184344BA684697
:10DCB000448054480179C078090201434DBA68464E
:10DCC000858051A10020FFF78FFC224656A100203D
:10DCD000FFF78AFC2A465CA10020FFF785FCAA2EEC
:10DCE00010D0AA2269460A700020488088804549E1
:10DCF0000A7048708870C87008710146062003F0E9
:10DD000049FA01E0AC4204D100210520FEF71CFADB
:10DD100075E001210520FEF717FA002F55D00F9866
:10DD200003F0D2F868468088202241010F98091834
:10DD300005A8FDF715FA20224BA10020FFF754FC9F
:10DD4000002505A8425D4EA10020FFF74DFC6D1C8B
:10DD5000EDB2202DF5D333A10020FFF745FC4AA1F9
:10DD60000020069AFFF740FC47A100207A68FFF7E1
:10DD70003BFC0822B91807A8FDF731FA00283AD071
:10DD800006987968884236D141A10020FFF72CFC23
:10DD900068468088401C81B2684681800F2902D382
:10DDA0000020694688801748210A067041708470F7
:10DDB000694689880A0AC27001710021062003F0B1
:10DDC000E9F901207FB012B0F0BD6D1CA8B2694620
:10DDD00088800F2801D3002088800A48210A067015
:10DDE00041708470694689880A0AC27001710021F5
:10DDF000062003F0CFF929A10020FFF7F5FB002052
:10DE0000E0E700009C200020746D704C6F67496E45
:10DE1000666F496E6465782E666C6167203D2025CB
:10DE2000303278210D0A0000746D704C6F67496EB6
:10DE3000666F496E6465782E68656164203D2025B3
:10DE400078210D0A00000000746D704C6F67496EF8
:10DE5000666F496E6465782E7461696C203D20257B
:10DE600078210D0A00000000746D704C6F67496ED8
:10DE7000666F5F646174615B25645D210D0A00005B
:10DE800020253032780000002025780D0A0000009F
:10DE900072657475726E2031210D0A007265747599
:10DEA000726E2030210D0A0030B5FFB092B00546E9
:10DEB0006C46204603F011F82146284600F0E6F9AA
:10DEC000054610280FD2224680A9284600F0A4F863
:10DED000FF28F8D0442180A8FDF75BF9224680A9ED
:10DEE000284600F0BDF97FB0284612B030BD0000D2
:10DEF00003480078002801D00148C01C704700008A
:10DF0000A6200020F1B52B48FFB083B00278684608
:10DF10000270284802AF817843780802184346BA55
:10DF200068464680234814460179C378080218439E
:10DF300045BA6846858020A10020FFF755FB324690
:10DF400025A10020FFF750FB2A462BA10020FFF758
:10DF50004BFBAA2C10D0AA2269460A7000204880E8
:10DF6000888014490A7048708870C870087101462A
:10DF7000062003F00FF901E0AE4207D10021052091
:10DF8000FEF7E2F800207FB004B0F0BD01210520CB
:10DF9000FEF7DAF8829800280AD0384602F094FF9B
:10DFA0006846808820224001C1198298FDF7D8F880
:10DFB0000120E8E79C200020746D704C6F67496E6B
:10DFC000666F496E6465782E666C6167203D20251A
:10DFD000303278210D0A0000746D704C6F67496E05
:10DFE000666F496E6465782E68656164203D202502
:10DFF00078210D0A00000000746D704C6F67496E47
:10E00000666F496E6465782E7461696C203D2025C9
:10E0100078210D0A0000000010B50B46102801D32E
:10E02000012010BD44214843811844221846FDF7C1
:10E0300097F8002010BD10B50CE004780B789C42D6
:10E0400001D9012010BD9C4202D20020C04310BD66
:10E05000401C491C521EF0D2002010BD30B51C4B94
:10E06000002159600278811C140242782243194C25
:10E07000A24227D10C78184A240254804D782543B7
:10E0800055808C781471CC7854710C7994714C79DA
:10E09000D4718C791472CC7954720C7A09319472DF
:10E0A000AA2C01D0552C0DD10C78D472491CD1600A
:10E0B00061180C7814744A78897812021143074A5F
:10E0C000914201D0002030BD5860012030BD0000D9
:10E0D00094200020A5F000007C3000200D160000E8
:10E0E000F0B5FFB092B0054611AC0F4601262046B0
:10E0F00002F0F3FE2146284600F0C8F80546102835
:10E100000CD2224669462846FFF786FFFF28F8D042
:10E11000002F02D068460078387000267FB0304665
:10E1200012B0F0BDF0B591B016460D460746012479
:10E13000324669463846FFF76FFFFF28F8D0684639
:10E14000007883210840822807D1002D04D00822BE
:10E15000284601A9FFF76FFF0024204611B0F0BD4B
:10E1600010B5034A11730121FFF72AF910BD000011
:10E17000EC2E002070B5054607481C461346017377
:10E18000224619460D30FCF7EBFF641CE1B228462D
:10E19000FFF716F970BD0000EC2E0020F1B5FFB0BE
:10E1A00083B02E4C684627780770204681784278E5
:10E1B0000802104341BA6846418020460179C2787E
:10E1C0000802104341BA684602AE8180304602F030
:10E1D0007BFE0025AA2F04D0AA2168460170458045
:10E1E0008580684647882022780180198299FCF74B
:10E1F000B7FF0120000740693146C01E03F000FB55
:10E200007F1CB9B2684641800F2900D34580418800
:10E210008088814202D16946401C88806846808897
:10E220000F2801D36846858001210520FDF78CFF6A
:10E2300068460078207068464088010A6170A070C6
:10E2400068468088010AE17020710021062002F0F2
:10E25000A1FF7FB0012004B0F0BD00009C20002091
:10E2600070B51446102801D3012070BD44225043DC
:10E270000019FCF775FF00250120000740692146C1
:10E28000001F03F0BDFA284670BD0000F3B591B041
:10E2900000240E4683256F46324669462046FFF726
:10E2A000BBFEFF28F8D0684600782840822806D1B7
:10E2B0000822381D1199FFF7BEFE002803D0641C08
:10E2C000E4B2102CE8D3224603A10020FFF78CF91A
:10E2D000204613B0F0BD000073656172636820755D
:10E2E00073657220696E666F206E756D3A202564C5
:10E2F0000D0A000070B5FFB093B0064611AC0D4694
:10E30000204602F0EAFDF0B222466946FFF784FE9D
:10E31000FF28F8D06846007883210840822803D07F
:10E3200000207FB013B070BD002D04D00822284615
:10E3300001A9FCF715FF0120F3E7000010B5054A1D
:10E3400001211170014603480822C01CFCF708FF98
:10E3500010BD0000A620002010B5064A00219268DA
:10E36000435C545C63404354491CC9B21029F7D341
:10E3700010BD00006C21002010B5124C022020615D
:10E38000606111A0A0611348E06101204002206299
:10E390000020A06260620CA1A1642146E0621039F5
:10E3A000E16410212165A0656065E0650AA1E01DBA
:10E3B000FCF722FF09A12046FCF71EFF2020A071D8
:10E3C00010BD0000202C00205465726D696E616CD8
:10E3D00000000000102A00205254540053454747C3
:10E3E000455200000269C1688A4203D88068401A19
:10E3F000801800E0501A401E7047FFB583B00E46EB
:10E4000070420D9F0C9C0090002900DB08460125FE
:10E4100002E0FCF791FE6D1C05998842F9DA069836
:10E42000A84200D90546002C04D0002E01DB780755
:10E4300000D5641EB80702D50698002810D0F8074A
:10E440000ED1002C0CD0A5420AD22021641E0398C4
:10E4500000F0A4F80398C0680028F2DA07B0F0BD15
:10E460000398C0680028F9DB002E02DA2D21009EF7
:10E4700002E0780707D52B21039800F08FF8039866
:10E48000C0680028EADBB807800F022810D1069880
:10E4900000280DD1002C0BD0A54209D23021641EDA
:10E4A000039800F07BF80398C0680028F2DAD5E7FB
:10E4B000019700943146069B059A039800F002F8F4
:10E4C000CCE70000FFB581B001261F4634460A9D07
:10E4D000029802E0FCF71AFE641C03998842F9D204
:10E4E000A74200D93C460B98C00718D1002D16D082
:10E4F0000B98800701D5002F02D0202000900CE05F
:10E500003020FBE76D1E0099019800F047F8019854
:10E51000C06800283DDB002D01D0AC42F2D3019849
:10E52000C068002835DB012F01D97F1E06E0314687
:10E530000298FCF7EBFD0399884202D30398464307
:10E54000F1E7154F31460298FCF7E0FD0146029ACB
:10E550007143511A0291395C019800F01FF801983B
:10E56000C068002805DB30460399FCF7CFFD0600A4
:10E57000E8D10B98C0070CD0002D0AD0AC4208D2CD
:10E5800020216D1E019800F009F80198C06800284C
:10E59000F2DA05B0F0BD00003019020010B50446F3
:10E5A00080686368421C934205D323681954A260B3
:10E5B000E068401CE060A2686068824209D121687E
:10E5C0002069FEF7C5FFA168884203D00020C04340
:10E5D000E06010BD0020A06010BDF7B5064682B017
:10E5E00000200090F46817463069A04201D9051B4D
:10E5F00002E0B168201A0D1AB0686D1E001BA84217
:10E6000000D80546BD4200D33D4670682A46001931
:10E610000399FCF7A5FD00987F1B40190090039813
:10E62000641940190390B068A04200D10024F4603E
:10E63000002FD9D1009805B0F0BDF7B5C6681746D0
:10E6400004468068851B6068BD4206D9801901991F
:10E65000FCF786FDF019E060FEBD2A46801901999D
:10E66000FCF77EFD01987E1B411932466068FCF77D
:10E6700077FDE660FEBD30B47446641E2578641CE8
:10E68000AB4200D21D46635D5B00E31830BC184707
:10E6900002E008C8121F08C1002AFAD1704770476B
:10E6A000002001E001C1121F002AFBD170470000C9
:10E6B000202804DA012181400348014201D00120D1
:10E6C0007047002070470000FC06FFBC10B5124CDC
:10E6D000207803281FD1A0680028E06802D0A16834
:10E6E00040184008A060A0680C49884201D90C4835
:10E6F00003E0A068FF22A5325043FCF707FDFF218D
:10E70000F531884200D908460349091D08800420D4
:10E7100020700020A07010BD202100204D030000BB
:10E72000546A050070B5017800292FD101890025B0
:10E73000022916D946680024725F104609E063007A
:10E74000F35E834200D21846934200D91A465D19FF
:10E75000641CA142F3D8AA1A101A891EFCF7D6FC31
:10E7600002E041680020085E0949C860CA6809A142
:10E770000020FEF739FF0D49202208781043087069
:10E780008006C20F0AA10020FEF72EFF70BD000018
:10E7900020210020746573745F6164635F76616C2F
:10E7A0007565203D202025640D0A0000D020002042
:10E7B0006170705F6D6576656E742E622E73746F16
:10E7C000705F6164635F7374203D202025640D0ACF
:10E7D0000000000010B50E4801210278002A08D080
:10E7E000012A09D0022A0DD0032A0ED0002101707F
:10E7F00010BD817007A101E081700AA10020FEF721
:10E80000F3FE10BD81700AA1F8E781700BA1F5E756
:10E810002021002052542052454645522041444375
:10E820000D0A00004E5443204144430D0A000000ED
:10E83000534F4C4152204144430D0A00424154542D
:10E84000455259204144430D0A00000070B5144957
:10E850000020124B0860134908608C681248427C03
:10E86000C5685600521CAC53D2B24274047CA2421A
:10E8700012D2846800226468002C0AD001228460CD
:10E880002068486001200860002A00D0186000203D
:10E8900070BD44688460F3E7012070BD00700040E3
:10E8A00000710040007500407C250020F8B52F4C19
:10E8B000032760782E4E012815D02E4D022839D01E
:10E8C000032836D12CA10020FEF78EFE2878810681
:10E8D0002FD5DF210840287001250420F060207822
:10E8E00003283AD135E027A10020FEF77DFE284815
:10E8F0002849006800906846077001F067FE00280C
:10E9000001D000F0CBF92078032805D10420B060B5
:10E910001648103001F04AFE14480421183001F066
:10E9200001FE002801D000F0B9F901F06FFE0220CD
:10E930006070F8BD18A10020FEF756FE287880060A
:10E9400005D401F063FE0A2002F074FDF8BD677083
:10E95000F8BD0648103001F017FE1349002008608A
:10E9600001F05AFE6570FFF7B1FEF8BD20210020CE
:10E9700000050050D02000204144432053544F5004
:10E980000D0A00004144432053544152540D0A00E3
:10E99000401C020025E701004144432053414D50F3
:10E9A0004C494E470D0A000004070050F7B584B0EB
:10E9B000064600251788158020300290407B1446BB
:10E9C000002806D03A462146059800F02FFD0500A4
:10E9D00009D1B078002823D0059886462088001DEC
:10E9E000B84202D90C2007B0F0BD684679DF002894
:10E9F000F9D1218803207246505420881921401CE7
:10EA000080B22080115420887146401C80B2208042
:10EA100041186846008802F02AFE218840182080AC
:10EA2000F078002817D0218803230A46F356C91C22
:10EA30000598B942D6D80221815421880122491C67
:10EA400089B2218042542188491C89B221804354D3
:10EA50002088401C20807068002817D0218800235F
:10EA6000C3560A46C91C0598B942BBD80221815435
:10EA700021880A22491C89B2218042542188491CDC
:10EA800089B2218043542088401C2080308900288E
:10EA90000AD0009430460197062202210830059BD7
:10EAA00002F032FE05009ED1308A00280AD0009480
:10EAB00030460197072203211030059B02F024FE07
:10EAC000050090D1308B00280AD000943046019781
:10EAD000152214211830059B02F016FE050082D184
:10EAE000306A002806D03B462246059901F026F8F8
:10EAF0000500D8D1706A002806D03B462246059909
:10EB000001F000FC0500CED10298007B002807D060
:10EB10003B4622463046059902F09EFA0500C2D1D6
:10EB20003078002807D03B4622463046059901F050
:10EB300077FC0500B7D1284655E70000174A0021A9
:10EB4000535C002B01D0012203E0491C0629F7D3B6
:10EB500000221349012806D002280BD0032810D028
:10EB6000042818D112E04878002803D0002A01D0E8
:10EB7000012070478878002803D0002A01D00220A5
:10EB80007047C878002801D0032070470879002812
:10EB900001D0042070470020704700001920002099
:10EBA0000823002070B5AEB03C2101A8FCF7F1FAB3
:10EBB00002206946087100258D710620C8713C212C
:10EBC00010A8FCF7E6FA012410A90C821F48159042
:10EBD00020211FA8FCF7DDFA18A9CC7719208001A5
:10EBE0001A4C2390241D249527A871DF28A9887822
:10EBF000401C887027A9002070DF002127A82CAABC
:10EC000005235E1A361876785654491C0629F8DB17
:10EC1000204606222CA90C30FCF7A2FA592120A884
:10EC200081840A481221001D2B9020A8018529A863
:10EC300000951990064B1FAA10A901A800F04AF9E7
:10EC4000002801D000F02AF82EB070BDBA200020B4
:10EC5000190D020009A1012001F06CFF01F0BEFEB8
:10EC600001F0C2FE0028FBD100BEBFF34F8F0A495E
:10EC70000848C860BFF34F8F00BFFDE74150505FA9
:10EC80004552524F523A4552524F523A4661746180
:10EC90006C0D0A000400FA0500ED00E00EB500213D
:10ECA000029000916A4601910148FFF7D3FF0EBD23
:10ECB00001400000094B5B68002B07D0002A07D0F9
:10ECC000002805D00068037C002B03D00820704783
:10ECD000072070474174426100207047582000208F
:10ECE000FFB507469007002581B01E461446002850
:10ECF00025D1002C23D002F0F9F83046114EF060F7
:10ED0000304610300570457002998170446075601E
:10ED1000357001240C48757024050460032114200B
:10ED2000FDF7D8FE09480460094CA76003211120B3
:10ED3000FDF7D0FE6068B060002005B0F0BD072090
:10ED4000FBE700004820002080E200E000E100E056
:10ED500000150140FEB51F4B5B68002B30D000282A
:10ED60002ED0052901D20720FEBD4369002B27D0F4
:10ED7000437C012B26D000270291044600256946DA
:10ED800016460D70684600F03DF801A802F0A6FC9A
:10ED9000002819D0012101700F4944604968816041
:10EDA000029907614661C16068460A490079487066
:10EDB0006846007800F044F802F08CFB2846FEBD5F
:10EDC0000820FEBD0F46D7E768460425007800F00E
:10EDD00037F8F3E7582000200015014010B5084926
:10EDE000496800290AD0002808D04169002905D0C7
:10EDF00000210174022102F095FB10BD082010BD16
:10EE00005820002030B5EFF3108172B6094A5468DB
:10EE10000123002C04D00370002900D162B630BD5C
:10EE20005360054B1D68054C254015601C60002291
:10EE30000270F1E76C20002080E100E0FC06FFBCDE
:10EE400008494A68002A0CD000280AD1EFF3108044
:10EE500072B60A68044B1A6000224A60002800D18A
:10EE600062B670476C20002000E100E0F0B50C466F
:10EE700093B01F216A461180072600279180002841
:10EE800009D0C17849070DD502A9FFF78FFD0028E9
:10EE900009D102AD01E000251780002C0ED0E078EA
:10EEA000002802D0304613B0F0BD01AA0AA92046BE
:10EEB000FFF77CFD0028F6D10AAA02E0684600228E
:10EEC000878068468088C3B268460088C1B22846F9
:10EED00072DFE8E7FFB581B01E460A9F13460400C3
:10EEE00047D0002B45D0504D012028700020E870FD
:10EEF000202219464D48FCF733F900206F61C043CA
:10EF00002E612881284607211830FCF742F947482E
:10EF10003C212030FCF73DF9444821782030017035
:10EF2000A1788170E178C170617841703F4A65696C
:10EF300023695563114613632031E368A268CB60EF
:10EF40008A603A49E369A269CB638A63616A0029EE
:10EF50001AD001463C310246483241628A60636AF7
:10EF60001B880B80616A436A898899800021436A03
:10EF700007E00E2005B0F0BD656AAD686D5C5554C4
:10EF8000491C9D888D42F7D8A16A00291CD0274AC8
:10EF9000943211460C398A608162A36A9B888B8007
:10EFA000A16A836A098819800021836A04E0A56A3E
:10EFB000AD686D5C5554491C9D888D42F7D82C2155
:10EFC0000A5D1A4940310A73216A002909D016499D
:10EFD0000A310162226A52884A80216A026A0988DB
:10EFE00011806168002900D04160104A0E4900205C
:10EFF000B3322031C3001B1A85009B180C68401CDB
:10F0000063510828F6DB094A0020EB320301850032
:10F010009B188C68401C63510828F7DB0348029951
:10F020002030FFF723FFA5E7002000200823002061
:10F0300010B50188134C102915D0112919D01B299E
:10F0400010D1007A00280DD1E0780521401CFCF792
:10F050005DF8084600F018F8002803D0616900291F
:10F0600000D0884710BD817D0129FBD18088208197
:10F0700010BD00216171808821898842F8D101206A
:10F08000E8E7000000200020F1B53F4C88B0207870
:10F0900000280AD00898E07006A800F0F7FD06984E
:10F0A0000125002804D065706AE0082009B0F0BD91
:10F0B0003548002707211830FCF76BF8334E70787D
:10F0C000002802D0E078012807D0B07800280CD0C2
:10F0D000E078012801D0022807D12169002903D056
:10F0E00025710820884700E027710898FFF726FD62
:10F0F000E0702169002909D0032801D0042805D136
:10F100003078002802D06079002811D0A77118212A
:10F110006846FCF73EF8684607700772E1781A48BF
:10F120000B001830FFF7A7FA052E080F191D200055
:10F13000A57107208847EAE7A57001906846057029
:10F140004782078213E00221A17001906846057092
:10F15000B18941823189018209E0684601F0C4FF2A
:10F1600002E0684601F0ECFFE078002803D0684632
:10F1700073DF00289AD12169002901D0A07888473F
:10F18000002093E7A770F6E7002000200823002066
:10F1900070B50D4604461300FFF76DFA05041424FC
:10F1A00034526100024630A10020FEF71DFA00260D
:10F1B00005E0AA5D36A10020FEF716FA761CA642ED
:10F1C000F7DB4CE0024634A10020FEF70DFA0026E2
:10F1D00005E0AA5D2EA10020FEF706FA761CA642E5
:10F1E000F7DB3CE0024637A10020FEF7FDF90026E0
:10F1F00005E0AA5D26A10020FEF7F6F9761CA642DE
:10F20000F7DB2CE0024639A10020FEF7EDF90026DD
:10F2100005E0AA5D1EA10020FEF7E6F9761CA642D5
:10F22000F7DB3AA10020FEF7DFF93C4D00242A5D10
:10F2300017A10020FEF7D8F9641C102CF7DB0EE0B4
:10F24000024637A10020FEF7CFF9002605E0AA5DAF
:10F250000FA10020FEF7C8F9761CA642F7DB39A102
:10F260000020FEF7C1F970BD6F726967696E616C4D
:10F270002064617461206C656E677468203D202590
:10F28000642E2064617461203D200D0A000000009E
:10F2900025303278200000006461746120656E635F
:10F2A000727970742064617461206C656E67746833
:10F2B000203D2025642E2064617461203D200D0ACC
:10F2C0000000000063726320636865636B20646103
:10F2D0007461206C656E677468203D2025642E2063
:10F2E00064617461203D200D0A0000006165732097
:10F2F00064617461206C656E677468203D202564CC
:10F300002E2064617461203D200D0A000A6165733E
:10F31000206B6579203D200D0A000000F4200020BC
:10F3200073656E642064617461206C656E677468D7
:10F33000203D2025642E2064617461203D200D0A4B
:10F34000000000000D0A000070B5054601461C22B1
:10F350000E48FBF705FF0E4C002626702968002991
:10F3600006D00822201DFBF7FBFE201D7ADF02E0FD
:10F370000748001D7BDF002807D1401E60806670B3
:10F38000044A00210448FFF795FC70BDD4240020F6
:10F390003020002079160200D8180200F8B5214C60
:10F3A0000146028800261E48E589102A13D01E4F08
:10F3B000112A1FD0122A2BD0502A1AD1881DC98891
:10F3C000A94216D14189022913D10C3000F0FEF870
:10F3D00000280CD112E08A88044642801048082296
:10F3E0000C301831FBF7BCFE6670002D01D100F027
:10F3F000EDFBF8BD0021C943418046703868FFF736
:10F40000EDFC0028F5D0A1690029F2D08847F8BDAD
:10F41000034808220C300831FBF7A2FEE7E70000A2
:10F4200030200020D4240020D81802007CB50546E6
:10F4300008880C460930904201D90C207CBD6846F2
:10F4400071DF0028FAD121880820685420881B2108
:10F45000401C80B220802954208800A9401C80B222
:10F460002080401906220131FBF77AFE2088694688
:10F47000801D80B220800978002900D00121295404
:10F480002088401C208000207CBD000010B5044670
:10F49000FFF784FF2146054800F040F8204601F0C0
:10F4A0004BFC2046FFF7C4FD10BD00008022002069
:10F4B00030B5184B0D4604000FCB85B003936B4657
:10F4C00007C324D0002D22D00020C043A08228688A
:10F4D000A0610020A0752146684663DF002814D192
:10F4E0000121684681740C490182A21C04A90120F3
:10F4F000A0DF002809D12946204601F019FD002887
:10F5000003D12946204602F071F805B030BD0E2027
:10F51000FBE70000DC1802001019000010B50028FD
:10F520001BD0002919D00A88102A17D0112A17D009
:10F53000502A12D104468A1DC888238A1231984263
:10F5400002D15389022B0FD0A388984205D1A36919
:10F55000002B02D052892046984710BD898801E0CF
:10F560000021C943818210BD084600F02FF8002811
:10F5700000D00120A07510BD07B584B000280DD0C3
:10F58000828A114B9A420BD0827D002A08D06A46AB
:10F59000128B142A06D9072007B000BD0E20FBE706
:10F5A0000820F9E7002200920192029203928289D8
:10F5B0006B461A80039106A9029101219970808AF5
:10F5C0006946A6DFE8E70000FFFF00004178027807
:10F5D00008021043C007C00F7047000070B50D4D02
:10F5E000144628780219802A07D80B4A1018224698
:10F5F000FBF7B6FD287800192870C1B26C70064878
:10F60000FEF724FB012803D10021042001F0C2FDF4
:10F6100070BD0000042100209030002070B50C4621
:10F62000054607E0142229460648FFF7A5FF143CCB
:10F63000A4B21435142CF5D8224629460148FFF708
:10F640009BFF70BD8022002005490B5C05494A687C
:10F6500001209840034693438B601040C860704778
:10F66000A41802000005005010B50349085C0121F0
:10F6700001F070F910BD0000A418020010B5034994
:10F68000085C002101F066F910BD0000A41802001A
:10F690000549095C05484068C840C007C00F00D054
:10F6A0000120012148407047A418020000050050C5
:10F6B00010B500242046FFF7D7FF641C042CF9D3B3
:10F6C00010BD10B500242046FFF7D8FF641C042CA1
:10F6D000F9D310BD0246002010B5C043054B0021F0
:10F6E0005C5C944201D1084610BD491C0429F7D343
:10F6F00010BD0000A8180200F3B581B00D460198B6
:10F70000FFF7E8FF0446042813D21D481D4F1E4E84
:10F71000002D27D0012D0DD0022D0AD16000201818
:10F72000C0194578002D04D0F168002901D0284681
:10F730008847FEBD610061187D5CCF19797800298A
:10F740000BD071680A2251430F4A8068921CFFF760
:10F7500001FB002801D10198B0700B48B978103036
:10F760000155DFE78068FFF739FB07486100611842
:10F770001030C919005D8D78A842D3D0FEBD0000BD
:10F78000AC180200DC220020EC1F002010B5054A56
:10F790000146127A0020D20702D0084600F018F87D
:10F7A00010BD0000EC1F0020FF2002490130C8609E
:10F7B000704700000005005004494A68FF200130EE
:10F7C000034693438B601040C860704700050050AB
:10F7D000F8B55D4C054660780026002803D000206F
:10F7E0006070FFF765FF0120584F2B00FEF743FFC5
:10F7F00018970D0D2E3D4A5F64686F686FA9777783
:10F80000777777979A9DA0A9A9950020FFF740FFE9
:10F8100000280AD00020FFF727FF022D02D1E120A7
:10F82000C0000BE07D20400108E00020FFF726FF2C
:10F83000022D01D1C82001E0FF2091302570642104
:10F84000FBF764FC6168414300222BE00020FFF7D6
:10F850001FFF002805D00020FFF706FF19204001F8
:10F86000ECE70020FFF70AFFE4E70020FFF710FFB6
:10F87000002803D00020FFF7F7FED3E70020FFF7B2
:10F88000FDFED9E70020FFF703FF002803D000208A
:10F89000FFF7EAFE02E00020FFF7F0FE2570606847
:10F8A000410000223868FFF755FA064635E000208F
:10F8B000FFF7CAFE257007E000203FE025702CE02E
:10F8C00060700120FFF7C0FE00226168EAE7607007
:10F8D0000120FFF7B9FE606881004118E1E7786810
:10F8E000FFF77CFA06461120401B01D0002E03D002
:10F8F0000220FFF7B9FE10E001280BD9C8214843C8
:10F900006421FBF703FC6168002241437868FFF73C
:10F9100021FA06460220FFF7B1FE3046F8BDFFF798
:10F92000C7FECBE7FFF7C4FEC6E7FFF7C1FE04E062
:10F93000FFF7BEFE0020FFF7A1FE0120FFF79EFEAD
:10F94000BCE7FFF7BEFEB9E7EC1F0020AC180200D1
:10F9500010B5FDF787F80020044A01461154401CF9
:10F96000C0B20828FAD30248017010BD61210020FE
:10F9700060210020F8B50D46461C0020694608703D
:10F9800001246846FFF73EFA134A106828601168A0
:10F9900050689368081A1D1A701C6D1CA84212D971
:10F9A000002D0ED00D480E4C0088246880051940AB
:10F9B000800DA402890020438918C8601068401C8B
:10F9C0001060002401E08819106068460078FFF795
:10F9D00037FA2046F8BD0000F82500200C19020077
:10F9E00078200020034803C8814201D101207047DC
:10F9F00000207047F82500200022D24383000449EC
:10FA00000428CA5002D3081820300277704700003B
:10FA100004250020024909182020085670470000DC
:10FA20000425002030B5084C0122235C15468D408A
:10FA3000AB43235401D0002030BD824003480178FD
:10FA400091430170012030BD612100206021002020
:10FA500070B5084C050009D010342168002907D082
:10FA600008682060496828468847F6E70834F4E7C4
:10FA700070BD0000F024002010B500F01FF900F068
:10FA80005BF9FFF765FF01F05BFC00F0D3F80120A4
:10FA900010BD0000F8B52348416800293ED00E682B
:10FAA00021494C6887688078E11B0D022D0AED1C06
:10FAB000002814D101201D4A000450601B4A403A1E
:10FAC00050601B49400008601A4908601A4901202B
:10FAD00008602F2000F00EFD124901208870B54209
:10FAE00000D23546E81900020F4B000A4033186077
:10FAF0000D4A5168001B091B0902090A0002000A8D
:10FB0000C91C814209D9506818602F2000F0F2FC0E
:10FB100001200749400480390860F8BD01F0E6F98A
:10FB2000F8BD0000482000200015014040130140AE
:10FB300080E200E000E100E000100140F8B5064678
:10FB4000108814468446801D0D46984201D90C2029
:10FB5000F8BD32880720062AFAD31927FF01184B6F
:10FB6000BA4201D99A42F3D171880629F0D3B94239
:10FB700001D99942ECD19A4203D0994201D08A42EC
:10FB8000E6D805216046295420881221401C80B205
:10FB9000208029542088401C80B220804119308860
:10FBA00001F065FD2188401880B2208041197088DD
:10FBB00001F05DFD2188401820800020F8BD000084
:10FBC000FFFF000010B5FFF769F810BDF8B5164843
:10FBD00000F06EF9144D00260C3D144C002807D09F
:10FBE000616900291CD001206A461070684616E041
:10FBF0002878002805D06169002911D06846067070
:10FC00000DE0687800280DD0A1680948002200683E
:10FC1000FFF7A0F8002803D0A169002900D0884789
:10FC20002E70F8BD6168F0E73C200020D42400204D
:10FC3000D81802007047000010B50E4900230A785A
:10FC40004C78A24212D0521CD2B20A70022A00D1C1
:10FC50000B700A78074B920018339A580260886834
:10FC600010180002000A8860012010BD0360002007
:10FC700010BD00004820002010B503491020886006
:10FC8000052000F05FFE10BD00050050002804D0E4
:10FC90000349496E0160002070470320704700004F
:10FCA0009025002010B503460078012203E09C5CFB
:10FCB0006040521CD2B28A42F9D310BD10B500F098
:10FCC00047FD082000F01BFEFF201A490130886024
:10FCD0000021012000F00AFE022000F010FE0220A8
:10FCE00000F028FE0021042000F000FE042000F0B7
:10FCF00006FE042000F01EFE052000F000FE052098
:10FD000000F018FE0021062000F0F0FD072000F0B2
:10FD1000F6FD072000F00EFE032000F0F0FD0320AA
:10FD200000F008FE092000F0EAFD092000F002FEC4
:10FD300010BD00000005005010B500F05FF801F0A4
:10FD400003FB10BD10B50120FFB0000781B0406972
:10FD50006C462146801E01F0AAF868460078AA2861
:10FD60003DD168464078AA2839D18021A01C01F0F5
:10FD70007DFD002833D00822A11C1A48FBF7F0F9BA
:10FD8000214610220A311848FBF7EAF921461022D1
:10FD90001A311648FBF7E4F91448214620222A318B
:10FDA0001030FBF7DDF91148214620224A31253871
:10FDB000FBF7D6F90D48214610226A313538FBF79A
:10FDC000CFF9214605227A310948FBF7C9F90949DB
:10FDD00018A8C07F0870084920A8007848717FB033
:10FDE00001B010BDD1200020F4200020AA2D002059
:10FDF0009C2000201C210020B220002010B5054AC4
:10FE000001210548FEF756FF002801D0FEF746FF06
:10FE100010BD00007D000200381C0200F8B51E4C29
:10FE20002078002836D0E068002600280CD0002575
:10FE3000607800282ED1684652DF052806D00028B9
:10FE400006D0FEF72BFF0BE00125F1E7012607E0C6
:10FE5000009800F035FC2169002901D000988847FE
:10FE6000002D13D16078002814D16088694608807D
:10FE7000A06861DF052804D0002804D0FEF70EFF3B
:10FE800004E0012502E0E168A0688847002ECFD099
:10FE9000002DE5D0F8BD00007C20002010B5042026
:10FEA00000F050FD01492020886010BD0005005081
:10FEB000418805480288914204D34088814201D894
:10FEC0000120704700207047342000201048018C2A
:10FED000C9B2012917D1818C090714D1018D0906F6
:10FEE0000A0F03D1828D1206120F0ED0090F0129BD
:10FEF00003D1828D1206120F07D0032903D1808D02
:10FF00000006000F01D0002070470120704700005C
:10FF1000C00F00F0F0B5284C2146103948688B68B6
:10FF2000227886469C46CF78667836E0182353437D
:10FF30006168521CC918A378D2B2934200D1002242
:10FF40000B78022B02D0032B27D123E003464D6808
:10FF5000194603E0A94204D00B46C96900291CD008
:10FF6000F8E7002919D08B4208D1C069002805D1D3
:10FF7000124F0125BD600025AC4601270D68C969F7
:10FF8000D961002909D00B685B190B6005E0017489
:10FF9000C06900E000210028F9D19642C6D1064987
:10FFA000624610398A604860CF70704501D00120E8
:10FFB000F0BD0020F0BD00005820002000100140DE
:10FFC000F8B52C4E044670680025009041E0002CE6
:10FFD00002D02046E46920E026481823103001783A
:10FFE00042684B43491CC9B2D218017083789942C8
:10FFF00000D105701178506801292CD1017C0029AD
:020000040002F8
:1000000029D191684160D16881601169C1605169ED
:100010008161F178002900D045604368B268164FCD
:10002000991A0902090AB94202D28268891806E0BF
:10003000D11A09028268090A8A4202D9511A01605A
:1000400000E005604560012185600174C56101F033
:1000500049FA002CBBD10748103001784078814222
:10006000BAD171680098814201D00120F8BD00200A
:10007000F8BD000048200020FFFF7F0070B5364D1E
:100080002878401C28706878401C68700A20FBF7AC
:10009000E7FF0A20FCF704F8287864285AD32F4C8D
:1000A000A07A401CA072A07A0A2808D3A07A0A3845
:1000B000A0722B490888012801D9401E08802648D3
:1000C0004168491C4160287864382870254D002615
:1000D0002878C106002915DAA178491CA170A178F9
:1000E00002290FD3A670EF21084028701E4801781E
:1000F0001E48012902D0022902D003E0022100E0BB
:10010000012101702878C10701D1810713D5E18849
:10011000491CE180E188B4290DD3E680C00703D0F3
:100120000021062001F036F82878800703D5012148
:10013000062001F02FF8287801070BD52189491CEA
:1001400021812189E1221201914203D32681F721E5
:100150000840287070BD0000DC20002070300020B6
:10016000A2200020D02000201521002014210020F2
:10017000002388B0504A07211846FEF7B1FD002839
:1001800001D0FEF78BFDFDF7D9F94CA10020FDF75A
:100190002BFA4E48484900680590002348225C39F4
:1001A00005A801F08BF8002801D0FEF777FD6A461C
:1001B0000121002001F06AF8002801D0FEF76EFD51
:1001C000684601F011F8002801D0FEF767FD4048AD
:1001D00001F000F8002801D0FEF760FD112069460B
:1001E000087207223BA102A87CDF002801D0FEF79D
:1001F00055FD0024009410216846019401803C21A3
:100200004180FF2184809131C1807ADF002801D0B4
:10021000FEF744FD3148284900900120A8310870BC
:1002200025486946A830FFF743F9002801D0FEF7BA
:1002300035FDFEF7B7FC1C216846FAF7AAFF05203A
:10024000C00301900F20000402900094032168462F
:100250000173C481047422480590224806906846C0
:10026000FFF772F8002801D0FEF718FD002000F01B
:100270009DFA002801D0FEF711FD0320FEF704FFD0
:10028000002801D0FEF70AFD17A10020FDF7ACF908
:10029000FFF7F2FB184C194D194E03E0285C810062
:1002A0007158884720780028F8D148DF0028F9D015
:1002B000FEF7F4FCF6E70000D82100204D61696EDE
:1002C000205374617274210D0A000000A01802000E
:1002D0008DF40100414E47554D454E00DDF50100BE
:1002E000090E0200C5FB010041647620537461725F
:1002F00074210D0A0000000060210020411C020052
:100300004021002070B5144682880E46054620889C
:10031000111D4118921C994201D8FE2A01D90C20C6
:1003200070BD521C32542088FF21401C80B22080B6
:1003300031542088401C80B220808119288801F027
:1003400096F92188401880B22080AA88002A09D016
:10035000A968002908D08019FAF702FF2088A98827
:1003600040182080002070BD072070BD10B50C4CD7
:10037000002020700120607002E06078012801D127
:10038000FEF728FAA078002808D006A10020FDF783
:100390002BF9FEF78BFAA0780028EED110BD0000F3
:1003A000202100206164632073616D706C650D0A0B
:1003B00000000000F3B581B00E0029D0154908787F
:1003C000002825D0FF20144C1D3000222250012788
:1003D000A760154619E00F4A1078002817D0FF21B2
:1003E0001D31002060500198435D0C48C36103E05B
:1003F00008480078002806D0FF211D31204600F073
:100400007EFC0028F4D06D1CEDB2B542E3D3E7606A
:10041000FEBD00000C21002000200040002500400F
:10042000F8B50F46017814460546012902D16878CF
:10043000002806D02088821C9A422DD8012902D09B
:1004400006E00720F8BD69784118891C994223D835
:10045000181A801E86B2684606802188B81C0818C3
:1004600069467DDF0028EDD12878022805D169464C
:100470000988B14201D809210AE00821012805D1E3
:100480006878B04202D86A46108001E0684606806B
:1004900068460088FE2801D90C20F8BD2288401C3F
:1004A000B8542088401C80B2208039542088694686
:1004B000401C20800988401820800020F8BD0000E2
:1004C000034940180068002800D001207047000050
:1004D00000700040C20843075B0F0120895C984010
:1004E000084070470121890740180068002800D0A3
:1004F0000120704700280FD00849094A096800BF49
:1005000000BF00BF00BF00BF00BF00BF00BF9142DF
:1005100000D000BF0138F2D17047000078210020E0
:100520000024F40070B5144CA27C022A16D00222DA
:10053000A2746268A260217400216174E0600F48B7
:10054000126842600E4A8615116001250560206818
:10055000002805D00B49012048600BE0112070BD38
:100560003046FFF7ADFF0028FAD0FEF76FF90028FC
:10057000F6D0A574002070BD7C25002000750040D9
:100580000071004000730040074B0022596801E0F1
:100590000A4649688142FBD14868002A01D0506070
:1005A00070475860704700007C2500200021064AF3
:1005B00041605168002902D15060704711464A6875
:1005C000002AFBD1486070477C25002070B50C4D97
:1005D0000C46A97C002901D0082070BD094A0021E1
:1005E0001160002C06D0002800D1074801780720B0
:1005F00000F06CF801202C60A874002070BD000091
:100600007C250020007100400819020001490120EA
:10061000086070470070004010B5002005490122B5
:10062000054C802348602360044B9A60044B1A6099
:10063000887410BD7C25002080E100E0007300403C
:100640000470004070B50E4C00252078002801D0C1
:10065000852513E00021A16061602161E160094806
:1006600000680126304002D1032100F02FF800F08D
:1006700061FE002801D1044886612670284670BDBD
:10068000F024002000E100E00005004038B5002023
:10069000694608706846FEF7B5FB084C20780028CC
:1006A00001D1FFF7CFFFE068401CE0600120A0709F
:1006B00068460078FEF7C4FB38BD0000F024002037
:1006C00010B5002801D1FFF7C3F910BD8207D30E82
:1006D000FF229A408907090E10B5994000280BDACD
:1006E00003071B0F083B9C080C4BA400E318DC69B4
:1006F00094430C43DC6107E08408094BA400E41830
:10070000236893430B432360C106C90E0120884030
:10071000044908600449086010BD000000ED00E0D5
:1007200000E400E080E200E000E100E04109074A67
:10073000890089180968C206D20E01209040014242
:1007400001D00120704700207047000000E100E068
:1007500070B5144D2879002801D0082070BD1149CA
:1007600000204039421E0B182033401CC0B21A70C2
:100770002028F8D300242046FFF73EF9641CE4B299
:10078000082CF8D303210620FFF7A0FFFF207D30BF
:1007900000F000F901200449C007486001202871D9
:1007A000002070BD442500200063004038B5124C85
:1007B0002178002901D0852038BD002800D10F48BC
:1007C0000D4902784A7040788870002069460870A8
:1007D0006846FEF717FB00F0ADFD002803D100F0DE
:1007E0003DF800F055F868460078FEF729FB012037
:1007F0002070002038BD000044200020F0180200C6
:10080000F3B5144E81B00F46002568460570FEF71B
:10081000F9FA00F08FFD00280BD068460078FEF74B
:100820000FFB394601983ADF0446B0420DD105244A
:100830000DE03A460848019900F040FA044600F0FD
:1008400027F868460078FEF7FBFA022CDDD0204638
:10085000FEBD000007200000F418020010B5094892
:100860004178002904D008494A6801231A434A60A4
:1008700006490A68520852000A6081780D20FFF785
:1008800025FF10BD4420002000D5004000D20040CC
:10089000054A002003491060044A012050600860A6
:1008A0007047000000D0004000D1004000D300405D
:1008B00002490120886002490860704700D3004067
:1008C00004D0004070B552000A439900049D0A43C9
:1008D0002902059E0A43310405240A4324078000A7
:1008E0000721001909024018026070BD1CB50022E2
:1008F0000B46009211460192FFF7E4FF1CBD1CB5A8
:10090000002100910B46012201911146FFF7DAFF09
:100910001CBD052212078000821807200002101853
:10092000026803231B049A430260026809040A4315
:1009300002607047012181400148C160704700009A
:1009400000050050012181400148C160704700004E
:1009500000050050012282400348002901D0826036
:100960007047C260704700000005005038B5084B62
:1009700005241B68009324026B46411805E085009E
:100980005D592D192D69401C20C28142F7D838BD10
:10099000EC18020002494018002101607047000075
:1009A00000600040034940180068012800D0002082
:1009B000704700000060004070B5074D044628787D
:1009C000002802D06878844204D0FCF7B7FD0120EB
:1009D00028706C70002070BD7420002010B50120BC
:1009E000FFF7EAFF10BD0000F0B595B0FEF7FAFF83
:1009F000002802D0002015B0F0BD4B48446886683E
:100A000021463140890009180C94CD680BE0290477
:100A1000A80D890D40180419204630408100424835
:100A20000C940818C568641CA807F0D00020089032
:100A3000A807800F3D4B022807D0AA0AA805000F7F
:100A400084460EA99646002059E020463040810099
:100A50003548641C0818C068049486462804800D34
:100A600084463440301B8000AF0D001D874222D9E0
:100A70002D490C31002807D02B4AA400A218144697
:100A80000C34C2B2381A03E00C460021FAB2084610
:100A9000C0B20390019202910094A8065C69400FD5
:100AA000634672460899A047B84213D1FF1C0498C8
:100AB000B9080C1830E01C48A200101800210C30B6
:100AC0000090029101970391A8065C69400F63466C
