:020000040001F9
:10B00000503A0020D5B00100EFB00100F1B00100CE
:10B010000000000000000000000000000000000030
:10B02000000000000000000000000000F3B001007C
:10B030000000000000000000F5B00100F7B00100C2
:10B0400079CB0100F9B0010019DA0100F9B0010073
:10B05000F9B00100000000006DC2010089B20100DA
:10B06000F9B00100F9B00100F9B00100F9B0010038
:10B07000F9B00100B9D50100F9B00100F9B0010043
:10B08000F9B0010019D60100F9B00100F9B00100D2
:10B09000D9D80100F9B00100E1D80100F9B00100F0
:10B0A000F9B00100F9B0010000000000000000004C
:10B0B0000000000000000000000000000000000090
:10B0C0000348854600F0A2F800480047ED02020060
:10B0D000503A00200321094802680A4302600848E8
:10B0E00002680A4302600748804707480047FEE7B6
:10B0F000FEE7FEE7FEE7FEE7FEE70000240500406E
:10B100005405004079D90100C1B0010030B50B46AB
:10B11000014600202022012409E00D46D5409D4231
:10B1200005D31D469540491B2546954040191546B7
:10B13000521E002DF1DC30BD70B5002425460028DC
:10B1400001DA01244042002901DA01254942FFF7D2
:10B15000DDFFAC4200D04042002C00D0494270BD1F
:10B1600003460B439B0703D009E008C9121F08C020
:10B17000042AFAD203E00B780370401C491C521ECB
:10B18000F9D27047D2B201E00270401C491EFBD2D6
:10B1900070470022F6E710B513460A4604461946E2
:10B1A000FFF7F0FF204610BD30B505462A460B4696
:10B1B00010781C78521C5B1C002801D0A042F7D0EC
:10B1C000002C03D0002802D06D1CEFE7284630BDCC
:10B1D000421C0178401C0029FBD1801A704730B511
:10B1E00004460020034600E05B1C934203D2E05C6F
:10B1F000CD5C401BF8D030BD03460A780270401C7D
:10B20000491C002AF9D1184670470000064C012558
:10B21000064E05E0E36807CC2B430C3C98471034FE
:10B22000B442F7D3FFF750FF3C2402005C24020035
:10B2300070B58C180578401C6B075B0F01D1037843
:10B24000401C2A1106D10278401C03E006780E70DB
:10B25000401C491C5B1EF9D12B0705D40023521E4C
:10B260000DD40B70491CFAE70378401CCB1A921CD2
:10B2700003E01D780D70491C5B1C521EF9D5A142DC
:10B28000D8D3002070BD0000FEB5134C0026E06846
:10B290000125124F002810D003F06AFB00280BD0C4
:10B2A0000120B86068460670E0680190217C68461D
:10B2B0000181A57421688847FEBD09480660012008
:10B2C000B8600848066069460D7080688880A5747B
:10B2D00068462168EFE700008825002000730040E1
:10B2E0000071004000750040FFB581B0044603982E
:10B2F0001D4606070F46360F204600F049FE194846
:10B30000002D046002D0456001F0A8FA0A980028D8
:10B3100001D01449886000250FE03946204600F02E
:10B3200037FE1048046001F063F8204603F0D2F8BD
:10B330000C48103410358760103703988542ECD3E1
:10B34000002E0CD03946204600F022FE1020811B32
:10B35000A019FFF71EFF0348046001F049F805B08B
:10B36000F0BD000078210020FFB581B016071D4612
:10B3700017460446360F029900F00AFE1948002DC0
:10B38000046002D0456001F069FA0A98002801D0F3
:10B3900014498860002511E0029803F09BF82046CC
:10B3A000029900F0F5FD0F48046000F023FF0D48FE
:10B3B000846002981034103010350290BD42EBD3F7
:10B3C000002E0CD02046029900F0E2FD1020811BD7
:10B3D000A019FFF7DEFE0348046000F00BFF05B084
:10B3E000F0BD000078210020FFB581B0154604466D
:10B3F0000746884202D02046FFF7B2FE64192E09A4
:10B400000CE0012E18D02046103800902146102262
:10B410000846049BFFF768FF761EF6B2103C002E2C
:10B42000EFD178192038C07FA84207D2002805D074
:10B43000281AC0B205B0F0BD0A98E6E70020F9E787
:10B44000FFB50D46144611090A011032D6B2220783
:10B450001021120F85B0891A0E9F0091A84204D0C6
:10B46000014622462846FFF77BFE102101A8009ADC
:10B47000FFF788FEB44204D2321B281901A9FFF756
:10B480006FFEB44204D12819102201A9FFF768FE0B
:10B4900034090AE02946009710220846089BFFF766
:10B4A00063FF641E2F46E4B21035002CF2D1304603
:10B4B00009B0F0BD000900011030C0B270470000B3
:10B4C000F8B5304C0746E27F2FA100F07BFE254601
:10B4D00000262035002805D02D480422017811438C
:10B4E000017046E02749E27F5D39384600F06AFE88
:10B4F000244CE03C0028607D3ED0022805D0032883
:10B5000003D00F2801D010280AD1142221A13846D7
:10B5100000F058FE00280BD01FA1002002F0F2F826
:10B52000607D062806D00B2804D0152802D00CE038
:10B5300020A10FE0412217A1384600F043FE002869
:10B5400007D024A1002002F0DDF8607D142809D086
:10B550000FE027A1002002F0D5F83946002002F0C4
:10B56000D1F80BE01E222AA1384600F02BFE00285D
:10B5700004D06E700420F8BD0F2801D00220F8BD61
:10B580000020F8BDC42E00204C6965726461000083
:10B59000D02000204F4B000061742B6366756E3F16
:10B5A0002F61742B63676174743F206F6B20210DD2
:10B5B0000A00000061742B6366756E3F2F61742B67
:10B5C00063676174743F206572726F7220210D0A87
:10B5D0000000000061742B6367736E3D312F61744E
:10B5E0002B6E63636964206F6B20210D0A000000DD
:10B5F00061742B6367736E3D312F61742B6E6363CF
:10B600006964206572726F7220210D0A00000000CB
:10B610002E00000010B51049097C00290CD001282B
:10B6200008D108460D4C00F0FFFD217A012282402E
:10B6300011432172032010BD0848017A002906D069
:10B640000021017206A1002002F05CF801E0062151
:10B650000170002010BD0000E42D0020A42C00206B
:10B660004576656E74206973204572726F72200D85
:10B670000A000000F0B500259BB0064668462C463F
:10B6800005702746642101A8FFF783FD002E2ED107
:10B6900069460C7110224A71164901268A7869465A
:10B6A0008A71CC710C724C728C72134A01A80721FA
:10B6B0005319FF3321339B784354491C6D1CEDB261
:10B6C000C9B2142DF4D34654491CC9B24454491C80
:10B6D000C9B24654491CC9B2465452190021FF321E
:10B6E0004132D2784254891CC9B20629FAD338466D
:10B6F0001BB0F0BDE42D0020A42C0020F8B50446BA
:10B700004578407A012832D0207A042830D00328A6
:10B710002ED01848867DF0212046FFF73AFD012003
:10B720006072657000202072134FA6702D01EE1913
:10B73000307BE070B0887D21C900484360602046BE
:10B740000A3000907959FFF757FD7859FFF740FD0F
:10B7500025466035A87320466F30B168FFF74CFD71
:10B76000A97B009804F0F4FEA078401CA070F8BDFE
:10B770000026D0E7E42D00200C1B0200F8B53D4C5C
:10B780008646A078032812D23B493C4E095C307FA4
:10B790002346C0333A4A002501278446042807D0AF
:10B7A0006046032852D00720207037757175F8BDA8
:10B7B000152902D0172933D123E032A17046FFF7B3
:10B7C000F3FC074631A1002001F09CFF002F27D099
:10B7D000B57000203918497930390A2903D2401C44
:10B7E000C0B22028F6D33818417928460A2250439F
:10B7F00030380818C2B2B27027A1002001F082FFD1
:10B800000EE01C48617AC77A0120B840032902D1B2
:10B81000317C81433174217A8143217215701D83FB
:10B82000A078401CC0B2A07003280CD30020FFF702
:10B83000F1FE002803D005202070A570F8BD062079
:10B8400020702573F9E705202070F8BD0C481729F2
:10B85000007809D0162901D0032802D91570277065
:10B860009D76A7702573F8BD05212170401C1070CE
:10B87000F7E70000A42C0020DC1A0200E42D0020D1
:10B88000902000202B4353513A000000636D642048
:10B890006373710D0A000000637371203D202575EC
:10B8A0002E0D0A00F8B5154CA1780D290FD21448B9
:10B8B0000026425C1348037F0546803D042B07D0D9
:10B8C0000127032B12D00721217007754275F8BD9F
:10B8D000491CC8B2A0700D2805D306202070A670A0
:10B8E00002202877F8BD03202070F8BD06A10020B3
:10B8F00001F008FF2770A670AE76F8BDA42C0020DA
:10B90000BC1C0200E42D0020436F6E6E6563742042
:10B9100052657365740D0A00F8B5144CA1780529B9
:10B920000FD213480025425C1248037F0646803E32
:10B93000042B07D00127032B0FD00721217042755C
:10B940000775F8BD491CC8B2A070052802D30420B1
:10B95000207007E002202070F8BD07A1002001F050
:10B96000D1FE2770A570B576F8BD0000A42C00208C
:10B97000DF1A0200E42D0020496E697420526573BD
:10B9800065740D0A00000000F8B5464DA9780A2933
:10B990000DD2454A0026525C44490B7F042B07D048
:10B9A0000124032B73D0072028704A750C75F8BD4D
:10B9B000062A02D00B2A5CD12AE03DA1FFF7F4FB56
:10B9C00007463DA1002001F09DFE002F51D000242C
:10B9D00038194079014630390A2905D331391A29F5
:10B9E00002D341381A2804D2641CE4B2102CEFD3DD
:10B9F00003E0102C01D2381946712C48791D2E38DD
:10BA000022460746FFF7ACFB3B4622462DA129E024
:10BA100032A1FFF7C9FB074632A1002001F072FEF8
:10BA2000002F26D0002438198079014630390A29A0
:10BA300005D331391A2902D341381A2804D2641C9B
:10BA4000E4B2202CEFD303E0202C01D23819867108
:10BA50001648B91D1E3822460746FFF781FB3B46B4
:10BA6000224623A1002001F04DFE0021062005F012
:10BA70005FFCA878401CC0B2A8700A2804D3032039
:10BA80002870AE70F8BD02E004202870FAE71EA10D
:10BA9000002001F037FE05482C70AE7080388676A5
:10BAA000F0E70000A42C0020C91C0200E42D0020B7
:10BAB0004347534E3A000000636D64206367736E22
:10BAC0000D0A00006C656E203D2025752C20696DE7
:10BAD00065693A25732E200D0A0000004E43434944
:10BAE000443A0000636D64206E636369640D0A006C
:10BAF0006C656E203D2025752C206E636369643A69
:10BB000025732E200D0A00004D6573732052657356
:10BB100065740D0A00000000F8B5104E0024346072
:10BB20000F4D2846E0306C77827FC27707468477D6
:10BB3000014620373C700B4846390090FFF710FB58
:10BB4000042030600098FFF7BBFC2877022803D060
:10BB50007878002800D02C77F8BD00000025004040
:10BB6000E42D0020B12C0020F8B5B24DB2482C468F
:10BB70002A78A188007800902646A078FF34012713
:10BB8000C0364134130002F034FE082764A1C0C659
:10BB9000EBFE05FD207F00287ED0022801D0012881
:10BBA00005D1A07DE17D884201D30320207768780C
:10BBB0008100A2484158002902D09E480D30884794
:10BBC000207F042801D0032801D1072068709C49F8
:10BBD0000020886560771FE100295DD100280DD025
:10BBE00001281AD0022827D096A1002001F08AFD52
:10BBF0000020B0766870022129700CE19648082177
:10BC0000C1608901C16095A1002001F07BFDA87889
:10BC1000401CA8704B200001A0E08F4908208860DC
:10BC200096A1002001F06EFDA878401CA870642049
:10BC3000A88097480770EFE001208749400288609C
:10BC400094A1002001F05EFDA878401CA8709648E1
:10BC500084E0002920D1002825D001282ED0002002
:10BC6000B0766F702870A870B075217C394321744C
:10BC700028723077A072E072A0811E21E1818B4989
:10BC80004A78521CD2B24A70032AA4D34870009852
:10BC900008226949104300E09CE0087084A100205C
:10BCA00001F030FDB8E001206B494002C860AF7080
:10BCB000C820A880764900200870ADE001206649C0
:10BCC000400288600220A870322047E0002902D09C
:10BCD000009949077ED5002815D07AA1002001F0EF
:10BCE00011FD0020A8805448FB220178114001700A
:10BCF000287868700720287027755049A878491F50
:10BD0000085C60758BE075A121E06A7007212970DD
:10BD100027757849F4E7002902D00099490763D5CF
:10BD2000002813D074A1002001F0ECFC0020A880B2
:10BD30004148FB2201781140017028786870072083
:10BD400028706C492775A8780D31D9E770A10020BB
:10BD500001F0D8FCA878401CA8707348A8805BE06C
:10BD60000120FFF757FC6872002855D0297A002976
:10BD700052D0A978002900D12F73304A083A515C7B
:10BD8000162901E052E030E01AD1032818D1207CB6
:10BD900000F04AFA27490022E87271310092002827
:10BDA00002D001280AD105E00020FFF763FC5FA163
:10BDB000009000E062A1002001F0A4FC00987075E2
:10BDC000A07A032802D3A87800280BD028786870BE
:10BDD000072000E008E0287027751848A97808387F
:10BDE000405C8EE76F702F70F8BD0020FFF712FCEB
:10BDF000002802D0A87A3843A872A87A00280BD06D
:10BE000000F012FA411D2970A97A8740B943A9723E
:10BE1000062068700020A870207D0128E4D1002051
:10BE2000207507485430FFF769FCF8BD02202870E0
:10BE3000F0E70000A42C0020D0200020E41A02002B
:10BE4000A42D00206E657874207374617465206978
:10BE50006E697420210D0A0000050050636C656155
:10BE600072206E6220706F7765726F6E20616E64F3
:10BE700020726573657420210D0A000073657420BB
:10BE80006E6220706F7765726F6E20210D0A000060
:10BE900016210020736574206E62207265736574CC
:10BEA00020210D0A00000000581B000090200020F7
:10BEB000436C6F73652053746174652050726F63B7
:10BEC0000D0A0000696E6974206E6220686173203B
:10BED000737461727420210D0A000000696E697428
:10BEE0002077616974206E622073746172742021FE
:10BEF0000D0A0000BC1C02006D657373206E622089
:10BF000068617320737461727420210D0A0000004F
:10BF10006D6573732077616974206E62207374613C
:10BF2000727420210D0A000010270000696E6974E8
:10BF3000206D6573732075706C6F61640D0A00006D
:10BF40006C6F67206D6573732075706C6F61640D25
:10BF50000A000000F0B50C4A002112680B4B944611
:10BF600084006218002095008A0062442F18165C35
:10BF7000DF5D7E401654401CC0B20428F6D3491C35
:10BF8000C9B20429EDD3F0BD78210020A0310020F2
:10BF900000228B5C8354521CD2B2102AF9D3704712
:10BFA000F8B5054600272A4E4BE02A490C5C002CC8
:10BFB00006D0012C12D0022C21D0032C3BD132E030
:10BFC00025480178254802F0FDF8012803D1012118
:10BFD000042005F0ADF9204807702CE02048C17A14
:10BFE00020480C31006800F0A5F801461C48007C90
:10BFF000814220D10221042005F09AF91BE01A4861
:10C0000000901748184BC27AC0680146FFF7ECF958
:10C0100013490322C87215490F701149C96803F00A
:10C020005FF90321E7E70E48C27A417AC06800F061
:10C03000CDFDFF2809D02146284603F09BFD0128AD
:10C0400002D0705D0028B0D1F8BD0020F8BD00001E
:10C050006D210020DD1D020014210020A0300020F1
:10C060008C30002098200020042100209520002002
:10C0700010B50E490A78002A0FD0012A10D0022AE2
:10C080000AD14A78002A03D000228B1C1A804A70F9
:10C090000422C82100F03AFC10BD03F02DFC10BDB5
:10C0A00001224A7000227D21C900F3E716210020F9
:10C0B00070B5104C0546207800280ED001280FD00E
:10C0C000022809D103F09CFFE1210022C900284683
:10C0D00000F0D2FC0220607070BD05F019FA70BD4E
:10C0E00003F07CFE7D2100220901284600F0C4FCFB
:10C0F0000120F0E724210020F8B505460B4F0C4E37
:10C1000010E03C5C230002F074FB02020507FFF71D
:10C1100003FD01E0FFF728FD2146284603F02AFD34
:10C12000012802D0705D0028EBD1F8BDDD1D0200B2
:10C130006D21002010B50022064C03E00378534027
:10C14000E25C401C0B46491E89B2002BF6D110461A
:10C1500010BD0000D31C020010B5002818D0184AEA
:10C160000124137A01280CD0022812D0032818D0F9
:10C17000042820D005280BD100291ED00820034315
:10C180000DE0002901D0234309E058084000107257
:10C1900010BDA52901D00420F1E7FB200EE01372A9
:10C1A00010BD07480029807A01D0204301E04008F3
:10C1B0004000907210BD517210BDF7200340EEE7B1
:10C1C000BE20002070B500240B4605781E78B542CD
:10C1D00005D15D785B1C002D02D1012070BD0B469E
:10C1E0004578401C002D03D0641CA4B29442ECD3CB
:10C1F000002070BD10B50020FFF7ACFE012401F057
:10C20000A3FB01F083FB00F0F1FB2046FFF7A2FE49
:10C21000641CE4B20A2CF2D301F096FB01F076FB29
:10C220000A20FFF797FE10BD0146002001231A46A1
:10C2300082400A4204D1401CC0B20828F7D3FF2034
:10C240007047000070B50446064E074D05E0315CAE
:10C25000204603F08FFC012802D0285D0028F6D18B
:10C2600070BD0000DD1D02006D210020F0B500242E
:10C27000FF268BB00136012527460694304604F090
:10C280005FFC002807D054484068284203D030465D
:10C2900004F04EFC2C43361D6D007F1CB6B2042FFB
:10C2A000ECD3FF257D35284604F04AFC002809D050
:10C2B000284604F03DFC6807044306AA012100203B
:10C2C00004F022FC454D200714D001270026274208
:10C2D0000CD04348B200111808690969C004C00EA7
:10C2E0008903AA58890F002A00D090477F00761C46
:10C2F000042EECD3002C6DDA00200890401E63E081
:10C30000281940300778B906890E0091002141565E
:10C31000491C49D009A9009804F0AAF9002843D083
:10C32000B8090190009803F01DFC80002F58019877
:10C33000002F02D0032802D00DE0032834D100984A
:10C3400008ABC20841079446985C490F01228A4015
:10C350001043624698540098052109078000401850
:10C36000072109024018006806A98003800F029087
:10C37000009804F07DF90028029802D0022802D02B
:10C3800012E0032810D10198032808D1029802284E
:10C390001ED00221009804F08AFB761CF6B2002F12
:10C3A00002D001990098B847641C042CA8D3002E31
:10C3B00010D06A460121002004F0A6FB06990098DF
:10C3C000884207D00690089800263446099097E7DF
:10C3D0000321DFE70BB0F0BD006300401025002013
:10C3E000006500400148007870470000AA20002046
:10C3F00010B50A20FFF7AEFD092400F0F9F900F0AE
:10C4000015FA2046FFF7A6FD00F00CF8641E24067E
:10C41000240EF2D100F0ECF900F008FA0020FFF74A
:10C4200099FD10BDF0B585B0002003908400EF4861
:10C430000068065D20184178029181780191C078EA
:10C440000090304605F0F2FA05F0F0FA05F0EEFA49
:10C4500005F0ECFA009805F0E9FA019805F0E6FA23
:10C46000029805F0E3FA05F0E1FA029805F0DEFA29
:10C4700005F0DCFA05F0DAFA05F0D8FA009805F0D4
:10C48000D5FA05F0D3FA05F0D1FA05F0CFFA009805
:10C4900005F0CCFA05F0CAFA019805F0C7FA05F0E4
:10C4A000C5FA05F0C3FA05F0C1FA304605F0BEFA48
:10C4B0000546304605F0BAFA05F0B8FA4540304670
:10C4C00005F0B4FA05F0B2FA05F0B0FA454002986A
:10C4D00005F0ACFA029907464F40084605F0A6FA67
:10C4E00005F0A4FA05F0A2FA47407D40019805F056
:10C4F0009DFA05F09BFA019907464F40084605F062
:10C5000095FA05F093FA05F091FA47407D400098BE
:10C5100005F08CFA05F08AFA05F088FA01460098D1
:10C520004140B2484D4000680555304605F07EFA5E
:10C53000009805F07BFA019805F078FA05F076FA94
:10C54000029805F073FA05F071FA05F06FFA05F03C
:10C550006DFA304605F06AFA05F068FA05F066FAF9
:10C5600005F064FA304605F061FA05F05FFA0098CC
:10C5700005F05CFA05F05AFA05F058FA05F056FA9B
:10C58000019805F053FA05F051FA05F04FFA05F05D
:10C590004DFA304605F04AFA05F048FA05F046FA39
:10C5A00005467540029805F041FA0746029805F0E5
:10C5B0003DFA05F03BFA4740029805F037FA05F0DE
:10C5C00035FA05F033FA47407D40019805F02EFA20
:10C5D000019907464F40084605F028FA05F026FA6B
:10C5E00005F024FA47407D40009805F01FFA05F059
:10C5F0001DFA07460098474005F018FA05F016FAAC
:10C6000005F014FA474079487D40006820184570CD
:10C61000304605F00BFA009805F008FA05F006FA26
:10C62000019805F003FA05F001FA05F0FFF905F0AD
:10C63000FDF9029805F0FAF9304605F0F7F905F032
:10C64000F5F905F0F3F905F0F1F9009805F0EEF9C8
:10C6500005F0ECF905F0EAF905F0E8F9029805F0C3
:10C66000E5F905F0E3F905F0E1F905F0DFF90298E5
:10C6700005F0DCF905F0DAF9304605F0D7F905F0F8
:10C68000D5F905467540304605F0D0F905F0CEF9EC
:10C6900005F0CCF94540029805F0C8F905F0C6F957
:10C6A00005F0C4F9029948404540019805F0BEF9EB
:10C6B0000746019805F0BAF905F0B8F94740019826
:10C6C00005F0B4F905F0B2F905F0B0F947407D4046
:10C6D000009805F0ABF907460098474005F0A6F929
:10C6E00005F0A4F905F0A2F9474040487D400068F4
:10C6F00020188570304605F099F905F097F90098F3
:10C7000005F094F905F092F905F090F905F08EF92D
:10C71000019805F08BF9029805F088F9304605F08C
:10C7200085F905F083F905F081F905F07FF90198A5
:10C7300005F07CF905F07AF905F078F905F076F95D
:10C74000019805F073F905F071F9029805F06EF99A
:10C7500005F06CF905F06AF905F068F9304605F066
:10C7600065F905467540304605F060F905F05EF95B
:10C7700005F05CF94540029805F058F905F056F9C6
:10C78000029906464E40084605F050F905F04EF96C
:10C7900005F04CF946407540019805F047F905F061
:10C7A00045F905F043F9019948404540009805F0E6
:10C7B0003DF90646009805F039F905F037F946408D
:10C7C000009805F033F905F031F905F02FF94640EE
:10C7D0000648754000682018C5700398401C0390F7
:10C7E000042800DA22E605B0F0BD00007821002020
:10C7F0000D480068417B427A427342794272427826
:10C80000427141708178827A827081728179827BF3
:10C8100082718173C178C279C270C27AC271C27BDF
:10C82000C272C173704700007821002030B50949F9
:10C83000094A0C68002000218B001B191D5C491C53
:10C84000555DC9B21D540429F6D3401CC0B204285A
:10C85000F1D330BD78210020DD1F0200F8B5274953
:10C86000274B4A6800208100545C5C548C18C9181E
:10C8700065784D70A5788D70E478401CCC700428E4
:10C88000F1D337E0002182006D46141F66189E5DCB
:10C890006E54491C0429F9D3810715D12F46BE785F
:10C8A0002978FF78174C6D78BC46655DA65D6F46AC
:10C8B0007E706746E65D6F46BE70615CF970124C33
:10C8C0008108615C4D403D70D4182546203D6E4680
:10C8D000297C3678714099546E46697C7278514053
:10C8E0006170AA7CB1784A40A270EA7CF1784A4033
:10C8F000E270401C2C28C5D3F8BD00007821002030
:10C90000A0310020DD1E0200DD20020070B51546BA
:10C9100052060C4C160E2288101880B220808842D5
:10C920000ED302F0F1FF00202080002D08D0A17866
:10C93000491CC9B2A170B14202D3A070A11E0870F7
:10C9400070BD00001821002070B50446064E074D4A
:10C9500005E0315C204603F00DF9012802D0285D86
:10C960000028F6D170BD0000DD1D02006D21002001
:10C97000F8B50546084F094E0AE03C5C002C01D191
:10C9800004F0CEFD2146284603F0F4F8012802D039
:10C99000705D0028F1D1F8BDDD1D02006D21002081
:10C9A000F8B505460A4F0B4E0EE03C5C002C05D155
:10C9B00009A1002000F0A6FE03F096FD21462846BE
:10C9C00003F0D8F8012802D0705D0028EDD1F8BD41
:10C9D000DD1D02006D2100204D4541535552455F3C
:10C9E000564F4C544147450D0A000000F0B5214810
:10C9F000002305689A00AC5C5119944648788A78FF
:10CA0000CF78264646407A40304650407200F609BC
:10CA10001B277E437240A646424054406246AC54B7
:10CA20004C788E7827467440B4466200E4091B2691
:10CA300074436240424057404F70CA786646564041
:10CA40007400F6091B277E437440664644406640E6
:10CA50007446174667408E707C00FE091B277E4394
:10CA60007440444062405B1CDBB2CA70042BC1D3EB
:10CA7000F0BD00007821002010B5074C2288101866
:10CA800080B22080884205D304F042FD0020A11E20
:10CA90000870208010BD00002621002010B5002065
:10CAA00010499122920004460C54401C80B29042DE
:10CAB000FAD30D4900200C54401C80B21028FAD340
:10CAC00008480AA1ED30FEF797FB06480BA1DD30C0
:10CAD000FEF792FB0C480B49C1811E2101824038B0
:10CAE000847610BDA42C0020E82E00203138302E92
:10CAF0003130312E3134372E3131350063746E626E
:10CB0000000000004C240000A42D00208307FF2219
:10CB1000DB0E9A408907090E994000280BDA0007BE
:10CB2000000F0838830808489B001818C36993430E
:10CB30000B43C3617047830804489B001B181868A7
:10CB4000904308431860704700ED00E000E400E007
:10CB500070B50446064E074D05E0315C204603F0F3
:10CB600009F8012802D0285D0028F6D170BD000028
:10CB7000DD1D02006D210020F8B5FF20013003F01B
:10CB80007FFD002401250E4E0E4F002807D00E48D1
:10CB900004600120B0607D70002003F001F8FF20E8
:10CBA000053003F06DFD002808D00748001D046023
:10CBB0000220B060BD70012002F0F2FFF8BD00005D
:10CBC00000030040FC24002000010040F7B5FFB046
:10CBD000054691B000200E9001A80790F248164635
:10CBE0004088C11FF93905D0F0A1002000F08AFD6E
:10CBF00007210DE0002E0FD0F4484079A5280DD074
:10CC00009198A0280AD0F2A1002000F07BFD042119
:10CC1000919801F063FBFDE3F4A1F5E7FAA1002090
:10CC2000919A00F06FFD9198FC4C0027A7287DD0C9
:10CC300017DC294608310091A22852D008DC0128CF
:10CC40001BD002281CD0A02820D0A12825D148E044
:10CC5000A3286CD0A4286BD0A5286AD0A6281CD104
:10CC60000BE103A9A8380691030001F0C2FD09FCFD
:10CC7000FBFAF9F8F7F6F5F416000823E8A201E04C
:10CC80000F23E9A2002101F033FBC9E3EAA1002050
:10CC900000F038FD2878012801D00421E9E0CB4DCF
:10CCA0006879A528F1D0277001261021E74803F004
:10CCB00075FE601C1022E549FEF752FAE448112483
:10CCC00006700021062004F033FB2246E1A100207B
:10CCD00000F018FD2146919800F000FCA520687135
:10CCE0009EE3E1A1002000F00DFDD94C6078002802
:10CCF00002D0012832D03BE0102E23D0182ECCD108
:10CD00000B20E070284610300822DB49054601F070
:10CD100046FA0028B9DD08222946D748FEF720FA4E
:10CD20000021062004F004FB012203E0ABE036E022
:10CD300058E065E06270FF200E90D0A1002000F066
:10CD4000E1FC6FE30120E0700822CB49009801F07C
:10CD500026FA002899DD08220099DEE72A460021FC
:10CD6000E07800F0C1FE0E90002809D0FF28E8D03E
:10CD700010230121009A919801F0BAFAC6A10AE0A5
:10CD8000A770284601F098FB10230021009A919883
:10CD900001F0AEFAC6A1002000F0B4FC40E3CAA145
:10CDA000002000F0AFFC012EA9D12878A228A6D13E
:10CDB00001F052F9002811D0A54C0FAD284604F01F
:10CDC0005AF9A07810280BD22A4601A901F068FA76
:10CDD000002870D0A078401CA070EEE7052148E044
:10CDE000062146E0BDA1002000F08CFC082E86D173
:10CDF00001F032F90028F1D0284601F009F9CDE21E
:10CE0000BAA1002000F07EFC0FAC102E04D0BCA113
:10CE1000002000F077FC40E708229749009801F0D5
:10CE2000BEF90028BADD082293480099FEF798F968
:10CE30000021062004F07CFA204604F01CF921466B
:10CE4000284601F0E1FA6946087510280FD280489B
:10CE50008770284608E0AFE27DE27AE246E21EE211
:10CE6000C3E191E185E027E001F026FB34E28AA1ED
:10CE700037E2919801F032FAD2E2A8A1002000F046
:10CE800041FC0721F5E7AAA1002000F03BFC0FAC14
:10CE9000012EC0D101F0E0F800289FD0204604F018
:10CEA000EAF801F0D9F8214601F0AEFA69460875B2
:10CEB000102893D2F1E6E8E1A3A1002000F022FCC3
:10CEC000092EA8D108226C49284601F068F90028EB
:10CED000D2DD082229466848FEF742F900210620E3
:10CEE00004F026FA394E277070886421FF387338B1
:10CEF00048433221FEF720F93071607068460775AB
:10CF0000954802260088012802D801206946087544
:10CF1000002001F0ABF8012803D16846017D3143C0
:10CF200001756946087DA0700321919800F0D6FA3A
:10CF3000A5206946087604204876884808A9006834
:10CF400007908748008801F093FA06A801F0E4F9F9
:10CF50002A7A1021834B8448A12A02D0A22A02D027
:10CF60005EE21E7001E001221A7002780A4302702C
:10CF700056E27EA1002000F0C5FB042E9AD128784D
:10CF8000697800020843A97800020843E9780002A2
:10CF900008437B4988428DD3494240186F49086055
:10CFA0006D4878490180F9E18C30002050524F548F
:10CFB0004F434F4C5F4150505F4552525F56455270
:10CFC00053494F4E5F31210D0A000000AA20002076
:10CFD00050524F544F434F4C5F4150505F45525257
:10CFE0005F504152414D5F33210D0A0050524F5462
:10CFF0004F434F4C5F4150505F4552525F5041523A
:10D00000414D5F32210D0A00636F6D6D616E6420CA
:10D010003D20253032780D0A00000000042F00204A
:10D020004856312E302E33005356312E312E302DAE
:10D030003138303830360000636D64206765742005
:10D040006165736B6579210D0A000000F4200020F2
:10D050009420002073656E644C656E677468203D93
:10D06000202564210D0A0000636D64206164642042
:10D0700075736572210D0A00D120002073746174EC
:10D080006550726F63657373436F6D6D616E64207D
:10D090003D2025640D0A000050524F544F434F4C21
:10D0A0005F4150505F4552525F47454E0D0A0000A8
:10D0B00050524F544F434F4C5F4150505F45525276
:10D0C0005F4E4F4E450D0A00636D642072656164CA
:10D0D0002075736572210D0A00000000636D6420E5
:10D0E00064656C2075736572210D0A00636D6420A0
:10D0F00075736572206C6F67696E210D0A00000000
:10D1000050524F544F434F4C5F4150505F45525225
:10D110005F504152414D0D0A00000000636D6420D4
:10D12000736574206B6579626F617264210D0A000A
:10D13000636D6420616464207065726970686572F3
:10D14000616C210D0A000000636D642073776974BF
:10D150006368210D0A000000A2200020E0200020CA
:10D16000A420002024210020D0200020636D642012
:10D1700061646A7573742074696D65210D0A00001D
:10D1800000D36C3860EA0000B2A1002000F0BAFAC7
:10D19000079800F06BFF01280BD0B2A1002000F02F
:10D1A000B1FA06202070601C0D21FDF7F2FF0E2160
:10D1B00033E1B349002000F0A5FA2770601C082273
:10D1C0000699FDF7CDFFAF48029908180290000EAE
:10D1D00060720298000CA0720298000AE072029835
:10D1E0002073684640796073E1E79AA1002000F05F
:10D1F00089FA012E00D050E52878AB28FBD100F049
:10D200002BFF002800D1E9E500F026FF05A901F079
:10D2100025F8002826D1684607714771007D410630
:10D2200002D501216A465171810605D56A465179B8
:10D23000022211436A465171C10605D56A465179E9
:10D24000042211436A465171000705D569464879A1
:10D250000821084369464871022301AA00219198D8
:10D2600001F046F8884C0FAD284603F004FFA07883
:10D27000102800D3B4E52A4601A901F011F80028CE
:10D2800003D0A078401CA070EDE7082301AA00217C
:10D29000919801F02DF8A078401CA070C0E07BA10F
:10D2A000002000F02FFA082229460698FDF758FFC3
:10D2B000287A697A00020843A97A00020843E97AC9
:10D2C000000208436F49494240180290079800F055
:10D2D00091FD012800D0CAE56949002000F012FA4A
:10D2E0005CE0002000F00EFA0121C2E56BA10020F5
:10D2F00000F008FA812E00D0CFE4287AAD28FBD1C7
:10D3000008226B49284600F04AFF002820DD082249
:10D3100029466748FDF724FF0021062004F008F89D
:10D320000021919800F0DAFF00F044FD614C1022DA
:10D33000677161496148FDF713FF0021062003F082
:10D34000F7FF61790220FEF707FF012000F0D8FA0D
:10D3500066E05BA1C5E7092ECED3082254492846D2
:10D3600000F01DFF00285BDD082229465048FDF72C
:10D37000F7FE0021062003F0DBFF287A01280FD0FA
:10D3800029460931102813D01128B5D1102251484F
:10D39000FDF7E6FE0021062003F0CAFF002168E544
:10D3A000687A012801D00228A6D14B490870F1E71C
:10D3B000484820221030EBE7092E9DD308223C4933
:10D3C000284600F0ECFE00282ADD082229463848CD
:10D3D000FDF7C6FE0021062003F0AAFF287A1228D6
:10D3E00024D0132888D133488079800730D5394933
:10D3F0002770601C20224531FDF7B2FE601C00F052
:10D400001BF92121FDF782FE68460175491C67540E
:10D41000007D00E006E0801CC1B2919800F05EF84B
:10D42000194847700E987FB014B0F0BD214880793C
:10D43000C0070BD027492770601C10223531FDF73B
:10D440008FFE601C00F0F8F81121DBE7092110E5E0
:10D450000A210EE5636D642072656164206C6F675C
:10D46000210D0A0050524F544F434F4C5F415050D2
:10D470005F4552525F46494E49534845440D0A00A4
:10D48000B0D0010000D36C3894200020636D64207C
:10D4900064656C206C6F67210D0A0000636D642069
:10D4A000666163746F727972657374210D0A00008E
:10D4B000D1200020AA200020E42000200421002008
:10D4C000636D642074657266696C65646174612162
:10D4D0000D0A0000812D00202C210020F8B50E46F9
:10D4E0002C4CF0212170A522012162700025A17031
:10D4F000E57021716171A571E5712572264960722F
:10D50000897AA172AA2801D0A22814D1002E12D0A3
:10D51000701EFDF7CFFF0746401CE0721F480090C9
:10D520002046761E0D30F2B21C4B0146FDF788FFF7
:10D5300038460D3002E03046E6720C300646314681
:10D540002046FEF7F7FDA055701C162121540D2131
:10D55000B01C2154F01C0646024611A1002000F028
:10D56000D1F8F0B20422214601F0BAFE314620463D
:10D5700002F0FCF80E480178002909D0057010224D
:10D580000C490648FDF7ECFD0021062003F0D0FE13
:10D59000F8BD0000F82E00208C300020042100206F
:10D5A000706F7374696F6E203D202564210D0A0031
:10D5B00094200020F42000201CB50024684604704C
:10D5C00001F0C8FC03F084FF002818D10E48016860
:10D5D000002914D00D498968C907C90F0FD004600C
:10D5E0000B4880686946087101A90A4803F0DCFB12
:10D5F000084803F0C3FB002801D003F027FA68466F
:10D60000007801F0C5FC1CBD00D1004000D30040F3
:10D6100000D50040901A020010B5064900200860AD
:10D6200048608860C860034940390860486004F079
:10D630006BF810BD4011014001460020054A04E08E
:10D64000401C80B2491C904203D20B78203B5F2BD8
:10D65000F6D97047FFFF000010B503480078002896
:10D6600001D100F047FF10BD2C2C0020F8B5064674
:10D670000C48144600780D46002801D100F03AFF0E
:10D68000002368460093037001F064FC224629469B
:10D69000304600F009F804466846007801F078FC4E
:10D6A0002046F8BD2C2C002070B50E4618214843AA
:10D6B000134914464518E86A1835002804D0012893
:10D6C0000FD0022805D113E0284600F049FFA04200
:10D6D00001D2002411E022463146284601F06BF8C1
:10D6E0000BE0284600F03CFFA042F4D20446F2E7EB
:10D6F0003146284601F02FF80446204670BD000050
:10D700002C2C00200FB408B504A900916A46039997
:10D7100000F004F801B008BC04B01847F7B598B0A1
:10D7200007A80290402000250495039018980C4605
:10D73000059506902178641C002977D0252907D00B
:10D7400002A800F0E9FF05980028F3DA1BB0F0BD4D
:10D7500001220021022713460826207823281BD007
:10D760002B2816D02D2802D0302806D101E01943ED
:10D7700000E03943641C002AEFD1002220780346E0
:10D78000303B0A2B0AD20A235A431218303A641C3F
:10D79000F4E704200143EDE73143EBE70023C7B290
:10D7A0002E2F0AD1641C20780746303F0A2F04D25E
:10D7B0000A277B431B18303BF4E76C280DD0682800
:10D7C0000BD0702852D00BDC25285AD058282ED0E8
:10D7D00063280CD0642858D110E02078641CECE752
:10D7E000732832D0752817D078284ED11FE01A98A8
:10D7F0001A9A0068011D1160017843E01A981A9F77
:10D800000068061D3E6000680191009201460A22F0
:10D8100002A800F0B0FE38E01A981A9F0068061DB2
:10D820003E600068009201910A2209E02FE01A98F8
:10D830001A9F0068061D3E60006800920191102248
:10D84000014602A800F0FCFE1FE01A981A9A006830
:10D85000011D116006683178761C002915D002A8D8
:10D8600000F05AFF05980028F5DA0EE01A981A9A87
:10D8700000680823011D11600168102200960195BF
:10D88000DFE7252102A800F047FF641C5BE705984D
:10D89000002800DC5AE70498002804D0024607A9B3
:10D8A0001898FFF7E3FE04990598401805904DE796
:10D8B00070B50446064E074D05E0315C204602F087
:10D8C00059F9012802D0285D0028F6D170BD00006A
:10D8D000DD1D02006D21002010B503F087FE10BD94
:10D8E00010B506484068002805D08047002801D0C0
:10D8F00001F07CFA10BD02F043FB10BD7C2000203B
:10D900000149087070470000AA2000200D480068F7
:10D91000417842794270427A4271427B427241734D
:10D920008178827A827081728179827B827181733F
:10D93000C178C27BC270C27AC273C279C272C1712D
:10D94000704700007821002030B50949094A0C6869
:10D95000002000218B001B191D5C491C555DC9B2BC
:10D960001D540429F6D3401CC0B20428F1D330BDA5
:10D9700078210020DD1E020010B502F059FB0028BE
:10D9800005D01F491D484860C8131E4988611E48BC
:10D99000018CC9B201290BD1828C120708D1028DEA
:10D9A0001206120F042A03D1828D1206120F0AD01A
:10D9B000012921D1818C09071ED1018D0906090F8A
:10D9C0000A2904D007E0114A01219160F5E7828D10
:10D9D0001206120F05D00D290ED1808D0006000F02
:10D9E0000AD10B480168012904D00A490160016885
:10D9F0000129FCD1C021416110BD0000DFFF07C03B
:10DA000000050040006C0040C00F00F00006004020
:10DA100000EC064075930000F8B52E4C0121490238
:10DA2000204603F03FFA00252B4F0126002818D08E
:10DA3000FF212531204603F030FA002811D0FF20C5
:10DA400025302550812025498000886038780028BD
:10DA500000D1666020480822001D01781143017042
:10DA600028E00421204603F01DFA002822D0FF21DF
:10DA70000931204603F011FA00281BD0FF2009309D
:10DA8000255017484677174882691549E031887F45
:10DA90000B46463BC254887F401CC0B2887764283E
:10DAA00000D38D770E481421803001833878002808
:10DAB00000D16660FF214531204603F0EEF90028D1
:10DAC00006D0FF20453025503878002800D0266049
:10DAD000F8BD0000002000401C2100200023004071
:10DAE000E42D002000250040F7B5FFB0074685B0C3
:10DAF000012503A8002614460090002F04D0012F12
:10DB00001FD00B2F1DD002E103F0B5FA834F002484
:10DB100082492046009A00F033FBFF28F8D039787C
:10DB200083221140822907D10822381D859900F0EF
:10DB300036FB002800D10025641CE4B2102CE7D38A
:10DB4000E3E003F098FA76484278002A04D0012AEC
:10DB500010D0022A7ED0DAE0054672A10020FFF73D
:10DB6000D1FD012068702046009900F04DFCA8709E
:10DB7000FF25CEE06BA10020FFF7C4FD684802211D
:10DB800041708078FF25102840D26BA10020FFF75C
:10DB9000B9FD634861498078009A00F0F1FAFF28E6
:10DBA000F7D00B2F04D05D480021C943C66129E09E
:10DBB0005A48217AC161627A09028918C161A27A40
:10DBC00009028918C161E27A09028918C161227BC0
:10DBD0000262637B1202D2180262A37B1202D21885
:10DBE0000262E37B1202D218564B0262994203D9B9
:10DBF0005C420919C16100E0C6619A4204D95149E9
:10DC000049425118016284E0066282E04EA1002080
:10DC1000FFF778FD01200290002001903F49009A13
:10DC2000019800F0ADFAFF28F8D03C4801788A0747
:10DC3000920F022A12D1090610D5016A45480068E0
:10DC400081420BD30298002808D00198401CC0B232
:10DC5000019000E042E01028E0D35AE02F488221F2
:10DC6000017008222146001DFDF77AFA0B2F04D01F
:10DC70002A480021C943C66129E02848217AC161A8
:10DC8000627A09028918C161A27A09028918C16100
:10DC9000E27A09028918C161227B0262637B120267
:10DCA000D2180262A37B1202D2180262E37B120234
:10DCB000D218244B0262994203D95C420919C1610E
:10DCC00000E0C6619A4204D91E49494251180162D6
:10DCD00000E006621249019888701AE0044611A11A
:10DCE0000020FFF70FFDA2781BA10020FFF70AFD1F
:10DCF000A07810280BD20949009A00F06FFB054666
:10DD0000024619A10020FFF7FDFCFF2D01D00448B9
:10DD100046707FB0284608B0F0BD0000F82F002004
:10DD2000A620002073466C61675374617465203DC2
:10DD30002025640D0A000000686173207573657208
:10DD40000D0A000000D36C386E657720757365721C
:10DD50000D0A0000E02000207355736572496420AD
:10DD60003D2025640D0A0000726574203D20256465
:10DD70000D0A000030B504460078F02816D160780E
:10DD8000A52813D1E57A28460F300C3588420DD8E6
:10DD900060194178162909D180780D2806D12946C5
:10DDA0002046FEF7C7F9615D884201D0002030BDF2
:10DDB000012030BD30B5FFB092B06D46284603F06B
:10DDC0005AF900242A4680A9204600F0D9F9FF28F4
:10DDD000F8D0442180A8FDF7DCF92A4680A9204626
:10DDE00000F0FCFA641CE4B2102CEBD37FB012B04C
:10DDF00030BD0000F0B5FFB092B0074611A80F90FB
:10DE00005A48067868460670584832468178437802
:10DE10000802184344BA6846448054480179C078DF
:10DE2000090201434DBA6846858051A10020FFF7E1
:10DE300069FC224656A10020FFF764FC2A465CA13B
:10DE40000020FFF75FFCAA2E10D0AA2269460A70B4
:10DE500000204880888045490A7048708870C870E2
:10DE600008710146062003F063FA01E0AC4204D1D8
:10DE700000210520FEF770F975E001210520FEF76D
:10DE80006BF9002F55D00F9803F0ECF868468088A6
:10DE9000202241010F98091805A8FDF761F92022F9
:10DEA0004BA10020FFF72EFC002505A8425D4EA1E6
:10DEB0000020FFF727FC6D1CEDB2202DF5D333A118
:10DEC0000020FFF71FFC4AA10020069AFFF71AFC6A
:10DED00047A100207A68FFF715FC0822B91807A8A7
:10DEE000FDF77DF900283AD006987968884236D146
:10DEF00041A10020FFF706FC68468088401C81B2E3
:10DF0000684681800F2902D300206946888017481F
:10DF1000210A067041708470694689880A0AC270B5
:10DF200001710021062003F003FA01207FB012B036
:10DF3000F0BD6D1CA8B2694688800F2801D300206F
:10DF400088800A48210A0670417084706946898871
:10DF50000A0AC27001710021062003F0E9F929A123
:10DF60000020FFF7CFFB0020E0E700009C2000200E
:10DF7000746D704C6F67496E666F496E6465782E7C
:10DF8000666C6167203D2025303278210D0A000043
:10DF9000746D704C6F67496E666F496E6465782E5C
:10DFA00068656164203D202578210D0A000000008D
:10DFB000746D704C6F67496E666F496E6465782E3C
:10DFC0007461696C203D202578210D0A0000000055
:10DFD000746D704C6F67496E666F5F646174615BEE
:10DFE00025645D210D0A00002025303278000000F4
:10DFF0002025780D0A00000072657475726E20315C
:10E00000210D0A0072657475726E2030210D0A00B0
:10E0100030B5FFB092B005466C46204603F02BF8B1
:10E020002146284600F0F0F9054610280FD2224676
:10E0300080A9284600F0A4F8FF28F8D0442180A841
:10E04000FDF7A7F8224680A9284600F0C7F97FB05F
:10E05000284612B030BD000003480078002801D0E7
:10E0600001480C3070470000A6200020F1B52B4875
:10E07000FFB083B0027868460270284802AF81780A
:10E0800043780802184346BA684646802348144637
:10E090000179C3780802184345BA6846858020A1F3
:10E0A0000020FFF72FFB324625A10020FFF72AFBB7
:10E0B0002A462BA10020FFF725FBAA2C10D0AA226C
:10E0C00069460A7000204880888014490A704870A8
:10E0D0008870C87008710146062003F029F901E034
:10E0E000AE4207D100210520FEF736F800207FB0B0
:10E0F00004B0F0BD01210520FEF72EF8829800281B
:10E100000AD0384602F0AEFF6846808820224001DF
:10E11000C1198298FDF724F80120E8E79C2000202F
:10E12000746D704C6F67496E666F496E6465782ECA
:10E13000666C6167203D2025303278210D0A000091
:10E14000746D704C6F67496E666F496E6465782EAA
:10E1500068656164203D202578210D0A00000000DB
:10E16000746D704C6F67496E666F496E6465782E8A
:10E170007461696C203D202578210D0A00000000A3
:10E1800010B50B46102801D3012010BD442148438F
:10E19000811844221846FCF7E3FF002010BD10B59B
:10E1A0000CE004780B789C4201D9012010BD9C4200
:10E1B00002D20020C04310BD401C491C521EF0D2A8
:10E1C000002010BD70B505460446204E002070604A
:10E1D000FEF708F9012803D0FEF704F902282FD131
:10E1E000207801026078A41C08431949884227D18D
:10E1F000217818480902418062780A434280A17858
:10E200000171E1784171217981716179C171A179DF
:10E210000172E1794172217A09348172AA2901D00F
:10E2200055290DD12178C172641C0919C4600A787E
:10E23000027448788978000201430748814201D07E
:10E24000002070BD0120756070BD0000942000208A
:10E25000A5F000008C3000200D160000F0B5FFB0D6
:10E2600092B0054611AC0F460126204602F003FF8E
:10E270002146284600F0C8F8054610280CD2224650
:10E2800069462846FFF77CFFFF28F8D0002F02D010
:10E2900068460078387000267FB0304612B0F0BD76
:10E2A000F0B591B016460D46074601243246694640
:10E2B0003846FFF765FFFF28F8D0684600788321CD
:10E2C0000840822807D1002D04D00822284601A941
:10E2D000FFF765FF0024204611B0F0BD10B5034ADA
:10E2E00011730121FFF7FAF810BD0000F82E00208D
:10E2F00070B5054607481C46134601732246194669
:10E300000D30FCF72DFF641CE1B22846FFF7E6F85C
:10E3100070BD0000F82E0020F1B5FFB083B02E4C88
:10E3200068462778077020468178427808021043B3
:10E3300041BA6846418020460179C27808021043FC
:10E3400041BA684602AE8180304602F08BFE00255D
:10E35000AA2F04D0AA2168460170458085806846AE
:10E3600047882022780180198299FCF7F9FE012064
:10E37000000740693146C01E03F010FB7F1CB9B294
:10E38000684641800F2900D34580418880888142BA
:10E3900002D16946401C8880684680880F2801D3D6
:10E3A0006846858001210520FDF7D6FE6846007885
:10E3B000207068464088010A6170A07068468088B5
:10E3C000010AE17020710021062002F0B1FF7FB048
:10E3D000012004B0F0BD00009C20002070B5144660
:10E3E000102801D3012070BD442250430019FCF7CE
:10E3F000B7FE00250120000740692146001F03F0F9
:10E40000CDFA284670BD0000F3B591B000240E4649
:10E4100083256F46324669462046FFF7B1FEFF2846
:10E42000F8D0684600782840822806D10822381D96
:10E430001199FFF7B4FE002803D0641CE4B2102C3D
:10E44000E8D3224603A10020FFF75CF9204613B071
:10E45000F0BD00007365617263682075736572209A
:10E46000696E666F206E756D3A2025640D0A000096
:10E4700070B5FFB093B0064611AC0D46204602F0D1
:10E48000FAFDF0B222466946FFF77AFEFF28F8D07F
:10E490006846007883210840822803D000207FB09E
:10E4A00013B070BD002D04D00822284601A9FCF746
:10E4B00057FE0120F3E7000010B5054A0121117055
:10E4C0000146034808220C30FCF74AFE10BD00004C
:10E4D000A620002010B5064A00219268435C545CD7
:10E4E00063404354491CC9B21029F7D310BD000042
:10E4F0007821002010B5124C02202061606111A02B
:10E50000A0611348E0610120400220620020A06267
:10E5100060620CA1A1642146E0621039E16410211F
:10E520002165A0656065E0650AA1E01DFCF764FE59
:10E5300009A12046FCF760FE2020A07110BD00005C
:10E540002C2C00205465726D696E616C0000000017
:10E550001C2A00205254540053454747455200009E
:10E560000269C1688A4203D88068401A801800E0B6
:10E57000501A401E7047FFB583B00E4670420D9F83
:10E580000C9C0090002900DB0846012502E0FCF706
:10E59000D3FD6D1C05998842F9DA0698A84200D986
:10E5A0000546002C04D0002E01DB780700D5641E40
:10E5B000B80702D50698002810D0F8070ED1002C15
:10E5C0000CD0A5420AD22021641E039800F0A4F8C2
:10E5D0000398C0680028F2DA07B0F0BD0398C0685D
:10E5E0000028F9DB002E02DA2D21009E02E07807D8
:10E5F00007D52B21039800F08FF80398C0680028F6
:10E60000EADBB807800F022810D1069800280DD148
:10E61000002C0BD0A54209D23021641E039800F0D3
:10E620007BF80398C0680028F2DAD5E701970094D8
:10E630003146069B059A039800F002F8CCE70000EB
:10E64000FFB581B001261F4634460A9D029802E0BC
:10E65000FCF75CFD641C03998842F9D2A74200D9FB
:10E660003C460B98C00718D1002D16D00B98800798
:10E6700001D5002F02D0202000900CE03020FBE7D5
:10E680006D1E0099019800F047F80198C0680028B5
:10E690003DDB002D01D0AC42F2D30198C0680028C8
:10E6A00035DB012F01D97F1E06E031460298FCF7C9
:10E6B0002DFD0399884202D303984643F1E7154F95
:10E6C00031460298FCF722FD0146029A7143511A25
:10E6D0000291395C019800F01FF80198C068002889
:10E6E00005DB30460399FCF711FD0600E8D10B98D5
:10E6F000C0070CD0002D0AD0AC4208D220216D1EDC
:10E70000019800F009F80198C0680028F2DA05B015
:10E71000F0BD0000CC1A020010B5044680686368A2
:10E72000421C934205D323681954A260E068401C40
:10E73000E060A2686068824209D121682069FEF722
:10E7400095FFA168884203D00020C043E06010BD5F
:10E750000020A06010BDF7B5064682B000200090F2
:10E76000F46817463069A04201D9051B02E0B16880
:10E77000201A0D1AB0686D1E001BA84200D805466D
:10E78000BD4200D33D4670682A4600190399FCF744
:10E79000E7FC00987F1B401900900398641940190A
:10E7A0000390B068A04200D10024F460002FD9D1BA
:10E7B000009805B0F0BDF7B5C668174604468068F6
:10E7C000851B6068BD4206D980190199FCF7C8FC19
:10E7D000F019E060FEBD2A4680190199FCF7C0FCE3
:10E7E00001987E1B411932466068FCF7B9FCE6606F
:10E7F000FEBD30B47446641E2578641CAB4200D262
:10E800001D46635D5B00E31830BC184702E008C892
:10E81000121F08C1002AFAD170477047002001E09A
:10E8200001C1121F002AFBD170470000202804DA22
:10E83000012181400348014201D00120704700209E
:10E8400070470000FC06FFBC10B5154C207803286B
:10E8500024D160680028A06802D061684018400890
:10E860006060606801218902884202D92D208003FE
:10E8700003E060682D2109014843FF21800AF5313A
:10E88000884200D9084682B2064807A1428000208B
:10E89000FEF738FF042020700020A07010BD00009B
:10E8A00030210020AA200020626174746572795FB3
:10E8B00076616C7565203D202564210D0A000000FD
:10E8C00070B5017800292FD101890025022916D9B8
:10E8D00046680024725F104609E06300F35E8342DD
:10E8E00000D21846934200D91A465D19641CA14211
:10E8F000F3D8AA1A101A891EFCF708FC02E0416836
:10E900000020085E094988608A6809A10020FEF796
:10E91000F9FE0D4920220878104308708006C20FC6
:10E920000AA10020FEF7EEFE70BD0000302100209D
:10E93000746573745F6164635F76616C7565203DB7
:10E94000202025640D0A0000D02000206170705F37
:10E950006D6576656E742E622E73746F705F616480
:10E96000635F7374203D202025640D0A00000000C1
:10E9700070B514490020124B0860134908608C6878
:10E980001248427CC5685600521CAC53D2B2427445
:10E99000047CA24212D2846800226468002C0AD04F
:10E9A000012284602068486001200860002A00D0AD
:10E9B0001860002070BD44688460F3E7012070BDDA
:10E9C0000070004000710040007500408825002064
:10E9D000F8B52F4C032760782E4E012815D02E4D08
:10E9E000022839D0032836D12CA10020FEF78AFE58
:10E9F000287881062FD5DF210840287001250420C2
:10EA0000F060207803283AD135E027A10020FEF7F6
:10EA100079FE28482849006800906846077001F090
:10EA2000A3FE002801D000F0E1F92078032805D1E9
:10EA30000420B06016480C3001F086FE1448042112
:10EA4000143001F03DFE002801D000F0CFF901F0B4
:10EA5000ABFE02206070F8BD18A10020FEF752FE48
:10EA60002878800605D401F09FFE0A2002F0B0FD50
:10EA7000F8BD6770F8BD06480C3001F053FE13492D
:10EA80000020086001F096FE6570FFF7DDFEF8BD1E
:10EA90003021002000050050D020002041444320B8
:10EAA00053544F500D0A00004144432053544152E7
:10EAB000540D0A00DC1D0200C1E80100414443205E
:10EAC00053414D504C494E470D0A00000407005079
:10EAD000F7B584B0064600251788158020300290CF
:10EAE000407B1446002806D03A462146059800F09F
:10EAF00045FD050009D1B078002823D00598864649
:10EB00002088001DB84202D90C2007B0F0BD68462D
:10EB100079DF0028F9D121880320724650542088DB
:10EB20001921401C80B22080115420887146401C5D
:10EB300080B2208041186846008802F066FE218875
:10EB400040182080F078002817D0218803230A4637
:10EB5000F356C91C0598B942D6D8022181542188A0
:10EB60000122491C89B2218042542188491C89B262
:10EB7000218043542088401C20807068002817D0D2
:10EB800021880023C3560A46C91C0598B942BBD840
:10EB90000221815421880A22491C89B221804254D1
:10EBA0002188491C89B2218043542088401C208040
:10EBB000308900280AD000943046019706220221AD
:10EBC0000830059B02F06EFE05009ED1308A0028B9
:10EBD0000AD0009430460197072203211030059B8C
:10EBE00002F060FE050090D1308B00280AD000941E
:10EBF00030460197152214211830059B02F052FE71
:10EC0000050082D1306A002806D03B46224605998D
:10EC100001F046F80500D8D1706A002806D03B46BE
:10EC20002246059901F02CFC0500CED10298007B0C
:10EC3000002807D03B4622463046059902F0DAFA12
:10EC40000500C2D13078002807D03B462246304626
:10EC5000059901F0B3FC0500B7D1284655E700003F
:10EC6000174A0021535C002B01D0012203E0491C0C
:10EC70000629F7D300221349012806D002280BD019
:10EC8000032810D0042818D112E04878002803D0B7
:10EC9000002A01D0012070478878002803D0002A7C
:10ECA00001D002207047C878002801D003207047A7
:10ECB0000879002801D00420704700207047000028
:10ECC000192000201423002070B5AEB03C2101A80B
:10ECD000FCF75FFA02206946087100258D71062055
:10ECE000C8713C2110A8FCF754FA012410A90C8229
:10ECF0001F48159020211FA8FCF74BFA18A9CC77C4
:10ED0000192080011A4C2390241D249527A871DF17
:10ED100028A98878401C887027A9002070DF00216E
:10ED200027A82CAA05235E1A361876785654491C53
:10ED30000629F8DB204606222CA90C30FCF710FA35
:10ED4000592120A881840A481221001D2B9020A857
:10ED5000018529A800951990064B1FAA10A901A8A2
:10ED600000F060F9002801D000F040F82EB070BD2E
:10ED7000BA200020B50E020010B509490020087025
:10ED800048708870C031887508468030017C012247
:10ED9000114301741146052002F0CAFA10BD0000AB
:10EDA000A42C002009A1012001F092FF01F0E4FE53
:10EDB00001F0E8FE0028FBD100BEBFF34F8F0A49E7
:10EDC0000848C860BFF34F8F00BFFDE74150505F58
:10EDD0004552524F523A4552524F523A466174612F
:10EDE0006C0D0A000400FA0500ED00E00EB50021EC
:10EDF000029000916A4601910148FFF7D3FF0EBDD2
:10EE000001400000094B5B68002B07D0002A07D0A7
:10EE1000002805D00068037C002B03D00820704731
:10EE2000072070474174426100207047582000203D
:10EE3000FFB507469007002581B01E4614460028FE
:10EE400025D1002C23D002F01FF93046114EF0607E
:10EE500030461030057045700299817044607560CD
:10EE6000357001240C4875702405046003211420BA
:10EE7000FDF74CFE09480460094CA76003211120EE
:10EE8000FDF744FE6068B060002005B0F0BD0720CB
:10EE9000FBE700004820002080E200E000E100E005
:10EEA00000150140FEB51F4B5B68002B30D00028D9
:10EEB0002ED0052901D20720FEBD4369002B27D0A3
:10EEC000437C012B26D00027029104460025694689
:10EED00016460D70684600F03DF801A802F0CCFC23
:10EEE000002819D0012101700F49446049688160F0
:10EEF000029907614661C16068460A490079487015
:10EF00006846007800F044F802F0B2FB2846FEBDE7
:10EF10000820FEBD0F46D7E768460425007800F0BC
:10EF200037F8F3E7582000200015014010B50849D4
:10EF3000496800290AD0002808D04169002905D075
:10EF400000210174022102F0BBFB10BD082010BD9E
:10EF50005820002030B5EFF3108172B6094A54688A
:10EF60000123002C04D00370002900D162B630BD0B
:10EF70005360054B1D68054C254015601C60002240
:10EF80000270F1E76C20002080E100E0FC06FFBC8D
:10EF900008494A68002A0CD000280AD1EFF31080F3
:10EFA00072B60A68044B1A6000224A60002800D139
:10EFB00062B670476C20002000E100E0F0B50C461E
:10EFC00093B01F216A4611800726002791800028F0
:10EFD00009D0C17849070DD502A9FFF779FD0028AE
:10EFE00009D102AD01E000251780002C0ED0E07899
:10EFF000002802D0304613B0F0BD01AA0AA920466D
:10F00000FFF766FD0028F6D10AAA02E06846002252
:10F01000878068468088C3B268460088C1B22846A7
:10F0200072DFE8E7FFB581B01E460A9F1346040071
:10F0300047D0002B45D0504D012028700020E870AB
:10F04000202219464D48FCF78BF800206F61C04321
:10F050002E612881284607211830FCF79AF8474886
:10F060003C212030FCF795F844482178203001708D
:10F07000A1788170E178C170617841703F4A65691B
:10F0800023695563114613632031E368A268CB609E
:10F090008A603A49E369A269CB638A63616A00299D
:10F0A0001AD001463C310246483241628A60636AA6
:10F0B0001B880B80616A436A898899800021436AB2
:10F0C00007E00E2005B0F0BD656AAD686D5C555473
:10F0D000491C9D888D42F7D8A16A00291CD0274A77
:10F0E000943211460C398A608162A36A9B888B80B6
:10F0F000A16A836A098819800021836A04E0A56AED
:10F10000AD686D5C5554491C9D888D42F7D82C2103
:10F110000A5D1A4940310A73216A002909D016494B
:10F120000A310162226A52884A80216A026A098889
:10F1300011806168002900D04160104A0E4900200A
:10F14000B3322031C3001B1A85009B180C68401C89
:10F1500063510828F6DB094A0020EB3203018500E1
:10F160009B188C68401C63510828F7DB0348029900
:10F170002030FFF723FFA5E7002000201423002004
:10F1800010B50188134C102915D0112919D01B294D
:10F1900010D1007A00280DD1E0780521401CFBF742
:10F1A000B5FF084600F018F8002803D0616900296F
:10F1B00000D0884710BD817D0129FBD18088208146
:10F1C00010BD00216171808821898842F8D1012019
:10F1D000E8E7000000200020F1B53F4C88B020781F
:10F1E00000280AD00898E07006A800F001FE0698F2
:10F1F0000125002804D065706AE0082009B0F0BD40
:10F200003548002707211830FBF7C3FF334E7078CD
:10F21000002802D0E078012807D0B07800280CD070
:10F22000E078012801D0022807D12169002903D004
:10F2300025710820884700E027710898FFF710FD26
:10F24000E0702169002909D0032801D0042805D1E4
:10F250003078002802D06079002811D0A7711821D9
:10F260006846FBF796FF684607700772E1781A4810
:10F270000B001830FFF7BDFA052E080F191D2000EE
:10F28000A57107208847EAE7A570019068460570D8
:10F290004782078213E00221A17001906846057041
:10F2A000B18941823189018209E0684601F0EAFFB3
:10F2B00002E0684602F012F8E078002803D06846C1
:10F2C00073DF00289AD12169002901D0A0788847EE
:10F2D000002093E7A770F6E7002000201423002009
:10F2E00070B50D4604461300FFF783FA0504142495
:10F2F00034526100024630A10020FEF703FA0026D6
:10F3000005E0AA5D36A10020FEF7FCF9761CA642B6
:10F31000F7DB4CE0024634A10020FEF7F3F90026AB
:10F3200005E0AA5D2EA10020FEF7ECF9761CA642AE
:10F33000F7DB3CE0024637A10020FEF7E3F90026A8
:10F3400005E0AA5D26A10020FEF7DCF9761CA642A6
:10F35000F7DB2CE0024639A10020FEF7D3F90026A6
:10F3600005E0AA5D1EA10020FEF7CCF9761CA6429E
:10F37000F7DB3AA10020FEF7C5F93C4D00242A5DD9
:10F3800017A10020FEF7BEF9641C102CF7DB0EE07D
:10F39000024637A10020FEF7B5F9002605E0AA5D78
:10F3A0000FA10020FEF7AEF9761CA642F7DB39A1CB
:10F3B0000020FEF7A7F970BD6F726967696E616C16
:10F3C0002064617461206C656E677468203D20253F
:10F3D000642E2064617461203D200D0A000000004D
:10F3E00025303278200000006461746120656E630E
:10F3F000727970742064617461206C656E677468E2
:10F40000203D2025642E2064617461203D200D0A7A
:10F410000000000063726320636865636B206461B1
:10F420007461206C656E677468203D2025642E2011
:10F4300064617461203D200D0A0000006165732045
:10F4400064617461206C656E677468203D2025647A
:10F450002E2064617461203D200D0A000A616573ED
:10F46000206B6579203D200D0A000000042100205A
:10F4700073656E642064617461206C656E67746886
:10F48000203D2025642E2064617461203D200D0AFA
:10F49000000000000D0A000070B5054601461C2260
:10F4A0000E48FBF75DFE0E4C0026267029680029E9
:10F4B00006D00822201DFBF753FE201D7ADF02E054
:10F4C0000748001D7BDF002807D1401E6080667062
:10F4D000044A00210448FFF795FC70BDE024002099
:10F4E0003020002015180200741A0200F8B5214CD3
:10F4F0000146028800261E48E589102A13D01E4FB7
:10F50000112A1FD0122A2BD0502A1AD1881DC9883F
:10F51000A94216D14189022913D10C3000F0FEF81E
:10F5200000280CD112E08A88044642801048082244
:10F530000C301831FBF714FE6670002D01D100F07D
:10F54000F7FBF8BD0021C943418046703868FFF7DA
:10F55000EDFC0028F5D0A1690029F2D08847F8BD5C
:10F56000034808220C300831FBF7FAFDE7E70000FA
:10F5700030200020E0240020741A02007CB50546EB
:10F5800008880C460930904201D90C207CBD6846A1
:10F5900071DF0028FAD121880820685420881B21B7
:10F5A000401C80B220802954208800A9401C80B2D1
:10F5B0002080401906220131FBF7D2FD20886946E0
:10F5C000801D80B220800978002900D001212954B3
:10F5D0002088401C208000207CBD000010B504461F
:10F5E000FFF784FF2146054800F040F8204601F06F
:10F5F00071FC2046FFF7C4FD10BD00008C220020E6
:10F6000030B5184B0D4604000FCB85B003936B4605
:10F6100007C324D0002D22D00020C043A082286838
:10F62000A0610020A0752146684663DF002814D140
:10F630000121684681740C490182A21C04A90120A1
:10F64000A0DF002809D12946204601F03FFD00280F
:10F6500003D12946204602F097F805B030BD0E20B0
:10F66000FBE70000781A02001019000010B500280E
:10F670001BD0002919D00A88102A17D0112A17D0B8
:10F68000502A12D104468A1DC888238A1231984212
:10F6900002D15389022B0FD0A388984205D1A369C8
:10F6A000002B02D052892046984710BD898801E07E
:10F6B0000021C943818210BD084600F02FF80028C0
:10F6C00000D00120A07510BD07B584B000280DD072
:10F6D000828A114B9A420BD0827D002A08D06A465A
:10F6E000128B142A06D9072007B000BD0E20FBE7B5
:10F6F0000820F9E700220092019202920392828987
:10F700006B461A80039106A9029101219970808AA3
:10F710006946A6DFE8E70000FFFF000041780278B5
:10F7200008021043C007C00F7047000070B50D4DB0
:10F73000144628780219802A07D80B4A1018224646
:10F74000FBF70EFD287800192870C1B26C700648CE
:10F75000FEF710FB012803D10021042001F0E8FD91
:10F7600070BD000014210020A030002070B50C46B0
:10F77000054607E0142229460648FFF7A5FF143C7A
:10F78000A4B21435142CF5D8224629460148FFF7B7
:10F790009BFF70BD8C22002005490B5C05494A681F
:10F7A00001209840034693438B601040C860704727
:10F7B000401A02000005005010B50349085C012101
:10F7C00001F096F910BD0000401A020010B503497F
:10F7D000085C002101F08CF910BD0000401A020005
:10F7E0000549095C05484068C840C007C00F00D003
:10F7F0000120012148407047401A020000050050D6
:10F8000010B500242046FFF7D7FF641C042CF9D361
:10F8100010BD10B500242046FFF7D8FF641C042C4F
:10F82000F9D310BD0246002010B5C043054B00219E
:10F830005C5C944201D1084610BD491C0429F7D3F1
:10F8400010BD0000441A0200F3B581B00D460198C6
:10F85000FFF7E8FF0446042813D21D481D4F1E4E33
:10F86000002D27D0012D0DD0022D0AD160002018C7
:10F87000C0194578002D04D0F168002901D0284630
:10F880008847FEBD610061187D5CCF197978002939
:10F890000BD071680A2251430F4A8068921CFFF70F
:10F8A00001FB002801D10198B0700B48B9781030E5
:10F8B0000155DFE78068FFF739FB074861006118F1
:10F8C0001030C919005D8D78A842D3D0FEBD00006C
:10F8D000481A0200E8220020EC1F002010B5054A5B
:10F8E0000146127A0020D20702D0084600F018F82C
:10F8F00010BD0000EC1F0020FF2002490130C8604D
:10F90000704700000005005004494A68FF2001309C
:10F91000034693438B601040C86070470005005059
:10F92000F8B55D4C054660780026002803D000201D
:10F930006070FFF765FF0120584F2B00FEF759FF5D
:10F9400018970D0D2E3D4A5F64686F686FA9777731
:10F95000777777979A9DA0A9A9950020FFF740FF98
:10F9600000280AD00020FFF727FF022D02D1E12056
:10F97000C0000BE07D20400108E00020FFF726FFDB
:10F98000022D01D1C82001E0FF20913025706421B3
:10F99000FBF7BCFB6168414300222BE00020FFF72E
:10F9A0001FFF002805D00020FFF706FF19204001A7
:10F9B000ECE70020FFF70AFFE4E70020FFF710FF65
:10F9C000002803D00020FFF7F7FED3E70020FFF761
:10F9D000FDFED9E70020FFF703FF002803D0002039
:10F9E000FFF7EAFE02E00020FFF7F0FE25706068F6
:10F9F000410000223868FFF755FA064635E000203E
:10FA0000FFF7CAFE257007E000203FE025702CE0DC
:10FA100060700120FFF7C0FE00226168EAE76070B5
:10FA20000120FFF7B9FE606881004118E1E77868BE
:10FA3000FFF77CFA06461120401B01D0002E03D0B0
:10FA40000220FFF7B9FE10E001280BD9C821484376
:10FA50006421FBF75BFB6168002241437868FFF794
:10FA600021FA06460220FFF7B1FE3046F8BDFFF747
:10FA7000C7FECBE7FFF7C4FEC6E7FFF7C1FE04E011
:10FA8000FFF7BEFE0020FFF7A1FE0120FFF79EFE5C
:10FA9000BCE7FFF7BEFEB9E7EC1F0020481A0200E2
:10FAA00010B5FCF7FBFF0020044A01461154401C2E
:10FAB000C0B20828FAD30248017010BD6D210020A1
:10FAC0006C210020F8B50D46461C002069460870E0
:10FAD00001246846FFF73EFA134A1068286011684F
:10FAE00050689368081A1D1A701C6D1CA84212D920
:10FAF000002D0ED00D480E4C00882468800519405A
:10FB0000800DA402890020438918C8601068401C39
:10FB10001060002401E08819106068460078FFF743
:10FB200037FA2046F8BD000004260020A81A02007B
:10FB300078200020034803C8814201D1012070478A
:10FB400000207047042600200022D243830004498D
:10FB50000428CA5002D308182030027770470000EA
:10FB6000102500200249091820200856704700007F
:10FB70001025002030B5084C0122235C15468D402D
:10FB8000AB43235401D0002030BD824003480178AC
:10FB900091430170012030BD6D2100206C210020B7
:10FBA00070B5084C050009D010342168002907D031
:10FBB00008682060496828468847F6E70834F4E773
:10FBC00070BD0000FC24002010B500F029F900F001
:10FBD00065F9FFF765FF01F081FC00F0DDF80549EC
:10FBE000002088810146022001F0A2FBFFF7C4F843
:10FBF000012010BD7C300020F8B523484168002961
:10FC00003ED00E6821494C6887688078E11B0D0260
:10FC10002D0AED1C002814D101201D4A000450605B
:10FC20001B4A403A50601B49400008601A4908606E
:10FC30001A49012008602F2000F02AFD12490120F6
:10FC40008870B54200D23546E81900020F4B000A11
:10FC5000403318600D4A5168001B091B0902090A4C
:10FC60000002000AC91C814209D9506818602F207F
:10FC700000F00EFD01200749400480390860F8BDFE
:10FC800001F002FAF8BD00004820002000150140F4
:10FC90004013014080E200E000E100E0001001407C
:10FCA000F8B50646108814468446801D0D469842D5
:10FCB00001D90C20F8BD32880720062AFAD319276B
:10FCC000FF01184BBA4201D99A42F3D17188062933
:10FCD000F0D3B94201D99942ECD19A4203D099426A
:10FCE00001D08A42E6D80521604629542088122195
:10FCF000401C80B2208029542088401C80B2208083
:10FD00004119308801F081FD2188401880B220809F
:10FD10004119708801F079FD218840182080002069
:10FD2000F8BD0000FFFF000010B5FFF75FF810BD41
:10FD3000F8B5164800F06EF9144D00260C3D144C31
:10FD4000002807D0616900291CD001206A46107084
:10FD5000684616E02878002805D06169002911D08E
:10FD6000684606700DE0687800280DD0A168094843
:10FD700000220068FFF796F8002803D0A169002947
:10FD800000D088472E70F8BD6168F0E73C20002065
:10FD9000E0240020741A02007047000010B50E49DC
:10FDA00000230A784C78A24212D0521CD2B20A70B8
:10FDB000022A00D10B700A78074B920018339A5828
:10FDC0000260886810180002000A8860012010BDD7
:10FDD0000360002010BD00004820002010B503493A
:10FDE00010208860052000F07BFE10BD000500504B
:10FDF000002804D00349496E0160002070470320A9
:10FE0000704700009C25002010B5034600780122B1
:10FE100003E09C5C6040521CD2B28A42F9D310BD10
:10FE200010B500F063FD082000F037FEFF201A49EE
:10FE3000013088600021012000F026FE022000F041
:10FE40002CFE022000F044FE0021042000F01CFEE5
:10FE5000042000F022FE042000F03AFE052000F00D
:10FE60001CFE052000F034FE0021062000F00CFEF0
:10FE7000072000F012FE072000F02AFE032000F009
:10FE80000CFE032000F024FE092000F006FE0920ED
:10FE900000F01EFE10BD00000005005010B500F07F
:10FEA0005FF801F01FFB10BD10B50120FFB0000787
:10FEB00081B040696C462146801E01F0C6F8684654
:10FEC0000078AA283DD168464078AA2839D18021F7
:10FED000A01C01F099FD002833D00822A11C1A486B
:10FEE000FBF73EF9214610220A311848FBF738F992
:10FEF000214610221A311648FBF732F914482146E0
:10FF000020222A311030FBF72BF9114821462022FC
:10FF10004A312538FBF724F90D48214610226A3171
:10FF20003538FBF71DF9214605227A310948FBF7E0
:10FF300017F9094918A8C07F0870084920A8007857
:10FF400048717FB001B010BDD120002004210020F5
:10FF5000B62D00209C2000202C210020AA2000206B
:10FF600010B5054A01210548FEF74CFF002801D0D5
:10FF7000FEF73CFF10BD0000E1010200D41D0200AD
:10FF8000F8B51E4C2078002836D0E06800260028FE
:10FF90000CD00025607800282ED1684652DF052855
:10FFA00006D0002806D0FEF721FF0BE00125F1E77F
:10FFB000012607E0009800F051FC2169002901D0DA
:10FFC00000988847002D13D16078002814D16088EC
:10FFD00069460880A06861DF052804D0002804D0A5
:10FFE000FEF704FF04E0012502E0E168A06888470D
:10FFF000002ECFD0002DE5D0F8BD00007C200020E1
:020000040002F8
:1000000010B5042000F06CFD01492020886010BD6F
:1000100000050050418805480288914204D3408879
:10002000814201D801207047002070473420002011
:100030001048018CC9B2012917D1818C090714D14C
:10004000018D09060A0F03D1828D1206120F0ED000
:10005000090F012903D1828D1206120F07D003293F
:1000600003D1808D0006000F01D0002070470120D1
:1000700070470000C00F00F0F0B5284C2146103941
:1000800048688B68227886469C46CF78667836E04A
:10009000182353436168521CC918A378D2B2934203
:1000A00000D100220B78022B02D0032B27D123E0B2
:1000B00003464D68194603E0A94204D00B46C969BE
:1000C00000291CD0F8E7002919D08B4208D1C0695B
:1000D000002805D1124F0125BD600025AC4601273F
:1000E0000D68C969D961002909D00B685B190B60DB
:1000F00005E00174C06900E000210028F9D19642B2
:10010000C6D10649624610398A604860CF70704592
:1001100001D00120F0BD0020F0BD000058200020DB
:1001200000100140F8B52C4E044670680025009080
:1001300041E0002C02D02046E46920E02648182344
:100140001030017842684B43491CC9B2D218017083
:100150008378994200D105701178506801292CD11B
:10016000017C002929D191684160D16881601169C1
:10017000C16051698161F178002900D04560436810
:10018000B268164F991A0902090AB94202D2826866
:10019000891806E0D11A09028268090A8A4202D93E
:1001A000511A016000E0056045600121856001741D
:1001B000C56101F065FA002CBBD107481030017809
:1001C00040788142BAD171680098814201D0012003
:1001D000F8BD0020F8BD000048200020FFFF7F0090
:1001E00070B53C4D2878401C28706878401C6870B9
:1001F0000A20FBF73DFF0A20FBF75AFF2878642806
:1002000066D3354CA07A401CA072A07A0A2814D379
:10021000A07A0A38A07231480188012901D9491E03
:100220000180A089401CA081A089FF2169318842FA
:1002300003D30021022001F07BF826484168491CC5
:100240004160287864382870254D00262878C1063A
:10025000002915DAA178491CA170A17802290FD3D1
:10026000A670EF21084028701E4801781E48012919
:1002700002D0022902D003E0022100E00121017036
:100280002878C10701D1810713D5E188491CE18095
:10029000E188B4290DD3E680C00703D000210620F1
:1002A00001F046F82878800703D50121062001F0E7
:1002B0003FF8297808070BD52089401C2081208928
:1002C000E1221201904203D32681F72001402970D8
:1002D00070BD0000DC2000207C300020A220002027
:1002E000D02000202521002024210020002388B0D8
:1002F000504A07211846FEF79BFD002801D0FEF763
:1003000075FDFDF7A9F94CA10020FDF7FBF94E485A
:10031000484900680590002348225C3905A801F08F
:100320009BF8002801D0FEF761FD6A4601210020FC
:1003300001F07AF8002801D0FEF758FD684601F078
:1003400021F8002801D0FEF751FD404801F010F8D7
:10035000002801D0FEF74AFD1120694608720722E5
:100360003BA102A87CDF002801D0FEF73FFD00245E
:10037000009410216846019401803C214180FF21B6
:1003800084809131C1807ADF002801D0FEF72EFDF4
:100390003148284900900120A83108702548694655
:1003A000A830FFF72DF9002801D0FEF71FFDFEF75A
:1003B0008BFC1C216846FAF7ECFE0520C003019077
:1003C0000F20000402900094032168460173C48149
:1003D000047422480590224806906846FFF75CF8AE
:1003E000002801D0FEF702FD002000F0ADFA002841
:1003F00001D0FEF7FBFC0320FEF7EEFE002801D043
:10040000FEF7F4FC17A10020FDF77CF9FFF7DCFBF9
:10041000184C194D194E03E0285C8100715888472B
:1004200020780028F8D148DF0028F9D0FEF7DEFC5C
:10043000F6E70000E42100204D61696E20537461ED
:100440007274210D0A0000003C1A0200DDF5010063
:10045000414E47554D454E002DF70100A50F0200B6
:1004600029FD0100416476205374617274210D0AE4
:10047000000000006C210020DD1D02004C21002046
:1004800070B5144682880E4605462088111D411815
:10049000921C994201D8FE2A01D90C2070BD521C31
:1004A00032542088FF21401C80B2208031542088A3
:1004B000401C80B220808119288801F0A6F921888B
:1004C000401880B22080AA88002A09D0A968002993
:1004D00008D08019FAF744FE2088A98840182080A7
:1004E000002070BD072070BD70B503250F4C01269C
:1004F0002570667013E06078012803D12078032806
:100500000DD02570A07800280FD009A10020FDF79C
:10051000F9F8FEF75DFAA078002806D0EBE7A670A0
:1005200007A10020FDF7EEF8ECE770BD30210020B8
:100530006164632073616D706C650D0A00000000DA
:1005400042415454455259204144430D0A00000091
:10055000F3B581B00E0029D015490878002825D0C0
:10056000FF20144C1D30002222500127A7601546A1
:1005700019E00F4A1078002817D0FF211D31002004
:1005800060500198435D0C48C36103E0084800785F
:10059000002806D0FF211D31204600F07EFC0028F7
:1005A000F4D06D1CEDB2B542E3D3E760FEBD0000B0
:1005B0001C2100200020004000250040F8B50F4617
:1005C000017814460546012902D16878002806D032
:1005D0002088821C9A422DD8012902D006E00720EB
:1005E000F8BD69784118891C994223D8181A801ED1
:1005F00086B2684606802188B81C081869467DDFE7
:100600000028EDD12878022805D169460988B14231
:1006100001D809210AE00821012805D16878B042F3
:1006200002D86A46108001E0684606806846008865
:10063000FE2801D90C20F8BD2288401CB85420881F
:10064000401C80B22080395420886946401C20809C
:100650000988401820800020F8BD00000349401898
:100660000068002800D001207047000000700040A2
:10067000C20843075B0F0120895C9840084070471F
:100680000121890740180068002800D00120704728
:1006900000280FD00849094A096800BF00BF00BF01
:1006A00000BF00BF00BF00BF00BF914200D000BF2D
:1006B0000138F2D170470000842100200024F400AA
:1006C00070B5144CA27C022A16D00222A274626871
:1006D000A260217400216174E0600F4812684260DA
:1006E0000E4A86151160012505602068002805D096
:1006F0000B49012048600BE0112070BD3046FFF728
:10070000ADFF0028FAD0FEF733F90028F6D0A57423
:10071000002070BD88250020007500400071004059
:1007200000730040074B0022596801E00A464968FF
:100730008142FBD14868002A01D050607047586060
:1007400070470000882500200021064A416051685A
:10075000002902D15060704711464A68002AFBD137
:10076000486070478825002070B50C4D0C46A97C68
:10077000002901D0082070BD094A00211160002C19
:1007800006D0002800D107480178072000F06CF857
:1007900001202C60A874002070BD00008825002076
:1007A00000710040A41A020001490120086070474E
:1007B0000070004010B5002005490122054C80233F
:1007C00048602360044B9A60044B1A60887410BD23
:1007D0008825002080E100E00073004004700040A4
:1007E00070B50E4C00252078002801D0852513E037
:1007F0000021A16061602161E16009480068012673
:10080000304002D1032100F02FF800F061FE0028F3
:1008100001D1044886612670284670BDFC24002062
:1008200000E100E00005004038B50020694608708E
:100830006846FEF78FFB084C2078002801D1FFF7AF
:10084000CFFFE068401CE0600120A070684600789F
:10085000FEF79EFB38BD0000FC24002010B50028E8
:1008600001D1FFF79DF910BD8207D30EFF229A40F8
:100870008907090E10B5994000280BDA03071B0FF2
:10088000083B9C080C4BA400E318DC6994430C4320
:10089000DC6107E08408094BA400E4182368934353
:1008A0000B432360C106C90E01208840044908603B
:1008B0000449086010BD000000ED00E000E400E025
:1008C00080E200E000E100E04109074A8900891860
:1008D0000968C206D20E01209040014201D00120D9
:1008E000704700207047000000E100E070B5144D33
:1008F0002879002801D0082070BD11490020403916
:10090000421E0B182033401CC0B21A702028F8D3A6
:1009100000242046FFF718F9641CE4B2082CF8D331
:1009200003210620FFF7A0FFFF207D3000F000F933
:1009300001200449C007486001202871002070BDD3
:10094000502500200063004038B5124C2178002962
:1009500001D0852038BD002800D10F480D4902780C
:100960004A70407888700020694608706846FEF733
:10097000F1FA00F0ADFD002803D100F03DF800F0E1
:1009800055F868460078FEF703FB01202070002030
:1009900038BD0000442000208C1A0200F3B5144E2C
:1009A00081B00F46002568460570FEF7D3FA00F0C7
:1009B0008FFD00280BD068460078FEF7E9FA39462B
:1009C00001983ADF0446B0420DD105240DE03A46C5
:1009D0000848019900F040FA044600F027F86846FC
:1009E0000078FEF7D5FA022CDDD02046FEBD0000CF
:1009F00007200000901A020010B50948417800292C
:100A000004D008494A6801231A434A6006490A6823
:100A1000520852000A6081780D20FFF725FF10BDB3
:100A20004420002000D5004000D20040054A0020AC
:100A300003491060044A01205060086070470000BC
:100A400000D0004000D1004000D300400249012006
:100A5000886002490860704700D3004004D000401D
:100A600070B552000A439900049D0A432902059E6D
:100A70000A43310405240A43240780000721001992
:100A800009024018026070BD1CB500220B4600929E
:100A900011460192FFF7E4FF1CBD1CB50021009137
:100AA0000B46012201911146FFF7DAFF1CBD05221A
:100AB0001207800082180720000210180268032322
:100AC0001B049A430260026809040A4302607047EB
