:020000040001F9
:10B00000403A0020D5B00100EFB00100F1B00100DE
:10B010000000000000000000000000000000000030
:10B02000000000000000000000000000F3B001007C
:10B030000000000000000000F5B00100F7B00100C2
:10B0400051C90100F9B0010035D40100F9B0010087
:10B05000F9B001000000000001C1010089B2010047
:10B06000F9B00100F9B00100F9B00100F9B0010038
:10B07000F9B001004DD00100F9B00100F9B00100B4
:10B08000F9B00100ADD00100F9B00100F9B0010044
:10B090006DD30100F9B0010075D30100F9B00100D2
:10B0A000F9B00100F9B0010000000000000000004C
:10B0B0000000000000000000000000000000000090
:10B0C0000348854600F0A2F80048004779FA0100DD
:10B0D000403A00200321094802680A4302600848F8
:10B0E00002680A4302600748804707480047FEE7B6
:10B0F000FEE7FEE7FEE7FEE7FEE70000240500406E
:10B100005405004095D30100C1B0010030B50B4695
:10B11000014600202022012409E00D46D5409D4231
:10B1200005D31D469540491B2546954040191546B7
:10B13000521E002DF1DC30BD70B5002425460028DC
:10B1400001DA01244042002901DA01254942FFF7D2
:10B15000DDFFAC4200D04042002C00D0494270BD1F
:10B1600003460B439B0703D009E008C9121F08C020
:10B17000042AFAD203E00B780370401C491C521ECB
:10B18000F9D27047D2B201E00270401C491EFBD2D6
:10B1900070470022F6E710B513460A4604461946E2
:10B1A000FFF7F0FF204610BD30B505462A460B4696
:10B1B00010781C78521C5B1C002801D0A042F7D0EC
:10B1C000002C03D0002802D06D1CEFE7284630BDCC
:10B1D000421C0178401C0029FBD1801A704730B511
:10B1E00004460020034600E05B1C934203D2E05C6F
:10B1F000CD5C401BF8D030BD03460A780270401C7D
:10B20000491C002AF9D1184670470000064C012558
:10B21000064E05E0E36807CC2B430C3C98471034FE
:10B22000B442F7D3FFF750FFE81A0200081B0200F0
:10B2300070B58C180578401C6B075B0F01D1037843
:10B24000401C2A1106D10278401C03E006780E70DB
:10B25000401C491C5B1EF9D12B0705D40023521E4C
:10B260000DD40B70491CFAE70378401CCB1A921CD2
:10B2700003E01D780D70491C5B1C521EF9D5A142DC
:10B28000D8D3002070BD0000FEB5134C0026E06846
:10B290000125124F002810D002F044FF00280BD0E7
:10B2A0000120B86068460670E0680190217C68461D
:10B2B0000181A57421688847FEBD09480660012008
:10B2C000B8600848066069460D7080688880A5747B
:10B2D00068462168EFE700007C25002000730040ED
:10B2E0000071004000750040FFB581B0044603982E
:10B2F0001D4606070F46360F204600F095FD1948FB
:10B30000002D046002D0456001F0ECF90A98002895
:10B3100001D01449886000250FE03946204600F02E
:10B3200083FD1048046000F0A7FF204602F080FC77
:10B330000C48103410358760103703988542ECD3E1
:10B34000002E0CD03946204600F06EFD1020811BE7
:10B35000A019FFF71EFF0348046000F08DFF05B041
:10B36000F0BD00006C210020F8B52B4C0746E27FB1
:10B370002AA100F08BFE254600262035002805D0A6
:10B380002848042201781143017032E02249E27F0B
:10B390005D39384600F07AFE1F4CE03C0028607DA5
:10B3A00033D0022805D0032803D00F2801D010285D
:10B3B0000AD114221CA1384600F068FE00280BD0E8
:10B3C0001AA1002001F0E8FE607D062806D00B28B7
:10B3D00004D0152802D00CE01BA10EE0412212A1DE
:10B3E000384600F053FE002806D01FA1002001F0CF
:10B3F000D3FE6E700420F8BD22A1002001F0CCFE27
:10B400003946002001F0C8FE01E00F2801D00220DB
:10B41000F8BD0020F8BD0000B82E00204C69657210
:10B4200064610000D02000204F4B000061742B634A
:10B4300066756E3F2F61742B63676174743F206F74
:10B440006B20210D0A00000061742B6366756E3F4E
:10B450002F61742B63676174743F206572726F7221
:10B4600020210D0A0000000061742B6367736E3D9C
:10B47000312F61742B6E63636964206F6B20210D23
:10B480000A00000061742B6367736E3D312F617495
:10B490002B6E63636964206572726F7220210D0ADE
:10B4A0000000000010B51049097C00290CD00128CB
:10B4B00008D108460D4C00F001FE217A012282409D
:10B4C00011432172032010BD0848017A002906D0DB
:10B4D0000021017206A1002001F05EFE01E00621BC
:10B4E0000170002010BD0000D82D0020982C0020F5
:10B4F0004576656E74206973204572726F72200DF7
:10B500000A000000F0B500259BB0064668462C46B0
:10B5100005702746642101A8FFF73BFE002E2ED1BF
:10B5200069460C7110224A71164901268A786946CB
:10B530008A71CC710C724C728C72134A01A807216B
:10B540005319FF3321339B784354491C6D1CEDB2D2
:10B55000C9B2142DF4D34654491CC9B24454491CF1
:10B56000C9B24654491CC9B2465452190021FF328F
:10B570004132D2784254891CC9B20629FAD33846DE
:10B580001BB0F0BDD82D0020982C0020F8B5044643
:10B590004578407A012832D0207A042830D0032818
:10B5A0002ED01848867DF0212046FFF7F2FD0120BD
:10B5B0006072657000202072134FA6702D01EE1985
:10B5C000307BE070B0887D21C90048436060204630
:10B5D0000A3000907959FFF70FFE7859FFF7F8FD10
:10B5E00025466035A87320466F30B168FFF704FE2A
:10B5F000A97B009804F062FBA078401CA070F8BD05
:10B600000026D0E7D82D0020B8110200F8B5364C3E
:10B61000A17803290ED2354A354E515C337F354A25
:10B6200001270025042B06D0032B53D007202070C0
:10B6300037757175F8BD152902D0162934D122E06D
:10B640002DA1FFF7B1FD07462DA1002001F0A4FDBB
:10B65000002F29D0B57000203918497930390A29CE
:10B6600003D2401CC0B22028F6D3381841792846AE
:10B670000A22504330380818C2B2B27023A1002009
:10B6800001F08AFD10E01848617AC37A01209840E1
:10B69000032902D1317C81433174217A81431448DA
:10B6A0002172157080380583A078401CC0B2A0704C
:10B6B00003280CD30020FFF7F5FE002803D0052057
:10B6C0002070A570F8BD062020702573F9E70520CD
:10B6D0002070F8BD162904D1052020701078401C78
:10B6E0001070A5702573F8BD982C002088110200F9
:10B6F000D82D0020902000202B4353513A00000009
:10B70000636D64206373710D0A0000006373712020
:10B710003D2025752E0D0A00F8B5154CA1780E298F
:10B720000FD214480026425C1348037F0546803D33
:10B73000042B07D00127032B12D007212170077596
:10B740004275F8BD491CC8B2A0700E2805D306206A
:10B750002070A67002202877F8BD03202070F8BD65
:10B7600006A1002001F018FD2770A670AE76F8BD86
:10B77000982C002068130200D82D0020436F6E6EB5
:10B780006563742052657365740D0A00F8B5144C36
:10B79000A17805290FD213480025425C1248037F87
:10B7A0000646803E042B07D00127032B0FD007212C
:10B7B000217042750775F8BD491CC8B2A0700528F4
:10B7C00002D30420207007E002202070F8BD07A1FA
:10B7D000002001F0E1FC2770A570B576F8BD0000EF
:10B7E000982C00208B110200D82D0020496E69741E
:10B7F0002052657365740D0A00000000F8B5464DCF
:10B80000A9780A290DD2454A0026525C44490B7F8B
:10B81000042B07D00124032B73D0072028704A750E
:10B820000C75F8BD062A02D00B2A5CD12AE03DA196
:10B83000FFF7BAFC07463DA1002001F0ADFC002F48
:10B8400051D0002438194079014630390A2905D3EE
:10B8500031391A2902D341381A2804D2641CE4B2BF
:10B86000102CEFD303E0102C01D2381946712C486C
:10B87000791D2E3822460746FFF772FC3B462246CA
:10B880002DA129E032A1FFF78FFC074632A100204D
:10B8900001F082FC002F26D000243819807901465F
:10B8A00030390A2905D331391A2902D341381A28E7
:10B8B00004D2641CE4B2202CEFD303E0202C01D28C
:10B8C000381986711648B91D1E3822460746FFF7FB
:10B8D00047FC3B46224623A1002001F05DFC0021ED
:10B8E000062005F0DBF8A878401CC0B2A8700A2832
:10B8F00004D303202870AE70F8BD02E00420287045
:10B90000FAE71EA1002001F047FC05482C70AE703C
:10B9100080388676F0E70000982C0020761302002D
:10B92000D82D00204347534E3A000000636D642039
:10B930006367736E0D0A00006C656E203D202575EF
:10B940002C20696D65693A25732E200D0A000000D0
:10B950004E434349443A0000636D64206E6363695B
:10B96000640D0A006C656E203D2025752C206E63E9
:10B970006369643A25732E200D0A00004D657373C8
:10B980002052657365740D0A00000000F8B5154E6D
:10B9900000243460144D2846E0306C77827FC277F3
:10B9A00007468477014620373C701048463900909E
:10B9B000FFF7D6FB042030600098FFF7D5FC28770E
:10B9C00002280DD0787800280AD0012807D102215A
:10B9D000052005F063F806A1002001F0DDFB2C77BF
:10B9E000F8BD000000250040D82D0020A52C002027
:10B9F0005354415254204445434F44450D0A0000DE
:10BA0000F8B5B24DB2482C462A78A188007800904B
:10BA10002646A078FF340127C0364134130002F0D7
:10BA200096FA082764A1C0C6EBFE05FD207F00281A
:10BA30007ED0022801D0012805D1A07DE17D884279
:10BA400001D30320207768788100A248415800295B
:10BA500002D09E480D308847207F042801D003285B
:10BA600001D1072068709C490020886560771FE13C
:10BA700000295DD100280DD001281AD0022827D036
:10BA800096A1002001F088FB0020B07668700221AA
:10BA900029700CE196480821C1608901C16095A117
:10BAA000002001F079FBA878401CA8704B20000111
:10BAB000A0E08F490820886096A1002001F06CFB6F
:10BAC000A878401CA8706420A88097480770EFE011
:10BAD000012087494002886094A1002001F05CFBAE
:10BAE000A878401CA870964884E0002920D100283E
:10BAF00025D001282ED00020B0766F702870A87055
:10BB0000B075217C3943217428723077A072E072BD
:10BB1000A0811E21E1818B494A78521CD2B24A7021
:10BB2000032AA4D34870009808226949104300E012
:10BB30009CE0087084A1002001F02EFBB8E00120F9
:10BB40006B494002C860AF70C820A88076490020C9
:10BB50000870ADE001206649400288600220A870AC
:10BB6000322047E0002902D0009949077ED50028FD
:10BB700015D07AA1002001F00FFB0020A8805448C6
:10BB8000FB22017811400170287868700720287026
:10BB900027755049A878491F085C60758BE075A12E
:10BBA00021E06A700721297027757849F4E7002998
:10BBB00002D00099490763D5002813D074A1002052
:10BBC00001F0EAFA0020A8804148FB2201781140E8
:10BBD000017028786870072028706C492775A8784C
:10BBE0000E31D9E770A1002001F0D6FAA878401CE8
:10BBF000A8707348A8805BE00120FFF753FC6872CF
:10BC0000002855D0297A002952D0A978002900D1DE
:10BC10002F73304A083A515C162901E052E030E0B7
:10BC20001AD1032818D1207C00F048FA27490022B5
:10BC3000E87271310092002802D001280AD105E093
:10BC40000020FFF75FFC5FA1009000E062A10020F0
:10BC500001F0A2FA00987075A07A032802D3A878A0
:10BC600000280BD028786870072000E008E02870D2
:10BC700027751848A9780838405C8EE76F702F70D8
:10BC8000F8BD0020FFF70EFC002802D0A87A384348
:10BC9000A872A87A00280BD000F010FA411D297074
:10BCA000A97A8740B943A972062068700020A8705D
:10BCB000207D0128E4D10020207507485430FFF78B
:10BCC00065FCF8BD02202870F0E70000982C0020E9
:10BCD000D020002090110200982D00206E6578740D
:10BCE00020737461746520696E697420210D0A00E7
:10BCF00000050050636C656172206E6220706F7782
:10BD000065726F6E20616E642072657365742021A8
:10BD10000D0A0000736574206E6220706F77657283
:10BD20006F6E20210D0A000006210020736574202B
:10BD30006E6220726573657420210D0A0000000098
:10BD4000581B000090200020436C6F7365205374D3
:10BD50006174652050726F630D0A0000696E69742A
:10BD6000206E622068617320737461727420210DEB
:10BD70000A000000696E69742077616974206E6240
:10BD800020737461727420210D0A00006813020090
:10BD90006D657373206E62206861732073746172C5
:10BDA0007420210D0A0000006D65737320776169AE
:10BDB00074206E6220737461727420210D0A000079
:10BDC000204E0000696E6974206D65737320757074
:10BDD0006C6F61640D0A00006C6F67206D65737392
:10BDE0002075706C6F61640D0A000000F0B50C4A9C
:10BDF000002112680B4B94468400621800209500C5
:10BE00008A0062442F18165CDF5D7E401654401C89
:10BE1000C0B20428F6D3491CC9B20429EDD3F0BD41
:10BE20006C2100209031002000228B5C8354521C36
:10BE3000D2B2102AF9D37047F8B506460024364F1F
:10BE400063E036490D5C002D06D0012D12D0022D85
:10BE500027D0032D53D14AE031480178314801F011
:10BE6000B1FD012803D10121042004F017FE2C4864
:10BE7000047044E02C48C17A2C480C31006800F072
:10BE8000BDF801462848007C814238D12648274920
:10BE9000C07A02220F30C0B2096802F0E5FD02212B
:10BEA00021E0234800902048214BC27AC068014617
:10BEB000FFF71AFA1F4804701B48C368C17A581864
:10BEC0002038C07F814205D9002803D0164A081ABD
:10BED000D07201E01448C47213480322C07A194694
:10BEE00002F0C2FD0321042004F0D8FD07E00E4853
:10BEF000C27A417AC06800F055FDFF2809D0294672
:10BF0000304603F0FBF9012802D0B85D002898D133
:10BF1000F8BD0020F8BD0000612100208914020056
:10BF200004210020903000207C3000209820002048
:10BF3000F42000209520002010B50E490A78002A30
:10BF40000FD0012A10D0022A0AD14A78002A03D041
:10BF500000228B1C1A804A700422C82100F01AFCAF
:10BF600010BD03F08DF810BD01224A7000227D2122
:10BF7000C900F3E70621002070B5104C0546207873
:10BF800000280ED001280FD0022809D103F00AFCA6
:10BF9000E1210022C900284600F05AFC022060700E
:10BFA00070BD04F06BFE70BD03F0D2FA7D2100225B
:10BFB0000901284600F04CFC0120F0E71421002084
:10BFC000F8B505460B4F0C4E10E03C5C230001F029
:10BFD000BEFF02020507FFF7D9FC01E0FFF710FDE5
:10BFE0002146284603F08AF9012802D0705D002816
:10BFF000EBD1F8BD891402006121002010B50022A8
:10C00000064C03E003785340E25C401C0B46491E9B
:10C0100089B2002BF6D1104610BD0000801302003B
:10C0200010B5002818D0184A0124137A01280CD022
:10C03000022812D0032818D0042820D005280BD1BC
:10C0400000291ED0082003430DE0002901D023431E
:10C0500009E058084000107210BDA52901D0042045
:10C06000F1E7FB200EE0137210BD07480029807A2B
:10C0700001D0204301E040084000907210BD517291
:10C0800010BDF7200340EEE7BE20002070B500246D
:10C090000B4605781E78B54205D15D785B1C002DF6
:10C0A00002D1012070BD0B464578401C002D03D005
:10C0B000641CA4B29442ECD3002070BD0146002061
:10C0C00001231A4682400A4204D1401CC0B208280B
:10C0D000F7D3FF207047000070B50446064E074DA9
:10C0E00005E0315C204603F009F9012802D0285D03
:10C0F0000028F6D170BD00008914020061210020E3
:10C10000F0B50024FF268BB00136012527460694A2
:10C11000304604F0CBF8002807D054484068284245
:10C1200003D0304604F0BAF82C43361D6D007F1C56
:10C13000B6B2042FECD3FF257D35284604F0B6F8BF
:10C14000002809D0284604F0A9F86807044306AA85
:10C150000121002004F08EF8454D200714D001275E
:10C16000002627420CD04348B2001118086909691B
:10C17000C004C00E8903AA58890F002A00D0904736
:10C180007F00761C042EECD3002C6DDA0020089082
:10C19000401E63E0281940300778B906890E0091E7
:10C1A00000214156491C49D009A9009803F016FE08
:10C1B000002843D0B8090190009803F097F8800058
:10C1C0002F580198002F02D0032802D00DE0032839
:10C1D00034D1009808ABC20841079446985C490FD7
:10C1E00001228A40104362469854009805210907AD
:10C1F00080004018072109024018006806A9800342
:10C20000800F0290009803F0E9FD0028029802D008
:10C21000022802D012E0032810D10198032808D187
:10C22000029802281ED00221009803F0F6FF761C27
:10C23000F6B2002F02D001990098B847641C042C74
:10C24000A8D3002E10D06A460121002004F012F875
:10C2500006990098884207D0069008980026344630
:10C26000099097E70321DFE70BB0F0BD00630040C2
:10C27000042500200065004010B50A20FFF7B6FD38
:10C28000092400F0F9F900F015FA2046FFF7AEFD99
:10C2900000F00CF8641E2406240EF2D100F0ECF934
:10C2A00000F008FA0020FFF7A1FD10BDF0B585B041
:10C2B000002003908400EF480068065D2018417854
:10C2C000029181780191C0780090304604F004FF1B
:10C2D00004F002FF04F000FF04F0FEFE009804F0FA
:10C2E000FBFE019804F0F8FE029804F0F5FE04F05D
:10C2F000F3FE029804F0F0FE04F0EEFE04F0ECFE13
:10C3000004F0EAFE009804F0E7FE04F0E5FE04F015
:10C31000E3FE04F0E1FE009804F0DEFE04F0DCFE33
:10C32000019804F0D9FE04F0D7FE04F0D5FE04F025
:10C33000D3FE304604F0D0FE0546304604F0CCFE75
:10C3400004F0CAFE4540304604F0C6FE04F0C4FEC8
:10C3500004F0C2FE4540029804F0BEFE0299074672
:10C360004F40084604F0B8FE04F0B6FE04F0B4FEF8
:10C3700047407D40019804F0AFFE04F0ADFE019906
:10C3800007464F40084604F0A7FE04F0A5FE04F05F
:10C39000A3FE47407D40009804F09EFE04F09CFE02
:10C3A00004F09AFE014600984140B2484D400068B2
:10C3B0000555304604F090FE009804F08DFE01987B
:10C3C00004F08AFE04F088FE029804F085FE04F072
:10C3D00083FE04F081FE04F07FFE304604F07CFE14
:10C3E00004F07AFE04F078FE04F076FE304604F0A5
:10C3F00073FE04F071FE009804F06EFE04F06CFE13
:10C4000004F06AFE04F068FE019804F065FE04F092
:10C4100063FE04F061FE04F05FFE304604F05CFE53
:10C4200004F05AFE04F058FE05467540029804F0E8
:10C4300053FE0746029804F04FFE04F04DFE4740BD
:10C44000029804F049FE04F047FE04F045FE474020
:10C450007D40019804F040FE019907464F40084690
:10C4600004F03AFE04F038FE04F036FE47407D400A
:10C47000009804F031FE04F02FFE07460098474074
:10C4800004F02AFE04F028FE04F026FE4740794816
:10C490007D40006820184570304604F01DFE00986D
:10C4A00004F01AFE04F018FE019804F015FE04F0E2
:10C4B00013FE04F011FE04F00FFE029804F00CFECF
:10C4C000304604F009FE04F007FE04F005FE04F017
:10C4D00003FE009804F000FE04F0FEFD04F0FCFDF5
:10C4E00004F0FAFD029804F0F7FD04F0F5FD04F005
:10C4F000F3FD04F0F1FD029804F0EEFD04F0ECFD14
:10C50000304604F0E9FD04F0E7FD0546754030468D
:10C5100004F0E2FD04F0E0FD04F0DEFD4540029889
:10C5200004F0DAFD04F0D8FD04F0D6FD029948408D
:10C530004540019804F0D0FD0746019804F0CCFD79
:10C5400004F0CAFD4740019804F0C6FD04F0C4FDA4
:10C5500004F0C2FD47407D40009804F0BDFD074651
:10C560000098474004F0B8FD04F0B6FD04F0B4FDB7
:10C57000474040487D40006820188570304604F0F0
:10C58000ABFD04F0A9FD009804F0A6FD04F0A4FDA5
:10C5900004F0A2FD04F0A0FD019804F09DFD0298B6
:10C5A00004F09AFD304604F097FD04F095FD04F088
:10C5B00093FD04F091FD019804F08EFD04F08CFDD4
:10C5C00004F08AFD04F088FD019804F085FD04F074
:10C5D00083FD029804F080FD04F07EFD04F07CFDF4
:10C5E00004F07AFD304604F077FD0546754030468C
:10C5F00004F072FD04F070FD04F06EFD45400298F9
:10C6000004F06AFD04F068FD029906464E400846B3
:10C6100004F062FD04F060FD04F05EFD46407540EC
:10C62000019804F059FD04F057FD04F055FD0199FF
:10C6300048404540009804F04FFD0646009804F03D
:10C640004BFD04F049FD4640009804F045FD04F020
:10C6500043FD04F041FD464006487540006820183F
:10C66000C5700398401C0390042800DA22E605B048
:10C67000F0BD00006C2100200D480068417B427A2B
:10C680004273427942724278427141708178827A73
:10C69000827081728179827B82718173C178C27963
:10C6A000C270C27AC271C27BC272C173704700008D
:10C6B0006C21002030B50949094A0C68002000218E
:10C6C0008B001B191D5C491C555DC9B21D54042902
:10C6D000F6D3401CC0B20428F1D330BD6C21002039
:10C6E00089160200F8B52749274B4A6800208100C7
:10C6F000545C5C548C18C91865784D70A5788D70A1
:10C70000E478401CCC700428F1D337E0002182008B
:10C710006D46141F66189E5D6E54491C0429F9D39A
:10C72000810715D12F46BE782978FF78174C6D7890
:10C73000BC46655DA65D6F467E706746E65D6F46EA
:10C74000BE70615CF970124C8108615C4D403D70B7
:10C75000D4182546203D6E46297C36787140995480
:10C760006E46697C727851406170AA7CB1784A400B
:10C77000A270EA7CF1784A40E270401C2C28C5D3B4
:10C78000F8BD00006C2100209031002089150200C6
:10C790008917020070B5154652060C4C160E2288F9
:10C7A000101880B2208088420ED302F071FC002065
:10C7B0002080002D08D0A178491CC9B2A170B142D7
:10C7C00002D3A070A11E087070BD000008210020D7
:10C7D00070B50446064E074D05E0315C204602F078
:10C7E0008DFD012802D0285D0028F6D170BD000023
:10C7F000891402006121002070B50446064E074DE1
:10C8000005E0315C204602F079FD012802D0285D68
:10C810000028F6D170BD00008914020061210020BB
:10C82000F8B50546084F094E0AE03C5C002C01D1E2
:10C8300003F020FA2146284602F060FD012802D0CC
:10C84000705D0028F1D1F8BD89140200612100203B
:10C8500010B5074C2288101880B22080884205D37A
:10C8600004F00CFA0020A11E0870208010BD00000A
:10C870001621002010B50020104991229200044694
:10C880000C54401C80B29042FAD30D4900200C5445
:10C89000401C80B21028FAD308480AA1ED30FEF7F8
:10C8A000ABFC06480BA1DD30FEF7A6FC0C480B499B
:10C8B000C1811E2101824038847610BD982C002051
:10C8C000DC2E00203138302E3130312E3134372EED
:10C8D0003131350063746E62000000004C240000AA
:10C8E000982D00208307FF22DB0E9A408907090E4E
:10C8F000994000280BDA0007000F08388308084821
:10C900009B001818C36993430B43C36170478308A6
:10C9100004489B001B181868904308431860704730
:10C9200000ED00E000E400E070B50446064E074D5F
:10C9300005E0315C204602F0E1FC012802D0285DD0
:10C940000028F6D170BD000089140200612100208A
:10C95000F8B5FF20013003F049FA002401250E4EFE
:10C960000E4F002807D00E4804600120B0607D7093
:10C97000002002F0D9FCFF20053003F037FA002830
:10C9800008D00748001D04600220B060BD7001207F
:10C9900002F0CAFCF8BD000000030040F0240020B3
:10C9A00000010040F7B5E0B0054601A80790F14846
:10C9B000002740881646C11FF93905D0EEA1002096
:10C9C00000F0EAFB07210DE0002E0FD0F24840797D
:10C9D000A5280DD06198A0280AD0F0A1002000F071
:10C9E000DBFB0421619801F04FF8C9E2F2A1F5E701
:10C9F000F8A10020619A00F0CFFB6198F94C0B215F
:10CA0000A8287AD014DCA22850D008DC01281AD03B
:10CA100002281BD0A0281DD0A12822D146E0A3289F
:10CA20006CD0A52841D0A62801D0A72819D195E01F
:10CA300003A9A9380691030001F089FA08EFF4EC84
:10CA4000EBEAE9E8E7130823E7A201E00F23E8A2F5
:10CA500000216DE0EAA1002000F09EFB287801286B
:10CA600001D0042186E2CC4D6879A528DAD00020D7
:10CA7000207001261021E74803F046FB601C1022BD
:10CA8000E449FEF76DFBE4481124067000210620FE
:10CA900004F004F82246E1A1002000F07DFB2146CD
:10CAA000619800F07BFAA520687166E2DA4C2846AE
:10CAB000627808300090002A04D0012A2BD010237D
:10CAC000024633E0102E1AD0182ECAD12846E17043
:10CAD00010300822D649054600F060FF0028E4DD4A
:10CAE00008222946D248FEF73BFB0021062003F02E
:10CAF000D5FF01206070FF2742E231E024E00120F1
:10CB0000E0700822CA49009800F048FF0028CCDDF8
:10CB100008220099E6E72A460021E07800F0F2FCBE
:10CB2000070008D0FF2FE7D0009A10230121619859
:10CB300000F0B4FF21E20020A070284601F06AF85E
:10CB400010230021009AF2E7012E8AD12878A2282A
:10CB500087D100F067FE002875D00EE207210AE2B7
:10CB6000B4A1002000F018FB092EAED10822B04974
:10CB7000284600F013FF002897DD08222946AC481C
:10CB8000FEF7EEFA0021062003F088FF002082491C
:10CB900020700979617069460875AA4802260088E4
:10CBA000012801D801200875002000F045FE012869
:10CBB00003D16946087D304308756846007DA07042
:10CBC0000321619800F0EAF9A52168460176042165
:10CBD00041769D4808A9006807909C48008800F0AD
:10CBE000F8FF06A800F06EFF2A7A102398499948AA
:10CBF000A12A02D0A22A02D0BFE10E7001E00122D8
:10CC00000A70017819430170B7E16BE138E1A2E0E5
:10CC1000A3E088E031E005E0FFE78FA1002000F00D
:10CC2000BBFA51E191A1002000F0B6FA079800F09C
:10CC300003FE012808D006202070601C0D21FEF79D
:10CC4000A8FA0E217EE12AE000202070601C082254
:10CC50000699FEF785FA8949029840180290000E5D
:10CC600060720298000CA0720298000AE0720298AA
:10CC70002073684640796073E3E7012E00D0F0E648
:10CC80002878AB28FBD100F0CDFD002807D000F0BC
:10CC9000C9FD05A900F0D8FE002802D029E0052131
:10CCA00068E10020694608714871087D410602D597
:10CCB00001216A465171810605D56A4651790222E1
:10CCC00011436A465171C10605D56A46517904225D
:10CCD00011436A465171000705D569464879082114
:10CCE000084369464871022301AA0021619800F0B7
:10CCF000D5FE494CA078102813D20FAA01A900F044
:10CD0000A5FE002803D0A078401CA070F2E70823FD
:10CD100001AA0021619800F0C1FEA078401CA0701B
:10CD20002BE1062126E1082229460698FEF718FA8B
:10CD3000287A697A00020843A97A00020843E97A4E
:10CD4000000208434D49494240180290079800F0FC
:10CD5000F9FC01280CD001210CE1812E8FD1287A19
:10CD6000AA288CD1082201A9284600F017FE04E168
:10CD7000AAE000007C30002050524F544F434F4CEB
:10CD80005F4150505F4552525F56455253494F4E96
:10CD90005F31210D0A000000B220002050524F5494
:10CDA0004F434F4C5F4150505F4552525F5041528C
:10CDB000414D5F33210D0A0050524F544F434F4CA9
:10CDC0005F4150505F4552525F504152414D5F327A
:10CDD000210D0A00636F6D6D616E64203D20256436
:10CDE0000D0A0000F82E00204856312E302E330058
:10CDF0005356312E312E302D313830383036000038
:10CE0000636D6420676574206165736B6579210DBE
:10CE10000A000000E42000209420002073656E6466
:10CE20004C656E677468203D202564210D0A000062
:10CE3000D1200020636D6420737769746368210DCD
:10CE40000A000000A2200020E0200020A4200020F2
:10CE500014210020D0200020636D642061646A7575
:10CE600073742074696D65210D0A0000636D642080
:10CE700072656164206C6F67210D0A0000D36C3805
:10CE8000092E00D2EDE508223F49284600F086FD34
:10CE9000002872DD082229463B48FEF761F900218F
:10CEA000062003F0FBFD287A01280FD0294609311E
:10CEB000102813D01128E5D110223448FEF750F97C
:10CEC0000021062003F0EAFD002153E0687A0128E2
:10CED00001D00228D6D12E490870F1E72B48202234
:10CEE0001030EBE7092ECDD308222749284600F061
:10CEF00055FD002841DD082229462348FEF730F978
:10CF00000021062003F0CAFD287A12281ED013281B
:10CF1000B8D12048807980072BD51C490025257081
:10CF2000601C20224531FEF71BF9601C00F0CEF892
:10CF30002121FEF7EBF868460175491C6554007D18
:10CF4000801CC1B2619800F029F816E01148807980
:10CF5000C0070CD00D4900252570601C102235310A
:10CF6000FEF7FEF8601C00F0B1F81121E1E709219D
:10CF700000E00A21619800F087FD07490020487011
:10CF8000384663B0F0BD0000D1200020752D002090
:10CF90001C210020B22000209420002070B5224CDB
:10CFA000F0222270A523012263700026A270E67091
:10CFB00022716271A671E67126721C4A6072927AC1
:10CFC0000B25A272AA2801D0A22801D100290DD1D7
:10CFD000E1720C310D462046FFF710F86055691CD0
:10CFE000162060540D20A91C6054ED1C2A4610A187
:10CFF000002000F0D1F8E8B20422214601F034FD0F
:10D000002946204601F076FF0D480178002909D015
:10D01000067010220B490C48FEF7A2F800210620EA
:10D0200003F03CFD70BD0000EC2E00207C300020A1
:10D03000706F7374696F6E203D202564210D0A00A6
:10D0400094200020E4200020F42000201CB50024BF
:10D050006846047001F042FB03F0F0FD002818D18F
:10D060000E480168002914D00D498968C907C90F05
:10D070000FD004600B4880686946087101A90A480E
:10D0800003F048FA084803F02FFA002801D003F013
:10D0900093F86846007801F03FFB1CBD00D10040CA
:10D0A00000D3004000D500403C11020010B50649F5
:10D0B0000020086048608860C86003494039086003
:10D0C000486003F07FFE10BD401101400146002082
:10D0D000054A04E0401C80B2491C904203D20B7800
:10D0E000203B5F2BF6D97047FFFF000010B50348C7
:10D0F0000078002801D100F0ABFD10BD202C0020ED
:10D10000F8B506460C48144600780D46002801D1B3
:10D1100000F09EFD002368460093037001F0DEFAE4
:10D1200022462946304600F009F804466846007851
:10D1300001F0F2FA2046F8BD202C002070B50E4612
:10D1400018214843134914464518E86A1835002841
:10D1500004D001280FD0022805D113E0284600F0A2
:10D16000ADFDA04201D2002411E0224631462846FE
:10D1700000F0CFFE0BE0284600F0A0FDA042F4D264
:10D180000446F2E73146284600F093FE0446204666
:10D1900070BD0000202C00200FB408B504A9009138
:10D1A0006A46039900F004F801B008BC04B01847BF
:10D1B000F7B598B007A80290402000250495039089
:10D1C00018980C46059506902178641C002977D0A4
:10D1D000252907D002A800F04DFE05980028F3DAB3
:10D1E0001BB0F0BD0122002102271346082620783B
:10D1F00023281BD02B2816D02D2802D0302806D16A
:10D2000001E0194300E03943641C002AEFD10022F9
:10D2100020780346303B0A2B0AD20A235A431218BD
:10D22000303A641CF4E704200143EDE73143EBE7B7
:10D230000023C7B22E2F0AD1641C20780746303F46
:10D240000A2F04D20A277B431B18303BF4E76C28D3
:10D250000DD068280BD0702852D00BDC25285AD06E
:10D2600058282ED063280CD0642858D110E020789C
:10D27000641CECE7732832D0752817D078284ED17B
:10D280001FE01A981A9A0068011D1160017843E0A6
:10D290001A981A9F0068061D3E600068019100926E
:10D2A00001460A2202A800F014FD38E01A981A9FDD
:10D2B0000068061D3E600068009201910A2209E0A4
:10D2C0002FE01A981A9F0068061D3E6000680092C1
:10D2D00001911022014602A800F060FD1FE01A989B
:10D2E0001A9A0068011D116006683178761C0029C1
:10D2F00015D002A800F0BEFD05980028F5DA0EE072
:10D300001A981A9A00680823011D116001681022FA
:10D3100000960195DFE7252102A800F0ABFD641C13
:10D320005BE70598002800DC5AE70498002804D041
:10D33000024607A91898FFF7E3FE049905984018DC
:10D3400005904DE770B50446064E074D05E0315C8B
:10D35000204601F0D3FF012802D0285D0028F6D135
:10D3600070BD0000891402006121002010B503F097
:10D370009BFC10BD10B506484068002805D08047CA
:10D38000002801D001F0F6F810BD02F0CBF910BD75
:10D390007C20002010B502F01DFA002805D01F499E
:10D3A0001D484860C8131E4988611E48018CC9B2D7
:10D3B00001290BD1828C120708D1028D1206120F9F
:10D3C000042A03D1828D1206120F0AD0012921D11D
:10D3D000818C09071ED1018D0906090F0A2904D085
:10D3E00007E0114A01219160F5E7828D1206120FC4
:10D3F00005D00D290ED1808D0006000F0AD10B48F3
:10D400000168012904D00A49016001680129FCD1A1
:10D41000C021416110BD0000DFFF07C000050040D2
:10D42000006C0040C00F00F00006004000EC064019
:10D4300075930000F8B52E4C01214902204603F0F7
:10D44000E7F800252B4F0126002818D0FF212531B1
:10D45000204603F0D8F8002811D0FF2025302550B1
:10D4600081202549800088603878002800D16660D6
:10D4700020480822001D01781143017028E0042192
:10D48000204603F0C5F8002822D0FF2109312046AC
:10D4900003F0B9F800281BD0FF20093025501748A9
:10D4A0004677174882691549E031887F0B46463B2D
:10D4B000C254887F401CC0B28877642800D38D771F
:10D4C0000E481421803001833878002800D166602E
:10D4D000FF214531204603F096F8002806D0FF20B2
:10D4E000453025503878002800D02660F8BD00006F
:10D4F000002000400C21002000230040D82D0020F7
:10D5000000250040F7B50746D4B0012503A8002642
:10D5100014460090002F04D0012F1FD00B2F1DD0D8
:10D52000E2E003F05EF9734F002472492046009A4E
:10D5300000F024FAFF28F8D039788322114082299C
:10D5400007D10822381D559900F028FA002800D18B
:10D550000025641CE4B2102CE7D3C3E003F041F9CA
:10D5600065484178002904D001290CD0022970D0E7
:10D57000BAE00121417007462046009900F009FBFE
:10D58000B870FF25B2E05C48022141708078FF2529
:10D5900010283CD2584857498078009A00F0EEF99C
:10D5A000FF28F7D00B2F04D052480021C943C66191
:10D5B00029E05048217AC161627A09028918C16163
:10D5C000A27A09028918C161E27A09028918C16147
:10D5D000227B0262637B1202D2180262A37B1202D8
:10D5E000D2180262E37B1202D218444B02629942C3
:10D5F00003D95C420919C16100E0C6619A4204D9AD
:10D600003E4949425118016270E006626EE0012015
:10D610000290002001903749009A019800F0AEF97D
:10D62000FF28F8D0334801788A07920F022A11D1D7
:10D6300009060FD5016A3248006881420AD3029870
:10D64000002807D00198401CC0B201901028E2D3F6
:10D650004CE03FE027488221017008222146001D4E
:10D66000FDF77EFD0B2F04D022480021C943C6617F
:10D6700029E02048217AC161627A09028918C161D2
:10D68000A27A09028918C161E27A09028918C16186
:10D69000227B0262637B1202D2180262A37B120217
:10D6A000D2180262E37B1202D218144B0262994232
:10D6B00003D95C420919C16100E0C6619A4204D9EC
:10D6C0000E4949425118016200E006620A49019878
:10D6D00088700BE08078102806D20649009A00F086
:10D6E00041FA0546FF2D01D003484670284657B041
:10D6F000F0BD0000EC2F0020A620002000D36C38E5
:10D70000E020002030B504460078F02816D160787B
:10D71000A52813D1E57A28460F300C3588420DD85C
:10D7200060194178162909D180780D2806D129463B
:10D730002046FEF763FC615D884201D0002030BDC9
:10D74000012030BD70B5DAB004460AAD0522344977
:10D750006846FDF705FD684600780026AA280DD02A
:10D76000AA216846017046808680052269462C48B9
:10D77000FDF7F6FC0021062003F090F96846418889
:10D780008088814204D100210520FEF749FC45E054
:10D7900001210520FEF744FC002C2DD0284603F083
:10D7A00017F8684680880521C9024843411904A832
:10D7B00020220546FDF7D4FC0822A1182846FDF7D3
:10D7C0000EFD00282AD003986168884226D1684659
:10D7D0008088401C81B268468180642900D386809D
:10D7E000014605220E48FDF7BBFC0021062003F090
:10D7F00055F901205AB070BD68468088401C81B23E
:10D8000068468180642900D3868001460522044849
:10D81000FDF7A6FC0021062003F040F90020E9E70F
:10D820009C20002003480078002801D00148C01C3B
:10D8300070470000A620002030B5D3B0054602ACEA
:10D8400005222A496846FDF78BFC6846027828A124
:10D850000020FFF7A1FC684642882DA10020FFF7B9
:10D860009BFC6846828832A10020FFF795FC684641
:10D870000078AA2811D036A10020FFF78DFCAA203D
:10D880006946087000204880888005221748FDF707
:10D8900067FC0021062003F001F968464188808872
:10D8A000814208D100210520FEF7BAFB2BA1002000
:10D8B000FFF772FC16E001210520FEF7B1FB002DF9
:10D8C00010D029A10020FFF767FC204602F080FF5E
:10D8D000684680880521C90248430119202228464C
:10D8E000FDF73EFC002053B030BD00009C2000201E
:10D8F000746D704C6F67496E666F496E6465782E03
:10D90000666C6167203D2025303278210D0A0000C9
:10D91000746D704C6F67496E666F496E6465782EE2
:10D9200068656164203D2025303478210D0A0000AF
:10D93000746D704C6F67496E666F496E6465782EC2
:10D940007461696C203D2025303478210D0A000077
:10D950006E6F74206161210D0A000000726574759C
:10D96000726E2030210D0A0072656164206C6F6751
:10D9700020666C617368210D0A00000010B50B462B
:10D98000102801D3012010BD5521090248438118F8
:10D9900044221846FDF7E4FB002010BD10B50CE052
:10D9A00004780B789C4201D9012010BD9C4202D220
:10D9B0000020C04310BD401C491C521EF0D2002064
:10D9C00010BD000030B51C4B002159600278811C4D
:10D9D000140242782243194CA24227D10C78184AEB
:10D9E000240254804D78254355808C781471CC786E
:10D9F00054710C7994714C79D4718C791472CC79FE
:10DA000054720C7A09319472AA2C01D0552C0DD184
:10DA10000C78D472491CD16061180C7814744A785F
:10DA2000897812021143074A914201D0002030BD8B
:10DA30005860012030BD000094200020A5F00000B7
:10DA40007C3000200D16000001207047F0B591B029
:10DA500016460D4607460124324669463846FFF70A
:10DA60008DFFFF28F8D0684600788321084082287F
:10DA700007D1002D04D00822284601A9FFF78EFF08
:10DA80000024204611B0F0BD10B5034A11730121E6
:10DA9000FFF784FA10BD0000EC2E002070B505469B
:10DAA00007481C4613460173224619460D30FDF700
:10DAB00057FB641CE1B22846FFF770FA70BD000006
:10DAC000EC2E002070B5D2B0064602AD05222449E6
:10DAD0006846FDF745FB284602F07AFE6846007866
:10DAE0000024AA2804D0AA216846017044808480BA
:10DAF000684640880521C902484340192022314622
:10DB0000FDF72EFB0120000740692946C01E03F0E7
:10DB1000A3FA68464088401C81B268464180642967
:10DB200000D3448041888088814202D16946401CEC
:10DB3000888068468088642801D3684684800121F3
:10DB40000520FEF76DFA052269460548FDF747FBFB
:10DB50000021062002F0A2FF012052B070BD00009B
:10DB60009C20002070B51446102801D3012070BD00
:10DB700055221202504300194422FDF7F1FA002504
:10DB80000120000740692146001F03F065FA28467E
:10DB900070BDF3B591B000240E4683256F46324622
:10DBA00069462046FFF7EAFEFF28F8D0684600786D
:10DBB0002840822806D10822381D1199FFF7EEFE71
:10DBC000002803D0641CE4B2102CE8D3204613B024
:10DBD000F0BD70B5E2B0064611AC0D46204602F02D
:10DBE00000FEF0B222466946FFF7C8FEFF28F8D0D3
:10DBF0006846007883210840822802D0002062B065
:10DC000070BD002D04D00822284601A9FDF7A8FA0E
:10DC10000120F4E710B5054A0121117001460348BF
:10DC20000822C01CFDF79CFA10BD0000A6200020B1
:10DC300010B5064A00219268435C545C634043542B
:10DC4000491CC9B21029F7D310BD00006C21002077
:10DC500010B5124C02202061606111A0A061134830
:10DC6000E0610120400220620020A06260620CA1FD
:10DC7000A1642146E0621039E16410212165A065AC
:10DC80006065E0650AA1E01DFDF7B6FA09A120462E
:10DC9000FDF7B2FA2020A07110BD0000202C00205A
:10DCA0005465726D696E616C00000000102A0020DE
:10DCB0005254540053454747455200000269C16819
:10DCC0008A4203D88068401A801800E0501A401E2B
:10DCD0007047FFB583B00E4670420D9F0C9C0090BC
:10DCE000002900DB0846012502E0FDF725FA6D1C3E
:10DCF00005998842F9DA0698A84200D90546002C11
:10DD000004D0002E01DB780700D5641EB80702D5C9
:10DD10000698002810D0F8070ED1002C0CD0A54290
:10DD20000AD22021641E039800F0A4F80398C0686A
:10DD30000028F2DA07B0F0BD0398C0680028F9DBCC
:10DD4000002E02DA2D21009E02E0780707D52B2154
:10DD5000039800F08FF80398C0680028EADBB80742
:10DD6000800F022810D1069800280DD1002C0BD06E
:10DD7000A54209D23021641E039800F07BF8039875
:10DD8000C0680028F2DAD5E7019700943146069B77
:10DD9000059A039800F002F8CCE70000FFB581B0C7
:10DDA00001261F4634460A9D029802E0FDF7AEF9AF
:10DDB000641C03998842F9D2A74200D93C460B98CB
:10DDC000C00718D1002D16D00B98800701D5002F61
:10DDD00002D0202000900CE03020FBE76D1E00995F
:10DDE000019800F047F80198C06800283DDB002D3D
:10DDF00001D0AC42F2D30198C068002835DB012F76
:10DE000001D97F1E06E031460298FDF77FF903999C
:10DE1000884202D303984643F1E7154F31460298F2
:10DE2000FDF774F90146029A7143511A0291395C67
:10DE3000019800F01FF80198C068002805DB304603
:10DE40000399FDF763F90600E8D10B98C0070CD0E1
:10DE5000002D0AD0AC4208D220216D1E019800F09E
:10DE600009F80198C0680028F2DA05B0F0BD00009A
:10DE70007811020010B5044680686368421C934222
:10DE800005D323681954A260E068401CE060A268D2
:10DE90006068824209D121682069FFF731F9A168E1
:10DEA000884203D00020C043E06010BD0020A06085
:10DEB00010BDF7B5064682B000200090F468174602
:10DEC0003069A04201D9051B02E0B168201A0D1A81
:10DED000B0686D1E001BA84200D80546BD4200D3A5
:10DEE0003D4670682A4600190399FDF739F90098F4
:10DEF0007F1B401900900398641940190390B06883
:10DF0000A04200D10024F460002FD9D1009805B0C0
:10DF1000F0BDF7B5C668174604468068851B606883
:10DF2000BD4206D980190199FDF71AF9F019E06090
:10DF3000FEBD2A4680190199FDF712F901987E1B52
:10DF4000411932466068FDF70BF9E660FEBD30B45A
:10DF50007446641E2578641CAB4200D21D46635D86
:10DF60005B00E31830BC184702E008C8121F08C164
:10DF7000002AFAD170477047002001E001C1121F4A
:10DF8000002AFBD170470000202804DA01218140DB
:10DF90000348014201D00120704700207047000073
:10DFA000FC06FFBC10B5124C207803281FD1A068D6
:10DFB0000028E06802D0A16840184008A060A0686E
:10DFC0000C49884201D90C4803E0A068FF22A53221
:10DFD0005043FDF79BF8FF21F531884200D90846F0
:10DFE0000349091D0880042020700020A07010BD86
:10DFF000202100204D030000546A050070B501780F
:10E0000000292FD101890025022916D9466800244C
:10E01000725F104609E06300F35E834200D2184647
:10E02000934200D91A465D19641CA142F3D8AA1A7A
:10E03000101A891EFDF76AF802E041680020085EA8
:10E040000949C860CA6809A10020FFF7A5F80D4971
:10E0500020220878104308708006C20F0AA1002011
:10E06000FFF79AF870BD00002021002074657374DA
:10E070005F6164635F76616C7565203D2020256477
:10E080000D0A0000D02000206170705F6D6576651C
:10E090006E742E622E73746F705F6164635F73744D
:10E0A000203D202025640D0A0000000010B50E4818
:10E0B00001210278002A08D0012A09D0022A0DD0B5
:10E0C000032A0ED00021017010BD817007A101E06C
:10E0D00081700AA10020FFF75FF810BD81700AA1CE
:10E0E000F8E781700BA1F5E720210020525420525F
:10E0F00045464552204144430D0A00004E544320FA
:10E100004144430D0A000000534F4C41522041440A
:10E11000430D0A0042415454455259204144430D95
:10E120000A00000070B514490020124B0860134922
:10E1300008608C681248427CC5685600521CAC537B
:10E14000D2B24274047CA24212D284680022646873
:10E15000002C0AD0012284602068486001200860F9
:10E16000002A00D01860002070BD44688460F3E786
:10E17000012070BD0070004000710040007500403B
:10E180007C250020F8B52F4C032760782E4E0128FF
:10E1900015D02E4D022839D0032836D12CA10020CD
:10E1A000FEF7FAFF287881062FD5DF210840287076
:10E1B00001250420F060207803283AD135E027A11A
:10E1C0000020FEF7E9FF28482849006800906846CB
:10E1D000077001F07FFE002801D000F0CBF9207815
:10E1E000032805D10420B0601648103001F062FE0B
:10E1F00014480421183001F019FE002801D000F065
:10E20000B9F901F087FE02206070F8BD18A1002066
:10E21000FEF7C2FF2878800605D401F07BFE0A20B5
:10E2200002F034FDF8BD6770F8BD0648103001F00B
:10E230002FFE13490020086001F072FE6570FFF7A1
:10E24000B1FEF8BD2021002000050050D0200020A4
:10E250004144432053544F500D0A00004144432091
:10E2600053544152540D0A0088140200FDDF01008E
:10E270004144432053414D504C494E470D0A000044
:10E2800004070050F7B584B00646002517881580AE
:10E2900020300290407B1446002806D03A462146A2
:10E2A000059800F02FFD050009D1B078002823D093
:10E2B000059886462088001DB84202D90C2007B078
:10E2C000F0BD684679DF0028F9D121880320724625
:10E2D000505420881921401C80B22080115420887D
:10E2E0007146401C80B2208041186846008802F0C8
:10E2F000EAFD218840182080F078002817D0218876
:10E3000003230A46F356C91C0598B942D6D8022100
:10E31000815421880122491C89B2218042542188DC
:10E32000491C89B2218043542088401C2080706899
:10E33000002817D021880023C3560A46C91C059817
:10E34000B942BBD80221815421880A22491C89B2D2
:10E35000218042542188491C89B22180435420885D
:10E36000401C2080308900280AD000943046019754
:10E37000062202210830059B02F0F2FD05009ED125
:10E38000308A00280AD000943046019707220321E2
:10E390001030059B02F0E4FD050090D1308B002881
:10E3A0000AD0009430460197152214211830059B9D
:10E3B00002F0D6FD050082D1306A002806D03B4627
:10E3C0002246059901F026F80500D8D1706A002888
:10E3D00006D03B462246059901F018FC0500CED137
:10E3E0000298007B002807D03B462246304605991C
:10E3F00002F0B6FA0500C2D13078002807D03B46BB
:10E4000022463046059901F08FFC0500B7D1284619
:10E4100055E70000174A0021535C002B01D0012270
:10E4200003E0491C0629F7D300221349012806D02E
:10E4300002280BD0032810D0042818D112E0487805
:10E44000002803D0002A01D00120704788780028D6
:10E4500003D0002A01D002207047C878002801D0DC
:10E46000032070470879002801D00420704700205D
:10E4700070470000192000200823002070B5AEB0BE
:10E480003C2101A8FCF785FE0220694608710025A1
:10E490008D710620C8713C2110A8FCF77AFE01247A
:10E4A00010A90C821F48159020211FA8FCF771FEAF
:10E4B00018A9CC77192080011A4C2390241D24958B
:10E4C00027A871DF28A98878401C887027A9002018
:10E4D00070DF002127A82CAA05235E1A361876784B
:10E4E0005654491C0629F8DB204606222CA90C307C
:10E4F000FCF736FE592120A881840A481221001D0C
:10E500002B9020A8018529A800951990064B1FAAD9
:10E5100010A901A800F04AF9002801D000F02AF85B
:10E520002EB070BDBA2000202106020009A10120F2
:10E5300001F084FF01F0D6FE01F0DAFE0028FBD1E5
:10E5400000BEBFF34F8F0A490848C860BFF34F8F22
:10E5500000BFFDE74150505F4552524F523A45527D
:10E56000524F523A466174616C0D0A000400FA057C
:10E5700000ED00E00EB50021029000916A46019185
:10E580000148FFF7D3FF0EBD01400000094B5B6857
:10E59000002B07D0002A07D0002805D00068037C94
:10E5A000002B03D008207047072070474174426158
:10E5B0000020704758200020FFB50746900700252F
:10E5C00081B01E461446002825D1002C23D002F02D
:10E5D00011F93046114EF06030461030057045702C
:10E5E0000299817044607560357001240C48757023
:10E5F0002405046003211420FEF774F9094804601F
:10E60000094CA76003211120FEF76CF96068B06027
:10E61000002005B0F0BD0720FBE7000048200020E7
:10E6200080E200E000E100E000150140FEB51F4B74
:10E630005B68002B30D000282ED0052901D207209E
:10E64000FEBD4369002B27D0437C012B26D0002739
:10E65000029104460025694616460D70684600F092
:10E660003DF801A802F066FC002819D001210170D4
:10E670000F49446049688160029907614661C16041
:10E6800068460A49007948706846007800F044F806
:10E6900002F04CFB2846FEBD0820FEBD0F46D7E722
:10E6A00068460425007800F037F8F3E7582000208A
:10E6B0000015014010B50849496800290AD0002812
:10E6C00008D04169002905D000210174022102F01F
:10E6D00055FB10BD082010BD5820002030B5EFF3C9
:10E6E000108172B6094A54680123002C04D00370CB
:10E6F000002900D162B630BD5360054B1D68054C42
:10E70000254015601C6000220270F1E76C2000209B
:10E7100080E100E0FC06FFBC08494A68002A0CD0F2
:10E7200000280AD1EFF3108072B60A68044B1A6011
:10E7300000224A60002800D162B670476C20002099
:10E7400000E100E0F0B50C4693B01F216A4611804D
:10E75000072600279180002809D0C17849070DD5E8
:10E7600002A9FFF78FFD002809D102AD01E00025C5
:10E770001780002C0ED0E078002802D0304613B06D
:10E78000F0BD01AA0AA92046FFF77CFD0028F6D1BA
:10E790000AAA02E068460022878068468088C3B2E1
:10E7A00068460088C1B2284672DFE8E7FFB581B04D
:10E7B0001E460A9F1346040047D0002B45D0504DFB
:10E7C000012028700020E870202219464D48FCF7EF
:10E7D000C7FC00206F61C0432E61288128460721B5
:10E7E0001830FCF7D6FC47483C212030FCF7D1FC20
:10E7F0004448217820300170A1788170E178C1709F
:10E80000617841703F4A6569236955631146136316
:10E810002031E368A268CB608A603A49E369A26963
:10E82000CB638A63616A00291AD001463C310246F3
:10E83000483241628A60636A1B880B80616A436A5E
:10E84000898899800021436A07E00E2005B0F0BD59
:10E85000656AAD686D5C5554491C9D888D42F7D83A
:10E86000A16A00291CD0274A943211460C398A60CB
:10E870008162A36A9B888B80A16A836A0988198058
:10E880000021836A04E0A56AAD686D5C5554491C9B
:10E890009D888D42F7D82C210A5D1A4940310A73B0
:10E8A000216A002909D016490A310162226A528878
:10E8B0004A80216A026A098811806168002900D0B3
:10E8C0004160104A0E490020B3322031C3001B1AA8
:10E8D00085009B180C68401C63510828F6DB094A28
:10E8E0000020EB32030185009B188C68401C6351AB
:10E8F0000828F7DB034802992030FFF723FFA5E73C
:10E90000002000200823002010B50188134C102996
:10E9100015D0112919D01B2910D1007A00280DD14A
:10E92000E0780521401CFCF7F1FB084600F018F8E0
:10E93000002803D06169002900D0884710BD817D7F
:10E940000129FBD18088208110BD00216171808860
:10E9500021898842F8D10120E8E70000002000204A
:10E96000F1B53F4C88B0207800280AD00898E070B4
:10E9700006A800F0F7FD06980125002804D0657070
:10E980006AE0082009B0F0BD35480027072118309B
:10E99000FCF7FFFB334E7078002802D0E0780128A6
:10E9A00007D0B07800280CD0E078012801D00228E8
:10E9B00007D12169002903D025710820884700E08C
:10E9C00027710898FFF726FDE0702169002909D01A
:10E9D000032801D0042805D13078002802D06079BE
:10E9E000002811D0A77118216846FCF7D2FB6846B1
:10E9F00007700772E1781A480B001830FFF7A7FA82
:10EA0000052E080F191D2000A57107208847EAE789
:10EA1000A5700190684605704782078213E00221C5
:10EA2000A170019068460570B189418231890182E7
:10EA300009E0684601F0DCFF02E0684602F004F8F5
:10EA4000E078002803D0684673DF00289AD1216956
:10EA5000002901D0A0788847002093E7A770F6E747
:10EA6000002000200823002070B50D460446130046
:10EA7000FFF76DFA0504142434526100024630A1F8
:10EA80000020FEF789FB002605E0AA5D36A10020E4
:10EA9000FEF782FB761CA642F7DB4CE0024634A16F
:10EAA0000020FEF779FB002605E0AA5D2EA10020DC
:10EAB000FEF772FB761CA642F7DB3CE0024637A16C
:10EAC0000020FEF769FB002605E0AA5D26A10020D4
:10EAD000FEF762FB761CA642F7DB2CE0024639A16A
:10EAE0000020FEF759FB002605E0AA5D1EA10020CC
:10EAF000FEF752FB761CA642F7DB3AA10020FEF798
:10EB00004BFB3C4D00242A5D17A10020FEF744FB7F
:10EB1000641C102CF7DB0EE0024637A10020FEF744
:10EB20003BFB002605E0AA5D0FA10020FEF734FBA9
:10EB3000761CA642F7DB39A10020FEF72DFB70BD45
:10EB40006F726967696E616C2064617461206C65C5
:10EB50006E677468203D2025642E206461746120F6
:10EB60003D200D0A00000000253032782000000012
:10EB70006461746120656E6372797074206461747D
:10EB800061206C656E677468203D2025642E2064CA
:10EB9000617461203D200D0A000000006372632053
:10EBA000636865636B2064617461206C656E677473
:10EBB00068203D2025642E2064617461203D200D75
:10EBC0000A0000006165732064617461206C656EE9
:10EBD000677468203D2025642E2064617461203DA7
:10EBE000200D0A000A616573206B6579203D200DB8
:10EBF0000A000000F420002073656E6420646174D4
:10EC000061206C656E677468203D2025642E206449
:10EC1000617461203D200D0A000000000D0A000013
:10EC200070B5054601461C220E48FCF799FA0E4CB9
:10EC3000002626702968002906D00822201DFCF72E
:10EC40008FFA201D7ADF02E00748001D7BDF0028D5
:10EC500007D1401E60806670044A00210448FFF717
:10EC600095FC70BDD424002030200020D10E02007D
:10EC700020110200F8B5214C0146028800261E48EA
:10EC8000E589102A13D01E4F112A1FD0122A2BD02B
:10EC9000502A1AD1881DC988A94216D14189022952
:10ECA00013D10C3000F0FEF800280CD112E08A8855
:10ECB00004464280104808220C301831FCF750FA04
:10ECC0006670002D01D100F0EDFBF8BD0021C943B5
:10ECD000418046703868FFF7EDFC0028F5D0A16947
:10ECE0000029F2D08847F8BD034808220C300831CB
:10ECF000FCF736FAE7E7000030200020D42400209B
:10ED0000201102007CB5054608880C460930904267
:10ED100001D90C207CBD684671DF0028FAD121881A
:10ED20000820685420881B21401C80B22080295470
:10ED3000208800A9401C80B22080401906220131A1
:10ED4000FCF70EFA20886946801D80B22080097881
:10ED5000002900D0012129542088401C2080002057
:10ED60007CBD000010B50446FFF784FF214605482E
:10ED700000F040F8204601F063FC2046FFF7C4FD98
:10ED800010BD00008022002030B5184B0D46040055
:10ED90000FCB85B003936B4607C324D0002D22D040
:10EDA0000020C043A0822868A0610020A0752146F1
:10EDB000684663DF002814D10121684681740C493C
:10EDC0000182A21C04A90120A0DF002809D1294644
:10EDD000204601F031FD002803D12946204602F0EB
:10EDE00031F805B030BD0E20FBE700002411020011
:10EDF0001019000010B500281BD0002919D00A886E
:10EE0000102A17D0112A17D0502A12D104468A1D71
:10EE1000C888238A1231984202D15389022B0FD01D
:10EE2000A388984205D1A369002B02D052892046BD
:10EE3000984710BD898801E00021C943818210BD37
:10EE4000084600F02FF8002800D00120A07510BD62
:10EE500007B584B000280DD0828A114B9A420BD09E
:10EE6000827D002A08D06A46128B142A06D9072010
:10EE700007B000BD0E20FBE70820F9E70022009252
:10EE800001920292039282896B461A80039106A92D
:10EE9000029101219970808A6946A6DFE8E70000A7
:10EEA000FFFF00004178027808021043C007C00F3E
:10EEB0007047000070B50D4D144628780219802A5D
:10EEC00007D80B4A10182246FCF74AF9287800198F
:10EED0002870C1B26C700648FEF714FC012803D1FB
:10EEE0000021042001F0DAFD70BD000004210020A3
:10EEF0009030002070B50C46054607E014222946E4
:10EF00000648FFF7A5FF143CA4B21435142CF5D81D
:10EF1000224629460148FFF79BFF70BD8022002052
:10EF200005490B5C05494A68012098400346934314
:10EF30008B601040C8607047EC1002000005005064
:10EF400010B50349085C012101F088F910BD0000EB
:10EF5000EC10020010B50349085C002101F07EF9B5
:10EF600010BD0000EC1002000549095C054840682E
:10EF7000C840C007C00F00D00120012148407047A1
:10EF8000EC1002000005005010B500242046FFF7E9
:10EF9000D7FF641C042CF9D310BD10B50024204603
:10EFA000FFF7D8FF641C042CF9D310BD02460020E3
:10EFB00010B5C043054B00215C5C944201D108466A
:10EFC00010BD491C0429F7D310BD0000F010020049
:10EFD000F3B581B00D460198FFF7E8FF0446042819
:10EFE00013D21D481D4F1E4E002D27D0012D0DD0D0
:10EFF000022D0AD160002018C0194578002D04D0D8
:10F00000F168002901D028468847FEBD61006118DB
:10F010007D5CCF19797800290BD071680A225143A1
:10F020000F4A8068921CFFF701FB002801D101986C
:10F03000B0700B48B97810300155DFE78068FFF7F2
:10F0400039FB0748610061181030C919005D8D78DF
:10F05000A842D3D0FEBD0000F4100200DC22002044
:10F06000EC1F002010B5054A0146127A0020D20795
:10F0700002D0084600F018F810BD0000EC1F002078
:10F08000FF2002490130C8607047000000050050B1
:10F0900004494A68FF200130034693438B601040C7
:10F0A000C860704700050050F8B55D4C05466078B3
:10F0B0000026002803D000206070FFF765FF0120C4
:10F0C000584F2B00FEF743FF18970D0D2E3D4A5F5A
:10F0D00064686F686FA97777777777979A9DA0A90B
:10F0E000A9950020FFF740FF00280AD00020FFF775
:10F0F00027FF022D02D1E120C0000BE07D2040015E
:10F1000008E00020FFF726FF022D01D1C82001E012
:10F11000FF20913025706421FBF7F8FF61684143BF
:10F1200000222BE00020FFF71FFF002805D0002061
:10F13000FFF706FF19204001ECE70020FFF70AFF68
:10F14000E4E70020FFF710FF002803D00020FFF7BE
:10F15000F7FED3E70020FFF7FDFED9E70020FFF719
:10F1600003FF002803D00020FFF7EAFE02E00020A2
:10F17000FFF7F0FE25706068410000223868FFF755
:10F1800055FA064635E00020FFF7CAFE257007E075
:10F1900000203FE025702CE060700120FFF7C0FEEA
:10F1A00000226168EAE760700120FFF7B9FE60683D
:10F1B00081004118E1E77868FFF77CFA06461120E4
:10F1C000401B01D0002E03D00220FFF7B9FE10E053
:10F1D00001280BD9C82148436421FBF797FF6168D8
:10F1E000002241437868FFF721FA06460220FFF724
:10F1F000B1FE3046F8BDFFF7C7FECBE7FFF7C4FE10
:10F20000C6E7FFF7C1FE04E0FFF7BEFE0020FFF7F0
:10F21000A1FE0120FFF79EFEBCE7FFF7BEFEB9E7A7
:10F22000EC1F0020F410020010B5FDF723FB0020B6
:10F23000044A01461154401CC0B20828FAD30248BF
:10F24000017010BD6121002060210020F8B50D463D
:10F25000461C00206946087001246846FFF73EFA04
:10F26000134A10682860116850689368081A1D1ABC
:10F27000701C6D1CA84212D9002D0ED00D480E4CEA
:10F280000088246880051940800DA402890020436D
:10F290008918C8601068401C1060002401E08819BB
:10F2A000106068460078FFF737FA2046F8BD000086
:10F2B000F82500205411020078200020034803C8DC
:10F2C000814201D10120704700207047F8250020BD
:10F2D0000022D243830004490428CA5002D30818EC
:10F2E00020300277704700000425002002490918E9
:10F2F00020200856704700000425002030B5084C37
:10F300000122235C15468D40AB43235401D00020DD
:10F3100030BD82400348017891430170012030BD27
:10F32000612100206021002070B5084C050009D043
:10F3300010342168002907D00868206049682846F1
:10F340008847F6E70834F4E770BD0000F024002099
:10F3500010B500F013F900F04FF9FFF765FF01F069
:10F3600073FC00F0D3F8012010BD0000F8B523486D
:10F37000416800293ED00E6821494C688768807832
:10F38000E11B0D022D0AED1C002814D101201D4A9D
:10F39000000450601B4A403A50601B49400008601E
:10F3A0001A4908601A49012008602F2000F026FD44
:10F3B000124901208870B54200D23546E819000292
:10F3C0000F4B000A403318600D4A5168001B091B9F
:10F3D0000902090A0002000AC91C814209D95068C1
:10F3E00018602F2000F00AFD0120074940048039F1
:10F3F0000860F8BD01F0FEF9F8BD000048200020CB
:10F40000001501404013014080E200E000E100E00F
:10F4100000100140F8B50646108814468446801D49
:10F420000D46984201D90C20F8BD32880720062AE3
:10F43000FAD31927FF01184BBA4201D99A42F3D1E6
:10F4400071880629F0D3B94201D99942ECD19A4288
:10F4500003D0994201D08A42E6D80521604629545A
:10F4600020881221401C80B2208029542088401C12
:10F4700080B220804119308801F025FD2188401894
:10F4800080B220804119708801F01DFD218840184C
:10F4900020800020F8BD0000FFFF000010B5FFF73E
:10F4A00069F810BDF8B5164800F086F9144D00262D
:10F4B0000C3D144C002807D0616900291CD00120A4
:10F4C0006A461070684616E02878002805D0616901
:10F4D000002911D0684606700DE0687800280DD02C
:10F4E000A168094800220068FFF7A0F8002803D0AF
:10F4F000A169002900D088472E70F8BD6168F0E747
:10F500003C200020D424002020110200704700007D
:10F5100010B50E4900230A784C78A24212D0521C32
:10F52000D2B20A70022A00D10B700A78074B9200FF
:10F5300018339A580260886810180002000A886020
:10F54000012010BD0360002010BD000048200020F5
:10F5500010B5034910208860052000F077FE10BD2B
:10F5600000050050002804D00349496E01600020C6
:10F5700070470320704700009025002010B500F070
:10F580006BFD082000F03FFEFF201A490130886023
:10F590000021012000F02EFE022000F034FE0220A7
:10F5A00000F04CFE0021042000F024FE042000F0B6
:10F5B0002AFE042000F042FE052000F024FE052073
:10F5C00000F03CFE0021062000F014FE072000F0B1
:10F5D0001AFE072000F032FE032000F014FE032084
:10F5E00000F02CFE092000F00EFE092000F026FE9F
:10F5F00010BD00000005005010B500F083F801F0C8
:10F6000027FB10BD10B501200007D0B040696C4643
:10F610002146801E01F0CFF868460078AA2843D121
:10F6200068464078AA283FD18021A01C01F02CFD1B
:10F63000002839D01FA10020FDF7AEFD0822A11C33
:10F640002348FBF78DFD214610220A312148FBF7A4
:10F6500087FD214610221A311F48FBF781FD1E4805
:10F66000214620222A311030FBF77AFD1A48214624
:10F6700020224A312538FBF773FD17482146102216
:10F680006A313538FBF76CFD214605227A31134883
:10F69000FBF766FD124918A8C07F0870114920A821
:10F6A0000078487150B010BD0FA10020FDF774FD27
:10F6B000F8E700006D656E63707920736F6C6964A4
:10F6C00020666C6173682064617461210D0A00001A
:10F6D000D1200020F4200020AA2D00209C20002012
:10F6E0001C210020B2200020696E697420736F6CA9
:10F6F000696420666C6173682064617461210D0A1D
:10F700000000000010B5054A01210548FEF73EFF44
:10F71000002801D0FEF72EFF10BD000085F9010082
:10F7200080140200F8B51E4C2078002836D0E0681E
:10F73000002600280CD00025607800282ED16846CD
:10F7400052DF052806D0002806D0FEF713FF0BE095
:10F750000125F1E7012607E0009800F035FC21695A
:10F76000002901D000988847002D13D16078002827
:10F7700014D1608869460880A06861DF052804D03C
:10F78000002804D0FEF7F6FE04E0012502E0E1685F
:10F79000A0688847002ECFD0002DE5D0F8BD00002E
:10F7A0007C20002010B5042000F050FD01492020ED
:10F7B000886010BD000500504188054802889142CC
:10F7C00004D34088814201D801207047002070474F
:10F7D000342000201048018CC9B2012917D1818C36
:10F7E000090714D1018D09060A0F03D1828D120673
:10F7F000120F0ED0090F012903D1828D1206120FAC
:10F8000007D0032903D1808D0006000F01D000200E
:10F810007047012070470000C00F00F0F0B5284C81
:10F820002146103948688B68227886469C46CF78F6
:10F83000667836E0182353436168521CC918A378D0
:10F84000D2B2934200D100220B78022B02D0032BBC
:10F8500027D123E003464D68194603E0A94204D0AE
:10F860000B46C96900291CD0F8E7002919D08B4242
:10F8700008D1C069002805D1124F0125BD600025BF
:10F88000AC4601270D68C969D961002909D00B6808
:10F890005B190B6005E00174C06900E000210028DD
:10F8A000F9D19642C6D10649624610398A6048604D
:10F8B000CF70704501D00120F0BD0020F0BD0000E8
:10F8C0005820002000100140F8B52C4E0446706806
:10F8D0000025009041E0002C02D02046E46920E0A1
:10F8E000264818231030017842684B43491CC9B29E
:10F8F000D21801708378994200D105701178506850
:10F9000001292CD1017C002929D191684160D1685D
:10F9100081601169C16051698161F178002900D06D
:10F9200045604368B268164F991A0902090AB9423C
:10F9300002D28268891806E0D11A09028268090A8F
:10F940008A4202D9511A016000E005604560012138
:10F9500085600174C56101F0F1F9002CBBD1074845
:10F960001030017840788142BAD1716800988142A4
:10F9700001D00120F8BD0020F8BD00004820002083
:10F98000FFFF7F0070B5364D2878401C28706878DE
:10F99000401C68700A20FCF7CFFA0A20FCF7ECFA4A
:10F9A000287864285AD32F4CA07A401CA072A07AE1
:10F9B0000A2808D3A07A0A38A0722B49088801289F
:10F9C00001D9401E088026484168491C41602878BA
:10F9D00064382870254D00262878C106002915DADC
:10F9E000A178491CA170A17802290FD3A670EF213C
:10F9F000084028701E4801781E48012902D00229BB
:10FA000002D003E0022100E0012101702878C10743
:10FA100001D1810713D5E188491CE180E188B4292F
:10FA20000DD3E680C00703D00021062001F036F890
:10FA30002878800703D50121062001F02FF82878C7
:10FA400001070BD52189491C21812189E12212015D
:10FA5000914203D32681F7210840287070BD000031
:10FA6000DC20002070300020A2200020D0200020C8
:10FA70001521002014210020002388B0504A0721BE
:10FA80001846FEF799FD002801D0FEF773FDFDF73B
:10FA90002DFB4CA10020FDF77FFB4E484849006834
:10FAA0000590002348225C3905A801F08BF8002856
:10FAB00001D0FEF75FFD6A460121002001F06AF8DF
:10FAC000002801D0FEF756FD684601F011F8002825
:10FAD00001D0FEF74FFD404801F000F8002801D0AA
:10FAE000FEF748FD11206946087207223BA102A8D3
:10FAF0007CDF002801D0FEF73DFD0024009410219A
:10FB00006846019401803C214180FF21848091312D
:10FB1000C1807ADF002801D0FEF72CFD314828494A
:10FB200000900120A831087025486946A830FFF7E9
:10FB30002BF9002801D0FEF71DFDFEF79FFC1C21CC
:10FB40006846FBF726FB0520C00301900F20000448
:10FB500002900094032168460173C4810474224812
:10FB60000590224806906846FFF75AF8002801D011
:10FB7000FEF700FD002000F09DFA002801D0FEF7FE
:10FB8000F9FC0320FEF7ECFE002801D0FEF7F2FCA2
:10FB900017A10020FDF700FBFFF7DAFB184C194D09
:10FBA000194E03E0285C81007158884720780028AE
:10FBB000F8D148DF0028F9D0FEF7DCFCF6E70000BA
:10FBC000D82100204D61696E205374617274210D3B
:10FBD0000A000000E810020065ED0100414E4755A3
:10FBE0004D454E00B5EE0100110702009DF40100E5
:10FBF000416476205374617274210D0A0000000084
:10FC000060210020891402004021002070B51446B4
:10FC100082880E4605462088111D4118921C994283
:10FC200001D8FE2A01D90C2070BD521C3254208804
:10FC3000FF21401C80B2208031542088401C80B2BB
:10FC400020808119288801F03EF92188401880B26F
:10FC50002080AA88002A09D0A968002908D0801924
:10FC6000FBF77EFA2088A98840182080002070BD0C
:10FC7000072070BD10B50C4C002020700120607072
:10FC800002E06078012801D1FEF710FAA078002880
:10FC900008D006A10020FDF77FFAFEF773FAA078DE
:10FCA0000028EED110BD00002021002061646320F7
:10FCB00073616D706C650D0A00000000F3B581B0D2
:10FCC0000E0029D015490878002825D0FF20144CB3
:10FCD0001D30002222500127A760154619E00F4A67
:10FCE0001078002817D0FF211D31002060500198A6
:10FCF000435D0C48C36103E008480078002806D043
:10FD0000FF211D31204600F07EFC0028F4D06D1C40
:10FD1000EDB2B542E3D3E760FEBD00000C21002048
:10FD20000020004000250040F8B50F460178144639
:10FD30000546012902D16878002806D02088821C57
:10FD40009A422DD8012902D006E00720F8BD697833
:10FD50004118891C994223D8181A801E86B2684619
:10FD600006802188B81C081869467DDF0028EDD17F
:10FD70002878022805D169460988B14201D80921AD
:10FD80000AE00821012805D16878B04202D86A4605
:10FD9000108001E06846068068460088FE2801D988
:10FDA0000C20F8BD2288401CB8542088401C80B22A
:10FDB0002080395420886946401C208009884018DA
:10FDC00020800020F8BD000003494018006800288A
:10FDD00000D001207047000000700040C2084307B7
:10FDE0005B0F0120895C984008407047012189071A
:10FDF00040180068002800D00120704700280FD06C
:10FE00000849094A096800BF00BF00BF00BF00BF22
:10FE100000BF00BF00BF914200D000BF0138F2D147
:10FE200070470000782100200024F40070B5144CC5
:10FE3000A27C022A16D00222A2746268A2602174F7
:10FE400000216174E0600F48126842600E4A861516
:10FE50001160012505602068002805D00B490120AC
:10FE600048600BE0112070BD3046FFF7ADFF002861
:10FE7000FAD0FEF757F90028F6D0A574002070BD1F
:10FE80007C25002000750040007100400073004098
:10FE9000074B0022596801E00A4649688142FBD1BC
:10FEA0004868002A01D050607047586070470000D1
:10FEB0007C2500200021064A41605168002902D1BA
:10FEC0005060704711464A68002AFBD1486070476D
:10FED0007C25002070B50C4D0C46A97C002901D072
:10FEE000082070BD094A00211160002C06D00028AE
:10FEF00000D107480178072000F06CF801202C6041
:10FF0000A874002070BD00007C2500200071004016
:10FF10005011020001490120086070470070004044
:10FF200010B5002005490122054C8023486023605C
:10FF3000044B9A60044B1A60887410BD7C25002025
:10FF400080E100E0007300400470004070B50E4C8A
:10FF500000252078002801D0852513E00021A1602C
:10FF600061602161E160094800680126304002D1EA
:10FF7000032100F02FF800F061FE002801D10448B1
:10FF800086612670284670BDF024002000E100E064
:10FF90000005004038B50020694608706846FEF745
:10FFA0009DFB084C2078002801D1FFF7CFFFE068C7
:10FFB000401CE0600120A07068460078FEF7ACFBB2
:10FFC00038BD0000F024002010B5002801D1FFF753
:10FFD000ABF910BD8207D30EFF229A408907090EA4
:10FFE00010B5994000280BDA03071B0F083B9C084B
:10FFF0000C4BA400E318DC6994430C43DC6107E07C
:020000040002F8
:100000008408094BA400E418236893430B4323603E
:10001000C106C90E012088400449086004490860EF
:1000200010BD000000ED00E000E400E080E200E030
:1000300000E100E04109074A890089180968C20601
:10004000D20E01209040014201D0012070470020D3
:100050007047000000E100E070B5144D28790028D9
:1000600001D0082070BD114900204039421E0B18F4
:100070002033401CC0B21A702028F8D30024204638
:10008000FFF726F9641CE4B2082CF8D303210620FC
:10009000FFF7A0FFFF207D3000F000F901200449A8
:1000A000C007486001202871002070BD4425002051
:1000B0000063004038B5124C2178002901D085201A
:1000C00038BD002800D10F480D4902784A704078A9
:1000D00088700020694608706846FEF7FFFA00F055
:1000E000ADFD002803D100F03DF800F055F868465A
:1000F0000078FEF711FB01202070002038BD0000C1
:100100004420002038110200F3B5144E81B00F4690
:10011000002568460570FEF7E1FA00F08FFD002823
:100120000BD068460078FEF7F7FA394601983ADFB7
:100130000446B0420DD105240DE03A460848019925
:1001400000F040FA044600F027F868460078FEF711
:10015000E3FA022CDDD02046FEBD0000072000009F
:100160003C11020010B509484178002904D0084923
:100170004A6801231A434A6006490A685208520035
:100180000A6081780D20FFF725FF10BD4420002074
:1001900000D5004000D20040054A0020034910600D
:1001A000044A0120506008607047000000D0004001
:1001B00000D1004000D3004002490120886002497C
:1001C0000860704700D3004004D0004070B5520072
:1001D0000A439900049D0A432902059E0A433104FB
:1001E00005240A432407800007210019090240184A
:1001F000026070BD1CB500220B46009211460192B0
:10020000FFF7E4FF1CBD1CB5002100910B46012245
:1002100001911146FFF7DAFF1CBD0522120780008D
:100220008218072000021018026803231B049A4357
:100230000260026809040A4302607047012181409C
:100240000148C16070470000000500500121814055
:100250000148C16070470000000500500122824043
:100260000348002901D082607047C26070470000D7
:100270000005005038B5084B05241B680093240284
:100280006B46411805E085005D592D192D69401C0C
:1002900020C28142F7D838BD34110200024940180B
:1002A00000210160704700000060004003494018D1
:1002B0000068012800D00020704700000060004066
:1002C00070B5074D04462878002802D0687884422B
:1002D00004D0FCF70BFF012028706C70002070BD6B
:1002E0007420002010B50120FFF7EAFF10BD0000C8
:1002F000F0B595B0FEF7E2FF002802D0002015B05F
:10030000F0BD4B4844688668214631408900091891
:100310000C94CD680BE02904A80D890D4018041930
:1003200020463040810042480C940818C568641C7F
:10033000A807F0D000200890A807800F3D4B0228A6
:1003400007D0AA0AA805000F84460EA996460020E9
:1003500059E02046304081003548641C0818C068C8
:10036000049486462804800D84463440301B800067
:10037000AF0D001D874222D92D490C31002807D02E
:100380002B4AA400A21814460C34C2B2381A03E057
:100390000C460021FAB20846C0B2039001920291C5
:1003A0000094A8065C69400F634672460899A0470E
:1003B000B84213D1FF1C0498B9080C1830E01C484F
:1003C000A200101800210C300090029101970391B7
:1003D000A8065C69400F63467246E8E71649800547
:1003E0000D40000C05430C9830408100104808185F
:1003F000C56017E027463740BA000D4F401CD7199B
:10040000FF68641C80C167466045F3D3A806009767
:100410001D69400F0EAB72460899A847002801D00D
:1004200003484460FEF74AFF0121484067E70000A7
:10043000F8250020F82900203F00FFFFF8B5104DF7
:100440000E46074600206946AC68FEF7FFFE00280E
:1004500015D00C483C21808888437907890E0843D1
:100460000F21890188438105890DB002014300985D
:100470000246224092005219401CD1600090F8BD03
:10048000F825002054110200F7B5154C82B00E4635
:10049000074601206946A568FEF7D8FE00281CD053
:1004A00010483C21008988437907890E08430F21B1
:1004B00089018843402108438105890DB002014329
:1004C000009802462A4092001219D160401C009008
:1004D0002840800000190499C16005B0F0BD0000FB
:1004E000F825002054110200016880684A688242A1
:1004F00001D2521C00E000220868824201D1012092
:100500007047002070478068884201D9481C7047B6
:1005100000207047FEB504460E4600206946019053
:1005200008706846FEF7DAF82046FFF7DDFF07009F
:100530000AD0207C002807D004200190684600786B
:10054000FEF7EAF80198FEBD2068416820460D4696
:10055000FFF7D9FF2168002F486006D020680168A6
:100560002046FFF7D0FF21680860E268012A15D015
:10057000022A17D0042A1AD0082A1DD01046616812
:10058000684308183146FAF7EBFD204600F000F901
:1005900021688A688242D1D28860CFE7616830786A
:1005A0004855F2E7616830886A008852EDE7616873
:1005B0003068AA008850E8E7626803CEEB00D218E2
:1005C00003C2E2E7F8B5002415460E460746002AA6
:1005D00010D00020694608706846FEF77FF838465C
:1005E00000F0D6F8A84207D32A463146384600F034
:1005F0009FF802E00020F8BD052468460078FEF769
:100600008BF82046F8BD4058002800D001207047E4
:100610000322120280184068084000D00120704771
:1006200010B5002809D0032806D10220FEF71AFDD4
:10063000002801D0FDF79EFF10BD00F041FA10BD6B
:1006400070B50446314D00886E8888B03A2838D09D
:100650000DDC022839D0102813D011281AD0132805
:1006600022D100231A46852130467FDF26E051281B
:100670002FD052281DD0552816D1A088132176DFFF
:100680001CE00720FEF7EEFC002801D0FDF772FF0A
:10069000A08808E00020FEF7E5FC002801D0FDF767
:1006A00069FF0020C043688008B070BDFDF762FF9D
:1006B000FAE700231A4619463046A9DF0028F5D18B
:1006C000F2E7A088132176DFF8E7A088002167DF32
:1006D000F4E71022A11D04A8FAF742FD6846017C48
:1006E0000029E1D0007E042803D0062801D0052887
:1006F000DAD1022908D0012069460870FF20833032
:100700008880A088A8DFD9E70220F5E7E81F00204D
:1007100010B50078002807D104483B21408876DFD7
:10072000002801D0FDF726FF10BD0000E81F0020C3
:10073000F7B50168044603C91646884201D80D1A68
:1007400002E0A1680D1A6D1CE2686168504341180F
:10075000AE420CD872430198FAF702FD2168A268F4
:1007600008688019904200D900200860FEBD174635
:100770006F433A460198FAF7F3FCE2680198751B5B
:100780006A436168C019FAF7EBFC20680560FEBD9A
:10079000016806C98A4201D3501A70478068401A1E
:1007A000401C80187047012252075110886B496B1A
:1007B00041438818704710B501221207126942435D
:1007C0000020840008CA401C0B515028F9D310BDEA
:1007D000014610B5012000074069C01EFFF7EBFF7E
:1007E00010BD014610B5012000074069001FFFF74A
:1007F000E2FF10BD70B501240B49600408600B498D
:1008000040108860094940398860094D6C602F208C
:10081000FFF7F4FAAC60074D00242F20AC60FFF71F
:10082000EDFAAC7070BD000080E100E040130140C3
:100830000010014048200020F0B500240546601C4F
:1008400001078FB0090F08A8103108940170601CCF
:100850000107090F08A8103141708178F927394044
:10086000891C81701C2101A8FAF793FC6846017964
:100870001020014368460171029408A8049405946D
:1008800001260794069086710B21C943684681842E
:100890003146103100940170314610314170817839
:1008A000F7203940891C0140EF2001403143684660
:1008B000817014210AA8FAF76CFC09A80A9068460E
:1008C0000B9006861421448681862B4668880C335B
:1008D0000AAA01A9A2DF0FB0F0BD000010B50446BE
:1008E000FDF752FB00280CD0A007C00E002C0ADA3E
:1008F0002107090F08398908144A89008918C9692C
:1009000006E0134810BDA108124A89008918096839
:10091000C1400806800F042811D200280FD00228F9
:100920000DD00D494B68E206D20E01209040002BFD
:1009300008D0620992008B5803438B5004E00448AE
:10094000401C10BD05490860002010BD00ED00E00E
:100950000120000000E400E06C20002000E100E045
:10096000FFB50746806A81B0144600283DD00025B7
:1009700038462030009033E00C20B96A68430E18E6
:10098000B088801CFE2802D90C2005B0F0BD22885A
:100990000299401C885420881622401C80B2208076
:1009A00002990A542088401C80B220800299411884
:1009B000308800F088FA2188401880B22080B28800
:1009C000002A0AD0B16800290FD0029BC018FAF79C
:1009D000C7FB2088B188401820806D1C0098EDB2BC
:1009E000007BA842C8D80020CFE70720CDE7000051
:1009F00070B504461248134D018A2182818A6182B2
:100A00000078002818D06879002815D100F018FB6C
:100A1000002811D028462030E060022008492072CA
:100A200004202031C870064800212030FDF78AFEDE
:100A3000002804D1052000E00320A870002070BD2C
:100A4000082300200020002070B504461148042629
:100A5000018B2182818B618200780F4D002816D096
:100A60006879002813D100F0EBFA00280FD028464F
:100A70002030E06002202072064800212030C6703D
:100A8000FDF760FE002804D10620A87000E0AE70DB
:100A9000002070BD082300200020002001231A46FA
:100AA00082408B4010B504490C7814430C70034904
:100AB0000A5C1A430A5410BD602100206121002005
:100AC00010B50020FEF7CEFA002801D0FDF752FD48
