:020000040001F9
:10B0000050390020D5B00100EFB00100F1B00100CF
:10B010000000000000000000000000000000000030
:10B02000000000000000000000000000F3B001007C
:10B030000000000000000000F5B00100F7B00100C2
:10B0400089C80100F9B00100A1D10100F9B00100E7
:10B05000F9B00100000000002DC00100F9B00100AE
:10B06000F9B00100F9B00100F9B00100F9B0010038
:10B07000F9B00100C9CD0100F9B00100F9B001003B
:10B08000F9B0010029CE0100F9B00100F9B00100CA
:10B09000C9D00100F9B00100D1D00100F9B0010020
:10B0A000F9B00100F9B0010000000000000000004C
:10B0B0000000000000000000000000000000000090
:10B0C0000348854600F0A2F800480047CDEE010095
:10B0D000503900200321094802680A4302600848E9
:10B0E00002680A4302600748804707480047FEE7B6
:10B0F000FEE7FEE7FEE7FEE7FEE70000240500406E
:10B100005405004001D10100C1B0010030B50B462B
:10B11000014600202022012409E00D46D5409D4231
:10B1200005D31D469540491B2546954040191546B7
:10B13000521E002DF1DC30BD70B5002425460028DC
:10B1400001DA01244042002901DA01254942FFF7D2
:10B15000DDFFAC4200D04042002C00D0494270BD1F
:10B1600003460B439B0703D009E008C9121F08C020
:10B17000042AFAD203E00B780370401C491C521ECB
:10B18000F9D27047D2B201E00270401C491EFBD2D6
:10B1900070470022F6E710B513460A4604461946E2
:10B1A000FFF7F0FF204610BD30B505462A460B4696
:10B1B00010781C78521C5B1C002801D0A042F7D0EC
:10B1C000002C03D0002802D06D1CEFE7284630BDCC
:10B1D000421C0178401C0029FBD1801A704730B511
:10B1E00004460020034600E05B1C934203D2E05C6F
:10B1F000CD5C401BF8D030BD03460A780270401C7D
:10B20000491C002AF9D1184670470000064C012558
:10B21000064E05E0E36807CC2B430C3C98471034FE
:10B22000B442F7D3FFF750FF6C0E02008C0E020001
:10B2300070B58C180578401C6B075B0F01D1037843
:10B24000401C2A1106D10278401C03E006780E70DB
:10B25000401C491C5B1EF9D12B0705D40023521E4C
:10B260000DD40B70491CFAE70378401CCB1A921CD2
:10B2700003E01D780D70491C5B1C521EF9D5A142DC
:10B28000D8D3002070BD0000FFB581B004460398FC
:10B290001D4606070F46360F204600F095FD19485B
:10B2A000002D046002D0456001F0BCF90A98002826
:10B2B00001D01449886000250FE03946204600F08F
:10B2C00083FD1048046000F06DFF204602F0F6F8A0
:10B2D0000C48103410358760103703988542ECD342
:10B2E000002E0CD03946204600F06EFD1020811B48
:10B2F000A019FFF74EFF0348046000F053FF05B0AC
:10B30000F0BD000024210020F8B52B4C0746E27F59
:10B310002AA100F047FE254600262035002805D04A
:10B320002848042201781143017032E02249E27F6B
:10B330005D39384600F036FE1F4CE03C0028607D49
:10B3400033D0022805D0032803D00F2801D01028BD
:10B350000AD114221CA1384600F024FE00280BD08C
:10B360001AA1002001F0C6FD607D062806D00B283A
:10B3700004D0152802D00CE01BA10EE0412212A13E
:10B38000384600F00FFE002806D01FA1002001F073
:10B39000B1FD6E700420F8BD22A1002001F0AAFDCD
:10B3A0003946002001F0A6FD01E00F2801D002205F
:10B3B000F8BD0020F8BD00002C2E00204C696572FD
:10B3C00064610000B42000204F4B000061742B63C7
:10B3D00066756E3F2F61742B63676174743F206FD5
:10B3E0006B20210D0A00000061742B6366756E3FAF
:10B3F0002F61742B63676174743F206572726F7282
:10B4000020210D0A0000000061742B6367736E3DFC
:10B41000312F61742B6E63636964206F6B20210D83
:10B420000A00000061742B6367736E3D312F6174F5
:10B430002B6E63636964206572726F7220210D0A3E
:10B440000000000010B51049097C00290CD001282B
:10B4500008D108460D4C00F0BDFD217A0122824042
:10B4600011432172032010BD0848017A002906D03B
:10B470000021017206A1002001F03CFD01E006213F
:10B480000170002010BD00004C2D00200C2C00206D
:10B490004576656E74206973204572726F72200D57
:10B4A0000A000000F0B500259BB0064668462C4611
:10B4B00005702746642101A8FFF76BFE002E2ED1F0
:10B4C00069460C7110224A71164901268A7869462C
:10B4D0008A71CC710C724C728C72134A01A80721CC
:10B4E0005319FF3321339B784354491C6D1CEDB233
:10B4F000C9B2142DF4D34654491CC9B24454491C52
:10B50000C9B24654491CC9B2465452190021FF32EF
:10B510004132D2784254891CC9B20629FAD338463E
:10B520001BB0F0BD4C2D00200C2C0020F8B50446BB
:10B530004578407A012832D0207A042830D0032878
:10B540002ED01848867DF0212046FFF722FE0120EC
:10B550006072657000202072134FA6702D01EE19E5
:10B56000307BE070B0887D21C90048436060204690
:10B570000A3000907959FFF73FFE7859FFF728FE0F
:10B5800025466035A87320466F30B168FFF734FE5A
:10B59000A97B009803F0A8FDA078401CA070F8BD1E
:10B5A0000026D0E74C2D002040050200F8B5364CAF
:10B5B000A17803290ED2354A354E515C337F354A86
:10B5C00001270025042B06D0032B53D00720207021
:10B5D00037757175F8BD152902D0162934D122E0CE
:10B5E0002DA1FFF7E1FD07462DA1002001F082FC0F
:10B5F000002F29D0B57000203918497930390A292F
:10B6000003D2401CC0B22028F6D33818417928460E
:10B610000A22504330380818C2B2B27023A1002069
:10B6200001F068FC10E01848617AC37A0120984064
:10B63000032902D1317C81433174217A814314483A
:10B640002172157080380583A078401CC0B2A070AC
:10B6500003280CD30020FFF7F5FE002803D00520B7
:10B660002070A570F8BD062020702573F9E705202D
:10B670002070F8BD162904D1052020701078401CD8
:10B680001070A5702573F8BD0C2C00201005020069
:10B690004C2D0020942000202B4353513A000000F1
:10B6A000636D64206373710D0A0000006373712081
:10B6B0003D2025752E0D0A00F8B5154CA1780E29F0
:10B6C0000FD214480026425C1348037F0546803D94
:10B6D000042B07D00127032B12D0072121700775F7
:10B6E0004275F8BD491CC8B2A0700E2805D30620CB
:10B6F0002070A67002202877F8BD03202070F8BDC6
:10B7000006A1002001F0F6FB2770A670AE76F8BD0A
:10B710000C2C0020F00602004C2D0020436F6E6EB2
:10B720006563742052657365740D0A00F8B5144C96
:10B73000A17805290FD213480025425C1248037FE7
:10B740000646803E042B07D00127032B0FD007218C
:10B75000217042750775F8BD491CC8B2A070052854
:10B7600002D30420207007E002202070F8BD07A15A
:10B77000002001F0BFFB2770A570B576F8BD000072
:10B780000C2C0020130502004C2D0020496E69741A
:10B790002052657365740D0A00000000F8B5464D2F
:10B7A000A9780A290DD2454A0026525C44490B7FEC
:10B7B000042B07D00124032B73D0072028704A756F
:10B7C0000C75F8BD062A02D00B2A5CD12AE03DA1F7
:10B7D000FFF7EAFC07463DA1002001F08BFB002F9C
:10B7E00051D0002438194079014630390A2905D34F
:10B7F00031391A2902D341381A2804D2641CE4B220
:10B80000102CEFD303E0102C01D2381946712C48CC
:10B81000791D2E3822460746FFF7A2FC3B462246FA
:10B820002DA129E032A1FFF7BFFC074632A100207D
:10B8300001F060FB002F26D00024381980790146E2
:10B8400030390A2905D331391A2902D341381A2847
:10B8500004D2641CE4B2202CEFD303E0202C01D2EC
:10B86000381986711648B91D1E3822460746FFF75B
:10B8700077FC3B46224623A1002001F03BFB002140
:10B88000062004F029FBA878401CC0B2A8700A2842
:10B8900004D303202870AE70F8BD02E004202870A5
:10B8A000FAE71EA1002001F025FB05482C70AE70C0
:10B8B00080388676F0E700000C2C0020FE0602009F
:10B8C0004C2D00204347534E3A000000636D642026
:10B8D0006367736E0D0A00006C656E203D20257550
:10B8E0002C20696D65693A25732E200D0A00000031
:10B8F0004E434349443A0000636D64206E636369BC
:10B90000640D0A006C656E203D2025752C206E6349
:10B910006369643A25732E200D0A00004D65737328
:10B920002052657365740D0A00000000F8B5154ECD
:10B9300000243460144D2846E0306C77827FC27753
:10B9400007468477014620373C70104846390090FE
:10B95000FFF706FC042030600098FFF7D5FC28773D
:10B9600002280DD0787800280AD0012807D10221BA
:10B97000052004F0B1FA06A1002001F0BBFA2C77F3
:10B98000F8BD0000002500404C2D0020192C00209F
:10B990005354415254204445434F44450D0A00003E
:10B9A000F8B5B24DB2482C462A78A18800780090AC
:10B9B0002646A078FF340127C0364134130001F039
:10B9C0000CFF082764A1C0C6EBFE05FD207F002800
:10B9D0007ED0022801D0012805D1A07DE17D8842DA
:10B9E00001D30320207768788100A24841580029BC
:10B9F00002D09E480D308847207F042801D00328BC
:10BA000001D1072068709C490020886560771FE19C
:10BA100000295DD100280DD001281AD0022827D096
:10BA200096A1002001F066FA0020B076687002212D
:10BA300029700CE196480821C1608901C16095A177
:10BA4000002001F057FAA878401CA8704B20000194
:10BA5000A0E08F490820886096A1002001F04AFAF2
:10BA6000A878401CA8706420A88097480770EFE071
:10BA7000012087494002886094A1002001F03AFA31
:10BA8000A878401CA870964884E0002920D100289E
:10BA900025D001282ED00020B0766F702870A870B5
:10BAA000B075217C3943217428723077A072E0721E
:10BAB000A0811E21E1818B494A78521CD2B24A7082
:10BAC000032AA4D34870009808226949104300E073
:10BAD0009CE0087084A1002001F00CFAB8E001207D
:10BAE0006B494002C860AF70C820A880764900202A
:10BAF0000870ADE001206649400288600220A8700D
:10BB0000322047E0002902D0009949077ED500285D
:10BB100015D07AA1002001F0EDF90020A88054484A
:10BB2000FB22017811400170287868700720287086
:10BB300027755049A878491F085C60758BE075A18E
:10BB400021E06A700721297027757849F4E70029F8
:10BB500002D00099490763D5002813D074A10020B2
:10BB600001F0C8F90020A8804148FB22017811406B
:10BB7000017028786870072028706C492775A878AC
:10BB80000E31D9E770A1002001F0B4F9A878401C6B
:10BB9000A8707348A8805BE00120FFF753FC68722F
:10BBA000002855D0297A002952D0A978002900D13F
:10BBB0002F73304A083A515C162901E052E030E018
:10BBC0001AD1032818D1207C00F004FA274900225A
:10BBD000E87271310092002802D001280AD105E0F4
:10BBE0000020FFF75FFC5FA1009000E062A1002051
:10BBF00001F080F900987075A07A032802D3A87824
:10BC000000280BD028786870072000E008E0287032
:10BC100027751848A9780838405C8EE76F702F7038
:10BC2000F8BD0020FFF70EFC002802D0A87A3843A8
:10BC3000A872A87A00280BD000F0CCF9411D297019
:10BC4000A97A8740B943A972062068700020A870BD
:10BC5000207D0128E4D10020207507485430FFF7EB
:10BC600065FCF8BD02202870F0E700000C2C0020D5
:10BC7000B4200020180502000C2D00206E65787499
:10BC800020737461746520696E697420210D0A0047
:10BC900000050050636C656172206E6220706F77E2
:10BCA00065726F6E20616E64207265736574202109
:10BCB0000D0A0000736574206E6220706F776572E4
:10BCC0006F6E20210D0A0000E220002073657420B1
:10BCD0006E6220726573657420210D0A00000000F9
:10BCE000581B000094200020436C6F736520537430
:10BCF0006174652050726F630D0A0000696E69748B
:10BD0000206E622068617320737461727420210D4B
:10BD10000A000000696E69742077616974206E62A0
:10BD200020737461727420210D0A0000F006020075
:10BD30006D657373206E6220686173207374617225
:10BD40007420210D0A0000006D657373207761690E
:10BD500074206E6220737461727420210D0A0000D9
:10BD6000204E0000696E6974206D657373207570D4
:10BD70006C6F61640D0A00006C6F67206D657373F2
:10BD80002075706C6F61640D0A000000F0B50C4AFC
:10BD9000002112680B4B9446840062180020950025
:10BDA0008A0062442F18165CDF5D7E401654401CEA
:10BDB000C0B20428F6D3491CC9B20429EDD3F0BDA2
:10BDC00024210020A030002000228B5C8354521CD0
:10BDD000D2B2102AF9D37047F8B5064600242F4F87
:10BDE00058E02F490D5C002D06D0012D12D0022DF8
:10BDF0001ED0032D48D141E02A4801782A4801F09D
:10BE0000A9FA012803D10121042004F065F825488E
:10BE1000047039E02548C17A25480C31006800F0EB
:10BE2000AFF801462148007C81422DD1022121E05A
:10BE3000204800901D481F4BC27AC0680146FFF79A
:10BE400023FA1D4804701948C368C17A581820386D
:10BE5000C07F814205D9002803D0144A081AD07245
:10BE600001E01248C47211480322C07A194602F058
:10BE7000F3F80321042004F02FF805E00B48C27A00
:10BE8000417AC06800F02AFD2946304602F004FDE0
:10BE9000012802D0B85D0028A3D1F8BD19210020E7
:10BEA0000C080200E0200020A02F00208C2F002092
:10BEB0009C200020D02000209920002010B50E49A1
:10BEC0000A78002A0FD0012A10D0022A0AD14A7813
:10BED000002A03D000228B1C1A804A700422C82139
:10BEE00000F0F8FB10BD02F099FB10BD01224A7072
:10BEF00000227D21C900F3E7E220002070B5104C3C
:10BF00000546207800280ED001280FD0022809D13C
:10BF100000F07EFBE1210022C900284600F034FC3D
:10BF20000220607070BD01F0E3F870BD00F074F89D
:10BF30007D2100220901284600F026FC0120F0E7BF
:10BF4000F0200020F8B505460B4F0C4E10E03C5C8D
:10BF5000230001F042FC02020507FFF7E7FC01E0C5
:10BF6000FFF71EFD2146284602F096FC012802D06C
:10BF7000705D0028EBD1F8BD0C08020019210020EB
:10BF800010B50022064C03E003785340E25C401CED
:10BF90000B46491E89B2002BF6D1104610BD000099
:10BFA0000807020070B500240B4605781E78B542DC
:10BFB00005D15D785B1C002D02D1012070BD0B46C0
:10BFC0004578401C002D03D0641CA4B29442ECD3ED
:10BFD000002070BD0146002001231A4682400A421B
:10BFE00004D1401CC0B20828F7D3FF2070470000DE
:10BFF00070B50446064E074D05E0315C204602F060
:10C000004BFC012802D0285D0028F6D170BD00004D
:10C010000C0802001921002010B503491020886087
:10C02000052003F0CBFA10BD00050050F0B5002448
:10C03000FF268BB00136012527460694304603F0D3
:10C04000EDFA002807D054484068284203D0304613
:10C0500003F0DCFA2C43361D6D007F1CB6B2042FB2
:10C06000ECD3FF257D35284603F0D8FA002809D007
:10C07000284603F0CBFA6807044306AA01210020F2
:10C0800003F0B0FA454D200714D0012700262742BF
:10C090000CD04348B200111808690969C004C00EE9
:10C0A0008903AA58890F002A00D090477F00761C88
:10C0B000042EECD3002C6DDA00200890401E63E0C3
:10C0C000281940300778B906890E009100214156A1
:10C0D000491C49D009A9009803F0C7F8002843D0AB
:10C0E000B8090190009802F0CFFB80002F5801980A
:10C0F000002F02D0032802D00DE0032834D100988D
:10C1000008ABC20841079446985C490F01228A4057
:10C110001043624698540098052109078000401892
:10C12000072109024018006806A98003800F0290C9
:10C13000009803F09AF80028029802D0022802D052
:10C1400012E0032810D10198032808D10298022890
:10C150001ED00221009803F018FA761CF6B2002FC8
:10C1600002D001990098B847641C042CA8D3002E73
:10C1700010D06A460121002003F034FA0699009895
:10C18000884207D00690089800263446099097E721
:10C190000321DFE70BB0F0BD006300408C240020DA
:10C1A0000065004010B50A20FFF7F0FD092400F0FB
:10C1B000F9F900F015FA2046FFF7E8FD00F00CF859
:10C1C000641E2406240EF2D100F0ECF900F008FA07
:10C1D0000020FFF7DBFD10BDF0B585B00020039017
:10C1E0008400EF480068065D20184178029181784C
:10C1F0000191C0780090304604F034F904F032F92F
:10C2000004F030F904F02EF9009804F02BF90198AD
:10C2100004F028F9029804F025F904F023F90298B3
:10C2200004F020F904F01EF904F01CF904F01AF9E6
:10C23000009804F017F904F015F904F013F904F06C
:10C2400011F9009804F00EF904F00CF9019804F0CB
:10C2500009F904F007F904F005F904F003F9304690
:10C2600004F000F90546304604F0FCF804F0FAF852
:10C270004540304604F0F6F804F0F4F804F0F2F823
:10C280004540029804F0EEF8029907464F400846F0
:10C2900004F0E8F804F0E6F804F0E4F847407D40E4
:10C2A000019804F0DFF804F0DDF8019907464F40EB
:10C2B000084604F0D7F804F0D5F804F0D3F8474066
:10C2C0007D40009804F0CEF804F0CCF804F0CAF8F1
:10C2D000014600984140B2484D400068055530463F
:10C2E00004F0C0F8009804F0BDF8019804F0BAF822
:10C2F00004F0B8F8029804F0B5F804F0B3F804F0CC
:10C30000B1F804F0AFF8304604F0ACF804F0AAF845
:10C3100004F0A8F804F0A6F8304604F0A3F804F0FE
:10C32000A1F8009804F09EF804F09CF804F09AF844
:10C3300004F098F8019804F095F804F093F804F0EC
:10C3400091F804F08FF8304604F08CF804F08AF885
:10C3500004F088F805467540029804F083F8074613
:10C36000029804F07FF804F07DF84740029804F04A
:10C3700079F804F077F804F075F847407D400198AB
:10C3800004F070F8019907464F40084604F06AF837
:10C3900004F068F804F066F847407D40009804F027
:10C3A00061F804F05FF807460098474004F05AF837
:10C3B00004F058F804F056F8474079487D4000688A
:10C3C00020184570304604F04DF8009804F04AF803
:10C3D00004F048F8019804F045F804F043F804F03C
:10C3E00041F804F03FF8029804F03CF8304604F0BD
:10C3F00039F804F037F804F035F804F033F8009811
:10C4000004F030F804F02EF804F02CF804F02AF8C8
:10C41000029804F027F804F025F804F023F804F05B
:10C4200021F8029804F01EF804F01CF8304604F0DD
:10C4300019F804F017F805467540304604F012F874
:10C4400004F010F804F00EF84540029804F00AF8E1
:10C4500004F008F804F006F80299484045400198B5
:10C4600004F000F80746019803F0FCFF03F0FAFF20
:10C470004740019803F0F6FF03F0F4FF03F0F2FFEA
:10C4800047407D40009803F0EDFF07460098474085
:10C4900003F0E8FF03F0E6FF03F0E4FF4740404805
:10C4A0007D40006820188570304603F0DBFF03F004
:10C4B000D9FF009803F0D6FF03F0D4FF03F0D2FFBA
:10C4C00003F0D0FF019803F0CDFF029803F0CAFFFC
:10C4D000304603F0C7FF03F0C5FF03F0C3FF03F0CE
:10C4E000C1FF019803F0BEFF03F0BCFF03F0BAFFE9
:10C4F00003F0B8FF019803F0B5FF03F0B3FF029813
:10C5000003F0B0FF03F0AEFF03F0ACFF03F0AAFFAF
:10C51000304603F0A7FF05467540304603F0A2FF02
:10C5200003F0A0FF03F09EFF4540029803F09AFF3E
:10C5300003F098FF029906464E40084603F092FF2A
:10C5400003F090FF03F08EFF46407540019803F022
:10C5500089FF03F087FF03F085FF019948404540BC
:10C56000009803F07FFF0646009803F07BFF03F07E
:10C5700079FF4640009803F075FF03F073FF03F066
:10C5800071FF46400648754000682018C570039842
:10C59000401C0390042800DA22E605B0F0BD00003C
:10C5A000242100200D480068417B427A4273427981
:10C5B00042724278427141708178827A82708172CF
:10C5C0008179827B82718173C178C279C270C27AAB
:10C5D000C271C27BC272C173704700002421002067
:10C5E00030B50949094A0C68002000218B001B194D
:10C5F0001D5C491C555DC9B21D540429F6D3401C6D
:10C60000C0B20428F1D330BD242100200C0A02005E
:10C6100010B5042002F0D2FF01492020886010BD2F
:10C6200000050050F8B52749274B4A6800208100D3
:10C63000545C5C548C18C91865784D70A5788D7061
:10C64000E478401CCC700428F1D337E0002182004C
:10C650006D46141F66189E5D6E54491C0429F9D35B
:10C66000810715D12F46BE782978FF78174C6D7851
:10C67000BC46655DA65D6F467E706746E65D6F46AB
:10C68000BE70615CF970124C8108615C4D403D7078
:10C69000D4182546203D6E46297C36787140995441
:10C6A0006E46697C727851406170AA7CB1784A40CC
:10C6B000A270EA7CF1784A40E270401C2C28C5D375
:10C6C000F8BD000024210020A03000200C09020049
:10C6D0000C0B020070B5154652060C4C160E228843
:10C6E000101880B2208088420ED301F09FFF0020F6
:10C6F0002080002D08D0A178491CC9B2A170B14298
:10C7000002D3A070A11E087070BD0000E4200020BC
:10C7100070B50446064E074D05E0315C204602F038
:10C72000BBF8012802D0285D0028F6D170BD0000BA
:10C730000C0802001921002070B50446064E074D72
:10C7400005E0315C204602F0A7F8012802D0285D00
:10C750000028F6D170BD00000C080200192100204D
:10C7600070B50446064E074D05E0315C204602F0E8
:10C7700093F8012802D0285D0028F6D170BD000092
:10C780000C0802001921002010B5074C228810184F
:10C7900080B22080884205D300F0AAFC0020A11EB0
:10C7A0000870208010BD0000F220002010B500208D
:10C7B00010499122920004460C54401C80B29042D1
:10C7C000FAD30D4900200C54401C80B21028FAD333
:10C7D00008480AA1ED30FEF70FFD06480BA1DD3039
:10C7E000FEF70AFD0C480B49C1811E210182403829
:10C7F000847610BD0C2C0020502E00203138302EB5
:10C800003130312E3134372E3131350063746E6260
:10C81000000000004C2400000C2D00208307FF22A4
:10C82000DB0E9A408907090E994000280BDA0007B1
:10C83000000F0838830808489B001818C369934301
:10C840000B43C3617047830804489B001B1818689A
:10C85000904308431860704700ED00E000E400E0FA
:10C8600070B50446064E074D05E0315C204602F0E7
:10C8700013F8012802D0285D0028F6D170BD000011
:10C880000C08020019210020F8B5FF20013002F049
:10C89000F4FC002401250E4E0E4F002807D00E4850
:10C8A00004600120B0607D70002002F00BF8FF20D2
:10C8B000053002F0E2FC002808D00748001D0460A3
:10C8C0000220B060BD70012001F0FCFFF8BD000047
:10C8D000000300407824002000010040F7B5044622
:10C8E0008AB00020089002A80230069001A80990A2
:10C8F000CD4816464088C11FF93905D0CBA100208C
:10C9000000F0F8FA07210DE0002E0FD0CF48407953
:10C91000A5280DD00B98A0280AD0CDA1002000F0AA
:10C92000E9FA04210B9800F08BFD79E1CFA1F5E73E
:10C93000D5A100200B9A00F0DDFA0B98D64F03A981
:10C9400000250791AA287DD010DCA62847D006DC58
:10C95000012813D0022814D0A0281FD117E0A7283F
:10C960003FD0A82848D0A92818D182E0AB380300CE
:10C9700000F033FF06D6FEFDFC0C0C140823C7A202
:10C9800001E00F23C7A2002100F064FD46E1C9A128
:10C99000002000F0AFFA2078012801D004212FE117
:10C9A000AA4C6079A528F1D03D701021C64802F04C
:10C9B00063FD781C1022C449FEF7D2FB112600212A
:10C9C000062003F089FA3246C0A1002000F092FA56
:10C9D00031460B9800F0A4F9A52060711EE10721F3
:10C9E0000FE1072100F02CFD012ED7D100F086FCCD
:10C9F0000028CBD1052103E1B9A1002000F07AFA8B
:10CA0000092ECBD10822BA49204600F090FC00281C
:10CA1000BCDD08222146B648FEF7A2FB0021062015
:10CA200003F05AFA89483D700079787068460575B8
:10CA3000B04801260088012801D868460675684676
:10CA4000007D00E044E0B87003210B9800F068F925
:10CA5000217A1022A84BA948A12902D0A22903D0EB
:10CA6000DCE00221197000E01E70017811430170B2
:10CA7000D4E0A3A1002000F03DFA042E8ED120784E
:10CA8000617800020843A17800020843E1780002BF
:10CA90000843A049884281D349424118069802F0D0
:10CAA000FFFF6846018A7D200001091A684601716E
:10CAB000817B491C4171417B491C8171017BC171A2
:10CAC000C17A0172817A41728A489349018096E065
:10CAD000099800F01DFC01280AD006203870781C47
:10CAE0000D21FEF756FB0E210B9800F019F995E089
:10CAF0003D70781C08220799FEF732FB85480299A1
:10CB000008180290000E78720298000CB872029811
:10CB1000000AF87202983873684640797873E2E741
:10CB2000012EABD12078AB28A8D100F0E7FB00287C
:10CB300000D15FE700F0E2FB05A900F04DFC002802
:10CB40002AD1684605714571007D410602D5012153
:10CB50006A465171810605D56A4651790222114310
:10CB60006A465171C10609D56A4602E045E04BE0CC
:10CB70002BE05179042211436A465171000705D513
:10CB8000694648790821084369464871022301AA89
:10CB900000210B9800F05EFC604CA078102812D2A7
:10CBA00001A900F031FC002803D0A078401CA0703F
:10CBB000F3E7082301AA00210B9800F04BFCA078B2
:10CBC000401CA0702AE006211AE00822214607989E
:10CBD000FEF7C6FA207A617A00020843A17A0002C1
:10CBE0000843E17A000208434A494942401802904A
:10CBF000099800F05DFB012801D0012100E000212F
:10CC00000B9800F01DFC09E0812E8AD1207AAA2819
:10CC100087D1082201A9204600F089FB3F484570D2
:10CC200008980DB0F0BD00008C2F002050524F54DA
:10CC30004F434F4C5F4150505F4552525F564552F3
:10CC400053494F4E5F31210D0A000000AC200020F7
:10CC500050524F544F434F4C5F4150505F455252DA
:10CC60005F504152414D5F33210D0A0050524F54E5
:10CC70004F434F4C5F4150505F4552525F504152BD
:10CC8000414D5F32210D0A00636F6D6D616E64204E
:10CC90003D2025640D0A00006C2E00204856312EE0
:10CCA000302E33005356312E312E302D313830385E
:10CCB00030360000636D6420676574206165736BB6
:10CCC0006579210D0A000000C020002073656E64A4
:10CCD0004C656E677468203D202564210D0A0000B4
:10CCE000636D6420737769746368210D0A00000026
:10CCF000B8200020A0200020F0200020B420002038
:10CD0000636D642061646A7573742074696D652154
:10CD10000D0A000000D36C3860EA00009820002063
:10CD200070B5204CF0222270A523012263700026EA
:10CD3000A270E67022716271A671E67126721A4ABB
:10CD40006072927A0B25A272AA2801D0A22801D182
:10CD500000290DD1E1720C310D462046FFF710F984
:10CD60006055691C162060540D20A91C6054ED1CF0
:10CD70002A460EA1002000F0BDF8E8B204222146A8
:10CD800001F06AF92946204601F082FB0B48017840
:10CD9000002905D00670102209490A48FEF7E0F97B
:10CDA00070BD0000602E00208C2F0020706F737407
:10CDB000696F6E203D202564210D0A009820002017
:10CDC000C0200020D02000201CB50024684604703C
:10CDD00000F07CFF03F050F9002818D10E480168DC
:10CDE000002914D00D498968C907C90F0FD0046004
:10CDF0000B4880686946087101A90A4802F042FDA3
:10CE0000084802F029FD002801D002F08DFB684699
:10CE1000007800F079FF1CBD00D1004000D3004035
:10CE200000D50040C804020010B506490020086083
:10CE300048608860C860034940390860486003F072
:10CE4000C7F910BD4011014010B503480078002813
:10CE500001D100F043FB10BD942B0020F8B506462D
:10CE60000C48144600780D46002801D100F036FB2E
:10CE7000002368460093037000F028FF22462946ED
:10CE8000304600F009F804466846007800F03CFFA0
:10CE90002046F8BD942B002070B50E46182148435B
:10CEA000134914464518E86A1835002804D00128AB
:10CEB0000FD0022805D113E0284600F045FBA04220
:10CEC00001D2002411E022463146284600F067FCDA
:10CED0000BE0284600F038FBA042F4D20446F2E70B
:10CEE0003146284600F02BFC0446204670BD000069
:10CEF000942B00200FB408B504A900916A46039949
:10CF000000F004F801B008BC04B01847F7B598B0B9
:10CF100007A80290402000250495039018980C461D
:10CF2000059506902178641C002977D0252907D023
:10CF300002A800F0E5FB05980028F3DA1BB0F0BD6D
:10CF400001220021022713460826207823281BD01F
:10CF50002B2816D02D2802D0302806D101E0194305
:10CF600000E03943641C002AEFD1002220780346F8
:10CF7000303B0A2B0AD20A235A431218303A641C57
:10CF8000F4E704200143EDE73143EBE70023C7B2A8
:10CF90002E2F0AD1641C20780746303F0A2F04D276
:10CFA0000A277B431B18303BF4E76C280DD0682818
:10CFB0000BD0702852D00BDC25285AD058282ED000
:10CFC00063280CD0642858D110E02078641CECE76A
:10CFD000732832D0752817D078284ED11FE01A98C0
:10CFE0001A9A0068011D1160017843E01A981A9F8F
:10CFF0000068061D3E6000680191009201460A2209
:10D0000002A800F0ACFA38E01A981A9F0068061DD2
:10D010003E600068009201910A2209E02FE01A9810
:10D020001A9F0068061D3E60006800920191102260
:10D03000014602A800F0F8FA1FE01A981A9A006850
:10D04000011D116006683178761C002915D002A8F0
:10D0500000F056FB05980028F5DA0EE01A981A9AA7
:10D0600000680823011D11600168102200960195D7
:10D07000DFE7252102A800F043FB641C5BE705986D
:10D08000002800DC5AE70498002804D0024607A9CB
:10D090001898FFF7E3FE04990598401805904DE7AE
:10D0A00070B50446064E074D05E0315C204601F0A0
:10D0B000F3FB012802D0285D0028F6D170BD0000E6
:10D0C0000C0802001921002010B502F0F3FF10BD7A
:10D0D00010B506484068002805D08047002801D0D8
:10D0E00000F040FD10BD01F06DFD10BD802000205E
:10D0F00010B5042002F062FA052002F05FFA10BDBC
:10D1000010B501F0ADFD002805D01F491D4848604D
:10D11000C8131E4988611E48018CC9B201290BD170
:10D12000828C120708D1028D1206120F042A03D135
:10D13000828D1206120F0AD0012921D1818C090794
:10D140001ED1018D0906090F0A2904D007E0114AF2
:10D1500001219160F5E7828D1206120F05D00D298D
:10D160000ED1808D0006000F0AD10B4801680129FD
:10D1700004D00A49016001680129FCD1C021416144
:10D1800010BD0000DFFF07C000050040006C00403C
:10D19000C00F00F00006004000EC06407593000050
:10D1A000F8B52E4C01214902204602F0E9FB00258A
:10D1B0002B4F0126002818D0FF212531204602F0F0
:10D1C000DAFB002811D0FF20253025508120254989
:10D1D000800088603878002800D1666020480822E6
:10D1E000001D01781143017028E00421204602F05F
:10D1F000C7FB002822D0FF210931204602F0BBFBEB
:10D2000000281BD0FF2009302550174846771748C3
:10D2100082691549E031887F0B46463BC254887FBE
:10D22000401CC0B28877642800D38D770E48142143
:10D23000803001833878002800D16660FF214531B5
:10D24000204602F098FB002806D0FF2045302550EC
:10D250003878002800D02660F8BD0000002000408B
:10D26000E8200020002300404C2D00200025004035
:10D2700030B504460078F02816D16078A52813D17F
:10D28000E57A28460F300C3588420DD86019417870
:10D29000162909D180780D2806D129462046FEF7A7
:10D2A0006FFE615D884201D0002030BD012030BD9D
:10D2B00030B58BB00446684600780025AA2804D013
:10D2C000AA216846017045808580002C0AD008227A
:10D2D000A11804A8FDF783FF00280CD0039861680B
:10D2E000884208D168468088401C81B268468180A7
:10D2F000642900D3858001200BB030BD034800783D
:10D30000002801D00148401C70470000A2200020E6
:10D310000CB568460078AA2805D0AA216846017095
:10D3200000214180818001200CBD0120704710B593
:10D330000CE004780B789C4201D9012010BD9C427E
:10D3400002D20020C04310BD401C491C521EF0D226
:10D35000002010BD30B51C4B002159600278811CA3
:10D36000140242782243194CA24227D10C78184A61
:10D37000240254804D78254355808C781471CC78E4
:10D3800054710C7994714C79D4718C791472CC7974
:10D3900054720C7A09319472AA2C01D0552C0DD1FB
:10D3A0000C78D472491CD16061180C7814744A78D6
:10D3B000897812021143074A914201D0002030BD02
:10D3C0005860012030BD000098200020A5F000002A
:10D3D0008C2F00200D16000070B592B00D46012470
:10D3E00000F04CF8064610280BD269463046FFF78D
:10D3F0009CFFFF28F9D0002D02D0684600782870E5
:10D400000024204612B070BD70B592B00D4606469D
:10D41000012469463046FFF788FFFF28F9D06846A7
:10D42000007883210840822807D1002D04D00822EB
:10D43000284601A9FFF77BFF0024204612B070BDEB
:10D4400010B5034A11730121FFF76AFC10BD0000FB
:10D45000602E002070B5054607481C461346017330
:10D46000224619460D30FDF77BFE641CE1B22846CA
:10D47000FFF756FC70BD0000602E0020F0B591B0A3
:10D480000024064683256F4669462046FFF74DFF78
:10D49000FF28F9D0684600782840822806D1082263
:10D4A0003146381DFFF743FF002803D0641CE4B267
:10D4B000102CE9D3204611B0F0BD000010B5064A8B
:10D4C00000219268435C545C63404354491CC9B2D8
:10D4D0001029F7D310BD00002421002010B5124CF4
:10D4E00002202061606111A0A0611348E061012069
:10D4F000400220620020A06260620CA1A16421466B
:10D50000E0621039E16410212165A0656065E06585
:10D510000AA1E01DFDF770FE09A12046FDF76CFE93
:10D520002020A07110BD0000942B00205465726D66
:10D53000696E616C00000000842900205254540080
:10D5400053454747455200000269C1688A4203D8E3
:10D550008068401A801800E0501A401E7047FFB5DE
:10D5600083B00E4670420D9F0C9C0090002900DB9A
:10D570000846012502E0FDF7DFFD6D1C0599884294
:10D58000F9DA0698A84200D90546002C04D0002EEE
:10D5900001DB780700D5641EB80702D5069800287D
:10D5A00010D0F8070ED1002C0CD0A5420AD22021B1
:10D5B000641E039800F0A4F80398C0680028F2DA0B
:10D5C00007B0F0BD0398C0680028F9DB002E02DA2E
:10D5D0002D21009E02E0780707D52B21039800F04B
:10D5E0008FF80398C0680028EADBB807800F02288C
:10D5F00010D1069800280DD1002C0BD0A54209D2DD
:10D600003021641E039800F07BF80398C06800285E
:10D61000F2DAD5E7019700943146069B059A039804
:10D6200000F002F8CCE70000FFB581B001261F46EC
:10D6300034460A9D029802E0FDF768FD641C0399D8
:10D640008842F9D2A74200D93C460B98C00718D1AE
:10D65000002D16D00B98800701D5002F02D0202076
:10D6600000900CE03020FBE76D1E0099019800F05F
:10D6700047F80198C06800283DDB002D01D0AC427E
:10D68000F2D30198C068002835DB012F01D97F1E35
:10D6900006E031460298FDF739FD0399884202D32E
:10D6A00003984643F1E7154F31460298FDF72EFDEA
:10D6B0000146029A7143511A0291395C019800F0B7
:10D6C0001FF80198C068002805DB30460399FDF774
:10D6D0001DFD0600E8D10B98C0070CD0002D0AD024
:10D6E000AC4208D220216D1E019800F009F8019883
:10D6F000C0680028F2DA05B0F0BD000000050200A5
:10D7000010B5044680686368421C934205D32368C1
:10D710001954A260E068401CE060A2686068824220
:10D7200009D121682069FFF799FBA168884203D0DD
:10D730000020C043E06010BD0020A06010BDF7B520
:10D74000064682B000200090F46817463069A04277
:10D7500001D9051B02E0B168201A0D1AB0686D1ED0
:10D76000001BA84200D80546BD4200D33D46706864
:10D770002A4600190399FDF7F3FC00987F1B401916
:10D7800000900398641940190390B068A04200D13A
:10D790000024F460002FD9D1009805B0F0BDF7B592
:10D7A000C668174604468068851B6068BD4206D976
:10D7B00080190199FDF7D4FCF019E060FEBD2A46FE
:10D7C00080190199FDF7CCFC01987E1B4119324666
:10D7D0006068FDF7C5FCE660FEBD30B47446641EAB
:10D7E0002578641CAB4200D21D46635D5B00E318E4
:10D7F00030BC184702E008C8121F08C1002AFAD13D
:10D8000070477047002001E001C1121F002AFBD1C0
:10D8100070470000202804DA0121814003480142BA
:10D8200001D001207047002070470000FC06FFBCBB
:10D83000F7B584B006460025178815802030029081
:10D84000407B1446002806D03A462146059800F051
:10D8500023FD050009D1B078002823D0059886461D
:10D860002088001DB84202D90C2007B0F0BD6846E0
:10D8700079DF0028F9D1218803207246505420888E
:10D880001921401C80B22080115420887146401C10
:10D8900080B2208041186846008802F01AFD218875
:10D8A00040182080F078002817D0218803230A46EA
:10D8B000F356C91C0598B942D6D802218154218853
:10D8C0000122491C89B2218042542188491C89B215
:10D8D000218043542088401C20807068002817D085
:10D8E00021880023C3560A46C91C0598B942BBD8F3
:10D8F0000221815421880A22491C89B22180425484
:10D900002188491C89B2218043542088401C2080F2
:10D91000308900280AD0009430460197062202215F
:10D920000830059B02F022FD05009ED1308A0028B8
:10D930000AD0009430460197072203211030059B3E
:10D9400002F014FD050090D1308B00280AD000941D
:10D9500030460197152214211830059B02F006FD70
:10D96000050082D1306A002806D03B462246059940
:10D9700001F020F80500D8D1706A002806D03B4697
:10D980002246059901F06CFB0500CED10298007B80
:10D99000002807D03B4622463046059902F0FEF9A2
:10D9A0000500C2D13078002807D03B4622463046D9
:10D9B000059901F00BFC0500B7D1284655E700009A
:10D9C000174A0021535C002B01D0012203E0491CBF
:10D9D0000629F7D300221349012806D002280BD0CC
:10D9E000032810D0042818D112E04878002803D06A
:10D9F000002A01D0012070478878002803D0002A2F
:10DA000001D002207047C878002801D00320704759
:10DA10000879002801D004207047002070470000DA
:10DA20001D20002090220020F0B5B3B03C2101A8B9
:10DA3000FDF7AFFB022768460771002585710621B7
:10DA4000C1713C2110A8FDF7A4FB012610A8068295
:10DA50002548159020211FA8FDF79BFB18A8C67725
:10DA6000192080012390142124952AA8FDF791FB09
:10DA70002AAC2FA871DF00202FAA31A905231B1A79
:10DA80009B185B780B54401C0628F7DBF6202070AF
:10DA9000CB2060709A20A0703B20E07026716671E8
:10DAA000A6710820E07125726572A520A07220463B
:10DAB000E77206220C30FDF753FB592120A8818321
:10DAC0002AA82990122120A8018427A8009519903E
:10DAD000064B1FAA10A901A800F060F9002801D088
:10DAE00000F040F833B0F0BDEC1F002091F90100C8
:10DAF00010B509490020087048708870C0318875D9
:10DB000008468030017C0122114301741146052032
:10DB100002F0E2F910BD00000C2C002009A1012048
:10DB200001F044FE01F096FD01F09AFD0028FBD1C2
:10DB300000BEBFF34F8F0A490848C860BFF34F8F3C
:10DB400000BFFDE74150505F4552524F523A455297
:10DB5000524F523A466174616C0D0A000400FA0596
:10DB600000ED00E00EB50021029000916A4601919F
:10DB70000148FFF7D3FF0EBD01400000094B5B6871
:10DB8000002B07D0002A07D0002805D00068037CAE
:10DB9000002B03D008207047072070474174426172
:10DBA000002070475C200020FFB507469007002545
:10DBB00081B01E461446002825D1002C23D002F047
:10DBC00037F83046114EF060304610300570457021
:10DBD0000299817044607560357001240C4875703D
:10DBE0002405046003211420FEF718FE0948046090
:10DBF000094CA76003211120FEF710FE6068B06099
:10DC0000002005B0F0BD0720FBE700004C200020FD
:10DC100080E200E000E100E000150140FEB51F4B8E
:10DC20005B68002B30D000282ED0052901D20720B8
:10DC3000FEBD4369002B27D0437C012B26D0002753
:10DC4000029104460025694616460D70684600F0AC
:10DC50003DF801A802F074FB002819D001210170E1
:10DC60000F49446049688160029907614661C1605B
:10DC700068460A49007948706846007800F044F820
:10DC800002F05AFA2846FEBD0820FEBD0F46D7E72F
:10DC900068460425007800F037F8F3E75C200020A0
:10DCA0000015014010B50849496800290AD000282C
:10DCB00008D04169002905D000210174022102F039
:10DCC00063FA10BD082010BD5C20002030B5EFF3D2
:10DCD000108172B6094A54680123002C04D00370E5
:10DCE000002900D162B630BD5360054B1D68054C5C
:10DCF000254015601C6000220270F1E770200020B2
:10DD000080E100E0FC06FFBC08494A68002A0CD00C
:10DD100000280AD1EFF3108072B60A68044B1A602B
:10DD200000224A60002800D162B6704770200020AF
:10DD300000E100E0F0B50C4693B01F216A46118067
:10DD4000072600279180002809D0C17849070DD502
:10DD500002A9FFF76DFD002809D102AD01E0002501
:10DD60001780002C0ED0E078002802D0304613B087
:10DD7000F0BD01AA0AA92046FFF75AFD0028F6D1F6
:10DD80000AAA02E068460022878068468088C3B2FB
:10DD900068460088C1B2284672DFE8E7FFB581B067
:10DDA0001E460A9F1346040047D0002B45D0504D15
:10DDB000012028700020E870202219464D48FDF708
:10DDC000CFF900206F61C0432E61288128460721CA
:10DDD0001830FDF7DEF947483C212030FDF7D9F92E
:10DDE0004448217820300170A1788170E178C170B9
:10DDF000617841703F4A6569236955631146136331
:10DE00002031E368A268CB608A603A49E369A2697D
:10DE1000CB638A63616A00291AD001463C3102460D
:10DE2000483241628A60636A1B880B80616A436A78
:10DE3000898899800021436A07E00E2005B0F0BD73
:10DE4000656AAD686D5C5554491C9D888D42F7D854
:10DE5000A16A00291CD0274A943211460C398A60E5
:10DE60008162A36A9B888B80A16A836A0988198072
:10DE70000021836A04E0A56AAD686D5C5554491CB5
:10DE80009D888D42F7D82C210A5D1A4940310A73CA
:10DE9000216A002909D016490A310162226A528892
:10DEA0004A80216A026A098811806168002900D0CD
:10DEB0004160104A0E490020B3322031C3001B1AC2
:10DEC00085009B180C68401C63510828F6DB094A42
:10DED0000020EB32030185009B188C68401C6351C5
:10DEE0000828F7DB034802992030FFF723FFA5E756
:10DEF000042000209022002010B50188134C102926
:10DF000015D0112919D01B2910D1007A00280DD164
:10DF1000E0780521401CFDF7F9F8084600F018F8F4
:10DF2000002803D06169002900D0884710BD817D99
:10DF30000129FBD18088208110BD0021617180887A
:10DF400021898842F8D10120E8E700000420002060
:10DF5000F1B53F4C88B0207800280AD00898E070CE
:10DF600006A800F0C5FD06980125002804D06570BC
:10DF70006AE0082009B0F0BD3548002707211830B5
:10DF8000FDF707F9334E7078002802D0E0780128B9
:10DF900007D0B07800280CD0E078012801D0022802
:10DFA00007D12169002903D025710820884700E0A6
:10DFB00027710898FFF704FDE0702169002909D056
:10DFC000032801D0042805D13078002802D06079D8
:10DFD000002811D0A77118216846FDF7DAF86846C5
:10DFE00007700772E1781A480B001830FFF7F5FB4D
:10DFF000052E080F191D2000A57107208847EAE7A4
:10E00000A5700190684605704782078213E00221DF
:10E01000A170019068460570B18941823189018201
:10E0200009E0684601F002FF02E0684601F02AFFBD
:10E03000E078002803D0684673DF00289AD1216970
:10E04000002901D0A0788847002093E7A770F6E761
:10E05000042000209022002070B50D4604461300D5
:10E06000FFF7BBFB050415263748140002462AA11A
:10E070000020FEF73FFF002606E0AB5D32462DA1F3
:10E080000020FEF737FF761CA642F6DB70BD024685
:10E090002CA10020FEF72EFF002606E0AB5D3246E5
:10E0A00024A10020FEF726FF761CA642F6DB70BDF9
:10E0B00002462CA10020FEF71DFF002606E0AB5D06
:10E0C00032461CA10020FEF715FF761CA642F6DBA7
:10E0D00070BD02462BA10020FEF70CFF002606E0D3
:10E0E000AB5D324613A10020FEF704FF761CA6426A
:10E0F000F6DB70BD024629A10020FEF7FBFE0026DC
:10E1000006E0AB5D32460BA10020FEF7F3FE761C65
:10E11000A642F6DB70BD00006F726967696E616CC4
:10E120002064617461206C656E677468203D2025F1
:10E13000640D0A005B25645D203D20307825303277
:10E14000580D0A006461746120656E6372797074A1
:10E150002064617461206C656E677468203D2025C1
:10E16000640D0A0063726320636865636B206461F9
:10E170007461206C656E677468203D2025640D0A0B
:10E18000000000006165732064617461206C656E3D
:10E19000677468203D2025640D0A000073656E6475
:10E1A0002064617461206C656E677468203D202571
:10E1B000640D0A0070B5054601461C220E48FCF7A6
:10E1C000CFFF0E4C002626702968002906D00822B1
:10E1D000201DFCF7C5FF201D7ADF02E00748001D67
:10E1E0007BDF002807D1401E60806670044A002152
:10E1F0000448FFF7C3FC70BD5C24002034200020DD
:10E20000DD020200AC040200F8B5214C0146028890
:10E2100000261E48E589102A13D01E4F112A1FD050
:10E22000122A2BD0502A1AD1881DC988A94216D18A
:10E230004189022913D10C3000F0FEF800280CD1DE
:10E2400012E08A8804464280104808220C301831B7
:10E25000FCF786FF6670002D01D100F0F3FBF8BDDE
:10E260000021C943418046703868FFF71BFD002834
:10E27000F5D0A1690029F2D08847F8BD03480822EB
:10E280000C300831FCF76CFFE7E700003420002079
:10E290005C240020AC0402007CB5054608880C46CE
:10E2A0000930904201D90C207CBD684671DF0028FE
:10E2B000FAD121880820685420881B21401C80B294
:10E2C00020802954208800A9401C80B22080401959
:10E2D00006220131FCF744FF20886946801D80B288
:10E2E00020800978002900D0012129542088401C71
:10E2F000208000207CBD000010B50446FFF784FF9D
:10E300002146054800F040F8204601F051FB204628
:10E31000FFF7F2FD10BD00000822002030B5184BB9
:10E320000D4604000FCB85B003936B4607C324D082
:10E33000002D22D00020C043A0822868A0610020C8
:10E34000A0752146684663DF002814D10121684684
:10E3500081740C490182A21C04A90120A0DF0028BD
:10E3600009D12946204601F085FC002803D1294621
:10E37000204601F06DFF05B030BD0E20FBE7000028
:10E38000B00402001019000010B500281BD00029AD
:10E3900019D00A88102A17D0112A17D0502A12D162
:10E3A00004468A1DC888238A1231984202D15389B3
:10E3B000022B0FD0A388984205D1A369002B02D06D
:10E3C00052892046984710BD898801E00021C94341
:10E3D000818210BD084600F02FF8002800D00120EF
:10E3E000A07510BD07B584B000280DD0828A114BEE
:10E3F0009A420BD0827D002A08D06A46128B142ADA
:10E4000006D9072007B000BD0E20FBE70820F9E77A
:10E410000022009201920292039282896B461A8036
:10E42000039106A9029101219970808A6946A6DFAD
:10E43000E8E70000FFFF000041780278080210437F
:10E44000C007C00F7047000070B50F4C154620780C
:10E450004219802A07D80D4A10182A46FCF780FE78
:10E46000207840192070C1B265700848FEF700FF9F
:10E47000012808D1002205492078FFF7EDFD002191
:10E48000042001F029FD70BDE0200020A02F002015
:10E4900070B50C46054607E0142229460648FFF7EA
:10E4A000A1FF143CA4B21435142CF5D822462946F9
:10E4B0000148FFF797FF70BD0822002005490B5C5B
:10E4C00005494A6801209840034693438B601040F9
:10E4D000C8607047780402000005005010B5034979
:10E4E000085C012101F072F810BD00007804020000
:10E4F00010B50349085C002101F068F810BD000068
:10E50000780402000549095C05484068C840C00716
:10E51000C00F00D00120012148407047780402005C
:10E520000005005010B500242046FFF7D7FF641CFB
:10E53000042CF9D310BD10B500242046FFF7D8FFF6
:10E54000641C042CF9D310BD0246002010B5C04352
:10E55000054B00215C5C944201D1084610BD491C6A
:10E560000429F7D310BD00007C040200F3B581B08C
:10E570000D460198FFF7E8FF0446042813D21D4812
:10E580001D4F1E4E002D27D0012D0DD0022D0AD17A
:10E5900060002018C0194578002D04D0F1680029CA
:10E5A00001D028468847FEBD610061187D5CCF1907
:10E5B000797800290BD071680A2251430F4A80688C
:10E5C000921CFFF72BFB002801D10198B0700B487B
:10E5D000B97810300155DFE78068FFF763FB074823
:10E5E000610061181030C919005D8D78A842D3D040
:10E5F000FEBD00008004020064220020F01F002005
:10E6000010B5054A0146127A0020D20702D008460A
:10E6100000F018F810BD0000F01F0020FF20024994
:10E620000130C860704700000005005004494A6886
:10E63000FF200130034693438B601040C860704751
:10E6400000050050F8B55D4C0546607800260028AE
:10E6500003D000206070FFF765FF0120584F2B00AA
:10E66000FFF7BBF818970D0D2E3D4A5F64686F6881
:10E670006FA97777777777979A9DA0A9A9950020BA
:10E68000FFF740FF00280AD00020FFF727FF022DE8
:10E6900002D1E120C0000BE07D20400108E0002015
:10E6A000FFF726FF022D01D1C82001E0FF209130A5
:10E6B00025706421FCF72AFD6168414300222BE0AC
:10E6C0000020FFF71FFF002805D00020FFF706FFFE
:10E6D00019204001ECE70020FFF70AFFE4E70020E3
:10E6E000FFF710FF002803D00020FFF7F7FED3E765
:10E6F0000020FFF7FDFED9E70020FFF703FF002809
:10E7000003D00020FFF7EAFE02E00020FFF7F0FE52
:10E7100025706068410000223868FFF77FFA0646DE
:10E7200035E00020FFF7CAFE257007E000203FE03B
:10E7300025702CE060700120FFF7C0FE00226168A8
:10E74000EAE760700120FFF7B9FE606881004118B8
:10E75000E1E77868FFF7A6FA06461120401B01D0D2
:10E76000002E03D00220FFF7B9FE10E001280BD9DC
:10E77000C82148436421FCF7C9FC61680022414379
:10E780007868FFF74BFA06460220FFF7B1FE3046E5
:10E79000F8BDFFF7C7FECBE7FFF7C4FEC6E7FFF7FC
:10E7A000C1FE04E0FFF7BEFE0020FFF7A1FE01203E
:10E7B000FFF79EFEBCE7FFF7BEFEB9E7F01F0020A3
:10E7C0008004020010B5FDF7F1FF0020044A014665
:10E7D0001154401CC0B20828FAD30248017010BD81
:10E7E0001921002018210020F8B50D46461C0020F4
:10E7F0006946087001246846FFF768FA134A1068F2
:10E800002860116850689368081A1D1A701C6D1CE6
:10E81000A84212D9002D0ED00D480E4C0088246855
:10E8200080051940800DA402890020438918C86022
:10E830001068401C1060002401E0881910606846D0
:10E840000078FFF761FA2046F8BD00006C25002033
:10E85000DC0402007C200020034803C8814201D16F
:10E8600001207047002070476C2500200022D24311
:10E87000830004490428CA5002D3081820300277C4
:10E88000704700008C2400200249091820200856F7
:10E89000704700008C24002030B5084C0122235C16
:10E8A00015468D40AB43235401D0002030BD82403B
:10E8B0000348017891430170012030BD19210020E7
:10E8C0001821002070B5084C050009D010342168CB
:10E8D000002907D008682060496828468847F6E77D
:10E8E0000834F4E770BD00007824002010B500F073
:10E8F0000BF900F047F9FFF765FF01F0C3FB00F0EB
:10E90000D5F8FFF7F5F8012010BD0000F8B5234851
:10E91000416800293ED00E6821494C68876880789C
:10E92000E11B0D022D0AED1C002814D101201D4A07
:10E93000000450601B4A403A50601B494000086088
:10E940001A4908601A49012008602F2000F09EFC37
:10E95000124901208870B54200D23546E8190002FC
:10E960000F4B000A403318600D4A5168001B091B09
:10E970000902090A0002000AC91C814209D950682B
:10E9800018602F2000F082FC0120074940048039E4
:10E990000860F8BD01F04CF9F8BD00004C200020E3
:10E9A000001501404013014080E200E000E100E07A
:10E9B00000100140F8B50646108814468446801DB4
:10E9C0000D46984201D90C20F8BD32880720062A4E
:10E9D000FAD31927FF01184BBA4201D99A42F3D151
:10E9E00071880629F0D3B94201D99942ECD19A42F3
:10E9F00003D0994201D08A42E6D8052160462954C5
:10EA000020881221401C80B2208029542088401C7C
:10EA100080B220804119308801F05BFC21884018C9
:10EA200080B220804119708801F053FC2188401881
:10EA300020800020F8BD0000FFFF000010B5FFF7A8
:10EA400091F810BDF8B5164800F0FCF8144D0026FA
:10EA50000C3D144C002807D0616900291CD001200E
:10EA60006A461070684616E02878002805D061696B
:10EA7000002911D0684606700DE0687800280DD096
:10EA8000A168094800220068FFF7C8F8002803D0F1
:10EA9000A169002900D088472E70F8BD6168F0E7B1
:10EAA000402000205C240020AC04020070470000DD
:10EAB00010B50E4900230A784C78A24212D0521C9D
:10EAC000D2B20A70022A00D10B700A78074B92006A
:10EAD00018339A580260886810180002000A88608B
:10EAE000012010BD0360002010BD00004C2000205C
:10EAF000002804D00349496E0160002070470320BC
:10EB0000704700000425002010B500F05DFC0820CF
:10EB100000F031FDFF201A490130886000210120FA
:10EB200000F020FD022000F026FD022000F03EFD56
:10EB30000021042000F016FD042000F01CFD04203C
:10EB400000F034FD052000F016FD052000F02EFD3C
:10EB50000021062000F006FD072000F00CFD072034
:10EB600000F024FD032000F006FD032000F01EFD50
:10EB7000092000F000FD092000F018FD10BD000084
:10EB80000005005010B500F005F801F07DFA00F026
:10EB9000E1FA10BD10B5054A01210548FEF7EEFF68
:10EBA000002801D0FEF7DEFF10BD000011EE0100CD
:10EBB000080802000248002141708170C17070474E
:10EBC000E8200020F8B51E4C2078002836D0E068F8
:10EBD000002600280CD00025607800282ED1684639
:10EBE00052DF052806D0002806D0FEF7BBFF0BE059
:10EBF0000125F1E7012607E0009800F09DFB21695F
:10EC0000002901D000988847002D13D16078002892
:10EC100014D1608869460880A06861DF052804D0A7
:10EC2000002804D0FEF79EFF04E0012502E0E16821
:10EC3000A0688847002ECFD0002DE5D0F8BD000099
:10EC400080200020418805480288914204D34088F2
:10EC5000814201D8012070470020704738200020F1
:10EC60001048018CC9B2012917D1818C090714D130
:10EC7000018D09060A0F03D1828D1206120F0ED0E4
:10EC8000090F012903D1828D1206120F07D0032923
:10EC900003D1808D0006000F01D0002070470120B5
:10ECA00070470000C00F00F0F0B5284C2146103925
:10ECB00048688B68227886469C46CF78667836E02E
:10ECC000182353436168521CC918A378D2B29342E7
:10ECD00000D100220B78022B02D0032B27D123E096
:10ECE00003464D68194603E0A94204D00B46C969A2
:10ECF00000291CD0F8E7002919D08B4208D1C0693F
:10ED0000002805D1124F0125BD600025AC46012722
:10ED10000D68C969D961002909D00B685B190B60BE
:10ED200005E00174C06900E000210028F9D1964295
:10ED3000C6D10649624610398A604860CF70704576
:10ED400001D00120F0BD0020F0BD00005C200020BB
:10ED500000100140F8B52C4E044670680025009064
:10ED600041E0002C02D02046E46920E02648182328
:10ED70001030017842684B43491CC9B2D218017067
:10ED80008378994200D105701178506801292CD1FF
:10ED9000017C002929D191684160D16881601169A5
:10EDA000C16051698161F178002900D045604368F4
:10EDB000B268164F991A0902090AB94202D282684A
:10EDC000891806E0D11A09028268090A8A4202D922
:10EDD000511A016000E00560456001218560017401
:10EDE000C56101F0B1F9002CBBD1074810300178A2
:10EDF00040788142BAD171680098814201D00120E7
:10EE0000F8BD0020F8BD00004C200020FFFF7F006F
:10EE100070B5294C2088401C20800A20FDF74EF850
:10EE20000A20FDF76BF82088642844D30026234D80
:10EE300026802878224CC10615D5A178491CA170DE
:10EE4000A17802290FD3A670EF21084028701D4831
:10EE500001781D48012902D0022902D003E00221D5
:10EE600000E0012101702878C10701D1810713D585
:10EE7000E188491CE180E188B4290DD3E680C00710
:10EE800003D00021062001F027F82878800703D559
:10EE90000121062001F020F8287801070BD52189EF
:10EEA000491C21812189E1221201914203D326814B
:10EEB000F7210840287070BDB6200020B420002043
:10EEC000802F0020F1200020F0200020002388B0B7
:10EED000504A05211846FEF767FE002801D0FEF7CC
:10EEE00041FEFDF7B1FF4CA10020FEF703F84E48AC
:10EEF000484900680590002348225C3905A801F0C4
:10EF00007FF8002801D0FEF72DFE6A46012100207F
:10EF100001F05EF8002801D0FEF724FE684601F0FB
:10EF200005F8002801D0FEF71DFE404800F0F4FF70
:10EF3000002801D0FEF716FE11206946087207224C
:10EF40003BA102A87CDF002801D0FEF70BFE0024C5
:10EF5000009410216846019401803C214180FF21EA
:10EF600084809131C1807ADF002801D0FEF7FAFD5C
:10EF700031482849009001207831087025486946B9
:10EF80007830FFF7CBF9002801D0FEF7EBFDFEF754
:10EF90004BFD1C216846FCF7FCF80520C0030190DE
:10EFA0000F20000402900094032168460173C4817D
:10EFB000047422480590224806906846FFF7FAF844
:10EFC000002801D0FEF7CEFD002000F02BFA00282B
:10EFD00001D0FEF7C7FD0320FEF7BAFF002801D0DD
:10EFE000FEF7C0FD17A10020FDF784FFFFF77EFCB0
:10EFF000184C194D194E03E0285C81007158884760
:10F0000020780028F8D148DF0028F9D0FEF7AAFDC3
:10F01000F6E70000902100204D61696E2053746175
:10F020007274210D0A00000074040200F9E201006C
:10F03000414E47554D454E0049E4010081FA01001B
:10F040003DEA0100416476205374617274210D0A17
:10F0500000000000182100200C080200F820002009
:10F0600070B5144682880E4605462088111D411849
:10F07000921C994201D8FE2A01D90C2070BD521C65
:10F0800032542088FF21401C80B2208031542088D7
:10F09000401C80B220808119288801F01AF921884B
:10F0A000401880B22080AA88002A09D0A9680029C7
:10F0B00008D08019FCF754F82088A98840182080CF
:10F0C000002070BD072070BD02461F20012907D017
:10F0D000062901D9491EC9B2C90700D01E207047B0
:10F0E0001C32D0B270470000F3B581B00E0029D0B9
:10F0F00015490878002825D0FF20144C1D30002227
:10F1000022500127A760154619E00F4A1078002801
:10F1100017D0FF211D31002060500198435D0C483D
:10F12000C36103E008480078002806D0FF211D31A4
:10F13000204600F020FC0028F4D06D1CEDB2B54252
:10F14000E3D3E760FEBD0000E8200020002000407F
:10F1500000250040F8B5174F3878002828D1FFF770
:10F1600029FD174E1448154D70620024F4660720DF
:10F1700006217161F060FF201D302C501149802064
:10F180008860FF2009302C50FF2045302C500E485D
:10F1900048600321022000F0D5F8FF2025302C50D4
:10F1A000FF2009302C500120387004213160286084
:10F1B000F8BD0000E820002000502700002000409B
:10F1C000002500400023004004000200F8B50F466F
:10F1D000017814460546012902D16878002806D036
:10F1E0002088821C9A422DD8012902D006E00720EF
:10F1F000F8BD69784118891C994223D8181A801ED5
:10F2000086B2684606802188B81C081869467DDFEA
:10F210000028EDD12878022805D169460988B14235
:10F2200001D809210AE00821012805D16878B042F7
:10F2300002D86A46108001E0684606806846008869
:10F24000FE2801D90C20F8BD2288401CB854208823
:10F25000401C80B22080395420886946401C2080A0
:10F260000988401820800020F8BDC20843075B0FC2
:10F270000120895C984008407047012189074018A7
:10F280000068002800D001207047000000280FD03F
:10F290000849094A096800BF00BF00BF00BF00BF9E
:10F2A00000BF00BF00BF914200D000BF0138F2D1C3
:10F2B00070470000302100200024F40070B50E4C8F
:10F2C00000252078002801D0852513E00021A160C9
:10F2D00061602161E160094800680126304002D187
:10F2E000032100F02FF800F0C7FE002801D10448E8
:10F2F00086612670284670BD7824002000E100E079
:10F300000005004038B50020694608706846FEF7E1
:10F31000DDFC084C2078002801D1FFF7CFFFE06822
:10F32000401CE0600120A07068460078FEF7ECFC0D
:10F3300038BD00007824002010B5002801D1FFF767
:10F34000C1FA10BD8207D30EFF229A408907090E29
:10F3500010B5994000280BDA03071B0F083B9C08E7
:10F360000C4BA400E318DC6994430C43DC6107E018
:10F370008408094BA400E418236893430B432360DB
:10F38000C106C90E0120884004490860044908608C
:10F3900010BD000000ED00E000E400E080E200E0CD
:10F3A00000E100E04109074A890089180968C2069E
:10F3B000D20E01209040014201D001207047002070
:10F3C0007047000000E100E070B5144D2879002876
:10F3D00001D0082070BD114900204039421E0B1891
:10F3E0002033401CC0B21A702028F8D300242046D5
:10F3F000FFF73CFA641CE4B2082CF8D30321062082
:10F40000FFF7A0FFFF207D3000F000F90120044944
:10F41000C007486001202871002070BDCC24002066
:10F420000063004038B5124C2178002901D08520B6
:10F4300038BD002800D10F480D4902784A70407845
:10F4400088700020694608706846FEF73FFC00F0AF
:10F4500013FE002803D100F03DF800F055F868468F
:10F460000078FEF751FC01202070002038BD00001C
:10F4700048200020C4040200F3B5144E81B00F46AA
:10F48000002568460570FEF721FC00F0F5FD002818
:10F490000BD068460078FEF737FC394601983ADF12
:10F4A0000446B0420DD105240DE03A4608480199C2
:10F4B00000F040FA044600F027F868460078FEF7AE
:10F4C00023FC022CDDD02046FEBD000007200000FA
:10F4D000C804020010B509484178002904D0084941
:10F4E0004A6801231A434A6006490A6852085200D2
:10F4F0000A6081780D20FFF725FF10BD482000200D
:10F5000000D5004000D20040054A002003491060A9
:10F51000044A0120506008607047000000D000409D
:10F5200000D1004000D30040024901208860024918
:10F530000860704700D3004004D0004070B552000E
:10F540000A439900049D0A432902059E0A43310497
:10F5500005240A43240780000721001909024018E6
:10F56000026070BD1CB500220B460092114601924C
:10F57000FFF7E4FF1CBD1CB5002100910B460122E2
:10F5800001911146FFF7DAFF1CBD0522120780002A
:10F590008218072000021018026803231B049A43F4
:10F5A0000260026809040A43026070470121814039
:10F5B0000148C160704700000005005001218140F2
:10F5C0000148C160704700000005005001228240E0
:10F5D0000348002901D082607047C2607047000074
:10F5E0000005005038B5084B05241B680093240221
:10F5F0006B46411805E085005D592D192D69401CA9
:10F6000020C28142F7D838BDC00402000249401828
:10F61000002101607047000000600040034940186D
:10F620000068012800D00020704700000060004002
:10F6300070B5074D04462878002802D068788442C7
:10F6400004D0FDF701FC012028706C70002070BD13
:10F650007820002010B50120FFF7EAFF10BD000060
:10F66000F0B595B0FFF7F8F8002802D0002015B0EB
:10F67000F0BD4B484468866821463140890009182E
:10F680000C94CD680BE02904A80D890D40180419CD
:10F6900020463040810042480C940818C568641C1C
:10F6A000A807F0D000200890A807800F3D4B022843
:10F6B00007D0AA0AA805000F84460EA99646002086
:10F6C00059E02046304081003548641C0818C06865
:10F6D000049486462804800D84463440301B800004
:10F6E000AF0D001D874222D92D490C31002807D0CB
:10F6F0002B4AA400A21814460C34C2B2381A03E0F4
:10F700000C460021FAB20846C0B203900192029161
:10F710000094A8065C69400F634672460899A047AA
:10F72000B84213D1FF1C0498B9080C1830E01C48EB
:10F73000A200101800210C30009002910197039153
:10F74000A8065C69400F63467246E8E716498005E3
:10F750000D40000C05430C983040810010480818FB
:10F76000C56017E027463740BA000D4F401CD71937
:10F77000FF68641C80C167466045F3D3A806009704
:10F780001D69400F0EAB72460899A847002801D0AA
:10F7900003484460FFF760F80121484067E7000034
:10F7A0006C2500206C2900203F00FFFFF8B5104DAC
:10F7B0000E46074600206946AC68FFF715F800289A
:10F7C00015D00C483C21808888437907890E08436E
:10F7D0000F21890188438105890DB00201430098FA
:10F7E0000246224092005219401CD1600090F8BDA0
:10F7F0006C250020DC040200F7B5154C82B00E46E3
:10F80000074601206946A568FEF7EEFF00281CD0D8
:10F8100010483C21008988437907890E08430F214D
:10F8200089018843402108438105890DB0020143C5
:10F83000009802462A4092001219D160401C0090A4
:10F840002840800000190499C16005B0F0BD000097
:10F850006C250020DC040200016880684A6882424E
:10F8600001D2521C00E000220868824201D101202E
:10F870007047002070478068884201D9481C704753
:10F8800000207047FEB504460E46002069460190F0
:10F8900008706846FEF71AFA2046FFF7DDFF0700FA
:10F8A0000AD0207C002807D0042001906846007808
:10F8B000FEF72AFA0198FEBD2068416820460D46F1
:10F8C000FFF7D9FF2168002F486006D02068016843
:10F8D0002046FFF7D0FF21680860E268012A15D0B2
:10F8E000022A17D0042A1AD0082A1DD010466168AF
:10F8F000684308183146FBF733FC204600F084F9D2
:10F9000021688A688242D1D28860CFE76168307806
:10F910004855F2E7616830886A008852EDE761680F
:10F920003068AA008850E8E7626803CEEB00D2187E
:10F9300003C2E2E7F8B5002415460E460746002A42
:10F9400010D00020694608706846FEF7BFF93846B7
:10F9500000F05AF9A84207D32A463146384600F04B
:10F9600023F902E00020F8BD052468460078FEF780
:10F97000CBF92046F8BD4058002800D00120704740
:10F980000322120280184068084000D0012070470E
:10F9900010B5002809D0032806D10220FEF730FE5A
:10F9A000002801D0FEF7DEF810BD00F0A7FA10BD68
:10F9B00070B50446314D00886E8888B03A2838D03A
:10F9C0000DDC022839D0102813D011281AD01328A2
:10F9D00022D100231A46852130467FDF26E05128B8
:10F9E0002FD052281DD0552816D1A088132176DF9C
:10F9F0001CE00720FEF704FE002801D0FEF7B2F855
:10FA0000A08808E00020FEF7FBFD002801D0FEF7EB
:10FA1000A9F80020C043688008B070BDFEF7A2F8C6
:10FA2000FAE700231A4619463046A9DF0028F5D127
:10FA3000F2E7A088132176DFF8E7A088002167DFCE
:10FA4000F4E71022A11D04A8FBF78AFB6846017C9D
:10FA50000029E1D0007E042803D0062801D0052823
:10FA6000DAD1022908D0012069460870FF208330CE
:10FA70008880A088A8DFD9E70220F5E7E81F0020EA
:10FA800010B50078002807D104483B21408876DF74
:10FA9000002801D0FEF766F810BD0000E81F002026
:10FAA000F8B50A4604463F491046FBF72FFB0D46C2
:10FAB00006463C212846FBF729FB2170E12109017C
:10FAC0002846FBF723FB054608463C21FBF71EFBB7
:10FAD0006070A5707D200001B5B2E0800FE0002FBE
:10FAE00026D064213046FBF711FB002901D0B00776
:10FAF0001ED0FF206E30281A761C85B2E680E08882
:10FB0000FF2106469131FBF701FB0F0013D0642162
:10FB10003046FBF7FBFA002901D0B0070BD0FF20DD
:10FB20006E30A842DBD90020FF27207191371DE0FD
:10FB3000FF206F30DFE7FF206F30F2E7E0883946C3
:10FB40000646FBF7E3FA002927D064213046FBF78D
:10FB5000DDFA002901D0B0071FD000202179FFF77E
:10FB6000B3FA281A85B22079401C2071E088394602
:10FB70000646FBF7CBFA002911D064213046FBF78B
:10FB8000C5FA002901D0B00709D000202179FFF77C
:10FB90009BFAA842D2D9E570F8BD0120DEE701202A
:10FBA000F4E7000080510100F7B50168044603C97D
:10FBB0001646884201D80D1A02E0A1680D1A6D1C84
:10FBC000E268616850434118AE420CD87243019814
:10FBD000FBF7C6FA2168A26808688019904200D92C
:10FBE00000200860FEBD17466F433A460198FBF7B8
:10FBF000B7FAE2680198751B6A436168C019FBF7A0
:10FC0000AFFA20680560FEBD016806C98A4201D3CB
:10FC1000501A70478068401A401C801870470122B3
:10FC200052075110886B496B414388187047000098
:10FC300070B501240B49600408600B4940108860CE
:10FC4000094940398860094D6C602F20FFF71EFB81
:10FC5000AC60074D00242F20AC60FFF717FBAC70A1
:10FC600070BD000080E100E0401301400010014041
:10FC70004C200020F0B500240546601C01078FB021
:10FC8000090F08A8103108940170601C0107090FC2
:10FC900008A8103141708178F9273940891C81709A
:10FCA0001C2101A8FBF775FA684601791020014371
:10FCB00068460171029408A80494059401260794EB
:10FCC000069086710B21C943684681843146103104
:10FCD000009401703146103141708178F72039402D
:10FCE000891C0140EF200140314368468170142196
:10FCF0000AA8FBF74EFA09A80A9068460B900686F8
:10FD00001421448681862B4668880C330AAA01A9EF
:10FD1000A2DF0FB0F0BD000010B50446FDF77AFD7C
:10FD200000280CD0A007C00E002C0ADA2107090F0A
:10FD300008398908144A89008918C96906E01348F6
:10FD400010BDA108124A890089180968C140080637
:10FD5000800F042811D200280FD002280DD00D49A1
:10FD60004B68E206D20E01209040002B08D06209B9
:10FD700092008B5803438B5004E00448401C10BD94
:10FD800005490860002010BD00ED00E001200000E2
:10FD900000E400E07020002000E100E0FFB507462D
:10FDA000806A81B0144600283DD0002538462030B6
:10FDB000009033E00C20B96A68430E18B088801CAC
:10FDC000FE2802D90C2005B0F0BD22880299401C03
:10FDD000885420881622401C80B2208002990A5440
:10FDE0002088401C80B2208002994118308800F0A1
:10FDF00070FA2188401880B22080B288002A0AD088
:10FE0000B16800290FD0029BC018FBF7A9F9208820
:10FE1000B188401820806D1C0098EDB2007BA8428C
:10FE2000C8D80020CFE70720CDE7000070B5044612
:10FE30001248134D018A2182818A6182007800284C
:10FE400018D06879002815D100F000FB002811D0E7
:10FE500028462030E060022008492072042020312A
:10FE6000C870064800212030FDF764FF002804D147
:10FE7000052000E00320A870002070BD9022002023
:10FE80000420002070B5044611480426018B21820D
:10FE9000818B618200780F4D002816D06879002888
:10FEA00013D100F0D3FA00280FD028462030E060AC
:10FEB00002202072064800212030C670FDF73AFF6C
:10FEC000002804D10620A87000E0AE70002070BDAC
:10FED000902200200420002001231A4682408B40FB
:10FEE00010B504490C7814430C7003490A5C1A439A
:10FEF0000A5410BD182100201921002010B500203F
:10FF0000FEF77EFB002801D0FDF72CFE3CDF002829
:10FF100001D0FDF727FE10BD002803D00249C860BC
:10FF2000002070470E207047802000201CB50F492C
:10FF300001910091694660DF0446009A019882426F
:10FF40000AD00B490220FFF757FCFFF768FE009923
:10FF5000421A08A1022004E0002C04D0224612A17B
:10FF60000120FFF749FC20461CBD0000E81F0020CF
:10FF7000180C02005344483A5741524E494E473AF2
:10FF800052414D2073697A652073686F756C6420E7
:10FF900062652061646A757374656420746F2030D3
:10FFA000782578200D0A00005344483A4552524FB4
:10FFB000523A73645F626C655F656E61626C653A4C
:10FFC000206572726F7220307825780D0A0000006B
:10FFD00070B50E460546144614211046FBF7D9F8B5
:10FFE0000120002120802161217326726572002D7D
:10FFF00000D0A072002070BD10B5FDF78FFD10BDC0
:020000040002F8
:10000000FFB581B0002901D0880702D0072005B0D4
:10001000F0BD164D0124A9606A8000206B60FFF7D7
:10002000C1F9060001D0124804600D20FFF7BAF9AB
:10003000070003D001200E49400308600D490198D4
:1000400010DF00280AD00A498039002F02D001228F
:1000500052030A60002EDAD00C60D8E72C70FFF74C
:1000600051F91620FFF758FED1E70000802000204C
:1000700080E100E0F9FF01000148007870470000CE
:10008000802000207047000010B5094C2068FDF763
:1000900009FE002801D0FDF765FDFF21002249314E
:1000A0002068FDF7BBFD002801D0FDF75BFD10BD0A
:1000B00008080200FEB51F4C0025A7686068029082
:1000C0006846FEF7F5FC0190FEF7EEFD0646019846
:1000D000002822D000230098616817E00E680A46C5
:1000E000864202D9301A086012E0801BF3180026FD
:1000F0001660D668D169B446002E07D0FE183602C5
:10010000360A566066469660D56115460029E5D1E7
:1001100028466160FEF71EFE06E02846FEF71AFE3E
:10012000002801D1002E02D00298FEF7EFFB00203C
:10013000E070FEBD4C20002001200249000508604F
:100140007047000000E200E010B50E4B596800292E
:1001500006D002680C68A24204D8A21A0A60C161E3
:10016000586010BD0B4604E00B46C969121B0029FC
:1001700004D00C689442F7D3A41A0C600260C161E9
:10018000D86110BD4C2000207CB50D4606460024E9
:1001900069460C706846FDF799FD01A800F0D0F89B
:1001A00000280DD0057046606846084900794870FF
:1001B00068460078FDF7A8FDFFF7BEFF20467CBD2E
:1001C000684604240078FDF79FFDF7E75C200020D7
:1001D000F8B51D4D6C68002C34D01C4800274068D1
:1001E000A968401A0602360A2068B04218D8361AA2
:1001F000C7192246107CE46900280FD00020107433
:10020000EB68002B07D0916950699847002805D00A
:10021000FDF7A8FC02E0516990698847002CE3D102
:1002200029786878814206D1401CC0B268700228E3
:1002300001D10020687004490006800D18310F506C
:10024000FFF77AFFF8BD00004C20002000150140A8
:1002500070B58EB005461C216846FAF79AFF6946CC
:1002600008780C210843694608700024019403941F
:1002700004940594012608A906948E700D20C043AD
:1002800069460884601C0007000F10300794087747
:10029000304610304877887FF9210840F721801CCC
:1002A0000840EF210840304369468877142109A8A7
:1002B000FAF76FFF08A8099007A80A9069468E858B
:1002C0001420CC85088668882B1D09AAA2DF0EB0F1
:1002D00070BD0870000A48700220704738B5154993
:1002E000154A488890420FD04A78144C521CD2B21A
:1002F0004A70237B934208D3091D75DF002803D081
:10030000A169002900D0884738BD00254D70217CA7
:10031000002907D03B2176DF002803D0A1690029FE
:1003200000D0884761690029EED06846057088478B
:1003300038BD000034200020FFFF00005C240020B6
:1003400010B509494B788C785A1CD2B2944200D12E
:1003500000220C78944201D1002010BD0270486840
:1003600018214B43C01810BD5C200020FFB583B09E
:1003700016460C9D0D9C1F46022200950194039881
:1003800000F00CF8002807D13B46102231460095BA
:100390000194039800F002F807B0F0BDFFB583B0F8
:1003A000074600200C9C8646268805463AE0786879
:1003B000A90042181188684681805188C1800022B6
:1003C000694601A865DF002839D16846017805989B
:1003D000814226D17046002801D0002200E002228E
:1003E0002088891842180D998A4227D87146002919
:1003F0000AD1401C80B22080069A049911542088AA
:10040000401C208001208646218806980A186946EB
:1004100001A865DF002812D16946208809784018B4
:1004200020806D1C3888A842C1DC704600280AD0A4
:100430002088801B401E80B2FF2802D90C2007B004
:10044000F0BD069988550020F9E7000004480179BD
:10045000002902D1007B002800D001207047000055
:10046000242000204100C0091B2250434140C8B253
:100470007047000001000007151617181112131419
:1004800024220020442200207022002011000300BA
:100490006DE50100120003006DE50100130003008B
:1004A0006DE50100140003006DE501003C2400200F
:1004B0009ECADC240EE5A9E093F3A3B50000406ECC
:1004C0000000005000030000F8240020D424002085
:1004D00020000000010000000000000029000000D2
:1004E0000100000001000000010000000100000008
:1004F00001000000010000000100000002000000F7
:100500003031323334353637383941424344454649
:10051000151617000002040500000000000000008E
:100520002DB70100B9B601009DB70100ADB50100BE
:1005300000000000000000000000000000000000BB
:10054000880C020003000000580E020003000000A7
:10055000F80C020003000000580E02000300000027
:10056000440D020003000000180E0200030000000A
:10057000440D020003000000340E020003000000DE
:10058000240D020003000000580E020003000000CA
:10059000680D0200030000004C0E02000300000082
:1005A000EC0C0200030000005C0E020003000000DF
:1005B000C80D020003000000580E020003000000F6
:1005C000A40D020003000000580E0200030000000A
:1005D000800D020003000000580E0200030000001E
:1005E000E00C020003000000580E020003000000AF
:1005F000740D020003000000440E0200030000001E
:100600005C0C020003000000580E02000300000012
:10061000140D020003000000580E02000300000049
:10062000940C020003000000580E020003000000BA
:100630005C0D0200050000003C0E020014000000EA
:100640005C0D020005000000200E020014000000F6
:10065000BC0C020003000000580E02000300000062
:10066000A40C020003000000580E0200030000006A
:10067000040D020003000000580E020003000000F9
:10068000E40D020005000000580E020014000000F6
:10069000D80D020003000000640E020003000000F9
:1006A000780C020003000000580E02000300000056
:1006B0000C0E020003000000580E020003000000B0
:1006C000F40D020003000000580E020003000000B9
:1006D000000E020003000000580E0200030000009C
:1006E000500D020003000000280E0200030000006D
:1006F0000C150D0F000211121301030D0F14000051
:10070000020607080A01030B005EBCE2613FDD83BD
:10071000C29C7E20A3FD1F419DC3217FFCA2401EE1
:100720005F01E3BD3E6082DC23079FC1421CFEA047
:10073000E1BF5D0380DE3C62BEE0025CDF81633DC1
:100740007C22C09E1D43A1FF4618FAA427799BC5B1
:1007500084DA3866E5BB5907DB856739BAE40658A1
:100760001947A5FB7826C49A653BD987045AB8E691
:10077000A7F91B45C6987A24F8A6441A99C7257B81
:100780003A6486D85B05E7B98CD2306EEDB3510F71
:100790004E10F2AC2F7193CD114FADF3702ECC9261
:1007A000D38D6F31B2EC0E50AFF1134DCE90722C51
:1007B0006D33D18F0C52B0EE326C8ED0530DEFB141
:1007C000F0AE4C1291CF2D73CA947628ABF5174931
:1007D0000856B4EA6937D58B5709EBB536688AD421
:1007E00095CB2977F4AA4816E9B7550B88D6346A11
:1007F0002B7597C94A14F6A8742AC896154BA9F701
:10080000B6E80A54D7896B35602F0020000001003C
:1008100002000100030001000200010004000100C9
:1008200002000100030001000200010005000100B8
:1008300002000100030001000200010004000100A9
:100840000200010003000100020001000600010097
:100850000200010003000100020001000400010089
:100860000200010003000100020001000500010078
:100870000200010003000100020001000400010069
:100880000200010003000100020001000700010056
:100890000200010003000100020001000400010049
:1008A0000200010003000100020001000500010038
:1008B0000200010003000100020001000400010029
:1008C0000200010003000100020001000600010017
:1008D0000200010003000100020001000400010009
:1008E00002000100030001000200010005000100F8
:1008F00002000100030001000200010004000100E9
:10090000020001000300010002000100637C777B0C
:10091000F26B6FC53001672BFED7AB76CA82C97DFB
:10092000FA5947F0ADD4A2AF9CA472C0B7FD93268C
:10093000363FF7CC34A5E5F171D8311504C723C390
:100940001896059A071280E2EB27B27509832C1AD4
:100950001B6E5AA0523BD6B329E32F8453D100ED2E
:1009600020FCB15B6ACBBE394A4C58CFD0EFAAFB12
:10097000434D338545F9027F503C9FA851A3408FDA
:10098000929D38F5BCB6DA2110FFF3D2CD0C13ECF2
:100990005F974417C4A77E3D645D197360814FDC87
:1009A000222A908846EEB814DE5E0BDBE0323A0A6B
:1009B0004906245CC2D3AC629195E479E7C8376DEF
:1009C0008DD54EA96C56F4EA657AAE08BA78252E14
:1009D0001CA6B4C6E8DD741F4BBD8B8A703EB5669D
:1009E0004803F60E613557B986C11D9EE1F898118E
:1009F00069D98E949B1E87E9CE5528DF8CA1890D7D
:100A0000BFE6426841992D0FB054BB1652096AD512
:100A10003036A538BF40A39E81F3D7FB7CE33982F3
:100A20009B2FFF87348E4344C4DEE9CB547B943242
:100A3000A6C2233DEE4C950B42FAC34E082EA1668A
:100A400028D924B2765BA2496D8BD12572F8F66461
:100A500086689816D4A45CCC5D65B6926C704850DC
:100A6000FDEDB9DA5E154657A78D9D8490D8AB0091
:100A70008CBCD30AF7E45805B8B34506D02C1E8FBA
:100A8000CA3F0F02C1AFBD0301138A6B3A911141F6
:100A90004F67DCEA97F2CFCEF0B4E67396AC7422DF
:100AA000E7AD3585E2F937E81C75DF6E47F11A715D
:100AB0001D29C5896FB7620EAA18BE1BFC563E4B96
:100AC000C6D279209ADBC0FE78CD5AF41FDDA83358
